:1000000000000320D101000095E801004DE8010047
:100010004DE801004DE801004DE801004DE8010008
:100020004DE801004DE801004DE8010095E80100B0
:1000300095E801004DE80100291302002D1402008B
:1000400095E8010095E8010095E8010095E80100B8
:1000500095E8010095E8010095E8010095E80100A8
:1000600095E8010095E8010095E8010095E8010098
:1000700095E8010095E8010095E8010095E8010088
:1000800095E8010095E8010095E8010095E8010078
:1000900095E8010095E8010095E8010095E8010068
:1000A00095E8010095E8010095E8010095E8010058
:1000B00095E8010095E8010095E80100A5F301002D
:1000C00095E8010015FB010095E80100A900020078
:1000D00095E80100CD21020095E8010095E80100B6
:1000E00095E8010095E8010071E0010095E8010044
:1000F00095E8010095E8010095E8010095E8010008
:100100009D180200B1180200C5180200D91802009B
:1001100095E801003503020095E8010095E801002B
:1001200095E8010095E8010095E8010095E80100D7
:1001300095E8010095E8010095E8010095E80100C7
:1001400095E8010095E80100C522020095E801004C
:1001500095E8010095E8010095E8010095E80100A7
:1001600095E8010095E8010095E8010095E8010097
:1001700095E8010095E8010095E8010095E8010087
:1001800095E8010095E8010095E8010095E8010077
:1001900095E8010095E80100BD23020095E8010003
:1001A00095E8010095E8010095E8010095E8010057
:1001B00095E8010095E8010095E8010095E8010047
:1001C00095E8010095E8010095E8010095E8010037
:1001D0005C4B4CF2205210B51A804DF628121A8052
:1001E00000BF00BF1EF05AFB574B4FF030621A6041
:1001F000564A9A60564ADA60564B4FF470021A60BB
:10020000554B564A1A60564B1A78110703D51A787F
:1002100042F008021A70534B5349AA221A70534AEB
:10022000534B8B4204D252F8040F43F8040BF8E707
:10023000504B514900228B4202D243F8042BFAE77B
:100240004E494F4A002352F8230041F8230001335E
:10025000742BF8D14B4B4C4A802103F8011B93427D
:10026000FBD14A4B454A1A60494B8A221A70A3F5C2
:10027000805324225A70A0221A709A799207FCD5D2
:100280009A79D406FCD4434A937903F00C03082BE3
:10029000FAD1414B60221A7002331A78802AFCD1BD
:1002A0003C4B01221A715D225A719A799006FCD555
:1002B0009979384A4906FBD5384B394919600021EC
:1002C000596020231370937903F00C030C2BFAD19F
:1002D000344B354A1A60354A354C136813F4807331
:1002E00003D123604FF4A8531360324B324A1A6093
:1002F00000225A60072243F8042C304AC3F80C2D20
:1003000062B61EF01DFC2368DA0705D52C481EF0E6
:1003100099FB2C4B2C4A1A602C4B1B785B0609D599
:10032000284C294B22689A4204D125481EF08AFBAA
:100330000023236024F03EFA1EF0B6FA21F0D6FA2C
:10034000FEE700BF0E20054030800440823F0400DD
:100350000100002B88ED00E0002008E0030000858C
:1003600002D0074000E007408812FF1F04C00200CF
:100370003007FF1F8812FF1F8420FF1F0002FF1F8E
:100380000000000000E400E064E400E008ED00E0AC
:10039000005006400040064001E007404480044011
:1003A0000000060204800440C010070010D0034083
:1003B00014D0034014E000E01FBF02000000202022
:1003C000EC2DFF601CE00340A5C3945A00F00740E9
:1003D000FFFFFFFFFFFFFFFFFFFFFFFFFFFFFFFF2D
:1003E000FFFFFFFFFFFFFFFFFFFFFFFFFFFFFFFF1D
:1003F000FFFFFFFFFFFFFFFFFFFFFFFFFFFFFFFF0D
:10040000FFFFFFFFFFFFFFFFFFFFFFFFDEF9FFFF23
:1004100010B5054C237833B9044B13B10448AFF33E
:1004200000800123237010BD8812FF1F0000000010
:1004300000C00200084B10B51BB108490848AFF3D3
:1004400000800848036803B910BD074B002BFBD0A0
:10045000BDE81040184700BF000000008C12FF1FCD
:1004600000C002008812FF1F0000000000690B6935
:100470009842D4BF00200120704700BF80698B697B
:100480000028B8BF4042002BB8BF5B429842D4BF9F
:1004900000200120704700BFF0B586460120DEF83D
:1004A0005870DEF83030BA6A106079683A680A44E9
:1004B0007A600EF1300493B15A69002A08DB9A6A17
:1004C00010605E6819683D695A6931445960521B71
:1004D00019690A445A6154F8043F002BECD1DEF844
:1004E0002430144ADEF81840DEF86C000021116058
:1004F000DB00516803F1804303F5603321440D2490
:1005000019611460DA68502122F08002DA60D96043
:1005100000B1F0BD7A68FB689A4200D0F0BDDEF809
:100520005C3001228EF82820002BF7D0BDE8F04087
:10053000184700BF00800340C36A00F12C0233B1AA
:100540000120D96A52F8043F0860002BF9D17047A6
:100550000C4BD3F8902072B9596A1A6AD3ED0A7A13
:1005600002FB01F207EE102A60EE277AB8EE477A16
:1005700087EE870A7047D3F89810D3F89420D3ED0C
:10058000277AEDE7EC15FF1F836D012280F890209C
:100590005B6872B6DFED0B6AD0ED207A90ED1F7AC2
:1005A00067EEA67AF4EEC77AC0ED1E7AD0ED227A15
:1005B000F1EE10FAD8BFF1EE677AC0ED237A62B699
:1005C000704700BF00000000036A8B4210B523D0C3
:1005D000C369994200D010BD8369002BFBD072B66D
:1005E000194AC369846900211160DB00516803F175
:1005F000804303F5603321440D2419611460DA68E7
:10060000502122F08002DA60D96062B60069036886
:10061000BDE810405B6818470446006903689B68A2
:10062000984794F82430002BD5D004F1080021F02D
:1006300013F90023E06963601DF002FD206ABDE844
:1006400010401DF0FDBC00BF008003402DE9F041CB
:100650008568002D31D0816D836F04464868D4F8D9
:10066000AC101B1A002BB8BF5B428B423ADBD4F8AC
:10067000B0108B422A4608DBE16F8B4265DB936842
:1006800023F002039360BDE8F081D4F888100029BC
:10069000F5D02B683B4A93421ED96A683A48B0FBB2
:1006A000F1F19B1A99420AD3CB1A002401200322AC
:1006B000AC60E8602B60AA602960BDE8F0816069E9
:1006C0000368002601240322AE601B68EC602960E9
:1006D000AA60BDE8F04118472B4BB3FBF1F129604C
:1006E000BDE8F081D4E92401D4F8A82002FB03F38B
:1006F000C61841F100073046394623F043FE07EEA5
:10070000900AB1EEE70AB4EE400AF1EE10FA2ED1EB
:10071000FDEEC07A2A4617EE903A17EE901ADBB13A
:10072000002DB6D11949184D0E68B5FBF3F51EB171
:1007300002210120B047A26800200121032390601C
:10074000D16015609360BDE8F081CB1AD4F8A82081
:10075000D4E92601013BC9E7002D90D10B4B1B6862
:10076000002B8CD0022101209847A26887E73946E8
:10077000304623F007FE00EE100A22F039F8A56893
:10078000C6E700BF7FA9030000879303DC1BFF1FA0
:10079000F8B50446D0ED1F7A94ED1E7A806DF4EE24
:1007A000477AF1EE10FA436838D1FDEEC77A17EEBA
:1007B000905A94F890300BB1002D76D08368AB42FC
:1007C0002BD0002D0368B4BF4FF0FF3201229A42B4
:1007D00015D004F12801012608E013685B42012BC3
:1007E00013600BBF126B536B13601E6051F8042F24
:1007F000002AF2D1636FC3EB03139B003FD185EA5C
:10080000E572A2EBE572A368FAB9002B7AD09A6878
:1008100022F002029A608560F8BDF8BDD4ED236A2B
:10082000F5EEC06A77EEA67AF1EE10FAB4EEE77A4A
:100830002FDDF1EE10FAD8BFF0EE477ABDEEE77A81
:10084000C4ED1F7A17EE105AB3E7002B47D0196892
:10085000314EB14223D95E68304FB7FBF2F2891BAB
:100860008A4232D26069002601689E600127032611
:10087000DF6009681A609E608847A06DCBE7013B86
:10088000FDD185EAE572A2EBE572A368002ABCD02F
:10089000DBE7F1EE10FA58BFF0EE477ACEE71F49DA
:1008A000B1FBF2F21A608560F8BD04F10C0020F093
:1008B000D3FF206AA5601DF0C3FB606A1DF0C0FB7A
:1008C000A36D9D6084F89050F8BD511A0027012651
:1008D00003249F60DE6019609C601A609BE71049EA
:1008E0000E4E0F68B6FBF2F627B101200221B84781
:1008F000A368A06D0024012103229C60D9601E60C2
:100900009A6088E7064B1B68002B80D001200221EB
:100910009847A368A06D7AE77FA903000087930337
:10092000DC1BFF1F70B5044608460D4624F0C8FFC7
:1009300023680246294620465B68BDE87040184798
:1009400038B5044608460D4624F0BAFF236802462F
:1009500029465B68204698470546204621F00EF858
:10096000284438BD38B5054621F058F804462846D5
:1009700021F004F8204438BD38B5054621F04EF882
:100980000446284620F0FAFF204438BD38B50A2234
:100990000023054621F002F80446284620F0EEFF29
:1009A000204438BD38B5C9B2054621F041F80446A7
:1009B000284620F0E3FF204438BD00BF10B50921D0
:1009C0002C4820F04BFB2C4820F0D8FFFE212B4870
:1009D0001BF006F900282FD10A2128481BF000F946
:1009E00098B9182125481BF0FBF800283AD10F21AF
:1009F00022481BF0F5F850BB09212048204C1BF081
:100A0000EFF8002832D1206009E01D4C1D480A2370
:100A10001946236020F022FB174820F0AFFF0C217D
:100A2000194820F01BFB2168134820F0F7FF1248FB
:100A3000BDE8104020F0A2BF114C14480123092149
:100A4000236020F00BFB0C4820F098FFE7E70C4CEC
:100A50000F480F230A21236020F000FB064820F0F6
:100A60008DFFDCE7064C0B481823F3E70A480923FF
:100A7000CEE700BF887F02002408FF1F6019FF1F18
:100A80006C17FF1FA07F0200D07F0200947F02003E
:100A9000B87F0200AC7F0200C47F020070B50D4633
:100AA00084B00A2106464148144620F0D7FA294668
:100AB0003F4820F0B3FF3E4820F060FFBCB13D4B03
:100AC000D3F8A420A2F10102B2FA82F252093A4C00
:100AD00023680193019923680093009B5B1A092BFB
:100AE000F9D9032E2FD8DFE806F0241A0F04224686
:100AF000EDE7002D51D12AB92E4B042093F8741044
:100B00001DF0B2FF04B070BD002D3DD1002AF9D117
:100B1000284B112093F877101DF0A6FFF2E755BB84
:100B2000002AEFD1234B162093F876101DF09CFF7E
:100B3000E8E7BDB9002AE5D11E4B0E2093F87510E9
:100B40001DF092FFDEE7002DDCD022681B4B0392E4
:100B500003991A6823680293029B5B1A9A42F9D898
:100B600004B070BD134B93F875100E2081F0010195
:100B70001DF07AFFE9E70F4B93F87610162081F00D
:100B800001011DF071FFE0E70A4B93F87710112087
:100B900081F001011DF068FFD7E7064B93F8741050
:100BA000042081F001011DF05FFFCEE7E07F02002D
:100BB0002408FF1FEC15FF1F141CFF1F5807FF1F01
:100BC000F0B52DED028B85B0044601AE0DF10F0797
:100BD0000FE0FF2D66D001A8357024F071FE0146AC
:100BE00001A820F03BFA334820F0C8FE0136BE428F
:100BF00029D0236820465B6998470021C5B22E485A
:100C000020F02CFA2B4820F0B9FE33212B4820F09D
:100C100025FA284620F0A6FA0221294820F01EFADB
:100C20002946244820F0FAFE224820F0A7FE042D91
:100C3000CFD11921234820F011FA01361D4820F0A8
:100C40009DFEBE42D5D101A823F0A4FD04211E487B
:100C5000B0EE408AF0EE608A20F000FA01A824F09D
:100C60002FFE014601A820F0F9F9124820F086FE77
:100C70000721164820F0F2F9B0EE480AF0EE680AB3
:100C800004210C4820F0D4FE0A4820F077FEB0EE94
:100C9000480AF0EE680A05B0BDEC028BF0BD23688F
:100CA0005B699847236820461B69984700282046BF
:100CB000F5DC9BE72408FF1F74990200EC7F02001B
:100CC000C8AB0200208002003C8002004480020089
:100CD00003280FD8DFE800F00B0805020A48FFF7E9
:100CE0006FBF0A48FFF76CBF0948FFF769BF0948A3
:100CF000FFF766BF9FED020B704700BFAFF30080A8
:100D0000000000000000F0BF0408FF1FF407FF1FF1
:100D1000E407FF1F2408FF1F012828D0022813D052
:100D200010B19FED140A7047134A1169D368D2EDD0
:100D3000056A03FB01F307EE103A60EE267AB8EE7F
:100D4000477A87EE870A70470B4B5A6B012AE8D81F
:100D5000D96B9A6BD3ED116A02FB01F207EE102AF0
:100D600060EE267AB8EE477A87EE870A7047FFF77B
:100D7000EFBB00BF00000000EC15FF1F38B5434D6E
:100D80004348EA6BAB6B95ED107AD5ED127A414C86
:100D900003FB02F32DED048B08EE103AB8EE488AFF
:100DA000DFED3D8A28EE078A0D2167EEA88AF0EE76
:100DB000409A20F053F918EE100A22F077FE41EC29
:100DC000100B0221204620F033FE204620F0D6FDF5
:100DD0001121324820F042F9286C22F067FE41ECE4
:100DE000100B0221204620F023FE204620F0C6FDF5
:100DF0000F212B4820F032F989EEA89A18EE900ABC
:100E000022F054FE41EC100B0221204620F010FE8F
:100E1000204620F0B3FD1021224820F01FF919EEE2
:100E2000900A22F043FE41EC100B0221204620F0F4
:100E3000FFFD204620F0A2FD07211B4820F00EF9FF
:100E400019EE100A22F032FE41EC100B022120466E
:100E500020F0EEFD28EE098A204620F08FFD0821C3
:100E6000124820F0FBF818EE100A22F01FFE41ECA9
:100E7000100B0221204620F0DBFD204620F07EFDF5
:100E8000B0EE480ABDEC048B38BD00BFEC15FF1F67
:100E90007C8002002408FF1FDB0FC9408C80020009
:100EA000A0800200B0800200C4800200CC8002005A
:100EB000144A1548D2ED117AD16B936B80EE270A54
:100EC00010B503FB01F31921104C2DED028B08EE38
:100ED000103AB8EE488A28EE008A20F0BFF818EEE3
:100EE000100A22F0E3FD41EC100B0221204620F015
:100EF0009FFD204620F042FDB0EE480ABDEC028B7B
:100F000010BD00BFEC15FF1FD88002002408FF1F92
:100F10000128F0EE407A1CD0022813D010B19FEDCA
:100F2000160A7047154AD2ED056A1169D36887EE33
:100F3000A67A03FB01F300EE103AB8EE400A20EE69
:100F4000070A70470D4B5B6B9BB1012BE7D1FFF795
:100F5000AFBF0A4AD2F8903023B9D2ED0A6A516A7B
:100F6000136AE4E7D2ED276AD2F89810D2F89430E9
:100F7000DDE7FFF703BF00BF00000000EC15FF1F17
:100F800038B52F4D2F4C95ED007AD4ED007AB5EEA3
:100F9000C07AF1EE10FA48BFB1EE477AF5EEC07AAA
:100FA00048BF85ED007AF1EE10FA44BFF1EE677AA2
:100FB000C4ED007A67EEA77A2DED048BE7EE077A91
:100FC00008EE100A17EE900A08EE901A22F06EFD55
:100FD00041EC100B21F04CFB51EC100B23F0B2F85C
:100FE00094ED006AD5ED006A07EE900A87EE867AE6
:100FF00087EEA69AF8EEE88AB8EEC88A67EE287AF5
:1010000017EE900A22F052FD41EC100B21F090FAFD
:1010100051EC100B23F096F868EE097A206017EE79
:10102000900A22F043FD41EC100B21F081FA51ECC3
:10103000100B23F087F8BDEC048B286038BD00BF8F
:101040007014FF1F6814FF1FBA4AF8B592E80A002F
:1010500003FB01F307EE903A92ED027AB64CF8EEFC
:10106000677A2DED028BB0EE408AF0EE608A67EE73
:10107000877A17EE900A22F019FD41EC100B21F04F
:1010800057FA51EC100B23F015F809210546AB482F
:101090001FF0E4FF2168AA4820F0C0FCA84820F017
:1010A0006DFCB0EE480AF0EE680A0221A44820F078
:1010B000BFFCA34820F062FC2368013B042B00F234
:1010C000D180DFE803F045688BAD03009D4C2368B9
:1010D000022B84ED048B284600F0C78022F0D4FC5C
:1010E00053EC182B22F060FE22F0E4FFA0601621E2
:1010F00095481FF0B3FF2946914820F08FFC10213E
:1011000092481FF0ABFFB0EE480AF0EE680A0221E9
:101110008B4820F08DFC03218D481FF09FFF062196
:101120008C481FF09BFF06218B481FF097FFA1689A
:10113000834820F073FC824820F020FC874B8148D4
:101140001968BDEC028B1822BDE8F8401DF0ECBA1E
:10115000834C2368022B84ED048B284600F0D58055
:1011600022F092FC53EC182B22F01EFE22F0A2FF7C
:10117000A06006217B481FF071FF062176481FF012
:101180006DFFA1686E4820F049FC6D4820F0F6FB29
:10119000754B7348D4E7754C2368022B84ED048BA0
:1011A000284600F09E8022F06FFC53EC182B22F0B2
:1011B000FBFD22F07FFFA06006216D481FF04EFF6F
:1011C000062165481FF04AFFA1685D4820F026FC13
:1011D0005B4820F0D3FB674B6448B1E7664C23685B
:1011E000022B84ED048B284667D022F04DFC53EC93
:1011F000182B22F0D9FD22F05DFFA06006215F4888
:101200001FF02CFF062154481FF028FFA1684C480E
:1012100020F004FC4A4820F0B1FB594B56488FE7B8
:10122000584C2368022B84ED048B284631D022F0E1
:101230002BFC53EC182B22F0B7FD22F03BFFA060F3
:10124000062151481FF00AFF062143481FF006FF00
:10125000A1683B4820F0E2FB394820F08FFB4B4B64
:1012600048486DE7BDEC028BF8BD22F00DFC002272
:1012700006460F46464B51EC180B22F095FD0246F0
:101280000B463046394622F065FC22F013FFA06081
:101290002DE722F0F9FB002206460F463C4B51ECAD
:1012A000180B22F081FD02460B463046394622F0EB
:1012B00051FC22F0FFFEA060C2E722F0E5FB002215
:1012C00006460F46324B51EC180B22F06DFD0246DC
:1012D0000B463046394622F03DFC22F0EBFEA06082
:1012E0008CE722F0D1FB002206460F46284B51EC3A
:1012F000180B22F059FD02460B463046394622F0C3
:1013000029FC22F0D7FEA06056E722F0BDFB0022A8
:1013100006460F461E4B51EC180B22F045FD0246C7
:101320000B463046394622F015FC22F0C3FEA06081
:101330001FE700BFEC15FF1F7415FF1FF4800200AC
:101340002408FF1F5017FF1F288102004081020060
:1013500064AB020054810200088102005C07FF1F99
:10136000F016FF1F008102005007FF1F0817FF1F24
:10137000108102005407FF1F2017FF1F1881020071
:101380006807FF1F3817FF1F208102007807FF1F23
:1013900000807640F8B51D212DED028B914D924CC9
:1013A000924E08EE100A92481FF058FE914820F025
:1013B000E5FA95E8090003FB00F307EE903A95ED96
:1013C000027AD4ED036A8C4A8C49F8EE677AB8EE5B
:1013D000C88A67EE877A002387EEA67A0B601360CF
:1013E000C7EE087A17EE900A22F060FB41EC100B72
:1013F00021F09EF851EC100B22F05CFE2768306063
:10140000012F00F0B98065D3022F41D07C4F7D4879
:1014100015211FF023FE3168764820F0FFFA754849
:1014200020F0ACFA242178481FF018FEE06822F082
:101430003DFB41EC100B02216E4820F0F9FA6D489B
:1014400020F09CFA292171481FF008FEA06922F0C3
:101450002DFB41EC100B0221664820F0E9FA6548AB
:1014600020F08CFA14216A481FF0F8FD39686148B1
:1014700020F0D4FA5F4820F081FA142165481FF06B
:10148000EDFDBDEC028B5B48BDE8F84020F076BA7C
:101490002B21614894ED068A1FF0E0FDA06922F03F
:1014A00005FB41EC100B3946524820F0C1FA514877
:1014B00020F064FA6B6B002B00F08980012BA5D122
:1014C000B0EE480AFFF7F4FC4D4FBDEEC00A87EDC1
:1014D000000A9CE794ED067AD5ED057A484F87EE31
:1014E000278AD5ED047A95ED037AF8EE677AB8EE9F
:1014F000477A67EE887A67EE877A17EE900A22F0CD
:10150000D5FA41EC100B21F013F851EC100B22F03E
:10151000D1FD1821386041481FF0A0FDA06922F0DC
:10152000C5FA41EC100B0221324820F081FA314813
:1015300020F024FA24213A481FF090FD686922F037
:10154000B5FA41EC100B02212A4820F071FA294823
:1015500020F014FA112133481FF080FD18EE100A14
:1015600022F0A4FA41EC100B0221224820F060FA8C
:10157000204820F003FA4AE7D5F89030D4ED065A17
:10158000F3B195ED276A95ED267AD5ED257A1C4FB6
:10159000C5EE866AB8EE477AF8EE677A26EE877A65
:1015A00067EE277A17EE900A22F080FA41EC100BD2
:1015B00020F0BEFF51EC100B22F07CFD386026E7D6
:1015C00095ED0A6A95ED097AD5ED087ADFE7B0EE78
:1015D000480AFFF7D3FB0A4FBDEEC00A87ED000AA9
:1015E00015E700BFEC15FF1F0814FF1F8415FF1F30
:1015F0005C8102002408FF1FB412FF1F6418FF1F44
:101600001C13FF1F008202001882020040820200A9
:101610006C82020084820200D48102007C8102007C
:1016200098810200C08102000C4B1B68032B13D869
:10163000DFE803F00E0A06020146094820F078B9F7
:101640000146084820F074B90146074820F070B9F7
:101650000146064820F06CB9704700BF4807FF1FDD
:101660000408FF1FF407FF1FE407FF1F2408FF1FE4
:10167000F0B585B06C496D4C6D4E6E4F684620F0EC
:101680004BFB00216846FFF7CFFF684620F004FBC4
:101690006949684620F040FB00216846FFF7C4FF17
:1016A000684620F0F9FA6549684620F035FB0021CC
:1016B0006846FFF7B9FF684620F0EEFA5E496846D3
:1016C00020F02AFB00216846FFF7AEFF684620F0B5
:1016D000E3FA5B49684620F01FFB00216846FFF7EC
:1016E000A3FF684620F0D8FA5349684620F014FB5F
:1016F00000216846FFF798FF684620F0CDFA51496F
:10170000684620F009FB00216846FFF78DFF684618
:1017100020F0C2FA4849684620F0FEFA00216846E7
:10172000FFF782FF684620F0B7FA4749256891ED38
:10173000027ADFED466A3668454A91E8090003FB04
:1017400000F307EE903A06EE105AF8EE677AB8EE1C
:10175000C66A67EE877A012E86EE277A67EE267ACA
:10176000C2ED007A50D033D3022E0FD1D7ED007ADC
:101770003046B8EEE70AFFF7CFFA364B3046012283
:10178000002183ED000AFFF789F92568324A334BBF
:1017900015600821002532481D601FF05FFC21689C
:1017A000304820F03BF92F4820F0E8F805212E487A
:1017B0001FF054FC39682B4820F030F9294820F0FC
:1017C000DDF8294601220320FFF768F905B0F0BDD6
:1017D000D7ED007A0A69CB6891ED057A1D4DF8EED8
:1017E000E77A03FB02F327EE877A07EE903AF8EEEA
:1017F000677A0021C7EE276A08460122C5ED006A14
:10180000FFF74CF92568C1E7D7ED007AB8EEE70A93
:10181000FEF79EFE0F4B32463046002183ED000A54
:10182000FFF73CF92568B1E79C8202006418FF1FAE
:101830000814FF1FB412FF1FB0820200B48202001E
:10184000C8820200DC820200EC15FF1F0000B443D6
:101850009416FF1FBC13FF1F6C15FF1FF812FF1F0C
:10186000049F02002408FF1F209B020010B5F0EE29
:10187000407A0021F2EE046ABDEEE77AB8EEC77A4C
:10188000B4EE677AF1EE10FA04D00131062967EE62
:10189000A67AF1D11E4B1B68032B37D8DFE803F083
:1018A000291C0F0210EE100ACCB222F0FFF841EC16
:1018B000100B21461748BDE8104020F0B9B810EED3
:1018C000100ACCB222F0F2F841EC100B214612487B
:1018D000BDE8104020F0ACB810EE100ACCB222F0F7
:1018E000E5F841EC100B21460C48BDE8104020F013
:1018F0009FB810EE100ACCB222F0D8F841EC100BD1
:1019000021460748BDE8104020F092B810BD00BF46
:101910004807FF1F0408FF1FF407FF1FE407FF1F0E
:101920002408FF1F084B1B68032B0BD8DFE803F0CC
:10193000080604021EF00CBB1DF090BF1DF024BC75
:101940001FF010BC704700BF4807FF1F2DE9F04192
:10195000DFF85080104F114E114D044601464046AD
:101960001FF0E6FF404620F009F8214638461FF0F8
:10197000DFFF384620F002F8214630461FF0D8FF3E
:1019800030461FF0FBFF214628461FF0D1FF2846B6
:10199000BDE8F0411FF0F2BFE407FF1FF407FF1F8F
:1019A0000408FF1F2408FF1F2DE9F04FB24CA3B01D
:1019B00001210D201DF06CF823680893089A236814
:1019C0000793079BAC4D9B1A0E2BF8D9AB4BAC4938
:1019D0001E681EA820F0A0F900211EA8FFF724FE13
:1019E0001EA820F059F90A2231461EA820F0C6F997
:1019F0001EA8FFF7ABFF1EA820F04EF940F287109B
:101A00001DF0A6F90C219F481DF0C8FB03219E483C
:101A10001DF0C4FB2B680693069A23680593059B6B
:101A2000954D9B1A312BF8D90C2196481DF0B6FB29
:101A3000032195481DF0B2FB2B680493049A236898
:101A40000393039B8C4D9B1A312BF8D907218F48A8
:101A50001DF0A4FB03218C481DF0A0FB2B68029312
:101A6000029A23680193019B9B1A312BF9D91DF02F
:101A700017FC0028864D0CDD01230C2185482B60C6
:101A80001FF0ECFA296884481FF0C8FF82481FF055
:101A900075FF40F287101DF00BFD0C2179481DF0F9
:101AA00035FF032178481DF031FF23680E930E9A0D
:101AB00023680D930D9B704E9B1A312BF8D90C2186
:101AC00070481DF023FF03216F481DF01FFF33688E
:101AD0000C930C9A23680B930B9B674E9B1A312B2C
:101AE000F8D9072169481DF011FF032166481DF050
:101AF0000DFF33680A930A9A23680993099B9B1A7E
:101B0000312BF9D91DF084FF00280CDD02230C21B4
:101B100062482B601FF0A2FA29685F481FF07EFF21
:101B20005D481FF02BFF82201EF0CCF80C21554899
:101B30001EF018FA032154481EF014FA2368149377
:101B4000149A23681393139B4B4E9B1A312BF8D98D
:101B50000C214C481EF006FA03214B481EF002FAF5
:101B600033681293129A23681193119B424E9B1A69
:101B7000312BF8D9072145481EF0F4F903214248DA
:101B80001EF0F0F933681093109A23680F930F9B9F
:101B90009B1A312BF9D91EF019FA00280CDD03230A
:101BA0000C213F482B601FF059FA29683A481FF072
:101BB00035FF39481FF0E2FE0A213A483A4E1FF03D
:101BC0004DFA296834481FF029FF33481FF0D6FE2C
:101BD000364B1B683746C6EB03083D46A83608EB74
:101BE00005001CF059FD05F8010BB542F7D1304B4B
:101BF000304E1B68B346C6EB03085D46343608EB2F
:101C000005001CF049FD05F8010BB542F7D12A4B40
:101C10002A4E1B683246C6EB03081546403608EBD1
:101C200005001CF039FD05F8010BAE42F7D1244B3D
:101C3000244E1B68B246C6EB03085546343608EB03
:101C400005001CF029FD05F8010BB542F7D11E4B2C
:101C50001E4D1E68A946761BC846103506EB0800C7
:101C60001CF01AFD08F8010BA845F7D1184B194DC7
:101C70001E68A84630E000BF141CFF1F7420FF1F21
:101C8000F0820200F8820200B082020008830200A3
:101C90004807FF1F108302002408FF1F2083020053
:101CA0003083020040830200EC15FF1F7C14FF1FED
:101CB0009007FF1F2819FF1F3C07FF1F1418FF1F65
:101CC0008407FF1FC013FF1F8C07FF1F7415FF1F22
:101CD0005007FF1FF016FF1F761B183506EB080094
:101CE0001CF0DAFC08F8010B4545F7D1C54BC64D91
:101CF0001E68A846761B183506EB08001CF0CCFCC5
:101D000008F8010BA845F7D1C04BC14D1E68A84685
:101D1000761B183506EB08001CF0BEFC08F8010B1A
:101D2000A845F7D1BB4BBC4D1E682B46761B984689
:101D3000403506EB08001CF0AFFC08F8010B4545E8
:101D4000F7D1B64BB64D1E682B46761B98465C35D0
:101D500006EB08001CF0A0FC08F8010BA845F7D121
:101D6000B04BB14D1E682B46761B9846543506EB9A
:101D700008001CF091FC08F8010B4545F7D1AB4B6E
:101D8000AB4D1E682B46761B9846603506EB080067
:101D90001CF082FC08F8010BA845F7D11321A548D7
:101DA0001FF05CF9DBF83010A3481FF037FEA248A3
:101DB0001FF0E4FD1221A1481FF050F9DAF83010AD
:101DC0009D481FF02BFE9C481FF0D8FD1A219C480F
:101DD0001FF044F9D9F8001097481FF01FFE9648ED
:101DE0001FF0CCFD132197481FF038F98A4B924819
:101DF00019680A2200231FF0D1FD8F481FF0BEFD95
:101E0000132191481FF02AF9904B8B4819680A2238
:101E100000231FF0C3FD88481FF0B0FD12218C483D
:101E20001FF01CF9804B8448996C0A2200231FF094
:101E3000B5FD81481FF0A2FD172186481FF00EF95D
:101E40007B4B7D4819680A2200231FF0A7FD7A48C2
:101E50001FF094FD132180481FF000F9704B764865
:101E6000996B0A2200231FF099FD73481FF086FD2D
:101E7000012104201CF00CFE01210E201CF008FEA4
:101E8000012116201CF004FE012111201CF000FE8F
:101E9000012200210320FEF701FE00210846012255
:101EA000FEF7FCFD012210460021FEF7F7FD01229E
:101EB00000210220FEF7F2FD0221387E1CF0E8FD31
:101EC0000221387F1CF0E4FD23681A931A9A2368D4
:101ED0001993199B614D9B1A092BF8D90121387E62
:101EE0001CF0C2FD0121387F1CF0BEFD022197F8D5
:101EF0002C001CF0CDFD022197F830001CF0C8FD2D
:101F00002B681893189A23681793179B534D9B1AA5
:101F1000092BF8D9012197F82C001CF0A5FD01210F
:101F200097F830001CF0A0FD022197F84C001CF03F
:101F3000AFFD022197F850001CF0AAFD012197F88F
:101F40004C001CF091FD97F8500001211CF08CFD15
:101F50002B681693169A23681593159B9B1A092BC9
:101F6000F9D9012118201CF093FD012118201CF043
:101F70007BFD01210F201CF08BFD01210F201CF0A7
:101F800073FD01210A201CF083FD01210A201CF0B1
:101F90006BFD012109201CF07BFD012109201CF0B3
:101FA00063FDFEF70BFD012200210320FEF776FD05
:101FB0002A4E032501210D201CF056FD23681E9397
:101FC0001E9A23681D931D9B9B1A312BF9D9002162
:101FD0000D201CF049FD33681C931C9A23681B9349
:101FE0001B9B9B1AB3F5967FF8D3013DE2D10E21DE
:101FF0001B481FF033F810481FF0C0FC23B0BDE8A9
:10200000F08F00BF5407FF1F0817FF1F6807FF1F4F
:102010002017FF1F6C07FF1FAC15FF1F3407FF1FA2
:102020002013FF1F3807FF1F8014FF1F4C07FF1FDF
:102030000814FF1F4C8302002408FF1F6083020066
:102040007483020090830200A48302001418FF1F0F
:10205000B8830200CC830200E4830200141CFF1F3B
:10206000F883020003280BD8DFE800F0080604021A
:102070001DF0BCBF1DF0DCBC1DF022B91EF088BFF6
:102080000020704708B51DF00BF9002801DD012084
:1020900008BD1DF0BDFC002801DD022008BD1DF0BB
:1020A00095FF0028D4BF0020032008BD38B50D4C93
:1020B0002068FFF7D7FFC5B202E02068FFF7D2FF24
:1020C000FFF7E0FF0028F8DC042107481EF0C6FFF8
:1020D000294606481FF0A2FC04481FF04FFC284682
:1020E00038BD00BF4807FF1F088402002408FF1FF7
:1020F00008B5FFF7C7FF002808DB154B1868FFF786
:10210000B1FF144BC0B25328187001D0002008BD95
:10211000012200210320FEF7C1FC0F4B1B68012B9D
:1021200009D003D3022B0BD0012008BD0122104699
:102130000021FEF7B3FC012210460021FEF7AEFCA1
:10214000012200210220FEF7A9FC012008BD00BFEA
:102150004807FF1FF413FF1F0814FF1FF0B51C21D1
:1021600083B02748274C284D284E294F1EF076FF74
:1021700028481FF003FC0E2127481EF06FFF21683E
:1021800024481FF04BFC23481FF0F8FB0023019369
:1021900009E0019B306818441CF098FA019B013358
:1021A000142B019314DC2868FFF75CFFC0B2FF28F2
:1021B0002368014619D0032BEBD1019B3A680146F5
:1021C000D0181CF083FA019B0133142B0193EADD34
:1021D0002368032B0CBF114B114B042219680DEB24
:1021E00002001CF0A1FA03B0F0BD032B0CBF084A9B
:1021F000064A019B1068002118441CF067FAE7E7C3
:10220000108402008007FF1F4807FF1F7C07FF1F85
:102210004407FF1F2408FF1F308402008807FF1FA8
:102220006007FF1F2DE9F04F95B0074604A819F08D
:1022300093FC88201FF062FB0823102280E80C002A
:10224000C61800F18808354634462046002110346F
:102250001FF062FDA045F8D11721BF481EF0FEFE19
:10226000BE481FF08BFB0CA80123BD4ABD4919F0E5
:1022700063FD0E9A9DF83C309DF8341006928DF85F
:102280001C308DF814100FAA0DF11D030DF12A005A
:1022900012F8011F03F8011B8342F9D1139B0B9322
:1022A0000CA819F067FC04A819F092FC002800F0B3
:1022B000AF8104A819F07AFC0A210446AA481EF04E
:1022C000CDFE214600230A22A4481FF067FBA34845
:1022D0001FF054FB002F4AD017F1060900F1B78018
:1022E0000024A24610E0013C0CA819F071FC8046C5
:1022F000002842D00CA819F05DFC01340CA819F09C
:1023000039FC4C4500F3A380012204A90CA819F064
:1023100087FD0CA819F030FC804623F0D1FA014665
:1023200040461EF09BFE8D481FF028FB0CA819F0BC
:1023300025FC0028D7D10CA819F01EFC01468B48BB
:1023400023F0E2F80A2100285CD189481EF086FEBD
:102350000CA819F011FC804623F0B2FA0146404661
:102360001EF07CFE7D48013C1FF008FBC2E7814B5C
:1023700064221A604FF00609B2E70F217E48DFF8A9
:10238000F4B11EF06BFE214674481FF047FB032199
:102390007A481EF063FEDBF8001070481FF03EFB29
:1023A00004F1080303217548CBF800301EF056FEF7
:1023B000DBF8001069481FF031FB68481FF0DEFAB7
:1023C00068466F491FF0A8FC41466846FFF72CF9A4
:1023D00068461FF061FC2220FFF7A4FA631E00EE9E
:1023E000103A4046B8EEC00AFFF740FA6846654921
:1023F0001FF092FC68464146FFF716F968461FF049
:102400004BFC77E760481EF029FE214653481FF039
:1024100005FB032159481EF021FE0CA819F0ACFB66
:10242000804623F04DFA014640461EF017FE032178
:1024300052481EF013FEA74240F3F48006EB0A1147
:1024400046481FF075FA45481FF098FA4CE70126F8
:10245000741E03214D481EF001FE21463F481FF027
:10246000DDFA032145481EF0F9FD29463B481FF0DF
:102470005FFAB41E39481FF081FA052C04D8DFE852
:1024800004F068666462359541490CA81FF044FC6D
:1024900000210CA8FFF7C8F80CA81FF0FDFB3D4970
:1024A0000CA81FF039FC00210CA8FFF7BDF80CA800
:1024B0001FF0F2FB29460CA81FF042FC00210CA8DB
:1024C000FFF7B2F80CA81FF0E7FB2E490CA81FF08D
:1024D00023FC00210CA8FFF7A7F80CA81FF0DCFBD9
:1024E000072E00F08F8010350136B1E72A490CA87D
:1024F0001FF012FC00210CA8FFF796F80CA81FF0A3
:10250000CBFB24490CA81FF007FC00210CA8FFF707
:102510008BF80CA81FF0C0FB29460CA81FF010FC7C
:1025200000210CA8FFF780F80CA81FF0B5FB154997
:102530000CA81FF0F1FB0CA80021FFF775F80CA800
:102540001FF0AAFBCFE71549D1E71549CFE7154999
:10255000CDE71549CBE700BF408402002408FF1FE8
:10256000588402006019FF1F5C8402007884020016
:10257000848402007007FF1FA08402009C84020074
:10258000B0840200C484020090840200CC84020063
:10259000D0840200E88402004C85020034850200E9
:1025A0001C85020004850200EC84020023490CA86B
:1025B0001FF0B2FB00210CA8FFF736F80CA81FF0A3
:1025C0006BFB1F490CA81FF0A7FB00210CA8FFF70D
:1025D0002BF80CA81FF060FB29460CA81FF0B0FBDD
:1025E00000210CA8FFF720F80CA81FF055FB154997
:1025F0000CA81FF091FB0CA80021FFF715F80CA800
:102600001FF04AFB04A819F0B5FA15B0BDE8F08F29
:102610000E210D481EF022FD04A819F0ABFA15B0EA
:10262000BDE8F08F0CA819F0A7FA06EB0A180146CE
:1026300040461FF0F9FB0AF1010AFFE6648502003B
:10264000E8840200C48402006884020008B5084BD4
:10265000DFED080AD3ED007A27EE800A20F068F853
:102660001FF0BEFF044BD3ED007A20EE270A08BD11
:102670006C14FF1FDB0FC9409815FF1F08B52C4ACB
:102680002C4B92ED010A93ED007ADFED2B6A2B4B78
:10269000B8EEC77A9B6BC6EE877A012BB8EEC00AFC
:1026A0002DED028B27EE800A3BD034D3022B2CD0A9
:1026B0009FED238AFFF7CAFF224A234B92ED007A4F
:1026C000002283F8902072B6DFED207A93ED206A25
:1026D000D3ED1F6A30EE480AB8EEC77AC0EE275A2B
:1026E000C5EE877A67EE867AF4EEE67AC3ED1E7A57
:1026F000D3ED227AF1EE10FAD8BFF1EE677AC3ED8E
:10270000237A62B6BDEC028B08BD114B93ED018AB2
:10271000B8EEC88ACEE70F4B93ED018AB8EEC88AAF
:10272000C8E70D4B93ED018AB8EEC88AC2E700BF37
:10273000B812FF1F5C19FF1FDB0FC9402013FF1FDA
:10274000000000006817FF1FD814FF1FCDCCCC3C41
:102750009816FF1FD417FF1F7017FF1F2DE9F04FAA
:102760001621ADB00446B1481EF078FCB0481FF009
:1027700005F9601E092800F27B84DFE810F0940060
:10278000CD01A9026B0179042603F901D303D30318
:102790000A00A84B1D680DF15008C8EB050544461A
:1027A0002BAE28191BF078FF04F8010BA642F8D1D4
:1027B000A14907A81FF0B0FA002107A8FEF734FFCF
:1027C00007A81FF069FA2220FFF7ACF8DDED147AB4
:1027D0000020B8EEE70AFFF749F8984907A81FF06C
:1027E0009BFA002107A8FEF71FFF07A81FF054FA65
:1027F000934907A81FF090FA002107A8FEF714FFDD
:1028000007A81FF049FA2220FFF78CF8DDED187AAF
:102810000020B8EE670AFFF729F8884907A81FF0DB
:102820007BFA07A80021FEF7FFFE07A81FF034FA85
:10283000229B012B00F0EC86C0F0B886022B40F002
:102840009582804907A81FF067FA002107A8FEF7C4
:10285000EBFE07A81FF020FA2220FFF763F8DDED5A
:10286000177A0020B8EE670AFFF700F8734907A847
:102870001FF052FA002107A8FEF7D6FE07A81FF0A6
:102880000BFA714907A81FF047FA002107A8FEF7C5
:10289000CBFE07A81FF000FA2220FFF743F8002024
:1028A000DDED1B7A1AE3694B1D6807AC2E1B0DF199
:1028B000500830191BF0F0FE04F8010BA045F8D1C8
:1028C000C8EB050521AE444628191BF0E5FE04F8C7
:1028D000010BA642F8D1584903A81FF01DFA0021A8
:1028E00003A8FEF7A1FE03A81FF0D6F9584903A8D4
:1028F0001FF012FA002103A8FEF796FE03A81FF0AE
:10290000CBF9DDED087A0020B8EEE70AFEF7AEFF5E
:102910004A4903A81FF000FA002103A8FEF784FE2D
:1029200003A81FF0B9F9464903A81FF0F5F90021E3
:1029300003A8FEF779FE03A81FF0AEF9444903A8E7
:102940001FF0EAF9002103A8FEF76EFE03A81FF0AE
:10295000A3F9DDED107A0020B8EEE70AFEF786FF56
:10296000364903A81FF0D8F903A80021FEF75CFE42
:1029700003A81FF091F9139C012C00F03B85022C59
:1029800000F0D184002C40F0F1812E4903A81FF003
:10299000C3F9214603A8FEF747FE03A81FF07CF900
:1029A0002B4903A81FF0B8F9214603A8FEF73CFE07
:1029B00003A81FF071F9DDED097A2046B8EEE70AA9
:1029C000FEF754FF1D4903A81FF0A6F9214603A8EE
:1029D000FEF72AFE03A81FF05FF91B4903A81FF0AA
:1029E0009BF9214603A8FEF71FFE03A81FF054F928
:1029F000174903A81FF090F9214603A8FEF714FE1B
:102A000003A81FF049F9DDED117A2046B8EEE70A78
:102A1000FEF72CFF094903A81FF07EF903A8214601
:102A2000FEF702FE03A81FF037F99FE17C85020044
:102A30002408FF1F3407FF1F94850200C48402008E
:102A4000A8850200BC850200D08502009007FF1F08
:102A5000E8840200924B1D680DF15008C8EB050593
:102A6000444624AE28191BF017FE04F8010BA642B9
:102A7000F8D1149A052A00F279810123934013F0CA
:102A8000240440F0E98313F0120540F03A8613F075
:102A9000090F00F06B8107A882491FF03DF9294614
:102AA00007A8FEF7C1FD07A81FF0F6F82220FEF7E1
:102AB00039FFDDED157A2846B8EEE70AFEF7D6FEB7
:102AC00007A879491FF028F9294607A8FEF7ACFDA9
:102AD00007A81FF0E1F807A874491FF01DF929465F
:102AE00007A8FEF7A1FD07A81FF0D6F82220FEF7E1
:102AF00019FFDDED167A2846B8EE670AFEF7B6FE36
:102B000007A869491FF008F907A82946FEF78CFDB8
:102B100007A81FF0C1F829E1654B1D680DF15008A9
:102B2000C8EB0505444621AE28191BF0B5FD04F895
:102B3000010BA642F8D11E9B5E4801930B21DDF8E4
:102B400054B0DDF874A0DDF85890179F1F9E189DB3
:102B5000149C1EF083FA58481EF010FF209B032B94
:102B600000F20481DFE813F03003FC02C8028702A0
:102B7000524B1D680DF15008C8EB0505444629AEBF
:102B800028191BF089FD04F8010BA642F8D14C4925
:102B900007A81FF0C1F8002107A8FEF745FD07A808
:102BA0001FF07AF82220FEF7BDFEDDED147A00203A
:102BB000B8EEE70AFEF75AFE3B4907A81FF0ACF84B
:102BC000002107A8FEF730FD07A81FF065F83D4972
:102BD00007A81FF0A1F8002107A8FEF725FD07A808
:102BE0001FF05AF82220FEF79DFEDDED1C7A002032
:102BF000B8EE670AFEF73AFE2B4907A81FF08CF8DB
:102C0000002107A8FEF710FD07A81FF045F80721CF
:102C10002D481EF023FA269C2748214600230A222D
:102C20001EF0BCFE24481EF0A9FE012C00F04883D3
:102C3000C0F01484022C40F099801A4907A81FF0B4
:102C40006BF8002107A8FEF7EFFC07A81FF024F897
:102C50002220FEF767FE1D4B93ED030A0020B8EE1D
:102C6000C00AFEF703FE104907A81FF055F800211F
:102C700007A8FEF7D9FC07A81FF00EF80B4907A814
:102C80001FF04AF8002107A8FEF7CEFC07A81FF0A6
:102C900003F82220FEF746FE0020DDED1F7A1DE13D
:102CA0006C07FF1FBC850200C4840200D0850200AF
:102CB0008407FF1F408602002408FF1F3807FF1FFC
:102CC00094850200A8850200388602008014FF1F48
:102CD0008A4B1D6807AC2D1B0BAE28191BF0DCFCC2
:102CE00004F8010BA642F8D10DF150088449404682
:102CF0001FF012F800214046FEF796FC40461EF0F9
:102D0000CBFF2220FEF70EFEDDED087A0020B8EEA4
:102D1000E70AFEF7ABFD7B4940461EF0FDFF0021B0
:102D20004046FEF781FC40461EF0B6FF764940461D
:102D30001EF0F2FF00214046FEF776FC40461EF0F2
:102D4000ABFF2220FEF7EEFDDDED0A7A0020B8EEA3
:102D5000670AFEF78BFD6B4940461EF0DDFF4046DB
:102D60000021FEF761FC40461EF096FF6749404691
:102D70001EF0D2FF00214046FEF756FC40461EF0F2
:102D80008BFF634940461EF0C7FF00214046FEF717
:102D90004BFC40461EF080FF5E4940461EF0BCFFE3
:102DA00000214046FEF740FC40461EF075FF5849A2
:102DB00040461EF0B1FF00214046FEF735FC40467C
:102DC0001EF06AFF2DB0BDE8F08F534B1D680DF16A
:102DD0005008C8EB0505444624AE28191BF05CFCDE
:102DE00004F8010BA642F8D1454907A81EF094FF4C
:102DF000002107A8FEF718FC07A81EF04DFF2220AF
:102E0000FEF790FDDDED157A0020B8EEE70AFEF73B
:102E10002DFD3C4907A81EF07FFF002107A8FEF703
:102E200003FC07A81EF038FF374907A81EF074FFFF
:102E3000002107A8FEF7F8FB07A81EF02DFF2220AF
:102E4000FEF770FDDDED167A0020B8EE670AFEF79A
:102E50000DFD2C4907A81EF05FFF07A80021FEF713
:102E6000E3FB07A81EF018FF149B012B00F028833A
:102E7000C0F06A83022B7FF479AF284907A81EF0BF
:102E80004BFF002107A8FEF7CFFB07A81EF004FFA9
:102E90002220FEF747FDDDED1B7A0020B8EEE70AA1
:102EA000FEF7E4FC174907A81EF036FF002107A82B
:102EB000FEF7BAFB07A81EF0EFFE194907A81EF09F
:102EC0002BFF002107A8FEF7AFFB07A81EF0E4FECA
:102ED0002220FEF727FDDDED1C7A0020B8EE670A00
:102EE000FEF7C4FC074907A81EF016FF07A800213B
:102EF000FEF79AFB07A81EF0CFFE37E78C07FF1FEF
:102F000094850200C4840200A88502007486020031
:102F1000B08202008C8602003C07FF1FBC850200C5
:102F2000D0850200C24B1D680DF15008C8EB0505A5
:102F300044462CAE28191BF0AFFB04F8010BA64247
:102F4000F8D1BC49BC4C07A81EF0E6FE002107A83A
:102F5000FEF76AFB07A81EF09FFE2220FEF7E2FCA8
:102F6000DDED207A0020B8EEE70AFEF77FFCB349DA
:102F700007A81EF0D1FE002107A8FEF755FB07A801
:102F80001EF08AFEAE4907A81EF0C6FE002107A863
:102F9000FEF74AFB07A81EF07FFE2220FEF7C2FCC8
:102FA000289D07EE905A0020B8EE670AFEF75EFCF7
:102FB000A24907A81EF0B0FE002107A8FEF734FBC7
:102FC00007A81EF069FE0F219E481EF047F8002357
:102FD0000A22216D9C481EF0E1FC9B481EF0CEFCAD
:102FE00016219A481EF03AF8002329460A229648EC
:102FF0001EF0D4FC94481EF0C1FC2368012B00F0A5
:103000004D83C0F01983022B7FF4B0AE904907A81E
:103010001EF082FE002107A8FEF706FB07A81EF09F
:103020003BFE2220FEF77EFCDDED237A0020B8EE89
:10303000E70AFEF71BFC814907A81EF06DFE002180
:1030400007A8FEF7F1FA07A81EF026FE814907A897
:103050001EF062FE002107A8FEF7E6FA07A81EF0A0
:103060001BFE2220FEF75EFC0020DDED2B7A35E70B
:103070000DF150087AE66F4907A81EF04DFE0021B9
:1030800007A8FEF7D1FA07A81EF006FE2220FEF7D9
:1030900049FC07EE90BA0020B8EEE70AFEF7E6FB1F
:1030A000664907A81EF038FE002107A8FEF7BCFA03
:1030B00007A81EF0F1FD624907A81EF02DFE0021B1
:1030C00007A8FEF7B1FA07A81EF0E6FD2220FEF7DA
:1030D00029FC07EE90AAB8EEE70A0020FEF7C6FB2F
:1030E00007A856491EF018FE07A80021FEF79CFA13
:1030F00007A81EF0D1FD39E6554907A81EF00CFEC1
:10310000002107A8FEF790FA07A81EF0C5FD2220AF
:10311000FEF708FC07EE905A0020B8EEE70AFEF72B
:10312000A5FB464907A81EF0F7FD002107A8FEF7FA
:103130007BFA07A81EF0B0FD464907A81EF0ECFD7B
:10314000002107A8FEF770FA07A81EF0A5FD2220AF
:10315000FEF7E8FB07EE904A0020B8EEE70ABDE76D
:103160003B4907A81EF0D8FD002107A8FEF75CFA2E
:1031700007A81EF091FD2220FEF7D4FB07EE907AFF
:103180000020B8EEE70AFEF771FB2C4907A81EF0F5
:10319000C3FD002107A8FEF747FA07A81EF07CFD33
:1031A0002C4907A81EF0B8FD002107A8FEF73CFA3D
:1031B00007A81EF071FD2220FEF7B4FB07EE906A0F
:1031C0000020B8EEE70A89E7214907A81EF0A4FD10
:1031D000002107A8FEF728FA07A81EF05DFD2220AF
:1031E000FEF7A0FB07EE909A0020B8EEE70AFEF784
:1031F0003DFB124907A81EF08FFD002107A8FEF72E
:1032000013FA07A81EF048FD124907A81EF084FD16
:10321000002107A8FEF708FA07A81EF03DFD2220AE
:10322000FEF780FBDDED017A0020B8EEE70A55E7F6
:103230004C07FF1F948502000814FF1FC48402007E
:10324000A88502004C8602002408FF1F5C8602004D
:10325000BC850200D0850200B24907A81EF05CFDC3
:10326000002107A8FEF7E0F907A81EF015FD2220AF
:10327000FEF758FBDDED1B7A0020B8EEE70AFEF7FB
:10328000F5FAA94907A81EF047FD002107A8FEF797
:10329000CBF907A81EF000FDA44907A81EF03CFDCD
:1032A000002107A8FEF7C0F907A81EF0F5FC2220B0
:1032B000FEF738FBDDED1C7A0020B8EE670A0DE75B
:1032C000984907A81EF028FD002107A8FEF7ACF9D1
:1032D00007A81EF0E1FC2220FEF724FB944B93ED9F
:1032E000020A0020B8EEC00AFEF7C0FA8E4907A80D
:1032F0001EF012FD002107A8FEF796F907A81EF0A0
:10330000CBFC8A4907A81EF007FD002107A8FEF79D
:103310008BF907A81EF0C0FC2220FEF703FB00205B
:10332000DDED1E7ADAE5182182481DF097FE824B0A
:10333000824819681EF072FB80481EF01FFB19219D
:103340007F481DF08BFE14997C481EF067FB7B487C
:103350001EF014FB18217B481DF080FE079C774867
:1033600021461EF05BFB75481EF008FB6D4903A863
:103370001EF0D2FC002103A8FEF756F903A81EF0A8
:103380008BFC2220FEF7CEFADDED0B7A0020B8EEA2
:10339000E70AFEF76BFA644903A81EF0BDFC0021A2
:1033A00003A8FEF741F903A81EF076FC64201BF089
:1033B00075FB5E4903A81EF0AFFC002103A8FEF7D1
:1033C00033F903A81EF068FC2220FEF7ABFA07EEE3
:1033D000904AB8EEE70A0020FEF748FA524903A8DF
:1033E0001EF09AFC03A80021FEF71EF903A81EF0A8
:1033F00053FCBBE44B4903A81EF08EFC002103A83C
:10340000FEF712F903A81EF047FC2220FEF78AFA05
:10341000DDED0A7A0020B8EEE70AFEF727FA424906
:1034200003A81EF079FC002103A8FEF7FDF803A80D
:103430001EF032FC3D4903A81EF06EFC002103A8DB
:10344000FEF7F2F803A81EF027FC2220FEF76AFA26
:10345000DDED127A0020B8EEE70ABDE7314907A892
:103460001EF05AFC002107A8FEF7DEF807A81EF0A0
:1034700013FC2220FEF756FADDED157A0020B8EE97
:10348000E70AFEF7F3F9284907A81EF045FC0021DA
:1034900007A8FEF7C9F807A81EF0FEFB234907A8F6
:1034A0001EF03AFC002107A8FEF7BEF807A81EF0A0
:1034B000F3FB2220FEF736FA0020DDED1D7A0DE544
:1034C000184907A81EF028FC002107A8FEF7ACF851
:1034D00007A81EF0E1FB2220FEF724FADDED197AA1
:1034E000B8EEE70A0020FEF7C1F90F4907A81EF061
:1034F00013FC002107A8FEF797F807A81EF0CCFBE5
:103500000A4907A81EF008FC002107A8FEF78CF85E
:1035100007A81EF0C1FB2220FEF704FA0020DDED13
:103520001A7ADBE4BC850200C4840200D085020064
:103530008014FF1FE48502002819FF1F2408FF1FC5
:10354000008602001C8602008F4907A81EF0E4FBDB
:10355000002107A8FEF768F807A81EF09DFB2220AF
:10356000FEF7E0F9DDED177A0020B8EEE70AFEF786
:103570007DF9864907A81EF0CFFB002107A8FEF7BA
:1035800053F807A81EF088FB814907A81EF0C4FB6A
:10359000002107A8FEF748F807A81EF07DFB2220AF
:1035A000FEF7C0F90020DDED187A97E4764907A808
:1035B0001EF0B2FB002107A8FEF736F807A81EF0A0
:1035C0006BFB2220FEF7AEF9DDED157A0020B8EE98
:1035D000E70AFEF74BF96D4907A81EF09DFB002195
:1035E00007A8FEF721F807A81EF056FB684907A8B0
:1035F0001EF092FB002107A8FEF716F807A81EF0A0
:103600004BFB2220FEF78EF90020DDED197A65E4F0
:103610005D4907A81EF080FB002107A8FEF704F80B
:1036200007A81EF039FB2220FEF77CF9DDED167AA3
:103630000020B8EE670A56E7534907A81EF06CFB56
:10364000002107A8FDF7F0FF07A81EF025FB2220A8
:10365000FEF768F9DDED217A0020B8EEE70AFEF703
:1036600005F94A4907A81EF057FB002107A8FDF7F6
:10367000DBFF07A81EF010FB454907A81EF04CFB16
:10368000002107A8FDF7D0FF07A81EF005FB2220A8
:10369000FEF748F90020DDED297A1FE43A4907A832
:1036A0001EF03AFB002107A8FDF7BEFF07A81EF099
:1036B000F3FA2220FEF736F9DDED227A0020B8EE8B
:1036C000E70AFEF7D3F8314907A81EF025FB0021D1
:1036D00007A8FDF7A9FF07A81EF0DEFA2C4907A8E6
:1036E0001EF01AFB002107A8FDF79EFF07A81EF099
:1036F000D3FA2220FEF716F90020DDED2A7AFFF733
:10370000EDBB07A820491EF007FB214607A8FDF7DF
:103710008BFF07A81EF0C0FA2220FEF703F9DDEDAB
:10372000187A2046B8EEE70AFEF7A0F807A817496E
:103730001EF0F2FA214607A8FDF776FF07A81EF053
:10374000ABFA07A812491EF0E7FA214607A8FDF7D1
:103750006BFF07A81EF0A0FA2220FEF7E3F8DDEDCC
:10376000197A2046B8EE670AFEF780F807A80749DD
:103770001EF0D2FA07A82146FDF756FF07A81EF053
:103780008BFAFFF7F3BA00BFBC850200C4840200C5
:10379000D085020070B5E84BAEB01D6804AC2D1B9F
:1037A0002EAE28191AF078FF04F8010BB442F8D1B4
:1037B000E249E34DE34C68461EF0AEFA002168464C
:1037C000FDF732FF68461EF067FA2220FEF7AAF8DE
:1037D000DDED047A0020B8EE670AFEF747F8DA4913
:1037E00068461EF099FA00216846FDF71DFF6846FD
:1037F0001EF052FAD54968461EF08EFA002168463E
:10380000FDF712FF68461EF047FA2220FEF78AF8FD
:10381000DDED057A0020B8EE670AFEF727F8CA4901
:1038200068461EF079FA00216846FDF7FDFE6846FD
:103830001EF032FAC64968461EF06EFA002168464C
:10384000FDF7F2FE68461EF027FA2220FEF76AF81E
:103850009DED060A0420FEF709F8BB4968461EF0F4
:103860005BFA00216846FDF7DFFE68461EF014FA99
:10387000B84968461EF050FA00216846FDF7D4FEAC
:1038800068461EF009FA2220FEF74CF89DF88410D5
:103890006846002914BF294621461EF03DFA002142
:1038A0006846FDF7C1FE68461EF0F6F9A64968466F
:1038B0001EF032FA00216846FDF7B6FE68461EF09B
:1038C000EBF9A54968461EF027FA00216846FDF786
:1038D000ABFE68461EF0E0F92220FEF723F8DDED8E
:1038E000257A0020B8EE670AFDF7C0FF96496846C2
:1038F0001EF012FA00216846FDF796FE68461EF09B
:10390000CBF9964968461EF007FA00216846FDF794
:103910008BFE68461EF0C0F92220FEF703F8DDEDAD
:10392000267A0020B8EE670AFDF7A0FF86496846B0
:103930001EF0F2F900216846FDF776FE68461EF09B
:10394000ABF9874968461EF0E7F900216846FDF7A4
:103950006BFE68461EF0A0F92220FDF7E3FFDDEDC7
:10396000077A0020B8EE670AFDF780FF76496846BF
:103970001EF0D2F900216846FDF756FE68461EF09B
:103980008BF9784968461EF0C7F900216846FDF7B3
:103990004BFE68461EF080F92220FDF7C3FFDDEDE7
:1039A000087A0020B8EE670AFDF760FF66496846AE
:1039B0001EF0B2F900216846FDF736FE68461EF09B
:1039C0006BF9694968461EF0A7F900216846FDF7C2
:1039D0002BFE68461EF060F92220FDF7A3FF9DED47
:1039E000090A0420FDF742FF574968461EF094F982
:1039F00000216846FDF718FE68461EF04DF95B4948
:103A000068461EF089F900216846FDF70DFE6846FC
:103A10001EF042F92220FDF785FF9DF885106846CB
:103A2000002914BF294621461EF076F90021684678
:103A3000FDF7FAFD68461EF02FF9434968461EF06F
:103A40006BF900216846FDF7EFFD68461EF024F98A
:103A5000474968461EF060F900216846FDF7E4FD1D
:103A600068461EF019F92220FDF75CFFDDED0C7AA7
:103A70000020B8EE670AFDF7F9FE334968461EF0EC
:103A80004BF900216846FDF7CFFD68461EF004F9AA
:103A9000384968461EF040F900216846FDF7C4FD2C
:103AA00068461EF0F9F82220FDF73CFFDDED0D7AA7
:103AB0000020B8EE670AFDF7D9FE234968461EF0DC
:103AC0002BF900216846FDF7AFFD68461EF0E4F8CB
:103AD000294968461EF020F900216846FDF7A4FD3B
:103AE00068461EF0D9F82220FDF71CFF9DED0E0A56
:103AF0000520FDF7BBFE144968461EF00DF90021B4
:103B00006846FDF791FD68461EF0C6F81B496846F9
:103B10001EF002F900216846FDF786FD68461EF09A
:103B2000BBF82220FDF7FEFE9DF8861068460029AE
:103B300014BF2946214623E07C14FF1FB0860200F3
:103B4000A4860200A8860200C4840200C88602007F
:103B5000E0860200F8860200108702002487020037
:103B60003C8702004C8702005C8702006C870200E1
:103B70007C8702008C8702009C870200AC870200D1
:103B80001EF0CAF800216846FDF74EFD68461EF09B
:103B900083F8E84968461EF0BFF800216846FDF743
:103BA00043FD68461EF078F8E34968461EF0B4F815
:103BB00000216846FDF738FD68461EF06DF82220AA
:103BC000FDF7B0FEDDED297A0020B8EE670AFDF7BB
:103BD0004DFED84968461EF09FF800216846FDF763
:103BE00023FD68461EF058F8D44968461EF094F844
:103BF00000216846FDF718FD68461EF04DF82220AA
:103C0000FDF790FEDDED2A7A0020B8EE670AFDF799
:103C10002DFEC84968461EF07FF800216846FDF772
:103C200003FD68461EF038F8C54968461EF074F872
:103C300000216846FDF7F8FC68461EF02DF82220AA
:103C4000FDF770FE9DED2B0A0520FDF70FFEB9492B
:103C500068461EF061F800216846FDF7E5FC6846FD
:103C60001EF01AF8B74968461EF056F8002168465B
:103C7000FDF7DAFC68461EF00FF82220FDF752FE31
:103C80009DF8B0106846002914BF294621461EF051
:103C900043F800216846FDF7C7FC68461DF0FCFFAD
:103CA000A44968461EF038F868460021FDF7BCFCC0
:103CB00068461DF0F1FF289B012B00F0E581A24929
:103CC00068461EF029F800216846FDF7ADFC6846FD
:103CD0001DF0E2FF9D4968461EF01EF8002168466F
:103CE000FDF7A2FC68461DF0D7FF994968461EF013
:103CF00013F800216846FDF797FC68461DF0CCFFDD
:103D0000924968461EF008F800216846FDF78CFCD1
:103D100068461DF0C1FF8F4968461DF0FDFF002178
:103D20006846FDF781FC68461DF0B6FF8749684686
:103D30001DF0F2FF00216846FDF776FC68461DF095
:103D4000ABFF854968461DF0E7FF00216846FDF797
:103D50006BFC68461DF0A0FF7C4968461DF0DCFF47
:103D600000216846FDF760FC68461DF095FF7B4921
:103D700068461DF0D1FF00216846FDF755FC6846F6
:103D80001DF08AFF2220FDF7CDFDDDED127A002027
:103D9000B8EE670AFDF76AFD664968461DF0BCFF8C
:103DA00000216846FDF740FC68461DF075FF6C4930
:103DB00068461DF0B1FF00216846FDF735FC6846F6
:103DC0001DF06AFF2220FDF7ADFDDDED137A002026
:103DD000B8EE670AFDF74AFD564968461DF09CFF9C
:103DE00000216846FDF720FC68461DF055FF5D493F
:103DF00068461DF091FF00216846FDF715FC6846F6
:103E00001DF04AFF2220FDF78DFD9DED140A0420D0
:103E1000FDF72CFD474968461DF07EFF00216846EE
:103E2000FDF702FC68461DF037FF4F4968461DF05C
:103E300073FF00216846FDF7F7FB68461DF02CFF75
:103E40002220FDF76FFD494A494B9DF887106846CF
:103E5000002914BF114619461DF05EFF0021684677
:103E6000FDF7E2FB68461DF017FF324968461DF07A
:103E700053FF00216846FDF7D7FB68461DF00CFF95
:103E8000119C002C00F0BC803A4968461DF044FFAC
:103E900000216846FDF7C8FB68461DF0FDFE2B4972
:103EA00068461DF039FF00216846FDF7BDFB6846F6
:103EB0001DF0F2FE304968461DF02EFF00216846D5
:103EC000FDF7B2FB68461DF0E7FE204968461DF08D
:103ED00023FF68460021FDF7A7FB68461DF0DCFEC6
:103EE000264968461DF018FF00216846FDF79CFB37
:103EF00068461DF0D1FE2220FDF714FD9DED150A48
:103F00000420FDF7B3FC0B4968461DF005FF0021B6
:103F10006846FDF789FB68461DF0BEFE2D9C002C0F
:103F200000F09B80164968461DF0F6FE00216846A9
:103F300028E000BFC4840200BC870200D4870200CE
:103F4000EC870200048802006C880200B082020044
:103F50007C8802008C880200A4880200BC880200D1
:103F6000CC880200DC880200EC880200A4860200F3
:103F7000A8860200FC8802000C8902003C8902002D
:103F800060890200FDF750FB68461DF085FE604920
:103F900068461DF0C1FE68460021FDF745FB6846F6
:103FA0001DF07AFE5B4968461DF0B6FE00216846AA
:103FB000FDF73AFB68461DF06FFE554968461DF057
:103FC000ABFE00216846FDF72FFB68461DF064FE3E
:103FD000514968461DF0A0FE00216846FDF724FB0C
:103FE00068461DF059FE4A4968461DF095FE0021BD
:103FF0006846FDF719FB68461DF04EFE2EB070BDF9
:10400000464968461DF088FE21466846FDF70CFBD0
:1040100068461DF041FE3E4968461DF07DFE214682
:104020006846FDF701FB68461DF036FE3C496846D0
:104030001DF072FE21466846FDF7F6FA68461DF04F
:104040002BFE334968461DF067FE68462146FDF7A2
:10405000EBFA68461DF020FE42E7324968461DF043
:104060005BFE21466846FDF7DFFA68461DF014FE48
:10407000274968461DF050FE68462146FDF7D4FAF0
:1040800068461DF009FE8DE7274968461DF044FE8D
:1040900000216846FDF7C8FA68461DF0FDFD1C4981
:1040A00068461DF039FE00216846FDF7BDFA6846F6
:1040B0001DF0F2FD1D4968461DF02EFE00216846E8
:1040C000FDF7B2FA68461DF0E7FD114968461DF09C
:1040D00023FE00216846FDF7A7FA68461DF0DCFDC7
:1040E000134968461DF018FE00216846FDF79CFA4A
:1040F00068461DF0D1FD064968461DF00DFE002101
:104100006846FDF791FA68461DF0C6FD094919E6B3
:10411000B0820200748902008C8902001C890200AE
:104120002C8902004C8902001C8802002C880200A5
:104130003C8802005488020070B5C84BAEB01D68C0
:1041400004AC2D1B2EAE28191AF0A6FA04F8010BA8
:10415000A642F8D1C249C34C68461DF0DDFD0021DE
:104160006846FDF761FA68461DF096FD2220FDF7CE
:10417000D9FBD4ED067A0020B8EE670AFDF776FB8E
:10418000B94968461DF0C8FD00216846FDF74CFAA4
:1041900068461DF081FDB54968461DF0BDFD002152
:1041A0006846FDF741FA68461DF076FD2220FDF7CE
:1041B000B9FBD4ED077A0020B8EE670AFDF756FB8D
:1041C000A94968461DF0A8FD00216846FDF72CFAB4
:1041D00068461DF061FDA64968461DF09DFD002161
:1041E0006846FDF721FA68461DF056FD2220FDF7CE
:1041F00099FBD4ED1E7A0020B8EE670AFDF736FB76
:10420000994968461DF088FD00216846FDF70CFAC3
:1042100068461DF041FD974968461DF07DFD00216F
:104220006846FDF701FA68461DF036FD2220FDF7CD
:1042300079FBD4ED0B7A0020B8EE670AFDF716FB88
:10424000894968461DF068FD00216846FDF7ECF9D4
:1042500068461DF021FD884968461DF05DFD00217E
:104260006846FDF7E1F968461DF016FD2220FDF7CE
:1042700059FBD4ED0C7A0020B8EE670AFDF7F6FA88
:10428000794968461DF048FD00216846FDF7CCF9E4
:1042900068461DF001FD794968461DF03DFD00218D
:1042A0006846FDF7C1F968461DF0F6FC2220FDF7CF
:1042B00039FBD4ED1F7A0020B8EE670AFDF7D6FA75
:1042C000694968461DF028FD00216846FDF7ACF9F4
:1042D00068461DF0E1FC6A4968461DF01DFD00219D
:1042E0006846FDF7A1F968461DF0D6FC2220FDF7CF
:1042F00019FBD4ED137A0020B8EE670AFDF7B6FA81
:10430000594968461DF008FD00216846FDF78CF903
:1043100068461DF0C1FC5B4968461DF0FDFC0021AC
:104320006846FDF781F968461DF0B6FC2220FDF7CE
:10433000F9FAD4ED147A0020B8EE670AFDF796FA80
:10434000494968461DF0E8FC00216846FDF76CF914
:1043500068461DF0A1FC4C4968461DF0DDFC0021BB
:104360006846FDF761F968461DF096FC2220FDF7CE
:10437000D9FAD4ED207A0020B8EE670AFDF776FA74
:10438000394968461DF0C8FC00216846FDF74CF924
:1043900068461DF081FC0D213C481CF05FFED4F8FE
:1043A0008C103B4800230A221DF0F8FA38481DF013
:1043B000E5FAD4F88C40002C43D1364968461DF00C
:1043C000ABFC68462146FDF72FF968461DF064FCFA
:1043D000314968461DF0A0FC00216846FDF724F92C
:1043E00068461DF059FC2D4968461DF095FC0021DA
:1043F0006846FDF719F968461DF04EFC26496846E7
:104400001DF08AFC00216846FDF70EF968461DF094
:1044100043FC234968461DF07FFC00216846FDF7F8
:1044200003F968461DF038FC1B4968461DF074FC12
:1044300000216846FDF7F8F868461DF02DFC2EB007
:1044400070BD184968461DF067FC68460021FDF7FD
:10445000EBF868461DF020FCBAE700BF7C14FF1F94
:10446000A0890200EC15FF1FC4840200B489020079
:10447000C8890200DC890200F0890200048A020077
:10448000188A02002C8A0200408A0200548A020024
:104490002408FF1F788A0200B08202008C8A020082
:1044A000A88A0200648A020070B59D4BAEB01D68F8
:1044B00004AC2D1B2EAE28191AF0EEF804F8010BEF
:1044C000B442F8D1684697491DF026FC00216846A1
:1044D000FDF7AAF868461DF0DFFB2220FDF722FA5F
:1044E000DDED197A0020B8EEE70AFDF7BFF968465E
:1044F0008D491DF011FC68460021FDF795F86846CE
:104500001DF0CAFB684689491DF006FC002168467B
:10451000FDF78AF868461DF0BFFB2220FDF702FA7E
:10452000DDED1A7A0020B8EE670AFDF79FF96846BC
:104530007D491DF0F1FB68460021FDF775F86846DE
:104540001DF0AAFB68467A491DF0E6FB002168468B
:10455000FDF76AF868461DF09FFB2220FDF7E2F99F
:10456000DDED1B7A0020B8EEE70AFDF77FF968461B
:104570006D491DF0D1FB68460021FDF755F86846EE
:104580001DF08AFB68466B491DF0C6FB002168469A
:10459000FDF74AF868461DF07FFB2220FDF7C2F9BF
:1045A000DDED1C7A0020B8EE670AFDF75FF968467A
:1045B0005D491DF0B1FB68460021FDF735F86846FE
:1045C0001DF06AFB68465C491DF0A6FB00216846A9
:1045D000FDF72AF868461DF05FFB2220FDF7A2F9DF
:1045E000DDED1D7A0020B8EEE70AFDF73FF96846D9
:1045F0004D491DF091FB68460021FDF715F868460E
:104600001DF04AFB68464D491DF086FB00216846B7
:10461000FDF70AF868461DF03FFB2220FDF782F9FE
:10462000DDED1E7A0020B8EE670AFDF71FF9684637
:104630003D491DF071FB68460021FCF7F5FF684617
:104640001DF02AFB68463E491DF066FB00216846C6
:10465000FCF7EAFF68461DF01FFB2220FDF762F918
:10466000DDED1F7A0020B8EEE70AFDF7FFF8684697
:104670002D491DF051FB68460021FCF7D5FF684627
:104680001DF00AFB68462F491DF046FB00216846D5
:10469000FCF7CAFF68461DF0FFFA2220FDF742F939
:1046A000DDED207A0020B8EE670AFDF7DFF86846F6
:1046B0001D491DF031FB68460021FCF7B5FF684637
:1046C0001DF0EAFA684620491DF026FB68460021E5
:1046D000FCF7AAFF68461DF0DFFA68461B491DF08B
:1046E0001BFB68460021FCF79FFF68461DF0D4FACB
:1046F000684617491DF010FB68460021FCF794FF3F
:1047000068461DF0C9FA684610491DF005FB684669
:104710000021FCF789FF68461DF0BEFA2EB070BD7F
:104720007C14FF1FC08A0200C4840200D48A0200E5
:10473000E88A0200FC8A0200108B0200248B02002F
:10474000388B02004C8B0200648B0200B0820200A6
:10475000808B020070B5DA4B1B68013B84B0092BDB
:1047600000F2AC81DFE813F0580348045304C1049D
:10477000AA01E8042A064A070A00D001D149D24D0D
:1047800068461DF0C9FA00216846FCF74DFF6846EF
:104790001DF082FA2220FDF7C5F8D5ED0C7A002035
:1047A000B8EEE70AFDF762F8C84968461DF0B4FAAA
:1047B00000216846FCF738FF68461DF06DFAC449D1
:1047C00068461DF0A9FA00216846FCF72DFF6846EF
:1047D0001DF062FA2220FDF7A5F8D5ED147A00202D
:1047E000B8EE670AFDF742F8B84968461DF094FA3A
:1047F00000216846FCF718FF68461DF04DFAB549E0
:1048000068461DF089FA00216846FCF70DFF6846EE
:104810001DF042FA2220FDF785F8D5ED107A002030
:10482000B8EEE70AFDF722F8A84968461DF074FAC9
:1048300000216846FCF7F8FE68461DF02DFAA649EF
:1048400068461DF069FA00216846FCF7EDFE6846EF
:104850001DF022FA2220FDF765F8D5ED077A002039
:10486000B8EEE70AFDF702F8984968461DF054FAD9
:1048700000216846FCF7D8FE68461DF00DFA9749FE
:1048800068461DF049FA00216846FCF7CDFE6846EF
:104890001DF002FA2220FDF745F895ED080A0020E8
:1048A000FCF7E4FF894968461DF036FA00216846A6
:1048B000FCF7BAFE68461DF0EFF9894968461DF01D
:1048C0002BFA00216846FCF7AFFE68461DF0E4F9BC
:1048D0002220FDF727F895ED0B0A0020FCF7C6FF14
:1048E0007A4968461DF018FA68460021FCF79CFEDC
:1048F00068461DF0D1F9AE6A6C46002E02F0BB800E
:10490000012E23D1774968461DF006FA002168463A
:10491000FCF78AFE68461DF0BFF92220FDF702F879
:10492000714968461DF0F8F900216846FCF77CFEE5
:1049300068461DF0B1F9654968461DF0EDF9684615
:104940000021FCF771FE68461DF0A6F96B6A022B88
:1049500002F08080032B23D1644920461DF0DCF94E
:1049600000212046FCF760FE20461DF095F922202C
:10497000FCF7D8FF5E4920461DF0CEF90021204605
:10498000FCF752FE20461DF087F9504920461DF0E5
:10499000C3F920460021FCF747FE20461DF07CF9B4
:1049A0002B68494D012B00F0B387C0F01C87022B08
:1049B00040F084804F4920461DF0AEF9002120468A
:1049C000FCF732FE20461DF067F92220FCF7AAFF13
:1049D000494920461DF0A0F900212046FCF724FE9D
:1049E00020461DF059F9394920461DF095F900215E
:1049F0002046FCF719FE20461DF04EF93F4920469F
:104A00001DF08AF900212046FCF70EFE20461DF01D
:104A100043F92220FCF786FFD5ED0F7A0020B8EE8F
:104A2000E70AFCF723FF294920461DF075F900210C
:104A30002046FCF7F9FD20461DF02EF930492046AE
:104A40001DF06AF900212046FCF7EEFD20461DF01E
:104A500023F92220FCF766FFD5ED177A0020B8EE87
:104A6000670AFCF703FF194920461DF055F900219C
:104A70002046FCF7D9FD20461DF00EF921492046BD
:104A80001DF04AF900212046FCF7CEFD20461DF01E
:104A900003F92220FCF746FF95ED130A0020B8EE3B
:104AA000C00AFCF7E3FE094920461DF035F920460F
:104AB0000021FCF7B9FD20461DF0EEF804B070BDF2
:104AC0008007FF1F988B02000814FF1FC484020098
:104AD000AC8B0200C08B0200248C0200388C0200D8
:104AE000848C0200B48C0200288F0200988C020093
:104AF000EC8C0200D48B0200F4920200E88B0200DE
:104B0000FC8B0200108C0200B549B64C68461DF0C3
:104B100003F900216846FCF787FD68461DF0BCF8E4
:104B20002220FCF7FFFED4ED007A0020B8EEE70A61
:104B3000FCF79CFEAC4968461DF0EEF80021684683
:104B4000FCF772FD68461DF0A7F8A84968461DF0FD
:104B5000E3F800216846FCF767FD68461DF09CF805
:104B60002220FCF7DFFED4ED047A0020B8EE670ABD
:104B7000FCF77CFE9C4968461DF0CEF80021684693
:104B8000FCF752FD68461DF087F8994968461DF00C
:104B9000C3F800216846FCF747FD68461DF07CF825
:104BA0002220FCF7BFFED4ED087A0020B8EEE70A19
:104BB000FCF75CFE8C4968461DF0AEF800216846A3
:104BC000FCF732FD68461DF067F88A4968461DF01B
:104BD000A3F800216846FCF727FD68461DF05CF845
:104BE0002220FCF79FFED4ED0C7A0020B8EEE70AF5
:104BF000FCF73CFE7C4968461DF08EF800216846B3
:104C0000FCF712FD68461DF047F87B4968461DF029
:104C100083F800216846FCF707FD68461DF03CF864
:104C20002220FCF77FFED4ED0D7A0020B8EEE70AD3
:104C3000FCF71CFE6C4968461DF06EF800216846C2
:104C4000FCF7F2FC68461DF027F86C4968461DF039
:104C500063F800216846FCF7E7FC68461DF01CF885
:104C60002220FCF75FFE94ED160A0020FCF7FEFD03
:104C70005D4968461DF050F868460021FCF7D4FCF9
:104C800068461DF009F8A36B012B02F00283C2F005
:104C90006982022B7FF412AF594968461DF03CF837
:104CA00000216846FCF7C0FC68461CF0F5FF222096
:104CB000FCF738FE534968461DF02EF8002168467F
:104CC000FCF7B2FC68461CF0E7FF474968461DF058
:104CD00023F800216846FCF7A7FC68461CF0DCFFBF
:104CE000494968461DF018F800216846FCF79CFC0D
:104CF00068461CF0D1FF2220FCF714FED4ED037AA5
:104D00000020B8EE670AFCF7B1FD374968461DF090
:104D100003F800216846FCF787FC68461CF0BCFFDE
:104D20003A4968461CF0F8FF00216846FCF77CFC15
:104D300068461CF0B1FF2220FCF7F4FDD4ED077AA1
:104D40000020B8EE670AFCF791FD274968461CF081
:104D5000E3FF00216846FCF767FC68461CF09CFFF7
:104D60002B4968461CF0D8FF00216846FCF75CFC24
:104D700068461CF091FF2220FCF7D4FDD4ED0B7A9D
:104D80000020B8EEE70AFCF771FD174968461CF0F1
:104D9000C3FF00216846FCF747FC68461CF07CFF17
:104DA0001C4968461CF0B8FF00216846FCF73CFC33
:104DB00068461CF071FF2220FCF7B4FD94ED150A43
:104DC0000020FCF753FD084968461CF0A5FF0021B0
:104DD0006846FCF729FC68461CF05EFF04B070BD15
:104DE000988B02002013FF1FC4840200AC8B0200CA
:104DF000C08B0200248C0200388C0200848C0200DC
:104E0000D48B0200F4920200E88B0200FC8B0200BB
:104E1000108C0200B48C0200BA49BB4C68461CF0EE
:104E20007BFF00216846FCF7FFFB68461CF034FF5F
:104E30002220FCF777FDD4ED017A0020B8EEE70AD6
:104E4000FCF714FDB14968461CF066FF0021684676
:104E5000FCF7EAFB68461CF01FFFAD4968461CF0F2
:104E60005BFF00216846FCF7DFFB68461CF014FF7F
:104E70002220FCF757FDD4ED097A0020B8EEE70AAE
:104E8000FCF7F4FCA14968461CF046FF0021684687
:104E9000FCF7CAFB68461CF0FFFE9E4968461CF002
:104EA0003BFF00216846FCF7BFFB68461CF0F4FEA0
:104EB0002220FCF737FDD4ED057A0020B8EEE70A92
:104EC000FCF7D4FC914968461CF026FF6846002197
:104ED000FCF7AAFB68461CF0DFFE256B012D01F0F4
:104EE0005086022D01F0C686002D7FF4E7AD8A4979
:104EF00068461CF011FF29466846FCF795FB68469A
:104F00001CF0CAFE2220FCF70DFD844968461CF007
:104F100003FF29466846FCF787FB68461CF0BCFE89
:104F20007A4968461CF0F8FE29466846FCF77CFB87
:104F300068461CF0B1FE7A4968461CF0EDFE294631
:104F40006846FCF771FB68461CF0A6FE2220FCF7C1
:104F5000E9FCD4ED027A2846B8EEE70AFCF786FCB5
:104F60006A4968461CF0D8FE29466846FCF75CFB97
:104F700068461CF091FE6B4968461CF0CDFE294640
:104F80006846FCF751FB68461CF086FE2220FCF7C1
:104F9000C9FCD4ED0A7A2846B8EEE70AFCF766FCAD
:104FA0005A4968461CF0B8FE29466846FCF73CFBA7
:104FB00068461CF071FE5C4968461CF0ADFE29464F
:104FC0006846FCF731FB68461CF066FE2220FCF7C1
:104FD000A9FC94ED060A2846B8EEC00AFCF746FC88
:104FE0004A4968461CF098FE68462946FCF71CFBB7
:104FF00068461CF051FE61E54C4C236B032B3FF6D9
:105000005DADDFE813F00B07960621067C053D49F0
:10501000474D68461CF080FE00216846FCF704FB03
:1050200068461CF039FE2220FCF77CFCD5ED017AA5
:105030000020B8EEE70AFCF719FC344968461CF07A
:105040006BFE00216846FCF7EFFA68461CF024FE70
:105050002F4968461CF060FE00216846FCF7E4FA20
:1050600068461CF019FE2220FCF75CFCD5ED037AA3
:105070000020B8EE670AFCF7F9FB244968461CF0EB
:105080004BFE00216846FCF7CFFA68461CF004FE90
:10509000204968461CF040FE00216846FCF7C4FA2F
:1050A00068461CF0F9FD2220FCF73CFCD5ED027AA5
:1050B0000020B8EEE70AFCF7D9FB144968461CF05B
:1050C0002BFE68460021FCF7AFFA68461CF0E4FDB1
:1050D0002B68013B6C46042B3FF6F0ACDFE813F085
:1050E000CD071307BC07AB079A07124C2368052BA3
:1050F0003FF6E4ACDFE813F08E081E0B740ADD09FE
:105100004609F807988B02002819FF1FC484020083
:10511000AC8B0200C08B0200D48B02002C920200E8
:10512000E88B0200FC8B0200108C0200C013FF1FF2
:105130007415FF1FAC15FF1F9449954D68461CF070
:10514000EBFD00216846FCF76FFA68461CF0A4FDF1
:105150002220FCF7E7FBD5ED017A0020B8EEE70A44
:10516000FCF784FB8B4968461CF0D6FD002168469D
:10517000FCF75AFA68461CF08FFD874968461CF018
:10518000CBFD00216846FCF74FFA68461CF084FD11
:105190002220FCF7C7FBD5ED027A0020B8EE670AA3
:1051A000FCF764FB7B4968461CF0B6FD00216846AD
:1051B000FCF73AFA68461CF06FFD784968461CF027
:1051C000ABFD00216846FCF72FFA68461CF064FD31
:1051D0002220FCF7A7FBD5ED097A0020B8EEE70AFC
:1051E000FCF744FB6B4968461CF096FD68460021BD
:1051F000FCF71AFA68461CF04FFD6B6B012B6C46EE
:1052000000F04C87C1F01584302B01F01284312B53
:1052100000F0448762495E4E20461CF07DFD00216F
:105220002046FCF701FA20461CF036FD2220FCF750
:1052300079FB95ED0F0A0020FCF718FB5549204635
:105240001CF06AFD00212046FCF7EEF920461CF018
:1052500023FD544920461CF05FFD00212046FCF749
:10526000E3F920461CF018FD2220FCF75BFB95EDCE
:105270000E0A0020FCF7FAFA464920461CF04CFDC5
:1052800000212046FCF7D0F920461CF005FD2B68D4
:10529000012B01F0E386C1F06B86022B7FF40EAC8C
:1052A000414920461CF038FD00212046FCF7BCF99E
:1052B00020461CF0F1FC2220FCF734FB3B49204641
:1052C0001CF02AFD00212046FCF7AEF920461CF018
:1052D000E3FC304920461CF01FFD00212046FCF76E
:1052E000A3F920461CF0D8FC314920461CF014FDDF
:1052F00000212046FCF798F920461CF0CDFC222026
:10530000FCF710FBD6ED077A0020B8EEE70AFCF7B1
:10531000ADFA204920461CF0FFFC00212046FCF796
:1053200083F920461CF0B8FC224920461CF0F4FC0E
:1053300000212046FCF778F920461CF0ADFC222025
:10534000FCF7F0FAD6ED087A0020B8EE670AFCF711
:105350008DFA104920461CF0DFFC00212046FCF7A6
:1053600063F920461CF098FC134920461CF0D4FC3D
:1053700000212046FCF758F920461CF08DFC222025
:10538000FCF7D0FA96ED0C0AFFF788BB988B020069
:105390001418FF1FC4840200AC8B0200C08B0200F3
:1053A000388C0200848C0200D48B0200F49202003C
:1053B000E88B0200FC8B0200108C02008449854DB2
:1053C00068461CF0A9FC00216846FCF72DF96846E8
:1053D0001CF062FC2220FCF7A5FAD5ED007A002033
:1053E000B8EEE70AFCF742FA7B4968461CF094FCE9
:1053F00000216846FCF718F968461CF04DFC774917
:1054000068461CF089FC00216846FCF70DF96846E7
:105410001CF042FC2220FCF785FAD5ED087A00202A
:10542000B8EE670AFCF722FA6B4968461CF074FC78
:1054300000216846FCF7F8F868461CF02DFC684926
:1054400068461CF069FC00216846FCF7EDF86846E8
:105450001CF022FC2220FCF765FAD5ED047A00202E
:10546000B8EEE70AFCF702FA5B4968461CF054FC08
:1054700000216846FCF7D8F868461CF00DFC594935
:1054800068461CF049FC00216846FCF7CDF86846E8
:105490001CF002FC2220FCF745FAD5ED147A00201E
:1054A000B8EE670AFCF7E2F94B4968461CF034FC99
:1054B00068460021FCF7B8F868461CF0EDFBEE6C7E
:1054C0006C46002E01F03382012E00F09782AB6C07
:1054D000404D012B01F0D684C1F04584022B7FF4AE
:1054E000EDAA414920461CF017FC00212046FCF79C
:1054F0009BF820461CF0D0FB2220FCF713FA3B4916
:1055000020461CF009FC00212046FCF78DF82046BF
:105510001CF0C2FB304920461CF0FEFB0021204657
:10552000FCF782F820461CF0B7FB314920461CF0FE
:10553000F3FB00212046FCF777F820461CF0ACFB7B
:105540002220FCF7EFF9D5ED037A0020B8EEE70A48
:10555000FCF78CF9204920461CF0DEFB0021204698
:10556000FCF762F820461CF097FB224920461CF00D
:10557000D3FB00212046FCF757F820461CF08CFB9B
:105580002220FCF7CFF9D5ED0B7A0020B8EE670AA0
:10559000FCF76CF9104920461CF0BEFB00212046A8
:1055A000FCF742F820461CF077FB134920461CF01C
:1055B000B3FB00212046FCF737F820461CF06CFBBB
:1055C0002220FCF7AFF995ED070AFFF767BA00BF95
:1055D000988B02008014FF1FC4840200AC8B020071
:1055E000C08B0200988C0200D48B0200F49202005F
:1055F000E88B0200FC8B0200108C0200B549B64D0E
:1056000068461CF089FB00216846FCF70DF86846E7
:105610001CF042FB2220FCF785F9D5ED0C7A002026
:10562000B8EEE70AFCF722F9AC4968461CF074FBB7
:1056300000216846FBF7F8FF68461CF02DFBA849DF
:1056400068461CF069FB00216846FBF7EDFF6846E1
:105650001CF022FB2220FCF765F9D5ED147A00201E
:10566000B8EE670AFCF702F99C4968461CF054FB47
:1056700000216846FBF7D8FF68461CF00DFB9949EE
:1056800068461CF049FB00216846FBF7CDFF6846E1
:105690001CF002FB2220FCF745F9D5ED107A002022
:1056A000B8EEE70AFCF7E2F88C4968461CF034FBD8
:1056B00000216846FBF7B8FF68461CF0EDFA8A49FE
:1056C00068461CF029FB00216846FBF7ADFF6846E1
:1056D0001CF0E2FA2220FCF725F9D5ED047A00202F
:1056E000B8EEE70AFCF7C2F87C4968461CF014FBE8
:1056F00000216846FBF798FF68461CF0CDFA7B490D
:1057000068461CF009FB00216846FBF78DFF6846E0
:105710001CF0C2FA2220FCF705F995ED030A0020DF
:10572000FCF7A4F86D4968461CF0F6FA00216846BB
:10573000FBF77AFF68461CF0AFFA6D4968461CF02B
:10574000EBFA00216846FBF76FFF68461CF0A4FAED
:105750002220FCF7E7F895ED060A0020FCF786F812
:105760005E4968461CF0D8FA68460021FBF75CFFEA
:1057700068461CF091FA6E696C46002E01F0CA81F1
:10578000012E23D15B4968461CF0C6FA0021684609
:10579000FBF74AFF68461CF07FFA2220FCF7C2F8AC
:1057A000554968461CF0B8FA00216846FBF73CFFF3
:1057B00068461CF071FA494968461CF0ADFA684623
:1057C0000021FBF731FF68461CF066FAAB68023B2C
:1057D000052B3FF6E5A8DFE813F0440888087708B2
:1057E000660855089908454920461CF095FA00219D
:1057F0002046FBF719FF20461CF04EFA2220FCF74A
:1058000091F83F4920461CF087FA00212046FBF71B
:105810000BFF20461CF040FA304920461CF07CFA71
:1058200000212046FBF700FF20461CF035FA3549E1
:1058300020461CF071FA00212046FBF7F5FE2046B9
:105840001CF02AFA2220FCF76DF8D5ED0D7A002025
:10585000B8EEE70AFCF70AF8204920461CF05CFA8B
:1058600000212046FBF7E0FE20461CF015FA2649F1
:1058700020461CF051FA00212046FBF7D5FE2046B9
:105880001CF00AFA2220FCF74DF8D5ED157A00201D
:10589000B8EE670AFBF7EAFF104920461CF03CFA15
:1058A00000212046FBF7C0FE20461CF0F5F9174901
:1058B00020461CF031FA00212046FBF7B5FE2046B9
:1058C0001CF0EAF92220FCF72DF895ED110AFFF7FC
:1058D000E5B800BF988B02000814FF1FC4840200C3
:1058E000AC8B0200C08B0200248C0200388C0200BA
:1058F000848C0200B48C0200288F0200D48B02003A
:105900002C920200E88B0200FC8B0200108C02003B
:10591000BE4920461CF000FA00212046FBF784FE19
:1059200020461CF0B9F92220FBF7FCFFB8492046BD
:105930001CF0F2F900212046FBF776FE20461CF011
:10594000ABF9B44920461CF0E7F900212046FBF7EB
:105950006BFE20461CF0A0F9AF4920461CF0DCF994
:1059600000212046FBF760FE20461CF095F922201E
:10597000FBF7D8FFD5ED0E7A0020B8EEE70AFBF76B
:1059800075FFA44920461CF0C7F900212046FBF70B
:105990004BFE20461CF080F9A04920461CF0BCF9C3
:1059A00000212046FBF740FE20461CF075F922201E
:1059B000FBF7B8FFD5ED167A0020B8EE670AFBF7C3
:1059C00055FF944920461CF0A7F900212046FBF71B
:1059D0002BFE20461CF060F9914920461CF09CF9F2
:1059E00000212046FBF720FE20461CF055F922201E
:1059F000FBF798FF95ED120AFFF750B88949684602
:105A00001CF08AF900216846FBF70EFE68461CF080
:105A100043F92220FBF786FF834968461CF07CF996
:105A200000216846FBF700FE68461CF035F979490D
:105A300068461CF071F900216846FBF7F5FD6846E1
:105A40001CF02AF9794968461CF066F9002168467D
:105A5000FBF7EAFD68461CF01FF92220FBF762FF06
:105A6000D5ED0C7A0020B8EEE70AFBF7FFFE694996
:105A700068461CF051F900216846FBF7D5FD6846E1
:105A80001CF00AF96A4968461CF046F9002168468C
:105A9000FBF7CAFD68461CF0FFF82220FBF742FF27
:105AA00095ED0F0A0020FBF7E1FE5A4968461CF00D
:105AB00033F900216846FBF7B7FD68461CF0ECF8A7
:105AC0005C4968461CF028F900216846FBF7ACFDEC
:105AD00068461CF0E1F82220FBF724FF95ED0E0A42
