:1000000000000320D101000031990100E9980100AE
:10001000E9980100E9980100E9980100E9980100D8
:10002000E9980100E9980100E9980100319901007F
:1000300031990100E9980100C5C30100C9C401005C
:100040003199010031990100319901003199010084
:100050003199010031990100319901003199010074
:100060003199010031990100319901003199010064
:100070003199010031990100319901003199010054
:100080003199010031990100319901003199010044
:100090003199010031990100319901003199010034
:1000A0003199010031990100319901003199010024
:1000B00031990100319901003199010041A40100F9
:1000C00031990100B1AB01003199010045B1010046
:1000D00031990100F5D101003199010031990100F8
:1000E00031990100319901000D9101003199010010
:1000F00031990100319901003199010031990100D4
:1001000039C901004DC9010061C9010075C901006B
:1001100031990100D1B301003199010031990100F9
:1001200031990100319901003199010031990100A3
:100130003199010031990100319901003199010093
:100140003199010031990100EDD20100319901008E
:100150003199010031990100319901003199010073
:100160003199010031990100319901003199010063
:100170003199010031990100319901003199010053
:100180003199010031990100319901003199010043
:100190003199010031990100E5D301003199010045
:1001A0003199010031990100319901003199010023
:1001B0003199010031990100319901003199010013
:1001C0003199010031990100319901003199010003
:1001D0005C4B4CF2205210B51A804DF628121A8052
:1001E00000BF00BF19F0A8FB574B4FF030621A60F8
:1001F000564A9A60564ADA60564B4FF470021A60BB
:10020000554B564A1A60564B1A78110703D51A787F
:1002100042F008021A70534B5349AA221A70534AEB
:10022000534B8B4204D252F8040F43F8040BF8E707
:10023000504B514900228B4202D243F8042BFAE77B
:100240004E494F4A002352F8230041F8230001335E
:10025000742BF8D14B4B4C4A802103F8011B93427D
:10026000FBD14A4B454A1A60494B8A221A70A3F5C2
:10027000805324225A70A0221A709A799207FCD5D2
:100280009A79D406FCD4434A937903F00C03082BE3
:10029000FAD1414B60221A7002331A78802AFCD1BD
:1002A0003C4B01221A715D225A719A799006FCD555
:1002B0009979384A4906FBD5384B394919600021EC
:1002C000596020231370937903F00C030C2BFAD19F
:1002D000344B354A1A60354A354C136813F4807331
:1002E00003D123604FF4A8531360324B324A1A6093
:1002F00000225A60072243F8042C304AC3F80C2D20
:1003000062B619F06BFC2368DA0705D52C4819F0A2
:10031000E7FB2C4B2C4A1A602C4B1B785B0609D54B
:10032000284C294B22689A4204D1254819F0D8FB61
:10033000002323601FF052FA19F004FB1CF024FB89
:10034000FEE700BF0E20054030800440823F0400DD
:100350000100002B88ED00E0002008E0030000858C
:1003600002D0074000E007408812FF1F44650200EA
:100370003007FF1F8812FF1F941FFF1F0002FF1F7F
:100380000000000000E400E064E400E008ED00E0AC
:10039000005006400040064001E007404480044011
:1003A0000000060204800440C010070010D0034083
:1003B00014D0034014E000E01FBF02000000202022
:1003C000B17021601CE00340A5C3945A00F00740BF
:1003D000FFFFFFFFFFFFFFFFFFFFFFFFFFFFFFFF2D
:1003E000FFFFFFFFFFFFFFFFFFFFFFFFFFFFFFFF1D
:1003F000FFFFFFFFFFFFFFFFFFFFFFFFFFFFFFFF0D
:10040000FFFFFFFFFFFFFFFFFFFFFFFFDEF9FFFF23
:1004100010B5054C237833B9044B13B10448AFF33E
:1004200000800123237010BD8812FF1F0000000010
:1004300040650200084B10B51BB108490848AFF3EE
:1004400000800848036803B910BD074B002BFBD0A0
:10045000BDE81040184700BF000000008C12FF1FCD
:10046000406502008812FF1F0000000000690B6950
:100470009842D4BF00200120704700BF80698B697B
:100480000028B8BF4042002BB8BF5B429842D4BF9F
:1004900000200120704700BFF0B586460120DEF83D
:1004A0005870DEF83030BA6A106079683A680A44E9
:1004B0007A600EF1300493B15A69002A08DB9A6A17
:1004C00010605E6819683D695A6931445960521B71
:1004D00019690A445A6154F8043F002BECD1DEF844
:1004E0002430144ADEF81840DEF86C000021116058
:1004F000DB00516803F1804303F5603321440D2490
:1005000019611460DA68502122F08002DA60D96043
:1005100000B1F0BD7A68FB689A4200D0F0BDDEF809
:100520005C3001228EF82820002BF7D0BDE8F04087
:10053000184700BF00800340C36A00F12C0233B1AA
:100540000120D96A52F8043F0860002BF9D17047A6
:100550000C4BD3F8902072B9596A1A6AD3ED0A7A13
:1005600002FB01F207EE102A60EE277AB8EE477A16
:1005700087EE870A7047D3F89810D3F89420D3ED0C
:10058000277AEDE77C17FF1F036A8B4210B523D053
:10059000C369994200D010BD8369002BFBD072B6AD
:1005A000194AC369846900211160DB00516803F1B5
:1005B000804303F5603321440D2419611460DA6827
:1005C000502122F08002DA60D96062B600690368C7
:1005D000BDE810405B6818470446006903689B68E3
:1005E000984794F82430002BD5D004F108001CF073
:1005F00081F90023E069636018F070FD206ABDE8AE
:10060000104018F06BBD00BF008003402DE9F041A1
:100610008568002D31D0816D836F04464868D4F819
:10062000AC101B1A002BB8BF5B428B423ADBD4F8EC
:10063000B0108B422A4608DBE16F8B4265DB936882
:1006400023F002039360BDE8F081D4F888100029FC
:10065000F5D02B683B4A93421ED96A683A48B0FBF2
:10066000F1F19B1A99420AD3CB1A002401200322EC
:10067000AC60E8602B60AA602960BDE8F081606929
:100680000368002601240322AE601B68EC60296029
:10069000AA60BDE8F04118472B4BB3FBF1F129608C
:1006A000BDE8F081D4E92401D4F8A82002FB03F3CB
:1006B000C61841F10007304639461EF077FE07EEB6
:1006C000900AB1EEE70AB4EE400AF1EE10FA2ED12C
:1006D000FDEEC07A2A4617EE903A17EE901ADBB17B
:1006E000002DB6D11949184D0E68B5FBF3F51EB1B2
:1006F00002210120B047A26800200121032390605D
:10070000D16015609360BDE8F081CB1AD4F8A820C1
:10071000D4E92601013BC9E7002D90D10B4B1B68A2
:10072000002B8CD0022101209847A26887E7394628
:1007300030461EF03BFE00EE100A1DF06DF8A56875
:10074000C6E700BF7FA9030000879303EC1AFF1FD1
:10075000F8B50446D0ED1F7A94ED1E7A806DF4EE64
:10076000477AF1EE10FA436838D1FDEEC77A17EEFA
:10077000905A94F890300BB1002D76D08368AB423C
:100780002BD0002D0368B4BF4FF0FF3201229A42F4
:1007900015D004F12801012608E013685B42012B03
:1007A00013600BBF126B536B13601E6051F8042F64
:1007B000002AF2D1636FC3EB03139B003FD185EA9C
:1007C000E572A2EBE572A368FAB9002B7AD09A68B9
:1007D00022F002029A608560F8BDF8BDD4ED236A6C
:1007E000F5EEC06A77EEA67AF1EE10FAB4EEE77A8B
:1007F0002FDDF1EE10FAD8BFF0EE477ABDEEE77AC2
:10080000C4ED1F7A17EE105AB3E7002B47D01968D2
:10081000314EB14223D95E68304FB7FBF2F2891BEB
:100820008A4232D26069002601689E600127032651
:10083000DF6009681A609E608847A06DCBE7013BC6
:10084000FDD185EAE572A2EBE572A368002ABCD06F
:10085000DBE7F1EE10FA58BFF0EE477ACEE71F491A
:10086000B1FBF2F21A608560F8BD04F10C001CF0D7
:1008700041F8206AA56018F031FC606A18F02EFC7F
:10088000A36D9D6084F89050F8BD511A0027012691
:1008900003249F60DE6019609C601A609BE710492A
:1008A0000E4E0F68B6FBF2F627B101200221B847C1
:1008B000A368A06D0024012103229C60D9601E6002
:1008C0009A6088E7064B1B68002B80D0012002212C
:1008D0009847A368A06D7AE77FA903000087930378
:1008E000EC1AFF1F70B5044608460D4620F008F8C4
:1008F00023680246294620465B68BDE870401847D9
:1009000038B5044608460D461FF0FAFF2368024634
:1009100029465B6820469847054620461CF07CF82F
:10092000284438BD38B505461CF0C6F804462846AC
:100930001CF072F8204438BD38B505461CF0BCF8F0
:10094000044628461CF068F8204438BD38B50A2211
:10095000002305461CF070F8044628461CF05CF89D
:10096000204438BD38B5C9B205461CF0ADF8044680
:1009700028461CF051F8204438BD00BF10B50921AD
:100980002C481BF0B9FB2C481CF046F8FE212B48E4
:1009900016F074F900282FD10A21284816F06EF9B4
:1009A00098B91821254816F069F900283AD10F2185
:1009B000224816F063F950BB09212048204C16F05C
:1009C0005DF9002832D1206009E01D4C1D480A2342
:1009D000194623601BF090FB17481CF01DF80C21F2
:1009E00019481BF089FB216813481CF065F8124870
:1009F000BDE810401CF010B8114C14480123092127
:100A000023601BF079FB0C481CF006F8E7E70C4C60
:100A10000F480F230A2123601BF06EFB06481BF0D2
:100A2000FBFFDCE7064C0B481823F3E70A480923D1
:100A3000CEE700BFC82F02002408FF1F7018FF1F59
:100A4000D416FF1FE02F020010300200D42F020046
:100A5000F82F0200EC2F02000430020010B584B021
:100A6000C9B9344A344B11680191019C1968136863
:100A70000093009B1B1B9942F9D8032809D8DFE893
:100A800000F02E3602262D4B112093F8771019F026
:100A900039F804B010BD03280BD8DFE800F00230AD
:100AA0003942264B93F875100E2081F0010119F0A0
:100AB00029F8204A204B116803910398196813689C
:100AC0000293029B1B1A9942F9D804B010BD1B4B2C
:100AD000042093F8741019F015F804B010BD174BEA
:100AE0000E2093F8751019F00DF804B010BD134BDB
:100AF000162093F8761019F005F804B010BD0F4BCE
:100B000093F87610162081F0010118F0FBFFD0E772
:100B10000A4B93F87710112081F0010118F0F2FFD1
:100B2000C7E7064B93F87410042081F0010118F018
:100B3000E9FFBEE7241BFF1F5807FF1F7C17FF1F9D
:100B4000F0B52DED028B85B0044601AE0DF10F0717
:100B50000FE0FF2D58D001A835701FF0D1FE0146DF
:100B600001A81BF0C9FA2C481BF056FF0136BE4203
:100B700029D0236820465B6998470021C5B22748E1
:100B80001BF0BAFA24481BF047FF332124481BF01E
:100B9000B3FA28461BF034FB022122481BF0ACFAC2
:100BA00029461D481BF088FF1B481BF035FF042D0C
:100BB000CFD119211C481BF09FFA013616481BF0B3
:100BC0002BFFBE42D5D101A81EF0F8FD0721174822
:100BD000B0EE408AF0EE608A1BF08EFAB0EE480A62
:100BE000F0EE680A04210C481BF06EFF0A481BF067
:100BF00013FFB0EE480AF0EE680A05B0BDEC028BB8
:100C0000F0BD23685B699847236820461B699847B5
:100C100000282046F5DCA9E72408FF1F0C45020048
:100C200020300200543002005830020074300200BC
:100C300003280FD8DFE800F00B0805020A48FFF789
:100C40007FBF0A48FFF77CBF0948FFF779BF094813
:100C5000FFF776BF9FED020B704700BFAFF3008038
:100C6000000000000000F0BF0408FF1FF407FF1F92
:100C7000E407FF1F2408FF1F012828D0022813D0F3
:100C800010B19FED140A7047134A1169D368D2ED71
:100C9000056A03FB01F307EE103A60EE267AB8EE20
:100CA000477A87EE870A70470B4B5A6B012AE8D8C0
:100CB000D96B9A6BD3ED116A02FB01F207EE102A91
:100CC00060EE267AB8EE477A87EE870A7047FFF71C
:100CD0003FBC00BF000000007C17FF1F38B5434D2C
:100CE0004348EA6BAB6B95ED107AD5ED127A414C27
:100CF00003FB02F32DED048B08EE103AB8EE488AA0
:100D0000DFED3D8A28EE078A0D2167EEA88AF0EE16
:100D1000409A1BF0F1F918EE100A1DF0DBFE41ECD1
:100D2000100B022120461BF0CFFE20461BF074FE64
:100D3000112132481BF0E0F9286C1DF0CBFE41EC8C
:100D4000100B022120461BF0BFFE20461BF064FE64
:100D50000F212B481BF0D0F989EEA89A18EE900AC3
:100D60001DF0B8FE41EC100B022120461BF0ACFE3A
:100D700020461BF051FE102122481BF0BDF919EE50
:100D8000900A1DF0A7FE41EC100B022120461BF03B
:100D90009BFE20461BF040FE07211B481BF0ACF9D0
:100DA00019EE100A1DF096FE41EC100B02212046B0
:100DB0001BF08AFE28EE098A20461BF02DFE082132
:100DC00012481BF099F918EE100A1DF083FE41EC51
:100DD000100B022120461BF077FE20461BF01CFE64
:100DE000B0EE480ABDEC048B38BD00BF7C17FF1F76
:100DF000AC3002002408FF1FDB0FC940BC300200EA
:100E0000D0300200E0300200F4300200FC3002007A
:100E1000144A1548D2ED117AD16B936B80EE270AF4
:100E200010B503FB01F31921104C2DED028B08EED8
:100E3000103AB8EE488A28EE008A1BF05DF918EEE9
:100E4000100A1DF047FE41EC100B022120461BF05A
:100E50003BFE20461BF0E0FDB0EE480ABDEC028BE5
:100E600010BD00BF7C17FF1F083102002408FF1FC0
:100E70000128F0EE407A1CD0022813D010B19FED6B
:100E8000160A7047154AD2ED056A1169D36887EED4
:100E9000A67A03FB01F300EE103AB8EE400A20EE0A
:100EA000070A70470D4B5B6B9BB1012BE7D1FFF736
:100EB000AFBF0A4AD2F8903023B9D2ED0A6A516A1C
:100EC000136AE4E7D2ED276AD2F89810D2F894308A
:100ED000DDE7FFF703BF00BF000000007C17FF1F26
:100EE00038B52F4D2F4C95ED007AD4ED007AB5EE44
:100EF000C07AF1EE10FA48BFB1EE477AF5EEC07A4B
:100F000048BF85ED007AF1EE10FA44BFF1EE677A42
:100F1000C4ED007A67EEA77A2DED048BE7EE077A31
:100F200008EE100A17EE900A08EE901A1DF0D2FD96
:100F300041EC100B1CF0B0FB51EC100B1EF016F93D
:100F400094ED006AD5ED006A07EE900A87EE867A86
:100F500087EEA69AF8EEE88AB8EEC88A67EE287A95
:100F600017EE900A1DF0B6FD41EC100B1CF0F4FAE0
:100F700051EC100B1EF0FAF868EE097A206017EEBB
:100F8000900A1DF0A7FD41EC100B1CF0E5FA51ECA6
:100F9000100B1EF0EBF8BDEC048B286038BD00BFD1
:100FA0002014FF1F6816FF1FF8B51D212DED028BC1
:100FB000914D924C924E08EE100A92481BF09CF80C
:100FC00091481BF029FD95E8090003FB00F307EEAB
:100FD000903A95ED027AD4ED036A8C4A8C49F8EE8A
:100FE000677AB8EEC88A67EE877A002387EEA67A1A
:100FF0000B601360C7EE087A17EE900A1DF06AFDC9
:1010000041EC100B1CF0A8FA51EC100B1EF066F826
:1010100027683060012F00F0B98065D3022F41D0DE
:101020007C4F7D4815211BF067F8316876481BF02E
:1010300043FD75481BF0F0FC242178481BF05CF858
:10104000E0681DF047FD41EC100B02216E481BF0DB
:101050003BFD6D481BF0E0FC292171481BF04CF86A
:10106000A0691DF037FD41EC100B022166481BF012
:101070002BFD65481BF0D0FC14216A481BF03CF89E
:10108000396861481BF018FD5F481BF0C5FC14214E
:1010900065481BF031F8BDEC028B5B48BDE8F840B9
:1010A0001BF0BABC2B21614894ED068A1BF024F892
:1010B000A0691DF00FFD41EC100B394652481BF0A2
:1010C00003FD51481BF0A8FC6B6B002B00F08980DE
:1010D000012BA5D1B0EE480AFFF79AFE4D4FBDEEA9
:1010E000C00A87ED000A9CE794ED067AD5ED057AF3
:1010F000484F87EE278AD5ED047A95ED037AF8EE0E
:10110000677AB8EE477A67EE887A67EE877A17EEE5
:10111000900A1DF0DFFC41EC100B1CF01DFA51ECA5
:10112000100B1DF0DBFF1821386041481AF0E4FF76
:10113000A0691DF0CFFC41EC100B022132481BF0DE
:10114000C3FC31481BF068FC24213A481AF0D4FF54
:1011500068691DF0BFFC41EC100B02212A481BF00E
:10116000B3FC29481BF058FC112133481AF0C4FF86
:1011700018EE100A1DF0AEFC41EC100B02212248C3
:101180001BF0A2FC20481BF047FC4AE7D5F8903042
:10119000D4ED065AF3B195ED276A95ED267AD5ED93
:1011A000257A1C4FC5EE866AB8EE477AF8EE677A64
:1011B00026EE877A67EE277A17EE900A1DF08AFCF2
:1011C00041EC100B1CF0C8F951EC100B1DF086FF20
:1011D000386026E795ED0A6A95ED097AD5ED087A2B
:1011E000DFE7B0EE480AFFF779FD0A4FBDEEC00A0F
:1011F00087ED000A15E700BF7C17FF1F3814FF1F9B
:10120000A014FF1F243102002408FF1FB412FF1F87
:101210007417FF1F0C13FF1FC8310200E0310200DA
:101220000832020034320200485402009C310200AD
:101230004431020060310200883102000C4B1B680F
:10124000032B13D8DFE803F00E0A06020146094813
:101250001BF0BCBB014608481BF0B8BB0146074861
:101260001BF0B4BB014606481BF0B0BB704700BF83
:101270004807FF1F0408FF1FF407FF1FE407FF1FB5
:101280002408FF1F70B584B06649674C674D6846F7
:101290001BF08EFD00216846FFF7D0FF68461BF06B
:1012A00047FD634968461BF083FD00216846FFF750
:1012B000C5FF68461BF03CFD5E4968461BF078FDA3
:1012C00000216846FFF7BAFF68461BF031FD584918
:1012D00068461BF06DFD00216846FFF7AFFF6846CA
:1012E0001BF026FD544968461BF062FD002168464C
:1012F000FFF7A4FF68461BF01BFD4D4968461BF035
:1013000057FD00216846FFF799FF68461BF010FD66
:101310004A4968461BF04CFD00216846FFF78EFFE6
:1013200068461BF005FD424968461BF041FD00215F
:101330006846FFF783FF68461BF0FAFC404A2168C5
:101340001668536892ED027ADFED3E6A2D683E48DA
:1013500003FB06F307EE903A06EE101AF8EE677AF2
:10136000B8EEC66A67EE877A012D86EE277A374E89
:1013700067EE267AC0ED007A4DD031D3022D0ED122
:10138000D6ED007A2846B8EEE70AFFF775FC304B39
:101390000021284683ED000AFFF760FB21682D4AF3
:1013A0002D4B1160002508212C481D601AF0A4FE69
:1013B00021682B481BF080FB29481BF02DFB0521E1
:1013C00028481AF099FE316825481BF075FB24481F
:1013D0001BF022FB29460320FFF740FB04B070BD41
:1013E000D6ED007A1169D36892ED057A184AF8EEC5
:1013F000E77A03FB01F327EE877A07EE903AF8EEDF
:10140000677A0021C7EE276A0846C2ED006AFFF737
:1014100025FB2168C3E7D6ED007AB8EEE70AFFF7AF
:1014200097F8B4E74C3202007417FF1F3814FF1FFF
:101430006032020064320200783202008C32020014
:101440007C17FF1F0000B4436C16FF1FB412FF1F70
:10145000D015FF1FA815FF1FF812FF1F204702001D
:101460002408FF1F6C46020010B5F0EE407A002100
:10147000F2EE046ABDEEE77AB8EEC77AB4EE677AA8
:10148000F1EE10FA04D00131062967EEA67AF1D107
:101490001E4B1B68032B37D8DFE803F0291C0F0213
:1014A00010EE100ACCB21DF015FB41EC100B2146DA
:1014B0001748BDE810401BF007BB10EE100ACCB275
:1014C0001DF008FB41EC100B21461248BDE810400E
:1014D0001BF0FABA10EE100ACCB21DF0FBFA41EC88
:1014E000100B21460C48BDE810401BF0EDBA10EE81
:1014F000100ACCB21DF0EEFA41EC100B2146074861
:10150000BDE810401BF0E0BA10BD00BF4807FF1F48
:101510000408FF1FF407FF1FE407FF1F2408FF1F35
:10152000084B1B68032B0BD8DFE803F00806040206
:1015300019F05CBD19F0E0B918F074BE1AF060BE85
:10154000704700BF4807FF1F2DE9F041DFF85080CA
:10155000104F114E114D0446014640461BF036FA1D
:1015600040461BF059FA214638461BF02FFA384600
:101570001BF052FA214630461BF028FA30461BF089
:101580004BFA214628461BF021FA2846BDE8F041D7
:101590001BF042BAE407FF1FF407FF1F0408FF1FF8
:1015A0002408FF1F2DE9F04FB24CA3B001210D20FC
:1015B00018F0BCFA23680893089A23680793079BDE
:1015C000AC4D9B1A0E2BF8D9AB4BAC491E681EA82C
:1015D0001BF0EEFB00211EA8FFF730FE1EA81BF03B
:1015E000A7FB0A2231461EA81BF014FC1EA8FFF719
:1015F000ABFF1EA81BF09CFB40F6354018F0F6FB35
:101600000C219F4818F018FE03219E4818F014FE84
:101610002B680693069A23680593059B954D9B1AA4
:10162000312BF8D90C21964818F006FE0321954875
:1016300018F002FE2B680493049A23680393039B1B
:101640008C4D9B1A312BF8D907218F4818F0F4FDE7
:1016500003218C4818F0F0FD2B680293029A23684E
:101660000193019B9B1A312BF9D918F067FE0028D2
:10167000864D0CDD01230C2185482B601AF03CFDC2
:10168000296884481BF018FA82481BF0C5F940F617
:10169000354018F05BFF0C21794819F085F90321DA
:1016A000784819F081F923680E930E9A23680D93F8
:1016B0000D9B704E9B1A312BF8D90C21704819F0F4
:1016C00073F903216F4819F06FF933680C930C9A82
:1016D00023680B930B9B674E9B1A312BF8D907217C
:1016E000694819F061F90321664819F05DF933681A
:1016F0000A930A9A23680993099B9B1A312BF9D9FB
:1017000019F0D4F900280CDD02230C2162482B606B
:101710001AF0F2FC29685F481BF0CEF95D481BF017
:101720007BF940F2124019F01BFB0C21544819F0D0
:1017300067FC0321534819F063FC23681493149A3F
:1017400023681393139B4B4E9B1A312BF8D90C2112
:101750004B4819F055FC03214A4819F051FC3368F5
:101760001293129A23681193119B424E9B1A312BAC
:10177000F8D90721444819F043FC0321414819F0E6
:101780003FFC33681093109A23680F930F9B9B1AAA
:10179000312BF9D919F068FC00280CDD03230C214A
:1017A0003E482B601AF0A8FC29683A481BF084F9DF
:1017B00038481BF031F90A2139483A4E1AF09CFC9E
:1017C000296834481BF078F932481BF025F9364B6C
:1017D0001B683746C6EB03083D46A43608EB0500F8
:1017E00017F0A8FF05F8010BB542F7D12F4B304E8B
:1017F0001B68B346C6EB03085D46343608EB0500AC
:1018000017F098FF05F8010BB542F7D1294B2A4E86
:101810001B683246C6EB03081546403608EB050048
:1018200017F088FF05F8010BAE42F7D1234B244E89
:101830001B68B246C6EB03085546343608EB050074
:1018400017F078FF05F8010BB542F7D11D4B1E4D7F
:101850001E68A946761BC846103506EB080017F02F
:1018600069FF08F8010BA845F7D1184B184D1E6801
:1018700030E000BF241BFF1F841FFF1FA0320200A7
:10188000A832020060320200B83202004807FF1F8F
:10189000C03202002408FF1FD0320200E0320200F2
:1018A000F03202007C17FF1F2414FF1F6407FF1F84
:1018B0003818FF1F3C07FF1FAC13FF1F8807FF1FCF
:1018C000EC13FF1F9007FF1FAC15FF1F5007FF1FF2
:1018D000F814FF1FA846761B183506EB080017F012
:1018E00029FF08F8010B4545F7D1C34BC34D1E68CE
:1018F000A846761B183506EB080017F01BFF08F802
:10190000010BA845F7D1BE4BBE4D1E68A846761BFD
:10191000183506EB080017F00DFF08F8010BA84575
:10192000F7D1B94BB94D1E682B46761B984640350A
:1019300006EB080017F0FEFE08F8010B4545F7D14D
:10194000B34BB44D1E682B46761B98465C3506EBB0
:10195000080017F0EFFE08F8010BA845F7D1AE4BD1
:10196000AE4D1E682B46761B9846503506EB080098
:1019700017F0E0FE08F8010B4545F7D1A84BA94D3B
:101980001E682B46761B9846603506EB080017F05C
:10199000D1FE08F8010BA845F7D11321A2481AF08F
:1019A000ABFBDBF83010A1481BF086F89F481BF01A
:1019B00033F812219E481AF09FFBDAF830109B484A
:1019C0001BF07AF899481BF027F81A2199481AF069
:1019D00093FBD9F8001095481BF06EF893481BF064
:1019E0001BF8132194481AF087FB884B8F4819681D
:1019F0000A2200231BF020F88C481BF00DF813215D
:101A00008E481AF079FB8E4B884819680A22002309
:101A10001BF012F885481AF0FFFF122189481AF0CE
:101A20006BFB7E4B8148996C0A2200231BF004F863
:101A30007E481AF0F1FF172183481AF05DFB794BBD
:101A40007A4819680A2200231AF0F6FF77481AF03C
:101A5000E3FF13217D481AF04FFB6E4B7348996BDF
:101A60000A2200231AF0E8FF70481AF0D5FF01217E
:101A7000042018F05BF801210E2018F057F801211E
:101A8000162018F053F80121112018F04FF800210A
:101A90000320FEF7E3FF00210846FEF7DFFF0021E9
:101AA0000120FEF7DBFF00210220FEF7D7FF022115
:101AB000387E18F03BF80221387F18F037F8236899
:101AC0001A931A9A23681993199B614D9B1A092B33
:101AD000F8D90121387E18F015F80121387F18F067
:101AE00011F8022197F82C0018F020F8022197F83D
:101AF000300018F01BF82B681893189A2368179376
:101B0000179B534D9B1A092BF8D9012197F82C00EC
:101B100017F0F8FF012197F8300017F0F3FF0221CA
:101B200097F84C0018F002F8022197F8500017F0CF
:101B3000FDFF012197F84C0017F0E4FF97F85000E3
:101B4000012117F0DFFF2B681693169A236815936F
:101B5000159B9B1A092BF9D90121182017F0E6FFD4
:101B60000121182017F0CEFF01210F2017F0DEFF12
:101B700001210F2017F0C6FF01210A2017F0D6FF20
:101B800001210A2017F0BEFF0121092017F0CEFF26
:101B90000121092017F0B6FFFEF7F0FE0021032017
:101BA000FEF75CFF2A4E032501210D2017F0AAFF46
:101BB00023681E931E9A23681D931D9B9B1A312B2D
:101BC000F9D900210D2017F09DFF33681C931C9A52
:101BD00023681B931B9B9B1AB3F5967FF8D3013D9B
:101BE000E2D10E211B481AF087FA10481AF014FFB0
:101BF00023B0BDE8F08F00BF5407FF1F7016FF1F12
:101C00006C07FF1F8816FF1F7007FF1FD415FF1FEB
:101C10003407FF1F1013FF1F3807FF1FA414FF1FF7
:101C20004C07FF1F3814FF1FFC3202002408FF1F5F
:101C30001033020024330200403302005433020008
:101C4000AC13FF1F683302007C33020094330200A0
:101C5000241BFF1FA833020003280BD8DFE800F085
:101C60000806040219F010BA18F030BF18F076BB5D
:101C70001AF0DCB90020704708B518F05FFB0028A7
:101C800001DD012008BD18F011FF002801DD022050
:101C900008BD19F0E9F90028D4BF0020032008BDD1
:101CA00038B50D4C2068FFF7D7FFC5B202E02068B9
:101CB000FFF7D2FFFFF7E0FF0028F8DC0421074818
:101CC0001AF01AFA294606481AF0F6FE04481AF0E5
:101CD000A3FE284638BD00BF4807FF1FB8330200E7
:101CE0002408FF1F08B5FFF7C7FF002808DB134BC8
:101CF0001868FFF7B1FF124BC0B25328187001D01B
:101D0000002008BD00210320FEF7A8FE0D4B1B6834
:101D1000012B08D003D3022B09D0012008BD0021DC
:101D20000120FEF79BFE00210120FEF797FE002117
:101D30000220FEF793FE012008BD00BF4807FF1FE9
:101D40001C17FF1F3814FF1FF0B51C2183B0274854
:101D5000274C284D284E294F1AF0CEF928481AF062
:101D60005BFE0E2127481AF0C7F9216824481AF0B3
:101D7000A3FE23481AF050FE0023019309E0019BC3
:101D80003068184417F0F0FC019B0133142B0193C9
:101D900014DC2868FFF760FFC0B2FF282368014603
:101DA00019D0032BEBD1019B3A680146D01817F0EC
:101DB000DBFC019B0133142B0193EADD2368032B29
:101DC0000CBF114B114B042219680DEB020017F0E8
:101DD000F9FC03B0F0BD032B0CBF084A064A019B77
:101DE00010680021184417F0BFFCE7E7C033020079
:101DF0008407FF1F4807FF1F8007FF1F4407FF1FBF
:101E00002408FF1FE03302008C07FF1F6007FF1F3D
:101E10002DE9F04F95B0074604A814F0EBFE88209A
:101E20001AF0BAFD0823102280E80C00C61800F151
:101E30008808354634462046002110341AF0B8FF91
:101E4000A045F8D11721BF481AF056F9BE481AF03C
:101E5000E3FD0CA80123BD4ABD4914F0BBFF0E9A57
:101E60009DF83C309DF8341006928DF81C308DF8AA
:101E700014100FAA0DF11D030DF12A0012F8011F15
:101E800003F8011B8342F9D1139B0B930CA814F0A8
:101E9000BFFE04A814F0EAFE002800F0AF8104A8F9
:101EA00014F0D2FE0A210446AA481AF025F9214668
:101EB00000230A22A4481AF0BFFDA3481AF0ACFD83
:101EC000002F4AD017F1060900F1B7800024A2467E
:101ED00010E0013C0CA814F0C9FE8046002842D056
:101EE0000CA814F0B5FE01340CA814F091FE4C457A
:101EF00000F3A380012204A90CA814F0DFFF0CA8B2
:101F000014F088FE80461EF0FBFC014640461AF0A5
:101F1000F3F88D481AF080FD0CA814F07DFE00281F
:101F2000D7D10CA814F076FE01468B481EF00CFBAE
:101F30000A2100285CD189481AF0DEF80CA814F0B8
:101F400069FE80461EF0DCFC014640461AF0D4F8DB
:101F50007D48013C1AF060FDC2E7814B64221A60A3
:101F60004FF00609B2E70F217E48DFF8F4B11AF00E
:101F7000C3F8214674481AF09FFD03217A481AF0ED
:101F8000BBF8DBF8001070481AF096FD04F1080366
:101F900003217548CBF800301AF0AEF8DBF80010DA
:101FA00069481AF089FD68481AF036FD68466F499D
:101FB0001AF0FEFE41466846FFF740F968461AF0FF
:101FC000B7FE2220FFF7ACFA631E00EE103A40463F
:101FD000B8EEC00AFFF748FA684665491AF0E8FE0D
:101FE00068464146FFF72AF968461AF0A1FE77E7EE
:101FF00060481AF081F8214653481AF05DFD03212C
:1020000059481AF079F80CA814F004FE80461EF026
:1020100077FC014640461AF06FF8032152481AF047
:102020006BF8A74240F3F48006EB0A1146481AF019
:10203000CDFC45481AF0F0FC4CE70126741E032144
:102040004D481AF059F821463F481AF035FD032152
:1020500045481AF051F829463B481AF0B7FCB41E1F
:1020600039481AF0D9FC052C04D8DFE804F068667A
:102070006462359541490CA81AF09AFE00210CA81B
:10208000FFF7DCF80CA81AF053FE3D490CA81AF033
:102090008FFE00210CA8FFF7D1F80CA81AF048FE1B
:1020A00029460CA81AF098FE00210CA8FFF7C6F8E4
:1020B0000CA81AF03DFE2E490CA81AF079FE00215A
:1020C0000CA8FFF7BBF80CA81AF032FE072E00F0A0
:1020D0008F8010350136B1E72A490CA81AF068FE46
:1020E00000210CA8FFF7AAF80CA81AF021FE244939
:1020F0000CA81AF05DFE00210CA8FFF79FF80CA8B1
:102100001AF016FE29460CA81AF066FE00210CA84B
:10211000FFF794F80CA81AF00BFE15490CA81AF05A
:1021200047FE0CA80021FFF789F80CA81AF000FE62
:10213000CFE71549D1E71549CFE71549CDE715494F
:10214000CBE700BFF03302002408FF1F0834020071
:102150007018FF1F0C3402002834020034340200CF
:102160007807FF1F503402004C3402006034020034
:1021700074340200403402007C34020080340200D7
:1021800098340200FC340200E4340200CC34020033
:10219000B43402009C34020023490CA81AF008FE53
:1021A00000210CA8FFF74AF80CA81AF0C1FD1F493E
:1021B0000CA81AF0FDFD00210CA8FFF73FF80CA8B1
:1021C0001AF0B6FD29460CA81AF006FE00210CA84C
:1021D000FFF734F80CA81AF0ABFD15490CA81AF05B
:1021E000E7FD0CA80021FFF729F80CA81AF0A0FDC4
:1021F00004A814F00DFD15B0BDE8F08F0E210D48B8
:1022000019F07AFF04A814F003FD15B0BDE8F08FB3
:102210000CA814F0FFFC06EB0A18014640461AF021
:102220003BFE0AF1010AFFE6143502009834020071
:10223000743402001834020008B5084BDFED080AB8
:10224000D3ED007A27EE800A1BF086FA1BF0DCF94A
:10225000044BD3ED007A20EE270A08BD9814FF1F27
:10226000DB0FC940CC15FF1F08B52C4A2C4B92ED53
:10227000010A93ED007ADFED2B6A2B4BB8EEC77A9B
:102280009B6BC6EE877A012BB8EEC00A2DED028B50
:1022900027EE800A3BD034D3022B2CD09FED238A2B
:1022A000FFF7CAFF224A234B92ED007A002283F8FF
:1022B000902072B6DFED207A93ED206AD3ED1F6A8D
:1022C00030EE480AB8EEC77AC0EE275AC5EE877AD4
:1022D00067EE867AF4EEE67AC3ED1E7AD3ED227AC3
:1022E000F1EE10FAD8BFF1EE677AC3ED237A62B649
:1022F000BDEC028B08BD114B93ED018AB8EEC88A84
:10230000CEE70F4B93ED018AB8EEC88AC8E70D4BB4
:1023100093ED018AB8EEC88AC2E700BFB812FF1F6A
:102320006C18FF1FDB0FC9401013FF1F00000000D7
:10233000D016FF1F1415FF1FCDCCCC3C1416FF1F69
:102340002017FF1FD816FF1F2DE9F04F1621ADB043
:102350000446B14819F0D0FEB0481AF05DFB0A2CD3
:1023600000F27084DFE814F095006E04CD01AA023B
:102370006C016E042703F901D403D4030B00A84BAE
:102380001D680DF15008C8EB050544462BAE281911
:1023900017F0D0F904F8010BA642F8D1A14907A81B
:1023A0001AF006FD002107A8FEF748FF07A81AF05B
:1023B000BFFC2220FFF7B4F8DDED147A0020B8EE60
:1023C000E70AFFF751F8984907A81AF0F1FC002135
:1023D00007A8FEF733FF07A81AF0AAFC934907A83D
:1023E0001AF0E6FC002107A8FEF728FF07A81AF05C
:1023F0009FFC2220FFF794F8DDED187A0020B8EE5C
:10240000670AFFF731F8884907A81AF0D1FC07A836
:102410000021FEF713FF07A81AF08AFC229B012B6C
:1024200000F0CC86C0F09886022B40F0958280495F
:1024300007A81AF0BDFC002107A8FEF7FFFE07A8B9
:102440001AF076FC2220FFF76BF8DDED177A0020FA
:10245000B8EE670AFFF708F8734907A81AF0A8FC56
:10246000002107A8FEF7EAFE07A81AF061FC7149EF
:1024700007A81AF09DFC002107A8FEF7DFFE07A8B9
:102480001AF056FC2220FFF74BF80020DDED1B7AF6
:102490001AE3694B1D6807AC2E1B0DF1500830196B
:1024A00017F048F904F8010BA045F8D1C8EB050571
:1024B00021AE4446281917F03DF904F8010BA64255
:1024C000F8D1584903A81AF073FC002103A8FEF7BD
:1024D000B5FE03A81AF02CFC584903A81AF068FCB2
:1024E000002103A8FEF7AAFE03A81AF021FCDDEDE7
:1024F000087A0020B8EEE70AFEF7B6FF4A4903A8BB
:102500001AF056FC002103A8FEF798FE03A81AF063
:102510000FFC464903A81AF04BFC002103A8FEF764
:102520008DFE03A81AF004FC444903A81AF040FCED
:10253000002103A8FEF782FE03A81AF0F9FBDDEDE7
:10254000107A0020B8EEE70AFEF78EFF364903A89E
:102550001AF02EFC03A80021FEF770FE03A81AF063
:10256000E7FB139C012C00F01B85022C00F0B184CA
:10257000002C40F0F1812E4903A81AF019FC2146E5
:1025800003A8FEF75BFE03A81AF0D2FB2B4903A8B1
:102590001AF00EFC214603A8FEF750FE03A81AF01D
:1025A000C7FBDDED097A2046B8EEE70AFEF75CFFCF
:1025B0001D4903A81AF0FCFB214603A8FEF73EFEC6
:1025C00003A81AF0B5FB1B4903A81AF0F1FB21463A
:1025D00003A8FEF733FE03A81AF0AAFB174903A8C5
:1025E0001AF0E6FB214603A8FEF728FE03A81AF01E
:1025F0009FFBDDED117A2046B8EEE70AFEF734FFC7
:10260000094903A81AF0D4FB03A82146FEF716FED9
:1026100003A81AF08DFB9FE12C3502002408FF1F50
:102620003407FF1F4435020074340200583502009D
:102630006C350200803502006407FF1F98340200E9
:10264000924B1D680DF15008C8EB0505444624AEB9
:10265000281917F06FF804F8010BA642F8D1149A64
:10266000052A00F279810123934013F0300440F0F1
:10267000CB8313F00C0540F0A3869B0700F06C8120
:1026800007A883491AF094FB294607A8FEF7D6FD50
:1026900007A81AF04DFB2220FEF742FFDDED157A68
:1026A0002846B8EEE70AFEF7DFFE07A879491AF0D8
:1026B0007FFB294607A8FEF7C1FD07A81AF038FBE3
:1026C00007A875491AF074FB294607A8FEF7B6FD5E
:1026D00007A81AF02DFB2220FEF722FFDDED167A67
:1026E0002846B8EE670AFEF7BFFE07A869491AF048
:1026F0005FFB07A82946FEF7A1FD07A81AF018FB03
:102700002AE1664B1D680DF15008C8EB05054446EB
:1027100021AE281917F00EF804F8010BA642F8D1E3
:102720001E9B5F4801930B21DDF854B0DDF874A0C7
:10273000DDF85890179F1F9E189D149C19F0DCFC23
:1027400058481AF069F9209B032B00F20581DFE855
:1027500013F01803E402B0027C02534B1D680DF124
:102760005008C8EB0505444628AE281916F0E2FFCC
:1027700004F8010BA642F8D14C4907A81AF018FB3F
:10278000002107A8FEF75AFD07A81AF0D1FA222067
:10279000FEF7C6FEDDED147A0020B8EEE70AFEF77C
:1027A00063FE3C4907A81AF003FB002107A8FEF7C7
:1027B00045FD07A81AF0BCFA3D4907A81AF0F8FA37
:1027C000002107A8FEF73AFD07A81AF0B1FA222067
:1027D000FEF7A6FEDDED1C7A0020B8EE670AFEF7D4
:1027E00043FE2C4907A81AF0E3FA002107A8FEF7D8
:1027F00025FD07A81AF09CFA07212E4819F07CFC49
:10280000269C2848214600230A221AF015F925485B
:102810001AF002F9012C00F02983C0F0F583022C94
:1028200040F09A801A4907A81AF0C2FA002107A8B6
:10283000FEF704FD07A81AF07BFA2220FEF770FECF
:102840001D4B93ED030A0020B8EEC00AFEF70CFE04
:10285000104907A81AF0ACFA002107A8FEF7EEFC11
:1028600007A81AF065FA0C4907A81AF0A1FA002186
:1028700007A8FEF7E3FC07A81AF05AFA2220FEF791
:102880004FFE0020DDED1F7A1EE100BF7007FF1F25
:102890006C35020074340200803502008807FF1F87
:1028A000F03502002408FF1F3807FF1F44350200DF
:1028B00058350200E8350200A414FF1F8A4B1D683A
:1028C00007AC2D1B0BAE281916F034FF04F8010BD2
:1028D000A642F8D10DF15008844940461AF068FA32
:1028E00000214046FEF7AAFC40461AF021FA2220B9
:1028F000FEF716FEDDED087A0020B8EEE70AFEF7D7
:10290000B3FD7B4940461AF053FA00214046FEF7DA
:1029100095FC40461AF00CFA764940461AF048FAFF
:1029200000214046FEF78AFC40461AF001FA2220B8
:10293000FEF7F6FDDDED0A7A0020B8EE670AFEF735
:1029400093FD6B4940461AF033FA40460021FEF7EA
:1029500075FC40461AF0ECF9674940461AF028FA2F
:1029600000214046FEF76AFC40461AF0E1F963494F
:1029700040461AF01DFA00214046FEF75FFC404633
:102980001AF0D6F95E4940461AF012FA0021404684
:10299000FEF754FC40461AF0CBF9584940461AF06D
:1029A00007FA00214046FEF749FC40461AF0C0F9FC
:1029B0002DB0BDE8F08F534B1D680DF15008C8EBEA
:1029C0000505444624AE281916F0B4FE04F8010BA0
:1029D000A642F8D1454907A81AF0EAF9002107A84C
:1029E000FEF72CFC07A81AF0A3F92220FEF798FDA9
:1029F000DDED157A0020B8EEE70AFEF735FD3C491B
:102A000007A81AF0D5F9002107A8FEF717FC07A8B8
:102A10001AF08EF9374907A81AF0CAF9002107A859
:102A2000FEF70CFC07A81AF083F92220FEF778FDC8
:102A3000DDED167A0020B8EE670AFEF715FD2C4989
:102A400007A81AF0B5F907A80021FEF7F7FB07A8B9
:102A50001AF06EF9149B012B00F00883C0F04A8332
:102A6000022B7FF479AF284907A81AF0A1F90021B9
:102A700007A8FEF7E3FB07A81AF05AF92220FEF791
:102A80004FFDDDED1B7A0020B8EEE70AFEF7ECFC07
:102A9000174907A81AF08CF9002107A8FEF7CEFB0A
:102AA00007A81AF045F9194907A81AF081F9002179
:102AB00007A8FEF7C3FB07A81AF03AF92220FEF791
:102AC0002FFDDDED1C7A0020B8EE670AFEF7CCFC86
:102AD000074907A81AF06CF907A80021FEF7AEFB1A
:102AE00007A81AF025F937E79007FF1F44350200C1
:102AF0007434020058350200FC35020060320200D6
:102B0000143602003C07FF1F6C35020080350200BE
:102B1000B64B1D680DF15008C8EB050544462CAEB8
:102B2000281916F007FE04F8010BA642F8D1B04BA5
:102B30001B68012B00F0C883C0F05483022B7FF484
:102B40000BAFAC4907A81AF033F9002107A8FEF72C
:102B500075FB07A81AF0ECF82220FEF7E1FCDDED8A
:102B6000207A0020B8EEE70AFEF77EFCA24907A80B
:102B70001AF01EF9002107A8FEF760FB07A81AF05B
:102B8000D7F89E4907A81AF013F9002107A8FEF705
:102B900055FB07A81AF0CCF82220FEF7C1FCDDEDAA
:102BA000287A0020B8EE670AFEF75EFC924907A873
:102BB0001AF0FEF8002107A8FEF740FB07A81AF05C
:102BC000B7F88F4907A81AF0F3F8002107A8FEF715
:102BD00035FB07A81AF0ACF82220FEF7A1FCDDEDCA
:102BE000237A0020B8EEE70AFEF73EFC824907A8E8
:102BF0001AF0DEF8002107A8FEF720FB07A81AF05C
:102C000097F8804907A81AF0D3F8002107A8FEF723
:102C100015FB07A81AF08CF82220FEF781FCDDEDE9
:102C20002B7A0020B8EE670AFEF71EFC07A872494F
:102C30001AF0BEF807A80021FEF700FB07A81AF05B
:102C400077F889E60DF1500886E66A4907A81AF078
:102C5000AFF8002107A8FEF7F1FA07A81AF068F804
:102C60002220FEF75DFC07EE90BA0020B8EEE70ADE
:102C7000FEF7FAFB604907A81AF09AF8002107A8A6
:102C8000FEF7DCFA07A81AF053F85C4907A81AF017
:102C90008FF8002107A8FEF7D1FA07A81AF048F824
:102CA0002220FEF73DFC07EE90AA0020B8EEE70ACE
:102CB000BAE7534907A81AF07BF8002107A8FEF7E6
:102CC000BDFA07A81AF034F82220FEF729FC07EE17
:102CD000905A0020B8EEE70AFEF7C6FB464907A85F
:102CE0001AF066F8002107A8FEF7A8FA07A81AF05C
:102CF0001FF8444907A81AF05BF8002107A8FEF75F
:102D00009DFA07A81AF014F82220FEF709FC07EE36
:102D1000904A0020B8EEE70A86E7394907A81AF07A
:102D200047F8002107A8FEF789FA07A81AF000F86B
:102D30002220FEF7F5FB07EE907A0020B8EEE70AB6
:102D4000FEF792FB2C4907A81AF032F8002107A8D9
:102D5000FEF774FA07A819F0EBFF2A4907A81AF042
:102D600027F8002107A8FEF769FA07A819F0E0FF85
:102D70002220FEF7D5FB07EE906A0020B8EEE70AA6
:102D800052E71F4907A81AF013F8002107A8FEF719
:102D900055FA07A819F0CCFF2220FEF7C1FB07EE79
:102DA000909A0020B8EEE70AFEF75EFB124907A8EA
:102DB00019F0FEFF002107A8FEF740FA07A819F056
:102DC000B7FF104907A819F0F3FF002107A8FEF785
:102DD00035FA07A819F0ACFF2220FEF7A1FBDDEDC4
:102DE000017A0020B8EEE70A1EE700BF4C07FF1F7C
:102DF0003814FF1F443502007434020058350200B5
:102E00006C35020080350200B14907A819F0D0FFE7
:102E1000002107A8FEF712FA07A819F089FF22205F
:102E2000FEF77EFBDDED1B7A0020B8EEE70AFEF729
:102E30001BFBA84907A819F0BBFF002107A8FEF754
:102E4000FDF907A819F074FFA34907A819F0B0FF0E
:102E5000002107A8FEF7F2F907A819F069FF222060
:102E6000FEF75EFB0020DDED1C7ADBE6984907A843
:102E700019F09EFF002107A8FEF7E0F907A819F056
:102E800057FF2220FEF74CFB944B93ED020A0020E3
:102E9000B8EEC00AFEF7E8FA8E4907A819F088FFD5
:102EA000002107A8FEF7CAF907A819F041FF8A49CF
:102EB00007A819F07DFF002107A8FEF7BFF907A8B2
:102EC00019F036FF2220FEF72BFB0020DDED1E7AE5
:102ED000FAE51821824819F00FF9824B82481968E7
:102EE00019F0EAFD804819F097FD19217F4819F083
:102EF00003F914997C4819F0DFFD7B4819F08CFD2B
:102F000018217B4819F0F8F8079C7748214619F0FA
:102F1000D3FD754819F080FD6D4903A819F048FFED
:102F2000002103A8FEF78AF903A819F001FF222067
:102F3000FEF7F6FADDED0B7A0020B8EEE70AFEF7B1
:102F400093FA644903A819F033FF002103A8FEF7A0
:102F500075F903A819F0ECFE642016F0EDFD5E494A
:102F600003A819F025FF002103A8FEF767F903A8BD
:102F700019F0DEFE2220FEF7D3FA07EE904AB8EEF3
:102F8000E70A0020FEF770FA524903A819F010FF73
:102F900003A80021FEF752F903A819F0C9FEDBE4EB
:102FA0004B4903A819F004FF002103A8FEF746F9D6
:102FB00003A819F0BDFE2220FEF7B2FADDED0A7A71
:102FC0000020B8EEE70AFEF74FFA424903A819F0CD
:102FD000EFFE002103A8FEF731F903A819F0A8FEBF
:102FE0003D4903A819F0E4FE002103A8FEF726F9E5
:102FF00003A819F09DFE2220FEF792FADDED127A69
:103000000020B8EEE70ABDE7314907A819F0D0FE65
:10301000002107A8FEF712F907A819F089FE22205F
:10302000FEF77EFADDED157A0020B8EEE70AFEF72E
:103030001BFA284907A819F0BBFE002107A8FEF7D4
:10304000FDF807A819F074FE234907A819F0B0FE8F
:10305000002107A8FEF7F2F807A819F069FE222060
:10306000FEF75EFA0020DDED1D7A2DE5184907A870
:1030700019F09EFE002107A8FEF7E0F807A819F056
:1030800057FE2220FEF74CFADDED197AB8EEE70A7A
:103090000020FEF7E9F90F4907A819F089FE002181
:1030A00007A8FEF7CBF807A819F042FE0A4907A8BF
:1030B00019F07EFE002107A8FEF7C0F807A819F056
:1030C00037FE2220FEF72CFA0020DDED1A7AFBE411
:1030D0006C3502007434020080350200A414FF1F16
:1030E000943502003818FF1F2408FF1FB035020076
:1030F000CC350200AD4907A819F05AFE002107A8F7
:10310000FEF79CF807A819F013FE2220FEF708FA34
:10311000DDED177A0020B8EEE70AFEF7A5F9A4491D
:1031200007A819F045FE002107A8FEF787F807A8B1
:1031300019F0FEFD9F4907A819F03AFE002107A8E3
:10314000FEF77CF807A819F0F3FD2220FEF7E8F956
:103150000020DDED187AB7E4944907A819F028FE9D
:10316000002107A8FEF76AF807A819F0E1FD222060
:10317000FEF7D6F9DDED157A0020B8EEE70AFEF786
:1031800073F98B4907A819F013FE002107A8FEF771
:1031900055F807A819F0CCFD864907A819F008FED4
:1031A000002107A8FEF74AF807A819F0C1FD222060
:1031B000FEF7B6F90020DDED197A85E47B4907A812
:1031C00019F0F6FD002107A8FEF738F807A819F056
:1031D000AFFD2220FEF7A4F9DDED167A0020B8EE4F
:1031E000670A56E7744907A819F0E2FD002107A80D
:1031F000FEF724F807A819F09BFD2220FEF790F9AE
:10320000DDED207A0020B8EEE70AFEF72DF96849D7
:1032100007A819F0CDFD002107A8FEF70FF807A8B1
:1032200019F086FD654907A819F0C2FD002107A81D
:10323000FEF704F807A819F07BFD2220FEF770F9CD
:10324000DDED287A0020B8EE670AFEF70DF958493F
:1032500007A819F0ADFD002107A8FDF7EFFF07A8AB
:1032600019F066FD514907A819F0A2FD002107A831
:10327000FDF7E4FF07A819F05BFD2220FEF750F9E7
:10328000DDED217A0020B8EEE70AFEF7EDF84849B7
:1032900007A819F08DFD002107A8FDF7CFFF07A8AB
:1032A00019F046FD434907A819F082FD002107A83F
:1032B000FDF7C4FF07A819F03BFD2220FEF730F907
:1032C0000020DDED297AADE43B4907A819F070FD37
:1032D000002107A8FDF7B2FF07A819F029FD222059
:1032E000FEF71EF9DDED207A0020B8EEE70AFEF7C2
:1032F000BBF82F4907A819F05BFD002107A8FDF7CF
:103300009DFF07A819F014FD2C4907A819F050FDDE
:10331000002107A8FDF792FF07A819F009FD222058
:10332000FEF7FEF8DDED287A0020B8EE670AFEF71A
:103330009BF81F4907A819F03BFD002107A8FDF7DE
:103340007DFF07A819F0F4FC184907A819F030FD13
:10335000002107A8FDF772FF07A819F0E9FC222059
:10336000FEF7DEF8DDED227A0020B8EEE70AFEF780
:103370007BF80F4907A819F01BFD002107A8FDF7EE
:103380005DFF07A819F0D4FC0A4907A819F010FD41
:10339000002107A8FDF752FF07A819F0C9FC222059
:1033A000FEF7BEF80020DDED2A7A3BE46C35020022
:1033B00074340200803502004435020058350200A2
:1033C00007A8204919F0F4FC214607A8FDF736FFAD
:1033D00007A819F0ADFC2220FEF7A2F8DDED187A5F
:1033E0002046B8EEE70AFEF73FF807A8164919F09D
:1033F000DFFC214607A8FDF721FF07A819F098FC7C
:1034000007A8124919F0D4FC214607A8FDF716FFBA
:1034100007A819F08DFC2220FEF782F8DDED197A5D
:103420002046B8EE670AFEF71FF807A8064919F00C
:10343000BFFC07A82146FDF701FF07A819F078FC9B
:10344000FFF78ABA6C35020074340200803502003E
:1034500070B5C64BAEB01D6805AC2D1B2EAE28193D
:1034600016F068F904F8010BB442F8D1C049C14C18
:10347000C14D01A819F09CFC002101A8FDF7DEFE5A
:1034800001A819F055FC2220FEF74AF8DDED057A77
:103490000020B8EE670AFDF7E7FFB84901A819F068
:1034A00087FC002101A8FDF7C9FE01A819F040FC26
:1034B000B34901A819F07CFC002101A8FDF7BEFE6C
:1034C00001A819F035FC2220FEF72AF8DDED067A76
:1034D0000020B8EE670AFDF7C7FFA84901A819F058
:1034E00067FC002101A8FDF7A9FE01A819F020FC46
:1034F000A44901A819F05CFC002101A8FDF79EFE7B
:1035000001A819F015FC2220FEF70AF89DED070A24
:103510000420FDF7A9FF994901A819F049FC0021F1
:1035200001A8FDF78BFE01A819F002FC964901A83D
:1035300019F03EFC002101A8FDF780FE01A819F05A
:10354000F7FB2220FDF7ECFF9DF8881001A8002969
:1035500014BF2946214619F02BFC002101A8FDF7D4
:103560006DFE01A819F0E4FB844901A819F020FCC4
:10357000002101A8FDF762FE01A819F0D9FB8349DB
:1035800001A819F015FC002101A8FDF757FE01A8BC
:1035900019F0CEFB2220FDF7C3FFDDED267A0020D7
:1035A000B8EE670AFDF760FF744901A819F000FC46
:1035B000002101A8FDF742FE01A819F0B9FB7449EA
:1035C00001A819F0F5FB002101A8FDF737FE01A8BD
:1035D00019F0AEFB2220FDF7A3FFDDED277A0020D6
:1035E000B8EE670AFDF740FF644901A819F0E0FB57
:1035F000002101A8FDF722FE01A819F099FB6549F9
:1036000001A819F0D5FB002101A8FDF717FE01A8BC
:1036100019F08EFB2220FDF783FFDDED087A0020F4
:10362000B8EE670AFDF720FF544901A819F0C0FB66
:10363000002101A8FDF702FE01A819F079FB564907
:1036400001A819F0B5FB002101A8FDF7F7FD01A8BD
:1036500019F06EFB2220FDF763FFDDED097A0020F3
:10366000B8EE670AFDF700FF444901A819F0A0FB76
:10367000002101A8FDF7E2FD01A819F059FB474917
:1036800001A819F095FB002101A8FDF7D7FD01A8BD
:1036900019F04EFB2220FDF743FF9DED0A0A04209E
:1036A000FDF7E2FE354901A819F082FB002101A8CF
:1036B000FDF7C4FD01A819F03BFB394901A819F039
:1036C00077FB002101A8FDF7B9FD01A819F030FB37
:1036D0002220FDF725FF9DF8891001A8002914BFBD
:1036E0002946214619F064FB002101A8FDF7A6FD3B
:1036F00001A819F01DFB214901A819F059FB00216F
:1037000001A8FDF79BFD01A819F012FB254901A8AE
:1037100019F04EFB002101A8FDF790FD01A819F05A
:1037200007FB2220FDF7FCFEDDED0D7A0020B8EE50
:10373000670AFDF799FE114901A819F039FB00212C
:1037400001A8FDF77BFD01A819F0F2FA164901A8BE
:1037500019F02EFB002101A8FDF770FD01A819F05A
:10376000E7FA2220FDF7DCFE20E000BF2414FF1F53
:1037700038360200303602002C3602007434020063
:103780005036020068360200803602009836020089
:10379000AC360200C4360200D4360200E436020021
:1037A000F43602000437020014370200DDED0E7A11
:1037B0000020B8EE670AFDF757FEC34901A819F0CB
:1037C000F7FA002101A8FDF739FD01A819F0B0FAB8
:1037D000BE4901A819F0ECFA002101A8FDF72EFD61
:1037E00001A819F0A5FA2220FDF79AFE9DED0F0A17
:1037F0000520FDF739FEB44901A819F0D9FA0021D6
:1038000001A8FDF71BFD01A819F092FAB04901A823
:1038100019F0CEFA002101A8FDF710FD01A819F05A
:1038200087FA2220FDF77CFE9DF88A1001A8002966
:1038300014BF2946214619F0BBFA002101A8FDF763
:10384000FDFC01A819F074FA9F4901A819F0B0FA1B
:10385000002101A8FDF7F2FC01A819F069FA9D49C1
:1038600001A819F0A5FA002101A8FDF7E7FC01A8BD
:1038700019F05EFA2220FDF753FEDDED2A7A0020D2
:10388000B8EE670AFDF7F0FD8F4901A819F090FA2C
:10389000002101A8FDF7D2FC01A819F049FA8E49D0
:1038A00001A819F085FA002101A8FDF7C7FC01A8BD
:1038B00019F03EFA2220FDF733FEDDED2B7A0020D1
:1038C000B8EE670AFDF7D0FD7F4901A819F070FA3C
:1038D000002101A8FDF7B2FC01A819F029FA7F49DF
:1038E00001A819F065FA002101A8FDF7A7FC01A8BD
:1038F00019F01EFA2220FDF713FE9DED2C0A05207B
:10390000FDF7B2FD704901A819F052FA002101A893
:10391000FDF794FC01A819F00BFA714901A819F000
:1039200047FA002101A8FDF789FC01A819F000FA67
:103930002220FDF7F5FD9DF8B41001A8002914BF61
:103940002946214619F034FA002101A8FDF776FC3A
:1039500001A819F0EDF95C4901A819F029FA002134
:1039600001A8FDF76BFC01A819F0E2F95D4901A877
:1039700019F01EFA002101A8FDF760FC01A819F05A
:10398000D7F92220FDF7CCFDDDED137A0020B8EE4B
:10399000670AFDF769FD4C4901A819F009FA0021F1
:1039A00001A8FDF74BFC01A819F0C2F94E4901A886
:1039B00019F0FEF9002101A8FDF740FC01A819F05B
:1039C000B7F92220FDF7ACFDDDED147A0020B8EE4A
:1039D000670AFDF749FD3C4901A819F0E9F9002102
:1039E00001A8FDF72BFC01A819F0A2F93F4901A895
:1039F00019F0DEF9002101A8FDF720FC01A819F05B
:103A000097F92220FDF78CFD9DED150A0420FDF7A6
:103A10002BFD2D4901A819F0CBF9002101A8FDF7D4
:103A20000DFC01A819F084F9314901A819F0C0F979
:103A3000002101A8FDF702FC01A819F079F9222064
:103A4000FDF76EFD9DF88B1001A8002914BF2946D3
:103A5000214619F0ADF9002101A8FDF7EFFB01A8FF
:103A600019F066F9184901A819F0A2F901A8002176
:103A7000FDF7E4FB01A819F05BF9129C002C40F063
:103A800096801C4901A819F093F9214601A8FDF779
:103A9000D5FB01A819F04CF9174901A819F088F9CC
:103AA000214601A8FDF7CAFB01A819F041F9134905
:103AB00001A819F07DF9214601A8FDF7BFFB01A877
:103AC00019F036F91CE000BF7434020024370200FC
:103AD00034370200443702005C37020074370200BA
:103AE0008C370200A4370200B4370200C43702004A
:103AF000D437020004380200603202001438020099
:103B0000414901A819F054F901A82146FDF796FB97
:103B100001A819F00DF93D4901A819F049F9002152
:103B200001A8FDF78BFB01A819F002F92220FDF78F
:103B3000F7FC9DED160A0420FDF796FC344901A818
:103B400019F036F9002101A8FDF778FB01A819F05A
:103B5000EFF8304901A819F02BF9002101A8FDF771
:103B60006DFB01A819F0E4F8274901A819F020F924
:103B7000002101A8FDF762FB01A819F0D9F8264938
:103B800001A819F015F9002101A8FDF757FB01A8BC
:103B900019F0CEF81C4901A819F00AF9002101A872
:103BA000FDF74CFB01A819F0C3F82EB070BD1B49FE
:103BB00001A819F0FDF8002101A8FDF73FFB01A8BD
:103BC00019F0B6F8104901A819F0F2F8002101A87F
:103BD000FDF734FB01A819F0ABF8114901A819F061
:103BE000E7F8002101A8FDF729FB01A819F0A0F8CA
:103BF000054901A819F0DCF801A80021FDF71EFB1A
:103C000001A819F095F886E7603202002438020016
:103C100074340200343802004C380200E4370200E9
:103C2000F437020070B5C24BAEB01D6805AC2D1B59
:103C30002EAE281915F07EFD04F8010BA642F8D12E
:103C4000BC49BD4C01A819F0B3F8002101A8FDF74B
:103C5000F5FA01A819F06CF82220FDF761FCD4ED0B
:103C6000067A0020B8EE670AFDF7FEFBB34901A80B
:103C700019F09EF8002101A8FDF7E0FA01A819F05B
:103C800057F8AF4901A819F093F8002101A8FDF7F2
:103C9000D5FA01A819F04CF82220FDF741FCD4ED2B
:103CA000077A0020B8EE670AFDF7DEFBA34901A8FA
:103CB00019F07EF8002101A8FDF7C0FA01A819F05B
:103CC00037F8A04901A819F073F8002101A8FDF701
:103CD000B5FA01A819F02CF82220FDF721FCD4ED4B
:103CE0001E7A0020B8EE670AFDF7BEFB934901A8D3
:103CF00019F05EF8002101A8FDF7A0FA01A819F05B
:103D000017F8914901A819F053F8002101A8FDF70F
:103D100095FA01A819F00CF82220FDF701FCD4ED6A
:103D20000B7A0020B8EE670AFDF79EFB834901A8D5
:103D300019F03EF8002101A8FDF780FA01A818F05B
:103D4000F7FF824901A819F033F8002101A8FDF717
:103D500075FA01A818F0ECFF2220FDF7E1FBD4ED85
:103D60000C7A0020B8EE670AFDF77EFB734901A8C4
:103D700019F01EF8002101A8FDF760FA01A818F05B
:103D8000D7FF734901A819F013F8002101A8FDF726
:103D900055FA01A818F0CCFF2220FDF7C1FBD4EDA5
:103DA0001F7A0020B8EE670AFDF75EFB634901A8A1
:103DB00018F0FEFF002101A8FDF740FA01A818F055
:103DC000B7FF644901A818F0F3FF002101A8FDF72F
:103DD00035FA01A818F0ACFF2220FDF7A1FBD4EDC5
:103DE000137A0020B8EE670AFDF73EFB534901A89D
:103DF00018F0DEFF002101A8FDF720FA01A818F055
:103E000097FF554901A818F0D3FF002101A8FDF73D
:103E100015FA01A818F08CFF2220FDF781FBD4EDE4
:103E2000147A0020B8EE670AFDF71EFB434901A88B
:103E300018F0BEFF002101A8FDF700FA01A818F054
:103E400077FF464901A818F0B3FF002101A8FDF74C
:103E5000F5F901A818F06CFF2220FDF761FBD4ED05
:103E6000207A0020B8EE670AFDF7FEFA334901A870
:103E700018F09EFF002101A8FDF7E0F901A818F055
:103E800057FF0D21364818F037F9D4F88C10354813
:103E900000230A2218F0D0FD324818F0BDFDD4F8F6
:103EA0008C40002C68D1304901A818F081FF01A88E
:103EB0002146FDF7C3F901A818F03AFF2B4901A8E4
:103EC00018F076FF002101A8FDF7B8F901A818F055
:103ED0002FFF274901A818F06BFF002101A8FDF76B
:103EE000ADF901A818F024FF204901A818F060FFDF
:103EF000002101A8FDF7A2F901A818F019FF1D493A
:103F000001A818F055FF002101A8FDF797F901A8B5
:103F100018F00EFF154901A818F04AFF002101A86A
:103F2000FDF78CF901A818F003FF2EB070BD00BF9B
:103F30002414FF1F603802007C17FF1F7434020036
:103F400074380200883802009C380200B038020041
:103F5000C4380200D8380200EC38020000390200F0
:103F6000143902002408FF1F3839020060320200B1
:103F70004C39020068390200054901A818F018FF01
:103F800001A80021FDF75AF901A818F0D1FE95E724
:103F90002439020070B59D4BAEB01D6805AC2D1BD9
:103FA0002EAE281915F0C6FB04F8010BB442F8D167
:103FB00001A8974918F0FCFE002101A8FDF73EF981
:103FC00001A818F0B5FE2220FDF7AAFADDED1A7A55
:103FD0000020B8EEE70AFDF747FA01A88D4918F06E
:103FE000E7FE01A80021FDF729F901A818F0A0FEBD
:103FF00001A8894918F0DCFE002101A8FDF71EF98F
:1040000001A818F095FE2220FDF78AFADDED1B7A53
:104010000020B8EE670AFDF727FA01A87D4918F0DD
:10402000C7FE01A80021FDF709F901A818F080FEDC
:1040300001A87A4918F0BCFE002101A8FDF7FEF89E
:1040400001A818F075FE2220FDF76AFADDED1C7A52
:104050000020B8EEE70AFDF707FA01A86D4918F04D
:10406000A7FE01A80021FDF7E9F801A818F060FEFD
:1040700001A86B4918F09CFE002101A8FDF7DEF8AD
:1040800001A818F055FE2220FDF74AFADDED1D7A51
:104090000020B8EE670AFDF7E7F901A85D4918F0BE
:1040A00087FE01A80021FDF7C9F801A818F040FE1D
:1040B00001A85C4918F07CFE002101A8FDF7BEF8BC
:1040C00001A818F035FE2220FDF72AFADDED1E7A50
:1040D0000020B8EEE70AFDF7C7F901A84D4918F02E
:1040E00067FE01A80021FDF7A9F801A818F020FE3D
:1040F00001A84D4918F05CFE002101A8FDF79EF8CB
:1041000001A818F015FE2220FDF70AFADDED1F7A4E
:104110000020B8EE670AFDF7A7F901A83D4918F09D
:1041200047FE01A80021FDF789F801A818F000FE5C
:1041300001A83E4918F03CFE002101A8FDF77EF8D9
:1041400001A818F0F5FD2220FDF7EAF9DDED207A4F
:104150000020B8EEE70AFDF787F901A82D4918F00D
:1041600027FE01A80021FDF769F801A818F0E0FD7D
:1041700001A82F4918F01CFE002101A8FDF75EF8E8
:1041800001A818F0D5FD2220FDF7CAF9DDED217A4E
:104190000020B8EE670AFDF767F901A81D4918F07D
:1041A00007FE01A80021FDF749F801A818F0C0FD9D
:1041B00001A8204918F0FCFD01A80021FDF73EF8F8
:1041C00001A818F0B5FD01A81B4918F0F1FD01A8E0
:1041D0000021FDF733F801A818F0AAFD01A817493E
:1041E00018F0E6FD01A80021FDF728F801A818F055
:1041F0009FFD01A8104918F0DBFD01A80021FDF783
:104200001DF801A818F094FD2EB070BD2414FF1FF6
:10421000803902007434020094390200A839020087
:10422000BC390200D0390200E4390200F83902003A
:104230000C3A0200243A020060320200403A0200C6
:1042400070B5DA4B1B6884B00A2B00F2AD81DFE851
:1042500013F03903AB0129043404A204AB01C904EF
:104260001D061B070B00D101D149D24D684618F03D
:104270009FFD00216846FCF7E1FF684618F058FDF5
:104280002220FDF74DF9D5ED0C7A0020B8EEE70AB3
:10429000FDF7EAF8C849684618F08AFD002168462B
:1042A000FCF7CCFF684618F043FDC449684618F097
:1042B0007FFD00216846FCF7C1FF684618F038FD15
:1042C0002220FDF72DF9D5ED147A0020B8EE670A0B
:1042D000FDF7CAF8B849684618F06AFD002168463B
:1042E000FCF7ACFF684618F023FDB549684618F0A6
:1042F0005FFD00216846FCF7A1FF684618F018FD35
:104300002220FDF70DF9D5ED107A0020B8EEE70A6E
:10431000FDF7AAF8A849684618F04AFD002168464A
:10432000FCF78CFF684618F003FDA649684618F0B4
:104330003FFD00216846FCF781FF684618F0F8FC55
:104340002220FDF7EDF8D5ED077A0020B8EEE70A58
:10435000FDF78AF89849684618F02AFD002168465A
:10436000FCF76CFF684618F0E3FC9749684618F0C4
:104370001FFD00216846FCF761FF684618F0D8FC75
:104380002220FDF7CDF895ED080A0020FDF76CF826
:104390008949684618F00CFD00216846FCF74EFF7D
:1043A000684618F0C5FC8949684618F001FD0021EF
:1043B0006846FCF743FF684618F0BAFC2220FDF778
:1043C000AFF895ED0B0A0020FDF74EF87A496846E4
:1043D00018F0EEFC68460021FCF730FF684618F044
:1043E000A7FCAE6A6C46002E02F08B80012E23D112
:1043F0007749684618F0DCFC00216846FCF71EFF90
:10440000684618F095FC2220FDF78AF87149684645
:1044100018F0CEFC00216846FCF710FF684618F043
:1044200087FC6549684618F0C3FC68460021FCF724
:1044300005FF684618F07CFC6B6A022B02F0508086
:10444000032B23D16449204618F0B2FC00212046FA
:10445000FCF7F4FE204618F06BFC2220FDF760F814
:104460005E49204618F0A4FC00212046FCF7E6FE39
:10447000204618F05DFC5049204618F099FC204673
:104480000021FCF7DBFE204618F052FC2B68494D5A
:10449000012B00F08387C0F0EC86022B40F0848073
:1044A0004F49204618F084FC00212046FCF7C6FE48
:1044B000204618F03DFC2220FDF732F849492046FD
:1044C00018F076FC00212046FCF7B8FE204618F0D4
:1044D0002FFC3949204618F06BFC00212046FCF7E0
:1044E000ADFE204618F024FC3F49204618F060FC41
:1044F00000212046FCF7A2FE204618F019FC2220DD
:10450000FDF70EF8D5ED0F7A0020B8EEE70AFCF7BC
:10451000ABFF2949204618F04BFC00212046FCF750
:104520008DFE204618F004FC3049204618F040FC6F
:1045300000212046FCF782FE204618F0F9FB2220DD
:10454000FCF7EEFFD5ED177A0020B8EE670AFCF70E
:104550008BFF1949204618F02BFC00212046FCF760
:104560006DFE204618F0E4FB2149204618F020FC9F
:1045700000212046FCF762FE204618F0D9FB2220DD
:10458000FCF7CEFF95ED130A0020B8EEC00AFCF749
:104590006BFF0949204618F00BFC20460021FCF770
:1045A0004DFE204618F0C4FB04B070BD8407FF1F09
:1045B000583A02003814FF1F743402006C3A0200AB
:1045C000803A0200E43A0200F83A02005C3B020042
:1045D000783B0200EC3D02008C3B0200C43B020031
:1045E000943A02004C410200A83A0200BC3A020090
:1045F000D03A0200A649A74C684618F0D9FB002122
:104600006846FCF71BFE684618F092FB2220FCF778
:1046100087FFD4ED007A0020B8EEE70AFCF724FF0C
:104620009D49684618F0C4FB00216846FCF706FE69
:10463000684618F07DFB9949684618F0B9FB0021DF
:104640006846FCF7FBFD684618F072FB2220FCF779
:1046500067FFD4ED047A0020B8EE670AFCF704FF88
:104660008D49684618F0A4FB00216846FCF7E6FD7A
:10467000684618F05DFB8A49684618F099FB0021EE
:104680006846FCF7DBFD684618F052FB2220FCF779
:1046900047FFD4ED087A0020B8EEE70AFCF7E4FE05
:1046A0007D49684618F084FB00216846FCF7C6FD8A
:1046B000684618F03DFB7B49684618F079FB0021FD
:1046C0006846FCF7BBFD684618F032FB2220FCF779
:1046D00027FFD4ED0C7A0020B8EEE70AFCF7C4FE01
:1046E0006D49684618F064FB00216846FCF7A6FD9A
:1046F000684618F01DFB6C49684618F059FB00210C
:104700006846FCF79BFD684618F012FB2220FCF778
:1047100007FFD4ED0D7A0020B8EEE70AFCF7A4FEFF
:104720005D49684618F044FB68460021FCF786FDA9
:10473000684618F0FDFAA36B012B02F0F082C2F07C
:104740005782022B7FF430AF5849684618F030FB8F
:1047500000216846FCF772FD684618F0E9FA22204D
:10476000FCF7DEFE5249684618F022FB002168463D
:10477000FCF764FD684618F0DBFA4749684618F014
:1047800017FB00216846FCF759FD684618F0D0FA7F
:104790004849684618F00CFB00216846FCF74EFDBE
:1047A000684618F0C5FA2220FCF7BAFED4ED037A69
:1047B0000020B8EE670AFCF757FE3749684618F044
:1047C000F7FA00216846FCF739FD684618F0B0FAA0
:1047D0003949684618F0ECFA00216846FCF72EFDCE
:1047E000684618F0A5FA2220FCF79AFED4ED077A65
:1047F0000020B8EE670AFCF737FE2749684618F034
:10480000D7FA00216846FCF719FD684618F090FABF
:104810002A49684618F0CCFA00216846FCF70EFDDC
:10482000684618F085FA2220FCF77AFED4ED0B7A60
:104830000020B8EEE70AFCF717FE1749684618F0A3
:10484000B7FA00216846FCF7F9FC684618F070FAE0
:104850001B49684618F0ACFA00216846FCF7EEFCEC
:10486000684618F065FA2220FCF75AFE94ED150A06
:104870000020FCF7F9FD0849684618F099FA002174
:104880006846FCF7DBFC684618F052FA04B070BDCD
:10489000583A02001013FF1F743402006C3A0200F1
:1048A000803A0200E43A0200F83A0200943A020028
:1048B0004C410200A83A0200BC3A0200D03A020081
:1048C0005C3B0200BA49BB4C684618F071FA002103
:1048D0006846FCF7B3FC684618F02AFA2220FCF779
:1048E0001FFED4ED017A0020B8EEE70AFCF7BCFD0C
:1048F000B149684618F05CFA00216846FCF79EFC56
:10490000684618F015FAAD49684618F051FA0021CA
:104910006846FCF793FC684618F00AFA2220FCF778
:10492000FFFDD4ED097A0020B8EEE70AFCF79CFD04
:10493000A149684618F03CFA00216846FCF77EFC65
:10494000684618F0F5F99E49684618F031FA0021DA
:104950006846FCF773FC684618F0EAF92220FCF779
:10496000DFFDD4ED057A0020B8EEE70AFCF77CFD08
:104970009149684618F01CFA68460021FCF75EFC75
:10498000684618F0D5F9256B012D01F04086022DFF
:1049900001F0B686002D7FF407AE8A49684618F00C
:1049A00007FA29466846FCF749FC684618F0C0F942
:1049B0002220FCF7B5FD8449684618F0F9F929462C
:1049C0006846FCF73BFC684618F0B2F97A4968463D
:1049D00018F0EEF929466846FCF730FC684618F0F6
:1049E000A7F97A49684618F0E3F929466846FCF7C2
:1049F00025FC684618F09CF92220FCF791FDD4EDC7
:104A0000027A2846B8EEE70AFCF72EFD6A496846A6
:104A100018F0CEF929466846FCF710FC684618F0F5
:104A200087F96B49684618F0C3F929466846FCF7D0
:104A300005FC684618F07CF92220FCF771FDD4EDE6
:104A40000A7A2846B8EEE70AFCF70EFD5A4968468E
:104A500018F0AEF929466846FCF7F0FB684618F0F6
:104A600067F95C49684618F0A3F929466846FCF7DF
:104A7000E5FB684618F05CF92220FCF751FD94ED47
:104A8000060A2846B8EEC00AFCF7EEFC4A4968461A
:104A900018F08EF968462946FCF7D0FB684618F0F6
:104AA00047F981E54C4C236B032B3FF67DADDFE8E6
:104AB00013F0FB06860611066C053D49474D684616
:104AC00018F076F900216846FCF7B8FB684618F044
:104AD0002FF92220FCF724FDD5ED017A0020B8EE55
:104AE000E70AFCF7C1FC3449684618F061F9002177
:104AF0006846FCF7A3FB684618F01AF92F49684688
:104B000018F056F900216846FCF798FB684618F043
:104B10000FF92220FCF704FDD5ED037A0020B8EE52
:104B2000670AFCF7A1FC2449684618F041F9002106
:104B30006846FCF783FB684618F0FAF82049684697
:104B400018F036F900216846FCF778FB684618F043
:104B5000EFF82220FCF7E4FCD5ED027A0020B8EE55
:104B6000E70AFCF781FC1449684618F021F9684609
:104B70000021FCF763FB684618F0DAF82B68013B6C
:104B80006C46042B3FF610ADDFE813F0BD070307BA
:104B9000AC079B078A07124C2368052B3FF604AD30
:104BA000DFE813F07E080E0B640ACD093609E8072A
:104BB000583A02003818FF1F743402006C3A0200A1
:104BC000803A0200943A020084400200A83A0200AF
:104BD000BC3A0200D03A0200EC13FF1FAC15FF1FD5
:104BE000D415FF1F9B499C4D684618F0E1F8002141
:104BF0006846FCF723FB684618F09AF82220FCF779
:104C00008FFCD5ED017A0020B8EEE70AFCF72CFC0A
:104C10009249684618F0CCF800216846FCF70EFB74
:104C2000684618F085F88E49684618F0C1F80021EA
:104C30006846FCF703FB684618F07AF82220FCF778
:104C40006FFCD5ED027A0020B8EE670AFCF70CFC89
:104C50008249684618F0ACF800216846FCF7EEFA85
:104C6000684618F065F87F49684618F0A1F80021F9
:104C70006846FCF7E3FA684618F05AF82220FCF779
:104C80004FFCD5ED097A0020B8EEE70AFCF7ECFB03
:104C90007249684618F08CF800216846FCF7CEFA95
:104CA000684618F045F816216F4817F025FA0023DA
:104CB000696B6E480A2217F0BFFE6C4817F0ACFE15
:104CC0006B6B012B6C4600F02F87C1F0F883302B03
:104CD00001F0F583312B00F0278765495E4E2046B1
:104CE00018F066F800212046FCF7A8FA204618F0D4
:104CF0001FF82220FCF714FC95ED0F0A0020FCF7AA
:104D0000B3FB5649204618F053F800212046FCF723
:104D100095FA204618F00CF85649204618F048F845
:104D200000212046FCF78AFA204618F001F82220DC
:104D3000FCF7F6FB95ED0E0A0020FCF795FB4749C2
:104D4000204618F035F800212046FCF777FA204677
:104D500017F0EEFF2B68012B01F0C686C1F04E86DE
:104D6000022B7FF421AC4449204618F021F80021A1
:104D70002046FCF763FA204617F0DAFF2220FCF702
:104D8000CFFB3E49204618F013F800212046FCF7DF
:104D900055FA204617F0CCFF3049204618F008F8A5
:104DA00000212046FCF74AFA204617F0C1FF34499B
:104DB000204617F0FDFF00212046FCF73FFA204671
:104DC00017F0B6FF2220FCF7ABFBD6ED077A0020E8
:104DD000B8EEE70AFCF748FB2049204617F0E8FF49
:104DE00000212046FCF72AFA204617F0A1FF2549AA
:104DF000204617F0DDFF00212046FCF71FFA204671
:104E000017F096FF2220FCF78BFBD6ED087A0020E6
:104E1000B8EE670AFCF728FB1049204617F0C8FFD8
:104E200000212046FCF70AFA204617F081FF1649B8
:104E3000204617F0BDFF00212046FCF7FFF9204671
:104E400017F076FF2220FCF76BFB96ED0C0AFFF7BC
:104E50009BBB00BF583A0200AC13FF1F7434020022
:104E60006C3A0200803A0200343B02002408FF1F23
:104E7000F83A02005C3B0200943A02004C41020006
:104E8000A83A0200BC3A0200D03A02007449754DBB
:104E9000684617F08DFF00216846FCF7CFF9684699
:104EA00017F046FF2220FCF73BFBD5ED007A0020EF
:104EB000B8EEE70AFCF7D8FA6B49684617F078FFB6
:104EC00000216846FCF7BAF9684617F031FF6749D8
:104ED000684617F06DFF00216846FCF7AFF9684699
:104EE00017F026FF2220FCF71BFBD5ED087A0020E7
:104EF000B8EE670AFCF7B8FA5B49684617F058FF46
:104F000000216846FCF79AF9684617F011FF5849E6
:104F1000684617F04DFF00216846FCF78FF9684698
:104F200017F006FF2220FCF7FBFAD5ED047A0020EB
:104F3000B8EEE70AFCF798FA4B49684617F038FFD5
:104F400068460021FCF77AF9684617F0F1FEEE6C2E
:104F50006C46002E01F03182012E00F09582AB6C80
:104F6000404D012B01F0D484C1F04384022B7FF427
:104F70001BAB4049204617F01BFF00212046FCF7E1
:104F80005DF9204617F0D4FE2220FCF7C9FA3A4911
:104F9000204617F00DFF00212046FCF74FF9204670
:104FA00017F0C6FE3049204617F002FF00212046C8
:104FB000FCF744F9204617F0BBFE3049204617F0B5
:104FC000F7FE00212046FCF739F9204617F0B0FE25
:104FD0002220FCF7A5FAD5ED037A0020B8EEE70A07
:104FE000FCF742FA2049204617F0E2FE0021204655
:104FF000FCF724F9204617F09BFE2149204617F0C4
:10500000D7FE00212046FCF719F9204617F090FE44
:105010002220FCF785FAD5ED0B7A0020B8EE670A5E
:10502000FCF722FA1049204617F0C2FE0021204664
:10503000FCF704F9204617F07BFE1249204617F0D2
:10504000B7FE00212046FCF7F9F8204617F070FE65
:105050002220FCF765FA95ED070AFFF795BA00BF25
:10506000583A0200A414FF1F743402006C3A020084
:10507000803A0200943A02004C410200A83A020031
:10508000BC3A0200D03A0200B549B64D684617F066
:105090008FFE00216846FCF7D1F8684617F048FEFD
:1050A0002220FCF73DFAD5ED0C7A0020B8EEE70A95
:1050B000FCF7DAF9AC49684617F07AFE0021684639
:1050C000FCF7BCF8684617F033FEA849684617F0AD
:1050D0006FFE00216846FCF7B1F8684617F028FE1D
:1050E0002220FCF71DFAD5ED147A0020B8EE670AED
:1050F000FCF7BAF99C49684617F05AFE0021684649
:10510000FCF79CF8684617F013FE9949684617F0BB
:105110004FFE00216846FCF791F8684617F008FE3C
:105120002220FCF7FDF9D5ED107A0020B8EEE70A51
:10513000FCF79AF98C49684617F03AFE0021684658
:10514000FCF77CF8684617F0F3FD8A49684617F0CB
:105150002FFE00216846FCF771F8684617F0E8FD5D
:105160002220FCF7DDF9D5ED047A0020B8EEE70A3D
:10517000FCF77AF97C49684617F01AFE0021684668
:10518000FCF75CF8684617F0D3FD7B49684617F0DA
:105190000FFE00216846FCF751F8684617F0C8FD7D
:1051A0002220FCF7BDF995ED030A0020FCF75CF91D
:1051B0006D49684617F0FCFD00216846FCF73EF893
:1051C000684617F0B5FD6D49684617F0F1FD0021FE
:1051D0006846FCF733F8684617F0AAFD2220FCF772
:1051E0009FF995ED060A0020FCF73EF95E496846F6
:1051F00017F0DEFD68460021FCF720F8684617F03E
:1052000097FD6E696C46002E01F0CA81012E23D1F4
:105210005B49684617F0CCFD00216846FCF70EF8A4
:10522000684617F085FD2220FCF77AF95549684653
:1052300017F0BEFD00216846FCF700F8684617F03D
:1052400077FD4949684617F0B3FD68460021FBF732
:10525000F5FF684617F06CFDAB68023B052B3FF687
:1052600015A9DFE813F04408880877086608550890
:1052700099084549204617F09BFD00212046FBF781
:10528000DDFF204617F054FD2220FCF749F93F4985
:10529000204617F08DFD00212046FBF7CFFF20466A
:1052A00017F046FD3049204617F082FD00212046C8
:1052B000FBF7C4FF204617F03BFD3549204617F0A9
:1052C00077FD00212046FBF7B9FF204617F030FD9F
:1052D0002220FCF725F9D5ED0D7A0020B8EEE70A7B
:1052E000FCF7C2F82049204617F062FD0021204655
:1052F000FBF7A4FF204617F01BFD2649204617F0B8
:1053000057FD00212046FBF799FF204617F010FDBE
:105310002220FCF705F9D5ED157A0020B8EE670AD2
:10532000FCF7A2F81049204617F042FD0021204664
:10533000FBF784FF204617F0FBFC1749204617F0C7
:1053400037FD00212046FBF779FF204617F0F0FCDF
:105350002220FCF7E5F895ED110AFFF715B900BF1B
:10536000583A02003814FF1F743402006C3A0200ED
:10537000803A0200E43A0200F83A02005C3B020084
:10538000783B0200EC3D0200943A020084400200A7
:10539000A83A0200BC3A0200D03A0200BE492046B8
:1053A00017F006FD00212046FBF748FF204617F0C6
:1053B000BFFC2220FCF7B4F8B849204617F0F8FCEF
:1053C00000212046FBF73AFF204617F0B1FCB44914
:1053D000204617F0EDFC00212046FBF72FFF20466A
:1053E00017F0A6FCAF49204617F0E2FC002120464A
:1053F000FBF724FF204617F09BFC2220FCF790F8D7
:10540000D5ED0E7A0020B8EEE70AFCF72DF8A44996
:10541000204617F0CDFC00212046FBF70FFF204669
:1054200017F086FCA049204617F0C2FC0021204658
:10543000FBF704FF204617F07BFC2220FCF770F8F6
:10544000D5ED167A0020B8EE670AFCF70DF89449FE
:10545000204617F0ADFC00212046FBF7EFFE20466A
:1054600017F066FC9149204617F0A2FC0021204667
:10547000FBF7E4FE204617F05BFC2220FCF750F817
:1054800095ED120AFFF780B88949684617F090FC3D
:1054900000216846FBF7D2FE684617F049FC22203F
:1054A000FCF73EF88349684617F082FC0021684605
:1054B000FBF7C4FE684617F03BFC7949684617F0D5
:1054C00077FC00216846FBF7B9FE684617F030FC10
:1054D0007949684617F06CFC00216846FBF7AEFE80
:1054E000684617F025FC2220FCF71AF8D5ED0C7A57
:1054F0000020B8EEE70AFBF7B7FF6949684617F0E6
:1055000057FC00216846FBF799FE684617F010FC2F
:105510006A49684617F04CFC00216846FBF78EFE8E
:10552000684617F005FC2220FBF7FAFF95ED0F0AFD
:105530000020FBF799FF5A49684617F039FC002113
:105540006846FBF77BFE684617F0F2FB5C4968464D
:1055500017F02EFC00216846FBF770FE684617F036
:10556000E7FB2220FBF7DCFF95ED0E0A0020FBF79E
:105570007BFF4B49684617F01BFC68460021FBF790
:105580005DFE684617F0D4FBE9E44349684617F02E
:105590000FFC00216846FBF751FE684617F0C8FB78
:1055A0002220FBF7BDFF4749684617F001FC0021A8
:1055B0006846FBF743FE684617F0BAFB3849684671
:1055C00017F0F6FB00216846FBF738FE684617F037
:1055D000AFFB3D49684617F0EBFB00216846FBF73F
:1055E0002DFE684617F0A4FB2220FBF799FFD4EDAF
:1055F000017A0020B8EEE70AFBF736FF2849684633
:1056000017F0D6FB00216846FBF718FE684617F036
:105610008FFB2E49684617F0CBFB00216846FBF74D
:105620000DFE684617F084FB2220FBF779FFD4EDCE
:10563000097A0020B8EEE70AFBF716FF184968461A
:1056400017F0B6FB00216846FBF7F8FD684617F037
:105650006FFB1F49684617F0ABFB00216846FBF75C
:10566000EDFD684617F064FB2220FBF759FF94ED2F
:10567000050AB8EEC00A0020FBF7F6FE68460849A6
:1056800017F096FB68460021FBF7D8FD684617F037
:105690004FFB04B070BD00BF943A0200B06102003D
:1056A00074340200A83A0200BC3A0200D03A020068
:1056B000E43A0200EC3D0200F83A02005C3B0200D2
:1056C000783B020018400200583A02006C3A02008F
:1056D000803A0200E549684617F06AFB00216846F7
:1056E000FBF7ACFD684617F023FB2220FBF718FF01
:1056F000DF49684617F05CFB00216846FBF79EFD1A
:10570000684617F015FBDB49684617F051FB00218E
:105710006846FBF793FD684617F00AFBD6496846D2
:1057200017F046FB00216846FBF788FD684617F036
:10573000FFFA2220FBF7F4FED4ED047A0020B8EE45
:10574000E70AFBF791FECB49684617F031FB0021D1
:105750006846FBF773FD684617F0EAFAC7496846E2
:1057600017F026FB00216846FBF768FD684617F036
:10577000DFFA2220FBF7D4FED4ED007A0020B8EE49
:10578000E70AFBF771FEBB49684617F011FB0021E1
:105790006846FBF753FD684617F0CAFAB8496846F1
:1057A00017F006FB00216846FBF748FD684617F036
:1057B000BFFA2220FBF7B4FE94ED080A59E7AB4983
:1057C000684617F0F5FA00216846FBF737FD684692
:1057D00017F0AEFA2220FBF7A3FEAA49684617F09D
:1057E000E7FA00216846FBF729FD684617F0A0FAA2
:1057F000A049684617F0DCFA00216846FBF71EFD59
:10580000684617F095FA9C49684617F0D1FA0021CE
:105810006846FBF713FD684617F08AFA2220FBF76B
:105820007FFED4ED037A0020B8EEE70AFBF71CFEFA
:105830009049684617F0BCFA00216846FBF7FEFC69
:10584000684617F075FA8D49684617F0B1FA0021DD
:105850006846FBF7F3FC684617F06AFA2220FBF76C
:105860005FFED4ED0B7A0020B8EEE70AFBF7FCFDF3
:105870008049684617F09CFA00216846FBF7DEFC79
:10588000684617F055FA7E49684617F091FA0021EC
:105890006846FBF7D3FC684617F04AFA2220FBF76C
:1058A0003FFE94ED070AE4E67049684617F080FA77
:1058B00000216846FBF7C2FC684617F039FA22203F
:1058C000FBF72EFE7049684617F072FA0021684611
:1058D000FBF7B4FC684617F02BFA6649684617F0E8
:1058E00067FA00216846FBF7A9FC684617F020FA22
:1058F0006149684617F05CFA00216846FBF79EFC98
:10590000684617F015FA2220FBF70AFED4ED027A5A
:105910000020B8EEE70AFBF7A7FD5649684617F0E6
:1059200047FA00216846FBF789FC684617F000FA41
:105930005249684617F03CFA00216846FBF77EFCA6
:10594000684617F0F5F92220FBF7EAFDD4ED0A7A54
:105950000020B8EEE70AFBF787FD4649684617F0D6
:1059600027FA00216846FBF769FC684617F0E0F962
:105970004349684617F01CFA00216846FBF75EFCB5
:10598000684617F0D5F92220FBF7CAFD94ED060A08
:105990006FE636493D4D684617F00AFA0021684621
:1059A000FBF74CFC684617F0C3F92220FBF7B8FD63
:1059B0003749204617F0FCF900212046FBF73EFC52
:1059C000204617F0B5F92B49204617F0F1F90021D0
:1059D0002046FBF733FC204617F0AAF92D49204654
:1059E00017F0E6F900212046FBF728FC204617F0C7
:1059F0009FF92220FBF794FDD5E9040119F0B6FBCD
:105A000000EE100A0020FBF72FFD1A49204617F080
:105A1000CFF900212046FBF711FC204617F088F94A
:105A20006B68012B07D0C0F0E185302B00F0DE85DC
:105A3000312B7EF4B9AD1849204617F0B9F9002191
:105A40002046FBF7FBFB204617F072F92220FBF7FC
:105A500067FD1249204617F0ABF920460021FBF7FD
:105A6000EDFB204617F064F9FEF793BD943A02006F
:105A70004C41020074340200A83A0200BC3A020011
:105A8000D03A0200B0610200844002007016FF1F8D
:105A9000483F0200E43A0200F83A0200143B0200D8
:105AA000CA49CB4D684617F083F900216846FBF7D9
:105AB000C5FB684617F03CF92220FBF731FDC549CC
:105AC00077E7C249C44D684617F072F9002168466D
:105AD000FBF7B4FB684617F02BF92220FBF720FDFB
