:1000000000000320D101000025EF0100DDEE01001A
:10001000DDEE0100DDEE0100DDEE0100DDEE0100B0
:10002000DDEE0100DDEE0100DDEE010025EF010057
:1000300025EF0100DDEE0100B9190200BD1A020032
:1000400025EF010025EF010025EF010025EF01005C
:1000500025EF010025EF010025EF010025EF01004C
:1000600025EF010025EF010025EF010025EF01003C
:1000700025EF010025EF010025EF010025EF01002C
:1000800025EF010025EF010025EF010025EF01001C
:1000900025EF010025EF010025EF010025EF01000C
:1000A00025EF010025EF010025EF010025EF0100FC
:1000B00025EF010025EF010025EF010035FA0100D1
:1000C00025EF0100A501020025EF0100390702001C
:1000D00025EF01005D28020025EF010025EF01005A
:1000E00025EF010025EF010001E7010025EF0100E8
:1000F00025EF010025EF010025EF010025EF0100AC
:100100002D1F0200411F0200551F0200691F02003F
:1001100025EF0100C509020025EF010025EF0100D0
:1001200025EF010025EF010025EF010025EF01007B
:1001300025EF010025EF010025EF010025EF01006B
:1001400025EF010025EF01005529020025EF0100F0
:1001500025EF010025EF010025EF010025EF01004B
:1001600025EF010025EF010025EF010025EF01003B
:1001700025EF010025EF010025EF010025EF01002B
:1001800025EF010025EF010025EF010025EF01001B
:1001900025EF010025EF01004D2A020025EF0100A7
:1001A00025EF010025EF010025EF010025EF0100FB
:1001B00025EF010025EF010025EF010025EF0100EB
:1001C00025EF010025EF010025EF010025EF0100DB
:1001D0005C4B4CF2205210B51A804DF628121A8052
:1001E00000BF00BF1EF0A2FE574B4FF030621A60F6
:1001F000564A9A60564ADA60564B4FF470021A60BB
:10020000554B564A1A60564B1A78110703D51A787F
:1002100042F008021A70534B5349AA221A70534AEB
:10022000534B8B4204D252F8040F43F8040BF8E707
:10023000504B514900228B4202D243F8042BFAE77B
:100240004E494F4A002352F8230041F8230001335E
:10025000742BF8D14B4B4C4A802103F8011B93427D
:10026000FBD14A4B454A1A60494B8A221A70A3F5C2
:10027000805324225A70A0221A709A799207FCD5D2
:100280009A79D406FCD4434A937903F00C03082BE3
:10029000FAD1414B60221A7002331A78802AFCD1BD
:1002A0003C4B01221A715D225A719A799006FCD555
:1002B0009979384A4906FBD5384B394919600021EC
:1002C000596020231370937903F00C030C2BFAD19F
:1002D000344B354A1A60354A354C136813F4807331
:1002E00003D123604FF4A8531360324B324A1A6093
:1002F00000225A60072243F8042C304AC3F80C2D20
:1003000062B61EF065FF2368DA0705D52C481EF09B
:10031000E1FE2C4B2C4A1A602C4B1B785B0609D54E
:10032000284C294B22689A4204D125481EF0D2FE5F
:100330000023236024F086FD1EF0FEFD21F01EFE4A
:10034000FEE700BF0E20054030800440823F0400DD
:100350000100002B88ED00E0002008E0030000858C
:1003600002D0074000E007408812FF1F0CC70200C0
:100370003007FF1F8812FF1F8420FF1F0002FF1F8E
:100380000000000000E400E064E400E008ED00E0AC
:10039000005006400040064001E007404480044011
:1003A0000000060204800440C010070010D0034083
:1003B00014D0034014E000E01FBF02000000202022
:1003C000334001611CE00340A5C3945A00F007408C
:1003D000FFFFFFFFFFFFFFFFFFFFFFFFFFFFFFFF2D
:1003E000FFFFFFFFFFFFFFFFFFFFFFFFFFFFFFFF1D
:1003F000FFFFFFFFFFFFFFFFFFFFFFFFFFFFFFFF0D
:10040000FFFFFFFFFFFFFFFFFFFFFFFFDEF9FFFF23
:1004100010B5054C237833B9044B13B10448AFF33E
:1004200000800123237010BD8812FF1F0000000010
:1004300008C70200084B10B51BB108490848AFF3C4
:1004400000800848036803B910BD074B002BFBD0A0
:10045000BDE81040184700BF000000008C12FF1FCD
:1004600008C702008812FF1F0000000000690B6926
:100470009842D4BF00200120704700BF80698B697B
:100480000028B8BF4042002BB8BF5B429842D4BF9F
:1004900000200120704700BFF0B586460120DEF83D
:1004A0005870DEF83030BA6A106079683A680A44E9
:1004B0007A600EF1300493B15A69002A08DB9A6A17
:1004C00010605E6819683D695A6931445960521B71
:1004D00019690A445A6154F8043F002BECD1DEF844
:1004E0002430144ADEF81840DEF86C000021116058
:1004F000DB00516803F1804303F5603321440D2490
:1005000019611460DA68502122F08002DA60D96043
:1005100000B1F0BD7A68FB689A4200D0F0BDDEF809
:100520005C3001228EF82820002BF7D0BDE8F04087
:10053000184700BF00800340C36A00F12C0233B1AA
:100540000120D96A52F8043F0860002BF9D17047A6
:100550000C4BD3F8902072B9596A1A6AD3ED0A7A13
:1005600002FB01F207EE102A60EE277AB8EE477A16
:1005700087EE870A7047D3F89810D3F89420D3ED0C
:10058000277AEDE7EC15FF1F836D012280F890209C
:100590005B6872B6DFED0B6AD0ED207A90ED1F7AC2
:1005A00067EEA67AF4EEC77AC0ED1E7AD0ED227A15
:1005B000F1EE10FAD8BFF1EE677AC0ED237A62B699
:1005C000704700BF00000000036A8B4210B523D0C3
:1005D000C369994200D010BD8369002BFBD072B66D
:1005E000194AC369846900211160DB00516803F175
:1005F000804303F5603321440D2419611460DA68E7
:10060000502122F08002DA60D96062B60069036886
:10061000BDE810405B6818470446006903689B68A2
:10062000984794F82430002BD5D004F1080021F02D
:100630005BFC0023E06963601EF04AF8206ABDE8B5
:1006400010401EF045B800BF008003402DE9F04186
:100650008568002D31D0816D836F04464868D4F8D9
:10066000AC101B1A002BB8BF5B428B423ADBD4F8AC
:10067000B0108B422A4608DBE16F8B4265DB936842
:1006800023F002039360BDE8F081D4F888100029BC
:10069000F5D02B683B4A93421ED96A683A48B0FBB2
:1006A000F1F19B1A99420AD3CB1A002401200322AC
:1006B000AC60E8602B60AA602960BDE8F0816069E9
:1006C0000368002601240322AE601B68EC602960E9
:1006D000AA60BDE8F04118472B4BB3FBF1F129604C
:1006E000BDE8F081D4E92401D4F8A82002FB03F38B
:1006F000C61841F100073046394624F08BF907EE61
:10070000900AB1EEE70AB4EE400AF1EE10FA2ED1EB
:10071000FDEEC07A2A4617EE903A17EE901ADBB13A
:10072000002DB6D11949184D0E68B5FBF3F51EB171
:1007300002210120B047A26800200121032390601C
:10074000D16015609360BDE8F081CB1AD4F8A82081
:10075000D4E92601013BC9E7002D90D10B4B1B6862
:10076000002B8CD0022101209847A26887E73946E8
:10077000304624F04FF900EE100A22F081FBA56804
:10078000C6E700BF7FA9030000879303DC1BFF1FA0
:10079000F8B50446D0ED1F7A94ED1E7A806DF4EE24
:1007A000477AF1EE10FA436838D1FDEEC77A17EEBA
:1007B000905A94F890300BB1002D76D08368AB42FC
:1007C0002BD0002D0368B4BF4FF0FF3201229A42B4
:1007D00015D004F12801012608E013685B42012BC3
:1007E00013600BBF126B536B13601E6051F8042F24
:1007F000002AF2D1636FC3EB03139B003FD185EA5C
:10080000E572A2EBE572A368FAB9002B7AD09A6878
:1008100022F002029A608560F8BDF8BDD4ED236A2B
:10082000F5EEC06A77EEA67AF1EE10FAB4EEE77A4A
:100830002FDDF1EE10FAD8BFF0EE477ABDEEE77A81
:10084000C4ED1F7A17EE105AB3E7002B47D0196892
:10085000314EB14223D95E68304FB7FBF2F2891BAB
:100860008A4232D26069002601689E600127032611
:10087000DF6009681A609E608847A06DCBE7013B86
:10088000FDD185EAE572A2EBE572A368002ABCD02F
:10089000DBE7F1EE10FA58BFF0EE477ACEE71F49DA
:1008A000B1FBF2F21A608560F8BD04F10C0021F092
:1008B0001BFB206AA5601DF00BFF606A1DF008FF9E
:1008C000A36D9D6084F89050F8BD511A0027012651
:1008D00003249F60DE6019609C601A609BE71049EA
:1008E0000E4E0F68B6FBF2F627B101200221B84781
:1008F000A368A06D0024012103229C60D9601E60C2
:100900009A6088E7064B1B68002B80D001200221EB
:100910009847A368A06D7AE77FA903000087930337
:10092000DC1BFF1F70B5044608460D4625F008FB8A
:1009300023680246294620465B68BDE87040184798
:1009400038B5044608460D4625F0FAFA23680246F3
:1009500029465B68204698470546204621F056FB0D
:10096000284438BD38B5054621F0A0FB044628468A
:1009700021F04CFB204438BD38B5054621F096FBEC
:100980000446284621F042FB204438BD38B50A22EF
:100990000023054621F04AFB0446284621F036FB99
:1009A000204438BD38B5C9B2054621F089FB04465C
:1009B000284621F02BFB204438BD00BF10B509218B
:1009C0002C4820F093FE2C4821F020FBFE212B48E0
:1009D0001BF04EFC00282FD10A2128481BF048FCB0
:1009E00098B9182125481BF043FC00283AD10F2163
:1009F00022481BF03DFC50BB09212048204C1BF035
:100A000037FC002832D1206009E01D4C1D480A2324
:100A10001946236020F06AFE174821F0F7FA0C21EE
:100A2000194820F063FE2168134821F03FFB12486B
:100A3000BDE8104021F0EABA114C14480123092105
:100A4000236020F053FE0C4821F0E0FAE7E70C4C5D
:100A50000F480F230A21236020F048FE064821F0AA
:100A6000D5FADCE7064C0B481823F3E70A480923BC
:100A7000CEE700BF088602002408FF1F6019FF1F91
:100A80006C17FF1F208602005086020014860200A9
:100A9000388602002C8602004486020070B50D469E
:100AA00084B00A2106464148144620F01FFE29461C
:100AB0003F4821F0FBFA3E4821F0A8FABCB13D4B7B
:100AC000D3F8A420A2F10102B2FA82F252093A4C00
:100AD00023680193019923680093009B5B1A092BFB
:100AE000F9D9032E2FD8DFE806F0241A0F04224686
:100AF000EDE7002D51D12AB92E4B042093F8741044
:100B00001EF0FAFA04B070BD002D3DD1002AF9D1D3
:100B1000284B112093F877101EF0EEFAF2E755BB40
:100B2000002AEFD1234B162093F876101EF0E4FA3A
:100B3000E8E7BDB9002AE5D11E4B0E2093F87510E9
:100B40001EF0DAFADEE7002DDCD022681B4B0392A0
:100B500003991A6823680293029B5B1A9A42F9D898
:100B600004B070BD134B93F875100E2081F0010195
:100B70001EF0C2FAE9E70F4B93F87610162081F0C9
:100B800001011EF0B9FAE0E70A4B93F87710112043
:100B900081F001011EF0B0FAD7E7064B93F874100C
:100BA000042081F001011EF0A7FACEE76086020062
:100BB0002408FF1FEC15FF1F141CFF1F5807FF1F01
:100BC000F0B52DED028B85B0044601AE0DF10F0797
:100BD0000FE0FF2D66D001A8357025F0B1F9014670
:100BE00001A820F083FD334821F010FA0136BE42FF
:100BF00029D0236820465B6998470021C5B22E485A
:100C000020F074FD2B4821F001FA33212B4820F00D
:100C10006DFD284620F0EEFD0221294820F066FDFA
:100C20002946244821F042FA224821F0EFF9042D08
:100C3000CFD11921234820F059FD01361D4821F05C
:100C4000E5F9BE42D5D101A824F0ECF804211E48F4
:100C5000B0EE408AF0EE608A20F048FD01A825F051
:100C60006FF9014601A820F041FD124821F0CEF9AC
:100C70000721164820F03AFDB0EE480AF0EE680A67
:100C800004210C4821F01CFA0A4821F0BFF9B0EE0B
:100C9000480AF0EE680A05B0BDEC028BF0BD23688F
:100CA0005B699847236820461B69984700282046BF
:100CB000F5DC9BE72408FF1F54A002006C860200AD
:100CC000D4B20200A0860200BC860200C4860200E4
:100CD00003280FD8DFE800F00B0805020A48FFF7E9
:100CE0006FBF0A48FFF76CBF0948FFF769BF0948A3
:100CF000FFF766BF9FED020B704700BFAFF30080A8
:100D0000000000000000F0BF0408FF1FF407FF1FF1
:100D1000E407FF1F2408FF1F012828D0022813D052
:100D200010B19FED140A7047134A1169D368D2EDD0
:100D3000056A03FB01F307EE103A60EE267AB8EE7F
:100D4000477A87EE870A70470B4B5A6B012AE8D81F
:100D5000D96B9A6BD3ED116A02FB01F207EE102AF0
:100D600060EE267AB8EE477A87EE870A7047FFF77B
:100D7000EFBB00BF00000000EC15FF1F38B5434D6E
:100D80004348EA6BAB6B95ED107AD5ED127A414C86
:100D900003FB02F32DED048B08EE103AB8EE488AFF
:100DA000DFED3D8A28EE078A0D2167EEA88AF0EE76
:100DB000409A20F09BFC18EE100A23F0BFF941EC9A
:100DC000100B0221204621F07BF9204621F01EF96C
:100DD0001121324820F08AFC286C23F0AFF941EC55
:100DE000100B0221204621F06BF9204621F00EF96C
:100DF0000F212B4820F07AFC89EEA89A18EE900A71
:100E000023F09CF941EC100B0221204621F058F907
:100E1000204621F0FBF81021224820F067FC19EE53
:100E2000900A23F08BF941EC100B0221204621F0AF
:100E300047F9204621F0EAF807211B4820F056FC2C
:100E400019EE100A23F07AF941EC100B022120462A
:100E500021F036F928EE098A204621F0D7F808213A
:100E6000124820F043FC18EE100A23F067F941EC19
:100E7000100B0221204621F023F9204621F0C6F86C
:100E8000B0EE480ABDEC048B38BD00BFEC15FF1F67
:100E9000FC8602002408FF1FDB0FC9400C870200FC
:100EA0002087020030870200448702004C8702003E
:100EB000144A1548D2ED117AD16B936B80EE270A54
:100EC00010B503FB01F31921104C2DED028B08EE38
:100ED000103AB8EE488A28EE008A20F007FC18EE97
:100EE000100A23F02BF941EC100B0221204621F0CF
:100EF000E7F8204621F08AF8B0EE480ABDEC028BF4
:100F000010BD00BFEC15FF1F588702002408FF1F0B
:100F10000128F0EE407A1CD0022813D010B19FEDCA
:100F2000160A7047154AD2ED056A1169D36887EE33
:100F3000A67A03FB01F300EE103AB8EE400A20EE69
:100F4000070A70470D4B5B6B9BB1012BE7D1FFF795
:100F5000AFBF0A4AD2F8903023B9D2ED0A6A516A7B
:100F6000136AE4E7D2ED276AD2F89810D2F89430E9
:100F7000DDE7FFF703BF00BF00000000EC15FF1F17
:100F800038B52F4D2F4C95ED007AD4ED007AB5EEA3
:100F9000C07AF1EE10FA48BFB1EE477AF5EEC07AAA
:100FA00048BF85ED007AF1EE10FA44BFF1EE677AA2
:100FB000C4ED007A67EEA77A2DED048BE7EE077A91
:100FC00008EE100A17EE900A08EE901A23F0B6F811
:100FD00041EC100B21F094FE51EC100B23F0FAFBC6
:100FE00094ED006AD5ED006A07EE900A87EE867AE6
:100FF00087EEA69AF8EEE88AB8EEC88A67EE287AF5
:1010000017EE900A23F09AF841EC100B21F0D8FD6E
:1010100051EC100B23F0DEFB68EE097A206017EE2E
:10102000900A23F08BF841EC100B21F0C9FD51EC34
:10103000100B23F0CFFBBDEC048B286038BD00BF44
:101040007014FF1F6814FF1FBA4AF8B592E80A002F
:1010500003FB01F307EE903A92ED027AB64CF8EEFC
:10106000677A2DED028BB0EE408AF0EE608A67EE73
:10107000877A17EE900A23F061F841EC100B21F00B
:101080009FFD51EC100B23F05DFB09210546AB4899
:1010900020F02CFB2168AA4821F008F8A84820F08D
:1010A000B5FFB0EE480AF0EE680A0221A44821F02C
:1010B00007F8A34820F0AAFF2368013B042B00F2A5
:1010C000D180DFE803F045688BAD03009D4C2368B9
:1010D000022B84ED048B284600F0C78023F01CF817
:1010E00053EC182B23F0A8F923F02CFBA060162159
:1010F000954820F0FBFA2946914820F0D7FF1021AF
:10110000924820F0F3FAB0EE480AF0EE680A0221A5
:101110008B4820F0D5FF03218D4820F0E7FA062107
:101120008C4820F0E3FA06218B4820F0DFFAA16812
:10113000834820F0BBFF824820F068FF874B81483E
:101140001968BDEC028B1822BDE8F8401DF034BED2
:10115000834C2368022B84ED048B284600F0D58055
:1011600022F0DAFF53EC182B23F066F923F0EAFAA9
:10117000A06006217B4820F0B9FA0621764820F0CD
:10118000B5FAA1686E4820F091FF6D4820F03EFF4F
:10119000754B7348D4E7754C2368022B84ED048BA0
:1011A000284600F09E8022F0B7FF53EC182B23F066
:1011B00043F923F0C7FAA06006216D4820F096FAA3
:1011C0000621654820F092FAA1685D4820F06EFF84
:1011D0005B4820F01BFF674B6448B1E7664C23680F
:1011E000022B84ED048B284667D022F095FF53EC48
:1011F000182B23F021F923F0A5FAA06006215F48FF
:1012000020F074FA0621544820F070FAA1684C4886
:1012100020F04CFF4A4820F0F9FE594B56488FE722
:10122000584C2368022B84ED048B284631D022F0E1
:1012300073FF53EC182B23F0FFF823F083FAA06020
:101240000621514820F052FA0621434820F04EFA78
:10125000A1683B4820F02AFF394820F0D7FE4B4BCD
:1012600048486DE7BDEC028BF8BD22F055FF002227
:1012700006460F46464B51EC180B23F0DDF80246AC
:101280000B463046394622F0ADFF23F05BFAA060F2
:101290002DE722F041FF002206460F463C4B51EC61
:1012A000180B23F0C9F802460B463046394622F0A7
:1012B00099FF23F047FAA060C2E722F02DFF002239
:1012C00006460F46324B51EC180B23F0B5F8024698
:1012D0000B463046394622F085FF23F033FAA060F2
:1012E0008CE722F019FF002206460F46284B51ECEE
:1012F000180B23F0A1F802460B463046394622F07F
:1013000071FF23F01FFAA06056E722F005FF0022CC
:1013100006460F461E4B51EC180B23F08DF8024683
:101320000B463046394622F05DFF23F00BFAA060F1
:101330001FE700BFEC15FF1F7415FF1F7487020025
:101340002408FF1F5017FF1FA8870200C087020054
:1013500070B20200D4870200888702005C07FF1F7A
:10136000F016FF1F808702005007FF1F0817FF1F9E
:10137000908702005407FF1F2017FF1F9887020065
:101380006807FF1F3817FF1FA08702007807FF1F9D
:1013900000807640F8B51D212DED028B914D924CC9
:1013A000924E08EE100A924820F0A0F9914820F0E1
:1013B0002DFE95E8090003FB00F307EE903A95ED4A
:1013C000027AD4ED036A8C4A8C49F8EE677AB8EE5B
:1013D000C88A67EE877A002387EEA67A0B601360CF
:1013E000C7EE087A17EE900A22F0A8FE41EC100B27
:1013F00021F0E6FB51EC100B23F0A4F927683060D4
:10140000012F00F0B98065D3022F41D07C4F7D4879
:10141000152120F06BF93168764820F047FE7548B9
:1014200020F0F4FD2421784820F060F9E06822F0F3
:1014300085FE41EC100B02216E4820F041FE6D4804
:1014400020F0E4FD2921714820F050F9A06922F034
:1014500075FE41EC100B0221664820F031FE654814
:1014600020F0D4FD14216A4820F040F93968614821
:1014700020F01CFE5F4820F0C9FD1421654820F0D3
:1014800035F9BDEC028B5B48BDE8F84020F0BEBDED
:101490002B21614894ED068A20F028F9A06922F0FA
:1014A0004DFE41EC100B3946524820F009FE5148E0
:1014B00020F0ACFD6B6B002B00F08980012BA5D1D7
:1014C000B0EE480AFFF7F4FC4D4FBDEEC00A87EDC1
:1014D000000A9CE794ED067AD5ED057A484F87EE31
:1014E000278AD5ED047A95ED037AF8EE677AB8EE9F
:1014F000477A67EE887A67EE877A17EE900A22F0CD
:101500001DFE41EC100B21F05BFB51EC100B23F0A6
:1015100019F918213860414820F0E8F8A06922F054
:101520000DFE41EC100B0221324820F0C9FD31487C
:1015300020F06CFD24213A4820F0D8F8686922F0A8
:10154000FDFD41EC100B02212A4820F0B9FD29488D
:1015500020F05CFD1121334820F0C8F818EE100A85
:1015600022F0ECFD41EC100B0221224820F0A8FDF6
:10157000204820F04BFD4AE7D5F89030D4ED065ACC
:10158000F3B195ED276A95ED267AD5ED257A1C4FB6
:10159000C5EE866AB8EE477AF8EE677A26EE877A65
:1015A00067EE277A17EE900A22F0C8FD41EC100B87
:1015B00021F006FB51EC100B23F0C4F8386026E74D
:1015C00095ED0A6A95ED097AD5ED087ADFE7B0EE78
:1015D000480AFFF7D3FB0A4FBDEEC00A87ED000AA9
:1015E00015E700BFEC15FF1F0814FF1F8415FF1F30
:1015F000DC8702002408FF1FB412FF1F6418FF1FBE
:101600001C13FF1F8088020098880200C088020017
:10161000EC8802000489020054880200FC87020062
:1016200018880200408802000C4B1B68032B13D85B
:10163000DFE803F00E0A06020146094820F0C0BCAC
:101640000146084820F0BCBC0146074820F0B8BC61
:101650000146064820F0B4BC704700BF4807FF1F92
:101660000408FF1FF407FF1FE407FF1F2408FF1FE4
:10167000F0B585B06C496D4C6D4E6E4F684620F0EC
:1016800093FE00216846FFF7CFFF684620F04CFE2E
:101690006949684620F088FE00216846FFF7C4FFCC
:1016A000684620F041FE6549684620F07DFE002135
:1016B0006846FFF7B9FF684620F036FE5E49684687
:1016C00020F072FE00216846FFF7AEFF684620F06A
:1016D0002BFE5B49684620F067FE00216846FFF755
:1016E000A3FF684620F020FE5349684620F05CFEC8
:1016F00000216846FFF798FF684620F015FE514923
:10170000684620F051FE00216846FFF78DFF6846CD
:1017100020F00AFE4849684620F046FE002168464F
:10172000FFF782FF684620F0FFFD4749256891EDED
:10173000027ADFED466A3668454A91E8090003FB04
:1017400000F307EE903A06EE105AF8EE677AB8EE1C
:10175000C66A67EE877A012E86EE277A67EE267ACA
:10176000C2ED007A50D033D3022E0FD1D7ED007ADC
:101770003046B8EEE70AFFF7CFFA364B3046012283
:10178000002183ED000AFFF789F92568324A334BBF
:1017900015600821002532481D601FF0A7FF216851
:1017A000304820F083FC2F4820F030FC05212E48E3
:1017B0001FF09CFF39682B4820F078FC294820F066
:1017C00025FC294601220320FFF768F905B0F0BD8A
:1017D000D7ED007A0A69CB6891ED057A1D4DF8EED8
:1017E000E77A03FB02F327EE877A07EE903AF8EEEA
:1017F000677A0021C7EE276A08460122C5ED006A14
:10180000FFF74CF92568C1E7D7ED007AB8EEE70A93
:10181000FEF79EFE0F4B32463046002183ED000A54
:10182000FFF73CF92568B1E71C8902006418FF1F27
:101830000814FF1FB412FF1F308902003489020010
:10184000488902005C890200EC15FF1F0000B443C8
:101850009416FF1FBC13FF1F6C15FF1FF812FF1F0C
:1018600010A602002408FF1F00A2020010B5F0EE2F
:10187000407A0021F2EE046ABDEEE77AB8EEC77A4C
:10188000B4EE677AF1EE10FA04D00131062967EE62
:10189000A67AF1D11E4B1B68032B37D8DFE803F083
:1018A000291C0F0210EE100ACCB222F047FC41ECCA
:1018B000100B21461748BDE8104020F001BC10EE87
:1018C000100ACCB222F03AFC41EC100B214612482F
:1018D000BDE8104020F0F4BB10EE100ACCB222F0AC
:1018E0002DFC41EC100B21460C48BDE8104020F0C7
:1018F000E7BB10EE100ACCB222F020FC41EC100B3A
:1019000021460748BDE8104020F0DABB10BD00BFFB
:101910004807FF1F0408FF1FF407FF1FE407FF1F0E
:101920002408FF1F084B1B68032B0BD8DFE803F0CC
:10193000080604021EF054BE1EF0D8BA1DF06CBF9B
:101940001FF058BF704700BF4807FF1F2DE9F04147
:10195000DFF85080104F114E114D044601464046AD
:1019600020F02EFB404620F051FB2146384620F067
:1019700027FB384620F04AFB2146304620F020FB6A
:10198000304620F043FB2146284620F019FB28462C
:10199000BDE8F04120F03ABBE407FF1FF407FF1F4A
:1019A0000408FF1F2408FF1F2DE9F04FB24CA3B01D
:1019B00001210D201DF0B4FB23680893089A2368C9
:1019C0000793079BAC4D9B1A0E2BF8D9AB4BAC4938
:1019D0001E681EA820F0E8FC00211EA8FFF724FEC8
:1019E0001EA820F0A1FC0A2231461EA820F00EFD00
:1019F0001EA8FFF7ABFF1EA820F096FC40F2871050
:101A00001DF0EEFC0C219F481DF010FF03219E48A5
:101A10001DF00CFF2B680693069A23680593059B1F
:101A2000954D9B1A312BF8D90C2196481DF0FEFEDE
:101A3000032195481DF0FAFE2B680493049A23684D
:101A40000393039B8C4D9B1A312BF8D907218F48A8
:101A50001DF0ECFE03218C481DF0E8FE2B6802937C
:101A6000029A23680193019B9B1A312BF9D91DF02F
:101A70005FFF0028864D0CDD01230C2185482B607B
:101A80001FF034FE2968844820F010FB824820F0C3
:101A9000BDFA40F287101EF053F80C2179481EF071
:101AA0007DFA032178481EF079FA23680E930E9A86
:101AB00023680D930D9B704E9B1A312BF8D90C2186
:101AC00070481EF06BFA03216F481EF067FA336806
:101AD0000C930C9A23680B930B9B674E9B1A312B2C
:101AE000F8D9072169481EF059FA032166481EF00B
:101AF00055FA33680A930A9A23680993099B9B1A3B
:101B0000312BF9D91EF0CCFA00280CDD02230C2170
:101B100062482B601FF0EAFD29685F4820F0C6FA92
:101B20005D4820F073FA82201EF014FC0C21554809
:101B30001EF060FD032154481EF05CFD23681493E1
:101B4000149A23681393139B4B4E9B1A312BF8D98D
:101B50000C214C481EF04EFD03214B481EF04AFD5F
:101B600033681293129A23681193119B424E9B1A69
:101B7000312BF8D9072145481EF03CFD032142488E
:101B80001EF038FD33681093109A23680F930F9B53
:101B90009B1A312BF9D91EF061FD00280CDD0323BF
:101BA0000C213F482B601FF0A1FD29683A4820F026
:101BB0007DFA394820F02AFA0A213A483A4E1FF0B5
:101BC00095FD2968344820F071FA334820F01EFA58
:101BD000364B1B683746C6EB03083D46A83608EB74
:101BE00005001DF0A1F805F8010BB542F7D1304B07
:101BF000304E1B68B346C6EB03085D46343608EB2F
:101C000005001DF091F805F8010BB542F7D12A4BFC
:101C10002A4E1B683246C6EB03081546403608EBD1
:101C200005001DF081F805F8010BAE42F7D1244BF9
:101C3000244E1B68B246C6EB03085546343608EB03
:101C400005001DF071F805F8010BB542F7D11E4BE8
:101C50001E4D1E68A946761BC846103506EB0800C7
:101C60001DF062F808F8010BA845F7D1184B194D83
:101C70001E68A84630E000BF141CFF1F7420FF1F21
:101C80007089020078890200308902008889020088
:101C90004807FF1F908902002408FF1FA089020047
:101CA000B0890200C0890200EC15FF1F7C14FF1FE1
:101CB0009007FF1F2819FF1F3C07FF1F1418FF1F65
:101CC0008407FF1FC013FF1F8C07FF1F7415FF1F22
:101CD0005007FF1FF016FF1F761B183506EB080094
:101CE0001DF022F808F8010B4545F7D1C54BC64D4C
:101CF0001E68A846761B183506EB08001DF014F880
:101D000008F8010BA845F7D1C04BC14D1E68A84685
:101D1000761B183506EB08001DF006F808F8010BD5
:101D2000A845F7D1BB4BBC4D1E682B46761B984689
:101D3000403506EB08001CF0F7FF08F8010B45459D
:101D4000F7D1B64BB64D1E682B46761B98465C35D0
:101D500006EB08001CF0E8FF08F8010BA845F7D1D6
:101D6000B04BB14D1E682B46761B9846543506EB9A
:101D700008001CF0D9FF08F8010B4545F7D1AB4B23
:101D8000AB4D1E682B46761B9846603506EB080067
:101D90001CF0CAFF08F8010BA845F7D11321A5488C
:101DA0001FF0A4FCDBF83010A34820F07FF9A24814
:101DB00020F02CF91221A1481FF098FCDAF830101D
:101DC0009D4820F073F99C4820F020F91A219C4886
:101DD0001FF08CFCD9F80010974820F067F996485E
:101DE00020F014F9132197481FF080FC8A4B924889
:101DF00019680A22002320F019F98F4820F006F90B
:101E0000132191481FF072FC904B8B4819680A22ED
:101E1000002320F00BF9884820F0F8F812218C48B4
:101E20001FF064FC804B8448996C0A22002320F048
:101E3000FDF8814820F0EAF8172186481FF056FC8B
:101E40007B4B7D4819680A22002320F0EFF87A487E
:101E500020F0DCF8132180481FF048FC704B7648D6
:101E6000996B0A22002320F0E1F8734820F0CEF8A5
:101E7000012104201DF054F901210E201DF050F91C
:101E8000012116201DF04CF9012111201DF048F907
:101E9000012200210320FEF701FE00210846012255
:101EA000FEF7FCFD012210460021FEF7F7FD01229E
:101EB00000210220FEF7F2FD0221387E1DF030F9EC
:101EC0000221387F1DF02CF923681A931A9A23688F
:101ED0001993199B614D9B1A092BF8D90121387E62
:101EE0001DF00AF90121387F1DF006F9022197F84B
:101EF0002C001DF015F9022197F830001DF010F9A3
:101F00002B681893189A23681793179B534D9B1AA5
:101F1000092BF8D9012197F82C001DF0EDF80121CB
:101F200097F830001DF0E8F8022197F84C001DF0FA
:101F3000F7F8022197F850001DF0F2F8012197F808
:101F40004C001DF0D9F897F8500001211DF0D4F88D
:101F50002B681693169A23681593159B9B1A092BC9
:101F6000F9D9012118201DF0DBF8012118201DF0FE
:101F7000C3F801210F201DF0D3F801210F201DF01F
:101F8000BBF801210A201DF0CBF801210A201DF029
:101F9000B3F8012109201DF0C3F8012109201DF02B
:101FA000ABF8FEF70BFD012200210320FEF776FDC2
:101FB0002A4E032501210D201DF09EF823681E9353
:101FC0001E9A23681D931D9B9B1A312BF9D9002162
:101FD0000D201DF091F833681C931C9A23681B9305
:101FE0001B9B9B1AB3F5967FF8D3013DE2D10E21DE
:101FF0001B481FF07BFB104820F008F823B0BDE819
:10200000F08F00BF5407FF1F0817FF1F6807FF1F4F
:102010002017FF1F6C07FF1FAC15FF1F3407FF1FA2
:102020002013FF1F3807FF1F8014FF1F4C07FF1FDF
:102030000814FF1FCC8902002408FF1FE08902005A
:10204000F4890200108A0200248A02001418FF1F7B
:10205000388A02004C8A0200648A0200141CFF1FA6
:10206000788A020003280BD8DFE800F00806040293
:102070001EF004BB1EF024B81DF06ABC1FF0D0BADD
:102080000020704708B51DF053FC002801DD012039
:1020900008BD1EF005F8002801DD022008BD1EF075
:1020A000DDFA0028D4BF0020032008BD38B50D4C50
:1020B0002068FFF7D7FFC5B202E02068FFF7D2FF24
:1020C000FFF7E0FF0028F8DC042107481FF00EFBB3
:1020D000294606481FF0EAFF04481FF097FF2846EC
:1020E00038BD00BF4807FF1F888A02002408FF1F71
:1020F00008B5FFF7C7FF002808DB154B1868FFF786
:10210000B1FF144BC0B25328187001D0002008BD95
:10211000012200210320FEF7C1FC0F4B1B68012B9D
:1021200009D003D3022B0BD0012008BD0122104699
:102130000021FEF7B3FC012210460021FEF7AEFCA1
:10214000012200210220FEF7A9FC012008BD00BFEA
:102150004807FF1FF413FF1F0814FF1FF0B51C21D1
:1021600083B02748274C284D284E294F1FF0BEFA30
:1021700028481FF04BFF0E2127481FF0B7FA2168AF
:1021800024481FF093FF23481FF040FF00230193D2
:1021900009E0019B306818441CF0E0FD019B01330D
:1021A000142B019314DC2868FFF75CFFC0B2FF28F2
:1021B0002368014619D0032BEBD1019B3A680146F5
:1021C000D0181CF0CBFD019B0133142B0193EADDE9
:1021D0002368032B0CBF114B114B042219680DEB24
:1021E00002001CF0E9FD03B0F0BD032B0CBF084A50
:1021F000064A019B1068002118441CF0AFFDE7E778
:10220000908A02008007FF1F4807FF1F7C07FF1FFF
:102210004407FF1F2408FF1FB08A02008807FF1F22
:102220006007FF1F2DE9F04F95B0074604A819F08D
:10223000DBFF88201FF0AAFE0823102280E80C0094
:10224000C61800F18808354634462046002110346F
:1022500020F0AAF8A045F8D11721BF481FF046FA90
:10226000BE481FF0D3FE0CA80123BD4ABD491AF099
:10227000ABF80E9A9DF83C309DF8341006928DF81C
:102280001C308DF814100FAA0DF11D030DF12A005A
:1022900012F8011F03F8011B8342F9D1139B0B9322
:1022A0000CA819F0AFFF04A819F0DAFF002800F01D
:1022B000AF8104A819F0C2FF0A210446AA481FF002
:1022C00015FA214600230A22A4481FF0AFFEA348B6
:1022D0001FF09CFE002F4AD017F1060900F1B780CD
:1022E0000024A24610E0013C0CA819F0B9FF80467A
:1022F000002842D00CA819F0A5FF01340CA819F051
:1023000081FF4C4500F3A380012204A90CA81AF018
:10231000CFF80CA819F078FF804623F011FE014693
:1023200040461FF0E3F98D481FF070FE0CA819F02D
:102330006DFF0028D7D10CA819F066FF01468B4825
:1023400023F032FC0A2100285CD189481FF0CEF925
:102350000CA819F059FF804623F0F2FD01464046D3
:102360001FF0C4F97D48013C1FF050FEC2E7814BCD
:1023700064221A604FF00609B2E70F217E48DFF8A9
:10238000F4B11FF0B3F9214674481FF08FFE03210A
:102390007A481FF0ABF9DBF8001070481FF086FE9A
:1023A00004F1080303217548CBF800301FF09EF9B3
:1023B000DBF8001069481FF079FE68481FF026FE20
:1023C00068466F491FF0F0FF41466846FFF72CF959
:1023D00068461FF0A9FF2220FFF7A4FA631E00EE53
:1023E000103A4046B8EEC00AFFF740FA6846654921
:1023F0001FF0DAFF68464146FFF716F968461FF0FE
:1024000093FF77E760481FF071F9214653481FF0AA
:102410004DFE032159481FF069F90CA819F0F4FE8C
:10242000804623F08DFD014640461FF05FF90321F1
:1024300052481FF05BF9A74240F3F48006EB0A1103
:1024400046481FF0BDFD45481FF0E0FD4CE7012662
:10245000741E03214D481FF049F921463F481FF0E3
:1024600025FE032145481FF041F929463B481FF04E
:10247000A7FDB41E39481FF0C9FD052C04D8DFE8BC
:1024800004F068666462359541490CA81FF08CFF22
:1024900000210CA8FFF7C8F80CA81FF045FF3D4924
:1024A0000CA81FF081FF00210CA8FFF7BDF80CA8B5
:1024B0001FF03AFF29460CA81FF08AFF00210CA844
:1024C000FFF7B2F80CA81FF02FFF2E490CA81FF041
:1024D0006BFF00210CA8FFF7A7F80CA81FF024FF42
:1024E000072E00F08F8010350136B1E72A490CA87D
:1024F0001FF05AFF00210CA8FFF796F80CA81FF058
:1025000013FF24490CA81FF04FFF00210CA8FFF770
:102510008BF80CA81FF008FF29460CA81FF058FFE5
:1025200000210CA8FFF780F80CA81FF0FDFE15494C
:102530000CA81FF039FF0CA80021FFF775F80CA8B4
:102540001FF0F2FECFE71549D1E71549CFE715494E
:10255000CDE71549CBE700BFC08A02002408FF1F62
:10256000D88A02006019FF1FDC8A0200F88A020084
:10257000048B02007007FF1F208B02001C8B0200DF
:10258000308B0200448B0200108B02004C8B020047
:10259000508B0200688B0200CC8B0200B48B0200CF
:1025A0009C8B0200848B02006C8B020023490CA8D8
:1025B0001FF0FAFE00210CA8FFF736F80CA81FF058
:1025C000B3FE1F490CA81FF0EFFE00210CA8FFF777
:1025D0002BF80CA81FF0A8FE29460CA81FF0F8FE47
:1025E00000210CA8FFF720F80CA81FF09DFE15494C
:1025F0000CA81FF0D9FE0CA80021FFF715F80CA8B5
:102600001FF092FE04A819F0FDFD15B0BDE8F08F93
:102610000E210D481FF06AF804A819F0F3FD15B05B
:10262000BDE8F08F0CA819F0EFFD06EB0A18014683
:1026300040461FF041FF0AF1010AFFE6E48B020069
:10264000688B0200448B0200E88A020008B5084B40
:10265000DFED080AD3ED007A27EE800A20F0B0FB08
:1026600020F006FB044BD3ED007A20EE270A08BDCC
:102670006C14FF1FDB0FC9409815FF1F08B52C4ACB
:102680002C4B92ED010A93ED007ADFED2B6A2B4B78
:10269000B8EEC77A9B6BC6EE877A012BB8EEC00AFC
:1026A0002DED028B27EE800A3BD034D3022B2CD0A9
:1026B0009FED238AFFF7CAFF224A234B92ED007A4F
:1026C000002283F8902072B6DFED207A93ED206A25
:1026D000D3ED1F6A30EE480AB8EEC77AC0EE275A2B
:1026E000C5EE877A67EE867AF4EEE67AC3ED1E7A57
:1026F000D3ED227AF1EE10FAD8BFF1EE677AC3ED8E
:10270000237A62B6BDEC028B08BD114B93ED018AB2
:10271000B8EEC88ACEE70F4B93ED018AB8EEC88AAF
:10272000C8E70D4B93ED018AB8EEC88AC2E700BF37
:10273000B812FF1F5C19FF1FDB0FC9402013FF1FDA
:10274000000000006817FF1FD814FF1FCDCCCC3C41
:102750009816FF1FD417FF1F7017FF1F2DE9F04FAA
:102760001621ADB00446B1481EF0C0FFB0481FF0BE
:102770004DFC601E092800F27B84DFE810F0940015
:10278000CD01A9026B0179042603F901D303D30318
:102790000A00A84B1D680DF15008C8EB050544461A
:1027A0002BAE28191CF0C0FA04F8010BA642F8D190
:1027B000A14907A81FF0F8FD002107A8FEF734FF84
:1027C00007A81FF0B1FD2220FFF7ACF8DDED147A69
:1027D0000020B8EEE70AFFF749F8984907A81FF06C
:1027E000E3FD002107A8FEF71FFF07A81FF09CFDCF
:1027F000934907A81FF0D8FD002107A8FEF714FF92
:1028000007A81FF091FD2220FFF78CF8DDED187A64
:102810000020B8EE670AFFF729F8884907A81FF0DB
:10282000C3FD07A80021FEF7FFFE07A81FF07CFDEF
:10283000229B012B00F0EC86C0F0B886022B40F002
:102840009582804907A81FF0AFFD002107A8FEF779
:10285000EBFE07A81FF068FD2220FFF763F8DDED0F
:10286000177A0020B8EE670AFFF700F8734907A847
:102870001FF09AFD002107A8FEF7D6FE07A81FF05B
:1028800053FD714907A81FF08FFD002107A8FEF72F
:10289000CBFE07A81FF048FD2220FFF743F80020D9
:1028A000DDED1B7A1AE3694B1D6807AC2E1B0DF199
:1028B000500830191CF038FA04F8010BA045F8D183
:1028C000C8EB050521AE444628191CF02DFA04F882
:1028D000010BA642F8D1584903A81FF065FD00215D
:1028E00003A8FEF7A1FE03A81FF01EFD584903A888
:1028F0001FF05AFD002103A8FEF796FE03A81FF063
:1029000013FDDDED087A0020B8EEE70AFEF7AEFF12
:102910004A4903A81FF048FD002103A8FEF784FEE2
:1029200003A81FF001FD464903A81FF03DFD00214B
:1029300003A8FEF779FE03A81FF0F6FC444903A89C
:102940001FF032FD002103A8FEF76EFE03A81FF062
:10295000EBFCDDED107A0020B8EEE70AFEF786FF0B
:10296000364903A81FF020FD03A80021FEF75CFEF6
:1029700003A81FF0D9FC139C012C00F03B85022C0E
:1029800000F0D184002C40F0F1812E4903A81FF003
:102990000BFD214603A8FEF747FE03A81FF0C4FC69
:1029A0002B4903A81FF000FD214603A8FEF73CFEBB
:1029B00003A81FF0B9FCDDED097A2046B8EEE70A5E
:1029C000FEF754FF1D4903A81FF0EEFC214603A8A3
:1029D000FEF72AFE03A81FF0A7FC1B4903A81FF05F
:1029E000E3FC214603A8FEF71FFE03A81FF09CFC92
:1029F000174903A81FF0D8FC214603A8FEF714FED0
:102A000003A81FF091FCDDED117A2046B8EEE70A2D
:102A1000FEF72CFF094903A81FF0C6FC03A82146B6
:102A2000FEF702FE03A81FF07FFC9FE1FC8B020073
:102A30002408FF1F3407FF1F148C0200448B020080
:102A4000288C02003C8C0200508C02009007FF1F73
:102A5000688B0200924B1D680DF15008C8EB05050C
:102A6000444624AE28191CF05FF904F8010BA64275
:102A7000F8D1149A052A00F279810123934013F0CA
:102A8000240440F0E98313F0120540F03A8613F075
:102A9000090F00F06B8107A882491FF085FC2946C9
:102AA00007A8FEF7C1FD07A81FF03EFC2220FEF795
:102AB00039FFDDED157A2846B8EEE70AFEF7D6FEB7
:102AC00007A879491FF070FC294607A8FEF7ACFD5E
:102AD00007A81FF029FC07A874491FF065FC2946C8
:102AE00007A8FEF7A1FD07A81FF01EFC2220FEF795
:102AF00019FFDDED167A2846B8EE670AFEF7B6FE36
:102B000007A869491FF050FC07A82946FEF78CFD6D
:102B100007A81FF009FC29E1654B1D680DF150085D
:102B2000C8EB0505444621AE28191CF0FDF804F851
:102B3000010BA642F8D11E9B5E4801930B21DDF8E4
:102B400054B0DDF874A0DDF85890179F1F9E189DB3
:102B5000149C1EF0CBFD58481FF058FA209B032B05
:102B600000F20481DFE813F03003FC02C8028702A0
:102B7000524B1D680DF15008C8EB0505444629AEBF
:102B800028191CF0D1F804F8010BA642F8D14C49E1
:102B900007A81FF009FC002107A8FEF745FD07A8BC
:102BA0001FF0C2FB2220FEF7BDFEDDED147A0020EF
:102BB000B8EEE70AFEF75AFE3B4907A81FF0F4FB00
:102BC000002107A8FEF730FD07A81FF0ADFB3D4927
:102BD00007A81FF0E9FB002107A8FEF725FD07A8BD
:102BE0001FF0A2FB2220FEF79DFEDDED1C7A0020E7
:102BF000B8EE670AFEF73AFE2B4907A81FF0D4FB90
:102C0000002107A8FEF710FD07A81FF08DFB072184
:102C10002D481EF06BFD269C2748214600230A22E2
:102C20001FF004FA24481FF0F1F9012C00F048834A
:102C3000C0F01484022C40F099801A4907A81FF0B4
:102C4000B3FB002107A8FEF7EFFC07A81FF06CFB01
:102C50002220FEF767FE1D4B93ED030A0020B8EE1D
:102C6000C00AFEF703FE104907A81FF09DFB0021D4
:102C700007A8FEF7D9FC07A81FF056FB0B4907A8C9
:102C80001FF092FB002107A8FEF7CEFC07A81FF05B
:102C90004BFB2220FEF746FE0020DDED1F7A1DE1F2
:102CA0006C07FF1F3C8C0200448B0200508C02001A
:102CB0008407FF1FC08C02002408FF1F3807FF1F76
:102CC000148C0200288C0200B88C02008014FF1FB4
:102CD0008A4B1D6807AC2D1B0BAE28191CF024F87D
:102CE00004F8010BA642F8D10DF150088449404682
:102CF0001FF05AFB00214046FEF796FC40461FF0AD
:102D000013FB2220FEF70EFEDDED087A0020B8EE60
:102D1000E70AFEF7ABFD7B4940461FF045FB00216B
:102D20004046FEF781FC40461FF0FEFA76494046D9
:102D30001FF03AFB00214046FEF776FC40461FF0AC
:102D4000F3FA2220FEF7EEFDDDED0A7A0020B8EE60
:102D5000670AFEF78BFD6B4940461FF025FB404696
:102D60000021FEF761FC40461FF0DEFA674940464D
:102D70001FF01AFB00214046FEF756FC40461FF0AC
:102D8000D3FA634940461FF00FFB00214046FEF78F
:102D90004BFC40461FF0C8FA5E4940461FF004FB5A
:102DA00000214046FEF740FC40461FF0BDFA58495E
:102DB00040461FF0F9FA00214046FEF735FC404638
:102DC0001FF0B2FA2DB0BDE8F08F534B1D680DF126
:102DD0005008C8EB0505444624AE28191BF0A4FF93
:102DE00004F8010BA642F8D1454907A81FF0DCFA08
:102DF000002107A8FEF718FC07A81FF095FA22206B
:102E0000FEF790FDDDED157A0020B8EEE70AFEF73B
:102E10002DFD3C4907A81FF0C7FA002107A8FEF7BF
:102E200003FC07A81FF080FA374907A81FF0BCFA77
:102E3000002107A8FEF7F8FB07A81FF075FA22206B
:102E4000FEF770FDDDED167A0020B8EE670AFEF79A
:102E50000DFD2C4907A81FF0A7FA07A80021FEF7CF
:102E6000E3FB07A81FF060FA149B012B00F02883F6
:102E7000C0F06A83022B7FF479AF284907A81FF0BE
:102E800093FA002107A8FEF7CFFB07A81FF04CFA22
:102E90002220FEF747FDDDED1B7A0020B8EEE70AA1
:102EA000FEF7E4FC174907A81FF07EFA002107A8E7
:102EB000FEF7BAFB07A81FF037FA194907A81FF059
:102EC00073FA002107A8FEF7AFFB07A81FF02CFA42
:102ED0002220FEF727FDDDED1C7A0020B8EE670A00
:102EE000FEF7C4FC074907A81FF05EFA07A80021F7
:102EF000FEF79AFB07A81FF017FA37E78C07FF1FAA
:102F0000148C0200448B0200288C0200F48C020016
:102F1000308902000C8D02003C07FF1F3C8C020030
:102F2000508C0200C24B1D680DF15008C8EB05051E
:102F300044462CAE28191BF0F7FE04F8010BA642FC
:102F4000F8D1BC49BC4C07A81FF02EFA002107A8F5
:102F5000FEF76AFB07A81FF0E7F92220FEF7E2FC64
:102F6000DDED207A0020B8EEE70AFEF77FFCB349DA
:102F700007A81FF019FA002107A8FEF755FB07A8BC
:102F80001FF0D2F9AE4907A81FF00EFA002107A8DA
:102F9000FEF74AFB07A81FF0C7F92220FEF7C2FC84
:102FA000289D07EE905A0020B8EE670AFEF75EFCF7
:102FB000A24907A81FF0F8F9002107A8FEF734FB83
:102FC00007A81FF0B1F90F219E481EF08FFB0023C8
:102FD0000A22216D9C481FF029F89B481FF016F823
:102FE00016219A481EF082FB002329460A229648A1
:102FF0001FF01CF894481FF009F82368012B00F01B
:103000004D83C0F01983022B7FF4B0AE904907A81E
:103010001FF0CAF9002107A8FEF706FB07A81FF05A
:1030200083F92220FEF77EFCDDED237A0020B8EE46
:10303000E70AFEF71BFC814907A81FF0B5F900213C
:1030400007A8FEF7F1FA07A81FF06EF9814907A853
:103050001FF0AAF9002107A8FEF7E6FA07A81FF05B
:1030600063F92220FEF75EFC0020DDED2B7A35E7C8
:103070000DF150087AE66F4907A81FF095F9002175
:1030800007A8FEF7D1FA07A81FF04EF92220FEF795
:1030900049FC07EE90BA0020B8EEE70AFEF7E6FB1F
:1030A000664907A81FF080F9002107A8FEF7BCFABF
:1030B00007A81FF039F9624907A81FF075F9002128
:1030C00007A8FEF7B1FA07A81FF02EF92220FEF795
:1030D00029FC07EE90AAB8EEE70A0020FEF7C6FB2F
:1030E00007A856491FF060F907A80021FEF79CFACF
:1030F00007A81FF019F939E6554907A81FF054F938
:10310000002107A8FEF790FA07A81FF00DF922206A
:10311000FEF708FC07EE905A0020B8EEE70AFEF72B
:10312000A5FB464907A81FF03FF9002107A8FEF7B5
:103130007BFA07A81FF0F8F8464907A81FF034F9F2
:10314000002107A8FEF770FA07A81FF0EDF822206B
:10315000FEF7E8FB07EE904A0020B8EEE70ABDE76D
:103160003B4907A81FF020F9002107A8FEF75CFAE9
:1031700007A81FF0D9F82220FEF7D4FB07EE907ABB
:103180000020B8EEE70AFEF771FB2C4907A81FF0F4
:103190000BF9002107A8FEF747FA07A81FF0C4F8AB
:1031A0002C4907A81FF000F9002107A8FEF73CFAF8
:1031B00007A81FF0B9F82220FEF7B4FB07EE906ACB
:1031C0000020B8EEE70A89E7214907A81FF0ECF8CC
:1031D000002107A8FEF728FA07A81FF0A5F822206B
:1031E000FEF7A0FB07EE909A0020B8EEE70AFEF784
:1031F0003DFB124907A81FF0D7F8002107A8FEF7EA
:1032000013FA07A81FF090F8124907A81FF0CCF88E
:10321000002107A8FEF708FA07A81FF085F822206A
:10322000FEF780FBDDED017A0020B8EEE70A55E7F6
:103230004C07FF1F148C02000814FF1F448B020070
:10324000288C0200CC8C02002408FF1FDC8C0200BA
:103250003C8C0200508C0200B24907A81FF0A4F871
:10326000002107A8FEF7E0F907A81FF05DF822206B
:10327000FEF758FBDDED1B7A0020B8EEE70AFEF7FB
:10328000F5FAA94907A81FF08FF8002107A8FEF753
:10329000CBF907A81FF048F8A44907A81FF084F845
:1032A000002107A8FEF7C0F907A81FF03DF822206B
:1032B000FEF738FBDDED1C7A0020B8EE670A0DE75B
:1032C000984907A81FF070F8002107A8FEF7ACF98D
:1032D00007A81FF029F82220FEF724FB944B93ED5A
:1032E000020A0020B8EEC00AFEF7C0FA8E4907A80D
:1032F0001FF05AF8002107A8FEF796F907A81FF05B
:1033000013F88A4907A81FF04FF8002107A8FEF715
:103310008BF907A81FF008F82220FEF703FB002016
:10332000DDED1E7ADAE5182182481EF0DFF9824BC6
:10333000824819681EF0BAFE80481EF067FE192107
:103340007F481EF0D3F914997C481EF0AFFE7B48ED
:103350001EF05CFE18217B481EF0C8F9079C7748D8
:1033600021461EF0A3FE75481EF050FE6D4903A8CD
:103370001FF01AF8002103A8FEF756F903A81EF063
:10338000D3FF2220FEF7CEFADDED0B7A0020B8EE57
:10339000E70AFEF76BFA644903A81FF005F800215D
:1033A00003A8FEF741F903A81EF0BEFF64201BF03E
:1033B000BDFE5E4903A81EF0F7FF002103A8FEF73B
:1033C00033F903A81EF0B0FF2220FEF7ABFA07EE98
:1033D000904AB8EEE70A0020FEF748FA524903A8DF
:1033E0001EF0E2FF03A80021FEF71EF903A81EF05D
:1033F0009BFFBBE44B4903A81EF0D6FF002103A8A6
:10340000FEF712F903A81EF08FFF2220FEF78AFABA
:10341000DDED0A7A0020B8EEE70AFEF727FA424906
:1034200003A81EF0C1FF002103A8FEF7FDF803A8C2
:103430001EF07AFF3D4903A81EF0B6FF002103A845
:10344000FEF7F2F803A81EF06FFF2220FEF76AFADB
:10345000DDED127A0020B8EEE70ABDE7314907A892
:103460001EF0A2FF002107A8FEF7DEF807A81EF055
:103470005BFF2220FEF756FADDED157A0020B8EE4C
:10348000E70AFEF7F3F9284907A81EF08DFF00218F
:1034900007A8FEF7C9F807A81EF046FF234907A8AA
:1034A0001EF082FF002107A8FEF7BEF807A81EF055
:1034B0003BFF2220FEF736FA0020DDED1D7A0DE5F8
:1034C000184907A81EF070FF002107A8FEF7ACF806
:1034D00007A81EF029FF2220FEF724FADDED197A55
:1034E000B8EEE70A0020FEF7C1F90F4907A81EF061
:1034F0005BFF002107A8FEF797F807A81EF014FF4E
:103500000A4907A81EF050FF002107A8FEF78CF813
:1035100007A81EF009FF2220FEF704FA0020DDEDC7
:103520001A7ADBE43C8C0200448B0200508C0200CF
:103530008014FF1F648C02002819FF1F2408FF1F3E
:10354000808C02009C8C02008F4907A81EF02CFF83
:10355000002107A8FEF768F807A81EF0E5FE222064
:10356000FEF7E0F9DDED177A0020B8EEE70AFEF786
:103570007DF9864907A81EF017FF002107A8FEF76E
:1035800053F807A81EF0D0FE814907A81EF00CFFD3
:10359000002107A8FEF748F807A81EF0C5FE222064
:1035A000FEF7C0F90020DDED187A97E4764907A808
:1035B0001EF0FAFE002107A8FEF736F807A81EF055
:1035C000B3FE2220FEF7AEF9DDED157A0020B8EE4D
:1035D000E70AFEF74BF96D4907A81EF0E5FE00214A
:1035E00007A8FEF721F807A81EF09EFE684907A865
:1035F0001EF0DAFE002107A8FEF716F807A81EF055
:1036000093FE2220FEF78EF90020DDED197A65E4A5
:103610005D4907A81EF0C8FE002107A8FEF704F8C0
:1036200007A81EF081FE2220FEF77CF9DDED167A58
:103630000020B8EE670A56E7534907A81EF0B4FE0B
:10364000002107A8FDF7F0FF07A81EF06DFE22205D
:10365000FEF768F9DDED217A0020B8EEE70AFEF703
:1036600005F94A4907A81EF09FFE002107A8FDF7AB
:10367000DBFF07A81EF058FE454907A81EF094FE80
:10368000002107A8FDF7D0FF07A81EF04DFE22205D
:10369000FEF748F90020DDED297A1FE43A4907A832
:1036A0001EF082FE002107A8FDF7BEFF07A81EF04E
:1036B0003BFE2220FEF736F9DDED227A0020B8EE3F
:1036C000E70AFEF7D3F8314907A81EF06DFE002186
:1036D00007A8FDF7A9FF07A81EF026FE2C4907A89A
:1036E0001EF062FE002107A8FDF79EFF07A81EF04E
:1036F0001BFE2220FEF716F90020DDED2A7AFFF7E7
:10370000EDBB07A820491EF04FFE214607A8FDF794
:103710008BFF07A81EF008FE2220FEF703F9DDED5F
:10372000187A2046B8EEE70AFEF7A0F807A817496E
:103730001EF03AFE214607A8FDF776FF07A81EF007
:10374000F3FD07A812491EF02FFE214607A8FDF73A
:103750006BFF07A81EF0E8FD2220FEF7E3F8DDED81
:10376000197A2046B8EE670AFEF780F807A80749DD
:103770001EF01AFE07A82146FDF756FF07A81EF007
:10378000D3FDFFF7F3BA00BF3C8C0200448B02006C
:10379000508C020070B5E84BAEB01D6804AC2D1B18
:1037A0002EAE28191BF0C0FA04F8010BB442F8D170
:1037B000E249E34DE34C68461EF0F6FD0021684601
:1037C000FDF732FF68461EF0AFFD2220FEF7AAF893
:1037D000DDED047A0020B8EE670AFEF747F8DA4913
:1037E00068461EF0E1FD00216846FDF71DFF6846B2
:1037F0001EF09AFDD54968461EF0D6FD00216846A8
:10380000FDF712FF68461EF08FFD2220FEF78AF8B2
:10381000DDED057A0020B8EE670AFEF727F8CA4901
:1038200068461EF0C1FD00216846FDF7FDFE6846B2
:103830001EF07AFDC64968461EF0B6FD00216846B6
:10384000FDF7F2FE68461EF06FFD2220FEF76AF8D3
:103850009DED060A0420FEF709F8BB4968461EF0F4
:10386000A3FD00216846FDF7DFFE68461EF05CFD03
:10387000B84968461EF098FD00216846FDF7D4FE61
:1038800068461EF051FD2220FEF74CF89DF884108A
:103890006846002914BF294621461EF085FD0021F7
:1038A0006846FDF7C1FE68461EF03EFDA649684623
:1038B0001EF07AFD00216846FDF7B6FE68461EF050
:1038C00033FDA54968461EF06FFD00216846FDF7EF
:1038D000ABFE68461EF028FD2220FEF723F8DDED42
:1038E000257A0020B8EE670AFDF7C0FF96496846C2
:1038F0001EF05AFD00216846FDF796FE68461EF050
:1039000013FD964968461EF04FFD00216846FDF7FD
:103910008BFE68461EF008FD2220FEF703F8DDED61
:10392000267A0020B8EE670AFDF7A0FF86496846B0
:103930001EF03AFD00216846FDF776FE68461EF04F
:10394000F3FC874968461EF02FFD00216846FDF70D
:103950006BFE68461EF0E8FC2220FDF7E3FFDDED7C
:10396000077A0020B8EE670AFDF780FF76496846BF
:103970001EF01AFD00216846FDF756FE68461EF04F
:10398000D3FC784968461EF00FFD00216846FDF71C
:103990004BFE68461EF0C8FC2220FDF7C3FFDDED9C
:1039A000087A0020B8EE670AFDF760FF66496846AE
:1039B0001EF0FAFC00216846FDF736FE68461EF050
:1039C000B3FC694968461EF0EFFC00216846FDF72C
:1039D0002BFE68461EF0A8FC2220FDF7A3FF9DEDFC
:1039E000090A0420FDF742FF574968461EF0DCFC37
:1039F00000216846FDF718FE68461EF095FC5B49FD
:103A000068461EF0D1FC00216846FDF70DFE6846B1
:103A10001EF08AFC2220FDF785FF9DF88510684680
:103A2000002914BF294621461EF0BEFC002168462D
:103A3000FDF7FAFD68461EF077FC434968461EF024
:103A4000B3FC00216846FDF7EFFD68461EF06CFCF4
:103A5000474968461EF0A8FC00216846FDF7E4FDD2
:103A600068461EF061FC2220FDF75CFFDDED0C7A5C
:103A70000020B8EE670AFDF7F9FE334968461EF0EC
:103A800093FC00216846FDF7CFFD68461EF04CFC14
:103A9000384968461EF088FC00216846FDF7C4FDE1
:103AA00068461EF041FC2220FDF73CFFDDED0D7A5B
:103AB0000020B8EE670AFDF7D9FE234968461EF0DC
:103AC00073FC00216846FDF7AFFD68461EF02CFC34
:103AD000294968461EF068FC00216846FDF7A4FDF0
:103AE00068461EF021FC2220FDF71CFF9DED0E0A0A
:103AF0000520FDF7BBFE144968461EF055FC002169
:103B00006846FDF791FD68461EF00EFC1B496846AD
:103B10001EF04AFC00216846FDF786FD68461EF04F
:103B200003FC2220FDF7FEFE9DF886106846002962
:103B300014BF2946214623E07C14FF1F308D02006C
:103B4000248D0200288D0200448B0200488D020063
:103B5000608D0200788D0200908D0200A48D02001D
:103B6000BC8D0200CC8D0200DC8D0200EC8D0200C9
:103B7000FC8D02000C8E02001C8E02002C8E0200B6
:103B80001EF012FC00216846FDF74EFD68461EF04F
:103B9000CBFBE84968461EF007FC00216846FDF7AC
:103BA00043FD68461EF0C0FBE34968461EF0FCFB7F
:103BB00000216846FDF738FD68461EF0B5FB22205F
:103BC000FDF7B0FEDDED297A0020B8EE670AFDF7BB
:103BD0004DFED84968461EF0E7FB00216846FDF718
:103BE00023FD68461EF0A0FBD44968461EF0DCFBAE
:103BF00000216846FDF718FD68461EF095FB22205F
:103C0000FDF790FEDDED2A7A0020B8EE670AFDF799
:103C10002DFEC84968461EF0C7FB00216846FDF727
:103C200003FD68461EF080FBC54968461EF0BCFBDC
:103C300000216846FDF7F8FC68461EF075FB22205F
:103C4000FDF770FE9DED2B0A0520FDF70FFEB9492B
:103C500068461EF0A9FB00216846FDF7E5FC6846B2
:103C60001EF062FBB74968461EF09EFB00216846C5
:103C7000FDF7DAFC68461EF057FB2220FDF752FEE6
:103C80009DF8B0106846002914BF294621461EF051
:103C90008BFB00216846FDF7C7FC68461EF044FB1D
:103CA000A44968461EF080FB68460021FDF7BCFC75
:103CB00068461EF039FB289B012B00F0E581A249E4
:103CC00068461EF071FB00216846FDF7ADFC6846B2
:103CD0001EF02AFB9D4968461EF066FB00216846DF
:103CE000FDF7A2FC68461EF01FFB994968461EF0CE
:103CF0005BFB00216846FDF797FC68461EF014FB4D
:103D0000924968461EF050FB00216846FDF78CFC86
:103D100068461EF009FB8F4968461EF045FB0021EE
:103D20006846FDF781FC68461EF0FEFA8749684642
:103D30001EF03AFB00216846FDF776FC68461EF04F
:103D4000F3FA854968461EF02FFB00216846FDF70F
:103D50006BFC68461EF0E8FA7C4968461EF024FBBE
:103D600000216846FDF760FC68461EF0DDFA7B49DD
:103D700068461EF019FB00216846FDF755FC6846B1
:103D80001EF0D2FA2220FDF7CDFDDDED127A0020E3
:103D9000B8EE670AFDF76AFD664968461EF004FB47
:103DA00000216846FDF740FC68461EF0BDFA6C49EC
:103DB00068461EF0F9FA00216846FDF735FC6846B2
:103DC0001EF0B2FA2220FDF7ADFDDDED137A0020E2
:103DD000B8EE670AFDF74AFD564968461EF0E4FA58
:103DE00000216846FDF720FC68461EF09DFA5D49FB
:103DF00068461EF0D9FA00216846FDF715FC6846B2
:103E00001EF092FA2220FDF78DFD9DED140A04208C
:103E1000FDF72CFD474968461EF0C6FA00216846AA
:103E2000FDF702FC68461EF07FFA4F4968461EF017
:103E3000BBFA00216846FDF7F7FB68461EF074FAEE
:103E40002220FDF76FFD494A494B9DF887106846CF
:103E5000002914BF114619461EF0A6FA0021684633
:103E6000FDF7E2FB68461EF05FFA324968461EF035
:103E70009BFA00216846FDF7D7FB68461EF054FA0E
:103E8000119C002C00F0BC803A4968461EF08CFA68
:103E900000216846FDF7C8FB68461EF045FA2B492D
:103EA00068461EF081FA00216846FDF7BDFB6846B2
:103EB0001EF03AFA304968461EF076FA002168464C
:103EC000FDF7B2FB68461EF02FFA204968461EF047
:103ED0006BFA68460021FDF7A7FB68461EF024FA3E
:103EE000264968461EF060FA00216846FDF79CFBF3
:103EF00068461EF019FA2220FDF714FD9DED150A03
:103F00000420FDF7B3FC0B4968461EF04DFA002172
:103F10006846FDF789FB68461EF006FA2D9C002CCA
:103F200000F09B80164968461EF03EFA0021684664
:103F300028E000BF448B02003C8E0200548E020039
:103F40006C8E0200848E0200EC8E0200308902002A
:103F5000FC8E02000C8F0200248F02003C8F0200B6
:103F60004C8F02005C8F02006C8F0200248D0200D7
:103F7000288D02007C8F02008C8F0200BC8F020013
:103F8000E08F0200FDF750FB68461EF0CDF9604956
:103F900068461EF009FA68460021FDF745FB6846B1
:103FA0001EF0C2F95B4968461EF0FEF90021684622
:103FB000FDF73AFB68461EF0B7F9554968461EF012
:103FC000F3F900216846FDF72FFB68461EF0ACF9B7
:103FD000514968461EF0E8F900216846FDF724FBC8
:103FE00068461EF0A1F94A4968461EF0DDF9002135
:103FF0006846FDF719FB68461EF096F92EB070BDB5
:10400000464968461EF0D0F921466846FDF70CFB8C
:1040100068461EF089F93E4968461EF0C5F92146FA
:104020006846FDF701FB68461EF07EF93C4968468C
:104030001EF0BAF921466846FDF7F6FA68461EF00A
:1040400073F9334968461EF0AFF968462146FDF71B
:10405000EBFA68461EF068F942E7324968461EF0FE
:10406000A3F921466846FDF7DFFA68461EF05CF9C1
:10407000274968461EF098F968462146FDF7D4FAAC
:1040800068461EF051F98DE7274968461EF08CF905
:1040900000216846FDF7C8FA68461EF045F91C493C
:1040A00068461EF081F900216846FDF7BDFA6846B2
:1040B0001EF03AF91D4968461EF076F9002168465F
:1040C000FDF7B2FA68461EF02FF9114968461EF056
:1040D0006BF900216846FDF7A7FA68461EF024F93F
:1040E000134968461EF060F900216846FDF79CFA06
:1040F00068461EF019F9064968461EF055F9002178
:104100006846FDF791FA68461EF00EF9094919E66E
:1041100030890200F48F02000C9002009C8F020094
:10412000AC8F0200CC8F02009C8E0200AC8E02008D
:10413000BC8E0200D48E020070B5C84BAEB01D68B4
:1041400004AC2D1B2EAE28191AF0EEFD04F8010B5D
:10415000A642F8D1C249C34C68461EF025F9002199
:104160006846FDF761FA68461EF0DEF82220FDF78A
:10417000D9FBD4ED067A0020B8EE670AFDF776FB8E
:10418000B94968461EF010F900216846FDF74CFA5F
:1041900068461EF0C9F8B54968461EF005F90021C9
:1041A0006846FDF741FA68461EF0BEF82220FDF78A
:1041B000B9FBD4ED077A0020B8EE670AFDF756FB8D
:1041C000A94968461EF0F0F800216846FDF72CFA70
:1041D00068461EF0A9F8A64968461EF0E5F80021D9
:1041E0006846FDF721FA68461EF09EF82220FDF78A
:1041F00099FBD4ED1E7A0020B8EE670AFDF736FB76
:10420000994968461EF0D0F800216846FDF70CFA7F
:1042100068461EF089F8974968461EF0C5F80021E7
:104220006846FDF701FA68461EF07EF82220FDF789
:1042300079FBD4ED0B7A0020B8EE670AFDF716FB88
:10424000894968461EF0B0F800216846FDF7ECF990
:1042500068461EF069F8884968461EF0A5F80021F6
:104260006846FDF7E1F968461EF05EF82220FDF78A
:1042700059FBD4ED0C7A0020B8EE670AFDF7F6FA88
:10428000794968461EF090F800216846FDF7CCF9A0
:1042900068461EF049F8794968461EF085F8002105
:1042A0006846FDF7C1F968461EF03EF82220FDF78A
:1042B00039FBD4ED1F7A0020B8EE670AFDF7D6FA75
:1042C000694968461EF070F800216846FDF7ACF9B0
:1042D00068461EF029F86A4968461EF065F8002114
:1042E0006846FDF7A1F968461EF01EF82220FDF78A
:1042F00019FBD4ED137A0020B8EE670AFDF7B6FA81
:10430000594968461EF050F800216846FDF78CF9BF
:1043100068461EF009F85B4968461EF045F8002122
:104320006846FDF781F968461DF0FEFF2220FDF783
:10433000F9FAD4ED147A0020B8EE670AFDF796FA80
:10434000494968461EF030F800216846FDF76CF9CF
:1043500068461DF0E9FF4C4968461EF025F800212B
:104360006846FDF761F968461DF0DEFF2220FDF783
:10437000D9FAD4ED207A0020B8EE670AFDF776FA74
:10438000394968461EF010F800216846FDF74CF9DF
:1043900068461DF0C9FF0D213C481DF0A7F9D4F86F
:1043A0008C103B4800230A221DF040FE38481DF0C7
:1043B0002DFED4F88C40002C43D1364968461DF0C0
:1043C000F3FF68462146FDF72FF968461DF0ACFF64
:1043D000314968461DF0E8FF00216846FDF724F9E1
:1043E00068461DF0A1FF2D4968461DF0DDFF002144
:1043F0006846FDF719F968461DF096FF264968469C
:104400001DF0D2FF00216846FDF70EF968461DF049
:104410008BFF234968461DF0C7FF00216846FDF762
:1044200003F968461DF080FF1B4968461DF0BCFF7C
:1044300000216846FDF7F8F868461DF075FF2EB0BC
:1044400070BD184968461DF0AFFF68460021FDF7B2
:10445000EBF868461DF068FFBAE700BF7C14FF1F49
:1044600020900200EC15FF1F448B020034900200E4
:10447000489002005C90020070900200849002005C
:1044800098900200AC900200C0900200D49002000C
:104490002408FF1FF8900200308902000C910200EE
:1044A00028910200E490020070B59D4BAEB01D68EB
:1044B00004AC2D1B2EAE28191AF036FC04F8010BA3
:1044C000B442F8D1684697491DF06EFF0021684656
:1044D000FDF7AAF868461DF027FF2220FDF722FA13
:1044E000DDED197A0020B8EEE70AFDF7BFF968465E
:1044F0008D491DF059FF68460021FDF795F8684683
:104500001DF012FF684689491DF04EFF00216846E4
:10451000FDF78AF868461DF007FF2220FDF702FA32
:10452000DDED1A7A0020B8EE670AFDF79FF96846BC
:104530007D491DF039FF68460021FDF775F8684692
:104540001DF0F2FE68467A491DF02EFF00216846F4
:10455000FDF76AF868461DF0E7FE2220FDF7E2F954
:10456000DDED1B7A0020B8EEE70AFDF77FF968461B
:104570006D491DF019FF68460021FDF755F86846A2
:104580001DF0D2FE68466B491DF00EFF0021684603
:10459000FDF74AF868461DF0C7FE2220FDF7C2F974
:1045A000DDED1C7A0020B8EE670AFDF75FF968467A
:1045B0005D491DF0F9FE68460021FDF735F86846B3
:1045C0001DF0B2FE68465C491DF0EEFE0021684613
:1045D000FDF72AF868461DF0A7FE2220FDF7A2F994
:1045E000DDED1D7A0020B8EEE70AFDF73FF96846D9
:1045F0004D491DF0D9FE68460021FDF715F86846C3
:104600001DF092FE68464D491DF0CEFE0021684621
:10461000FDF70AF868461DF087FE2220FDF782F9B3
:10462000DDED1E7A0020B8EE670AFDF71FF9684637
:104630003D491DF0B9FE68460021FCF7F5FF6846CC
:104640001DF072FE68463E491DF0AEFE0021684630
:10465000FCF7EAFF68461DF067FE2220FDF762F9CD
:10466000DDED1F7A0020B8EEE70AFDF7FFF8684697
:104670002D491DF099FE68460021FCF7D5FF6846DC
:104680001DF052FE68462F491DF08EFE002168463F
:10469000FCF7CAFF68461DF047FE2220FDF742F9ED
:1046A000DDED207A0020B8EE670AFDF7DFF86846F6
:1046B0001D491DF079FE68460021FCF7B5FF6846EC
:1046C0001DF032FE684620491DF06EFE684600214E
:1046D000FCF7AAFF68461DF027FE68461B491DF03F
:1046E00063FE68460021FCF79FFF68461DF01CFE34
:1046F000684617491DF058FE68460021FCF794FFF4
:1047000068461DF011FE684610491DF04DFE6846D2
:104710000021FCF789FF68461DF006FE2EB070BD33
:104720007C14FF1F40910200448B02005491020050
:10473000689102007C91020090910200A491020015
:10474000B8910200CC910200E4910200308902008D
:104750000092020070B5DA4B1B68013B84B0092B54
:1047600000F2AC81DFE813F0580348045304C1049D
:10477000AA01E8042A064A070A00D001D149D24D0D
:1047800068461DF011FE00216846FCF74DFF6846A3
:104790001DF0CAFD2220FDF7C5F8D5ED0C7A0020EA
:1047A000B8EEE70AFDF762F8C84968461DF0FCFD5F
:1047B00000216846FCF738FF68461DF0B5FDC44986
:1047C00068461DF0F1FD00216846FCF72DFF6846A4
:1047D0001DF0AAFD2220FDF7A5F8D5ED147A0020E2
:1047E000B8EE670AFDF742F8B84968461DF0DCFDEF
:1047F00000216846FCF718FF68461DF095FDB54995
:1048000068461DF0D1FD00216846FCF70DFF6846A3
:104810001DF08AFD2220FDF785F8D5ED107A0020E5
:10482000B8EEE70AFDF722F8A84968461DF0BCFD7E
:1048300000216846FCF7F8FE68461DF075FDA649A4
:1048400068461DF0B1FD00216846FCF7EDFE6846A4
:104850001DF06AFD2220FDF765F8D5ED077A0020EE
:10486000B8EEE70AFDF702F8984968461DF09CFD8E
:1048700000216846FCF7D8FE68461DF055FD9749B3
:1048800068461DF091FD00216846FCF7CDFE6846A4
:104890001DF04AFD2220FDF745F895ED080A00209D
:1048A000FCF7E4FF894968461DF07EFD002168465B
:1048B000FCF7BAFE68461DF037FD894968461DF0D1
:1048C00073FD00216846FCF7AFFE68461DF02CFD25
:1048D0002220FDF727F895ED0B0A0020FCF7C6FF14
:1048E0007A4968461DF060FD68460021FCF79CFE91
:1048F00068461DF019FDAE6A6C46002E02F0BB80C2
:10490000012E23D1774968461DF04EFD00216846EF
:10491000FCF78AFE68461DF007FD2220FDF702F82D
:10492000714968461DF040FD00216846FCF77CFE99
:1049300068461DF0F9FC654968461DF035FD68467E
:104940000021FCF771FE68461DF0EEFC6B6A022B3D
:1049500002F08080032B23D1644920461DF024FD02
:1049600000212046FCF760FE20461DF0DDFC2220E1
:10497000FCF7D8FF5E4920461DF016FD00212046B9
:10498000FCF752FE20461DF0CFFC504920461DF09A
:104990000BFD20460021FCF747FE20461DF0C4FC1D
:1049A0002B68494D012B00F0B387C0F01C87022B08
:1049B00040F084804F4920461DF0F6FC002120463F
:1049C000FCF732FE20461DF0AFFC2220FCF7AAFFC8
:1049D000494920461DF0E8FC00212046FCF724FE52
:1049E00020461DF0A1FC394920461DF0DDFC0021C8
:1049F0002046FCF719FE20461DF096FC3F49204654
:104A00001DF0D2FC00212046FCF70EFE20461DF0D2
:104A10008BFC2220FCF786FFD5ED0F7A0020B8EE44
:104A2000E70AFCF723FF294920461DF0BDFC0021C1
:104A30002046FCF7F9FD20461DF076FC3049204663
:104A40001DF0B2FC00212046FCF7EEFD20461DF0D3
:104A50006BFC2220FCF766FFD5ED177A0020B8EE3C
:104A6000670AFCF703FF194920461DF09DFC002151
:104A70002046FCF7D9FD20461DF056FC2149204672
:104A80001DF092FC00212046FCF7CEFD20461DF0D3
:104A90004BFC2220FCF746FF95ED130A0020B8EEF0
:104AA000C00AFCF7E3FE094920461DF07DFC2046C4
:104AB0000021FCF7B9FD20461DF036FC04B070BDA6
:104AC0008007FF1F189202000814FF1F448B02008A
:104AD0002C92020040920200A4920200B8920200BE
:104AE0000493020034930200A89502001893020078
:104AF0006C930200549202007499020068920200C2
:104B00007C92020090920200B549B64C68461DF0B6
:104B10004BFC00216846FCF787FD68461DF004FC4D
:104B20002220FCF7FFFED4ED007A0020B8EEE70A61
:104B3000FCF79CFEAC4968461DF036FC0021684637
:104B4000FCF772FD68461DF0EFFBA84968461DF0B2
:104B50002BFC00216846FCF767FD68461DF0E4FB6E
:104B60002220FCF7DFFED4ED047A0020B8EE670ABD
:104B7000FCF77CFE9C4968461DF016FC0021684647
:104B8000FCF752FD68461DF0CFFB994968461DF0C1
:104B90000BFC00216846FCF747FD68461DF0C4FB8E
:104BA0002220FCF7BFFED4ED087A0020B8EEE70A19
:104BB000FCF75CFE8C4968461DF0F6FB0021684658
:104BC000FCF732FD68461DF0AFFB8A4968461DF0D0
:104BD000EBFB00216846FCF727FD68461DF0A4FBAF
:104BE0002220FCF79FFED4ED0C7A0020B8EEE70AF5
:104BF000FCF73CFE7C4968461DF0D6FB0021684668
:104C0000FCF712FD68461DF08FFB7B4968461DF0DE
:104C1000CBFB00216846FCF707FD68461DF084FBCE
:104C20002220FCF77FFED4ED0D7A0020B8EEE70AD3
:104C3000FCF71CFE6C4968461DF0B6FB0021684677
:104C4000FCF7F2FC68461DF06FFB6C4968461DF0EE
:104C5000ABFB00216846FCF7E7FC68461DF064FBEF
:104C60002220FCF75FFE94ED160A0020FCF7FEFD03
:104C70005D4968461DF098FB68460021FCF7D4FCAE
:104C800068461DF051FBA36B012B02F00283C2F0BA
:104C90006982022B7FF412AF594968461DF084FBEC
:104CA00000216846FCF7C0FC68461DF03DFB222051
:104CB000FCF738FE534968461DF076FB0021684634
:104CC000FCF7B2FC68461DF02FFB474968461DF013
:104CD0006BFB00216846FCF7A7FC68461DF024FB2F
:104CE000494968461DF060FB00216846FCF79CFCC2
:104CF00068461DF019FB2220FCF714FED4ED037A60
:104D00000020B8EE670AFCF7B1FD374968461DF090
:104D10004BFB00216846FCF787FC68461DF004FB4E
:104D20003A4968461DF040FB00216846FCF77CFCD0
:104D300068461DF0F9FA2220FCF7F4FDD4ED077A5D
:104D40000020B8EE670AFCF791FD274968461DF080
:104D50002BFB00216846FCF767FC68461DF0E4FA6F
:104D60002B4968461DF020FB00216846FCF75CFCDF
:104D700068461DF0D9FA2220FCF7D4FDD4ED0B7A59
:104D80000020B8EEE70AFCF771FD174968461DF0F0
:104D90000BFB00216846FCF747FC68461DF0C4FA8F
:104DA0001C4968461DF000FB00216846FCF73CFCEE
:104DB00068461DF0B9FA2220FCF7B4FD94ED150AFF
:104DC0000020FCF753FD084968461DF0EDFA00216C
:104DD0006846FCF729FC68461DF0A6FA04B070BDD1
:104DE000189202002013FF1F448B02002C92020035
:104DF00040920200A4920200B892020004930200C2
:104E00005492020074990200689202007C9202009F
:104E10009092020034930200BA49BB4C68461DF0E0
:104E2000C3FA00216846FCF7FFFB68461DF07CFAD8
:104E30002220FCF777FDD4ED017A0020B8EEE70AD6
:104E4000FCF714FDB14968461DF0AEFA0021684632
:104E5000FCF7EAFB68461DF067FAAD4968461DF0AD
:104E6000A3FA00216846FCF7DFFB68461DF05CFAF8
:104E70002220FCF757FDD4ED097A0020B8EEE70AAE
:104E8000FCF7F4FCA14968461DF08EFA0021684643
:104E9000FCF7CAFB68461DF047FA9E4968461DF0BC
:104EA00083FA00216846FCF7BFFB68461DF03CFA18
:104EB0002220FCF737FDD4ED057A0020B8EEE70A92
:104EC000FCF7D4FC914968461DF06EFA6846002153
:104ED000FCF7AAFB68461DF027FA256B012D01F0AF
:104EE0005086022D01F0C686002D7FF4E7AD8A4979
:104EF00068461DF059FA29466846FCF795FB684656
:104F00001DF012FA2220FCF70DFD844968461DF0C1
:104F10004BFA29466846FCF787FB68461DF004FA01
:104F20007A4968461DF040FA29466846FCF77CFB42
:104F300068461DF0F9F97A4968461DF035FA2946A8
:104F40006846FCF771FB68461DF0EEF92220FCF77D
:104F5000E9FCD4ED027A2846B8EEE70AFCF786FCB5
:104F60006A4968461DF020FA29466846FCF75CFB52
:104F700068461DF0D9F96B4968461DF015FA2946B7
:104F80006846FCF751FB68461DF0CEF92220FCF77D
:104F9000C9FCD4ED0A7A2846B8EEE70AFCF766FCAD
:104FA0005A4968461DF000FA29466846FCF73CFB62
:104FB00068461DF0B9F95C4968461DF0F5F92946C7
:104FC0006846FCF731FB68461DF0AEF92220FCF77D
:104FD000A9FC94ED060A2846B8EEC00AFCF746FC88
:104FE0004A4968461DF0E0F968462946FCF71CFB73
:104FF00068461DF099F961E54C4C236B032B3FF695
:105000005DADDFE813F00B07960621067C053D49F0
:10501000474D68461DF0C8F900216846FCF704FBBF
:1050200068461DF081F92220FCF77CFCD5ED017A61
:105030000020B8EEE70AFCF719FC344968461DF079
:10504000B3F900216846FCF7EFFA68461DF06CF9E9
:105050002F4968461DF0A8F900216846FCF7E4FADC
:1050600068461DF061F92220FCF75CFCD5ED037A5F
:105070000020B8EE670AFCF7F9FB244968461DF0EA
:1050800093F900216846FCF7CFFA68461DF04CF909
:10509000204968461DF088F900216846FCF7C4FAEB
:1050A00068461DF041F92220FCF73CFCD5ED027A60
:1050B0000020B8EEE70AFCF7D9FB144968461DF05A
:1050C00073F968460021FCF7AFFA68461DF02CF929
:1050D0002B68013B6C46042B3FF6F0ACDFE813F085
:1050E000CD071307BC07AB079A07124C2368052BA3
:1050F0003FF6E4ACDFE813F08E081E0B740ADD09FE
:105100004609F807189202002819FF1F448B020075
:105110002C9202004092020054920200AC980200CD
:10512000689202007C92020090920200C013FF1F5E
:105130007415FF1FAC15FF1F9449954D68461DF06F
:1051400033F900216846FCF76FFA68461DF0ECF869
:105150002220FCF7E7FBD5ED017A0020B8EEE70A44
:10516000FCF784FB8B4968461DF01EF90021684658
:10517000FCF75AFA68461DF0D7F8874968461DF0D3
:1051800013F900216846FCF74FFA68461DF0CCF889
:105190002220FCF7C7FBD5ED027A0020B8EE670AA3
:1051A000FCF764FB7B4968461DF0FEF80021684669
:1051B000FCF73AFA68461DF0B7F8784968461DF0E2
:1051C000F3F800216846FCF72FFA68461DF0ACF8AA
:1051D0002220FCF7A7FBD5ED097A0020B8EEE70AFC
:1051E000FCF744FB6B4968461DF0DEF86846002179
:1051F000FCF71AFA68461DF097F86B6B012B6C46AA
:1052000000F04C87C1F01584302B01F01284312B53
:1052100000F0448762495E4E20461DF0C5F800212B
:105220002046FCF701FA20461DF07EF82220FCF70C
:1052300079FB95ED0F0A0020FCF718FB5549204635
:105240001DF0B2F800212046FCF7EEF920461DF0D3
:105250006BF8544920461DF0A7F800212046FCF7C2
:10526000E3F920461DF060F82220FCF75BFB95ED8A
:105270000E0A0020FCF7FAFA464920461DF094F881
:1052800000212046FCF7D0F920461DF04DF82B6890
:10529000012B01F0E386C1F06B86022B7FF40EAC8C
:1052A000414920461DF080F800212046FCF7BCF95A
:1052B00020461DF039F82220FCF734FB3B492046FC
:1052C0001DF072F800212046FCF7AEF920461DF0D3
:1052D0002BF8304920461DF067F800212046FCF7E6
:1052E000A3F920461DF020F8314920461DF05CF856
:1052F00000212046FCF798F920461DF015F82220E1
:10530000FCF710FBD6ED077A0020B8EEE70AFCF7B1
:10531000ADFA204920461DF047F800212046FCF751
:1053200083F920461DF000F8224920461DF03CF884
:1053300000212046FCF778F920461CF0F5FF2220DA
:10534000FCF7F0FAD6ED087A0020B8EE670AFCF711
:105350008DFA104920461DF027F800212046FCF761
:1053600063F920461CF0E0FF134920461DF01CF8AD
:1053700000212046FCF758F920461CF0D5FF2220DA
:10538000FCF7D0FA96ED0C0AFFF788BB18920200E2
:105390001418FF1F448B02002C920200409202005E
:1053A000B892020004930200549202007499020021
:1053B000689202007C920200909202008449854D1E
:1053C00068461CF0F1FF00216846FCF72DF968469D
:1053D0001CF0AAFF2220FCF7A5FAD5ED007A0020E8
:1053E000B8EEE70AFCF742FA7B4968461CF0DCFF9E
:1053F00000216846FCF718F968461CF095FF7749CC
:1054000068461CF0D1FF00216846FCF70DF968469C
:105410001CF08AFF2220FCF785FAD5ED087A0020DF
:10542000B8EE670AFCF722FA6B4968461CF0BCFF2D
:1054300000216846FCF7F8F868461CF075FF6849DB
:1054400068461CF0B1FF00216846FCF7EDF868469D
:105450001CF06AFF2220FCF765FAD5ED047A0020E3
:10546000B8EEE70AFCF702FA5B4968461CF09CFFBD
:1054700000216846FCF7D8F868461CF055FF5949EA
:1054800068461CF091FF00216846FCF7CDF868469D
:105490001CF04AFF2220FCF745FAD5ED147A0020D3
:1054A000B8EE670AFCF7E2F94B4968461CF07CFF4E
:1054B00068460021FCF7B8F868461CF035FFEE6C32
:1054C0006C46002E01F03382012E00F09782AB6C07
:1054D000404D012B01F0D684C1F04584022B7FF4AE
:1054E000EDAA414920461CF05FFF00212046FCF751
:1054F0009BF820461CF018FF2220FCF713FA3B49CA
:1055000020461CF051FF00212046FCF78DF8204674
:105510001CF00AFF304920461CF046FF00212046BF
:10552000FCF782F820461CF0FFFE314920461CF0B3
:105530003BFF00212046FCF777F820461CF0F4FEE4
:105540002220FCF7EFF9D5ED037A0020B8EEE70A48
:10555000FCF78CF9204920461CF026FF002120464C
:10556000FCF762F820461CF0DFFE224920461CF0C2
:105570001BFF00212046FCF757F820461CF0D4FE04
:105580002220FCF7CFF9D5ED0B7A0020B8EE670AA0
:10559000FCF76CF9104920461CF006FF002120465C
:1055A000FCF742F820461CF0BFFE134920461CF0D1
:1055B000FBFE00212046FCF737F820461CF0B4FE25
:1055C0002220FCF7AFF995ED070AFFF767BA00BF95
:1055D000189202008014FF1F448B02002C920200DC
:1055E0004092020018930200549202007499020043
:1055F000689202007C92020090920200B549B64D7A
:1056000068461CF0D1FE00216846FCF70DF868469C
:105610001CF08AFE2220FCF785F9D5ED0C7A0020DB
:10562000B8EEE70AFCF722F9AC4968461CF0BCFE6C
:1056300000216846FBF7F8FF68461CF075FEA84994
:1056400068461CF0B1FE00216846FBF7EDFF684696
:105650001CF06AFE2220FCF765F9D5ED147A0020D3
:10566000B8EE670AFCF702F99C4968461CF09CFEFC
:1056700000216846FBF7D8FF68461CF055FE9949A3
:1056800068461CF091FE00216846FBF7CDFF684696
:105690001CF04AFE2220FCF745F9D5ED107A0020D7
:1056A000B8EEE70AFCF7E2F88C4968461CF07CFE8D
:1056B00000216846FBF7B8FF68461CF035FE8A49B2
:1056C00068461CF071FE00216846FBF7ADFF684696
:1056D0001CF02AFE2220FCF725F9D5ED047A0020E3
:1056E000B8EEE70AFCF7C2F87C4968461CF05CFE9D
:1056F00000216846FBF798FF68461CF015FE7B49C1
:1057000068461CF051FE00216846FBF78DFF684695
:105710001CF00AFE2220FCF705F995ED030A002093
:10572000FCF7A4F86D4968461CF03EFE002168466F
:10573000FBF77AFF68461CF0F7FD6D4968461CF0E0
:1057400033FE00216846FBF76FFF68461CF0ECFD56
:105750002220FCF7E7F895ED060A0020FCF786F812
:105760005E4968461CF020FE68460021FBF75CFF9E
:1057700068461CF0D9FD6E696C46002E01F0CA81A6
:10578000012E23D15B4968461CF00EFE00216846BD
:10579000FBF74AFF68461CF0C7FD2220FCF7C2F861
:1057A000554968461CF000FE00216846FBF73CFFA7
:1057B00068461CF0B9FD494968461CF0F5FD68468D
:1057C0000021FBF731FF68461CF0AEFDAB68023BE1
:1057D000052B3FF6E5A8DFE813F0440888087708B2
:1057E000660855089908454920461CF0DDFD002152
:1057F0002046FBF719FF20461CF096FD2220FCF7FF
:1058000091F83F4920461CF0CFFD00212046FBF7D0
:105810000BFF20461CF088FD304920461CF0C4FDDB
:1058200000212046FBF700FF20461CF07DFD354996
:1058300020461CF0B9FD00212046FBF7F5FE20466E
:105840001CF072FD2220FCF76DF8D5ED0D7A0020DA
:10585000B8EEE70AFCF70AF8204920461CF0A4FD40
:1058600000212046FBF7E0FE20461CF05DFD2649A6
:1058700020461CF099FD00212046FBF7D5FE20466E
:105880001CF052FD2220FCF74DF8D5ED157A0020D2
:10589000B8EE670AFBF7EAFF104920461CF084FDCA
:1058A00000212046FBF7C0FE20461CF03DFD1749B5
:1058B00020461CF079FD00212046FBF7B5FE20466E
:1058C0001CF032FD2220FCF72DF895ED110AFFF7B0
:1058D000E5B800BF189202000814FF1F448B0200B5
:1058E0002C92020040920200A4920200B8920200A0
:1058F0000493020034930200A8950200549202001F
:10590000AC980200689202007C9202009092020021
:10591000BE4920461CF048FD00212046FBF784FECE
:1059200020461CF001FD2220FBF7FCFFB849204671
:105930001CF03AFD00212046FBF776FE20461CF0C5
:10594000F3FCB44920461CF02FFD00212046FBF754
:105950006BFE20461CF0E8FCAF4920461CF024FDFD
:1059600000212046FBF760FE20461CF0DDFC2220D3
:10597000FBF7D8FFD5ED0E7A0020B8EEE70AFBF76B
:1059800075FFA44920461CF00FFD00212046FBF7BF
:105990004BFE20461CF0C8FCA04920461CF004FD2C
:1059A00000212046FBF740FE20461CF0BDFC2220D3
:1059B000FBF7B8FFD5ED167A0020B8EE670AFBF7C3
:1059C00055FF944920461CF0EFFC00212046FBF7D0
:1059D0002BFE20461CF0A8FC914920461CF0E4FC5C
:1059E00000212046FBF720FE20461CF09DFC2220D3
:1059F000FBF798FF95ED120AFFF750B88949684602
:105A00001CF0D2FC00216846FBF70EFE68461CF035
:105A10008BFC2220FBF786FF834968461CF0C4FC00
:105A200000216846FBF700FE68461CF07DFC7949C2
:105A300068461CF0B9FC00216846FBF7F5FD684696
:105A40001CF072FC794968461CF0AEFC00216846E7
:105A5000FBF7EAFD68461CF067FC2220FBF762FFBB
:105A6000D5ED0C7A0020B8EEE70AFBF7FFFE694996
:105A700068461CF099FC00216846FBF7D5FD684696
:105A80001CF052FC6A4968461CF08EFC00216846F6
:105A9000FBF7CAFD68461CF047FC2220FBF742FFDB
:105AA00095ED0F0A0020FBF7E1FE5A4968461CF00D
:105AB0007BFC00216846FBF7B7FD68461CF034FC10
:105AC0005C4968461CF070FC00216846FBF7ACFDA1
:105AD00068461CF029FC2220FBF724FF95ED0E0AF6
