:1000000000000320D1010000C17C0300797C0300C3
:10001000797C0300797C0300797C0300797C030000
:10002000797C0300797C0300797C0300C17C0300A8
:10003000C17C0300797C030065A8030069A8030064
:10004000C17C0300C17C0300C17C0300C17C0300B0
:10005000C17C0300C17C0300C17C0300C17C0300A0
:10006000C17C0300C17C0300C17C0300C17C030090
:10007000C17C0300C17C0300C17C0300C17C030080
:10008000C17C0300C17C0300C17C0300C17C030070
:10009000C17C0300C17C0300C17C0300C17C030060
:1000A000C17C0300C17C0300C17C0300C17C030050
:1000B000C17C0300C17C0300C17C0300598903009B
:1000C000C17C0300C17C0300C17C03007D90030060
:1000D000C17C030019980300C17C0300C17C0300AC
:1000E000C17C0300C17C0300A1720300C17C03003A
:1000F000C17C0300C17C0300C17C0300C17C030000
:1001000045AD030059AD03006DAD030081AD0300A3
:10011000C17C0300099B0300C17C0300C17C030078
:10012000C17C0300C17C0300C17C0300C17C0300CF
:10013000C17C0300C17C0300C17C0300C17C0300BF
:10014000C17C0300C17C0300C17C0300C17C0300AF
:10015000C17C0300C17C0300C17C0300C17C03009F
:10016000C17C0300C17C0300C17C0300C17C03008F
:10017000C17C0300C17C0300C17C0300C17C03007F
:10018000C17C0300C17C0300C17C0300C17C03006F
:10019000C17C0300C17C0300C17C0300C17C03005F
:1001A000C17C0300C17C0300C17C0300C17C03004F
:1001B000C17C0300C17C0300C17C0300C17C03003F
:1001C000C17C0300C17C0300C17C0300C17C03002F
:1001D0005C4B4CF2205210B51A804DF628121A8052
:1001E00000BF00BF37F070FD574B4FF030621A6010
:1001F000564A9A60564ADA60564B4FF470021A60BB
:10020000554B564A1A60564B1A78110703D51A787F
:1002100042F008021A70534B5349AA221A70534AEB
:10022000534B8B4204D252F8040F43F8040BF8E707
:10023000504B514900228B4202D243F8042BFAE77B
:100240004E494F4A002352F8230041F8230001335E
:10025000742BF8D14B4B4C4A802103F8011B93427D
:10026000FBD14A4B454A1A60494B8A221A70A3F5C2
:10027000805324225A70A0221A709A799207FCD5D2
:100280009A79D406FCD4434A937903F00C03082BE3
:10029000FAD1414B60221A7002331A78802AFCD1BD
:1002A0003C4B00221A714E225A719A799006FCD565
:1002B0009979384A4906FBD5384B394919600821E4
:1002C000596020231370937903F00C030C2BFAD19F
:1002D000344B354A1A60354A354C136813F4807331
:1002E00003D123604FF4A8531360324B324A1A6093
:1002F00000225A60072243F8042C304AC3F80C2D20
:1003000062B637F065FE2368DA0705D52C4837F06A
:10031000BDFD2C4B2C4A1A602C4B1B785B0609D573
:10032000284C294B22689A4204D1254837F0AEFD6B
:100330000023236037F0CEFC3DF038FC3AF02AFD74
:10034000FEE700BF0E20054030800440823F0400DD
:100350000100002B88ED00E0002008E0030000858C
:1003600002D0074000E007404813FF1F8C9E0400A6
:100370003007FF1F4813FF1F7C24FF1F0002FF1FD1
:100380000000000000E400E064E400E008ED00E0AC
:10039000005006400040064001E007404480044011
:1003A0000000070304800440C010050010D0034083
:1003B00014D0034014E000E07FA9030000002020D7
:1003C000FB70CB621CE00340A5C3945A00F00740C9
:1003D000FFFFFFFFFFFFFFFFFFFFFFFFFFFFFFFF2D
:1003E000FFFFFFFFFFFFFFFFFFFFFFFFFFFFFFFF1D
:1003F000FFFFFFFFFFFFFFFFFFFFFFFFFFFFFFFF0D
:10040000FFFFFFFFFFFFFFFFFFFFFFFFDEF9FFFF23
:1004100010B5054C237833B9044B13B10448AFF33E
:1004200000800123237010BD4813FF1F000000004F
:10043000889E0400084B10B51BB108490848AFF36B
:1004400000800848036803B910BD074B002BFBD0A0
:10045000BDE81040184700BF000000004C13FF1F0C
:10046000889E04004813FF1F000000000020704712
:10047000704700BF036D0BB101207047406D003025
:1004800018BF0120704700BF00690B699842D4BFB4
:1004900000200120704700BF80698B690028B8BF29
:1004A0004042002BB8BF5B429842D4BF00200120DD
:1004B000704700BFF0B586460120DEF85870DEF8C0
:1004C0003030BA6A106079683A680A447A600EF18E
:1004D000300493B15A69002A08DB9A6A10605E689A
:1004E00019683D695A6931445960521B19690A44B7
:1004F0005A6154F8043F002BECD1DEF82430144A42
:10050000DEF81840DEF86C0000211160DB00516855
:1005100003F1804303F5603321440D241961146015
:10052000DA68502122F08002DA60D96000B1F0BDB3
:100530007A68FB689A4200D0F0BDDEF85C30012298
:100540008EF82820002BF7D0BDE8F040184700BFF8
:1005500000800340C36A00F12C0233B10120D96A44
:1005600052F8043F0860002BF9D1704710B50446DB
:10057000806D18B13DF06AFB0023A365236D2BB19C
:1005800004F11800BDE8104034F0EAB9636D002BA7
:10059000F6D110BDF0B5002395B01A4605461831C6
:1005A00004A84FF47A74224F8DF804308DF80C3083
:1005B000129313930294009734F026FA129B002BA7
:1005C0002BD05C203AF0EEFB04461A4B9DF8040059
:1005D000029A1949236000269DF80C302073A1600F
:1005E000226104A9237504F11800666034F08AF9C9
:1005F0006368124AA76001334FF47A71A6652E71C1
:100600002E732C616360A9602A600D4B009304A8CF
:1006100034F0A6F9284615B0F0BD139B002BD0D1BD
:10062000064A2B71AC602B732B612A60EDE700BF8B
:1006300060180400B018040018180400841804009E
:100640003C180400836C13B1184632F005BCC06C32
:1006500008B130F049BA4FF0FF30704700B5836CF5
:1006600083B063B1184601220DF1070132F024FB7B
:1006700001280CD19DF8070003B05DF804FBC06CA5
:1006800028B101220DF1070130F05AF9F0E74FF0DF
:10069000FF30F1E7836D012280F890205B6872B62D
:1006A000DFED0B6AD0ED207A90ED1F7A67EEA67A27
:1006B000F4EEC77AC0ED1E7AD0ED227AF1EE10FA90
:1006C000D8BFF1EE677AC0ED237A62B6704700BFFB
:1006D00000000000036D9BB11A7812F0700F00D17A
:1006E000704710B504460021184632F0D7FC606D03
:1006F00028B100220023BDE8104030F00DBA10BD33
:10070000406D0028ECD090F8313013F0500FE7D056
:100710000022002330F000BA38B5846D0CB12046B9
:1007200038BD05464FF480703DF088FA0146A86553
:1007300080B1286D0C7028B14FF4807233F01AFF2D
:10074000AC6DECE7686D40B14FF4807231F054FD50
:10075000AC6DE4E7024CAC65E1E70C46DFE700BFB7
:100760006413FF1F8A79A2F150031B0620D4F0B551
:100770004B79046D0D798E784F780978013385B007
:1007800002F26C72DBB244B103918DE8E0002046C6
:10079000022132F09BFD05B0F0BD406D0028FAD07B
:1007A00003918DE8E000022130F070FF05B0F0BD4C
:1007B00000207047D0B5046D8CB1012B08BF002A12
:1007C00001D30020D0BD1146204632F067FC00283E
:1007D000F7D0204632F0E2FD0028F2D0D0BD446DC3
:1007E000002CEED0204630F097F90028E9D02046C2
:1007F000BDE8D04030F0F8BFF0B5036D83B00C46D3
:100800002BB318460DF1060201A932F0C9F8D8B190
:10081000BDF80430BDF8062003B9AAB102F01F06E6
:10082000C3F343155912C2F345177600013D01F594
:10083000EA6103F01F03D21226706571A171237162
:100840006770A27003B0F0BD002003B0F0BD406D32
:100850000028F9D00DF1060201A930F011F8D6E711
:10086000F0B5036D83B00C462BB318460DF10602AC
:1008700001A932F085F8D8B1BDF80430BDF80620E2
:1008800003B9AAB102F01F06C3F343155912C2F30C
:1008900045177600013D01F5EA6103F01F03D2120E
:1008A00026706571A17123716770A27003B0F0BDED
:1008B000002003B0F0BD406D0028F9D00DF1060214
:1008C00001A92FF0CDFFD6E7036D13B158690021C0
:1008D0007047436D13B193E80300704718461946FB
:1008E000704700BF036D13B1D86900217047436D95
:1008F00013B118695969704718461946704700BF07
:10090000036D13B1184632F0D7B9406D08B130F01D
:1009100017B84FF0FF307047036D13B1184632F02F
:100920009BBA406D08B130F0DFB84FF0FF30704730
:10093000036D33B11B7813F0700F14BF012000203A
:100940007047406D30B190F8313013F0500F14BF44
:1009500001200020704700BF8A79A2F150031B06D6
:1009600020D4F0B54B79046D0D798E784F780978E5
:10097000013385B002F26C72DBB244B103918DE8B1
:10098000E0002046042132F0A1FC05B0F0BD406D2E
:100990000028FAD003918DE8E000042130F076FEC3
:1009A00005B0F0BD00207047036963B11A680749BC
:1009B00092698A4208D1186D08B132F081BC586D35
:1009C00008B130F0F7BC704718461047D109000055
:1009D000036D13B1184632F073BC406D08B130F0AE
:1009E000E9BC7047836C13B1184632F069BCC06C27
:1009F00008B130F0DFBC704703698BB110B41C68DC
:100A00000D48E468844211D1186D18B15DF8044BAB
:100A100032F000BD586D28B15DF8044B30F054BF82
:100A20000020704700205DF8044B704718462346AD
:100A30005DF8044B184700BFC10A0000036973B199
:100A40001A68084952698A4207D1186D08B132F014
:100A500003BA586D18B130F047B8184610474FF038
:100A6000FF30704719090000036923B310B51968F6
:100A7000124A8C68944282B014D1186D48B1012298
:100A80000DF1070132F018F990B19DF8070002B09E
:100A900010BD586D0028F8D001220DF107012FF08C
:100AA0004FFFF1E7184601220DF10701A047EBE7E0
:100AB0004FF0FF30EBE74FF0FF30704701090000C7
:100AC000036D13B1184632F0A5BC406D08B130F08B
:100AD000FBBE7047836C13B1184632F09BBCC06CF0
:100AE00008B130F0F1BE704700B5836C83B08DF86B
:100AF000071043B1184601220DF1070132F08AFCBC
:100B000003B05DF804FBC06C0028F9D001220DF1A0
:100B1000070130F0D9FE03B05DF804FB10B503699E
:100B200082B08DF80710BBB11968104ACC689442A6
:100B300015D1186D30B101220DF1070132F06AFCB8
:100B400002B010BD586D0028FAD001220DF1070146
:100B500030F0BAFE02B010BD184602B010BD184603
:100B600001220DF10701A04702B010BDC10A00002B
:100B7000026D62B1137803F0080303F0FF0003B3C2
:100B8000D3695069181A48BF6FF000407047416D33
:100B9000C1B191F8313003F0080303F0FF0083B1D5
:100BA000D1E90423D1E90001101A30B463EB01014B
:100BB00000256FF000448D4208BF844200D22046D9
:100BC00030BC704708467047826C62B1137803F0FE
:100BD000080303F0FF0003B3D3695069181A48BF34
:100BE0006FF000407047C16CC1B191F8313003F033
:100BF000080303F0FF0083B1D1E90423D1E9000128
:100C0000101A30B463EB010100256FF000448D42EF
:100C100008BF844200D2204630BC70470846704767
:100C2000006970B30368184A1B6993420ED1026DC4
:100C30006AB1137803F0080303F0FF000BB3D36924
:100C40005069181A48BF6FF0004070471847416D4F
:100C5000C1B191F8313003F0080303F0FF0083B114
:100C6000D1E90423D1E90001101A30B463EB01018A
:100C700000256FF000448D4208BF844200D2204618
:100C800030BC704708467047710B0000D0B4039C1D
:100C900016461F4634B1012C1ED0022C0DD0002068
:100CA000D0BC7047046DDCB1012B08BF002AF6D21E
:100CB00020461146D0BC32F0F1B9036DB3B1DA6908
:100CC000B61847F10007012F08BF002EE7D23146C2
:100CD0001846D0BC32F0E2B9036D8BB15A69EFE728
:100CE000406D0028DBD0D0BC2FF016BF406D00282F
:100CF000D5D0D0E9042392197B41D0BC2FF00CBF92
:100D0000406D0028CBD0D0E9002392197B41EAE75F
:100D100038B50446806D0C4B236018B13CF096FF4B
:100D20000023A365236D04F118054BB1284633F069
:100D300017FE064BA360284633F012FE204638BD4E
:100D4000636D002BF2D1F4E7B01804003C180400E6
:100D500038B50446806D0E4B236018B13CF076FF29
:100D60000023A365236D04F118056BB1284633F009
:100D7000F7FD084BA360284633F0F2FD20465C21C6
:100D80003AF014F8204638BD636D002BEED1F0E741
:100D9000B01804003C18040070B505686C68013C8C
:100DA00006466C6014B10023336070BD2B68204A86
:100DB000DB6A93422DD1A86D10B13CF047FFAC65C2
:100DC0002B6D63B305F1180033F0CAFD3468002CB5
:100DD000E9D02368174A5B6893421DD1A06D164B7A
:100DE000236018B13CF032FF0023A365236D04F1AA
:100DF0001805C3B1284633F0B3FD104BA360284655
:100E000033F0AEFD20465C2139F0D0FF0023336083
:100E100070BD28469847D9E720469847C3E76B6DD1
:100E2000002BCFD1D2E7636D002BE3D1E5E700BF04
:100E30006D050000510D0000B01804003C180400BE
:100E400070B50469244B036005461CB16668013E19
:100E500066600EB1284670BD2368204ADB6A934263
:100E60002CD1A06D10B13CF0F1FEA665236D5BB3F3
:100E700004F1180033F074FD2C69002CEAD02368CB
:100E8000174A5B6893421CD1A06D164B236018B1C2
:100E90003CF0DCFE0023A365236D04F11806BBB112
:100EA000304633F05DFD104BA360304633F058FD03
:100EB00020465C2139F07AFF284670BD20469847CD
:100EC000DAE720469847C5E7636D002BD0D1D3E71A
:100ED000636D002BE4D1E6E7841804006D05000083
:100EE000510D0000B01804003C18040070B50569ED
:100EF000284B036004461DB16E68013E6E602EB142
:100F00002046142139F052FF204670BD2B68224A3A
:100F1000DB6A934230D1A86D10B13CF097FEAE650C
:100F20002B6D7BB305F1180033F01AFD2569002DF8
:100F3000E6D02B68194A5B68934220D1A86D184B04
:100F40002B6018B13CF082FE0023AB652B6D05F1E0
:100F50001806DBB1304633F003FD124BAB60304670
:100F600033F0FEFC28465C2139F020FF2046142196
:100F700039F01CFF204670BD28469847D6E7284622
:100F80009847BDE76B6D002BCCD1CFE76B6D002B85
:100F9000E0D1E2E7841804006D050000510D000067
:100FA000B01804003C180400036A8B4210B523D02B
:100FB000C369994200D010BD8369002BFBD072B683
:100FC000194AC369846900211160DB00516803F18B
:100FD000804303F5603321440D2419611460DA68FD
:100FE000502122F08002DA60D96062B6006903689D
:100FF000BDE810405B6818470446006903689B68B9
:10100000984794F82430002BD5D004F1080039F02B
:1010100077FE0023E069636036F02AF9206ABDE8B4
:10102000104036F025B900BF008003402DE9F041A3
:101030008568002D31D0816D836F04464868D4F8EF
:10104000AC101B1A002BB8BF5B428B423ADBD4F8C2
:10105000B0108B422A4608DBE16F8B4265DB936858
:1010600023F002039360BDE8F081D4F888100029D2
:10107000F5D02B683B4A93421ED96A683A48B0FBC8
:10108000F1F19B1A99420AD3CB1A002401200322C2
:10109000AC60E8602B60AA602960BDE8F0816069FF
:1010A0000368002601240322AE601B68EC602960FF
:1010B000AA60BDE8F04118472B4BB3FBF1F1296062
:1010C000BDE8F081D4E92401D4F8A82002FB03F3A1
:1010D000C61841F10007304639463CF055FB07EE93
:1010E000900AB1EEE70AB4EE400AF1EE10FA2ED102
:1010F000FDEEC07A2A4617EE903A17EE901ADBB151
:10110000002DB6D11949184D0E68B5FBF3F51EB187
:1011100002210120B047A268002001210323906032
:10112000D16015609360BDE8F081CB1AD4F8A82097
:10113000D4E92601013BC9E7002D90D10B4B1B6878
:10114000002B8CD0022101209847A26887E73946FE
:1011500030463CF019FB00EE100A3AF045FDA56858
:10116000C6E700BF7FA90300008793031C21FF1F70
:1011700070B5044608460D463DF002FE236802465F
:10118000294620465B68BDE87040184738B50546DB
:1011900039F024FE0446284639F046FE204438BD86
:1011A00038B5044608460D463DF0EAFD2368024680
:1011B00029465B68204698470546204639F034FEAC
:1011C000284438BD38B5054639F082FE0446284625
:1011D00039F02AFE204438BD38B5054639F078FE8E
:1011E0000446284639F020FE204438BD38B50A228E
:1011F0000023054639F02CFE0446284639F014FE3B
:10120000204438BD38B5C9B2054639F069FE0446F8
:10121000284639F009FE204438BD00BF10B5044609
:10122000083039F06DFD0023E069636036F020F886
:10123000206ABDE8104036F01BB800BF70B54368A7
:101240000446C9B1002B2CD01A682348824219D910
:101250005868224DB5FBF1F1121A914217D220695C
:1012600002680026012503249E601268DD60196073
:101270009C60BDE8704010472BB39A6822F00202D0
:101280009A6070BD154AB2FBF1F1196070BD8A1AFF
:101290000025012403209D60DC601A6098601960BD
:1012A00070BD0F4A0D4D1268B5FBF1F51AB1022160
:1012B0000120904763680020012103229860D960D3
:1012C0001D609A6070BD064B1B68002BD5D00221B3
:1012D000012098476368D0E77FA903000087930344
:1012E0001C21FF1FD0ED1F7A90ED1E7A38B5F4EE69
:1012F000477A836DF1EE10FA04465A6833D1FDEE59
:10130000C77A17EE905A94F890200AB1002D4AD06F
:101310009A68AA4226D0002D1B68ACBF01224FF06C
:10132000FF329A4215D004F12801012008E0136829
:101330005B42012B13600BBF126B536B1360186081
:1013400051F8042F002AF2D1636F03EB83031B01D2
:1013500020D185EAE571A1EBE571201DFFF76EFF55
:10136000A36D9D6038BDD0ED236AF5EEC06A77EEBF
:10137000A67AF1EE10FAB4EEE77A0EDDF1EE10FA8D
:10138000D8BFF0EE477ABDEEE77AC4ED1F7A17EECC
:10139000105AB8E7013BFDD1DBE7F1EE10FA58BF78
:1013A000F0EE477AEFE704F10C0039F0A9FC206A6F
:1013B000A56035F05DFF606A35F05AFFA36D9D6052
:1013C00084F8905038BD00BF10B5334C33480C2121
:1013D00039F0E2F81021204639F07AFD204639F044
:1013E00023FD0E212E4839F0D7F85421204639F03C
:1013F0006FFD204639F018FD0F212A4839F0CCF84E
:101400004C21204639F064FD204639F00DFD1021B5
:10141000254839F0C1F8E421204639F059FD20462D
:1014200039F002FD0F21214839F0B6F8602120463D
:1014300039F04EFD204639F0F7FC0F211C4839F0F9
:10144000ABF87021204639F043FD204639F0ECFC22
:101450001421184839F0A0F87821204639F038FDD9
:10146000204639F0E1FC1321134839F095F86C213E
:10147000204639F02DFD204639F0D6FC10210F48CA
:1014800039F08AF82046342139F022FD2046BDE8A3
:10149000104039F0C9BC00BFE808FF1F6419040000
:1014A000741904008419040094190400A819040094
:1014B000B8190400C8190400E0190400F419040064
:1014C00010B509211E4839F067F81E4839F0ACFC08
:1014D000FE211D482EF052FE18BB0A211A482EF09C
:1014E0004DFE98B909211848184C2EF047FE18BB3C
:1014F00020600C21164839F04FF82168114839F066
:10150000E7FC1048BDE8104039F08EBC0F4C114884
:101510000A231946236039F03FF80A4839F084FC61
:10152000E7E70A4C0C4801230921236039F034F81D
:10153000044839F079FCDCE708480923E9E700BFF3
:10154000081A0400E808FF1FF01BFF1F7C1AFF1F8A
:10155000381A0400201A0400141A04002C1A04007B
:1015600070B52DED028B044684B0002601A83DF035
:1015700007FC014601A839F00FF8524839F054FC35
:10158000236820465B6998470021C5B24E4839F070
:1015900003F84C4839F048FC21214C4838F0FCFF56
:1015A0003146484839F094FC0421494838F0F4FFAA
:1015B000284639F075F80221464838F0EDFF2946F3
:1015C000404839F085FC3F4839F02EFC042D71D09D
:1015D000FF2D01A83CD001AB9D553DF0D1FB01464C
:1015E00001A838F0D9FF374839F01EFC01360B2E20
:1015F000BCD101A83CF0CAFA04213748B0EE408AB9
:10160000F0EE608A38F0C8FF01A83DF0B9FB014652
:1016100001A838F0C1FF2B4839F006FC07212F48FC
:1016200038F0BAFFB0EE480AF0EE680A0421254807
:1016300039F056FC234839F0F7FBB0EE480AF0EEDB
:10164000680A04B0BDEC028B70BD23685B699847E3
:10165000236820461B69984700282046F5DC01A82E
:101660003CF094FA04211C48B0EE408AF0EE608A07
:1016700038F092FF01A83DF083FB014601A838F045
:101680008BFF104839F0D0FB0721144838F084FF55
:10169000B0EE480AF0EE680A04210A4839F020FC4E
:1016A000084839F0C1FB01A83CF070FA04B0BDEC69
:1016B000028B70BD19210A4838F06EFF014839F0DD
:1016C000B3FB93E7E808FF1F6C900400481A04007E
:1016D0006C1A040008760400741A04007C1A0400D2
:1016E000841A0400FFFFFFFF042810D8DFE800F091
:1016F0000C090F0603000A48FFF732BF0948FFF73D
:101700002FBF0948FFF72CBF0848FFF729BF9FEDFF
:10171000020B7047AFF30080000000000000F0BF34
:10172000C008FF1FAC08FF1F9808FF1FE808FF1F35
:1017300038B5434D4348EA6BAB6B95ED107AD5ED68
:10174000127A414C03FB02F32DED048B08EE103AA4
:10175000B8EE488ADFED3D8A28EE078A0D2167EE54
:10176000A88AF0EE409A38F017FF18EE100A3BF006
:101770009FFB41EC100B0221204639F0B1FB2046C3
:1017800039F052FB1121324838F006FF286C3BF04B
:101790008FFB41EC100B0221204639F0A1FB2046C3
:1017A00039F042FB0F212B4838F0F6FE89EEA89A5B
:1017B00018EE900A3BF07CFB41EC100B0221204616
:1017C00039F08EFB204639F02FFB1021224838F0EB
:1017D000E3FE19EE900A3BF06BFB41EC100B02218B
:1017E000204639F07DFB204639F01EFB07211B48BF
:1017F00038F0D2FE19EE100A3BF05AFB41EC100B08
:101800000221204639F06CFB28EE098A204639F087
:101810000BFB0821124838F0BFFE18EE100A3BF00F
:1018200047FB41EC100B0221204639F059FB2046C2
:1018300039F0FAFAB0EE480ABDEC048B38BD00BFAF
:101840003C17FF1FC81A0400E808FF1FDB0FC94040
:10185000D81A0400EC1A0400FC1A0400101B04003F
:10186000181B040038B5434D4348EA6DAB6D95ED48
:10187000187AD5ED1A7A414C03FB02F32DED048B57
:1018800008EE103AB8EE488ADFED3D8A28EE078A66
:101890000D2167EEA88AF0EE409A38F07DFE18EE32
:1018A000100A3BF005FB41EC100B0221204639F0F9
:1018B00017FB204639F0B8FA1321324838F06CFE95
:1018C000286E3BF0F5FA41EC100B0221204639F06E
:1018D00007FB204639F0A8FA0F212B4838F05CFEB0
:1018E00089EEA89A18EE900A3BF0E2FA41EC100B50
:1018F0000221204639F0F4FA204639F095FA1021F9
:10190000224838F049FE19EE900A3BF0D1FA41EC3A
:10191000100B0221204639F0E3FA204639F084FA10
:1019200007211B4838F038FE19EE100A3BF0C0FAC8
:1019300041EC100B0221204639F0D2FA28EE098A38
:10194000204639F071FA0821124838F025FE18EEC9
:10195000100A3BF0ADFA41EC100B0221204639F0A1
:10196000BFFA204639F060FAB0EE480ABDEC048BAD
:1019700038BD00BF3C17FF1FC81A0400E808FF1F4E
:10198000DB0FC940241B0400EC1A0400FC1A0400FD
:10199000101B0400181B04001D4A1E4892ED117A0A
:1019A000D16B936BC0EE077A10B503FB01F30A21EC
:1019B000194C2DED028B08EE103AB8EE488AF0EE85
:1019C000408A28EE278A38F0E7FD18EE900A3BF0AF
:1019D0006FFA41EC100B0221204639F081FA2046C3
:1019E00039F022FA1A210D4838F0D6FD18EE100A07
:1019F0003BF05EFA41EC100B0221204639F070FA00
:101A0000204639F011FAB0EE480ABDEC028B10BD49
:101A10003C17FF1F381B0400E808FF1F441B04008D
:101A20001D4A1E4892ED197AD16D936DC0EE077A6A
:101A300010B503FB01F30A21194C2DED028B08EEC2
:101A4000103AB8EE488AF0EE408A28EE278A38F03D
:101A5000A3FD18EE900A3BF02BFA41EC100B02218B
:101A6000204639F03DFA204639F0DEF91A210D48BA
:101A700038F092FD18EE100A3BF01AFA41EC100B08
:101A80000221204639F02CFA204639F0CDF9B0EE8B
:101A9000480ABDEC028B10BD3C17FF1F381B040029
:101AA000E808FF1F601B04000138032840D8DFE866
:101AB00000F026110A02204B5B6D002B36D0012B63
:101AC00036D1FFF7ADBF1C4B5B6B6BB3012B2FD136
:101AD000FFF762BF184AD2F8B83003B3D2ED317ABB
:101AE000D2F8C010D2F8BC3080EE277A03FB01F3A5
:101AF00000EE103AF8EE407A27EE870A70470E4A59
:101B000092ED057A1169D368C0EE077A03FB01F301
:101B100000EE103AB8EE400A20EE270A7047D2EDE8
:101B20000A7A516A136ADFE7FFF702BEFFF79ABE2F
:101B30009FED020A704700BF3C17FF1F0000000026
:101B400038B52F4D2F4C95ED007AD4ED007AB5EED7
:101B5000C07AF1EE10FA48BFB1EE477AF5EEC07ADE
:101B600048BF85ED007AF1EE10FA44BFF1EE677AD6
:101B7000C4ED007A67EEA77A2DED048BE7EE077AC5
:101B800008EE100A17EE900A08EE901A3BF090F952
:101B900041EC100B39F068FF51EC100B3BF0D4FC1A
:101BA00094ED006AD5ED006A07EE900A87EE867A1A
:101BB00087EEA69AF8EEE88AB8EEC88A67EE287A29
:101BC00017EE900A3BF074F941EC100B39F0ACFEC3
:101BD00051EC100B3BF0B8FC68EE097A206017EE70
:101BE000900A3BF065F941EC100B39F09DFE51EC89
:101BF000100B3BF0A9FCBDEC048B286038BD00BF86
:101C00000016FF1F981BFF1F4B4B1B68013B70B555
:101C10000A2B00F29080DFE803F03648628E8E06D1
:101C2000060606784800454B454C1868454E464D1B
:101C3000FFF75AFD51EC100B3BF03EFC434AE062CB
:101C400003461168736120464C226B6435F072FFC5
:101C50003F4B30461968602235F06CFF3D4B2846FB
:101C600019686C2235F066FF16213B4838F094FC69
:101C7000E16A3A4800230A2239F0EAF83748BDE819
:101C8000704039F0D1B82D4B354C1868FFF72CFD5A
:101C900051EC100B3BF010FC324B60611968204690
:101CA0007822BDE8704035F045BF244B2E4C1868B3
:101CB000FFF71AFD51EC100B3BF0FEFB034601460B
:101CC0002648636139F004F9244839F0ADF8274B10
:101CD000204619687822BDE8704035F02BBF174BBD
:101CE000234C1868FFF700FD51EC100B3BF0E4FBB0
:101CF000204B606119682046342235F01BFF162105
:101D0000154838F049FC6169B3E70C4B1A4C186868
:101D1000FFF7EAFC51EC100B3BF0CEFB174BA06237
:101D200019682046702235F005FF16210A4838F060
:101D300033FCA16A9DE770BD7C07FF1F9007FF1F62
:101D40004C18FF1FDC16FF1F6819FF1F8007FF1FBD
:101D5000A807FF1F9407FF1F7C1B0400E808FF1F54
:101D60006016FF1F9C07FF1F3C15FF1F6C07FF1F1E
:101D70003419FF1F7407FF1F901AFF1FA007FF1FD2
:101D800038B52A21A748A84C38F006FCA74839F0F6
:101D90004BF80E21A64838F0FFFB2168A34839F024
:101DA00097F8A24839F040F82368013B0A2B07D87E
:101DB000DFE803F013273B5B0607070707802700D0
:101DC00038BD9C4C2368013B032B00F29F80DFE869
:101DD00013F059011201FB008700974B974C1868CC
:101DE000FFF782FC51EC100B3BF066FBA36D013B4F
:101DF0000246032BE4D8DFE813F0D600C600B60095
:101E0000A6008D4B1868FFF76FFC51EC100B3BF0F0
:101E100053FB8B4A936D042B00F28D80DFE813F0A7
:101E20008A00AF01AD01AB01A901864C2368032BE9
:101E300000F0A781042B10D17F4B1868FFF754FCEA
:101E400051EC100B3BF038FB1621E0617E4838F076
:101E5000A3FBE1697548FFF7C9F97C4B794819681C
:101E60003422BDE8384035F065BE794C2368013B2B
:101E70000D2BA5D801A252F823F000BF432100008A
:101E800013210000E3200000B3200000C11D00006A
:101E9000C11D0000C11D0000C11D0000C11D0000CA
:101EA000C11D00004321000013210000E3200000B9
:101EB000B3200000674C636C012B00F07481022B8F
:101EC00000F07B81032B00F08281042B00F08981DC
:101ED000614B604819687022BDE8384035F02ABE71
:101EE000554B5E4D1868FFF7FFFB51EC100B3BF0B4
:101EF000E3FA5B4A544903464C48E3636B6253651B
:101F0000FFF736F9E16B4948FFF770F9554B49483F
:101F100019684C2235F00EFE534B50481968602268
:101F200035F008FE514B4E4819686C22BDE8384028
:101F300035F000BE50614E4B414819687822BDE82B
:101F4000384035F0F7BD4B4B626219683B48782248
:101F500035F0F0FD48493548FFF70AF9616A334822
:101F6000FFF73AF938BD434B2262196833487822AB
:101F700035F0E0FD34492D48FFF7FAF8216A2B4887
:101F8000FFF72AF938BD3B4BE26119682B487822EC
:101F900035F0D0FD39492548FFF7EAF8E1692348D3
:101FA000FFF71AF938BD36492048A261FFF7E0F87B
:101FB000A1691E48FFF710F92E4B204819687822B6
:101FC000BDE8384035F0B6BD1B4B244D1868FFF70F
:101FD0008BFB51EC100B3BF06FFA214A1A49034678
:101FE0001248A3632B621365FFF7C2F8A16B0F4879
:101FF000FFF7FCF88AE7104B184D1868FFF774FBE1
:1020000051EC100B3BF058FA154A1C49034607489F
:102010006363EB61D364FFF7ABF8616B0348FFF7D1
:10202000E5F873E7941B04007C07FF1FE808FF1F17
:10203000C01B04004C18FF1F9007FF1F6016FF1FF6
:102040003C15FF1F3419FF1F001C04007407FF1FFD
:10205000D814FF1F901AFF1FA007FF1FDC16FF1FD9
:102060006819FF1F8007FF1FA807FF1F9407FF1FA6
:102070006C07FF1F9C07FF1F181C0400E81B0400CF
:10208000D01B04005C4B5D4D1868FFF72DFB51EC35
:10209000100B3BF011FA5A4A5A4903465A48236337
:1020A000AB619364FFF764F8216B5748FFF79EF824
:1020B0002CE7514B1868FFF717FB51EC100B3BF066
:1020C000FBF9524B206319685148542235F032FD18
:1020D00050494D48FFF74CF8216B4B48FFF786F805
:1020E00038BD454B1868FFF7FFFA51EC100B3BF079
:1020F000E3F9464B606219684548542235F01AFDF1
:1021000044494148FFF734F8616A3F48FFF76EF8E9
:1021100038BD394B1868FFF7E7FA51EC100B3BF06C
:10212000CBF93A4BA06119683948542235F002FDC9
:1021300039493548FFF71CF8A1693348FFF756F8CD
:1021400038BD2D4B1868FFF7CFFA51EC100B3BF060
:10215000B3F92E4BE06019682D48542235F0EAFCA3
:1021600028492948FFF704F8E1682748FFF73EF8B7
:1021700038BD5062DFE61062DDE6D061DBE69061DB
:10218000D9E61D4B1868FFF7AFFA51EC100B3BF086
:1021900093F91621A0611F4838F0FEF9A1691A4889
:1021A000FFF724F859E6144B1868FFF79DFA51EC35
:1021B000100B3BF081F9E0628AE60F4B1868FFF7DD
:1021C00093FA51EC100B3BF077F9206380E60A4B51
:1021D0001868FFF789FA51EC100B3BF06DF960635A
:1021E00076E6054B1868FFF77FFA51EC100B3BF0D1
:1021F00063F9A0636CE600BF9007FF1FDC16FF1FAA
:102200006819FF1FD01B0400E808FF1F3407FF1FD9
:10221000D814FF1F001C0400E81B0400B94A92E810
:102220000A0010B503FB01F307EE903A92ED027A33
:10223000F8EE677A2DED048B67EE877A82B004465C
:1022400017EE900AB0EE408A3AF032FE41EC100BE5
:1022500039F06AFB51EC100B3BF02EF91E21019076
:10226000A94838F099F90921A84838F095F921468C
:10227000A74838F02DFEA64838F0D6FD18EE100A13
:102280003AF016FE41EC190B0221B0EE490AF0EECD
:10229000690A9F4838F024FE9D4838F0C5FD013C8E
:1022A0001E21994838F078F9042C00F2DC80DFE830
:1022B00004F0486D92B60300964C236884ED038ABF
:1022C000012B00F0D480DDED017AB8EEE77AC7EE9D
:1022D000087AFCEEE77AC4ED027A16218E4838F0CF
:1022E0005BF901998A4838F0F3FD10218B4838F0EA
:1022F00053F9B0EE490AF0EE690A0221844838F039
:10230000EFFD0321864838F047F90621854838F06B
:1023100043F90621844838F03FF90023A1687C483E
:102320000A2238F095FD7A4838F07EFD7F4B7948D7
:102330001968102202B0BDEC048BBDE8104035F0E6
:10234000F9BB7B4C236884ED038A012B00F0CB8022
:10235000DDED017AB8EEE77AC7EE087AFCEEE77AAF
:10236000C4ED027A0621734838F016F906216E484A
:1023700038F012F90023A16865480A2238F068FD98
:10238000634838F051FD6C4B6948D1E76B4C2368CA
:1023900084ED038A012B00F09780DDED017AB8EE21
:1023A000E77AC7EE087AFCEEE77AC4ED027A0621F6
:1023B000634838F0F1F806215B4838F0EDF8002367
:1023C000A16853480A2238F043FD514838F02CFDEB
:1023D0005C4B5A48ACE75C4C236884ED038A012BC4
:1023E00063D0DDED017AB8EEE77AC7EE087AFCEE4D
:1023F000E77AC4ED027A0621544838F0CDF8062178
:10240000494838F0C9F80023A16841480A2238F049
:102410001FFD3F4838F008FD4D4B4B4888E74D4CB9
:10242000236884ED038A012B30D0DDED017AB8EE0C
:10243000E77AC7EE087AFCEEE77AC4ED027A062165
:10244000454838F0A9F80621374838F0A5F80023A8
:10245000A1682F480A2238F0FBFC2D4838F0E4FC34
:102460003E4B3C4864E702B0BDEC048B10BDDFED91
:102470003C7A88EE277ADDED017AF8EEE77A67EEAE
:10248000877AFCEEE77AC4ED027A26E7DFED347A4C
:1024900088EE277ADDED017AF8EEE77A67EE877A43
:1024A000FCEEE77AC4ED027AC9E7DFED2D7A88EE1B
:1024B000277ADDED017AF8EEE77A67EE877AFCEEAF
:1024C000E77AC4ED027A96E7DFED257A88EE277A7F
:1024D000DDED017AF8EEE77A67EE877AFCEEE77ACF
:1024E000C4ED027A63E7DFED1E7A88EE277ADDED30
:1024F000017AF8EEE77A67EE877AFCEEE77AC4EDC8
:10250000027A2FE73C17FF1F301C0400501C040008
:10251000E808FF1F581BFF1F841C04009C1C0400BC
:10252000A4750400B01C0400641C04006007FF1FB5
:10253000341BFF1F5C1C04005007FF1F6C13FF1FA0
:102540006C1C04005407FF1F8C13FF1F741C040035
:102550005807FF1F481BFF1F7C1C04005C07FF1F60
:102560000000B443F8B51D212DED028BB14D08EEEE
:10257000100AB14838F010F8B04838F055FCD5F8DA
:10258000D800A0F10A031D2B40F232812F686B683E
:1025900095ED027AAA4CAB4AD4ED036AAA48AB493E
:1025A000AB4E03FB07F307EE903AF8EE677AB8EE0E
:1025B000C88A67EE877A002387EEA67A03600B60ED
:1025C0001360C7EE087A17EE900A3AF071FC41ECFE
:1025D000100B39F0A9F951EC100B3AF06DFF23689C
:1025E0003060013B032B00F22381DFE803F06F48EA
:1025F00025022B21974894ED068A37F0CDFFA0697C
:102600003AF056FC41EC100B02218C4838F068FC83
:102610008A4838F009FC6B6D002B00F0FF80012B1D
:1026200040F00681B0EE480AFFF7FAF98A4FBDEE96
:10263000C00A87ED000A9AE02B21864894ED068AAD
:1026400037F0AAFFA0693AF033FC41EC100B0221ED
:102650007A4838F045FC794838F0E6FB6B6B002B84
:1026600000F0D280012B40F0E380B0EE480AFFF783
:1026700093F9794FBDEEC00A87ED000A77E0D5F8EF
:10268000B8206C4BD4ED065A002A00F0B68093EDCA
:10269000316A93ED307AD3ED2F7A6F4FC5EE866AAB
:1026A000B8EE477AF8EE677A26EE877A67EE277AF1
:1026B00017EE900A3AF0FCFB41EC100B39F034F9BC
:1026C00051EC100B3AF0F8FE386050E094ED067AC9
:1026D000D5ED057A604F87EE278AD5ED047A95ED22
:1026E000037AF8EE677AB8EE477A67EE887A67EE93
:1026F000877A17EE900A3AF0DBFB41EC100B39F0C9
:1027000013F951EC100B3AF0D7FE182138605348FA
:1027100037F042FFA0693AF0CBFB41EC100B0221ED
:10272000464838F0DDFB454838F07EFB24214C4814
:1027300037F032FF68693AF0BBFB41EC100B022125
:102740003E4838F0CDFB3D4838F06EFB112145483E
:1027500037F022FF18EE100A3AF0AAFB41EC100BFA
:102760000221364838F0BCFB344838F05DFB1521B7
:102770003D4837F011FF3168304838F0A9FB2F4849
:1027800038F052FB2421394837F006FFE0683AF070
:102790008FFB41EC100B0221284838F0A1FB2748A1
:1027A00038F042FB2921324837F0F6FEA0693AF0B2
:1027B0007FFB41EC100B0221204838F091FB1F48B1
:1027C00038F032FB14212B4837F0E6FE39681B48FD
:1027D00038F07EFB194838F027FB1421264837F0E3
:1027E000DBFEBDEC028B1548BDE8F84038F01CBBA1
:1027F000C0B2002135F05EFBC8E693ED0A6A93EDA6
:10280000097AD3ED087A48E7B0EE480AFEF790FF60
:10281000114FBDEEC00A87ED000AA8E7B0EE480AE6
:10282000FFF720F80C4FBDEEC00A87ED000A9EE7C7
:10283000094F9CE73C17FF1FB81C0400E808FF1F66
:102840006819FF1F3014FF1F9C13FF1FD419FF1FAF
:10285000781BFF1F301D04003015FF1FD81C04001B
:10286000F41C04001C1D04005C1D0400741D040005
:102870009C1D0400C81D0400585204000C4B1B682A
:10288000042B14D8DFE803F00F0B130703000146F5
:10289000084838F0A3BA0146074838F09FBA014605
:1028A000064838F09BBA0146054838F097BA704799
:1028B0009007FF1FC008FF1FAC08FF1F9808FF1FED
:1028C000E808FF1F70B5064688B00D4632B1AD4B23
:1028D000D3F8CC40012C00F02C810022AA4C2368B4
:1028E0000293029923680193019B5B1A092BF9D982
:1028F000042E00F2F381DFE816F04E008A00BB00E0
:10290000EC000500002D00F069819E4B93F8A010AB
:102910000F2081F0010135F0CDFA9C4904A838F070
:1029200027FD002104A8FFF7A9FF04A838F0E0FC68
:10293000974904A838F01CFD04A80021FFF79EFF6A
:1029400004A838F0D5FC934B93481E68112137F04A
:1029500023FE0F21914838F0BBFA904806F001069B
:1029600038F062FA11218E4837F016FE31468B4856
:1029700038F0AEFA894838F057FA55B12268894BD9
:10298000049204991A6823680393039B5B1A9A4282
:10299000F9D808B070BD002D00F04081794B93F854
:1029A0009C10042081F0010135F084FA7E4904A8CE
:1029B00038F0DEFC002104A8FFF760FF04A838F01F
:1029C00097FC734904A838F0D3FC04A80021FFF752
:1029D00055FF04A838F08CFC744B71481E68112117
:1029E000C6F3403637F0D8FD31466C4838F070FAFF
:1029F0006A4838F019FA16216D4837F0CDFD0421E8
:102A0000664838F065FA654838F00EFAAAE7002DF6
:102A100000F024815B4B93F89D100E2081F00101A2
:102A200035F048FA634904A838F0A2FC002104A854
:102A3000FFF724FF04A838F05BFC554904A838F0E0
:102A400097FC04A80021FFF719FF04A838F050FCF8
:102A5000594B5A481E68102137F09EFD0E214F48F1
:102A600038F036FA4D48C6F3400638F0DDF979E71C
:102A7000002D00F01381434B93F89E10162081F037
:102A8000010135F017FA4E4904A838F071FC002115
:102A900004A8FFF7F3FE04A838F02AFC3C4904A878
:102AA00038F066FC04A80021FFF7E8FE04A838F01F
:102AB0001FFC384B43481E68102137F06DFD16216E
:102AC000364838F005FA3548C6F3400638F0ACF918
:102AD00048E7002D37D02B4B93F89F10112081F041
:102AE000010135F0E7F9384904A838F041FC00212C
:102AF00004A8FFF7C3FE04A838F0FAFB244904A891
:102B000038F036FC04A80021FFF7B8FE04A838F01E
:102B1000EFFB2E4B2E481E68112137F03DFD112191
:102B20001E4838F0D5F91D48C6F3400638F07CF948
:102B300018E71021274837F02FFD21461748FEF7E8
:102B400041FB2246CAE6002AE3D10E4B112093F83E
:102B50009F1035F0AFF904A81F4938F009FC294649
:102B600004A8FFF78BFE04A838F0C2FB04A80849AC
:102B700038F0FEFB04A82946FFF780FE04A838F0D1
:102B8000B7FBC6E73C17FF1F5421FF1F601F04005F
:102B9000141E040090F00F40A01F0400E808FF1F5F
:102BA000381E04007807FF1FF41D040010F00F40CA
:102BB0004C1E0400641E0400D0F00F40A41E04004C
:102BC000B81E0400F81E04000C1F040050F00F4053
:102BD0004C1F0400E01D04002C1F0400002A7FF499
:102BE000B2AE3F4B0F2093F8A01035F063F904A864
:102BF0003C4938F0BDFB294604A8FFF73FFE04A876
:102C000038F076FB04A8384938F0B2FB04A829460E
:102C1000FFF734FE04A838F06BFB94E6002A7FF43B
:102C2000DBAE2F4B042093F89C1035F043F904A839
:102C30002E4938F09DFB294604A8FFF71FFE04A883
:102C400038F056FB04A8284938F092FB04A829461E
:102C5000FFF714FE04A838F04BFBBDE6002A7FF412
:102C6000F7AE1F4B0E2093F89D1035F023F904A802
:102C70001F4938F07DFB294604A8FFF7FFFD04A893
:102C800038F036FB04A8184938F072FB04A829462E
:102C9000FFF7F4FD04A838F02BFBD9E6002A7FF4F7
:102CA00008AF0F4B162093F89E1035F003F904A8D7
:102CB000104938F05DFB294604A8FFF7DFFD04A8A2
:102CC00038F016FB04A8084938F052FB04A829463E
:102CD000FFF7D4FD04A838F00BFBEAE6002641E636
:102CE0003C17FF1F801F0400141E0400181E040060
:102CF000841E0400D81E04002DE9F041102184B088
:102D0000C348C44C37F048FCC34B197819B925782F
:102D1000002D00F02F81C148C14F38F0D9F80221B1
:102D2000C04837F039FC2178BC4838F0D1F8BB48AE
:102D300038F07AF86C46BC49BC4DBD4E204638F0A0
:102D400017FB00212046FFF799FD204638F0D0FA06
:102D50003968204638F00CFB00212046FFF78EFD35
:102D6000204638F0C5FAB349204638F001FB00216F
:102D70002046FFF783FD204638F0BAFA396820462E
:102D800038F0F6FA00212046FFF778FD204638F0AB
:102D9000AFFA95E8180003FB04F307EE903A3268A7
:102DA00095ED027AA449DFEDA56A0968A448F8EE1A
:102DB000677A06EE102A67EE877AB8EEC66A4B1E6F
:102DC00086EE277A67EE267AC0ED007A032B00F2B2
:102DD0001C81DFE803F06B4624026B6D934A012BE4
:102DE00000F20F81974CD16DD4ED007A936D92ED86
:102DF000197AF8EEE77A03FB01F327EE877A07EEFC
:102E0000903AF8EE677AC7EE276A8F4B01220021CD
:102E10000420C3ED006AFFF755FD326862E06B6B7A
:102E2000824A012B00F2E980864CD16BD4ED007A06
:102E3000936B92ED117AF8EEE77A03FB01F327EE3C
:102E4000877A07EE903AF8EE677AC7EE276A7E4BEC
:102E5000012200210320C3ED006AFFF733FD326831
:102E600040E0784CD5F8B820D4ED007A6F4BF8EEFE
:102E7000E77A002A00F0BC80D3F8C010D3F8BC2059
:102E8000D3ED316A704B02FB01F207EE102A67EEB8
:102E9000A67AB8EE477A0122C7EE876A002102209F
:102EA000C3ED006AFFF70EFD32681BE0654C2A692E
:102EB000D4ED007AEB6895ED057A634FF8EEE77A8A
:102EC00003FB02F327EE877A07EE903AF8EE677A73
:102ED0000122C7EE276A10460021C7ED006AFFF7FE
:102EE000F1FC3268594FDFF888C1396823685848C7
:102EF000DFF880E15242CCF800204942554A016097
:102F00005B424FF000081A215348CEF80030C2F857
:102F1000008037F041FB3168404837F0D9FF3F4827
:102F200037F082FF17214D4837F036FB21683B48C8
:102F300037F0CEFF394837F077FF1521484837F092
:102F40002BFB3968354837F0C3FF344837F06CFF46
:102F5000404641460122FFF7B5FCD5F8D800A0F164
:102F60000A031D2B03D8C0B2012134F0A3FF04B023
:102F7000BDE8F08129462948294F37F0A9FF0221F1
:102F8000284837F009FB2178244837F0A1FF23486F
:102F900037F04AFF6846334938F0EAF9294668466F
:102FA000FFF76CFC684638F0A3F93968684638F0DA
:102FB000DFF929466846FFF761FC684638F098F962
:102FC0006846294938F0D4F929466846FFF756FC87
:102FD000684638F08DF93968684638F0C9F96846AE
:102FE0002946FFF74BFC68466C4638F081F9A2E6AB
:102FF000596A1A6AD3ED0A6A44E7DFED1C6A114C7C
:1030000025E7DFED1A6A0F4CFFE60E4C6AE700BFBA
:10301000B41F0400D514FF1FEC1BFF1FE808FF1F9F
:10302000B407FF1F08760400F01F04003C17FF1FC1
:103030009C13FF1F042004006819FF1F0000B44305
:10304000701AFF1FD419FF1F781AFF1F3014FF1FBB
:10305000701BFF1F5C16FF1F1820040034200400A3
:103060004C200400C81F0400DC1F04000000000006
:103070002814FF1F2C14FF1F10B5F0EE407A00211A
:10308000F2EE046ABDEEE77AB8EEC77AB4EE677A7C
:10309000F1EE10FA04D00131062967EEA67AF1D1DB
:1030A0001E4B1B68042B38D8DFE803F02A1D3710AD
:1030B000030010EE100ACCB239F0FAFE41EC100B0E
:1030C00021461748BDE8104037F00ABF10EE100A3D
:1030D000CCB239F0EDFE41EC100B21461148BDE8B1
:1030E000104037F0FDBE10EE100ACCB239F0E0FE11
:1030F00041EC100B21460C48BDE8104037F0F0BE03
:1031000010EE100ACCB239F0D3FE41EC100B214680
:103110000648BDE8104037F0E3BE10BD9007FF1F22
:10312000C008FF1FAC08FF1F9808FF1FE808FF1F1B
:10313000084B1B68042B0CD8DFE803F009070B05CC
:10314000030036F099BA35F0C9BE35F0A7BA37F0AA
:10315000A7BA70479007FF1F2DE9F041DFF85080B4
:10316000104F114E114D04460146404637F036FED1
:10317000404637F059FE2146384637F02FFE384694
:1031800037F052FE2146304637F028FE304637F001
:103190004BFE2146284637F021FE2846BDE8F04187
:1031A00037F042BE9808FF1FAC08FF1FC008FF1F82
:1031B000E808FF1F04280CD8DFE800F009070B051A
:1031C000030036F0B1BA35F0E1BE35F039BB37F067
:1031D0007DB90020704700BF08B535F01DFB002801
:1031E00001DD012008BD35F0BDFE002801DD032012
:1031F00008BD36F085FA0028D4BF0020042008BDA1
:1032000038B5124C2068FFF7D5FF0C21C5B2104825
:1032100037F0C2F9284637F043FA0E4837F004FE7B
:1032200002E02068FFF7C6FFFFF7D6FF0028F8DCB2
:103230000421094837F0B0F92946064837F048FE1E
:10324000044837F0F1FD284638BD00BF9007FF1F46
:1032500064200400E808FF1F7420040008B5FFF78D
:10326000BBFF002808DB184B1868FFF7A3FF174BBC
:10327000C0B25328187001D0002008BD00210846B4
:103280000122FFF71FFB124B1B68013B032B19D8D0
:10329000DFE803F002070C11012200210220FFF7F2
:1032A00011FB012200210220FFF70CFB012200216B
:1032B0000320FFF707FB012200210420FFF702FB98
:1032C000012008BD012008BD9007FF1F0516FF1F44
:1032D0006819FF1F2DE9F8431C214A484A4E37F070
:1032E0005BF94A4837F0A0FD0E21494837F054F900
:1032F0003168464837F0ECFD444837F095FD3368B7
:10330000092B7DD0192B79D0032B64D0414FDFF8E6
:103310001091002506E0192B56D0032B41D0013522
:103320000D2D32D03868FFF745FF0721C4B23A4867
:1033300037F032F9204637F0B3F9344837F074FDEE
:10334000FF2C4FD03368092BE5D11121334805F804
:10335000094037F021F932483BF012FD0146304870
:1033600037F01AF9294837F05FFD1A212D4837F058
:1033700013F900230A220D21244837F069FD013595
:10338000224837F051FD0D2DCCD10721224837F0CE
:1033900003F9204637F084F91C48BDE8F84337F0BC
:1033A00043BDDFF88C80204805F808400F2137F036
:1033B000F3F840463BF0E4FC0146404637F0ECF8B9
:1033C000124837F031FDAAE7DFF86C80174805F89E
:1033D00008400D21EBE7164B00221A605A609A60F4
:1033E0001A7393E70321134837F0D6F829460748A4
:1033F00037F06EFD054837F017FDC6E70E4BEBE7DB
:10340000074BE9E77C2004007C07FF1FE808FF1F4B
:10341000C01B04009007FF1F9C200400B82004007C
:103420002419FF1FCC200400A8200400E820040079
:10343000801AFF1FA4200400A013FF1FFFFFFFFF3F
:103440002DE9F04F2DED028BA1B004469B499C4D18
:1034500003A837F08DFF002621219A482E6037F00F
:103460009BF82146984837F033FD974837F0DCFC4D
:1034700033460CA8954A964931F05CFB1E9B002B05
:1034800000F082815C2037F08DFC0646914B9DF860
:1034900034000E9A9049336000279DF83C30307319
:1034A0000DF14008B16032614146337506F11800F4
:1034B000776031F027FA73688849DFF844A2B7656E
:1034C00001334FF47A728DF820708DF828700B96C6
:1034D000B16073600992CDF81CA04046DFF824B2B9
:1034E000CDF830B031F03CFA0B98002800F0108194
:1034F00003687B4A1B6B934240F05981036D002B9C
:1035000000F00281774A13680293029913680193CD
:10351000019B5B1A632BF9D940B30368724F1B6997
:10352000674EBB426FF000484FF000096CD1036D4D
:10353000002B6BD01A78120747D40B9CB4B12368C8
:103540006A4ADB6A934240F01C81A06D18B13AF0E0
:103550007DFB0023A365236D002B00F02D8104F17A
:10356000180031F0FDF90BA8FDF716FC604B039C29
:103570006048002C08BF1C46132137F00DF8204688
:103580003BF0FEFB0146204637F006F84E4837F088
:103590004BFC20463AF0FAFAB0EE408AF0EE608A30
:1035A0000B9CCDF81CA024B16568013D6560002D21
:1035B00041D003A837F09CFEB0EE480AF0EE680A4E
:1035C00021B0BDEC028BBDE8F08FDA695869101AA2
:1035D00001D40028B1D078230A2207A90CA837F01B
:1035E00081FD0CA903A837F03BFF0CA837F080FE43
:1035F0002B689C4256D00B98013333600028B5D01D
:1036000003681B69BB4292D09847E2E7416D0029ED
:1036100093D091F831301B078FD5D1E90423D1E93C
:103620000001101A63EB0101894508BF8045D0D223
:103630006FF00040CDE723682C4ADB6A934240F0EC
:10364000C080A06D10B13AF001FBA565236D002B81
:1036500000F0BD8004F1180031F082F90B9C002CC1
:10366000A7D02368244A5B68934240F0AD80A06DE8
:10367000184B236018B13AF0E9FA0023A365236DD3
:1036800004F11805002B00F0A780284631F068F9F6
:10369000C4F808B0284631F063F920465C2137F0C1
:1036A00085FB86E71D21154836F076FF2146064842
:1036B00037F00EFC044837F0B7FB3EE76C9004008F
:1036C000001BFF1FF8200400E808FF1F801AFF1FDF
:1036D000F41BFF1FB0180400181804006018040041
:1036E000750400005421FF1F710B00006D050000E0
:1036F000A09604008C210400510D00006C210400F0
:10370000841804003C180400436D002B7FF4FAAECB
:10371000374B3848012212211A7036F03DFF3648E7
:1037200037F082FB0B21354836F036FF324837F050
:103730007BFB33490CA837F01BFE00210CA8FFF7D8
:103740009DF80CA837F0D4FD2220FFF7F1FC2D499D
:103750000CA837F00DFE00210CA8FFF78FF80CA87D
:1037600037F0C6FD284B0CA8196837F001FE002180
:103770000CA8FFF783F80CA837F0BAFD9FED1A8B61
:103780000EE720469847EEE61F9B002B7FF47AAEAB
:103790004FF47A72DFF874A08DF820308DF828305D
:1037A0000B930992CDF81CA00DF1400895E69847BF
:1037B0000028ADD00B98A5E6636D002B7FF4CFAE4B
:1037C000D1E62046984749E720469847F1E6636DE1
:1037D000002B7FF43FAF41E7636D002B7FF455AFC3
:1037E00056E700BFAFF300800000000000000000BB
:1037F0000416FF1F1C210400E808FF1F30210400ED
:103800003C21040058210400B007FF1F8418040065
:103810002DE9F04F2DED028BADF2C45DC049039050
:1038200005A837F0A5FDBF4909A837F0A1FD40F272
:10383000145200212BA83AF0C9FD002317A8BA4A58
:10384000BA4931F077F9299B002B00F09C845C2069
:1038500037F0A8FA0546B64B9DF86000199AB549AD
:103860002B604FF000089DF8683028731BAFA960EB
:103870002A612B7505F118003946C5F8048031F02E
:1038800041F86B68AC4AAD4CC5F858800DAE0133B9
:103890006B604FF47A73AA60356186F8048086F80D
:1038A0000C80B3603460DFF8C4A2CDF85CA0384669
:1038B00031F056F800253169002900F006810B68C7
:1038C0009F4ADB6B934240F0408300231A46183135
:1038D0004FF47A7BDFF860828DF8603038468DF8DF
:1038E000683029932A93CDF864B0CDF85C8031F02C
:1038F0008BF8299A002A00F082835C2037F052FA74
:1039000083464FF000099DF860001999884B894A59
:103910009DF868E08BF80C00CBF81010CBF8003065
:1039200039460BF11800CBF808208BF814E0CBF8DF
:10393000049030F0E7FFDBF80410CBF80880013189
:103940004FF47A70CBF858908DF84C908DF85490D5
:10395000CDF858B01294CBF8041014903846CDF836
:103960005CA030F0FDFF169B002B00F067841A6806
:103970007449526B8A4240F00982996D002900F027
:103980008D8317A837F0F4FC1698002800F0AE805D
:1039900002686D49136B8B4240F08581036D002BEB
:1039A00000F0DE81926B69498A4240F0F3811B7816
:1039B00013F0700F14BF01200020002800F07B815D
:1039C0000121594836F0E8FD614837F02DFADDF85D
:1039D00058B0BBF1000F24D0DBF80020DFF8748171
:1039E000D26A424540F0CF81DBF8580020B13AF06E
:1039F0002DF90022CBF85820DBF85020002A00F0E7
:103A0000F8820BF1180030F0ABFFDDF858B0DBF8AE
:103A10000430013BCBF80430002B00F05D81002323
:103A2000169317A837F064FC169B1294002B3FF4F2
:103A300042AF5A68013A5A60002A7FF43CAF1968D5
:103A40004448C96A0192814240F04283986D28B18E
:103A500002933AF0FBF8029B019A9A651A6D002ACC
:103A600000F0528303F1180030F07AFFDDF858803F
:103A7000B8F1000F3FF41FAFD8F80030364A5B684A
:103A8000934240F03783D8F85800294BC8F80030EB
:103A900020B13AF0DBF80023C8F85830D8F850309D
:103AA00008F1180B002B00F03A83584630F058FF0D
:103AB000C8F808A0584630F053FF5C21404637F064
:103AC00075F9316900297FF4FAAE4FF47A738DF8F5
:103AD0004C108DF85410169117A820491294149385
:103AE00037F046FC169800287FF452AF13211C488B
:103AF00036F052FD164837F097F917A837F0F8FB63
:103B0000169B129413B116A8FDF746F91549164FE6
:103B100017A837F02DFC002117A8FEF7AFFE27E00D
:103B2000A0210400A8210400B0210400F41BFF1F01
:103B3000B018040018180400601804008418040069
:103B40009505000019070000750400003109000008
:103B5000E808FF1F6D050000510D00006C90040087
:103B6000B4210400C8210400B407FF1F3C1804005E
:103B700017A837F0BDFB07EE905AB8EEE78A002091
:103B8000B0EE480AFFF778FA396817A837F0F0FB6B
:103B9000002117A8FEF772FE17A837F0A9FBBC4951
:103BA00017A837F0E5FB002117A8FEF767FE17A856
:103BB00037F09EFBB0EE480A0020FFF75DFA396847
:103BC00017A837F0D5FB002117A8FEF757FE17A856
:103BD00037F08EFB0C21AF4836F0DEFC2946AE48AC
:103BE00037F076F9AC4837F01FF92BAF4FF00008EB
:103BF00038463BF0C5F80146384636F0CDFCA648BD
:103C000037F012F90A21A54836F0C6FC08F1010880
:103C1000A14837F009F9454507F10D07E8DA039A9D
:103C2000DFF8B0B2134602EB42056FF00C0A02EB6C
:103C300085050AFB03FA2BAA013B154401930127D2
:103C400007F1FF380321964836F0A6FC414692481A
:103C500037F03EF9C14603210AEB0508914836F0DA
:103C60009BFC40463BF08CF80146404636F094FC05
:103C7000019B8D4803EB0708132136F08DFC41466C
:103C8000854837F025F9844837F0CEF809F1FF333D
:103C9000052B00F28180DFE813F01F01F800F60029
:103CA000F400BC005D01984700283FF41FAF169850
:103CB000002840F0C68205A917A837F07FFC00282D
:103CC000C0F2AA811521794836F066FC724837F0B7
:103CD000ABF8DDF858B07CE6DBF800100193C96A58
:103CE000414540F0F281DBF8580020B139F0AEFFD9
:103CF000019BCBF85830DBF85030002B00F0FE81F0
:103D00000BF1180030F02CFEDDF85880B8F1000FF0
:103D10003FF485AED8F80030654A5B68934240F0C6
:103D2000E681D8F85800634BC8F8003020B139F06C
:103D30008DFF0023C8F85830D8F8503008F1180B20
:103D4000002B00F0E681584630F00AFEC8F808A0C3
:103D5000584630F005FE40465C2137F027F85EE615
:103D6000436D002B3FF4C2AE926B534B9A4211D17C
:103D7000436D002B9FD093F8313013F0500F14BFD8
:103D80000120002019E6584690473EE61846904725
:103D90000146F6E5904710E6484917A837F0E8FADB
:103DA000002117A8FEF76AFD17A837F0A1FA4449C9
:103DB00017A837F0DDFA002117A8FEF75FFD17A856
:103DC00037F096FA294617A837F0D2FA002117A83B
:103DD000FEF754FD17A837F08BFA28463AF0D0FFCB
:103DE0000146284636F0D8FB2B4837F01DF8DBF8A3
:103DF000001017A837F0BCFA002117A8FEF73EFD07
:103E000017A837F075FA072F00F0E18001370D355C
:103E100016E72C4917A837F0ABFA002117A8FEF7D0
:103E20002DFD17A837F064FA254917A837F0A0FA36
:103E3000002117A8FEF722FD17A837F059FA2946E6
:103E400017A837F095FA002117A8FEF717FD17A855
:103E500037F04EFA28463AF093FF0146284636F0EE
:103E60009BFB0D4836F0E0FFDBF8001017A837F099
:103E70007FFA17A80021FEF701FD17A837F038FADE
:103E8000C4E71149C6E71149C4E71149C2E700BFB9
:103E9000E821040000220400E808FF1FA8590400DC
:103EA00020220400044B040010220400E822040035
:103EB000510D0000B0180400310900002422040054
:103EC0003C220400B8220400A0220400882204003E
:103ED00070220400B007FF1FB34917A837F048FA53
:103EE000002117A8FEF7CAFC17A837F001FAAF495E
:103EF00017A837F03DFA002117A8FEF7BFFC17A856
:103F000037F0F6F9294617A837F032FA002117A83A
:103F1000FEF7B4FC17A837F0EBF928463AF030FF6B
:103F20000146284636F038FBA14836F07DFFDBF825
:103F3000001017A837F01CFA002117A8FEF79EFC06
:103F400017A837F0D5F99B4964E7002212A89847D3
:103F5000169B09E5984917A837F00AFA002117A817
:103F6000FEF78CFC17A837F0C3F9904917A837F073
:103F7000FFF9002117A8FEF781FC17A837F0B8F960
:103F800008EB480308EB83082BAB9844414617A87D
:103F900037F0EEF9002117A8FEF770FC17A837F0EC
:103FA000A7F940463AF0ECFE0146404636F0F4FAF6
:103FB0007F4836F039FFDBF8001017A837F0D8F942
:103FC00017A80021FEF75AFC17A837F091F93369BA
:103FD000346013B111A8FCF7DFFE09A837F088F9A7
:103FE00005A837F085F90DF2C45DBDEC028BBDE884
:103FF000F08FDBF85420002A7FF403AD05E52A9A00
:10400000002A7FF47AAC8DF84C20CDF850B08DF8B2
:10401000542012941692A1E409A917A837F0CEFAF9
:104020000028BFF64FAE169BA3B31A686349526BC4
:104030008A4252D1D3F85880B8F1000F7BD0404665
:104040003AF09EFE0146404636F0A6FA584836F051
:10405000EBFE622D03DDDDF858B00135B9E405EB68
:104060004508DDF858B005EB88082BAB9844BBF148
:10407000000F30D0DBF800205049526B8A4254D1F7
:10408000DBF85810002900F0A18040460D223AF0DC
:1040900035FFE2E71946DFF82881D4E74FF4807056
:1040A0000193029139F0CAFD019B9865E0B1029934
:1040B00001701A6D002A59D0014610464FF48072E3
:1040C00030F058FA019B996D5BE4584688471BE62F
:1040D00018468847CAE43A49D7E7184690478046C9
:1040E0003AF04EFE0146AEE73649996549E440464E
:1040F000984794E440469847FFF7DDBBDBF854301F
:10410000002B7FF4FDADFFE55A6D002A7FF4AAACC9
:10411000ACE4D8F85430002B7FF415AE16E6D8F88E
:104120005430002B7FF4C1ACC2E458469047DDF810
:1041300058B00146A9E74FF48070019339F07EFD35
:10414000019B0146986560B180F80080186D0028D9
:1041500062D04FF4807230F00DFA019BD3F8588092
:104160006DE7DFF86080C3F8588068E75A6D3AB1B0
:10417000014610464FF4807201932EF03DF8019BEA
:10418000996DFFF7FEBB2A9B002B7FF460AB0DAE51
:104190004FF47A720C4C337133733361B260346014
:1041A0001BAFFFF780BB00BF402204003C2204008D
:1041B000E808FF1F58220400D0220400190700005D
:1041C0006C9004006413FF1F841804004FF4807087
:1041D000019139F033FDCBF8580040B301990170DB
:1041E000DBF8502052B1014610464FF4807230F097
:1041F000C1F9DBF85810DDF858B046E7DBF8542079
:10420000CAB1014610464FF480722DF0F5FFDBF87D
:104210005810DDF858B038E7586D28B14FF4807267
:1042200001932DF0E9FF019BD3F8588007E70A4975
:10423000CBF8581029E7DBF8581026E70749FFF7B5
:10424000A0BB0268064B926B9A427FF4A3AD036D4C
:10425000002B7FF4ACAB8BE56413FF1F6C90040064
:10426000310900002DE9F04FA7B000234FF47A7216
:10427000B7490190B74E8DF8243004A88DF82C3042
:104280000C930A92089637F073F8882036F08CFD6C
:104290000823102280E80C00C118029100F1880761
:1042A0000D460C4620460021103437F061F8BC4220
:1042B000F8D11A21A84836F06FF9A84836F0B4FDB5
:1042C000002312A8A64AA74930F034FC249B002BF7
:1042D00000F03E845C2036F065FD0446A24A9DF85D
:1042E0004C00149BA14922604FF000089DF8542017
:1042F000207316AFA16023613946227504F11800BE
:10430000C4F8048030F0FEFA63689949C4F8588014
:1043100001334FF47A728DF838808DF84080119413
:104320000D96A16063600F92924B1293384630F065
:1043300017FB119B002B00F0BC835A680C990132CB
:104340005A60002900F059840CA8FCF725FD119B48
:104350000D960C93002B00F0B08311A8FCF71CFD08
:104360000C98002800F0A9830268DFF83892136BDC
:104370004B4540F0E283036D002B00F0CB83926A43
:104380007D498A4240F02384DC697C480A2136F06A
:1043900003F900230A222146704836F059FD6F4880
:1043A00036F042FD0921764836F0F6F8019C6B485C
:1043B000214636F08DFD694836F036FD0D217148F5
:1043C00036F0EAF8704B6548196836F081FD6348AD
:1043D00036F02AFD002C40F063836B4A642313609F
:1043E0004FF0060A0024A3460395B8460C9900290D
:1043F00000F0E7810B68654ADB6B934240F01D8358
:1044000000231A4618314FF47A75594F8DF84C3005
:1044100040468DF85430249325931495129730F02C
:10442000F3FA249A002A00F01A835C2036F0BAFCD2
:1044300005464E4A9DF84C0014994B4B9DF854E0AC
:10444000AA600022287329616A6041462B6005F149
:10445000180085F814E0009230F054FA6968009A68
:10446000AF6001314FF47A70AA658DF838208DF86D
:10447000402011950D9669600F903E4B1293404677
:1044800030F06EFA2146354836F022FD02214048D0
:1044900036F082F8119F002F00F09F813B683D4A63
:1044A0005B6B934240F07E82BD6D002D00F0E68292
:1044B00028463AF065FC0146284636F06DF8274854
:1044C00036F0B2FC119F002F00F085813A68324926
:1044D000936B8B4240F053823B6D002B00F0A18226
:1044E0001B7813F0700F14BF01230023002B40F042
:1044F000B281536B274A934240F05082BD6D002D2C
:1045000000F04A81294612A836F032FF0E212348D6
:1045100036F042F812A9114836F060FC122120480A
:1045200036F03AF804A912A837F048F801460B48CB
:1045300036F0CEFC094836F077FC04A912A837F013
:104540003DF8002846DB019B9C4243DB2CE000BF8A
:10455000A02104008418040098230400E808FF1F29
:10456000B0210400F41BFF1FB01804001818040049
:10457000601804003C180400E5080000182304003B
:1045800024230400302304003C07FF1F950500008E
:10459000587B040019070000310900005023040073
:1045A000C823040075040000029B119F03EB0B1548
:1045B000002F00F052823A68AD49526B8A4240F0B7
:1045C0009382B96D002900F0EF82284636F050FF43
:1045D0000BF1010B0A21A74835F0DEFF2146A64862
:1045E00036F076FC0321A54835F0D6FF119F002F49
:1045F00000F03A813B689E4A5B6B934240F0218217
:10460000BD6D002D00F05E8228463AF0B9FB0146F0
:10461000284635F0C1FF0321984835F0BDFF12A8A8
:1046200036F066FE119D002D00F05C812A68126B49
:104630004A4540F043812A6D002A00F04F812A68E4
:104640008F4FD26ABA4240F04681A86D18B139F056
:10465000FDFA0022AA652A6D002A00F0F98105F111
:10466000180030F07DF9119A53685D1E5560002DD9
:1046700000F0B680013454457FF7B8AE039D814FFA
:104680004FF0010808F1FF3403217F4835F084FF23
:104690002146794836F01CFC0321784835F07CFF30
:1046A0002946754836F09AFBA8F10204724836F0A4
:1046B000BBFB052C07D8DFE814F06D006B00690028
:1046C00067003A007C01714912A836F051FE0021C2
:1046D00012A8FEF7D3F812A836F00AFE6C4912A809
:1046E00036F046FE002112A8FEF7C8F812A836F0F0
:1046F000FFFD294612A836F04FFE002112A8FEF752
:10470000BDF812A836F0F4FD396812A836F030FE74
:10471000002112A8FEF7B2F812A836F0E9FDB8F1B0
:10472000070F00F07281103508F10108AAE7594916
:1047300012A836F01DFE002112A8FEF79FF812A85D
:1047400036F0D6FD524912A836F012FE002112A80A
:10475000FEF794F812A836F0CBFD294612A836F0E1
:104760001BFE002112A8FEF789F812A836F0C0FD42
:10477000396812A836F0FCFD12A80021FEF77EF879
:1047800012A836F0B5FDCEE74349D1E74349CFE75C
:104790004349CDE74349CBE74FF4807039F04EFAF7
:1047A000B865002800F0B08105703B6D002B00F06B
:1047B000128201464FF4807218462FF0DBFEBD6D69
:1047C000A0E64FF47A738DF838108DF840100D96EE
:1047D00011910F9356E6344995E6334D39466BE611
:1047E0001168C96AB94240F04681906D20B10092CB
:1047F00039F02CFA009A9565136D002B00F0788142
:1048000002F1180030F0ACF8119F002F3FF432AFE6
:104810003B68264A5B68934240F04881B86D244B60
:104820003B6018B139F012FA0023BB653B6D002BD9
:1048300000F0638107F118031846009330F090F8F8
:10484000009B1C4ABA60184630F08AF838465C2152
:1048500036F0ACFA0EE71121174835F09DFE0648F8
:10486000013C36F0E1FADDE60F4D3946D0E600BFF7
:104870001907000068230400E808FF1F044B040028
:104880006D050000B007FF1F202204002422040051
:104890003C220400B8220400A02204008822040064
:1048A00070220400402204006C900400510D0000AE
:1048B000B01804003C180400B423040028469047B4
:1048C00080B1119D002D3FF4D5AE2A68A84FD26A61
:1048D000BA423FF4BAAE28469047C4E66A6D002A51
:1048E0007FF4ADAE0F21A348039DA34F35F054FED6
:1048F0002146A24836F0ECFA0321A14835F04CFEDF
:10490000A04B9E48196836F0E3FA9E4A9C4804F191
:1049100008030321136035F03FFE9A4B974819684E
:1049200036F0D6FA954836F07FFA974912A836F055
:104930001FFD002112A8FDF7A1FF12A836F0D8FC38
:104940002220FEF7F5FB631E00EE103A0020B8EEC1
:10495000C00AFEF791FB396812A836F009FD002164
:1049600012A8FDF78BFF12A836F0C2FC119B0D9622
:10497000002B3FF485AE11A8FCF70EFA80E638460E
:10498000984700287FF467AF119F002F3FF423AFB3
:104990003A68536B7D4A93423FF4B0AD384698472E
:1049A0000146B0E53846984705463AF0E9F9014630
:1049B00082E5774912A836F0DBFC002112A8FDF74A
:1049C0005DFF12A836F094FC724912A836F0D0FCB4
:1049D000002112A8FDF752FF12A836F089FC2946E3
:1049E00012A836F0D9FC002112A8FDF747FF12A843
:1049F00036F07EFC396812A836F0BAFC12A8002105
:104A0000FDF73CFF12A836F073FC04A836F070FCEA
:104A10000C9B089613B10CA8FCF7BEF927B0BDE8B3
:104A2000F08F7B6D002B3FF464AD93F8313013F0C1
:104A3000500F14BF0123002358E500220DA898470A
:104A400020E53846984705463AF09AF90146DFE5F1
:104A50006A6D002A7FF403AE05E64F49B5E5259A55
:104A6000002A7FF4E2AC8DF838200F958DF84020B5
:104A70000D96119201E510468847C5E64FF4807007
:104A800039F0DCF80146B86500285ED00570386D55
:104A900000284AD04FF480722FF06CFDBD6D07E501
:104AA000019B13F1060A7FF59DACE8E5384698476F
:104AB000E0E50C9B002B7FF447AC0E21374835F026
:104AC0006BFDA2E74FF4807039F0B8F80146B86585
:104AD000E8B10570386D002800F087804FF48072CF
:104AE0002FF048FDBD6D8FE53846904701466CE5D7
:104AF000536D002B7FF484AE86E67B6D002B7FF434
:104B000099AE07F118039CE6254DBD65FAE4244DE6
:104B1000BD6579E5436D002BCFD0926A214B9A4257
:104B200055D1436D7BB11C692FE4786D18B14FF4FA
:104B300080722DF061FBBD6DBAE498470028BCD0AF
:104B40000C9800286AD100241FE4154DBD65AFE420
:104B5000259B002B7FF4BEAB4FF47A728DF8383072
:104B60008DF840300D9611930F9216AFFFF7DCBB16
:104B70006D05000074230400B007FF1FE808FF1F45
:104B8000044B04003C07FF1F8423040019070000A6
:104B9000D02204003C2204006C9004004023040056
:104BA0006413FF1FE50800004FF48070009139F096
:104BB00045F8B86578B3009901703A6D0AB30146BB
:104BC00010464FF480722FF0D5FCB96DFDE490478C
:104BD0000446FFF7DABB7B6D2BB101464FF48072C0
:104BE00018462DF009FBBD6D8CE4786D18B14FF4BB
:104BF00080722DF001FBBD6D06E50C930D96FFF75D
:104C0000ACBB7A6D2AB1014610464FF480722DF08C
:104C1000F3FAB96DD9E40749B965D6E40268064BE1
:104C2000926A9A42D3D1036D002B3FF47AAFFFF71B
:104C3000ABBB00BF6413FF1FE5080000FFFFFFFFD1
:104C40002DE9F0472DED028B9E4C9F49C4B0002604
:104C500005460BA8266036F08BFB31460FA836F0D0
:104C600087FB314613A836F083FB1221974835F0B5
:104C700093FC97483AF084F80146954835F08CFC4F
:104C8000944836F0D1F8334630A8914A92492FF033
:104C900051FF429B002B00F03E845C2036F082F8EE
:104CA00006468E4B9DF8C400329A8D49336000272A
:104CB0009DF8CC3030730DF1D008B16032614146BF
:104CC000337506F1180077602FF01CFE7368854974
:104CD000DFF838A2B76501334FF47A728DF8B070FF
:104CE0008DF8B8702F96B16073602D92CDF8ACA09E
:104CF0007D4B309340462FF033FE2F98002800F074
:104D000072820368794A1B6B934240F06584036D9D
:104D1000002B00F06482764A1368029302991368AC
:104D20000193019B5B1A132BF9D9002831D0DFF8CE
:104D3000E091DFF890816FF00046002703681B695F
:104D40004B4540F03B82036D002B00F016821A7831
:104D5000120740F11882DA695869101A02D4002843
:104D600000F0118278230A222BA930A836F0BAF974
:104D700030A90BA836F074FB30A836F0B9FA2368D6
:104D8000AB4200F000822F980133C8F800300028B1
:104D9000D4D100210BA836F0E9FB564D03782B60E7
:104DA00001220BA930A836F03FFC30A90FA836F03D
:104DB00057FB30A836F09CFA0BA94F4836F048FB59
:104DC0002D214E4835F0E8FB2168424836F080F846
:104DD000404836F029F80C21494835F0DDFB2968B8
:104DE0003C4836F075F83B4836F01EF8122145482D
:104DF00035F0D2FB4049374835F0F0FF354836F002
:104E000013F80821404835F0C7FB0FA9314835F0A9
:104E1000E5FF304836F008F82B680D3B4D2B00F2CB
:104E20007783DFE813F05601750375037503750387
:104E300075037503750375037503750375037503B2
:104E400075037503750375037503750375037503A2
:104E50007503750375037503750375037503750392
:104E60007503750375037503750375037503750382
:104E70007503750375037503750375037503750372
:104E800075034C02750375037503750375035601AD
:104E90005601560156015601BC02DA02F8025601CB
:104EA000390327022702750357035601560157029B
:104EB00075035601770075039E026502560175035E
:104EC000560100BF001BFF1F6C900400DC23040090
:104ED0002419FF1FE808FF1FF41BFF1FB018040070
:104EE00018180400601804003C1804007504000041
:104EF0005421FF1F901BFF1FDC15FF1F002404001F
:104F000030240400402404005424040084180400C5
:104F1000710B000001210BA836F028FB017817A8BF
:104F200036F06CFA02220BA930A836F07DFB30A9CE
:104F30000FA836F095FA30A836F0DAF914220023DB
:104F400030A90FA836F020FBB149B248FCF710F9A0
:104F50000FA9B048FCF71AF9AF4B93E80300039090
:104F6000ADF8101030A803A939F0E6FE0022034680
:104F700004460FA91BA836F033FB22461FA80FA931
:104F800036F052FBA549A348FCF7F2F81FA9A14847
:104F9000FCF7FCF8012300221FA923A836F020FB10
:104FA0009E499C48FCF7E4F827AC1FA99948FCF7F8
:104FB000EDF801221FA9204636F036FB98499548A6
:104FC000FCF7D6F817A99348FCF7E0F89549914803
:104FD000FCF7CEF81BA98F48FCF7D8F892498D480A
:104FE000FCF7C6F823A98B48FCF7D0F88F4989480D
:104FF000FCF7BEF821468748FCF7C8F817A88C498B
:1050000036F09EFA002800F0FA828A4B00221A60DD
:10501000874923A836F094FA002800F0F982864BDD
:1050200000221A6000230A2205A91BA836F0ACFA58
:1050300005A838F0ABFD51EC100B38F085FA7F4E27
:105040007F4D306000230A2208A9204636F09CFAE2
:1050500008A838F09BFD51EC100B38F075FA79492F
:1050600028606C48FCF784F805A96A48FCF798F8B2
:1050700075496848FCF77CF8306837F019FF41EC57
:10508000100B02216348FCF7BDF870496148FCF73A
:105090006FF808A95F48FCF783F86D495D48FCF795
:1050A00067F8286837F004FF41EC100B02215948DB
:1050B000FCF7A8F8204636F01BF923A836F018F9BB
:1050C0001FA836F015F91BA836F012F917A836F00C
:1050D0000FF9604B0F9C002C08BF1C46204638F08F
:1050E00055FD0B215C48B0EE408AF0EE608A35F049
:1050F00053FA0FA9474835F071FE464835F094FE43
:105100000C21564835F048FA204639F039FE014660
:10511000204635F041FA3F4835F086FE07215048D9
:1051200035F03AFAB0EE480AF0EE680A0221394842
:1051300035F0D6FE374835F077FE1A21494835F06C
:105140002BFA344835F070FE2F9BCDF8ACA013B18C
:105150002FA8FBF721FE13A836F0CAF80FA836F0E7
:10516000C7F80BA836F0C4F8B0EE480AF0EE680AAB
:1051700044B0BDEC028BBDE8F087416D19B191F8E8
:1051800031301B071CD42F9D002D3FF402AE2B683D
:10519000354ADB6A934233D1A86D18B138F056FD19
:1051A0000023AB652B6D002B00F01D8205F118006C
:1051B0002FF0D6FB2FA8FBF7EFFDEAE59847CEE5E9
:1051C000D1E90423D1E90001101A63EB01018F42F8
:1051D00008BF8642BFF4C3AD6FF00040BFE5436D2A
:1051E000002B7FF498AD214B214801220F211A702A
:1051F00035F0D2F9074835F017FE9FED038BA3E792
:1052000028469847D6E700BF000000000000F0BF26
:10521000A0240400E808FF1FBC2604004825040061
:1052200054250400682504007C2504009025040012
:10523000A4250400A81BFF1F8C1BFF1FC807FF1F0E
:10524000BC07FF1FB0250400C4250400DC250400B2
:10525000F0250400A09604007C26040088260400A3
:1052600098260400A02604006D0500000416FF1F08
:10527000F023040001210BA836F078F90178B24838
:1052800036F000F902220BA930A836F0CDF930A98A
:105290000FA836F0E5F830A836F02AF8AB49AC484C
:1052A000FBF766FFA849AA48FBF770FFA949A84881
:1052B000FBF75EFF0FA9A648FBF768FF09E7A649C1
:1052C000A348FBF76DFF0FA9A44836F0C1F89FED86
:1052D0009C8B39E7A24CA3499D4801232370FBF71F
:1052E00047FF21789A48FBF76DFF9FED958B2BE7E1
:1052F00001210BA836F03AF927AC0178204636F0A8
:105300007DF82046984936F01BF9002840F070815E
:105310009649204636F014F9002800F082810223D5
:1053200093498B482B60FBF723FF02220BA930A87F
:1053300036F07AF930A90FA836F092F830A835F097
:10534000D7FF2968824835F0C3FD8A498048FBF7BA
:105350000FFF0FA97E48FBF719FF204635F0C8FF65
:10536000B7E601210BA836F001F90178824836F042
:1053700089F802220BA930A836F056F930A90FA8F7
:1053800036F06EF830A835F0B3FF7C497048FBF773
:10539000EFFE79496E48FBF7F9FE794987E701216D
:1053A0000BA836F0E3F80178764836F06BF8022265
:1053B0000BA930A836F038F930A90FA836F050F80C
:1053C00030A835F095FF70496148FBF7D1FE6D4973
:1053D0005F48FBF7DBFE6D4969E701210BA836F05A
:1053E000C5F801786A4836F04DF802220BA930A8BA
:1053F00036F01AF930A90FA836F032F830A835F097
:1054000077FF64495248FBF7B3FE61495048FBF708
:10541000BDFE61494BE70023142230A90FA836F0E6
:10542000B3F85E495E4D5F4C30A83AF0A3FF38F008
:10543000ADFB51EC100B38F087F85B492860002079
:105440003AF098FF38F0A2FB51EC100B38F07CF8E2
:10545000564920603E48FBF78BFE0FA93C4835F0CB
:10546000BDFC53493A48FBF783FE286837F020FD1E
:1054700041EC100B0221364835F032FD4D493448DD
:10548000FBF776FE206837F013FD41EC100B02218C
:105490002F48FBF7B7FE1CE601210BA836F066F893
:1054A0000178454835F0EEFF02220BA930A836F00E
:1054B000BBF830A90FA835F0D3FF30A835F018FF9E
:1054C0003E492348FBF754FE31492148FBF75EFE75
:1054D0003B49ECE601210BA836F048F80178394841
:1054E00035F0D0FF02220BA930A836F09DF830A984
:1054F0000FA835F0B5FF30A835F0FAFE3249144850
:10550000FBF736FE2F491248FBF740FE2F49CEE647
:10551000134C2F49E0E6439B002B7FF4BEAB4FF4C6
:105520007A72DFF8B0A08DF8B0308DF8B8302F93D4
:105530002D92CDF8ACA00DF1D008FFF7D9BB00BF7C
:1055400000000000000000003418FF1FD8240400F1
:10555000E808FF1FF424040060240400B413FF1FB4
:105560002C15FF1F1C250400A42504003026040070
:105570003426040044260400201BFF1F08260400D4
:1055800014260400C413FF1F6C24040078240400B4
:10559000CC15FF1F84240400902404009C240400E4
:1055A000981BFF1F0016FF1F7C900400A02404001E
:1055B000A8240400B42404002418FF1FC0240400FD
:1055C000CC2404007C13FF1F0425040010250400D4
:1055D0004C26040084180400984700283FF403AECA
:1055E0002F98FFF798BB6B6D002B7FF4DFADE1E5E3
:1055F0000123324932482B60FBF7BAFD95E6314969
:1056000017A835F09DFFA0B12F4B01221A60FFE4CF
:105610002C4923A835F094FFA0B12C4B01221A602D
:1056200000E52B49204635F08BFFA0B103232B600A
:105630007BE6284917A835F083FFB0B1224B022240
:105640001A60E5E4234923A835F07AFFB0B11F4B77
:1056500002221A60E6E42049204635F071FF002856
:105660003FF463AE04232B605FE6194917A835F0B9
:1056700067FF60B1144B03221A60C9E4144923A8E0
:1056800035F05EFF70B1114B03221A60CAE4124973
:1056900017A835F055FF00283FF4BAAC0A4B042296
:1056A0001A60B5E40C4923A835F04AFF00283FF4FE
:1056B000B9AC064B04221A60B4E400BF20260400F3
:1056C000E808FF1FC0260400A81BFF1F8C1BFF1F3C
:1056D000A8250400F89A0400AC25040008B5084B7E
:1056E000DFED080AD3ED007A27EE800A36F01CFAC7
:1056F00036F072F9044BD3ED007A20EE270A08BD8C
:10570000D816FF1FDB0FC9406C1AFF1F08B5304ABF
:10571000304B92ED010A93ED007ADFED2F6A2F4BAB
:10572000B8EEC77A5B6CC6EE877A013BB8EEC00A6A
:105730002DED028B27EE800A032B45D8DFE803F01E
:105740003E383202264B93ED018AB8EEC88AFFF745
:10575000C5FF244A244B92ED007A002283F8902062
:1057600072B6DFED227A93ED206AD3ED1F6A30EE38
:10577000480AB8EEC77AC0EE275AC5EE877A67EEB8
:10578000867AF4EEE67AC3ED1E7AD3ED227AF1EE54
:1057900010FAD8BFF1EE677AC3ED237A62B6BDEC9A
:1057A000028B08BD124B93ED018AB8EEC88ACEE792
:1057B000104B93ED018AB8EEC88AC8E70E4B93ED03
:1057C000018AB8EEC88AC2E79FED0C8ABFE700BF26
:1057D000AC1BFF1FA41BFF1FDB0FC940901AFF1F4C
:1057E000E813FF1FD413FF1FD819FF1FCDCCCC3CEB
:1057F0000816FF1FA018FF1FE418FF1F000000007D
:105800002DE9F041C54BBEB01D6805AC2D1B3EAE69
:10581000281932F075F904F8010BA642F8D1C049F5
:10582000C04CC14EC14DC24F01A835F0A1FD0021B1
:1058300001A8FDF723F801A835F05AFD2220FDF755
:1058400077FCDDED057A0020B8EE670AFDF714FC61
:10585000216801A835F08CFD002101A8FDF70EF8A4
:1058600001A835F045FDB34901A835F081FD0021BF
:1058700001A8FDF703F801A835F03AFD2220FDF755
:1058800057FCDDED067A0020B8EE670AFDF7F4FB61
:10589000216801A835F06CFD002101A8FCF7EEFF9E
:1058A00001A835F025FDA44901A835F061FD0021CE
:1058B00001A8FCF7E3FF01A835F01AFD2220FDF74F
:1058C00037FC9DED070A0420FDF7D6FB216801A8EF
:1058D00035F04EFD002101A8FCF7D0FF01A835F0FE
:1058E00007FD964901A835F043FD002101A8FCF70A
:1058F000C5FF01A835F0FCFC2220FDF719FC9DF83E
:10590000B01001A8002914BF3146294635F030FDFA
:10591000002101A8FCF7B2FF01A835F0E9FC2168DD
:1059200001A835F025FD002101A8FCF7A7FF01A87B
:1059300035F0DEFC824901A835F01AFD002101A8EE
:10594000FCF79CFF01A835F0D3FC2220FDF7F0FB0B
:10595000DDED087A0020B8EE670AFDF78DFB2168BF
:1059600001A835F005FD002101A8FCF787FF01A87B
:1059700035F0BEFC734901A835F0FAFC002101A8FE
:10598000FCF77CFF01A835F0B3FC2220FDF7D0FB2B
:10599000DDED097A0020B8EE670AFDF76DFB21689E
:1059A00001A835F0E5FC002101A8FCF767FF01A87C
:1059B00035F09EFC644901A835F0DAFC002101A80D
:1059C000FCF75CFF01A835F093FC2220FDF7B0FB4B
:1059D000DDF82880062000EE108AFDF74DFB2168D7
:1059E00001A835F0C5FC002101A8FCF747FF01A87C
:1059F00035F07EFC2321554834F0CEFD786937F030
:105A000057FA41EC100B0821514835F069FA50481B
:105A100035F00AFA27214F4834F0BEFD404637F0F2
:105A200047FA41EC100B0821494835F059FA48482B
:105A300035F0FAF9484901A835F09AFC002101A88F
:105A4000FCF71CFF01A835F053FC2220FDF770FB8A
:105A50009DF8B11001A8002914BF3146294635F040
:105A600087FC002101A8FCF709FF01A835F040FCE4
:105A7000216801A835F07CFC002101A8FCF7FEFE9E
:105A800001A835F035FC354901A835F071FC00213D
:105A900001A8FCF7F3FE01A835F02AFC2220FDF74F
:105AA00047FBDDED0D7A0020B8EE670AFDF7E4FA5A
:105AB000216801A835F05CFC002101A8FCF7DEFE9E
:105AC00001A835F015FC264901A835F051FC00214C
:105AD00001A8FCF7D3FE01A835F00AFC2220FDF74F
