:1000000000000320D1010000FDA80300B5A80300F3
:10001000B5A80300B5A80300B5A80300B5A8030060
:10002000B5A80300B5A80300B5A80300FDA8030008
:10003000FDA80300B5A8030005CD030009CD03000A
:10004000FDA80300FDA80300FDA80300FDA8030010
:10005000FDA80300FDA80300FDA80300FDA8030000
:10006000FDA80300FDA80300FDA80300FDA80300F0
:10007000FDA80300FDA80300FDA80300FDA80300E0
:10008000FDA80300FDA80300FDA80300FDA80300D0
:10009000FDA80300FDA80300FDA80300FDA80300C0
:1000A000FDA80300FDA80300FDA80300FDA80300B0
:1000B000FDA80300FDA80300FDA8030095B50300FB
:1000C000FDA80300FDA80300FDA80300B9BC0300C0
:1000D000FDA80300FDA80300FDA80300FDA8030080
:1000E000FDA80300FDA80300819E0300FDA80300F6
:1000F000FDA80300FDA80300FDA80300FDA8030060
:1001000075D0030089D003009DD00300B1D0030057
:10011000FDA80300A9BF0300FDA80300FDA803007C
:10012000FDA80300FDA80300FDA80300FDA803002F
:10013000FDA80300FDA80300FDA80300FDA803001F
:10014000FDA80300FDA80300FDA80300FDA803000F
:10015000FDA80300FDA80300FDA80300FDA80300FF
:10016000FDA80300FDA80300FDA80300FDA80300EF
:10017000FDA80300FDA80300FDA80300FDA80300DF
:10018000FDA80300FDA80300FDA80300FDA80300CF
:10019000FDA80300FDA80300FDA80300FDA80300BF
:1001A000FDA80300FDA80300FDA80300FDA80300AF
:1001B000FDA80300FDA80300FDA80300FDA803009F
:1001C000FDA80300FDA80300FDA80300FDA803008F
:1001D0005C4B4CF2205210B51A804DF628121A8052
:1001E00000BF00BF3AF08EFB574B4FF030621A60F1
:1001F000564A9A60564ADA60564B4FF470021A60BB
:10020000554B564A1A60564B1A78110703D51A787F
:1002100042F008021A70534B5349AA221A70534AEB
:10022000534B8B4204D252F8040F43F8040BF8E707
:10023000504B514900228B4202D243F8042BFAE77B
:100240004E494F4A002352F8230041F8230001335E
:10025000742BF8D14B4B4C4A802103F8011B93427D
:10026000FBD14A4B454A1A60494B8A221A70A3F5C2
:10027000805324225A70A0221A709A799207FCD5D2
:100280009A79D406FCD4434A937903F00C03082BE3
:10029000FAD1414B60221A7002331A78802AFCD1BD
:1002A0003C4B00221A714E225A719A799006FCD565
:1002B0009979384A4906FBD5384B394919600821E4
:1002C000596020231370937903F00C030C2BFAD19F
:1002D000344B354A1A60354A354C136813F4807331
:1002E00003D123604FF4A8531360324B324A1A6093
:1002F00000225A60072243F8042C304AC3F80C2D20
:1003000062B63AF083FC2368DA0705D52C483AF048
:10031000DBFB2C4B2C4A1A602C4B1B785B0609D557
:10032000284C294B22689A4204D125483AF0CCFB4C
:10033000002323603AF0ECFA3FF0CEFD3CF0C2FE21
:10034000FEE700BF0E20054030800440823F0400DD
:100350000100002B88ED00E0002008E0030000858C
:1003600002D0074000E007403813FF1F04B7040025
:100370003007FF1F3813FF1FA823FF1F0002FF1FB6
:100380000000000000E400E064E400E008ED00E0AC
:10039000005006400040064001E007404480044011
:1003A0000000070304800440C010050010D0034083
:1003B00014D0034014E000E07FA9030000002020D7
:1003C000D80FB1621CE00340A5C3945A00F0074067
:1003D000FFFFFFFFFFFFFFFFFFFFFFFFFFFFFFFF2D
:1003E000FFFFFFFFFFFFFFFFFFFFFFFFFFFFFFFF1D
:1003F000FFFFFFFFFFFFFFFFFFFFFFFFFFFFFFFF0D
:10040000FFFFFFFFFFFFFFFFFFFFFFFFDEF9FFFF23
:1004100010B5054C237833B9044B13B10448AFF33E
:1004200000800123237010BD3813FF1F000000005F
:1004300000B70400084B10B51BB108490848AFF3DA
:1004400000800848036803B910BD074B002BFBD0A0
:10045000BDE81040184700BF000000003C13FF1F1C
:1004600000B704003813FF1F000000000020704791
:10047000704700BF036D0BB101207047406D003025
:1004800018BF0120704700BF00690B699842D4BFB4
:1004900000200120704700BF80698B690028B8BF29
:1004A0004042002BB8BF5B429842D4BF00200120DD
:1004B000704700BFF0B586460120DEF85870DEF8C0
:1004C0003030BA6A106079683A680A447A600EF18E
:1004D000300493B15A69002A08DB9A6A10605E689A
:1004E00019683D695A6931445960521B19690A44B7
:1004F0005A6154F8043F002BECD1DEF82430144A42
:10050000DEF81840DEF86C0000211160DB00516855
:1005100003F1804303F5603321440D241961146015
:10052000DA68502122F08002DA60D96000B1F0BDB3
:100530007A68FB689A4200D0F0BDDEF85C30012298
:100540008EF82820002BF7D0BDE8F040184700BFF8
:1005500000800340C36A00F12C0233B10120D96A44
:1005600052F8043F0860002BF9D1704710B50446DB
:10057000806D18B13FF000FD0023A365236D2BB102
:1005800004F11800BDE8104036F0DABF636D002BAF
:10059000F6D110BDF0B5002395B01A4605461831C6
:1005A00004A84FF47A74224F8DF804308DF80C3083
:1005B000129313930294009737F016F8129B002BB6
:1005C0002BD05C203CF086FD04461A4B9DF80400BD
:1005D000029A1949236000269DF80C302073A1600F
:1005E000226104A9237504F11800666036F07AFFD1
:1005F0006368124AA76001334FF47A71A6652E71C1
:100600002E732C616360A9602A600D4B009304A8CF
:1006100036F096FF284615B0F0BD139B002BD0D1C5
:10062000064A2B71AC602B732B612A60EDE700BF8B
:10063000603B0400B03B0400183B0400843B040012
:100640003C3B0400836C13B1184635F0F5B9C06C1F
:1006500008B133F039B84FF0FF30704700B5836C04
:1006600083B063B1184601220DF1070135F014F98A
:1006700001280CD19DF8070003B05DF804FBC06CA5
:1006800028B101220DF1070132F04AFFF0E74FF0E7
:10069000FF30F1E708B53BF083FA0028CCBF032018
:1006A000002008BD836D012280F890205B6872B63F
:1006B000DFED0B6AD0ED207A90ED1F7A67EEA67A17
:1006C000F4EEC77AC0ED1E7AD0ED227AF1EE10FA80
:1006D000D8BFF1EE677AC0ED237A62B6704700BFEB
:1006E00000000000036D9BB11A7812F0700F00D16A
:1006F000704710B504460021184635F0BFFA606D0A
:1007000028B100220023BDE8104032F0F5BF10BD33
:10071000406D0028ECD090F8313013F0500FE7D046
:100720000022002332F0E8BF38B5846D0CB12046BA
:1007300038BD05464FF480703FF016FC0146A865B1
:1007400080B1286D0C7028B14FF4807236F002FD34
:10075000AC6DECE7686D40B14FF4807234F03CFB57
:10076000AC6DE4E7024CAC65E1E70C46DFE700BFA7
:100770005413FF1F8A79A2F150031B0620D4F0B551
:100780004B79046D0D798E784F780978013385B0F7
:1007900002F26C72DBB244B103918DE8E0002046B6
:1007A000022135F083FB05B0F0BD406D0028FAD082
:1007B00003918DE8E000022133F058FD05B0F0BD53
:1007C00000207047D0B5046D8CB1012B08BF002A02
:1007D00001D30020D0BD1146204635F04FFA002845
:1007E000F7D0204635F0CAFB0028F2D0D0BD446DCA
:1007F000002CEED0204632F07FFF0028E9D02046C2
:10080000BDE8D04033F0E0BDF0B5036D83B00C46D9
:100810002BB318460DF1060201A934F0B1FED8B190
:10082000BDF80430BDF8062003B9AAB102F01F06D6
:10083000C3F343155912C2F345177600013D01F584
:10084000EA6103F01F03D21226706571A171237152
:100850006770A27003B0F0BD002003B0F0BD406D22
:100860000028F9D00DF1060201A932F0F9FDD6E712
:10087000F0B5036D83B00C462BB318460DF106029C
:1008800001A934F06DFED8B1BDF80430BDF80620E2
:1008900003B9AAB102F01F06C3F343155912C2F3FC
:1008A00045177600013D01F5EA6103F01F03D212FE
:1008B00026706571A17123716770A27003B0F0BDDD
:1008C000002003B0F0BD406D0028F9D00DF1060204
:1008D00001A932F0B5FDD6E7036D13B158690021C7
:1008E0007047436D13B193E80300704718461946EB
:1008F000704700BF036D13B1D86900217047436D85
:1009000013B118695969704718461946704700BFF6
:10091000036D13B1184634F0BFBF406D08B132F01B
:10092000FFBD4FF0FF307047036D13B1184635F02F
:1009300083B8406D08B132F0C7BE4FF0FF3070474A
:10094000036D33B11B7813F0700F14BF012000202A
:100950007047406D30B190F8313013F0500F14BF34
:1009600001200020704700BF8A79A2F150031B06C6
:1009700020D4F0B54B79046D0D798E784F780978D5
:10098000013385B002F26C72DBB244B103918DE8A1
:10099000E0002046042135F089FA05B0F0BD406D35
:1009A0000028FAD003918DE8E000042133F05EFCCA
:1009B00005B0F0BD00207047036963B11A680749AC
:1009C00092698A4208D1186D08B135F069BA586D3C
:1009D00008B133F0DFBA704718461047E10900004C
:1009E000036D13B1184635F05BBA406D08B133F0B2
:1009F000D1BA7047836C13B1184635F051BAC06C48
:100A000008B133F0C7BA704703698BB110B41C68E2
:100A10000D48E468844211D1186D18B15DF8044B9B
:100A200035F0E8BA586D28B15DF8044B33F03CBDA1
:100A30000020704700205DF8044B7047184623469D
:100A40005DF8044B184700BFD10A0000036973B179
:100A50001A68084952698A4207D1186D08B134F002
:100A6000EBBF586D18B132F02FBE184610474FF04B
:100A7000FF30704729090000036923B310B51968D6
:100A8000124A8C68944282B014D1186D48B1012288
:100A90000DF1070134F000FF90B19DF8070002B09E
:100AA00010BD586D0028F8D001220DF1070132F079
:100AB00037FDF1E7184601220DF10701A047EBE7EA
:100AC0004FF0FF30EBE74FF0FF30704711090000A7
:100AD000036D13B1184635F08DBA406D08B133F08F
:100AE000E3BC7047836C13B1184635F083BAC06C11
:100AF00008B133F0D9BC704700B5836C83B08DF872
:100B0000071043B1184601220DF1070135F072FAC2
:100B100003B05DF804FBC06C0028F9D001220DF190
:100B2000070133F0C1FC03B05DF804FB10B50369A5
:100B300082B08DF80710BBB11968104ACC68944296
:100B400015D1186D30B101220DF1070135F052FABF
:100B500002B010BD586D0028FAD001220DF1070136
:100B600033F0A2FC02B010BD184602B010BD18460A
:100B700001220DF10701A04702B010BDD10A00000B
:100B8000026D62B1137803F0080303F0FF0003B3B2
:100B9000D3695069181A48BF6FF000407047416D23
:100BA000C1B191F8313003F0080303F0FF0083B1C5
:100BB000D1E90423D1E90001101A30B463EB01013B
:100BC00000256FF000448D4208BF844200D22046C9
:100BD00030BC704708467047826C62B1137803F0EE
:100BE000080303F0FF0003B3D3695069181A48BF24
:100BF0006FF000407047C16CC1B191F8313003F023
:100C0000080303F0FF0083B1D1E90423D1E9000117
:100C1000101A30B463EB010100256FF000448D42DF
:100C200008BF844200D2204630BC70470846704757
:100C3000006970B30368184A1B6993420ED1026DB4
:100C40006AB1137803F0080303F0FF000BB3D36914
:100C50005069181A48BF6FF0004070471847416D3F
:100C6000C1B191F8313003F0080303F0FF0083B104
:100C7000D1E90423D1E90001101A30B463EB01017A
:100C800000256FF000448D4208BF844200D2204608
:100C900030BC704708467047810B0000D0B4039CFD
:100CA00016461F4634B1012C1ED0022C0DD0002058
:100CB000D0BC7047046DDCB1012B08BF002AF6D20E
:100CC00020461146D0BC34F0D9BF036DB3B1DA6908
:100CD000B61847F10007012F08BF002EE7D23146B2
:100CE0001846D0BC34F0CABF036D8BB15A69EFE728
:100CF000406D0028DBD0D0BC32F0FEBC406D002837
:100D0000D5D0D0E9042392197B41D0BC32F0F4BC99
:100D1000406D0028CBD0D0E9002392197B41EAE74F
:100D200038B50446806D0C4B236018B13FF024F9B0
:100D30000023A365236D04F118054BB1284636F056
:100D4000FFFB064BA360284636F0FAFB204638BD71
:100D5000636D002BF2D1F4E7B03B04003C3B040090
:100D600038B50446806D0E4B236018B13FF004F98E
:100D70000023A365236D04F118056BB1284636F0F6
:100D8000DFFB084BA360284636F0DAFB20465C21E7
:100D90003CF0A4F9204638BD636D002BEED1F0E79E
:100DA000B03B04003C3B040070B505686C68013C36
:100DB00006466C6014B10023336070BD2B68204A76
:100DC000DB6A93422DD1A86D10B13FF0D5F8AC6528
:100DD0002B6D63B305F1180036F0B2FB3468002CBC
:100DE000E9D02368174A5B6893421DD1A06D164B6A
:100DF000236018B13FF0C0F80023A365236D04F110
:100E00001805C3B1284636F09BFB104BA36028465B
:100E100036F096FB20465C213CF060F900233360FD
:100E200070BD28469847D9E720469847C3E76B6DC1
:100E3000002BCFD1D2E7636D002BE3D1E5E700BFF4
:100E40006D050000610D0000B03B04003C3B040058
:100E500070B50469244B036005461CB16668013E09
:100E600066600EB1284670BD2368204ADB6A934253
:100E70002CD1A06D10B13FF07FF8A665236D5BB358
:100E800004F1180036F05CFB2C69002CEAD02368D2
:100E9000174A5B6893421CD1A06D164B236018B1B2
:100EA0003FF06AF80023A365236D04F11806BBB177
:100EB000304636F045FB104BA360304636F040FB21
:100EC00020465C213CF00AF9284670BD2046984730
:100ED000DAE720469847C5E7636D002BD0D1D3E70A
:100EE000636D002BE4D1E6E7843B04006D05000050
:100EF000610D0000B03B04003C3B040070B5056987
:100F0000284B036004461DB16E68013E6E602EB131
:100F1000204614213CF0E2F8204670BD2B68224A9E
:100F2000DB6A934230D1A86D10B13FF025F8AE6571
:100F30002B6D7BB305F1180036F002FB2569002DFF
:100F4000E6D02B68194A5B68934220D1A86D184BF4
:100F50002B6018B13FF010F80023AB652B6D05F145
:100F60001806DBB1304636F0EBFA124BAB60304678
:100F700036F0E6FA28465C213CF0B0F82046142111
:100F80003CF0ACF8204670BD28469847D6E7284686
:100F90009847BDE76B6D002BCCD1CFE76B6D002B75
:100FA000E0D1E2E7843B04006D050000610D000024
:100FB000B03B04003C3B0400036A8B4210B523D0D5
:100FC000C369994200D010BD8369002BFBD072B673
:100FD000194AC369846900211160DB00516803F17B
:100FE000804303F5603321440D2419611460DA68ED
:100FF000502122F08002DA60D96062B6006903688D
:10100000BDE810405B6818470446006903689B68A8
:10101000984794F82430002BD5D004F108003CF018
:1010200007F80023E069636038F012FF206ABDE82A
:10103000104038F00DBF00BF008003402DE9F041A3
:101040008568002D31D0816D836F04464868D4F8DF
:10105000AC101B1A002BB8BF5B428B423ADBD4F8B2
:10106000B0108B422A4608DBE16F8B4265DB936848
:1010700023F002039360BDE8F081D4F888100029C2
:10108000F5D02B683B4A93421ED96A683A48B0FBB8
:10109000F1F19B1A99420AD3CB1A002401200322B2
:1010A000AC60E8602B60AA602960BDE8F0816069EF
:1010B0000368002601240322AE601B68EC602960EF
:1010C000AA60BDE8F04118472B4BB3FBF1F1296052
:1010D000BDE8F081D4E92401D4F8A82002FB03F391
:1010E000C61841F10007304639463EF0E3FC07EEF2
:1010F000900AB1EEE70AB4EE400AF1EE10FA2ED1F2
:10110000FDEEC07A2A4617EE903A17EE901ADBB140
:10111000002DB6D11949184D0E68B5FBF3F51EB177
:1011200002210120B047A268002001210323906022
:10113000D16015609360BDE8F081CB1AD4F8A82087
:10114000D4E92601013BC9E7002D90D10B4B1B6868
:10115000002B8CD0022101209847A26887E73946EE
:1011600030463EF0A7FC00EE100A3CF0D3FEA56826
:10117000C6E700BF7FA9030000879303CC20FF1FB1
:1011800070B5044608460D463FF07AFF23680246D4
:10119000294620465B68BDE87040184738B50446CC
:1011A00008460D463FF06CFF2368024629465B68FF
:1011B00020469847054620463BF0CEFF284438BDE0
:1011C00038B505463CF01CF8044628463BF0C4FF01
:1011D000204438BD38B505463CF012F80446284690
:1011E0003BF0BAFF204438BD38B50A22002305463B
:1011F0003BF0C6FF044628463BF0AEFF204438BD16
:1012000038B5C9B205463CF003F8044628463BF021
:10121000A3FF204438BD00BF10B5044608303BF0A2
:1012200007FF0023E069636038F012FE206ABDE822
:10123000104038F00DBE00BF70B543680446C9B118
:10124000002B2CD01A682348824219D95868224DA5
:10125000B5FBF1F1121A914217D2206902680026FB
:10126000012503249E601268DD6019609C60BDE862
:10127000704010472BB39A6822F002029A6070BD4A
:10128000154AB2FBF1F1196070BD8A1A00250124DC
:1012900003209D60DC601A609860196070BD0F4A81
:1012A0000D4D1268B5FBF1F51AB1022101209047EE
:1012B00063680020012103229860D9601D609A6054
:1012C00070BD064B1B68002BD5D00221012098472A
:1012D0006368D0E77FA9030000879303CC20FF1F3A
:1012E000D0ED1F7A90ED1E7A38B5F4EE477A836D13
:1012F000F1EE10FA04465A6833D1FDEEC77A17EEC4
:10130000905A94F890200AB1002D4AD09A68AA42C7
:1013100026D0002D1B68ACBF01224FF0FF329A424D
:1013200015D004F12801012008E013685B42012B6D
:1013300013600BBF126B536B1360186051F8042FCE
:10134000002AF2D1636F03EB83031B0120D185EAEE
:10135000E571A1EBE571201DFFF76EFFA36D9D60A8
:1013600038BDD0ED236AF5EEC06A77EEA67AF1EECD
:1013700010FAB4EEE77A0EDDF1EE10FAD8BFF0EE17
:10138000477ABDEEE77AC4ED1F7A17EE105AB8E738
:10139000013BFDD1DBE7F1EE10FA58BFF0EE477AE2
:1013A000EFE704F10C003BF043FE206AA56038F043
:1013B0004FFD606A38F04CFDA36D9D6084F890503D
:1013C00038BD00BF2DE9F041C46A96B00546002C37
:1013D00032D023688B4A1B6B934227D1236D002B9D
:1013E00000F0FC802368884FDB6ABB4240F05581E7
:1013F000A06D18B13EF0C0FD0023A365236D002B46
:1014000000F0648104F1180036F09AF8EE6A74680E
:10141000013C7460002C00F005817C4F0023EB62DE
:10142000AB7E012B0CD144F202230EE020469847FC
:1014300010B1EC6A002CD5D1AB7E744F012BF2D0E9
:10144000022B40F2022318BF00232A46704902A84B
:1014500036F060F9149B002B44D05C203BF03AFE40
:1014600004466C4B9DF80C00049A6B4923600026DF
:101470009DF814302073A160226106A9237566606F
:1014800004F1180036F02EF86368644AA66501334B
:10149000636006A8A260029736F052F86368EE6AAD
:1014A00001336360002E00F09E807368013B73601F
:1014B0004BB3EC620CB363685E1E6660002E5AD0BC
:1014C000E86AD0B103684F4A1B6B934240F08D80AD
:1014D000036D002B00F0918000230120EB7616B005
:1014E000BDE8F081159C002CB7D106A8029736F014
:1014F00027F8EE6A002ED8D1EE620123EB760020A9
:1015000016B0BDE8F08132683F49D26A01938A4241
:1015100040F0BA80B06D18B13EF02EFD019BB3656E
:10152000336D002B00F0C88006F1180036F008F883
:10153000EE6A002EBDD03368394A5B68934240F0B2
:10154000A980B06D334B336018B13EF015FD002318
:10155000B365336D06F11808002B00F0B2804046E9
:1015600035F0EEFFB760404635F0EAFF30465C21CB
:101570003BF0B4FD9DE72368234ADB6A934240F0C9
:101580008680A06D10B13EF0F7FCA665236D002BA0
:1015900000F0868004F1180035F0D2FF2368204A5D
:1015A0005B68934240F08580A06D1A4B236018B1B0
:1015B0003EF0E2FC0023A365236D04F11806002B26
:1015C00000F08980304635F0BBFFA760304635F02B
:1015D000B7FF20465C213BF081FD71E7636D002B76
:1015E0007FF400AF28E7EC6266E7984700287FF4B5
:1015F00073AF0123EB76002082E7436D002B7FF46D
:101600006BAF7AE7750400006D0500003C3B0400F9
:10161000A41BFF1FB03B0400183B0400603B040008
:10162000610D00003368DB6ABB4259D1B06D10B167
:101630003EF0A2FCB465336D002B57D006F11800C4
:1016400035F07EFFEC6A002C3FF4E7AE2368294AB0
:101650005B68934247D1A06D274B236018B13EF0E1
:101660008BFC0023A365236D04F11806EBB1304613
:1016700035F066FF214FA760304635F061FF204608
:101680005C213BF02BFDC9E63046904750E72046F1
:10169000984783E7304698470BE720469847B5E6DA
:1016A000636D002B7FF476AF78E7636D002BDED19E
:1016B000E0E72046984703E7736D002B7FF434AFD3
:1016C00036E7736D002B7FF44AAF4BE7636D002B59
:1016D0007FF498AE9AE6636D002B7FF473AF74E7E6
:1016E00030469847AEE72046984796E6736D002B44
:1016F000A4D1A7E7610D0000B03B04003C3B04000F
:1017000010B5364C36480C213BF096F91021204696
:101710003BF076FD20463BF01FFD0E2131483BF0AB
:101720008BF9542120463BF06BFD20463BF014FD25
:101730000F212D483BF080F94C2120463BF060FD05
:1017400020463BF009FD102128483BF075F9E421C3
:1017500020463BF055FD20463BF0FEFCE4212046B0
:101760003BF04EFD20463BF0F7FC0F2120483BF0BC
:1017700063F9602120463BF043FD20463BF0ECFC42
:101780000F211C483BF058F9702120463BF038FDF2
:1017900020463BF0E1FC142117483BF04DF978213D
:1017A00020463BF02DFD20463BF0D6FC132113488C
:1017B0003BF042F96C2120463BF022FD20463BF0F5
:1017C000CBFC10210E483BF037F9204634213BF08A
:1017D00017FD2046BDE810403BF0BEBCD408FF1FFB
:1017E000643C0400743C0400843C0400943C040009
:1017F000A83C0400B83C0400C83C0400E03C0400E1
:10180000F43C040010B509211E483BF015F91E48B0
:101810003BF0A2FCFE211D4831F0A0FA18BB0A21C2
:101820001A4831F09BFA98B909211848184C31F040
:1018300095FA18BB20600C2116483BF0FDF8216892
:1018400011483BF0DDFC1048BDE810403BF084BC83
:101850000F4C11480A23194623603BF0EDF80A4863
:101860003BF07AFCE7E70A4C0C480123092123608E
:101870003BF0E2F804483BF06FFCDCE70848092342
:10188000E9E700BF083D0400D408FF1FA01BFF1FAD
:10189000541AFF1F383D0400203D0400143D04008D
:1018A0002C3D040070B5064684B00D4632B1784B2D
:1018B000D3F8CC40012C00F0AE800022754C236898
:1018C0000193019923680093009B5B1A092BF9D9B6
:1018D000042E00F2DB80DFE806F036516B85030052
:1018E000002D00F0AE806A4B93F8A0100F2081F01D
:1018F000010139F0FDF8684B68481E6816213BF07D
:101900009BF80F2166483BF07BFC654806F001061A
:101910003BF022FC112163483BF08EF831466048D1
:101920003BF06EFC5E483BF017FC55B122685E4B05
:10193000039203991A6823680293029B5B1A9A42E6
:10194000F9D804B070BD002D00F08580504B93F89D
:101950009C10042081F0010139F0CAF8534B4F4824
:101960001E6816213BF068F804214D483BF048FC06
:101970004B48C6F340363BF0EFFBCBE7002D73D06E
:10198000434B93F89D100E2081F0010139F0B0F81F
:10199000474B42481E6816213BF04EF80E21404846
:1019A0003BF02EFC3E48C6F340063BF0D5FBB1E7CA
:1019B000002D62D0364B93F89E10162081F0010165
:1019C00039F096F8344B35481E6816213BF034F850
:1019D000162133483BF014FC3148C6F340063BF077
:1019E000BBFB97E725B32A4B93F89F10112081F09A
:1019F000010139F07DF82F4B28481E6816213BF075
:101A00001BF8112126483BF0FBFB2548C6F3400696
:101A10003BF0A2FB7EE7102127483BF00DF8214662
:101A20001F483BF0EDFB1E483BF096FB224645E786
:101A3000002AE0D1164B112093F89F1039F058F886
:101A4000D9E7002A7FF457AF114B0F2093F8A0106D
:101A500039F04EF84FE7002A80D10D4B042093F85F
:101A60009C1039F045F879E7002A91D1084B0E20F7
:101A700093F89D1039F03CF88AE7002AA2D1044B74
:101A8000162093F89E1039F033F89BE7002641E7C3
:101A90001417FF1F0421FF1F90F00F405C3D04004E
:101AA000D408FF1F743D04007807FF1F10F00F409B
:101AB000D0F00F4050F00F40483D040070B52DEDC0
:101AC000028B044684B0002601A83FF0D9FA0146F3
:101AD00001A83AF0B1FF52483BF03EFB2368204694
:101AE0005B6998470021C5B24E483AF0A5FF4C48C3
:101AF0003BF032FB21214C483AF09EFF31464848EA
:101B00003BF07EFB042149483AF096FF28463BF023
:101B100017F8022146483AF08FFF294640483BF02B
:101B20006FFB3F483BF018FB042D71D0FF2D01A83F
:101B30003CD001AB9D553FF0A3FA014601A83AF015
:101B40007BFF37483BF008FB01360B2EBCD101A8C8
:101B50003EF0B2F904213748B0EE408AF0EE608AD8
:101B60003AF06AFF01A83FF08BFA014601A83AF06B
:101B700063FF2B483BF0F0FA07212F483AF05CFF57
:101B8000B0EE480AF0EE680A042125483BF040FB1D
:101B900023483BF0E1FAB0EE480AF0EE680A04B0E0
:101BA000BDEC028B70BD23685B69984723682046B3
:101BB0001B69984700282046F5DC01A83EF07CF917
:101BC00004211C48B0EE408AF0EE608A3AF034FFFF
:101BD00001A83FF055FA014601A83AF02DFF104840
:101BE0003BF0BAFA072114483AF026FFB0EE480A53
:101BF000F0EE680A04210A483BF00AFB08483BF073
:101C0000ABFA01A83EF058F904B0BDEC028B70BDF0
:101C100019210A483AF010FF01483BF09DFA93E77A
:101C2000D408FF1F50A90400883D0400AC3D040007
:101C30004C8F0400B43D0400BC3D0400C43D0400CE
:101C400001280BD0032806D010B19FED070B704779
:101C50000748FFF733BF0748FFF730BF0648FFF7D5
:101C60002DBF00BFAFF30080000000000000F0BFF8
:101C7000D408FF1FAC08FF1F9808FF1F38B5434D5D
:101C80004348EA6BAB6B95ED107AD5ED127A414C77
:101C900003FB02F32DED048B08EE103AB8EE488AF0
:101CA000DFED3D8A28EE078A0D2167EEA88AF0EE67
:101CB000409A3AF0C1FE18EE100A3DF08FFA41EC5E
:101CC000100B022120463BF0A3FA20463BF044FAD9
:101CD000112132483AF0B0FE286C3DF07FFA41EC19
:101CE000100B022120463BF093FA20463BF034FAD9
:101CF0000F212B483AF0A0FE89EEA89A18EE900A20
:101D00003DF06CFA41EC100B022120463BF080FACA
:101D100020463BF021FA102122483AF08DFE19EEC0
:101D2000900A3DF05BFA41EC100B022120463BF09B
:101D30006FFA20463BF010FA07211B483AF07CFE70
:101D400019EE100A3DF04AFA41EC100B0221204630
:101D50003BF05EFA28EE098A20463BF0FDF90821A7
:101D600012483AF069FE18EE100A3DF037FA41ECDD
:101D7000100B022120463BF04BFA20463BF0ECF9D9
:101D8000B0EE480ABDEC048B38BD00BF1417FF1F2E
:101D9000083E0400D408FF1FDB0FC940183E0400B2
:101DA0002C3E04003C3E0400503E0400583E04001B
:101DB00038B5434D4348EA6DAB6D95ED187AD5EDD6
:101DC0001A7A414C03FB02F32DED048B08EE103A16
:101DD000B8EE488ADFED3D8A28EE078A0D2167EECE
:101DE000A88AF0EE409A3AF027FE18EE100A3DF06D
:101DF000F5F941EC100B022120463BF009FA204690
:101E00003BF0AAF9132132483AF016FE286E3DF055
:101E1000E5F941EC100B022120463BF0F9F9204690
:101E20003BF09AF90F212B483AF006FE89EEA89A6A
:101E300018EE900A3DF0D2F941EC100B0221204639
:101E40003BF0E6F920463BF087F9102122483AF0B2
:101E5000F3FD19EE900A3DF0C1F941EC100B02219F
:101E600020463BF0D5F920463BF076F907211B4888
:101E70003AF0E2FD19EE100A3DF0B0F941EC100B1A
:101E8000022120463BF0C4F928EE098A20463BF0A7
:101E900063F9082112483AF0CFFD18EE100A3DF020
:101EA0009DF941EC100B022120463BF0B1F9204690
:101EB0003BF052F9B0EE480ABDEC048B38BD00BFD0
:101EC0001417FF1F083E0400D408FF1FDB0FC94092
:101ED000643E04002C3E04003C3E0400503E0400DE
:101EE000583E04001D4A1E4892ED117AD16B936B47
:101EF000C0EE077A10B503FB01F30A21194C2DED52
:101F0000028B08EE103AB8EE488AF0EE408A28EECE
:101F1000278A3AF091FD18EE900A3DF05FF941EC06
:101F2000100B022120463BF073F920463BF014F9D8
:101F30001A210D483AF080FD18EE100A3DF04EF9D6
:101F400041EC100B022120463BF062F920463BF0A9
:101F500003F9B0EE480ABDEC028B10BD1417FF1F49
:101F6000783E0400D408FF1F843E04001D4A1E482A
:101F700092ED197AD16D936DC0EE077A10B503FB1F
:101F800001F30A21194C2DED028B08EE103AB8EE40
:101F9000488AF0EE408A28EE278A3AF04DFD18EE86
:101FA000900A3DF01BF941EC100B022120463BF05A
:101FB0002FF920463BF0D0F81A210D483AF03CFDAD
:101FC00018EE100A3DF00AF941EC100B02212046F0
:101FD0003BF01EF920463BF0BFF8B0EE480ABDECDE
:101FE000028B10BD1417FF1F783E0400D408FF1F9A
:101FF000A03E04000138032840D8DFE800F0261195
:102000000A02204B5B6D002B36D0012B36D1FFF737
:10201000ADBF1C4B5B6B6BB3012B2FD1FFF762BFC6
:10202000184AD2F8B83003B3D2ED317AD2F8C010E2
:10203000D2F8BC3080EE277A03FB01F300EE103AB1
:10204000F8EE407A27EE870A70470E4A92ED057A3D
:102050001169D368C0EE077A03FB01F300EE103A72
:10206000B8EE400A20EE270A7047D2ED0A7A516A8C
:10207000136ADFE7FFF702BEFFF79ABE9FED020A81
:10208000704700BF1417FF1F0000000038B52F4D28
:102090002F4C95ED007AD4ED007AB5EEC07AF1EED2
:1020A00010FA48BFB1EE477AF5EEC07A48BF85ED29
:1020B000007AF1EE10FA44BFF1EE677AC4ED007ACF
:1020C00067EEA77A2DED048BE7EE077A08EE100A8B
:1020D00017EE900A08EE901A3DF080F841EC100BD4
:1020E0003BF058FE51EC100B3DF0C4FB94ED006A40
:1020F000D5ED006A07EE900A87EE867A87EEA69AFB
:10210000F8EEE88AB8EEC88A67EE287A17EE900AE9
:102110003DF064F841EC100B3BF09CFD51EC100BD2
:102120003DF0A8FB68EE097A206017EE900A3DF0BA
:1021300055F841EC100B3BF08DFD51EC100B3DF0D0
:1021400099FBBDEC048B286038BD00BFC815FF1F8C
:10215000401AFF1F4B4B1B68013B70B50A2B00F266
:102160009080DFE803F03648628E8E060606067819
:102170004800454B454C1868454E464DFFF760FDFD
:1021800051EC100B3DF02EFB434AE0620346116810
:10219000736120464C226B6438F0EAFA3F4B3046BC
:1021A0001968602238F0E4FA3D4B284619686C2221
:1021B00038F0DEFA16213B483AF03EFCE16A3A4834
:1021C00000230A223AF0DCFF3748BDE870403AF0BD
:1021D000C3BF2D4B354C1868FFF732FD51EC100B87
:1021E0003DF000FB324B6061196820467822BDE863
:1021F000704038F0BDBA244B2E4C1868FFF720FD14
:1022000051EC100B3DF0EEFA03460146264863619F
:102210003AF0F6FF24483AF09FFF274B2046196812
:102220007822BDE8704038F0A3BA174B234C1868E9
:10223000FFF706FD51EC100B3DF0D4FA204B606126
:1022400019682046342238F093FA162115483AF0DE
:10225000F3FB6169B3E70C4B1A4C1868FFF7F0FC0D
:1022600051EC100B3DF0BEFA174BA06219682046E6
:10227000702238F07DFA16210A483AF0DDFBA16A97
:102280009DE770BD8C07FF1FA007FF1F1418FF1FDD
:10229000B416FF1F3819FF1F9007FF1FBC07FF1F51
:1022A000A407FF1FBC3E0400D408FF1F3816FF1F01
:1022B000B007FF1F1815FF1F8407FF1F0419FF1F1A
:1022C0003407FF1F581AFF1FB407FF1F38B52A2114
:1022D000A748A84C3AF0B0FBA7483AF03DFF0E21C2
:1022E000A6483AF0A9FB2168A3483AF089FFA24822
:1022F0003AF032FF2368013B0A2B07D8DFE803F0EE
:1023000013273B5B060707070780270038BD9C4C57
:102310002368013B032B00F29F80DFE813F0590193
:102320001201FB008700974B974C1868FFF788FC59
:1023300051EC100B3DF056FAA36D013B0246032B06
:10234000E4D8DFE813F0D600C600B600A6008D4B37
:102350001868FFF775FC51EC100B3DF043FA8B4AFF
:10236000936D042B00F28D80DFE813F08A00AF013B
:10237000AD01AB01A901864C2368032B00F0A781B6
:10238000042B10D17F4B1868FFF75AFC51EC100B4F
:102390003DF028FA1621E0617E483AF04DFBE169F4
:1023A0007548FEF721FF7C4B794819683422BDE857
:1023B000384038F0DDB9794C2368013B0D2BA5D8A6
:1023C00001A252F823F000BF8F2600005F26000014
:1023D0002F260000FF2500000D2300000D23000024
:1023E0000D2300000D2300000D2300000D2300002D
:1023F0008F2600005F2600002F260000FF2500002A
:10240000674C636C012B00F07481022B00F07B8120
:10241000032B00F08281042B00F08981614B60481E
:1024200019687022BDE8384038F0A2B9554B5E4DAE
:102430001868FFF705FC51EC100B3DF0D3F95B4A2F
:10244000034616215348E3636B6253653AF0F4FA8E
:10245000E16B4948FEF7C8FE554B494819684C22C4
:1024600038F086F9534B50481968602238F080F9EB
:10247000514B4E4819686C22BDE8384038F078B9A5
:1024800050614E4B414819687822BDE8384038F019
:102490006FB94B4B626219683B48782238F068F993
:1024A000162148483AF0C8FA616A3348FEF792FEAE
:1024B00038BD434B226219683348782238F058F906
:1024C000162134483AF0B8FA216A2B48FEF782FE0A
:1024D00038BD3B4BE26119682B48782238F048F947
:1024E000152139483AF0A8FAE1692348FEF772FE4F
:1024F00038BD15213548A2613AF09EFAA1691E48FF
:10250000FEF768FE2E4B204819687822BDE8384057
:1025100038F02EB91B4B244D1868FFF791FB51EC96
:10252000100B3DF05FF9214A034616211948A363B9
:102530002B6213653AF080FAA16B0F48FEF754FE48
:102540008AE7104B184D1868FFF77AFB51EC100B17
:102550003DF048F9154A034615211B486363EB61BA
:10256000D3643AF069FA616B0348FEF73DFE73E706
:10257000D43E04008C07FF1FD408FF1F003F040057
:102580001418FF1FA007FF1F3816FF1F1815FF1F85
:102590000419FF1F403F04003407FF1FB414FF1F3E
:1025A000581AFF1FB407FF1FB416FF1F3819FF1F6B
:1025B0009007FF1FBC07FF1FA407FF1F8407FF1F13
:1025C000B007FF1F583F0400283F0400103F0400DD
:1025D0005C4B5D4D1868FFF733FB51EC100B3DF081
:1025E00001F95A4A0346152159482363AB619364A4
:1025F0003AF022FA216B5748FEF7F6FD2CE7514BD3
:102600001868FFF71DFB51EC100B3DF0EBF8524B37
:10261000206319685148542238F0AAF8162150480E
:102620003AF00AFA216B4B48FEF7DEFD38BD454B08
:102630001868FFF705FB51EC100B3DF0D3F8464B43
:10264000606219684548542238F092F816214448CF
:102650003AF0F2F9616A3F48FEF7C6FD38BD394BE2
:102660001868FFF7EDFA51EC100B3DF0BBF83A4B50
:10267000A06119683948542238F07AF81521394890
:102680003AF0DAF9A1693348FEF7AEFD38BD2D4BBB
:102690001868FFF7D5FA51EC100B3DF0A3F82E4B5C
:1026A000E06019682D48542238F062F81521284856
:1026B0003AF0C2F9E1682748FEF796FD38BD50624E
:1026C000DFE61062DDE6D061DBE69061D9E61D4B06
:1026D0001868FFF7B5FA51EC100B3DF083F816219E
:1026E000A0611F483AF0A8F9A1691A48FEF77CFDDD
:1026F00059E6144B1868FFF7A3FA51EC100B3DF0A4
:1027000071F8E0628AE60F4B1868FFF799FA51EC0E
:10271000100B3DF067F8206380E60A4B1868FFF75E
:102720008FFA51EC100B3DF05DF8606376E6054BD7
:102730001868FFF785FA51EC100B3DF053F8A063D1
:102740006CE600BFA007FF1FB416FF1F3819FF1F5C
:10275000103F0400D408FF1F4007FF1FB414FF1FE1
:10276000403F0400283F0400B94A92E80A0010B52F
:1027700003FB01F307EE903A92ED027AF8EE677AE6
:102780002DED048B67EE877A82B0044617EE900A2F
:10279000B0EE408A3CF022FD41EC100B3BF05AFABF
:1027A00051EC100B3DF01EF81E210190A9483AF0A3
:1027B00043F90921A8483AF03FF92146A7483AF0E1
:1027C0001FFDA6483AF0C8FC18EE100A3CF006FDC2
:1027D00041EC190B0221B0EE490AF0EE690A9F485C
:1027E0003AF016FD9D483AF0B7FC013C1E2199488D
:1027F0003AF022F9042C00F2DC80DFE804F0486DA6
:1028000092B60300964C236884ED038A012B00F0F6
:10281000D480DDED017AB8EEE77AC7EE087AFCEEF7
:10282000E77AC4ED027A16218E483AF005F901994B
:102830008A483AF0E5FC10218B483AF0FDF8B0EEFA
:10284000490AF0EE690A022184483AF0E1FC0321CA
:1028500086483AF0F1F8062185483AF0EDF806216D
:1028600084483AF0E9F80023A1687C480A223AF04B
:1028700087FC7A483AF070FC7F4B7948196810223F
:1028800002B0BDEC048BBDE8104037F071BF7B4C4B
:10289000236884ED038A012B00F0CB80DDED017A03
:1028A000B8EEE77AC7EE087AFCEEE77AC4ED027A72
:1028B000062173483AF0C0F806216E483AF0BCF899
:1028C0000023A16865480A223AF05AFC63483AF0AE
:1028D00043FC6C4B6948D1E76B4C236884ED038A59
:1028E000012B00F09780DDED017AB8EEE77AC7EEB4
:1028F000087AFCEEE77AC4ED027A062163483AF0E2
:102900009BF806215B483AF097F80023A1685348EA
:102910000A223AF035FC51483AF01EFC5C4B5A480A
:10292000ACE75C4C236884ED038A012B63D0DDEDBA
:10293000017AB8EEE77AC7EE087AFCEEE77AC4EDE2
:10294000027A062154483AF077F8062149483AF0CD
:1029500073F80023A16841480A223AF011FC3F486D
:102960003AF0FAFB4D4B4B4888E74D4C236884ED19
:10297000038A012B30D0DDED017AB8EEE77AC7EE9D
:10298000087AFCEEE77AC4ED027A062145483AF06F
:1029900053F8062137483AF04FF80023A1682F4832
:1029A0000A223AF0EDFB2D483AF0D6FB3E4B3C486C
:1029B00064E702B0BDEC048B10BDDFED3C7A88EE1D
:1029C000277ADDED017AF8EEE77A67EE877AFCEE9A
:1029D000E77AC4ED027A26E7DFED347A88EE277ACB
:1029E000DDED017AF8EEE77A67EE877AFCEEE77ABA
:1029F000C4ED027AC9E7DFED2D7A88EE277ADDEDA6
:102A0000017AF8EEE77A67EE877AFCEEE77AC4EDB2
:102A1000027A96E7DFED257A88EE277ADDED017AF6
:102A2000F8EEE77A67EE877AFCEEE77AC4ED027A91
:102A300063E7DFED1E7A88EE277ADDED017AF8EEA6
:102A4000E77A67EE877AFCEEE77AC4ED027A2FE741
:102A50001417FF1F703F0400903F0400D408FF1FAD
:102A6000181BFF1FC43F0400DC3F0400E88E040075
:102A7000F03F0400A43F04007407FF1FE81AFF1F83
:102A80009C3F04006807FF1FF81AFF1FAC3F0400BB
:102A90006C07FF1F6C13FF1FB43F0400C407FF1F28
:102AA000081BFF1FBC3F04007007FF1F0000B4435A
:102AB000F8B51D212DED028BB14D08EE100AB1487D
:102AC00039F0BAFFB0483AF047FBD5F8D800A0F18A
:102AD0000A031D2B40F232812F686B6895ED027A54
:102AE000AA4CAB4AD4ED036AAA48AB49AB4E03FBF0
:102AF00007F307EE903AF8EE677AB8EEC88A67EE09
:102B0000877A002387EEA67A03600B601360C7EE16
:102B1000087A17EE900A3CF061FB41EC100B3BF099
:102B200099F851EC100B3CF05DFE23683060013BDE
:102B3000032B00F22381DFE803F06F4825022B21ED
:102B4000974894ED068A39F077FFA0693CF046FB80
:102B500041EC100B02218C483AF05AFB8A483AF0BB
:102B6000FBFA6B6D002B00F0FF80012B40F006811B
:102B7000B0EE480AFFF7FAF98A4FBDEEC00A87EDBA
:102B8000000A9AE02B21864894ED068A39F054FF1A
:102B9000A0693CF023FB41EC100B02217A483AF08B
:102BA00037FB79483AF0D8FA6B6B002B00F0D280F3
:102BB000012B40F0E380B0EE480AFFF793F9794F1C
:102BC000BDEEC00A87ED000A77E0D5F8B8206C4B5F
:102BD000D4ED065A002A00F0B68093ED316A93EDE9
:102BE000307AD3ED2F7A6F4FC5EE866AB8EE477A0A
:102BF000F8EE677A26EE877A67EE277A17EE900A64
:102C00003CF0ECFA41EC100B3BF024F851EC100BCB
:102C10003CF0E8FD386050E094ED067AD5ED057A99
:102C2000604F87EE278AD5ED047A95ED037AF8EEAA
:102C3000677AB8EE477A67EE887A67EE877A17EE9A
:102C4000900A3CF0CBFA41EC100B3BF003F851EC4E
:102C5000100B3CF0C7FD18213860534839F0ECFEEA
:102C6000A0693CF0BBFA41EC100B022146483AF057
:102C7000CFFA45483AF070FA24214C4839F0DCFE8E
:102C800068693CF0ABFA41EC100B02213E483AF087
:102C9000BFFA3D483AF060FA1121454839F0CCFEC0
:102CA00018EE100A3CF09AFA41EC100B022136485B
:102CB0003AF0AEFA34483AF04FFA15213D4839F06F
:102CC000BBFE316830483AF09BFA2F483AF044FA9C
:102CD0002421394839F0B0FEE0683CF07FFA41EC3D
:102CE000100B022128483AF093FA27483AF034FAB8
:102CF0002921324839F0A0FEA0693CF06FFA41EC7E
:102D0000100B022120483AF083FA1F483AF024FAC7
:102D100014212B4839F090FE39681B483AF070FABC
:102D200019483AF019FA1421264839F085FEBDEC0D
:102D3000028B1548BDE8F8403AF00EBAC0B2002147
:102D400037F0D6FEC8E693ED0A6A93ED097AD3ED23
:102D5000087A48E7B0EE480AFEF790FF114FBDEE43
:102D6000C00A87ED000AA8E7B0EE480AFFF720F88E
:102D70000C4FBDEEC00A87ED000A9EE7094F9CE7A5
:102D80001417FF1FF83F0400D408FF1F3819FF1F56
:102D90000C14FF1FF817FF1FA419FF1F381BFF1F7C
:102DA000704004000C15FF1F18400400344004005C
:102DB0005C4004009C400400B4400400DC4004007B
:102DC0000841040020410400094B1B68012B0BD073
:102DD000032B05D003B17047014606483AF096B977
:102DE000014605483AF092B9014604483AF08EB9D6
:102DF000A007FF1FD408FF1FAC08FF1F9808FF1F84
:102E00002DE9F041102184B0C448C54C39F014FEBE
:102E1000C44B197819B92578002D00F03181C248CA
:102E2000C24F3AF0EDF90221C14839F005FE217890
:102E3000BD483AF0E5F9BC483AF08EF96C46BD4918
:102E4000BD4DBE4E20463AF029FC00212046FFF73A
:102E5000BBFF20463AF0E2FB396820463AF01EFC00
:102E600000212046FFF7B0FF20463AF0D7FBB449D7
:102E700020463AF013FC00212046FFF7A5FF20462C
:102E80003AF0CCFB396820463AF008FC0021204695
:102E9000FFF79AFF20463AF0C1FB95E8180003FBC4
:102EA00004F307EE903A326895ED027AA549DFED1A
:102EB000A66A0968A548F8EE677A06EE102A67EE5A
:102EC000877AB8EEC66A4B1E86EE277A67EE267AB8
:102ED000C0ED007A032B00F21E81DFE803F06B46A1
:102EE00024026B6D944A012B00F21181984CD16D34
:102EF000D4ED007A936D92ED197AF8EEE77A03FB40
:102F000001F327EE877A07EE903AF8EE677AC7EE7C
:102F1000276A904B012200210420C3ED006AFEF7CE
:102F2000C1FC326862E06B6B834A012B00F2EB80DC
:102F3000874CD16BD4ED007A936B92ED117AF8EE59
:102F4000E77A03FB01F327EE877A07EE903AF8EE73
:102F5000677AC7EE276A7F4B012200210320C3ED69
:102F6000006AFEF79FFC326840E0794CD5F8B82043
:102F7000D4ED007A704BF8EEE77A002A00F0BE80BC
:102F8000D3F8C010D3F8BC20D3ED316A714B02FBEB
:102F900001F207EE102A67EEA67AB8EE477A012210
:102FA000C7EE876A00210220C3ED006AFEF77AFCB3
:102FB00032681BE0664C2A69D4ED007AEB6895ED27
:102FC000057A644FF8EEE77A03FB02F327EE877A7F
:102FD00007EE903AF8EE677A0122C7EE276A1046AC
:102FE0000021C7ED006AFEF75DFC32685A4FDFF83A
:102FF00090C139682368DFF88CE158484942CCF821
:1030000000105B425649CEF800304FF00008554B97
:103010000A60C0F8008052421A2153481A6039F001
:103020000BFD316840483AF0EBF83F483AF094F82D
:1030300017214E4839F000FD21683B483AF0E0F88E
:1030400039483AF089F81521494839F0F5FC3968D2
:1030500035483AF0D5F834483AF07EF840464146D3
:103060000122FEF71FFCD5F8D800A0F10A031D2BA2
:1030700003D8C0B2012137F03BFD04B0BDE8F081B8
:1030800029462948294F3AF0BBF80221284839F04F
:10309000D3FC217824483AF0B3F823483AF05CF89E
:1030A000684634493AF0FAFA29466846FFF78CFE3A
:1030B00068463AF0B3FA396868463AF0EFFA2946BA
:1030C0006846FFF781FE68463AF0A8FA68462A4942
:1030D0003AF0E4FA29466846FFF776FE68463AF089
:1030E0009DFA396868463AF0D9FA68462946FFF7EA
:1030F0006BFE68466C463AF091FAA0E6596A1A6A85
:10310000D3ED0A6A42E7DFED1D6A114C23E7DFEDDC
:103110001B6A0F4CFDE60E4C68E700BF3841040007
:10312000B114FF1F9C1BFF1FD408FF1FCC07FF1FFC
:103130004C8F0400744104001417FF1FF817FF1F81
:10314000884104003819FF1F0000B443441AFF1FD0
:10315000A419FF1F4C1AFF1F0C14FF1F3416FF1F6A
:103160002C1BFF1F0414FF1F9C410400B8410400E6
:10317000D04104004C410400604104000000000004
:10318000301BFF1F0814FF1F10B5F0EE407A00211E
:10319000F2EE046ABDEEE77AB8EEC77AB4EE677A6B
:1031A000F1EE10FA04D00131062967EEA67AF1D1CA
:1031B000174B1B68012B1DD0032B0ED003B110BD84
:1031C00010EE100ACCB23CF009F841EC100B21468D
:1031D0001048BDE810403AF01BB810EE100ACCB20F
:1031E0003BF0FCFF41EC100B21460B48BDE81040C2
:1031F0003AF00EB810EE100ACCB23BF0EFFF41EC03
:10320000100B21460548BDE810403AF001B800BF58
:10321000A007FF1FD408FF1FAC08FF1F9808FF1F5F
:10322000064B1B68012B07D0032B03D003B170475B
:1032300039F086BC38F070BC38F04EB8A007FF1FDC
:10324000F8B50D4F0D4E0E4D04460146384639F087
:103250005DFF384639F080FF2146304639F056FF91
:10326000304639F079FF2146284639F04FFF28468D
:10327000BDE8F84039F070BFD408FF1F9808FF1F61
:10328000AC08FF1F012808D0032804D008B1002093
:10329000704739F06BBB38F097BC38F0EFB800BF1F
:1032A00038B5144C2068FFF7EDFF0C21C5B2124869
:1032B00039F0C2FB284639F043FC104839F04CFF86
:1032C00002E02068FFF7DEFF38F0C4F80028F8DCE1
:1032D000FDF7E0F90028F4DC0421094839F0ACFBE3
:1032E0002946064839F08CFF044839F035FF284656
:1032F00038BD00BFA007FF1FE8410400D408FF1F2E
:10330000F841040008B538F0A5F800282EDD1B4B65
:103310001868FFF7B7FF1A4BC0B25328187001D0D6
:10332000002008BD002108460122FEF7BBFA154B1C
:103330001B68013B032B1FD8DFE803F002070C11C9
:10334000012200210220FEF7ADFA01220021022015
:10335000FEF7A8FA012200210320FEF7A3FA0122BA
:1033600000210420FEF79EFA012008BDFDF792F926
:103370000028CCDA002008BD012008BDA007FF1FEF
:10338000CD15FF1F3819FF1F2DE9F0431C2187B011
:103390007548764F764C774E39F04EFB764839F0CB
:1033A000DBFE0E21754839F047FB3968724839F069
:1033B00027FF714839F0D0FE0023019308E0192B54
:1033C0005BD0032B57D0019B0133142B01932FDCCF
:1033D0002068FFF757FF0721C5B2694839F02CFB79
:1033E000284639F0ADFB644839F0B6FEFF2D4FF0AA
:1033F0000D0164487AD0019BF55439F01DFB5D48FE
:103400003DF03EFE01465B4839F016FB5A4839F064
:10341000A3FE3B68092BD2D15B4A019B10680021B7
:10342000184437F077F9019B0133142B0193CFDD5A
:10343000DFF85491DFF85C8102AE002411E0192B13
:103440001DD0032B1BD01021504839F0F5FA16F887
:10345000010B39F075FB0134474839F07DFE0D2C26
:1034600014D03B68092BEAD1D9F80000204437F08A
:1034700037F93070E7E7464ACFE7464ACDE7D8F854
:103480000000204437F02CF93070DCE721463D483D
:1034900039F0D2FA37483DF0F3FD0146354839F0AE
:1034A000CBFA354839F058FE0A213B4839F0C4FAC6
:1034B00002A83DF0E5FD014602A839F0BDFA2E480C
:1034C00039F04AFE284639F03BFB2B4839F044FEE0
:1034D00002A932483AF062F93049274839F016FE1D
:1034E000254839F039FE07B0BDE8F0833B68092B69
:1034F0002BD0192B1BD0032B0BD00321284839F0DC
:103500009BFA01991C4839F07BFE1B4839F024FED8
:103510008EE7244B04220DEB0200196837F028F9DE
:103520001B4B144819680D2237F022F9E5E71E4BB2
:1035300004220DEB0200196837F01AF9154B0D48FB
:1035400019680D2237F014F9D7E7184B04220DEB58
:103550000200196837F00CF90B4B064819680D2268
:1035600037F006F9C9E700BF004204008C07FF1FCF
:10357000A007FF1F8013FF1FD408FF1F003F040098
:10358000204204002C420400A807FF1F3C42040014
:103590005007FF1F5807FF1F50420400B815FF1FB8
:1035A000284204003807FF1F3C07FF1F6007FF1F6A
:1035B000F8B51F2129482A4E2A4F39F03DFA2A48EA
:1035C00039F0CAFD0E21294839F036FA284B264831
:1035D000196839F015FE244839F0BEFD00250EE0CB
:1035E00006F8014F39F028FA22483DF049FD01461E
:1035F000204839F021FA1C48013539F0ADFD386812
:10360000FFF740FE0721C4B21B4839F015FA2046E7
:1036100039F096FA144839F09FFDFF2C4FF00D0158
:103620001648DDD10321164839F006FA29460E481E
:1036300039F0E6FD0C4839F08FFD0D210F4839F0C7
:10364000FBF90C483DF01CFD01460A4839F0F4F93D
:103650000548BDE8F84039F07FBD00BF5C4204007A
:103660007F13FF1FA007FF1FD408FF1F003F0400A8
:103670008C07FF1F8013FF1F204204002C42040010
:1036800028420400FFFFFFFF2DE9F04F2DED028BD4
:10369000A5B005469849994E07A839F0FFFF0023C9
:1036A0001F219748336039F0C7F92946954839F00A
:1036B000A7FD944839F050FD934B1C686F4604F108
:1036C0000408204637F00CF80134444507F8010B94
:1036D000F7D1DDF800A0BAF1000F40F301828B4B67
:1036E0001F680DF10C09C9EB070709EB0A084C46E6
:1036F000381936F0F5FF04F8010B4445F8D124AB36
:103700009A440A21002482480AF8844C39F094F93A
:1037100048463DF0B5FC0146484639F08DF97948F8
:1037200039F01AFD23464A4610A87A4933F0F2FFD1
:10373000229B002B00F0BB815C2039F0CBFC0446BF
:10374000754B9DF84400129A7449236000279DF838
:103750004C3020730DF15008A16022614146237561
:1037600004F11800676033F0BDFE63686C49DFF850
:10377000CCA1A76501334FF47A728DF830708DF8C3
:1037800038700F94A16063600D92CDF82CA0404674
:10379000DFF8ACB1CDF840B033F0D2FE0F9800287E
:1037A00000F0178103685F4A1B6B934240F09281DF
:1037B000036D002B00F009815B4A136802930299A4
:1037C00013680193019B5B1A632BF9D900282ED053
:1037D0000368564F1B69494CBB426FF000484FF0DD
:1037E000000972D1036D002B71D01A7812074DD4E5
:1037F0000F9CE4B123684E4EDB6AB34240F0548123
:10380000A06D18B13CF0B8FB0023A365236D002B1D
:1038100000F06B8104F1180033F092FE0F9D6C688C
:10382000013C6C60002C00F00C8100230F93414B95
:10383000079C4148002C08BF1C46132139F0FCF8B6
:1038400020463DF01DFC0146204639F0F5F82D4894
:1038500039F082FC20463CF02FFBB0EE408AF0EEBF
:10386000608A0F9CCDF82CA024B16568013D65608D
:10387000002D67D007A839F0D1FEB0EE480AF0EE6F
:10388000680A25B0BDEC028BBDE8F08FDA69586993
:10389000101A01D40028ABD078230A220BA910A853
:1038A00039F0B6FD10A907A839F070FF10A839F05B
:1038B000B5FE33689D427CD00F9801332360002809
:1038C000B5D003681B69BB428CD09847E2E7416DD5
:1038D00000298DD091F831301B0789D5D1E9042317
:1038E000D1E90001101A63EB0101894508BF804549
:1038F000D0D26FF00040CDE750A90400C81AFF1FD6
:103900007C420400D408FF1F3807FF1F5007FF1F29
:103910009C420400A41BFF1FB03B0400183B0400A2
:10392000603B0400750400000421FF1F810B0000B0
:103930006D0500001CAF040020430400843B04001C
:103940003C3B040023687C4ADB6A934240F0D2800F
:10395000A06D10B13CF010FBA565236D002B00F0AD
:10396000D28004F1180033F0EBFD0F9C002C81D0C5
:103970002368724A5B68934240F0BF80A06D704B31
:10398000236018B13CF0F8FA0023A365236D04F11D
:103990001805002B00F0BF80284633F0D1FDC4F895
:1039A00008B0284633F0CCFD20465C2139F096FB68
:1039B00060E71D21634839F03FF82946624839F035
:1039C0001FFC614839F0C8FB12E7436D002B7FF400
:1039D000F3AE5E4B5E48012212211A7039F02CF8CA
:1039E000594839F0B9FB0B215A4839F025F85648A7
:1039F00039F0B2FB584910A839F050FE002110A848
:103A0000FFF7E2F910A839F009FE2220FFF708FCC1
:103A1000524910A839F042FE002110A8FFF7D4F94E
:103A200010A839F0FBFD4E4910A839F037FE0021EF
:103A300010A8FFF7C9F910A839F0F0FD9FED3C8BF5
:103A40000FE72B68DB6AB3425AD1A86D10B13CF086
:103A500093FAAC652B6D002B62D005F1180033F0A2
:103A60006FFD0F9C002C3FF4E0AE2368334A5B6887
:103A700093424DD1A06D324B236018B13CF07CFADB
:103A80000023A365236D04F11805002B4CD02846B4
:103A900033F056FDC4F808B0284633F051FD2046F7
:103AA0005C2139F01BFBC0E620469847B6E6239B15
:103AB000002B7FF441AE4FF47A72DFF8A8A08DF8A6
:103AC00030308DF838300F930D92CDF82CA00DF1D9
:103AD00050085CE6984700283FF47BAF0F986BE6F0
:103AE0004FF0000A0DF10C0909E6636D002B7FF41D
:103AF00091AE93E62046984737E720469847B9E6C7
:103B000028469847ADE7636D002B7FF42AAF2CE77A
:103B10002046984789E6636D002B7FF43DAF3EE772
:103B20006B6D002B99D19CE7636D002BAFD1B1E792
:103B300000000000000000006D050000610D0000A5
:103B4000B03B040000430400D408FF1FCC15FF1F46
:103B5000A8420400BC420400C8420400E44204003D
:103B6000F8420400843B04002DE9F04F2DED028B58
:103B7000ADF2BC5DB549814603A839F08FFDB4496B
:103B800007A839F08BFD002329A8B24AB24933F0C7
:103B9000C1FD3B9B002B00F05F845C2039F09AFA5A
:103BA0000446AE4B9DF8A8002B9AAD492360002631
:103BB0009DF8B03020730DF1B408A1602261237527
:103BC00004F118004146666033F08CFC6368A54A36
:103BD000A54DA6650BAF013363604FF47A73A26005
:103BE0003C613E713E73BB603D604046DFF8A88299
:103BF000CDF8A48033F0A4FC00263969002900F038
:103C0000EE800B68994ADB6B934240F01C830023E3
:103C10001A46183119A84FF47A74DFF848B28DF8B3
:103C200058308DF86030279328931794CDF854B00E
:103C300033F0DAFC279B002B00F05E835C2039F028
:103C400049FA04464FF0000A9DF85810179A834825
:103C5000834B9DF860E020602173226119A904F173
:103C60001800A36084F814E0C4F804A033F03AFC10
:103C70006268C4F808B001324FF47A71C4F858A0F1
:103C80008DF844A08DF84CA01494109562601291A8
:103C900019A8CDF8548033F053FC149C002C00F08C
:103CA0002C842368724A5B6B934240F0ED81A16DD6
:103CB000002900F0698315A839F0F0FC1498002859
:103CC00000F09E8002686B49136B8B4240F0738159
:103CD000036D002B00F0C281926B67498A4240F06D
:103CE000D7811B7813F0700F14BF0120002000282B
:103CF00000F069810121574838F09EFE5F4839F095
:103D00002BFA149C04B32368DFF874B1DB6A5B45BB
:103D100040F0B781A06D18B13CF02EF90023A365E7
:103D2000236D002B00F0E38204F1180033F008FC4F
:103D3000DDF850A0DAF80440013CCAF80440002C39
:103D400000F051810023149315A839F067FC149CEE
:103D50001095002C3FF451AF6368013B6360002B6A
:103D60007FF44BAF22684649D26A01938A4240F001
:103D70002283A06D18B13CF0FFF8019BA365236D71
:103D8000002B00F0338304F1180033F0D9FB149CAE
:103D9000002C3FF432AF23683A4A5B68934240F00C
:103DA0001C83A06D2D4B236018B13CF0E5F8002377
:103DB000A365236D04F1180B002B00F021835846F6
:103DC00033F0BEFBC4F80880584633F0B9FB5C21E1
:103DD000204639F083F9396900297FF412AF4FF496
:103DE0007A738DF844108DF84C10149115A826495B
:103DF0001095129339F052FC149800287FF462AFAA
:103E00001321224838F018FE1C4839F0A5F915A8EE
:103E100039F004FC149B109513B114A8FCF7C4FFEF
:103E20001B491C4C15A839F039FC002115A8FEF7D8
:103E3000CBFF15A839F0F2FB07EE906AB8EEE78ADF
:103E40000020B0EE480AFFF79FF927E05CA60400C7
:103E5000344304003C430400A41BFF1FB03B040098
:103E6000183B0400603B0400843B040095050000FF
:103E7000290700007504000041090000D408FF1F55
:103E80006D050000610D000050A9040040430400CE
:103E900054430400CC07FF1F3C3B0400216815A8D5
:103EA00039F0FCFB002115A8FEF78EFF15A839F0AC
:103EB000B5FBB64915A839F0F1FB002115A8FEF7AE
:103EC00083FF15A839F0AAFBB0EE480A0020FFF7DF
:103ED0005BF9216815A839F0E1FB002115A8FEF770
:103EE00073FF15A839F09AFB0C21A94838F0A4FDFE
:103EF0003146A84839F084F9A64839F02DF929ACA3
:103F00004FF0000820463DF0BBF80146204638F04F
:103F100093FDA04839F020F90A219F4838F08CFD24
:103F200008F101089B4839F017F9464504F10D04E2
:103F3000E8DA09EB490429AB09EB84046FF00C0AB9
:103F40001C44DFF88CB209F1FF330AFB09FA019334
:103F5000012606F1FF380321904838F06DFD4146F7
:103F60008C4839F04DF9C14603210AEB04088C480E
:103F700038F062FD40463DF083F80146404638F097
:103F80005BFD019B874803EB0608132138F054FDC5
:103F90004146804839F034F97E4839F0DDF809F1BE
:103FA000FF33052B76D8DFE813F01501EE00EC00A7
:103FB000EA00B2005301984700283FF421AF14985B
:103FC000002840F09D8203A915A839F08DFC002837
:103FD000C0F29E811521744838F02EFD6D4839F0ED
:103FE000BBF8149C8EE6DAF80020D26A5A4540F0FD
:103FF000DF81DAF8580018B13BF0BEFFCAF858402C
:10400000DAF85020002A00F0EB810AF1180033F0B2
:1040100097FA149C002C3FF495AE2368634A5B68C2
:10402000934240F0D781A06D614B236018B13BF003
:10403000A3FF0023A365236D04F1180B002B00F0F0
:10404000DA81584633F07CFAC4F80880584633F0D9
:1040500077FA20465C2139F041F873E6436D002B76
:104060003FF4CEAE926B534B9A4211D1436D002B6D
:10407000A9D093F8313013F0500F14BF0120002065
:1040800035E62046984753E620469847014612E613
:1040900090472CE6484915A839F000FB002115A8E7
:1040A000FEF792FE15A839F0B9FA444915A839F07F
:1040B000F5FA002115A8FEF787FE15A839F0AEFA2B
:1040C000214615A839F0EAFA002115A8FEF77CFE72
:1040D00015A839F0A3FA20463CF0D2FF014620464D
:1040E00038F0AAFC2B4839F037F8DBF8001015A897
:1040F00039F0D4FA002115A8FEF766FE15A839F0AC
:104100008DFA072E00F0E18001360D3421E72C49AD
:1041100015A839F0C3FA002115A8FEF755FE15A819
:1041200039F07CFA254915A839F0B8FA002115A80C
:10413000FEF74AFE15A839F071FA214615A839F0A4
:10414000ADFA002115A8FEF73FFE15A839F066FA72
:1041500020463CF095FF0146204638F06DFC0D48A6
:1041600038F0FAFFDBF8001015A839F097FA15A817
:104170000021FEF729FE15A839F050FAC4E71149CD
:10418000C6E71149C4E71149C2E700BF7443040000
:104190008C430400D408FF1F58960400AC4304006D
:1041A000F46A04009C43040074440400610D0000A0
:1041B000B03B040041090000B0430400C8430400C0
:1041C000444404002C44040014440400FC43040050
:1041D000C807FF1FA94915A839F060FA002115A8E2
:1041E000FEF7F2FD15A839F019FAA54915A839F01E
:1041F00055FA002115A8FEF7E7FD15A839F00EFACB
:10420000214615A839F04AFA002115A8FEF7DCFD71
:1042100015A839F003FA20463CF032FF014620464B
:1042200038F00AFC974838F097FFDBF8001015A823
:1042300039F034FA002115A8FEF7C6FD15A839F0AB
:10424000EDF9914964E7002210A89847149C25E5F0
:104250008E4915A839F022FA002115A8FEF7B4FD01
:1042600015A839F0DBF9864915A839F017FA0021AD
:1042700015A8FEF7A9FD15A839F0D0F908EB4803F9
:1042800008EB830829AB9844414615A839F006FA93
:10429000002115A8FEF798FD15A839F0BFF9404692
:1042A0003CF0EEFE0146404638F0C6FB754838F05B
:1042B00053FFDBF8001015A839F0F0F915A800211C
:1042C000FEF782FD15A839F0A9F93B693D6013B1ED
:1042D0000FA8FCF769FD07A839F0A0F903A839F089
:1042E0009DF90DF2BC5DBDEC028BBDE8F08F636DF6
:1042F000002B7FF419AD1BE5289B002B7FF49EACAF
:104300008DF8443012948DF84C3010951493BFE41E
:1043100007A915A839F0E8FA0028BFF65BAE149C8F
:104320007CB323685A4A5B6B934249D1D4F858B0A6
:10433000BBF1000F6ED058463CF0A2FE5C46014631
:10434000204638F079FB4F4838F006FF622E02DD38
:10435000149C0136D6E406EB460B149C06EB8B0B43
:1043600029AB9B4454B32368494A5B6B93424CD1BD
:10437000A16D002900F0948058460D223CF03EFFCC
:10438000E7E72146434CDBE74FF4807001913BF0B7
:10439000EBFDA065D8B101990170236D002B51D0C0
:1043A00001464FF48072184632F0D4FEA16D82E4CB
:1043B000504690472DE620469047E8E43549DBE734
:1043C0002046984704463CF05BFE0146B8E7324978
:1043D000A16570E420469847B4E4204698470CE471
:1043E000DAF85420002A7FF410AE12E6636D002B39
:1043F0007FF4C9ACCBE4636D002B7FF422AE23E6DF
:10440000636D002B7FF4DBACDCE420469847149C02
:104410000146B1E74FF480703BF0A6FD0146A06570
:1044200058B180F800B0206D002858D04FF4807249
:1044300032F090FED4F858B07DE7DFF85CB0C4F8F5
:1044400058B078E7636D2BB101464FF4807218467F
:1044500030F0C2FCA16D2EE43C9B002B7FF49DABA1
:104460000BAF4FF47A720D4D3B713B733B61BA60F9
:104470003D600DF1B408FFF7B8BB00BFCC430400AA
:10448000C8430400D408FF1FE44304005C44040054
:104490002907000050A904005413FF1F843B0400A7
:1044A0004FF4807001913BF05FFDA06500B301996E
:1044B0000170236D43B101464FF48072184632F00B
:1044C00049FEA16D149C57E7636DA3B101464FF4FB
:1044D0008072184630F080FCA16D149C4CE7606D32
:1044E00018B14FF4807230F077FCD4F858B022E75E
:1044F0000949A16540E7A16D3EE70849FFF7DBBB2D
:104500000268074B926B9A427FF4C2AD036D002B99
:104510007FF4E7ABAAE500BF5413FF1F50A90400C6
:10452000410900002DE9F04FABB000234FF47A723F
:10453000BA490290BA4E8DF8343008A88DF83C3054
:1045400010930E920C9639F0A9F8882038F0C4FD2B
:104550000823102280E80C00C118069100F188079A
:104560000D460C4620460021103439F097F8BC4225
:10457000F8D11A21AB4838F05FFAAB4838F0ECFDBF
:10458000002316A8A94AAA4933F0C4F8289B002B97
:1045900000F04D845C2038F09DFD0446A54A9DF84E
:1045A0005C00189BA44922604FF000089DF864202D
:1045B00020731AAFA16023613946227504F11800F7
:1045C000C4F8048032F08EFF63689C49C4F85880B8
:1045D00001334FF47A728DF848808DF8508015942D
:1045E0001196A16063601392954B1693384632F092
:1045F000A7FF159B002B00F0C5835A681099013264
:104600005A60002900F03B8410A8FCF7CDFB159BF5
:1046100011961093002B00F0B98315A8FCF7C4FB8A
:104620001098002800F0B28302688649136B8B4211
:1046300040F0EC83036D002B00F0CC83926A82493A
:104640008A4240F00484DC698048DFF81C920A2129
:1046500038F0F2F900230A222146734838F090FD21
:10466000714838F079FD0921794838F0E5F9029C64
:104670006D48214638F0C4FD6B4838F06DFD0D21C2
:10468000744838F0D9F9D9F80010674838F0B8FD07
:10469000654838F061FD002C40F069836423C9F857
:1046A00000304FF0060B0024DFF8C0A103940795FB
:1046B000CDF810A01099002900F06A810B68664AB5
:1046C000DB6B934240F0188300231A4618314FF4F5
:1046D0007A785A4D8DF85C3038468DF864302893DE
:1046E0002993CDF86080169532F07EFF289A002A33
:1046F00000F00C835C2038F0EDFC80464FF0000A9F
:104700009DF85C0018994B4B4B4A9DF864E088F883
:104710000C00C8F81010C8F80030394608F118002D
:10472000C8F8082088F814E0C8F804A032F0DAFECF
:10473000D8F80410C8F8085001314FF47A70C8F85E
:1047400058A08DF848A08DF850A0CDF8548011964F
:10475000C8F8041013903A4B1693384632F0F0FE26
:10476000159D002D00F0C6832B683C4A5B6B93427D
:1047700040F07182D5F85880B8F1000F00F0E18266
:1047800040463CF07DFC0146404638F055F926484D
:1047900038F0E2FC159B002B00F04D821A6830487F
:1047A000916B814240F00081196D002900F09882E0
:1047B000097811F0700F14BF01210021002900F0C9
:1047C000FD80013C002B00F06C811A681D49126BC2
:1047D0008A4240F036821A6D002A00F07C821A6804
:1047E000204DD26AAA4240F0A981986D28B1019368
:1047F0003BF0C2FB019B00229A651A6D002A00F073
:10480000808203F1180032F09BFE159A5368013B39
:104810005360002B00F0D2812AE000BF5CA60400A8
:10482000843B040024450400D408FF1F3C430400DB
:10483000A41BFF1FB03B0400183B0400603B0400B6
:104840003C3B040075040000F5080000A44404008B
:10485000B0440400BC440400950500002907000092
:10486000410900006D0500004C07FF1FC807FF1F2E
:104870000134A345BFF61EAF079DDDF810A0012748
:104880007C1E0321AF4838F0D7F82146AE4838F0F7
:10489000B7FC0321AD4838F0CFF82946AA4838F0D4
:1048A00035FCBC1EA84838F057FC052C07D8DFE8BB
:1048B00014F06D006B00690067003900D901A4494C
:1048C00016A838F0EBFE002116A8FEF77DFA16A810
:1048D00038F0A4FE9F4916A838F0E0FE002116A883
:1048E000FEF772FA16A838F099FE294616A838F095
:1048F000E9FE002116A8FEF767FA16A838F08EFE2A
:10490000DAF8001016A838F0C9FE002116A8FEF744
:104910005BFA16A838F082FE072F00F0D081103520
:104920000137ADE78C4916A838F0B8FE002116A86B
:10493000FEF74AFA16A838F071FE864916A838F034
:10494000ADFE002116A8FEF73FFA16A838F066FE65
:10495000294616A838F0B6FE002116A8FEF734FA4C
:1049600016A838F05BFEDAF8001016A838F096FEAC
:1049700016A80021FEF728FA16A838F04FFECEE759
:104980007649D0E77649CEE77649CCE77649CAE75B
:104990004FF47A738DF848108DF8501011961591D8
:1049A0001393DFF8E481EFE618468847159B00284B
:1049B0007FF407AF002B00F03E811A68526B6B4901
:1049C0008A4240F0B0819D6D002D00F0DF802946C5
:1049D00016A838F063FE0F21654838F02DF816A9A7
:1049E000594838F093FB0621624838F025F808A9A9
:1049F00016A838F079FF0146534838F001FC5248B8
:104A000038F0AAFB08A916A838F06EFF00281ADBB8
:104A1000029BA34217DC069B039A159D03EB021829
:104A2000002D00F0A2812A685049526B8A4240F062
:104A3000F581A96D002900F00E82404638F0AEFEE7
:104A4000039B013303930A214B4837F0F5FF2146BE
:104A50003D4838F0D5FB03213C4837F0EDFF159D6C
:104A6000002D00F0EA802B68404A5B6B934240F0D7
:104A70005E81D5F85880B8F1000F00F0988140466B
:104A80003CF0FEFA0146404637F0D6FF03212F489E
:104A900037F0D2FF16A838F0C1FD159B002B7FF42C
:104AA00094AE0F21354837F0C7FF2146264838F02D
:104AB000A7FB0321254837F0BFFFD9F80010224893
:104AC00038F09EFB04F1080303212048C9F80030A8
:104AD00037F0B2FFD9F800101B4838F091FB1A48A4
:104AE00038F03AFB264916A838F0D8FD002116A860
:104AF000FEF76AF916A838F091FD2220FEF790FB28
:104B0000631E00EE103A0020B8EEC00AFEF73CFB30
:104B1000049B16A8196838F0C1FD002116A8FEF7FD
:104B200053F916A838F07AFD159B002B3FF4A0AE80
:104B30001A68144DD26AAA423FF457AE18469047FD
:104B400063E600BFAC430400D408FF1FF46A04000E
:104B5000B0430400C8430400444404002C4404004F
:104B600014440400FC430400CC4304002907000063
:104B700040450400EC440400F444040000450400F3
:104B8000104504006D05000050A904004FF480702A
:104B900001933BF0E9F9019B9865002800F033810F
:104BA00005701A6D002A00F08F81014610464FF4FF
:104BB000807232F0CFFA019B9D6D08E71168019376
:104BC000C96AA94240F0BA80906D28B105923BF0C5
:104BD000D3F9059A019B9365136D002B00F0DB80E0
:104BE00002F1180032F0ACFC159D002D3FF440AEF0
:104BF0002B68AB4A5B68934240F0C180A86DA94B1B
:104C00002B6018B13BF0B8F90023AB652B6D002B7E
:104C100000F0C68005F118031846019332F090FCAD
:104C2000019BA14AAA60184632F08AFC28465C2102
:104C300038F054FA1CE69D49CAE6DFF8708229462E
:104C400021E71846904700283FF42BAF159B002B17
:104C50007FF46EAF0CE62846984780463CF010FA89
:104C6000014691E5924916A838F018FD002116A8D2
:104C7000FEF7AAF816A838F0D1FC8E4916A838F02D
:104C80000DFD002116A8FEF79FF816A838F0C6FC07
:104C9000294616A838F016FD002116A8FEF794F84C
:104CA00016A838F0BBFCDAF8001016A838F0F6FCAD
:104CB00016A80021FEF788F816A838F0AFFC08A85F
:104CC00038F0ACFC109B0C9613B110A8FCF76CF8F4
:104CD0002BB0BDE8F08F5A6D002A7FF480ADE0E67E
:104CE000596D00293FF46AAE91F8311011F0500F60
:104CF00014BF0121002161E5002211A89847159DEC
:104D00002FE55A6D002A7FF47CAD7EE5299A002AB2
:104D10007FF4F0AC8DF84820CDF84C808DF8502011
:104D20001196159217E518469047014650E6284619
:104D3000984780463CF0A4F90146A4E6104688470F
:104D400052E74FF480703BF00FF90146A865002848
:104D500068D080F80080286D002846D04FF480721B
:104D600032F0F8F9D5F858800AE5504965E6029B1B
:104D700013F1060B7FF597ACDFF848A17FE52846D5
:104D8000984775E5109B002B7FF43EAC0E214A48F6
:104D900037F052FE93E7536D002B7FF421AF23E7EA
:104DA0006B6D002B7FF436AF05F1180339E74FF434
:104DB00080703BF0D9F80146A865F8B180F8008012
:104DC000286D002862D04FF4807232F0C3F9D5F814
:104DD000588054E6436D002BD8D0926A374B9A42E4
:104DE00035D1436DC3B11C692EE4686D18B14FF421
:104DF00080722FF0F1FFD5F85880C1E4DFF8C08051
:104E0000C5F858803BE62E4D9D65E0E598470028A3
:104E1000BCD01098002871D1002415E42846904792
:104E200001460AE6DFF89880C5F85880A8E4299B77
:104E3000002B7FF4AFAB4FF47A728DF848308DF8C9
:104E400050301196159313921AAFFFF7CDBB9047D0
:104E50000446FFF7F9BB4FF4807001913BF084F8F2
:104E6000A86580B1019901702A6D002A38D00146E9
:104E700010464FF4807232F06DF9A96DDDE51093A4
:104E80001196FFF7CABB0E49A965D6E5686D18B142
:104E90004FF480722FF0A0FFD5F85880EFE500BFE7
:104EA000610D0000B03B04003C3B040050A904002D
:104EB0005C440400C8430400CC440400F50800002E
:104EC0005413FF1FC807FF1F5A6D3AB10146104621
:104ED0004FF4807201932FF07FFF019B9D6D76E56B
:104EE0006A6D2AB1014610464FF480722FF074FFAC
:104EF000A96DA2E5DFF82080294645E40268054B4C
:104F0000926A9A42A3D1036D002B3FF46AAFFFF778
:104F10009ABB00BFF508000050A904002DE9F0413C
:104F2000224B1C6886B08046261D6D46204635F013
:104F3000D7FB0134B44205F8010BF7D1009E002ED7
:104F400031DB1B4F0DF1030500243868204435F098
:104F5000C7FB05F8010F0C21164837F06DFD2878C6
:104F600037F0EEFD0134144838F0F6F8B442ECDDC9
:104F700006AB1C4401A90023404604F8143C38F059
:104F80008DFB09210D4837F057FD01A83CF078F85A
:104F9000014601A837F050FD074838F0DDF84046DB
:104FA00006B0BDE8F0810024E2E700BF6007FF1F04
:104FB000A807FF1F50450400D408FF1F60450400E8
:104FC0002DE9F0472DED028B8E4E8F49B2B00024B3
:104FD000074604A8346038F061FB214608A838F081
:104FE0005DFB21460CA838F059FB884B1C6801ADCD
:104FF00004F10408204635F073FB0134A04505F8A0
:10500000010BF7D1DDF80480B8F1000FC0F2D883AE
:10501000DFF83C920DF14F050024D9F80000204440
:1050200035F05EFB05F8010F0C21794837F004FDDF
:10503000287837F085FD0134764838F08DF8A045A2
:10504000EBDA32AB1C4409210025734804F8785C84
:1050500037F0F2FC14A83CF013F8014614A837F01E
:10506000EBFC6C4838F078F82B4614AA1EA86B4964
:1050700032F050FB309B002B00F084835C2038F032
:1050800029F80446664B9DF87C00209A6549236008
:1050900000259DF8843020730DF18808A1602261FD
:1050A0004146237504F11800656032F01BFA63680D
:1050B0005D49DFF8A0A1A56501334FF47A728DF840
:1050C00068508DF870501D94A16063601B92CDF8FC
:1050D00064A0564B1E93404632F032FA1D980028C9
:1050E00000F0D1810368524A1B6B934240F05D830C
:1050F000036D002B00F0C3814E4A1368039303999C
:1051000013680293029B5B1A132BF9D9002832D043
:10511000DFF84491DFF8EC806FF00044002503686D
:105120001B694B4540F09A81036D002B00F075819F
:105130001A78120740F17781DA695869101A02D497
:10514000002800F0708178230DEB03000A2219A9D2
:1051500038F05EF91EA904A838F018FB1EA838F034
:105160005DFA3368BB4200F05E811D980133C8F8D8
:1051700000300028D3D1002104A838F08DFB2E4C3C
:1051800003782360012204A91EA838F0E3FB1EA9BE
:1051900008A838F0FBFA1EA838F040FA04A92748FE
:1051A00038F0ECFA2D21264837F046FC31681948D2
:1051B00038F026F8174837F0CFFF0C21214837F098
:1051C0003BFC2168134838F01BF8124837F0C4FF45
:1051D00012211D4837F030FC18490E4837F096FF71
:1051E0000C4837F0B9FF0821184837F025FC08A90A
:1051F000084837F08BFF074837F0AEFF23680D3BB8
:105200002CE000BFC81AFF1F50A904006007FF1F51
:1052100050450400D408FF1F60450400A41BFF1F75
:10522000B03B0400183B0400603B04003C3B04001E
:10523000750400000421FF1F4C1BFF1FA415FF1F56
:105240007C450400AC450400BC450400D045040086
:10525000A807FF1F843B0400810B00004D2B00F2C8
:105260008C82DFE813F086008A028A028A028A02B0
:105270008A028A028A028A028A028A028A028A02CE
:105280008A028A028A028A028A028A028A028A02BE
:105290008A028A028A028A028A028A028A028A02AE
:1052A0008A028A028A028A028A028A028A028A029E
:1052B0008A028A028A028A028A028A028A028A028E
:1052C0008A02F7018A028A028A028A028A02860018
:1052D000860086008A0286000502270249028600AF
:1052E0004B016D018A028A028F0186008600E90166
:1052F0008A0286008A028A0220014E0086008A0203
:105300008600012104A838F0C7FA017810A838F007
:105310000BFA10A8AE4938F0A9FA002840F05282E2
:10532000AC4910A838F0A2FA08B102232360022287
:1053300004A91EA838F00EFB1EA908A838F026FA0A
:105340001EA838F06BF90D21A34837F075FB2168D2
:10535000A24837F055FF0521A14837F06DFB08A999
:105360009E4837F0D3FE9D4837F0F6FE10A838F07F
:1053700055F99C4B089C002C08BF1C4620463AF06F
:105380009BFD0B219848B0EE408AF0EE608A37F022
:1053900053FB08A9914837F0B9FE904837F0DCFE7E
:1053A0000C21924837F048FB20463BF069FE01464D
:1053B000204637F041FB894837F0CEFE07218C4864
:1053C00037F03AFBB0EE480AF0EE680A0221834853
:1053D00037F01EFF814837F0BFFE1A21854837F0AD
:1053E0002BFB7E4837F0B8FE1D9BCDF864A013B1AF
:1053F0001DA8FBF7D9FC0CA838F010F908A838F064
:105400000DF904A838F00AF9B0EE480AF0EE680A7F
:1054100032B0BDEC028BBDE8F087416D19B191F857
:1054200031301B071CD41D9C002C3FF4A4AE236814
:10543000714ADB6A934233D1A06D18B13AF09CFDFA
:105440000023A365236D002B00F0B58104F1180043
:1054500032F076F81DA8FBF7A7FC8CE698476FE6BC
:10546000D1E90423D1E90001101A63EB01018D4257
:1054700008BF8442BFF464AE6FF0004060E6436D45
:10548000002B7FF439AE5D4B5D4801220F211A706D
:1054900037F0D2FA514837F05FFE9FED4B8BA3E710
:1054A00020469847D6E7012104A838F0F5F901789D
:1054B000544838F07DF9022204A91EA838F04AFAAF
:1054C0001EA908A838F062F91EA838F0A7F809212B
:1054D0004D4837F0B1FA4B49404837F017FE3F4886
:1054E00037F03AFE4948092137F0A6FA08A93B48A7
:1054F00037F00CFE394837F02FFE3AE7012104A8B7
:1055000038F0CAF90178424838F052F9022204A969
:105510001EA838F01FFA1EA908A838F037F91EA8EF
:1055200038F07CF809213B4837F086FA3A492B4895
:1055300037F0ECFD294837F00FFE09213748D3E753
:10554000012104A838F0A8F90178354838F030F97D
:10555000022204A91EA838F0FDF91EA908A838F0F7
:1055600015F91EA838F05AF81B212E4837F064FAB6
:105570002B491A4837F0CAFD184837F0EDFD0C21C9
:105580002948B1E7012104A838F086F901782748B5
:1055900038F00EF9022204A91EA838F0DBF91EA982
:1055A00008A838F0F3F81EA838F038F80921204888
:1055B00037F042FA1D49094837F0A8FD074837F08F
:1055C000CBFD09211B488FE7000000000000F0BF61
:1055D000E0460400FC46040000470400D408FF1F16
:1055E000F44604001CAF0400404704004C4704008C
:1055F0005C470400644704006D050000CC15FF1FE4
:105600006C450400D41AFF1FC8460400D4460400A9
:105610006C18FF1F3C4604002016FF1F484604007C
:10562000FC17FF1F54460400704604005C13FF1F64
:10563000804604008C4604006F4C704801232D21E5
:10564000237037F0F9F921786D48FBF7B9FD9FED2C
:10565000688BC9E60B216B4837F0EEF9684837F0E4
:105660007BFD08A9684838F089F89FED618BBBE69F
:10567000012104A838F010F90178644838F098F84E
:10568000022204A91EA838F065F91EA908A838F05E
:105690007DF81EA837F0C2FF09215D4837F0CCF92C
:1056A0005A49574837F032FD554837F055FD092122
:1056B000584819E7012104A838F0EEF80178564857
:1056C00038F076F8022204A91EA838F043F91EA982
:1056D00008A838F05BF81EA837F0A0FF09214F4852
:1056E00037F0AAF94C49464837F010FD444837F0E6
:1056F00033FD09214A48F7E6002314221EA908A811
:1057000038F0D8F84749484D484C1EA83CF0B2FF45
:105710003AF0D2FB51EC100B3AF0ACF84449286057
:1057200000203CF0A7FF3AF0C7FB51EC100B3AF019
:10573000A1F8062120603F4837F07EF908A93048DB
:1057400037F0E4FC09213C4837F076F9286839F055
:1057500045FD41EC100B0221294837F059FD092184
:10576000364837F069F9206839F038FD41EC100B04
:1057700002212348FBF744FDFBE51F4C3048012381
:105780002E215DE7319B002B7FF478AC4FF47A72C9
:10579000DFF8B8A08DF868308DF870301D931B923B
:1057A000CDF864A00DF1880893E4984700283FF4F1
:1057B0006AAE1D98A0E4636D002B7FF447AE49E606
:1057C00000243EE401231F490D482360FBF7D8FC69
:1057D00021680B4837F014FD1B490948FBF7D0FC42
:1057E00008A9074837F092FC054837F0B5FC9EE55C
:1057F00000000000000000000815FF1F984604008C
:10580000D408FF1FDC4504009013FF1FA013FF1FE7
:10581000E8450400F44504002016FF1F004604007C
:105820000C46040018460400401AFF1FC815FF1F4D
:1058300060A904001C46040024460400304604000D
:1058400010470400E4460400F4460400843B0400CE
:1058500008B5084BDFED080AD3ED007A27EE800A81
:1058600038F0F8FA38F04EFA044BD3ED007A20EE17
:10587000270A08BDB016FF1FDB0FC9403C1AFF1FE7
:1058800008B5304A304B92ED010A93ED007ADFED16
:105890002F6A2F4BB8EEC77A5B6CC6EE877A013B56
:1058A000B8EEC00A2DED028B27EE800A032B45D8F7
:1058B000DFE803F03E383202264B93ED018AB8EE62
:1058C000C88AFFF7C5FF244A244B92ED007A0022D4
:1058D00083F8902072B6DFED227A93ED206AD3ED43
:1058E0001F6A30EE480AB8EEC77AC0EE275AC5EEF6
:1058F000877A67EE867AF4EEE67AC3ED1E7AD3ED08
:10590000227AF1EE10FAD8BFF1EE677AC3ED237A6E
:1059100062B6BDEC028B08BD124B93ED018AB8EE66
:10592000C88ACEE7104B93ED018AB8EEC88AC8E763
:105930000E4B93ED018AB8EEC88AC2E79FED0C8A40
:10594000BFE700BF5C1BFF1F501AFF1FDB0FC940E2
:10595000581AFF1FC413FF1FB013FF1FA819FF1F02
:10596000CDCCCC3CD015FF1F7C18FF1FC018FF1FEB
:10597000000000002DE9F041C54BBEB01D6805AC2C
:105980002D1B3EAE281934F0ABFE04F8010BA642E5
:10599000F8D1C049C04CC14EC14DC24F01A837F02B
:1059A0007DFE002101A8FDF70FFA01A837F036FEB1
:1059B0002220FDF735FCDDED057A0020B8EE670A00
:1059C000FDF7E2FB216801A837F068FE002101A87D
:1059D000FDF7FAF901A837F021FEB34901A837F025
:1059E0005DFE002101A8FDF7EFF901A837F016FED2
:1059F0002220FDF715FCDDED067A0020B8EE670ADF
:105A0000FDF7C2FB216801A837F048FE002101A87C
:105A1000FDF7DAF901A837F001FEA44901A837F033
:105A20003DFE002101A8FDF7CFF901A837F0F6FDF2
:105A30002220FDF7F5FB9DED070A0420FDF7A4FBEE
:105A4000216801A837F02AFE002101A8FDF7BCF962
:105A500001A837F0E3FD964901A837F01FFE0021A9
:105A600001A8FDF7B1F901A837F0D8FD2220FDF714
:105A7000D7FB9DF8B01001A8002914BF3146294674
:105A800037F00CFE002101A8FDF79EF901A837F0C0
:105A9000C5FD216801A837F001FE002101A8FDF72E
:105AA00093F901A837F0BAFD824901A837F0F6FD55
:105AB000002101A8FDF788F901A837F0AFFD2220E9
:105AC000FDF7AEFBDDED087A0020B8EE670AFDF7C2
:105AD0005BFB216801A837F0E1FD002101A8FDF77B
