:10000000F8FF022099010000BDE1000075E1000049
:1000100075E1000075E1000075E1000075E1000088
:1000200075E1000075E1000075E10000BDE1000030
:10003000BDE1000075E1000069FC00006DFD0000FD
:10004000BDE10000BDE10000BDE10000BDE1000038
:10005000BDE10000BDE10000BDE10000BDE1000028
:10006000BDE10000BDE10000BDE10000BDE1000018
:10007000BDE10000BDE10000BDE10000BDE1000008
:10008000BDE10000BDE10000BDE10000BDE10000F8
:10009000BDE10000BDE10000BDE10000BDE10000E8
:1000A000BDE10000BDE10000BDE10000BDE10000D8
:1000B000BDE10000BDE10000BDE100008D080100D0
:1000C000BDE10000B9090100BDE10000F5E9000053
:1000D000BDE10000E50A0100BDE10000BDE1000056
:1000E000BDE10000BDE100002DDF0000BDE100002A
:1000F000BDE10000BDE10000BDE10000BDE1000088
:10010000A5FF0000B9FF0000CDFF0000E1FF0000E7
:10011000BDE1000081EC0000BDE10000BDE1000098
:10012000BDE10000BDE10000BDE10000BDE1000057
:10013000BDE10000BDE10000BDE10000BDE1000047
:10014000BDE10000BDE10000DD0B0100BDE10000EC
:10015000D50C0100BDE10000BDE10000BDE10000E3
:10016000BDE10000BDE10000BDE10000BDE1000017
:10017000BDE10000BDE10000BDE10000BDE1000007
:10018000BDE10000BDE10000BDE10000BDE10000F7
:10019000BDE10000BDE10000584B4CF2205210B50B
:1001A0001A804DF628121A8000BF00BF0EF00AF820
:1001B000534B4FF030621A60524A9A60524ADA60EA
:1001C000524B4FF470021A60514A136813F4807353
:1001D00004D150490B604FF4A85313604E4B1A786A
:1001E000110703D51A7842F008021A704B4B4C499C
:1001F0002A221A704B4A4C4B8B4204D252F8040FFD
:1002000043F8040BF8E7494B494900228B4202D2DC
:1002100043F8042BFAE74749474A002352F82300E2
:1002200041F823000133662BF8D1444B444A802126
:1002300003F8011B9342FBD1424B3E4A1A60424BEA
:100240008A221A70A3F5805324225A70A0221A70B1
:100250009A799207FCD59A79D406FCD43B4A9379D3
:1002600003F00C03082B394BF9D103221A714C22ED
:100270005A719A799006FCD5344A9179334B4906E4
:10028000FBD5334A4FF001711160042151602022E7
:100290001A709A7902F00C020C2AFAD12D4B2E4AD0
:1002A0001A602E4B2E4A1A6000225A60072243F829
:1002B000042C2C4AC3F80C2D62B60EF0C3F8154B73
:1002C0001B68DA0705D528480EF01CF8274B284A8A
:1002D0001A60284B1B785B0609D5244C244B2268F6
:1002E0009A4204D120480EF00DF80023236012F04A
:1002F00015FC0DF06DFF0FF07DFEFEE70E200540B2
:1003000030800440823F04000100002B88ED00E0B3
:1003100010D0034014D0034002D0074000E0074053
:100320000812FF1FBC810100F806FF1F0812FF1F03
:10033000C01DFF1F0002FF1F0000000000E400E0DE
:1003400056E400E008ED00E00050064000400640A2
:100350004480044004800440C010050014E000E024
:100360007F320200000020206DF1A35C1CE00340FE
:10037000A5C3945A00F00740FFFFFFFFFFFFFFFFF8
:10038000FFFFFFFFFFFFFFFFFFFFFFFFFFFFFFFF7D
:10039000FFFFFFFFFFFFFFFFFFFFFFFFFFFFFFFF6D
:1003A000FFFFFFFFFFFFFFFFFFFFFFFFFFFFFFFF5D
:1003B000FFFFFFFFFFFFFFFFFFFFFFFFFFFFFFFF4D
:1003C000FFFFFFFFFFFFFFFFFFFFFFFFFFFFFFFF3D
:1003D000FFFFFFFFFFFFFFFFFFFFFFFFFFFFFFFF2D
:1003E000FFFFFFFFFFFFFFFFFFFFFFFFFFFFFFFF1D
:1003F000FFFFFFFFFFFFFFFFFFFFFFFFFFFFFFFF0D
:10040000FFFFFFFFFFFFFFFFFFFFFFFFDEF9FFFF23
:1004100010B5054C237833B9044B13B10448AFF33E
:1004200000800123237010BD0812FF1F0000000090
:10043000C0810100084B10B51BB108490848AFF353
:1004400000800848036803B910BD074B002BFBD0A0
:10045000BDE81040184700BF000000000C12FF1F4D
:10046000C08101000812FF1F0000000000690B6935
:100470009842D4BF00200120704700BF80698B697B
:100480000028B8BF4042002BB8BF5B429842D4BF9F
:1004900000200120704700BFF0B586460120DEF83D
:1004A0005470DEF82C303A6A106079683A680A4471
:1004B0007A600EF12C0493B15A69002A08DB1A6A9B
:1004C00010605E6819683D695A6931445960521B71
:1004D00019690A445A6154F8043F002BECD1DEF844
:1004E0002430154ADEF81840DEF86400002111605F
:1004F000DB00516803F1804303F5603321440D2490
:1005000019611460DA68502122F08002DA60D96043
:1005100000B1F0BD7A68FB689A4200D0F0BDDEF809
:100520000820DEF85810936823F002039360002936
:10053000F4D0BDE8F040084700800340836A00F132
:10054000280233B10120596A52F8043F0860002B99
:10055000F9D17047244A254BD2ED017AD3ED006AD8
:10056000DFED230A234A244BF8EEE66AF8EEE77A39
:1005700080EEA67A10B5546893ED000A67EE277AEC
:1005800027EE800A10F05AFD10F0B0FC1B4B1C48FF
:100590005A6D1C4990ED006AD1ED006A526872B63E
:1005A00007EE904AF8EEE77A9FED177A596FD0EE92
:1005B000067AF8EEE66A87EE876AD3ED1E7AB8EE21
:1005C000E77AC6EE267A67EE877AFDEEE77A17EECF
:1005D000902A8A42DA6FC3ED1C7AD8BF5242C3F820
:1005E000802062B610BD00BF2812FF1FA016FF1F9B
:1005F000DB0FC9403415FF1F6413FF1F7813FF1F63
:100600008014FF1FE814FF1F295C0F3D08B50EF092
:1006100083F90028D4BF4FF0FF30032008BD00BF8E
:10062000036A8B4224D0C369994200D07047836922
:10063000002BFBD010B472B60F4AC3698469002145
:100640001160DB00516803F1804303F560332144FE
:100650000D2419611460DA68502122F08002DA60FA
:10066000D96062B600695DF8044B03685B6818479F
:10067000006903689B681847008003402DE9F0413A
:10068000436F046F456DA3426A6808D0D0F880209C
:10069000002A134461DD9C42A8BF1C464467AB6836
:1006A000A3423DD0002C2B68B4BF4FF0FF32012293
:1006B0009A4215D000F12401012608E013685B423C
:1006C000012B13600BBF926AD36A13601E6051F84E
:1006D000042F002AF2D1C36E03EB43031B012ED17A
:1006E00084EAE476A6EBE476E6B183689A6812F0D1
:1006F0000207804635D01A682A498A4228D95968A3
:100700002948B0FBF6F6521A96423CD3B21A00279B
:10071000012003219F60D8601A6099601E60AC6060
:10072000BDE8F081214B8168214880221A608B68E6
:1007300023F002038B600260AC60BDE8F081013BF6
:10074000FDD184EAE476A6EBE476002EEAD0CCE78D
:10075000154AB2FBF6F61E60EEE79C42B8BF1C4697
:100760009CE7406903681B689847D8F80830D8F8B8
:1007700054509F6001220321DA600B4AB2FBF6F667
:100780001E609960D8E7D8F81400002102689960CB
:1007900001250321DD6012681E6099609047D8F83A
:1007A0005450C9E7FFED0200006CDC02C4F00F40BA
:1007B000C8F00F4083689A68920700D47047416D73
:1007C000426F70B504464868E16F121A002AB8BF3C
:1007D00052428A4248D3D4F880108A4236D3A06F5E
:1007E000D4F88410451EAA423EBF0238821A4A43FA
:1007F000D4F88C1028BF00220A4400EE102AB8EE6C
:10080000400AF1EEC07AF4EE677AF1EE10FA62D1A6
:10081000FDEEE77A17EE905AE5B19A6812F00206FB
:100820003DD01A6832498A4234D959683148B0FB00
:10083000F5F5521A954241D3AA1A0024012003214A
:100840009C60D8601A6099601D6070BDD4F88850B3
:10085000002DE2D1284A2948802111609A6822F0AF
:1008600002029A60016070BDD4F88400D4F88C1044
:1008700000FB021207EE902AF8EE677AB1EEE70A63
:10088000B4EE400AF1EE10FA2BD1FDEEC07A17EE6D
:10089000905AC1E7174AB2FBF5F51D6070BD60695B
:1008A00003681B689847A368124A9E6001200321D1
:1008B000D860B2FBF5F51D60996070BD6069026893
:1008C0000026012403219E601268DC601D6099608F
:1008D000BDE87040104710F011FCA368F0EE407ABC
:1008E00096E7B0EE670A10F009FCA368CDE700BFF9
:1008F000FFED0200006CDC02C4F00F40C8F00F40B6
:1009000070B5044608460D4612F0DAFF2368024629
:10091000294620465B68BDE87040184738B50A2272
:10092000002305460FF0B8FB044628460FF0A4FB51
:10093000204438BD38B505460FF0EEFB0446284686
:100940000FF09AFB204438BD38B5C9B205460FF008
:10095000EBFB044628460FF08FFB204438BD00BF58
:1009600010B50DF0E9FFC4B201E00DF0E5FF0DF0A8
:10097000D3FF0028F9DC042105480FF00FF82146C9
:1009800004480FF0C9FB03480FF076FB204610BD6A
:10099000545E0100A407FF1F2DE9F843151E884689
:1009A00041DD8146002600270024A0454FF00002CB
:1009B0001E4B304639460ED011F052FD064619F84E
:1009C00004000F46303811F0E5FC32463B4611F08A
:1009D00095FB06460F460134A542E6D1B8F1000F5B
:1009E00010DB013DC8EB0505002D0BDD0024304672
:1009F000394600220D4B11F05DFE0134A54206463A
:100A00000F46F4D106210A480EF0C8FF47EC106BE0
:100A1000022108480FF088FB06480FF02DFB47EC39
:100A2000106BBDE8F88300260027D7E700002440BC
:100A30005C5E0100A407FF1F70B584B001AD002407
:100A40004FF0FF3603E02E2808BF264601340DF094
:100A500073FFC0B2FF2805F8010BF4D10DF05CFF65
:100A6000002805DD0DF068FF0DF056FF0028F9DCC9
:100A70002246314601A8FFF78FFF04B070BD00BFCA
:100A8000F0B585B0044601AE00254FF0FF3703E016
:100A90002E2808BF2F460135236820465B699847FA
:100AA000C0B2FF2806F8010BF2D102E023685B69AF
:100AB0009847236820461B69984700282046F5DCA4
:100AC0002A46394601A8FFF767FF05B0F0BD00BF11
:100AD00008B501282DED028B05D0032803D0F8B10D
:100AE0009FED138B06E01448FFF7CAFFB0EE408A73
:100AF000F0EE608A082111480EF050FFB0EE480A6F
:100B0000F0EE680A02210E480FF00EFB0C480FF0C1
:100B1000B3FAB0EE480AF0EE680ABDEC028B08BDED
:100B20000748FFF7ADFFB0EE408AF0EE608AE1E7DC
:100B3000000000000000F0BF8407FF1F645E01009A
:100B4000A407FF1F30B583B00023154D019307E0C4
:100B500018440DF06FFA019B0133142B01930BDC49
:100B60000DF0EAFEC4B2FF2C21462868019BEFD1AC
:100B7000002118440DF05EFA0A4B042219680DEBAF
:100B800002000DF07FFA092107480EF007FF20460A
:100B90000EF088FF05480FF06FFA03B030BD00BFBC
:100BA0000007FF1F0407FF1F705E0100A407FF1F5F
:100BB00008B5084BDFED080AD3ED007A27EE800A6E
:100BC00010F03CFA10F092F9044BD3ED007A20EECD
:100BD000270A08BD6413FF1FDB0FC9408014FF1FE5
:100BE0001F4A204B92ED010AD3ED007ADFED1E6A19
:100BF0001E4BF8EEE77AB8EEC00A86EEA77A10B57B
:100C00005C6827EE000AFFF7D3FF194B19495A6DAC
:100C1000D1ED006A526872B607EE904AF8EEE77AB4
:100C20009FED157A596F30EE670AF8EEE66A80EEAE
:100C3000076AD3ED1E7AB8EEE77AC6EE267A67EE3B
:100C4000877AFDEEE77A17EE902A8A42DA6FC3EDD3
:100C50001C7AD8BF5242C3F8802062B610BD00BFD4
:100C60002812FF1FA016FF1FDB0FC940FC14FF1F37
:100C70007813FF1FE814FF1F295C0F3D70B596B075
:100C80007349744C01A80FF0C3FB01A972480FF01F
:100C9000CDF901A971480FF0C9F901A80FF078FB4F
:100CA00022200EF0FFFE22200DF0F8FD6C4901A875
:100CB0000FF0AEFB01A968480FF0B8F901A9674829
:100CC0000FF0B4F901A80FF063FB22200EF0EAFE4A
:100CD00022200DF0E3FDFF200EF0E4FEFF200DF0DA
:100CE000DDFDFF200EF0DEFEFF200DF0D7FDFF2022
:100CF0000EF0D8FEFF200DF0D1FD4FF4FA600DF09C
:100D000051FB0DF019FEC0B2206001E00DF014FEA1
:100D10000DF002FE0028F9DC13214D480DF0C8FD4E
:100D200022200DF0BBFD05214E480DF0C1FD2168CC
:100D30004A480FF0F1F922200DF0B0FDFF200DF030
:100D4000ADFDFF200DF0AAFDFF200DF0A7FD4FF433
:100D5000FA600DF027FB23680E2B5CD8DFE813F058
:100D60004201D4014A02C0023C044E034E03AB04CC
:100D7000F402700402040F008E004E034E033A4B3F
:100D80001C680DF1030504F1080620460DF038F942
:100D90000134B44205F8010FF7D12D492F48FFF770
:100DA000AFFD22200DF07AFD30492C48FFF7A8FD59
:100DB00001992A480FF0B0F922200DF06FFDFF20B5
:100DC0000DF06CFDFF200DF069FDFF200DF066FDBC
:100DD0004FF4FA600DF0E6FA1D492048FFF790FD48
:100DE00022200DF05BFD22491C48FFF789FD029986
:100DF0001A480FF091F922200DF050FDFF200DF060
:100E00004DFDFF200DF04AFDFF200DF047FD4FF492
:100E1000FA600DF0C7FA172116480DF049FDFF20C2
:100E20000DF03CFDFF200DF039FDFF200DF036FDEB
:100E3000142111480DF03CFDFF200DF02FFDFF2087
:100E40000DF02CFDFF200DF029FD16B070BD00BF88
:100E50007C5E01002C07FF1FA407FF1F8407FF1FF4
:100E6000905E0100985E01001007FF1F9060010076
:100E7000A0600100346101004C610100944B1D68C9
:100E800001AC2D1B0EAE28190DF0BAF804F8010BB9
:100E9000B442F8D18F499048FFF732FD22200DF07F
:100EA000FDFC8E498C48FFF72BFD01998A480FF015
:100EB00033F922200DF0F2FCFF200DF0EFFCFF20B3
:100EC0000DF0ECFCFF200DF0E9FC4FF4FA600DF0A2
:100ED00069FA80498048FFF713FD22200DF0DEFCFF
:100EE0007F497D48FFF70CFD02997B480FF014F90C
:100EF00022200DF0D3FCFF200DF0D0FCFF200DF0E0
:100F0000CDFCFF200DF0CAFC4FF4FA600DF04AFA58
:100F100070497148FFF7F4FC22200DF0BFFC7149C5
:100F20006D48FFF7EDFC03996B480FF0F5F82220B0
:100F30000DF0B4FCFF200DF0B1FCFF200DF0AEFC75
:100F4000FF200DF0ABFC4FF4FA600DF02BFA614975
:100F50006148FFF7D5FC22200DF0A0FC62495E48F5
:100F6000FFF7CEFC04995C480FF0D6F822200DF074
:100F700095FCFF200DF092FCFF200DF08FFCFF2070
:100F80000DF08CFC4FF4FA600DF00CFA5149524808
:100F9000FFF7B6FC22200DF081FC54494E48FFF7C4
:100FA000AFFC05994C480FF0B7F822200DF076FC05
:100FB000FF200DF073FCFF200DF070FCFF200DF002
:100FC0006DFC4FF4FA600DF0EDF942494248FFF72D
:100FD00097FC22200DF062FC45493F48FFF790FC4A
:100FE000069905E7434B1D6801AC2D1B05AE28197A
:100FF0000DF006F804F8010BA642F8D13549364841
:10100000FFF77EFC22200DF049FC3B493248FFF7F8
:1010100077FC019930480FF07FF822200DF03EFC5C
:10102000FF200DF03BFCFF200DF038FCFF200DF001
:1010300035FC4FF4FA600DF0B5F926492648FFF764
:101040005FFC22200DF02AFC2C492348FFF758FCB6
:10105000029921480FF060F822200DF01FFCFF20BC
:101060000DF01CFCFF200DF019FCFF200DF016FC0C
:101070004FF4FA600DF096F916491748FFF740FC57
:1010800022200DF00BFC1E491348FFF739FC039991
:1010900011480FF041F822200DF000FCFF200DF068
:1010A000FDFBFF200DF0FAFBFF200DF0F7FB4FF4E6
:1010B000FA600DF077F907490748FFF721FC222075
:1010C0000DF0ECFB0F490448FFF71AFC04998FE67A
:1010D000FC06FF1F7C5E01008407FF1FB06001005B
:1010E000C8600100DC600100F460010008610100DB
:1010F000206101002807FF1FA05E0100B05E010013
:10110000BC5E0100D05E0100AC4B1D6801AC2D1B24
:1011100005AE28190CF074FF04F8010BA642F8D1B3
:10112000A749A848FFF7ECFB22200DF0B7FBA64922
:10113000A448FFF7E5FB0199A2480EF0EDFF22203D
:101140000DF0ACFBFF200DF0A9FBFF200DF0A6FB7E
:10115000FF200DF0A3FB4FF4FA600DF023F998493E
:101160009848FFF7CDFB22200DF098FB9749954852
:10117000FFF7C6FB029993480EF0CEFF22200DF038
:101180008DFBFF200DF08AFBFF200DF087FBFF2079
:101190000DF084FB4FF4FA600DF004F9884989489A
:1011A000FFF7AEFB22200DF079FB89498548FFF758
:1011B000A7FB039983480EF0AFFF22200DF06EFBD2
:1011C000FF200DF06BFBFF200DF068FBFF200DF002
:1011D00065FB4FF4FA600DF0E5F879497948FFF7BF
:1011E0008FFB22200DF05AFB7A497648FFF788FBE7
:1011F0000499FDE5784B1D6801AC2D1B05AE28193F
:101200000CF0FEFE04F8010BA642F8D16C496D48C3
:10121000FFF776FB22200DF041FB6B496948FFF791
:101220006FFB019967480EF077FF22200DF036FB27
:10123000FF200DF033FBFF200DF030FBFF200DF001
:101240002DFB4FF4FA600DF0ADF85D495D48FFF7F6
:1012500057FB22200DF022FB5C495A48FFF750FB58
:10126000029958480EF058FF22200DF017FBFF207E
:101270000DF014FBFF200DF011FBFF200DF00EFB15
:101280004FF4FA600DF08EF84D494E48FFF738FBE9
:1012900022200DF003FB51494A48FFF731FB039927
:1012A00048480EF039FF22200DF0F8FAFF200DF02B
:1012B000F5FAFF200DF0F2FAFF200DF0EFFA4FF4EF
:1012C000FA600DF06FF83E493E48FFF719FB222007
:1012D0000DF0E4FA42493B48FFF712FB049987E519
:1012E000404B1D6801AC2D1B05AE28190CF088FE83
:1012F00004F8010BA642F8D131493248FFF700FB50
:1013000022200DF0CBFA38492E48FFF7F9FA01995F
:101310002C480EF001FF22200DF0C0FAFF200DF046
:10132000BDFAFF200DF0BAFAFF200DF0B7FA4FF426
:10133000FA600DF037F822492248FFF7E1FA22203F
:101340000DF0ACFA294980E6294B1C680DF1030524
:1013500004F1080620460CF053FE0134A64205F8BD
:10136000010FF7D116491748FFF7CAFA22200DF0EE
:1013700095FA20491348FFF7C3FA019911480EF076
:10138000CBFE22200DF08AFAFF200DF087FAFF2015
:101390000DF084FAFF200DF081FA4FF4FA600DF0A1
:1013A00001F807490748FFF7ABFA22200DF076FA5B
:1013B00011490448FFF7A4FA029919E52407FF1F11
:1013C0007C5E01008407FF1FA05E0100B05E01008B
:1013D000E05E0100F45E01003807FF1F045F0100BA
:1013E000185F01003407FF1F285F0100385F01000C
:1013F0000807FF1F286001003C600100B84B1D6812
:1014000001AC2D1B16AE28190CF0FAFD04F8010BE7
:10141000A642F8D1B349B448FFF772FA22200DF082
:101420003DFAB249B048FFF76BFA0199AE480EF0A9
:1014300073FE22200DF032FAFF200DF02FFAFF206C
:101440000DF02CFAFF200DF029FA4FF4FA600CF0A1
:10145000A9FFA449A448FFF753FA22200DF01EFA71
:10146000A349A148FFF74CFA02999F480EF054FE99
:1014700022200DF013FAFF200DF010FAFF200DF0DE
:101480000DFAFF200DF00AFA4FF4FA600CF08AFF13
:1014900094499548FFF734FA22200DF0FFF9954959
:1014A0009148FFF72DFA03998F480EF035FE222060
:1014B0000DF0F4F9FF200DF0F1F9FF200DF0EEF939
:1014C000FF200DF0EBF94FF4FA600CF06BFF85494B
:1014D0008548FFF715FA22200DF0E0F98649824889
:1014E000FFF70EFA089980480EF016FE22200DF044
:1014F000D5F9FF200DF0D2F9FF200DF0CFF9FF2034
:101500000DF0CCF94FF4FA600CF04CFF75497648B9
:10151000FFF7F6F922200DF0C1F978497248FFF77C
:10152000EFF9049970480EF0F7FD22200DF0B6F99E
:10153000FF200DF0B3F9FF200DF0B0F9FF200DF002
:10154000ADF94FF4FA600CF02DFF66496648FFF7DD
:10155000D7F922200DF0A2F969496348FFF7D0F9C5
:10156000099945E4674B1C680DF1030504F1080671
:1015700020460CF045FD0134B44205F8010FF7D1C7
:1015800058495948FFF7BCF922200DF087F95E4908
:101590005548FFF7B5F9019953480EF0BDFD2220DB
:1015A0000DF07CF9FF200DF079F9FF200DF076F9B0
:1015B000FF200DF073F94FF4FA600CF0F3FE494987
:1015C0004948FFF79DF922200DF068F94F49464838
:1015D000FFF796F902990BE44D4B1D6801AC2D1BEA
:1015E00005AE28190CF00CFD04F8010BA642F8D149
:1015F0003C493D48FFF784F922200DF04FF9454959
:101600003948FFF77DF9019937480EF085FD222012
:101610000DF044F9FF200DF041F9FF200DF03EF9E7
:10162000FF200DF03BF94FF4FA600CF0BBFE2D49A2
:101630002D48FFF765F922200DF030F9364996E57F
:10164000364B1C680DF1030504F1080620460CF02A
:10165000D7FC0134A64205F8010FF7D121492248F1
:10166000FFF74EF922200DF019F92D491E48FFF71A
:1016700047F901991C480EF04FFD22200DF00EF99C
:10168000FF200DF00BF9FF200DF008F9FF200DF001
:1016900005F94FF4FA600CF085FE12491248FFF785
:1016A0002FF922200DF0FAF81E490F48FFF728F90C
:1016B0000299FFF79DBB1C4B1D6801AC2D1B0EAEA4
:1016C00028190CF09DFC04F8010BA642F8D1019BEF
:1016D000032B3FF6A0ABDFE803F0D1A4772900BFCE
:1016E0001C07FF1F7C5E01008407FF1F685F01006D
:1016F000805F0100BC5E0100D05E0100E05E010081
:10170000F45E01001407FF1F70600100806001009B
:101710003007FF1F485F0100585F01000C07FF1FE3
:101720004C600100606001002007FF1F6A496B48A0
:10173000FFF7E6F822200DF0B1F869496748FFF796
:10174000DFF8029965480EF0E7FC22200DF0A6F8BC
:10175000FF200DF0A3F8FF200DF0A0F8FF200DF002
:101760009DF84FF4FA600CF01DFE5B495B48FFF7F3
:10177000C7F822200DF092F85A495848FFF7C0F8F0
:101780000A9956480EF0C8FC22200DF087F8FF2079
:101790000DF084F8FF200DF081F8FF200DF07EF8A9
:1017A0004FF4FA600CF0FEFD4B494C48FFF7A8F8E7
:1017B00022200DF073F84C494848FFF7A1F84B4B35
:1017C0004648596AFFF715BB43494448FFF798F864
:1017D00022200DF063F846494048FFF791F805993B
:1017E0003E480EF099FC22200DF058F8FF200DF035
:1017F00055F8FF200DF052F8FF200DF04FF84FF490
:10180000FA600CF0CFFD34493448FFF779F8222014
:101810000DF044F837493148FFF772F80D99FFF79A
:10182000E7BA2D492D48FFF76BF822200DF036F866
:1018300031492A48FFF764F8049928480EF06CFCF7
:1018400022200DF02BF8FF200DF028F8FF200DF0DE
:1018500025F8FF200DF022F84FF4FA600CF0A2FDFD
:101860001D491E48FFF74CF822200DF017F82349B8
:101870001A48FFF745F80C99FFF7BABA1649174806
:10188000FFF73EF822200DF009F81D491348FFF735
:1018900037F8039911480EF03FFC22200CF0FEFFB0
:1018A000FF200CF0FBFFFF200CF0F8FFFF200CF0F6
:1018B000F5FF4FF4FA600CF075FD07490748FFF794
:1018C0001FF822200CF0EAFF0E490448FFF718F831
:1018D0000B99FFF78DBA00BF7C5E01008407FF1FE4
:1018E000945F0100A85F0100B85F01007015FF1F41
:1018F0000860010018600100E85F0100F85F010066
:10190000C85F0100D85F010070B5DC4BBCB01D683A
:101910006C462D1B3CAE28190CF072FB04F8010B31
:10192000A642F8D14FF4FA600CF03CFD1221D448E5
:10193000D44ED54DD54C0CF0BBFF22200CF0AEFFA1
:101940000621D3480CF0B4FF22200CF0A7FFFF20A3
:101950000CF0A4FFFF200CF0A1FFFF200CF09EFF75
:101960004FF4FA600CF01EFD1221C5480CF0A0FFE8
:1019700022200CF093FF1321C6480CF099FF0F9919
:10198000C5480EF0C9FB22200CF088FFFF200CF0A8
:1019900085FFFF200CF082FFFF200CF07FFF4FF44B
:1019A000FA600CF0FFFC1221B5480CF081FF2220F8
:1019B0000CF074FF1121B9480CF07AFF1399B64866
:1019C0000EF0AAFB22200CF069FFFF200CF066FF4E
:1019D000FF200CF063FFFF200CF060FF4FF4FA6073
:1019E0000CF0E0FC1221A6480CF062FF22200CF063
:1019F00055FF1321AA480CF05BFF289810F0DCFC7F
:101A000041EC100B0221A4480EF08EFB22200CF0BA
:101A100045FFFF200CF042FFFF200CF03FFFFF20AE
:101A20000CF03CFF4FF4FA600CF0BCFC122194481F
:101A30000CF03EFF22200CF031FF0F2199480CF0F2
:101A400037FF9DF8C030002B0BBF304628460421DD
:101A500003210CF02DFF22200CF020FFFF200CF0C2
:101A60001DFFFF200CF01AFFFF200CF017FF4FF4B2
:101A7000FA600CF097FC122181480CF019FF22202B
:101A80000CF00CFF122188480CF012FF10998248CC
:101A90000EF042FB22200CF001FFFF200CF0FEFEB6
:101AA000FF200CF0FBFEFF200CF0F8FE4FF4FA6074
:101AB0000CF078FC122172480CF0FAFE22200CF097
:101AC000EDFE112179480CF0F3FE149972480EF0E6
:101AD00023FB22200CF0E2FEFF200CF0DFFEFF20B3
:101AE0000CF0DCFEFF200CF0D9FE4FF4FA600CF095
:101AF00059FC122162480CF0DBFE22200CF0CEFED5
:101B000010216B480CF0D4FE2A9810F055FC41ECE3
:101B1000100B022160480EF007FB22200CF0BEFEE5
:101B2000FF200CF0BBFEFF200CF0B8FEFF200CF0F5
:101B3000B5FE4FF4FA600CF035FC122150480CF061
:101B4000B7FE22200CF0AAFE0E215A480CF0B0FE7F
:101B50009DF8C130002B0BBF3046284604210321DD
:101B60000CF0A6FE22200CF099FEFF200CF096FE51
:101B7000FF200CF093FEFF200CF090FE4FF4FA6073
:101B80000CF010FC12213E480CF092FE22200CF0CA
:101B900085FE122148480CF08BFE11993E480EF04C
:101BA000BBFA22200CF07AFEFF200CF077FEFF201B
:101BB0000CF074FEFF200CF071FE4FF4FA600CF094
:101BC000F1FB12212E480CF073FE22200CF066FE71
:101BD00011213A480CF06CFE15992F480EF09CFA32
:101BE00022200CF05BFEFF200CF058FEFF200CF0D2
:101BF00055FEFF200CF052FE4FF4FA600CF0D2FBC1
:101C000012211F480CF054FE22200CF047FE102138
:101C10002B480CF04DFE2B9810F0CEFB41EC100B36
:101C200002211D480EF080FA22200CF037FEFF2022
:101C30000CF034FEFF200CF031FEFF200CF02EFEE5
:101C40004FF4FA600CF0AEFB12210D480CF030FEA0
:101C500022200CF023FE0E211A480CF029FE9DF8DC
:101C6000C230002B0BBF30462846042103210CF064
:101C70001FFE22200CF012FEFF2025E00014FF1FA3
:101C8000706101006861010064610100B015FF1F0F
:101C9000846101008C6101008407FF1FA0610100C5
:101CA000B4610100C8610100D8610100EC6101006C
:101CB0000062010014620100246201003862010028
:101CC0004C620100606201000CF0E8FDFF200CF0A6
:101CD000E5FDFF200CF0E2FD4FF4FA600CF062FB32
:101CE00012219F480CF0E4FD22200CF0D7FD1221B8
:101CF0009C480CF0DDFD12999B480EF00DFA222055
:101D00000CF0CCFDFF200CF0C9FDFF200CF0C6FD4F
:101D1000FF200CF0C3FD4FF4FA600CF043FB1221DE
:101D20008F480CF0C5FD22200CF0B8FD10218F4823
:101D30000CF0BEFD16998C480EF0EEF922200CF046
:101D4000ADFDFF200CF0AAFDFF200CF0A7FDFF2049
:101D50000CF0A4FD4FF4FA600CF024FB1221804833
:101D60000CF0A6FD22200CF099FD0E2180480CF00D
:101D70009FFD9DF8C330002B0BBF30462846042141
:101D800003210CF095FD22200CF088FDFF200CF0C3
:101D900085FDFF200CF082FDFF200CF07FFD4FF44D
:101DA000FA600CF0FFFA12216D480CF081FD222040
:101DB0000CF074FD0C216F480CF07AFDD4F8C410BF
:101DC00069480EF0A9F922200CF068FDFF200CF004
:101DD00065FDFF200CF062FDFF200CF05FFD4FF46D
:101DE000FA600CF0DFFA12215D480CF061FD222050
:101DF0000CF054FD0C2160480CF05AFDD4F8C810CA
:101E000059480EF089F922200CF048FDFF200CF013
:101E100045FDFF200CF042FDFF200CF03FFD4FF48C
:101E2000FA600CF0BFFA12214D480CF041FD22205F
:101E30000CF034FD0C2151480CF03AFDD4F8CC10D4
:101E400049480EF069F922200CF028FDFF200CF023
:101E500025FDFF200CF022FDFF200CF01FFD4FF4AC
:101E6000FA600CF09FFA12213D480CF021FD22206F
:101E70000CF014FD0C2142480CF01AFDD4F8D010DF
:101E800039480EF049F922200CF008FDFF200CF033
:101E900005FDFF200CF002FDFF200CF0FFFC4FF4CD
:101EA000FA600CF07FFA12212D480CF001FD22207F
:101EB0000CF0F4FC0C2133480CF0FAFCD4F8D410EC
:101EC00029480EF029F922200CF0E8FCFF200CF044
:101ED000E5FCFF200CF0E2FCFF200CF0DFFC4FF4EF
:101EE000FA600CF05FFA12211D480CF0E1FC222090
:101EF0000CF0D4FC0C2124480CF0DAFCD4F8D810F7
:101F000019480EF009F922200CF0C8FCFF200CF053
:101F1000C5FCFF200CF0C2FCFF200CF0BFFC4FF40E
:101F2000FA600CF03FFA172118480CF0C1FCFF20B2
:101F30000CF0B4FCFF200CF0B1FCFF200CF0AEFC68
:101F4000132113480CF0B4FCFF200CF0A7FCFF2079
:101F50000CF0A4FCFF203CB0BDE870400CF09EBC2F
:101F600070610100706201008407FF1F846201003C
:101F700098620100A8620100B8620100C862010015
:101F8000D8620100E8620100F86201000863010004
:101F900020630100082838B515461C4647D014DDDB
:101FA00020283DD029DD402824D0802846D1C8B241
:101FB00001210CF0B9F9E8B201210CF0B5F9E0B259
:101FC0000121BDE838400CF0AFB902281ED004282A
:101FD00002D0012821D038BDC8B200210CF0A4F9EC
:101FE000E8B201210CF0A0F9E0B20021BDE83840D0
:101FF0000CF09AB9C8B20021DBE710281FD1C8B293
:1020000000210CF091F9E8B20021D6E7C8B2012115
:102010000CF08AF9E8B20021E4E7C8B20021F7E742
:10202000C8B201210CF080F9E8B20021C5E7C8B2BE
:1020300001210CF079F9E8B20121D3E738BD38BDB0
:1020400038B504460C49A2680C489368206023F018
:10205000020304F10C059360284661600DF080FFD7
:10206000206A0BF04BFF606A0BF048FF28460DF02A
:1020700077FF204638BD00BF0C5E0100185E0100EE
:1020800010B5034B03600446FFF7DAFF204610BD8E
:102090002C5E010070B504460020616D636F4E68D0
:1020A000E26F4D68C4F880009B1B002BB8BF5B42F9
:1020B0009A420E68E06728BF1A461344A068A367D7
:1020C00006FB0252CA6083689A0706D501200CF00D
:1020D00069F9A3689B689B07F8D470BD436D10B580
:1020E0005B68044672B6D0ED1E7A9FED107A426F9F
:1020F000F8EEE77A67EE877AFDEEE77A17EE903A28
:102100009342C36FC0ED1C7AD8BF5B42C0F88030E9
:1021100062B683689B689A0706D501200CF042F9E5
:10212000A3689B689B07F8D410BD00BF00000000A7
:10213000F0B5044683B000258023261D264F27488E
:1021400023742760606064613046A560E5600F46D7
:1021500001920BF0BFFE206230460BF0BBFE012364
:1021600060626366A56584F85C5025660BF086FEA8
:1021700004F1080061690BF047FE07EE907A019ABE
:102180009FED177ADFED175A9FED176A84F85C0010
:10219000F8EE676A07EE902AF8EE677A66EE876ACD
:1021A00067EE877A66EEA56A27EEA57AF6EE007AE4
:1021B000F0EE675AE6EE865A2046A266E7EE067A09
:1021C000E766FDEEE56AFDEEE77AC4ED066AC4ED6A
:1021D000077A03B0F0BD00BF185E01000C5E01007D
:1021E000BD378635001B374C0000003D884231D09A
:1021F0002DE9F04700F10408414516468A4681461C
:1022000017D0D9F80010D8F80000B04798B9D8F81E
:102210000050444601E0236863602746284654F88E
:10222000041DB0470028F6D13D6008F10408C245FE
:10223000E7D1BDE8F087C9EB08029308D8F8004061
:1022400005D0C2F104004044494610F09FFFC9F890
:102250000040EAE7704700BF2DE9F8430B1A432B13
:102260001CDD00F14008894641461746FFF7BEFFD6
:10227000C14515D0D8F80050444601E0236863609A
:102280002646284654F8041DB8470028F6D108F120
:102290000408C1453560EDD1BDE8F883FFF7A6FF1E
:1022A000BDE8F8832DE9F04F561E06EBD67683B0D5
:1022B0007610B14201928846054699460C9F5CDA39
:1022C0008A4600E0DA460AF101034FEA430B0BF1BC
:1022D0008041013955F8330055F8211005EBC3044E
:1022E000B84718B10BF1FF3B05EB8B04236845F8A9
:1022F0002A30B345E6DB019BDA0707D4019BA3F143
:10230000020A0AEBDA7ABBEB6A0F06D0C34514DC8B
:10231000C4F8009003B0BDE8F08F0BF1010B4FEA59
:102320004B0B0BF18043013B0BF1FF3B55F8233086
:102330002360C34505EB8B04EADD0BF1FF3606EBAA
:10234000D6767610494655F82600B847731E03EB3B
:10235000D37305EB86045B1030B905EB8B04C4F82E
:10236000009003B0BDE8F08F55F8262045F82B20EB
:10237000B045CDDAB3461E46E4E7019BDB0700EB30
:102380008104C5D48B46B9E72DE9F04F0C1A432CD4
:1023900085B040F389800546894692461E46002A4C
:1023A00061D0031D0393E410686855F82410B0470A
:1023B0000AF1FF3A59F8041C002834D055F82400DB
:1023C000B047002837D02B6855F824202A6045F8FC
:1023D000243068682968039FCB46B846B04780B967
:1023E000ABF1040421682868A346043CB0470028E8
:1023F000F8D15F4509D23A68DBF800103960CBF8B4
:10240000002057F8040F2968E7E74946334652464B
:1024100038467C1BFFF7B8FF432C45DDBAF1000FAF
:1024200022D0B946BFE76868B04798B195E8030085
:1024300029606860CFE759F8041C6868B047002835
:10244000F4D02B6859F8042C2A6049F8043C6868D9
:102450002968C0E759F8041C55F82400B0472B68D8
:102460000028B1D0EEE78846A410A71E7F1005EB28
:10247000870900E0013F59F80439009622463946A1
:102480002846FFF70FFF002FF4D158F8043D2A68C3
:102490000096C5EB0804C8F800200021A2102846C9
:1024A000FFF700FF072CF0DC05B0BDE8F08F00BFA0
:1024B0002DE9F0418B0000F12807FC18A7420546E2
:1024C0000E4600F0A1809A10B2FA82F2C2F11F0209
:1024D0008F4B520021463846FFF756FF8C4A214663
:1024E0003846FFF7B9FEAB6A6B65012E40F30D81EC
:1024F000D3F810E03846012250F8041F0B6901326E
:10250000CEEB430396424B61F6DCA74200F0CF804E
:10251000D5F828C005F12C03DCF818101A460DE098
:102520001068806981EAE17680EAE077A6EBE176DF
:10253000A7EBE0770432B742B8BF01469442EFD12F
:1025400081EAE176A6EBE176DCF81C2006E019686A
:10255000C9698A4203F1040328BF0A469C42F6D1A6
:102560001446BEF1000F00D00EB9BDE8F0812B6813
:1025700028461B68984707EE906A620007EE102A0B
:10258000F8EE677AF8EE476A67EEA77A6B6D87EE2A
:10259000A67A5968DB68C5F884205B1A002BB8BF9F
:1025A0005B4269675908AB67C5F88860C5F88C401D
:1025B000F6EE007A77EE677AFCEEE77A17EE902A6D
:1025C0008A4228BF0A469B1AC5F88030EA67002A6B
:1025D0005BD13EB3AB689A6812F002047BD01A68F4
:1025E0004C498A4272D958684B49B1FBF6F1121A2C
:1025F00091425ED38A1A0026012403209E60DC608B
:102600001A609860196017E0836A436501293FF7F3
:102610006FAFD3F810E09969DC6981EAE176A6EB47
:10262000E1769EE73D4AAB683D48802111609A689B
:1026300022F002029A600160286A696A012600227B
:1026400003248842DE609A609C6053D0EB69002BC3
:102650008BD072B633492B6AE8690A60DB004A689E
:1026600003F1804303F5603302440D201A610860D2
:10267000DA68502122F08002DA60D96062B66869B7
:102680000368BDE8F0415B68184707EE904AB8EE72
:10269000670AF1EEC07AF4EE677AF1EE10FA2FD104
:1026A000FDEEE77A17EE906A002EBBD092E7AB6A98
:1026B000B1E7686902680027012603249F60126859
:1026C000DE6019609C609047AB68B5E71249B1FBCA
:1026D000F6F11960B0E7686903681B689847AB6852
:1026E0000D499C6001200322D860B1FBF6F119600E
:1026F0009A60A1E768690368BDE8F0419B681847E4
:102700000EF0FCFCF0EE407ACAE7D3F810E0FFE6EA
:102710006D040000FFED0200006CDC02C4F00F400D
:10272000C8F00F40008003402DE9F04F2DED028BE3
:10273000C3B0044641F288328B461EA80521FFF73C
:10274000F7FC0025142215219D4F1E9702A83A95EB
:1027500037950BF065FA10A8052206210BF060FAF8
:10276000002C00F0FB81012C50D0209B9B68990726
:1027700040F150810025934EDFF88892DFF888A25F
:10278000DFF8888236E00DF0A3F8C0B2A0F15D0357
:10279000DBB2102B8AF8000007D801218A4A01FA1F
:1027A00003F31A40002A40F006810A200BF0FAFDDC
:1027B00088FB0523EA17C2EB2313322202FB1353D3
:1027C0008BB9002C00F0EA80012C05D1039B7F48D7
:1027D00033600B210DF0E2F831687D480DF09CFC70
:1027E0007B480DF049FC209B9B689B0705F1010588
:1027F00040F111810DF0A8F8002840F3D680D9F8F7
:102800000030002BBFD00CF097F8BEE7714EDFF818
:1028100000A2D6ED276AD6ED2B7A726D736C86EE28
:10282000A77A03FB02F307EE903AF8EEE77A67EE39
:10283000877A17EE900A0FF0BFFDB26BDAF800301E
:102840009FED657A039503FB02F308EE103AF8EE6C
:10285000C87A804627EE878A8946FDEEC87A02A8A4
:1028600017EE901A0BF02EFADAF804100BF01EFA9D
:10287000019058460FF08EFD42464B460FF0F0FD9A
:1028800010F09EF8014601980BF05AFA15215348B2
:102890000DF084F8D6F8AC000FF08EFD41EC100B73
:1028A00002214B480DF040FC49480DF0E5FB10219A
:1028B0004B480DF073F8716D4548FEF73BF8122157
:1028C00048480DF06BF8716C4148FEF733F80F2162
:1028D00045480DF063F8D6F89C000FF06DFD41EC13
:1028E000100B02213A480DF01FFC39480DF0C4FBD3
:1028F0000A213E480DF052F849EC108B0221344871
:102900000DF012FC32480DF0B7FB0B2138480DF0EA
:1029100045F8DAF800102E48FEF70CF81321354878
:102920000DF03CF8B16B2A48FEF704F80A21324852
:102930000DF034F818EE100A0FF03EFD41EC100BCC
:10294000022123480DF0F0FB21480DF095FB0A21F0
:102950002A480DF023F8DAF804101D48FDF7EAFFC5
:10296000294616200BF0E0FC369B369503F10B064A
:1029700042AA02EB860E02EB830302AE43F8686CB8
:10298000224621461EA84EF8905CFFF791FD209B41
:102990009B689A073FF5EEAE0A4E41E0119B18483E
:1029A00033600B210CF0FAFF16E7FDF72FFE00282D
:1029B000FFF6FBAE23E71EA8FFF76CFBF5E600BFB2
:1029C000405E01002412FF1F410001003864010035
:1029D000A407FF1FB015FF1F0AD7233CC8630100DF
:1029E000E0630100F46301000864010084630100F6
:1029F0009063010018640100B0630100BC63010032
:102A00002C6401001807FF1FBC12FF1F1F85EB512C
:102A1000EC14FF1F444E002C00F06181012C71D199
:102A2000172142480BF044FFFF200BF037FFFF2037
:102A30000BF034FFFF200BF031FF13213C480BF06B
:102A400037FFFF200BF02AFFFF200BF027FFFF20AE
:102A50000BF024FF132137480BF02AFFFF200BF067
:102A60001DFFFF200BF01AFFFF200BF017FF1321B3
:102A700031480BF01DFFFF200BF010FFFF200BF083
:102A80000DFFFF200BF00AFF13212C480BF010FF65
:102A9000FF200BF003FFFF200BF000FFFF200BF0E7
:102AA000FDFE112126480BF003FF22200BF0F6FE5D
:102AB000244B18680FF080FC41EC100B02212248D7
:102AC0000DF032FB22200BF0E9FEFF200BF0E6FEBA
:102AD000FF200BF0E3FEFF200BF0E0FE039B1B4802
:102AE00033600B210CF05AFF316819480DF014FBCC
:102AF00017480DF0C1FA174B0022012116201A6069
:102B00000BF012FC3068144C0FF044FC0023C4E9B5
:102B100000011EA81E973360FFF792FA43B0BDEC88
:102B2000028BBDE8F08F00BF2412FF1FC0640100BC
:102B3000D8640100EC640100006501001465010027
:102B400028650100AC15FF1F8407FF1F38640100D2
:102B5000A407FF1F6C15FF1F8012FF1F994D9A4E8F
:102B6000D5ED266AD5ED2A7A2A6D2B6C119486EE66
:102B7000A77A03FB02F307EE903AF8EEE77A67EEE6
:102B8000877A17EE900A0FF017FC6A6B33689FED97
:102B90008F7A03FB02F308EE103AF8EEC87A80460B
:102BA00027EE878A8946FDEEC87A10A817EE901A9C
:102BB0000BF088F871680BF079F8824658460FF0F0
:102BC000E9FB42464B460FF04BFC0FF0F9FE014685
:102BD00050460BF0B5F815217D480CF0DFFED5F816
:102BE000A8000FF0E9FB41EC100B022179480DF031
:102BF0009BFA78480DF040FA102177480CF0CEFE91
:102C0000296D74480DF088FA72480DF035FA1221DA
:102C100072480CF0C3FE296C6E48FDF78BFE0F2145
:102C20006F480CF0BBFED5F898000FF0C5FB41ECE7
:102C3000100B022167480DF077FA66480DF01CFA78
:102C40000A2168480CF0AAFE49EC108B0221614869
:102C50000DF06AFA5F480DF00FFA0B2162480CF094
:102C60009DFE31685B48FDF765FE13215F480CF05F
:102C700095FE696B5748FDF75DFE0A215C480CF034
:102C80008DFE18EE100A0FF097FB41EC100B02219D
:102C900050480DF049FA4F480DF0EEF90A21554819
:102CA0000CF07CFE71684B48FDF744FE21460E2077
:102CB0000BF03AFB369B369442AA02EB830510AE2A
:102CC00001221EA8114645F8686C45F8644CFFF7D0
:102CD000EFFB209B9B6898073FF54CAD464E47485D
:102CE00017210BF0E5FDFF200BF0D8FDFF200BF0C6
:102CF000D5FDFF200BF0D2FD132141480BF0D8FD8C
:102D0000FF200BF0CBFDFF200BF0C8FDFF200BF0E8
:102D1000C5FD13213B480BF0CBFDFF200BF0BEFDA2
:102D2000FF200BF0BBFDFF200BF0B8FD1321364850
:102D30000BF0BEFDFF200BF0B1FDFF200BF0AEFD50
:102D4000FF200BF0ABFD132130480BF0B1FDFF204D
:102D50000BF0A4FDFF200BF0A1FDFF200BF09EFD6A
:102D600011212B480BF0A4FD22200BF097FD294BDD
:102D700018680FF021FB41EC100B022126480DF0E2
:102D8000D3F922200BF08AFDFF200BF087FDFF20F6
:102D90000BF084FDFF200BF081FD119B1F48336079
:102DA0000B210CF0FBFD31680A480DF0B5F909481C
:102DB0000DF062F91A4B002201210E201A600BF06F
:102DC000B3FA9FE6B015FF1FF414FF1F0AD7233C88
:102DD00034630100A407FF1F4C630100606301001E
:102DE0007463010084630100906301009C6301002F
:102DF000B0630100BC6301002412FF1F44640100A2
:102E00005C64010070640100846401009864010046
:102E1000AC640100AC15FF1F8407FF1F2C64010088
:102E20006C15FF1F2DE9F04DB2B0074641F2883214
:102E30000D460EA80521FFF77BF90024DFF8588323
:102E4000CDF838806846022203212A9427940AF09C
:102E5000E7FE012F019400F03D81022F3ED0214674
:102E600004200BF061FA269B269432AA03F10B058D
:102E700002EB850502EB8303012243F868DC11466F
:102E80000EA845F8904CFFF713FB109B9B689A0720
:102E900040F19780AA4CAB4D012615E00CF018FDCF
:102EA000C0B2A0F15D03DBB2102B287005D8A64A92
:102EB00006FA03F31A40002A7FD10A200BF072FAB7
:102EC000109B9B689B077CD50CF03EFD00286FDDB6
:102ED0002368002BE2D00BF02FFDE1E79B4E9C4BCB
:102EE00031686846D3E924AB0AF0ECFE71680AF059
:102EF000DDFE064628460FF04DFA52465B460FF0BF
:102F0000AFFA0FF05DFD014630460AF019FF214689
:102F100004200BF009FA269B269432AA03F10B0534
:102F200002EB850502EB8303012243F868DC1146BE
:102F30000EA845F8904CFFF7BBFA109B9B689907C9
:102F4000A8D4182183480BF0B3FCFF200BF0A6FC9B
:102F5000FF200BF0A3FCFF200BF0A0FC14217E4807
:102F60000BF0A6FCFF200BF099FCFF200BF096FC69
:102F7000FF200BF093FC142178480BF099FCFF2004
:102F80000BF08CFCFF200BF089FCFF200BF086FC83
:102F9000142173480BF08CFCFF200BF07FFCFF200A
:102FA0000BF07CFCFF200BF079FC14216D4874E0E1
:102FB000FDF72CFB002880DB8AE70EA8FFF76AF8F4
:102FC0007BE7022FBDD0182167480BF071FCFF2072
:102FD0000BF064FCFF200BF061FCFF200BF05EFCAB
:102FE000142162480BF064FCFF200BF057FCFF201B
:102FF0000BF054FCFF200BF051FC14215C480BF04B
:1030000057FCFF200BF04AFCFF200BF047FCFF2091
:103010000BF044FC142157480BF04AFCFF200BF046
:103020003DFCFF200BF03AFCFF200BF037FC142195
:1030300051480BF03DFCFF200BF030FCFF200BF063
:103040002DFCFF200BF02AFC11214C480BF030FC2A
:10305000FF200BF023FCFF200BF020FCFF200BF0E7
:103060001DFC112146480BF023FCFF200BF016FC41
:10307000FF200BF013FCFF200BF010FC1221414845
:103080000BF016FCFF200BF009FCFF200BF006FCF8
:10309000FF200BF003FC3C4812210BF009FCFF2041
:1030A0000BF0FCFBFF200BF0F9FBFF200BF0F6FB15
:1030B000364A374B019911600420002201211A6021
:1030C0000BF032F90EA8CDF83880FEF7B9FF32B018
:1030D000BDE8F08D2F4E1E4B31686846D3E922AB18
:1030E0000AF0F0FD71680AF0E1FD064628460FF08F
:1030F00051F952465B460FF0B3F90FF061FC0146FF
:1031000030460AF01DFE214604200BF00DF9269BE7
:10311000269432AA03F10B0502EB850502EB83032B
:103120000EA843F868DC3A46394645F8904CFFF75C
:10313000BFF9109B9B6898077FF545AFAAE600BFD3
:103140001807FF1FBC12FF1F41000100A414FF1F3E
:10315000B015FF1F3C650100586501007065010056
:1031600088650100A0650100B8650100D465010013
:10317000EC650100046601001C6601003466010074
:10318000486601005C660100706601006C15FF1F57
:103190002412FF1FA415FF1F405E01002DE9F04718
:1031A0002DED048BD0B01446009041F288322CA84B
:1031B00008EE901A0521FEF7BBFF4FF0000802222F
:1031C0000321DFF89CA3CDF8B0A002A8CDF82081A0
:1031D000CDF814810AF024FD1422152110A80AF05C
:1031E0001FFD1EA8052206210AF01AFD002C00F082
:1031F000FC83012C00F0F8819FEDBF8ABF4DC04ECB
:10320000C04FD5ED2C6A95ED2A7ABA686B699FEDAF
:10321000BE9AC6EE877A03FB02F31EA84FF00008A1
:1032200095ED107AF8EEC76A06EE103A67EEA66AD8
:10323000D5ED147AB8EEC66AF8EEE77A26EE096A9A
:10324000F8EEE88A66EEA76AFDEEC67A66EEA86A30
:1032500017EE901AFDEEE67ACDED007A0AF032FD17
:10326000F968A64F0AF022FD00990AF069FDD5ED34
:103270002D6AD5ED2B7AB268AB69CDF87C8086EEED
:10328000A77A03FB02F310A8D5ED117AF8EEE76AEE
:10329000D5ED157A27EE267A06EE903AF8EEE77A23
:1032A000F8EEE66A67EE277A26EE897A67EEA87A64
:1032B000BDEEC77AFDEEE77A17EE101ACDED017A72
:1032C0000AF000FDF1688F4E0AF0F0FC01990AF057
:1032D00037FD07218D48CDF844800CF05FFB214677
:1032E0008B48DFF81C820CF017FF89480CF0C4FEF5
:1032F000142188480CF052FB18EE100A0FF05CF80D
:1033000041EC100B022182480CF00EFF80480CF0BB
:10331000B3FE132180480CF041FBE96B7C480CF0B4
:10332000FBFE7B480CF0A8FE11217C480CF036FB1C
:10333000E96C77480CF0F0FE75480CF09DFE122108
:1033400077480CF02BFBD5F8A0000FF035F841ECD6
:10335000100B02216E480CF0E7FE6D480CF08CFE5D
:10336000192170480CF01AFBD5F8BC000FF024F8B6
:1033700041EC100B022166480CF0D6FE64480CF0BC
:103380007BFE002C00F03C82012C40F086810E2157
:1033900065480CF003FBD8F800105D48FDF7CAFA49
:1033A000142162480CF0FAFA39695948FDF7C2FA5B
:1033B0000D215F480CF0F2FAD8F804105448FDF7DC
:1033C000B9FA192157480CF0E9FAD7F8BC000EF009
:1033D000F3FF41EC100B02214D48FDF7B5FA0E2129
:1033E00054480CF0DBFAD7F8B4000EF0E5FF41ECDE
:1033F000100B02214648FDF7A7FA15214E480CF0A4
:10340000CDFAD7F8AC000EF0D7FF41EC100B02213B
:103410003F48FDF799FA102148480CF0BFFA796D42
:103420003B48FDF787FA122145480CF0B7FA796C52
:103430003748FDF77FFA0E213E480CF0AFFAD7F877
:10344000B4000EF0B9FF41EC100B02213048FDF73B
:103450007BFA0B213B480CF0A1FA01992C480CF0A7
:103460005BFE2B480CF008FE0B2137480CF096FA57
:10347000D8F808102648FDF75DFA172133480CF0FC
:103480008DFAB9692248FDF755FA0A2130480CF047
:1034900085FAD8F80C101E48FDF74CFA00210420DC
:1034A0000AF042FF002116200AF03EFF449B50AA7A
:1034B00002EB830203F10C0050A9134601EB8000DC
:1034C00002A942F8681C002510A943F8641C0122D7
:1034D00040F8905C02212CA84495FEF7E9FF2E9B52
:1034E0009B68980740F1CF821A4D1B4E1B4FDFF8A7
:1034F00074804FF0010965E000000000B015FF1F67
:103500008414FF1F9414FF1F0AD7233C8466010014
:10351000A407FF1F8C660100A4660100B8660100C5
:10352000CC660100E0660100FC6601000C6701004A
:103530002467010034670100C8630100E0630100F3
:10354000F4630100446701009063010050670100CB
:10355000BC6301006C15FF1F2412FF1F1807FF1F1B
:10356000405E0100BC12FF1F0CF0B2F9C0B2A0F126
:103570005D03DBB2102B88F800001CD88F4A09FAD3
:1035800003F31A40BAB14198499B41684B9AD0F86D
:1035900004E05B1A83EAE37CACEBE37C0168624500
:1035A00028BF62460CEB020301FB02E200214A93B2
:1035B0004C914B91C2600A200AF0F4FE2E9B9B684E
:1035C0009B0777D5039B2B60002C5BD0012C01D18E
:1035D000119B33600CF0B8F9002859DD3B68002BD3
:1035E000C2D00BF0A9F9C1E7754D764E2B69326850
:1035F00095ED288A95ED0F7AD5ED2F7A95ED136A22
:10360000DFED716A714F03FB02F367EE887AB8EE63
:10361000C78A07EE103A67EE887AB8EEC77AB8EE36
:10362000C68A27EE267A27EE888ADDED007AB8EE84
:10363000E79AFDEEC77A02A817EE901A0AF042FB4D
:1036400071680AF033FBD5ED287A95ED2F7A27EED5
:10365000277AD5ED0F7AF8EEE77A28EE098A27EE79
:10366000277AD5ED137AF8EEE77A67EE277A67EED8
:10367000897AFDEEE77A17EE901A0AF061FBCDF831
:103680000C80BEE51F9B33600CF05EF90028A5DCC2
:10369000FCF7BCFF00288EDBA0E7002C00F0338194
:1036A000012C3FF4FBAE2E9B9B689A073FF51CAFA5
:1036B000474D484E039B2B60002C00F04E81012C9F
:1036C00046D1119B4448336013210BF0F1F8FF20E1
:1036D0000BF0E4F8FF200BF0E1F8FF200BF0DEF830
:1036E00013213E480BF0E4F8FF200BF0D7F8FF2041
:1036F0000BF0D4F8FF200BF0D1F8132138480BF071
:10370000D7F8FF200BF0CAF8FF200BF0C7F8FF2016
:103710000BF0C4F8132133480BF0CAF8FF200BF06C
:10372000BDF8FF200BF0BAF8FF200BF0B7F813211B
:103730002D480BF0BDF8FF200BF0B0F8FF200BF088
:10374000ADF8FF200BF0AAF8012116200AF0ECFDDD
:103750003068264C0EF01EFE0023C4E90001012152
:103760000420039311931F930AF0DEFD08212048E3
:103770000CF014F929681F480CF0CEFC1D480CF021
:103780007BFC05211C480CF009F9316819480CF044
:10379000C3FC18480CF070FC0A2118480CF0FEF825
:1037A00014480CF069FC2CA8CDF8B0A0FEF748FC3A
:1037B00050B0BDEC048BBDE8F08700BF41000100B4
:1037C000B015FF1F8414FF1F0AD7233C9414FF1F5A
:1037D0006C15FF1F2412FF1FB8670100CC670100A2
:1037E000E0670100F4670100086801008012FF1F14
:1037F00098660100A407FF1F547001008068010053
:103800000E21A3480CF0CAF83168A248FDF792F8DF
:103810001421A1480CF0C2F8F9689E48FDF78AF817
:103820000D219E480CF0BAF871689A48FDF782F8AD
:1038300019219B480CF0B2F8D7F8B8000EF0BCFD87
:1038400041EC100B02219348FDF77EF80E219548BC
:103850000CF0A4F8D7F8B0000EF0AEFD41EC100B60
:1038600002218C48FDF770F815218F480CF096F86E
:10387000D7F8A8000EF0A0FD41EC100B02218548FE
:10388000FDF762F8102189480CF088F8396D8148FD
:10389000FDF750F8122186480CF080F8396C7D480D
:1038A000FDF748F80E217F480CF078F8D7F8B00003
:1038B0000EF082FD41EC100B02217648FDF744F832
:1038C0000B217C480CF06AF8009972480CF024FC3B
:1038D00070480CF0D1FB0B2177480CF05FF8B16811
:1038E0006C48FDF727F8172174480CF057F87969F0
:1038F0006848FDF71FF80A2171480CF04FF8F1688D
:103900006448FDF717F8002104200AF00DFD00219E
:103910000E200AF009FD449B50AA02EB830203F13A
:103920000C0050A9134601EB800002A942F8681C64
:1039300000251EAA43F8642C022140F8905C012265
:103940002CA84495FEF7B4FD2E9B9B6899073FF584
:10395000CBAD5C4D039B5C4E2B601F9B5B48336083
:1039600012210AF0A5FFFF200AF098FFFF200AF0BD
:1039700095FFFF200AF092FF122155480AF098FFA8
:10398000FF200AF08BFFFF200AF088FFFF200AF0DB
:1039900085FF12214F480AF08BFFFF200AF07EFFBF
:1039A000FF200AF07BFFFF200AF078FF12214A482F
:1039B0000AF07EFFFF200AF071FFFF200AF06EFF81
:1039C000FF200AF06BFF122144480AF071FFFF202C
:1039D0000AF064FFFF200AF061FFFF200AF05EFF9B
:1039E00001210E200AF0A0FCB2E63D4D3D4FEB68F0
:1039F0003A6895ED288A95ED0F7AD5ED2E7A95EDFA
:103A0000136ADFED396A394E03FB02F367EE887AF9
:103A1000B8EEC78A07EE103A67EE887AB8EEC77A32
:103A2000B8EEC68A27EE267A27EE888ADDED007A80
:103A3000B8EEE79AFDEEC77A02A817EE901A0AF0E0
:103A400041F979680AF032F9D5ED287A95ED2E7AA8
:103A500027EE277AD5ED0F7AF8EEE77A28EE098A75
:103A600027EE277AD5ED137AF8EEE77A67EE277A14
:103A700067EE897AFDEEE77A17EE901A0AF060F9A0
:103A80000394FFF7BEBB0F4D039B2B600E4E18E651
:103A9000FC660100A407FF1F0C67010024670100FA
:103AA0006867010084670100346301004C63010012
:103AB000606301009467010090630100A06701004A
:103AC000BC6301006C15FF1F2412FF1F1C6801005E
:103AD0003068010044680100586801006C6801000A
:103AE000B015FF1F9414FF1F0AD7233C8414FF1F37
:103AF0002DE9F04F2DED028BC1B008EE100A41F216
:103B0000883205211CA8BC4EDFEDBC8ABC4CDFF816
:103B10004CB3FEF70DFB0027BA4B1C930222032186
:103B20000DF138096846389735970AF079F805227B
:103B3000062148460AF074F83268336903FB02F341
:103B400007EE103AB8EEC77A684627EE287AFDEEFF
:103B5000C77A17EE901A0AF0B5F871680AF0A6F85D
:103B6000F56AD6ED136ADFEDA85AE26BE36C94EDCB
:103B7000286A0197690007EE101AB8EEC77A03FBAE
:103B800002F386EE875A07EE903AC5EE256AB8EE44
:103B9000E77AB8EEC88A67EE067A67EEA67A67EE2D
:103BA000887A17EE900A0EF007FC41EC100B0DF02E
:103BB00045F951EC100B0EF003FF824600FB05F0B7
:103BC00040000EF0E7FBB2687369904D03FB02F30F
:103BD00007EE903AF8EEE77ACBE9000167EEA87AB3
:103BE0004846FDEEE77A17EE901A0AF06BF8F16995
:103BF0000AF05CF8D4ED2A7AD6ED116A0F9786EEBA
:103C0000A77AD4ED107AD4ED146AF8EEE77AF8EEDC
:103C1000E66A67EE277A67EEA67A67EE887A17EE8D
:103C2000900A0EF0C9FB41EC100B0DF007F951ECB6
:103C3000100B0EF0C5FE0E21804675480BF0AEFE4F
:103C4000316874480CF068FA72480CF015FA1421C7
:103C500071480BF0A3FE31696E480CF05DFA6D48B7
:103C60000CF00AFA0D216D480BF098FE7168694856
:103C70000CF052FA67480CF0FFF9132168480BF07A
:103C80008DFEE16B63480CF047FA62480CF0F4F9E2
:103C9000112164480BF082FEE16C5E480CF03CFAA6
:103CA0005C480CF0E9F912215F480BF077FED4F87C
:103CB000A0000EF081FB41EC100B022155480CF0E6
:103CC00033FA54480CF0D8F9112158480BF066FE2D
:103CD000F06B0EF071FB41EC100B02214D480CF023
:103CE00023FA4C480CF0C8F9152151480BF056FE48
:103CF000D4F8A8000EF060FB41EC100B02214548FF
:103D00000CF012FA43480CF0B7F9102149480BF0B7
:103D100045FE216D3F480CF0FFF93E480CF0ACF930
:103D2000122145480BF03AFE216C3A48434C0CF006
:103D3000F3F938480CF0A0F9122141480BF02EFE9F
:103D4000706C0EF039FB41EC100B022131480CF085
:103D5000EBF930480CF090F90E213A480BF01EFEBA
:103D6000F16A2C480CF0D8F92A480CF085F90D219D
:103D700035480BF013FE514626480CF0CDF9254886
:103D80000CF07AF90A2131480BF008FE414621482F
:103D90000CF0C2F91F480CF06FF90B212C480BF006
:103DA000FDFDB1681B480CF0B7F91A480CF064F936
:103DB000112128480BF0F2FD716916480CF0ACF99E
:103DC00014480CF059F90A2123480BF0E7FDF1697A
:103DD00010480CF0A1F90F480CF04EF939460420B8
:103DE0000AF0A2FA39460E200AF09EFAF36ABB42A4
:103DF00040F3A08034E000BF1013FF1F0AD7233C1C
:103E0000B015FF1F405E01000000B4436C15FF1F9A
:103E1000FC660100A407FF1F0C6701002467010076
:103E2000A4660100B8660100CC6601008C68010040
:103E3000346301004C630100606301002412FF1F22
:103E4000A0680100B4680100C46801008463010037
:103E500090630100D4680100BC6301000814FF1FD7
:103E600051466846C8F1000809F06AFF41464846D5
:103E700009F066FF349B40AA02EB830203F10C00B9
:103E800040A9134601EB80004FF0000E42F868DCB9
:103E9000022143F8649C012240F890EC1CA8CDF864
:103EA000D0E0FEF705FB1E9B9B689A0708D4BCE098
:103EB0000A200AF077FA1E9B9B689B0740F1B580A9
:103EC0000F9A5D48019B226008212B600BF066FD74
:103ED00029685A480CF020F958480CF0CDF8052113
:103EE00057480BF05BFD216854480CF015F9534816
:103EF0000CF0C2F80BF028FD0028D9DCFCF786FB9B
:103F00000028504BD4DD1B68002B40F08B800BF059
:103F1000DFFC4D494D4AC0B208705D38C0B2012384
:103F20008340102802EA0302C2D8002AC0D01CA88D
:103F3000FEF7B0F80F9A4648019B226018212B60CB
:103F40000AF0B6FCFF200AF0A9FCFF200AF0A6FC4C
:103F5000FF200AF0A3FC18213E483F4E0AF0A8FCBF
:103F6000FF200AF09BFCFF200AF098FCFF200AF0DB
:103F700095FC182139480AF09BFCFF200AF08EFCC2
:103F8000FF200AF08BFCFF200AF088FC182134483F
:103F90000AF08EFCFF200AF081FCFF200AF07EFC74
:103FA000FF200AF07BFC18212E480AF081FCFF203C
:103FB0000AF074FCFF200AF071FCFF200AF06EFC8E
:103FC00020680EF0E7F9C6E9000128680EF0E2F972
:103FD000CBE90001082118480BF0E0FC29681748DC
:103FE0000CF09AF815480CF047F8052114480BF02E
:103FF000D5FC216811480CF08FF810480CF03CF803
:10400000012104200AF090F901210E200AF08CF918
:10401000154B1C931CA8FEF713F841B0BDEC028BA6
:10402000BDE8F08F0AF088FC73E7F36A0137B7EB5D
:10403000430FFFF615AF7DE798660100A407FF1F49
:10404000547001001807FF1FBC12FF1F4100010040
:10405000E8680100046901008012FF1F2069010067
:104060003C69010058690100405E01002DE9F04FF4
:104070002DED028BC1B008EE100A41F28832052105
:104080001CA8BC4EDFEDBC8ABC4CDFF84CB3FEF77D
:104090004FF80027BA4B1C93022203210DF1380977
:1040A00068463897359709F0BBFD1422152148461C
:1040B00009F0B6FD3268336903FB02F307EE103AEC
:1040C000B8EEC77A684627EE287AFDEEC77A17EE73
:1040D000901A09F0F7FD716809F0E8FD356BD6ED2F
:1040E000146ADFEDA85AE26BE36C94ED286A01973D
:1040F000690007EE101AB8EEC77A03FB02F386EEEA
:10410000875A07EE903AC5EE256AB8EEE77AB8EE20
:10411000C88A67EE067A67EEA67A67EE887A17EEA7
:10412000900A0EF049F941EC100B0CF087FE51ECAF
:10413000100B0EF045FC824600FB05F040000EF02F
:1041400029F9F268B369904D03FB02F307EE903A48
:10415000F8EEE77ACBE9000167EEA87A4846FDEE73
:10416000E77A17EE901A09F0ADFD316A09F09EFD6D
:10417000D4ED2B7AD6ED126A0F9786EEA77AD4ED9E
:10418000117AD4ED156AF8EEE77AF8EEE66A67EE92
:10419000277A67EEA67A67EE887A17EE900A0EF015
:1041A0000BF941EC100B0CF049FE51EC100B0EF02A
:1041B00007FC0E21804675480BF0F0FB316874480F
:1041C0000BF0AAFF72480BF057FF142171480BF057
:1041D000E5FB31696E480BF09FFF6D480BF04CFF1B
:1041E0000D216D480BF0DAFB716869480BF094FF04
:1041F00067480BF041FF132168480BF0CFFBE16BE0
:1042000063480BF089FF62480BF036FF11216448C8
:104210000BF0C4FBE16C5E480BF07EFF5C480BF0DA
:104220002BFF12215F480BF0B9FBD4F8A0000EF071
:10423000C3F841EC100B022155480BF075FF5448B0
:104240000BF01AFF112158480BF0A8FB306C0EF050
:10425000B3F841EC100B02214D480BF065FF4C48C0
:104260000BF00AFF152151480BF098FBD4F8AC0075
:104270000EF0A2F841EC100B022145480BF054FF60
:1042800043480BF0F9FE102149480BF087FB616DA4
:104290003F480BF041FF3E480BF0EEFE122145482F
:1042A0000BF07CFB616C3A48434C0BF035FF38480F
:1042B0000BF0E2FE122141480BF070FBB06C0EF0E7
:1042C0007BF841EC100B022131480BF02DFF3048F8
:1042D0000BF0D2FE0E213A480BF060FB316B2C48FC
:1042E0000BF01AFF2A480BF0C7FE0D2135480BF0E2
:1042F00055FB514626480BF00FFF25480BF0BCFE3E
:104300000A2131480BF04AFB414621480BF004FFDB
:104310001F480BF0B1FE0E212C480BF03FFBF1685B
:104320001B480BF0F9FE1A480BF0A6FE1421284892
:104330000BF034FBB16916480BF0EEFE14480BF09D
:104340009BFE0D2123480BF029FB316A10480BF02E
:10435000E3FE0F480BF090FE3946042009F0E4FF1D
:104360003946162009F0E0FF336BBB4240F3A080D2
:1043700034E000BF1013FF1F0AD7233CB015FF1F06
:10438000405E01000000B4436C15FF1FFC66010095
:10439000A407FF1F0C67010024670100A466010049
:1043A000B8660100CC66010074690100C8630100B1
:1043B000E0630100F46301002412FF1F886901001B
:1043C0009C690100C468010084630100E85F01008A
:1043D000AC690100F85F01000814FF1F51466846F0
:1043E000C8F1000809F0ACFC4146484609F0A8FCB9
:1043F000349B40AA02EB830203F10C0040A9134650
:1044000001EB80004FF0000E42F868DC022143F817
:10441000649C012240F890EC1CA8CDF8D0E0FEF797
:1044200047F81E9B9B689A0708D4BCE00A2009F055
:10443000B9FF1E9B9B689B0740F1B5800F9A5D48B2
:10444000019B226008212B600BF0A8FA29685A48CA
:104450000BF062FE58480BF00FFE052157480BF099
:104460009DFA216854480BF057FE53480BF004FEA8
:104470000BF06AFA0028D9DCFCF7C8F80028504B8A
:10448000D4DD1B68002B40F08B800BF021FA4D49E6
:104490004D4AC0B208705D38C0B201238340102875
:1044A00002EA0302C2D8002AC0D01CA8FDF7F2FD20
:1044B0000F9A4648019B226018212B600AF0F8F9F8
:1044C000FF200AF0EBF9FF200AF0E8F9FF200AF0DC
:1044D000E5F918213E483F4E0AF0EAF9FF200AF0BC
:1044E000DDF9FF200AF0DAF9FF200AF0D7F91821E8
:1044F00039480AF0DDF9FF200AF0D0F9FF200AF070
:10450000CDF9FF200AF0CAF9182134480AF0D0F991
:10451000FF200AF0C3F9FF200AF0C0F9FF200AF0DB
:10452000BDF918212E480AF0C3F9FF200AF0B6F9A8
:10453000FF200AF0B3F9FF200AF0B0F920680DF06F
:1045400029FFC6E9000128680DF024FFCBE900012E
:10455000082118480BF022FA296817480BF0DCFDF7
:1045600015480BF089FD052114480BF017FA216856
:1045700011480BF0D1FD10480BF07EFD0121042005
:1045800009F0D2FE0121162009F0CEFE154B1C9336
:104590001CA8FDF755FD41B0BDEC028BBDE8F08FC6
:1045A0000AF0CAF973E7336B0137B7EB430FFFF635
:1045B00015AF7DE798660100A407FF1F5470010046
:1045C0001807FF1FBC12FF1F41000100C469010052
:1045D000E06901008012FF1FFC690100186A0100F8
:1045E000346A0100405E01002DE9F04FC1B007467A
:1045F00041F2883205211CA8DFF8C483D44CFDF7B2
:1046000097FD0025D34B1C93022203210DF138099D
:1046100068463895359509F003FB05220621484682
:1046200009F0FEFAD8F80020D8F810309FEDCA7AC9
:1046300003FB02F307EE903AF8EEE77A684667EE7E
:10464000877AFDEEE77A17EE901A09F03BFBD8F86F
:10465000041009F02BFBD4ED2A7A98ED0D7A226C28
:10466000236DD8F82400D8ED0F4A9FEDBC6AE16BAA
:1046700094ED285A0195C7EE275A02FB03F3400038
:10468000B74D06EE903AC4EE867AE36C03FB01F375
:1046900006EE100AF8EEE66AB8EEC66A66EEA56A9D
:1046A00007EE103AC6EE865AB8EEC77A06EE107AD2
:1046B00027EE057AB8EEC66A67EE277ABDEEE57A90
:1046C00067EE867A16EE900AFDEEE77A17EE10BADC
:1046D00017EE906A0DF070FEA24BD8F808209FEDFF
:1046E0009E7AC3E90001D8F8143003FB02F307EE09
:1046F000903AF8EEE77A012F67EE877A4846FDEEAA
:10470000E77A08BFCBF1000B17EE901A09F0DAFA3E
:10471000D8F81C1009F0CAFA00270D2192480F970B
:104720000BF03CF9D8F8241090480BF0F5FC8F48BA
:104730000BF0A2FC1B218E480BF030F98B480BF0DC
:104740009BFC0E218B480BF029F9D8F80010874804
:104750000BF0E2FC85480BF08FFC142186480BF02F
:104760001DF9D8F8101081480BF0D6FC7F480BF0EB
:1047700083FC0D2181480BF011F9D8F804107B4817
:104780000BF0CAFC79480BF077FC18217C480BF041
:1047900005F976480BF070FC13217A480BF0FEF80F
:1047A000E16B72480BF0B8FC70480BF065FC11210E
:1047B00075480BF0F3F8E16C6C480BF0ADFC6B48FE
:1047C0000BF05AFC122171480BF0E8F8D4F8A00065
:1047D0000DF0F2FD41EC100B022164480BF0A4FC3B
:1047E00062480BF049FC112169480BF0D7F8D8F862
:1047F0003C000DF0E1FD41EC100B02215B480BF099
:1048000093FC5A480BF038FC0D2162480BF0C6F8B7
:10481000314656480BF080FC54480BF02DFC182113
:1048200057480BF0BBF851480BF026FC0B215A48B7
:104830000BF0B4F8D8F808104C480BF06DFC4B485E
:104840000BF01AFC112155480BF0A8F8D8F81410F9
:1048500046480BF061FC45480BF00EFC0A2150481D
:104860000BF09CF8D8F81C1040480BF055FC3F4862
:104870000BF002FC1B214B480BF090F83B480BF06F
:10488000FBFB152148480BF089F8D4F8A8000DF07F
:1048900093FD41EC100B022134480BF045FC3348EA
:1048A0000BF0EAFB102141480BF078F8216D2F48FE
:1048B0000BF032FC2D480BF0DFFB12213C480BF0D3
:1048C0006DF8216C29483B4C0BF026FC27480BF077
:1048D000D3FB102138480BF061F8D8F834000DF004
:1048E0006BFD41EC100B022120480BF01DFC1F4812
:1048F0000BF0C2FB0A2131480BF050F859461B4817
:104900000BF00AFC19480BF0B7FB1B2125480BF0F4
:1049100045F816480BF0B0FB3946042009F004FDB9
:1049200039460E2009F000FDD8F82430BB4240F390
:10493000A28076423146684609F002FA5946484656
:1049400009F0FEF9349BDFF87CA003F10C013BE099
:10495000B015FF1F405E01000AD7233C0000B4439E
:104960002412FF1F8012FF1F506A0100A407FF1FBF
:10497000606A0100FC6601000C6701002467010009
:104980007C6A0100A4660100B8660100CC660100E3
:104990008C680100C468010090630100D4680100C4
:1049A000BC630100206F0100346301004C6301000F
:1049B000606301006C15FF1F986A010084630100A9
:1049C0001013FF1F1807FF1F40A840AA02EB830225
:1049D00000EB8101002042F868DC42F8649C3490CE
:1049E00041F8900C01221CA80221FDF761FD0A206C
:1049F00009F0D8FC1E9B63489B689B074FF0080199
:104A000040F1B4800F9A019B2A6023600AF0C6FF30
:104A100021685D480BF080FB5B480BF02DFB052106
:104A20005A480AF0BBFF296857480BF075FB5648F7
:104A30000BF022FB0AF088FF0028DBDCFBF7E6FD29
:104A40000028D7DDDAF80030002B40F097800AF01C
:104A50003FFF4F4B4F49C0B21870A0F15D03DBB26E
:104A600001229A40102B01EA0201C3D80029C1D0CB
:104A70001CA8FDF70FFB0F9A4748019B2A601B21DA
:104A8000236009F015FFFF2009F008FFFF2009F05F
:104A900005FFFF2009F002FF17214048404E09F0B2
:104AA00007FFFF2009F0FAFEFF2009F0F7FEFF20C4
:104AB00009F0F4FE17213B4809F0FAFEFF2009F047
:104AC000EDFEFF2009F0EAFEFF2009F0E7FE1721C6
:104AD000354809F0EDFEFF2009F0E0FEFF2009F067
:104AE000DDFEFF2009F0DAFE1721304809F0E0FE74
:104AF000FF2009F0D3FEFF2009F0D0FEFF2009F0CF
:104B0000CDFE0F9A1F48019B2A60082123600AF0FE
:104B100045FF21681C480BF0FFFA1B480BF0ACFA6C
:104B200005211A480AF03AFF296817480BF0F4FAF1
:104B300015480BF0A1FA28680DF02CFC1C4BC3E9BA
:104B4000000120680DF026FCC6E9000101210420C7
:104B500009F0EAFB01210E2009F0E6FB154B1C933E
:104B60001CA8FDF76DFA41B0BDE8F08FD8F82430ED
:104B70000137B7EB430FFFF6DCAE7CE709F0DCFE54
:104B800067E700BF98660100A407FF1F547001008B
:104B9000BC12FF1F41000100AC6A0100C86A01009D
:104BA0000814FF1FE06A0100F86A0100106B0100A1
:104BB0008012FF1F405E01002DE9F04F2DED028BAA
:104BC000C1B008EE100A41F2883205211CA8CC4D74
:104BD000DFEDCC8ADFF88883DFF888A3FDF7A8FA39
:104BE0000024C94B1C93022203210EAE6846389460
:104BF000359409F015F814221521304609F010F803
:104C00002A682B6903FB02F307EE103AB8EEC77A65
:104C1000684627EE287AFDEEC77A17EE901A09F05B
:104C200051F8696809F042F898ED2B7AD5ED0E6AD3
:104C3000D8F85470D8F84420A96AD5ED104ADFEDB1
:104C4000B35AD8F83C00D8F84C3098ED285A019463
:104C5000C6EE877A02FB07F2490003FB00F306EE7B
:104C6000902A06EE101AF8EEE66AB8EEC66A66EE0C
:104C7000A76AC4EEA57AC6EE865A07EE103AB8EED9
:104C8000C77AB8EEC86A27EE057A65EE865A67EEEF
:104C9000277ABDEEE57A67EE867A16EE900AFDEE8B
:104CA000E77A17EE109A17EE907A0DF085FBEA6816
:104CB000AB6903FB02F307EE903AF8EEE77A944B08
:104CC00067EEA87AC3E90001FDEEE77A304617EEF9
:104CD000901A08F0F7FF296A08F0E8FF0E218D48C6
:104CE0000F940AF05BFE29688B480BF015FA8A488E
:104CF0000BF0C2F9142189480AF050FE2969864850
:104D00000BF00AFA84480BF0B7F90D2184480AF039
:104D100045FE696880480BF0FFF97F480BF0ACF95D
:104D2000132180480AF03AFED8F83C107A480BF07C
:104D3000F3F979480BF0A0F911217B480AF02EFE17
:104D4000D8F84C1074480BF0E7F973480BF094F95D
:104D5000122176480AF022FED8F8A0000DF02CFBB4
:104D600041EC100B02216C480BF0DEF96A480BF0A5
:104D700083F911216E480AF011FE286C0DF01CFB1E
:104D800041EC100B022164480BF0CEF962480BF0A5
:104D900073F9152167480AF001FED8F8AC000DF050
:104DA0000BFB41EC100B02215B480BF0BDF95A489C
:104DB0000BF062F9102160480AF0F0FDD8F85410A9
:104DC00055480BF0A9F954480BF056F912215B48ED
:104DD0000AF0E4FDD8F844104F48DFF88C810BF05E
:104DE0009BF94D480BF048F9102155480AF0D6FDC3
:104DF000A86B0DF0E1FA41EC100B022146480BF0D4
:104E000093F945480BF038F90D214E480AF0C6FDDC
:104E1000A96A41480BF080F93F480BF02DF90D21AC
:104E200049480AF0BBFD39463B480BF075F93A4852
:104E30000BF022F90A2145480AF0B0FD49463648F0
:104E40000BF06AF934480BF017F90B2140480AF0CF
:104E5000A5FDE96830480BF05FF92F480BF00CF91D
:104E600011213C480AF09AFDA9692B480BF054F92E
:104E700029480BF001F90A2137480AF08FFD296A09
:104E800025480BF049F924480BF0F6F82146042098
:104E900009F04AFA2146162009F046FAAB6AA34205
:104EA00040F3A3807F423946684608F049FF4946EF
:104EB000304608F045FF349BDFF8B0B003F10C0139
:104EC00040A840AA02EB830200EB8101002042F8D7
:104ED00068DC42F8646C349041F8900C01221CA804
:104EE0000221FDF7E5FA0A2009F05CFA1E9B1B4837
:104EF0009B689B074FF0080140F1FC8038E000BF41
:104F00001013FF1F0AD7233C405E01000000B4438A
:104F10008012FF1FFC660100A407FF1F0C67010041
:104F200024670100A4660100B8660100CC66010098
:104F300074690100C8630100E0630100F4630100CB
:104F4000286B01003C6B0100C46801008463010010
:104F500090630100D4680100BC6301009866010001
:104F6000B015FF1F2412FF1F6C15FF1F1807FF1F2E
:104F70000F9A019BCAF80020C8F800300AF00EFD15
:104F8000D8F8001060480BF0C7F85F480BF074F8D1
:104F900005215E480AF002FDDAF800105A480BF0CD
:104FA000BBF859480BF068F80AF0CEFC00289DDCED
:104FB000FBF72CFB002899DDDBF80030002B40F0DC
:104FC000A0800AF085FC524B5249C0B21870A0F183
:104FD0005D03DBB201229A40102B01EA020185D861
:104FE000002983D01CA8FDF755F80F9A4A48019B69
:104FF000CAF800201B21C8F8003009F059FCFF2036
:1050000009F04CFCFF2009F049FCFF2009F046FCA8
:1050100017214248424C09F04BFCFF2009F03EFCAE
:10502000FF2009F03BFCFF2009F038FC17213D4828
:1050300009F03EFCFF2009F031FCFF2009F02EFCB6
:10504000FF2009F02BFC1721374809F031FCFF2025
:1050500009F024FCFF2009F021FCFF2009F01EFCD0
:105060001721324809F024FCFF2009F017FCFF202B
:1050700009F014FCFF2009F011FC0F9A2C48019B49
:10508000CAF800200821C8F800300AF087FCD8F8D8
:1050900000101D480BF040F81B480AF0EDFF0521F9
:1050A0001A480AF07BFCDAF8001017480BF034F8C5
:1050B00015480AF0E1FFDAF800000DF06BF91D4B1E
:1050C000C3E90001D8F800000DF064F9C4E900015B
:1050D0000121042009F028F90121162009F024F902
:1050E000154B1C931CA8FCF7ABFF41B0BDEC028B29
:1050F000BDE8F08FAB6A0134B4EB430FFFF6D2AEDC
:1051000073E709F019FC5EE7A407FF1F5470010064
:10511000BC12FF1F410001004C6B0100686B0100D5
:105120000814FF1F806B0100986B0100B06B010039
:10513000986601008012FF1F405E01002DE9F04FCC
:10514000914F924B7968924DD7F800A01A682E685B
:1051500096FBF2F301F1004BCFB05946044650469E
:1051600002FB13690DF02CFC41F2883283460521C5
:105170002AA8FCF7DDFF4FF00008864B2A93022295
:1051800003216846CDF81881CDF80C8108F048FD60
:10519000052206210EA8DFF830A27F4E08F040FD60
:1051A000142215211CA808F03BFD0F20CDF8048027
:1051B000C5F80080CDF87480C6F80080CDF83C803A
:1051C00009F0F0F8DAF8DC106846C9F1000908F0D7
:1051D00079FDDAF8E01008F069FD494608F0B0FD05
:1051E000DAF8E4100EA808F06DFDDAF8E81008F01F
:1051F0005DFD594608F08AFDDAF8E4101CA808F0B5
:1052000061FDDAF8E81008F051FD594608F07EFD1E
:105210001D2162480AF0C2FB61480AF02DFF1021EF
:1052200060480AF0BBFB49465D480AF075FF5C48E0
:105230000AF022FF0D215C480AF0B0FB594658489D
:105240000AF06AFF56480AF017FF0420414609F0A9
:105250006BF8142009F0A6F8032C45D8DFE814F009
:1052600064014501640145011D9B33600B214F48DA
:105270000AF094FB21464A480AF04EFF48480AF0DB
:10528000FBFE019B4A482B6009210AF087FB296835
:1052900043480AF041FF42480AF0EEFE0621454825
:1052A0000AF07CFB31683E480AF036FF3C480AF0C1
:1052B000E3FE0AF049FB00282EDD3F4B1B6843BB91
:1052C0000AF006FBC0B2A0F15D033C4ADBB2102B32
:1052D000107006D84FF00109394A09FA03F31A4051
:1052E000FAB90A2009F05EF82C9B9B689B072BD526
:1052F000032CBBD801A353F824F000BF0D530000CA
:10530000695200000D530000695200000F9B33608A
:10531000ACE709F011FBD5E7FBF778F90028E0DBF3
:10532000CBE72AA8FCF7B6FE4946042008F0FCFFAC
:1053300049460E2008F0F8FF4946162008F0F4FF11
:1053400000231D930F93CCE7019B2B60032C07D800
:10535000DFE814F0FE000400FE0004001D9B336033
:10536000184B1B68033B0B2B00F29580DFE813F012
:105370002603AA03F30043019300930100023602BF
:105380006C02A202D6022E008012FF1FA016FF1F81
:105390006C15FF1F405E01002412FF1FC86B010047
:1053A000A407FF1FE86B0100FC6B01000C6C0100FF
:1053B000186C0100246C01001807FF1FBC12FF1FAE
:1053C000410001002C07FF1FB015FF1FD049D14835
:1053D000FBF796FAFF2009F061FAFF2009F05EFA68
:1053E000FF2009F05BFACA49CA48FBF789FAFF2097
:1053F00009F054FAFF2009F051FAFF2009F04EFAA3
:10540000C549C448FBF77CFAFF2009F047FAFF20A2
:1054100009F044FAFF2009F041FAC049BD48FBF702
:105420006FFAFF2009F03AFAFF2009F037FAFF205F
:1054300009F034FABA49B748FBF762FA222009F0BA
:105440002DFA2968B3480AF067FE222009F026FAEF
:10545000FF2009F023FAFF2009F020FAFF2009F0CD
:105460001DFA0A2008F09EFFAE49AA48FBF748FA49
:10547000222009F013FA3168A6480AF04DFE2220D6
:1054800009F00CFAFF2009F009FAFF2009F006FAEA
:10549000FF2009F003FAA44A00234FF0000A4FF05E
:1054A000000B01210420019333601D932B600F93A7
:1054B000C2E900ABC7E900AB08F036FF01210E20BE
:1054C00008F032FF0121162008F02EFF1B2197481B
:1054D0000AF064FA96480AF0CFFD964B2A932AA860
:1054E000FCF7AEFD4FB0BDE8F08F0021162008F0AC
:1054F0001BFF429B4EAA03F10C0002EB83024EA954
:1055000001EB80001CA9134642F8681C4FF0000E06
:1055100043F864DC012240F890EC02212AA8CDF87F
:1055200008E1FCF7C5FFDFE600210E2008F0FCFED5
:10553000429B4EAA03F10C0002EB83024EA901EB41
:1055400080000EA913464FF0000E42F8681CDFE7FA
:105550000F9B336004E778496E48FBF7D1F9FF20D1
:1055600009F09CF9FF2009F099F9FF2009F096F95C
:1055700071496848FBF7C4F9FF2009F08FF9FF2053
:1055800009F08CF9FF2009F089F96C496148FBF7B3
:10559000B7F9FF2009F082F9FF2009F07FF9FF2019
:1055A00009F07CF966495B48FBF7AAF9FF2009F08E
:1055B00075F9FF2009F072F9FF2009F06FF96149D0
:1055C0005448FBF79DF9222009F068F929685148F1
:1055D0000AF0A2FD222009F061F9FF2009F05EF92E
:1055E000FF2009F05BF9FF2009F058F90A2008F0C4
:1055F000D9FE554939E755494648FBF781F9FF205F
:1056000009F04CF9FF2009F049F9FF2009F046F9AB
:105610004E494048FBF774F9FF2009F03FF9FF209D
:1056200009F03CF9FF2009F039F949493948FBF7FD
:1056300067F9FF2009F032F9FF2009F02FF9FF2068
:1056400009F02CF943493348FBF75AF9FF2009F0D8
:1056500025F9FF2009F022F9FF2009F01FF93E4942
:105660002C48FBF74DF9222009F018F92968294840
:105670000AF052FD222009F011F9FF2009F00EF97D
:10568000FF2009F00BF9FF2009F008F90A2008F0C3
:1056900089FE3249E9E632491E48FBF731F9FF201D
:1056A00009F0FCF8FF2009F0F9F8FF2009F0F6F8FE
:1056B0002B491848FBF724F9FF2009F0EFF8FF20E9
:1056C00009F0ECF8FF2009F0E9F826491148FBF74A
:1056D00017F9FF2009F0E2F8FF2009F0DFF8FF20BA
:1056E00009F0DCF820490B48FBF70AF9FF2009F024
:1056F000D5F8FF2009F0D2F8FF2009F0CFF81B49B8
:105700000448FBF7FDF8222009F0C8F82968B3E641
:10571000346A01008407FF1FE0690100806D010009
:105720009C6D0100B46D01000814FF1F9C6E010008
:10573000A407FF1F405E0100106B0100C86A010052
:10574000A46C0100BC6C0100D46C0100586901001C
:1057500004690100EC6C0100086D0100206D01007E
:105760001C660100D4650100CC6D0100E46D0100F0
:10577000BA49BB48FBF7C4F8FF2009F08FF8FF20B7
:1057800009F08CF8FF2009F089F8B449B448FBF718
:10579000B7F8FF2009F082F8FF2009F07FF8FF201A
:1057A00009F07CF8AF49AE48FBF7AAF8FF2009F0F2
:1057B00075F8FF2009F072F8FF2009F06FF8AA4988
:1057C000A748FBF79DF8FF2009F068F8FF2009F0D3
:1057D00065F8FF2009F062F8A44991E7A449A048C0
:1057E000FBF78EF8FF2009F059F8FF2009F056F872
:1057F000FF2009F053F89E499948FBF781F8FF20F4
:1058000009F04CF8FF2009F049F8FF2009F046F8AC
:1058100098499348FBF774F8FF2009F03FF8FF2000
:1058200009F03CF8FF2009F039F893498C48FBF760
:1058300067F8FF2009F032F8FF2009F02FF8FF2069
:1058400009F02CF88D4910E68D498548FBF758F88A
:10585000FF2009F023F8FF2009F020F8FF2009F0CD
:105860001DF887497E48FBF74BF8FF2009F016F832
:10587000FF2009F013F8FF2009F010F8814978485B
:10588000FBF73EF8FF2009F009F8FF2009F006F8C1
:10589000FF2009F003F87C497148FBF731F8FF203D
:1058A00008F0FCFFFF2008F0F9FFFF2008F0F6FFEA
:1058B0007649DAE576496A48FBF722F8FF2008F0D6
:1058C000EDFFFF2008F0EAFFFF2008F0E7FF32209D
:1058D00008F068FD6E496248FBF712F8FF2008F0F7
:1058E000DDFFFF2008F0DAFFFF2008F0D7FF3220AD
:1058F00008F058FD67495A48FBF702F8FF2008F006
:10590000CDFFFF2008F0CAFFFF2008F0C7FF3220BC
:1059100008F048FD604B00221A60BCE55F49504822
:10592000FAF7EEFFFF2008F0B9FFFF2008F0B6FFFE
:10593000FF2008F0B3FF59494948FAF7E1FFFF207B
:1059400008F0ACFFFF2008F0A9FFFF2008F0A6FF39
:1059500053494348FAF7D4FFFF2008F09FFFFF2088
:1059600008F09CFFFF2008F099FF4E493C48FAF7E9
:10597000C7FFFF2008F092FFFF2008F08FFFFF20F5
:1059800008F08CFF48493648FAF7BAFF222008F0A1
:1059900085FF296832480AF0BFFB222008F07EFF0D
:1059A000FF2008F07BFFFF2008F078FFFF2008F0C1
:1059B00075FF0A2008F0F6FC3C4956E53C492848AA
:1059C000FAF79EFFFF2008F069FFFF2008F066FF4E
:1059D000FF2008F063FF36492148FAF791FFFF20C6
:1059E00008F05CFFFF2008F059FFFF2008F056FF89
:1059F00030491B48FAF784FFFF2008F04FFFFF20D3
:105A000008F04CFFFF2008F049FF2B491448FAF733
:105A100077FFFF2008F042FFFF2008F03FFFFF2044
:105A200008F03CFF25490E48FAF76AFF222008F0EB
:105A300035FF29680A480AF06FFB222008F02EFF84
:105A4000FF2008F02BFFFF2008F028FFFF2008F0C0
:105A500025FF0A2008F0A6FC194906E5A06501000B
:105A60008407FF1F58650100F86D0100106E0100EA
:105A7000706401005C640100246E0100386E010056
:105A8000EC640100D86401004C6E0100606E0100FE
:105A9000746E0100886E0100E414FF1FB06B0100FA
:105AA000686B0100386D0100506D0100686D0100E8
:105AB0006C680100306801002C6C0100406C010032
:105AC000546C010027492848FAF71AFFFF2008F014
:105AD000E5FEFF2008F0E2FEFF2008F0DFFE21498E
