:10000000F8FF022099010000B9B5010071B50100A7
:1000100071B5010071B5010071B5010071B5010044
:1000200071B5010071B5010071B50100B9B50100EC
:10003000B9B5010071B501008DDF010091E001004B
:10004000B9B50100B9B50100B9B50100B9B50100F4
:10005000B9B50100B9B50100B9B50100B9B50100E4
:10006000B9B50100B9B50100B9B50100B9B50100D4
:10007000B9B50100B9B50100B9B50100B9B50100C4
:10008000B9B50100B9B50100B9B50100B9B50100B4
:10009000B9B50100B9B50100B9B50100B9B50100A4
:1000A000B9B50100B9B50100B9B50100B9B5010094
:1000B000B9B50100B9B50100B9B5010015C001001D
:1000C000B9B5010085C70100B9B5010019CD01001E
:1000D000B9B5010011EE0100B9B50100B9B50100D3
:1000E000B9B50100B9B50100DDAD0100B9B5010038
:1000F000B9B50100B9B50100B9B50100B9B5010044
:1001000001E5010015E5010029E501003DE50100DB
:10011000B9B50100A5CF0100B9B50100B9B501001D
:10012000B9B50100B9B50100B9B50100B9B5010013
:10013000B9B50100B9B50100B9B50100B9B5010003
:10014000B9B50100B9B5010009EF0100B9B5010069
:1001500001F00100B9B50100B9B50100B9B5010060
:10016000B9B50100B9B50100B9B50100B9B50100D3
:10017000B9B50100B9B50100B9B50100B9B50100C3
:10018000B9B50100B9B50100B9B50100B9B50100B3
:10019000B9B50100B9B50100584B4CF2205210B569
:1001A0001A804DF628121A8000BF00BF1BF008FA13
:1001B000534B4FF030621A60524A9A60524ADA60EA
:1001C000524B4FF470021A60514A136813F4807353
:1001D00004D150490B604FF4A85313604E4B1A786A
:1001E000110703D51A7842F008021A704B4B4C499C
:1001F0002A221A704B4A4C4B8B4204D252F8040FFD
:1002000043F8040BF8E7494B494900228B4202D2DC
:1002100043F8042BFAE74749474A002352F82300E2
:1002200041F823000133662BF8D1444B444A802126
:1002300003F8011B9342FBD1424B3E4A1A60424BEA
:100240008A221A70A3F5805324225A70A0221A70B1
:100250009A799207FCD59A79D406FCD43B4A9379D3
:1002600003F00C03082B394BF9D103221A714622F3
:100270005A719A799006FCD5344A9179334B4906E4
:10028000FBD5334A4FF08271116009215160202261
:100290001A709A7902F00C020C2AFAD12D4B2E4AD0
:1002A0001A602E4B2E4A1A6000225A60072243F829
:1002B000042C2C4AC3F80C2D62B61BF09BFA154B8C
:1002C0001B68DA0705D528481BF01AFA274B284A7D
:1002D0001A60284B1B785B0609D5244C244B2268F6
:1002E0009A4204D120481BF00BFA0023236021F02E
:1002F00079F81BF06BF91EF02BF9FEE70E20054094
:1003000030800440823F04000100002B88ED00E0B3
:1003100010D0034014D0034002D0074000E0074053
:100320004812FF1F0C820200F806FF1F4812FF1F31
:10033000F41FFF1F0002FF1F0000000000E400E0A8
:1003400056E400E008ED00E00050064000400640A2
:100350004480044004800440C010050014E000E024
:10036000BFD401000000202012C45B601CE00340E9
:10037000A5C3945A00F00740FFFFFFFFFFFFFFFFF8
:10038000FFFFFFFFFFFFFFFFFFFFFFFFFFFFFFFF7D
:10039000FFFFFFFFFFFFFFFFFFFFFFFFFFFFFFFF6D
:1003A000FFFFFFFFFFFFFFFFFFFFFFFFFFFFFFFF5D
:1003B000FFFFFFFFFFFFFFFFFFFFFFFFFFFFFFFF4D
:1003C000FFFFFFFFFFFFFFFFFFFFFFFFFFFFFFFF3D
:1003D000FFFFFFFFFFFFFFFFFFFFFFFFFFFFFFFF2D
:1003E000FFFFFFFFFFFFFFFFFFFFFFFFFFFFFFFF1D
:1003F000FFFFFFFFFFFFFFFFFFFFFFFFFFFFFFFF0D
:10040000FFFFFFFFFFFFFFFFFFFFFFFFDEF9FFFF23
:1004100010B5054C237833B9044B13B10448AFF33E
:1004200000800123237010BD4812FF1F0000000050
:1004300008820200084B10B51BB108490848AFF309
:1004400000800848036803B910BD074B002BFBD0A0
:10045000BDE81040184700BF000000004C12FF1F0D
:10046000088202004812FF1F0000000000690B69AB
:100470009842D4BF00200120704700BF80698B697B
:100480000028B8BF4042002BB8BF5B429842D4BF9F
:1004900000200120704700BFF0B586460120DEF83D
:1004A0005870DEF83030BA6A106079683A680A44E9
:1004B0007A600EF1300493B15A69002A08DB9A6A17
:1004C00010605E6819683D695A6931445960521B71
:1004D00019690A445A6154F8043F002BECD1DEF844
:1004E0002430144ADEF81840DEF86C000021116058
:1004F000DB00516803F1804303F5603321440D2490
:1005000019611460DA68502122F08002DA60D96043
:1005100000B1F0BD7A68FB689A4200D0F0BDDEF809
:100520005C3001228EF82820002BF7D0BDE8F04087
:10053000184700BF00800340C36A00F12C0233B1AA
:100540000120D96A52F8043F0860002BF9D17047A6
:100550000C4BD3F8902072B9596A1A6AD3ED0A7A13
:1005600002FB01F207EE102A60EE277AB8EE477A16
:1005700087EE870A7047D3F89810D3F89420D3ED0C
:10058000277AEDE7DC17FF1F836D012280F89020AA
:100590005B6872B6DFED0B6AD0ED207A90ED1F7AC2
:1005A00067EEA67AF4EEC77AC0ED1E7AD0ED227A15
:1005B000F1EE10FAD8BFF1EE677AC0ED237A62B699
:1005C000704700BF00000000036A8B4210B523D0C3
:1005D000C369994200D010BD8369002BFBD072B66D
:1005E000194AC369846900211160DB00516803F175
:1005F000804303F5603321440D2419611460DA68E7
:10060000502122F08002DA60D96062B60069036886
:10061000BDE810405B6818470446006903689B68A2
:10062000984794F82430002BD5D004F108001DF031
:1006300045FF0023E06963601AF0B8FB206ABDE85B
:1006400010401AF0B3BB00BF008003402DE9F04119
:100650008568002D31D0816D836F04464868D4F8D9
:10066000AC101B1A002BB8BF5B428B423ADBD4F8AC
:10067000B0108B422A4608DBE16F8B4265DB936842
:1006800023F002039360BDE8F081D4F888100029BC
:10069000F5D02B683B4A93421ED96A683A48B0FBB2
:1006A000F1F19B1A99420AD3CB1A002401200322AC
:1006B000AC60E8602B60AA602960BDE8F0816069E9
:1006C0000368002601240322AE601B68EC602960E9
:1006D000AA60BDE8F04118472B4BB3FBF1F129604C
:1006E000BDE8F081D4E92401D4F8A82002FB03F38B
:1006F000C61841F100073046394620F05BFC07EE92
:10070000900AB1EEE70AB4EE400AF1EE10FA2ED1EB
:10071000FDEEC07A2A4617EE903A17EE901ADBB13A
:10072000002DB6D11949184D0E68B5FBF3F51EB171
:1007300002210120B047A26800200121032390601C
:10074000D16015609360BDE8F081CB1AD4F8A82081
:10075000D4E92601013BC9E7002D90D10B4B1B6862
:10076000002B8CD0022101209847A26887E73946E8
:10077000304620F01FFC00EE100A1EF051FEA56866
:10078000C6E700BF7FA90300008793034C1BFF1F30
:10079000F8B50446D0ED1F7A94ED1E7A806DF4EE24
:1007A000477AF1EE10FA436838D1FDEEC77A17EEBA
:1007B000905A94F890300BB1002D76D08368AB42FC
:1007C0002BD0002D0368B4BF4FF0FF3201229A42B4
:1007D00015D004F12801012608E013685B42012BC3
:1007E00013600BBF126B536B13601E6051F8042F24
:1007F000002AF2D1636F03EB8303DB003FD185EA6C
:10080000E572A2EBE572A368FAB9002B7AD09A6878
:1008100022F002029A608560F8BDF8BDD4ED236A2B
:10082000F5EEC06A77EEA67AF1EE10FAB4EEE77A4A
:100830002FDDF1EE10FAD8BFF0EE477ABDEEE77A81
:10084000C4ED1F7A17EE105AB3E7002B47D0196892
:10085000314EB14223D95E68304FB7FBF2F2891BAB
:100860008A4232D26069002601689E600127032611
:10087000DF6009681A609E608847A06DCBE7013B86
:10088000FDD185EAE572A2EBE572A368002ABCD02F
:10089000DBE7F1EE10FA58BFF0EE477ACEE71F49DA
:1008A000B1FBF2F21A608560F8BD04F10C001DF096
:1008B00005FE206AA5601AF079FA606A1AF076FAE5
:1008C000A36D9D6084F89050F8BD511A0027012651
:1008D00003249F60DE6019609C601A609BE71049EA
:1008E0000E4E0F68B6FBF2F627B101200221B84781
:1008F000A368A06D0024012103229C60D9601E60C2
:100900009A6088E7064B1B68002B80D001200221EB
:100910009847A368A06D7AE77FA903000087930337
:100920004C1BFF1F70B5044608460D4621F0E8FD3C
:1009300023680246294620465B68BDE87040184798
:1009400038B5044608460D4621F0DAFD2368024614
:1009500029465B6820469847054620461DF040FE24
:10096000284438BD38B505461DF08AFE04462846A1
:100970001DF036FE204438BD38B505461DF080FE1A
:10098000044628461DF02CFE204438BD38B50A2206
:10099000002305461DF034FE044628461DF020FEC7
:1009A000204438BD38B5C9B205461DF071FE044675
:1009B00028461DF015FE204438BD00BF10B50921A2
:1009C0002C481DF07DF92C481DF00AFEFE212B4815
:1009D00017F0E8FF00282FD10A21284817F0E2FF7E
:1009E00098B91821254817F0DDFF00283AD10F21CA
:1009F000224817F0D7FF50BB09212048204C17F0A0
:100A0000D1FF002832D1206009E01D4C1D480A2387
:100A1000194623601DF054F917481DF0E1FD0C2123
:100A200019481DF04DF9216813481DF029FE1248A0
:100A3000BDE810401DF0D4BD114C1448012309211C
:100A400023601DF03DF90C481DF0CAFDE7E70C4C92
:100A50000F480F230A2123601DF032F906481DF0CC
:100A6000BFFDDCE7064C0B481823F3E70A480923CF
:100A7000CEE700BFC84B0200E407FF1FD018FF1FDE
:100A80009C16FF1FE04B0200104C0200D44B0200EA
:100A9000F84B0200EC4B0200044C020010B584B08D
:100AA000C9B9344A344B11680191019C1968136823
:100AB0000093009B1B1B9942F9D8032809D8DFE853
:100AC00000F02E3602262D4B112093F877101AF0E5
:100AD00029FE04B010BD03280BD8DFE800F0023077
:100AE0003942264B93F875100E2081F001011AF05F
:100AF00019FE204A204B1168039103981968136866
:100B00000293029B1B1A9942F9D804B010BD1B4BEB
:100B1000042093F874101AF005FE04B010BD174BB2
:100B20000E2093F875101AF0FDFD04B010BD134BA4
:100B3000162093F876101AF0F5FD04B010BD0F4B97
:100B400093F87610162081F001011AF0EBFDD0E742
:100B50000A4B93F87710112081F001011AF0E2FDA1
:100B6000C7E7064B93F87410042081F001011AF0D6
:100B7000D9FDBEE7841BFF1F2007FF1FDC17FF1FE7
:100B8000F0B52DED028B85B0044601AE0DF10F07D7
:100B90000FE0FF2D58D001A8357021F0B1FC0146BF
:100BA00001A81DF08DF82C481DF01AFD0136BE423B
:100BB00029D0236820465B6998470021C5B22748A1
:100BC0001DF07EF824481DF00BFD332124481DF054
:100BD00077F828461DF0F8F8022122481DF070F839
:100BE00029461D481DF04CFD1B481DF0F9FC042D45
:100BF000CFD119211C481DF063F8013616481DF0AD
:100C0000EFFCBE42D5D101A820F0DCFB072117483C
:100C1000B0EE408AF0EE608A1DF052F8B0EE480A5D
:100C2000F0EE680A04210C481DF032FD0A481DF060
:100C3000D7FCB0EE480AF0EE680A05B0BDEC028BB6
:100C4000F0BD23685B699847236820461B69984775
:100C500000282046F5DCA9E7E407FF1FB463020083
:100C6000204C0200544C0200584C0200744C02000C
:100C700003280FD8DFE800F00B0805020A48FFF749
:100C80007FBF0A48FFF77CBF0948FFF779BF0948D3
:100C9000FFF776BF9FED020B704700BFAFF30080F8
:100CA000000000000000F0BFC407FF1FB407FF1FD3
:100CB000A407FF1FE407FF1F012828D0022813D034
:100CC00010B19FED140A7047134A1169D368D2ED31
:100CD000056A03FB01F307EE103A60EE267AB8EEE0
:100CE000477A87EE870A70470B4B5A6B012AE8D880
:100CF000D96B9A6BD3ED116A02FB01F207EE102A51
:100D000060EE267AB8EE477A87EE870A7047FFF7DB
:100D10001FBC00BF00000000DC17FF1F38B5434DAB
:100D20004348EA6BAB6B95ED107AD5ED127A414CE6
:100D300003FB02F32DED048B08EE103AB8EE488A5F
:100D4000DFED3D8A28EE078A0D2167EEA88AF0EED6
:100D5000409A1CF0B5FF18EE100A1FF0BFFC41ECE2
:100D6000100B022120461DF093FC20461DF038FC9C
:100D7000112132481CF0A4FF286C1FF0AFFC41EC9D
:100D8000100B022120461DF083FC20461DF028FC9C
:100D90000F212B481CF094FF89EEA89A18EE900AB8
:100DA0001FF09CFC41EC100B022120461DF070FC52
:100DB00020461DF015FC102122481CF081FF19EE81
:100DC000900A1FF08BFC41EC100B022120461DF015
:100DD0005FFC20461DF004FC07211B481CF070FF3F
:100DE00019EE100A1FF07AFC41EC100B022120468C
:100DF0001DF04EFC28EE098A20461DF0F1FB08216B
:100E000012481CF05DFF18EE100A1FF067FC41EC61
:100E1000100B022120461DF03BFC20461DF0E0FB9C
:100E2000B0EE480ABDEC048B38BD00BFDC17FF1FD5
:100E3000AC4C0200E407FF1FDB0FC940BC4C0200B2
:100E4000D04C0200E04C0200F44C0200FC4C0200CA
:100E5000144A1548D2ED117AD16B936B80EE270AB4
:100E600010B503FB01F31921104C2DED028B08EE98
:100E7000103AB8EE488A28EE008A1CF021FF18EEDE
:100E8000100A1FF02BFC41EC100B022120461DF034
:100E9000FFFB20461DF0A4FBB0EE480ABDEC028B20
:100EA00010BD00BFDC17FF1F084D0200E407FF1F45
:100EB0000128F0EE407A1CD0022813D010B19FED2B
:100EC000160A7047154AD2ED056A1169D36887EE94
:100ED000A67A03FB01F300EE103AB8EE400A20EECA
:100EE000070A70470D4B5B6B9BB1012BE7D1FFF7F6
:100EF000AFBF0A4AD2F8903023B9D2ED0A6A516ADC
:100F0000136AE4E7D2ED276AD2F89810D2F8943049
:100F1000DDE7FFF703BF00BF00000000DC17FF1F85
:100F200038B52F4D2F4C95ED007AD4ED007AB5EE03
:100F3000C07AF1EE10FA48BFB1EE477AF5EEC07A0A
:100F400048BF85ED007AF1EE10FA44BFF1EE677A02
:100F5000C4ED007A67EEA77A2DED048BE7EE077AF1
:100F600008EE100A17EE900A08EE901A1FF0B6FB72
:100F700041EC100B1EF094F951EC100B1FF0FAFE2F
:100F800094ED006AD5ED006A07EE900A87EE867A46
:100F900087EEA69AF8EEE88AB8EEC88A67EE287A55
:100FA00017EE900A1FF09AFB41EC100B1EF0D8F8D8
:100FB00051EC100B1FF0DEFE68EE097A206017EE90
:100FC000900A1FF08BFB41EC100B1EF0C9F851EC9E
:100FD000100B1FF0CFFEBDEC048B286038BD00BFA6
:100FE000E013FF1F2C16FF1FF8B51D212DED028BFE
:100FF000914D924C924E08EE100A92481CF060FE01
:1010000091481DF0EDFA95E8090003FB00F307EEA7
:10101000903A95ED027AD4ED036A8C4A8C49F8EE49
:10102000677AB8EEC88A67EE877A002387EEA67AD9
:101030000B601360C7EE087A17EE900A1FF04EFBA4
:1010400041EC100B1EF08CF851EC100B1FF04AFE17
:1010500027683060012F00F0B98065D3022F41D09E
:101060007C4F7D4815211CF02BFE316876481DF021
:1010700007FB75481DF0B4FA242178481CF020FEC7
:10108000E0681FF02BFB41EC100B02216E481DF0B5
:10109000FFFA6D481DF0A4FA292171481CF010FEDA
:1010A000A0691FF01BFB41EC100B022166481DF0EC
:1010B000EFFA65481DF094FA14216A481CF000FE0E
:1010C000396861481DF0DCFA5F481DF089FA142187
:1010D00065481CF0F5FDBDEC028B5B48BDE8F840AF
:1010E0001DF07EBA2B21614894ED068A1CF0E8FDC4
:1010F000A0691FF0F3FA41EC100B394652481DF07D
:10110000C7FA51481DF06CFA6B6B002B00F0898018
:10111000012BA5D1B0EE480AFFF79AFE4D4FBDEE68
:10112000C00A87ED000A9CE794ED067AD5ED057AB2
:10113000484F87EE278AD5ED047A95ED037AF8EECD
:10114000677AB8EE477A67EE887A67EE877A17EEA5
:10115000900A1FF0C3FA41EC100B1EF001F851EC9D
:10116000100B1FF0BFFD1821386041481CF0A8FD8E
:10117000A0691FF0B3FA41EC100B022132481DF0B8
:1011800087FA31481DF02CFA24213A481CF098FDCA
:1011900068691FF0A3FA41EC100B02212A481DF0E8
:1011A00077FA29481DF01CFA112133481CF088FDFC
:1011B00018EE100A1FF092FA41EC100B022122489F
:1011C0001DF066FA20481DF00BFA4AE7D5F890307A
:1011D000D4ED065AF3B195ED276A95ED267AD5ED53
:1011E000257A1C4FC5EE866AB8EE477AF8EE677A24
:1011F00026EE877A67EE277A17EE900A1FF06EFACE
:1012000041EC100B1DF0ACFF51EC100B1FF06AFD10
:10121000386026E795ED0A6A95ED097AD5ED087AEA
:10122000DFE7B0EE480AFFF779FD0A4FBDEEC00ACE
:1012300087ED000A15E700BFDC17FF1FF813FF1F3B
:101240006014FF1F244D0200E407FF1F7412FF1FEC
:101250004017FF1FCC12FF1FC84D0200E04D0200D7
:10126000084E0200344E0200F87002009C4D02004D
:10127000444D0200604D0200884D02000C4B1B687B
:10128000032B13D8DFE803F00E0A060201460948D3
:101290001DF080B9014608481DF07CB90146074899
:1012A0001DF078B9014606481DF074B9704700BFBB
:1012B0001007FF1FC407FF1FB407FF1FA407FF1F6E
:1012C000E407FF1F70B584B06649674C674D6846F8
:1012D0001DF052FB00216846FFF7D0FF68461DF065
:1012E0000BFB634968461DF047FB00216846FFF78A
:1012F000C5FF68461DF000FB5E4968461DF03CFBDB
:1013000000216846FFF7BAFF68461DF0F5FA584914
:1013100068461DF031FB00216846FFF7AFFF6846C5
:101320001DF0EAFA544968461DF026FB0021684684
:10133000FFF7A4FF68461DF0DFFA4D4968461DF02F
:101340001BFB00216846FFF799FF68461DF0D4FAA1
:101350004A4968461DF010FB00216846FFF78EFFE2
:1013600068461DF0C9FA424968461DF005FB002198
:101370006846FFF783FF68461DF0BEFA404A2168C1
:101380001668536892ED027ADFED3E6A2D683E489A
:1013900003FB06F307EE903A06EE101AF8EE677AB2
:1013A000B8EEC66A67EE877A012D86EE277A374E49
:1013B00067EE267AC0ED007A4DD031D3022D0ED1E2
:1013C000D6ED007A2846B8EEE70AFFF775FC304BF9
:1013D0000021284683ED000AFFF760FB21682D4AB3
:1013E0002D4B1160002508212C481D601CF068FC65
:1013F00021682B481DF044F929481DF0F1F805211A
:1014000028481CF05DFC316825481DF039F9244856
:101410001DF0E6F829460320FFF740FB04B070BD3D
:10142000D6ED007A1169D36892ED057A184AF8EE84
:10143000E77A03FB01F327EE877A07EE903AF8EE9E
:10144000677A0021C7EE276A0846C2ED006AFFF7F7
:1014500025FB2168C3E7D6ED007AB8EEE70AFFF76F
:1014600077F8B4E74C4E02004017FF1FF813FF1F38
:10147000604E0200644E0200784E02008C4E020064
:10148000DC17FF1F0000B4433016FF1F7412FF1F4C
:101490009015FF1F6815FF1FB812FF1F9C65020003
:1014A000E407FF1F1062020010B5F0EE407A002141
:1014B000F2EE046ABDEEE77AB8EEC77AB4EE677A68
:1014C000F1EE10FA04D00131062967EEA67AF1D1C7
:1014D0001E4B1B68032B37D8DFE803F0291C0F02D3
:1014E00010EE100ACCB21FF0F9F841EC100B2146B7
:1014F0001748BDE810401DF0CBB810EE100ACCB272
:101500001FF0ECF841EC100B21461248BDE81040EA
:101510001DF0BEB810EE100ACCB21FF0DFF841EC9F
:10152000100B21460C48BDE810401DF0B1B810EE7C
:10153000100ACCB21FF0D2F841EC100B214607483C
:10154000BDE810401DF0A4B810BD00BF1007FF1F7C
:10155000C407FF1FB407FF1FA407FF1FE407FF1FF7
:10156000084B1B68032B0BD8DFE803F008060402C6
:101570001BF026BB1AF0AABF1AF03EBC1CF024BC1C
:10158000704700BF1007FF1F2DE9F041DFF85080C2
:10159000104F114E114D0446014640461CF0FAFF13
:1015A00040461DF01DF8214638461CF0F3FF384632
:1015B0001DF016F8214630461CF0ECFF30461DF0B9
:1015C0000FF8214628461CF0E5FF2846BDE8F0410B
:1015D0001DF006B8A407FF1FB407FF1FC407FF1FB5
:1015E000E407FF1F2DE9F04FB24CA3B001210D20FD
:1015F0001AF0ACF823680893089A23680793079BAE
:10160000AC4D9B1A0E2BF8D9AB4BAC491E681EA8EB
:101610001DF0B2F900211EA8FFF730FE1EA81DF034
:101620006BF90A2231461EA81DF0D8F91EA8FFF753
:10163000ABFF1EA81DF060F940F623001AF0C0F9B8
:101640000C219F481AF0E2FB03219E481AF0DEFBB2
:101650002B680693069A23680593059B954D9B1A64
:10166000312BF8D90C2196481AF0D0FB032195486C
:101670001AF0CCFB2B680493049A23680393039B12
:101680008C4D9B1A312BF8D907218F481AF0BEFBDD
:1016900003218C481AF0BAFB2B680293029A236844
:1016A0000193019B9B1A312BF9D91AF031FC0028C8
:1016B000864D0CDD01230C2185482B601CF000FBBE
:1016C000296884481CF0DCFF82481CF089FF40F642
:1016D00023001AF025FD0C2179481AF04FFF032151
:1016E00078481AF04BFF23680E930E9A23680D93E7
:1016F0000D9B704E9B1A312BF8D90C2170481AF0B3
:101700003DFF03216F481AF039FF33680C930C9AA0
:1017100023680B930B9B674E9B1A312BF8D907213B
:1017200069481AF02BFF032166481AF027FF336837
:101730000A930A9A23680993099B9B1A312BF9D9BA
:101740001AF09EFF00280CDD02230C2162482B605A
:101750001CF0B6FA29685F481CF092FF5D481CF047
:101760003FFF40F212401BF0E5F80C2154481BF0FB
:1017700031FA032153481BF02DFA23681493149A6D
:1017800023681393139B4B4E9B1A312BF8D90C21D2
:101790004B481BF01FFA03214A481BF01BFA336821
:1017A0001293129A23681193119B424E9B1A312B6C
:1017B000F8D9072144481BF00DFA032141481BF0DA
:1017C00009FA33681093109A23680F930F9B9B1AA2
:1017D000312BF9D91BF032FA00280CDD03230C2140
:1017E0003E482B601CF06CFA29683A481CF048FF10
:1017F00038481CF0F5FE0A2139483A4E1CF060FAD0
:10180000296834481CF03CFF32481CF0E9FE364B96
:101810001B683746C6EB03083D46A43608EB0500B7
:1018200019F0ECFD05F8010BB542F7D12F4B304E06
:101830001B68B346C6EB03085D46343608EB05006B
:1018400019F0DCFD05F8010BB542F7D1294B2A4E02
:101850001B683246C6EB03081546403608EB050008
:1018600019F0CCFD05F8010BAE42F7D1234B244E05
:101870001B68B246C6EB03085546343608EB050034
:1018800019F0BCFD05F8010BB542F7D11D4B1E4DFB
:101890001E68A946761BC846103506EB080019F0ED
:1018A000ADFD08F8010BA845F7D1184B184D1E687F
:1018B00030E000BF841BFF1FE41FFF1FA04E02008B
:1018C000A84E0200604E0200B84E02001007FF1F33
:1018D000C04E0200E407FF1FD04E0200E04E02009F
:1018E000F04E0200DC17FF1FE413FF1F2C07FF1F41
:1018F0009818FF1F0407FF1F6C13FF1F5007FF1FDF
:10190000AC13FF1F5807FF1F6C15FF1F1807FF1FA1
:10191000B814FF1FA846761B183506EB080019F00F
:101920006DFD08F8010B4545F7D1C34BC34D1E684B
:10193000A846761B183506EB080019F05FFD08F87D
:10194000010BA845F7D1BE4BBE4D1E68A846761BBD
:10195000183506EB080019F051FD08F8010BA845F1
:10196000F7D1B94BB94D1E682B46761B98464035CA
:1019700006EB080019F042FD08F8010B4545F7D1C8
:10198000B34BB44D1E682B46761B98465C3506EB70
:10199000080019F033FD08F8010BA845F7D1AE4B4C
:1019A000AE4D1E682B46761B9846543506EB080054
:1019B00019F024FD08F8010B4545F7D1A84BA94DB6
:1019C0001E682B46761B9846603506EB080019F01A
:1019D00015FD08F8010BA845F7D11321A2481CF00A
:1019E0006FF9DBF83010A1481CF04AFE9F481CF04C
:1019F000F7FD12219E481CF063F9DAF830109B487D
:101A00001CF03EFE99481CF0EBFD1A2199481CF091
:101A100057F9D9F8001095481CF032FE93481CF095
:101A2000DFFD132194481CF04BF9884B8F4819684F
:101A30000A2200231CF0E4FD8C481CF0D1FD132188
:101A40008E481CF03DF98E4B884819680A22002305
:101A50001CF0D6FD85481CF0C3FD122189481CF0FE
:101A60002FF97E4B8148996C0A2200231CF0C8FD97
:101A70007E481CF0B5FD172183481CF021F9794BF5
:101A80007A4819680A2200231CF0BAFD77481CF036
:101A9000A7FD13217D481CF013F96E4B7348996B19
:101AA0000A2200231CF0ACFD70481CF099FD0121B6
:101AB000042019F04BFE01210E2019F047FE0121F0
:101AC000162019F043FE0121112019F03FFE0021DC
:101AD0000320FEF7E3FF00210846FEF7DFFF0021A9
:101AE0000120FEF7DBFF00210220FEF7D7FF0221D5
:101AF000387E19F02BFE0221387F19F027FE23686B
:101B00001A931A9A23681993199B614D9B1A092BF2
:101B1000F8D90121387E19F005FE0121387F19F02E
:101B200001FE022197F82C0019F010FE022197F80F
:101B3000300019F00BFE2B681893189A236817933E
:101B4000179B534D9B1A092BF8D9012197F82C00AC
:101B500019F0E8FD012197F8300019F0E3FD0221AA
:101B600097F84C0019F0F2FD022197F8500019F097
:101B7000EDFD012197F84C0019F0D4FD97F85000C5
:101B8000012119F0CFFD2B681693169A236815933F
:101B9000159B9B1A092BF9D90121182019F0D6FDA4
:101BA0000121182019F0BEFD01210F2019F0CEFDF2
:101BB00001210F2019F0B6FD01210A2019F0C6FD00
:101BC00001210A2019F0AEFD0121092019F0BEFD06
:101BD0000121092019F0A6FDFEF7F0FE00210320E7
:101BE000FEF75CFF2A4E032501210D2019F09AFD16
:101BF00023681E931E9A23681D931D9B9B1A312BED
:101C0000F9D900210D2019F08DFD33681C931C9A21
:101C100023681B931B9B9B1AB3F5967FF8D3013D5A
:101C2000E2D10E211B481CF04BF810481CF0D8FCE8
:101C300023B0BDE8F08F00BF1C07FF1F3816FF1F41
:101C40003407FF1F5016FF1F3807FF1F9815FF1F8F
:101C5000FC06FF1FD012FF1F0007FF1F6414FF1FA9
:101C60001407FF1FF813FF1FFC4E0200E407FF1FBD
:101C7000104F0200244F0200404F0200544F020058
:101C80006C13FF1F684F02007C4F0200944F02004C
:101C9000841BFF1FA84F020003280BD8DFE800F0C9
:101CA000080604021AF0DABF1AF0FABC1AF040B9BA
:101CB0001BF0A0BF0020704708B51AF029F90028D2
:101CC00001DD012008BD1AF0DBFC002801DD022047
:101CD00008BD1AF0B3FF0028D4BF0020032008BDC0
:101CE00038B50D4C2068FFF7D7FFC5B202E0206879
:101CF000FFF7D2FFFFF7E0FF0028F8DC04210748D8
:101D00001BF0DEFF294606481CF0BAFC04481CF014
:101D100067FC284638BD00BF1007FF1FB84F020000
:101D2000E407FF1F08B5FFF7C7FF002808DB134BC8
:101D30001868FFF7B1FF124BC0B25328187001D0DA
:101D4000002008BD00210320FEF7A8FE0D4B1B68F4
:101D5000012B08D003D3022B09D0012008BD00219C
:101D60000120FEF79BFE00210120FEF797FE0021D7
:101D70000220FEF793FE012008BD00BF1007FF1FE1
:101D8000E816FF1FF813FF1FF0B51C2183B027488A
:101D9000274C284D284E294F1BF092FF28481CF055
:101DA0001FFC0E2127481BF08BFF216824481CF0E4
:101DB00067FC23481CF014FC0023019309E0019BFD
:101DC0003068184419F034FB019B0133142B019344
:101DD00014DC2868FFF760FFC0B2FF2823680146C3
:101DE00019D0032BEBD1019B3A680146D01819F0AA
:101DF0001FFB019B0133142B0193EADD2368032BA6
:101E00000CBF114B114B042219680DEB020019F0A5
:101E100037FB03B0F0BD032B0CBF084A064A019BF9
:101E200010680021184419F003FBE7E7C04F0200D7
:101E30004C07FF1F1007FF1F4807FF1F0C07FF1F5E
:101E4000E407FF1FE04F02005407FF1F2807FF1F92
:101E50002DE9F04F95B0074604A816F05FFD8820E5
:101E60001CF07EFB0823102280E80C00C61800F14D
:101E70008808354634462046002110341CF07CFD8D
:101E8000A045F8D11721BF481BF01AFFBE481CF02F
:101E9000A7FB0CA80123BD4ABD4916F02FFE0E9AE0
:101EA0009DF83C309DF8341006928DF81C308DF86A
:101EB00014100FAA0DF11D030DF12A0012F8011FD5
:101EC00003F8011B8342F9D1139B0B930CA816F066
:101ED00033FD04A816F05EFD002800F0AF8104A8D1
:101EE00016F046FD0A210446AA481BF0E9FE2146E9
:101EF00000230A22A4481CF083FBA3481CF070FBBB
:101F0000002F4AD017F1060900F1B7800024A2463D
:101F100010E0013C0CA816F03DFD8046002842D0A0
:101F20000CA816F029FD01340CA816F005FD4C454F
:101F300000F3A380012204A90CA816F053FE0CA8FC
:101F400016F0FCFC804620F0DBFA014640461BF010
:101F5000B7FE8D481CF044FB0CA816F0F1FC0028DD
:101F6000D7D10CA816F0EAFC01468B4820F0ECF81B
:101F70000A2100285CD189481BF0A2FE0CA816F0AB
:101F8000DDFC804620F0BCFA014640461BF098FE7E
:101F90007D48013C1CF024FBC2E7814B64221A609F
:101FA0004FF00609B2E70F217E48DFF8F4B11BF0CD
:101FB00087FE214674481CF063FB03217A481BF01E
:101FC0007FFEDBF8001070481CF05AFB04F1080398
:101FD00003217548CBF800301BF072FEDBF80010CF
:101FE00069481CF04DFB68481CF0FAFA68466F49D6
:101FF0001CF0C2FC41466846FFF740F968461CF0F9
:102000007BFC2220FFF7ACFA631E00EE103A40463C
:10201000B8EEC00AFFF748FA684665491CF0ACFC08
:1020200068464146FFF72AF968461CF065FC77E7E9
:1020300060481BF045FE214653481CF021FB03215C
:1020400059481BF03DFE0CA816F078FC804620F0A5
:1020500057FA014640461BF033FE032152481BF05D
:102060002FFEA74240F3F48006EB0A1146481CF00D
:1020700091FA45481CF0B4FA4CE70126741E03217E
:102080004D481BF01DFE21463F481CF0F9FA032184
:1020900045481BF015FE29463B481CF07BFAB41E50
:1020A00039481CF09DFA052C04D8DFE804F0686676
:1020B0006462359541490CA81CF05EFC00210CA817
:1020C000FFF7DCF80CA81CF017FC3D490CA81CF02D
:1020D00053FC00210CA8FFF7D1F80CA81CF00CFC55
:1020E00029460CA81CF05CFC00210CA8FFF7C6F8E0
:1020F0000CA81CF001FC2E490CA81CF03DFC002192
:102100000CA8FFF7BBF80CA81CF0F6FB072E00F09C
:102110008F8010350136B1E72A490CA81CF02CFC41
:1021200000210CA8FFF7AAF80CA81CF0E5FB244935
:102130000CA81CF021FC00210CA8FFF79FF80CA8AC
:102140001CF0DAFB29460CA81CF02AFC00210CA884
:10215000FFF794F80CA81CF0CFFB15490CA81CF055
:102160000BFC0CA80021FFF789F80CA81CF0C4FB9D
:10217000CFE71549D1E71549CFE71549CDE715490F
:10218000CBE700BFF04F0200E407FF1F085002003A
:10219000D018FF1F0C5002002850020034500200DB
:1021A0004007FF1F505002004C50020060500200D8
:1021B00074500200405002007C5002008050020027
:1021C00098500200FC500200E4500200CC50020083
:1021D000B45002009C50020023490CA81CF0CCFB18
:1021E00000210CA8FFF74AF80CA81CF085FB1F493A
:1021F0000CA81CF0C1FB00210CA8FFF73FF80CA8AD
:102200001CF07AFB29460CA81CF0CAFB00210CA884
:10221000FFF734F80CA81CF06FFB15490CA81CF054
:10222000ABFB0CA80021FFF729F80CA81CF064FBFD
:1022300004A816F081FB15B0BDE8F08F0E210D4803
:102240001BF03EFD04A816F077FB15B0BDE8F08F3B
:102250000CA816F073FB06EB0A18014640461CF06A
:1022600013FC0AF1010AFFE6145102009850020023
:10227000745002001850020008B5084BDFED080A40
:10228000D3ED007A27EE800A1DF06AF81CF0C0FF3B
:10229000044BD3ED007A20EE270A08BD5814FF1F27
:1022A000DB0FC9408C15FF1F08B52C4A2C4B92ED53
:1022B000010A93ED007ADFED2B6A2B4BB8EEC77A5B
:1022C0009B6BC6EE877A012BB8EEC00A2DED028B10
:1022D00027EE800A3BD034D3022B2CD09FED238AEB
:1022E000FFF7CAFF224A234B92ED007A002283F8BF
:1022F000902072B6DFED207A93ED206AD3ED1F6A4D
:1023000030EE480AB8EEC77AC0EE275AC5EE877A93
:1023100067EE867AF4EEE67AC3ED1E7AD3ED227A82
:10232000F1EE10FAD8BFF1EE677AC3ED237A62B608
:10233000BDEC028B08BD114B93ED018AB8EEC88A43
:10234000CEE70F4B93ED018AB8EEC88AC8E70D4B74
:1023500093ED018AB8EEC88AC2E700BF7812FF1F6A
:10236000CC18FF1FDB0FC940D012FF1F0000000078
:102370009816FF1FD414FF1FCDCCCC3CD815FF1FDF
:10238000EC16FF1FA416FF1F2DE9F04F1621ADB06C
:102390000446B1481BF094FCB0481CF021F90A2C0B
:1023A00000F27C84DFE814F095007A04CD01AA02E3
:1023B0006C017A042703F901D403D4030B00A84B62
:1023C0001D680DF15008C8EB050544462BAE2819D1
:1023D00019F014F804F8010BA642F8D1A14907A896
:1023E0001CF0CAFA002107A8FEF748FF07A81CF056
:1023F00083FA2220FFF7B4F8DDED147A0020B8EE5E
:10240000E70AFFF751F8984907A81CF0B5FA002130
:1024100007A8FEF733FF07A81CF06EFA934907A838
:102420001CF0AAFA002107A8FEF728FF07A81CF055
:1024300063FA2220FFF794F8DDED187A0020B8EE59
:10244000670AFFF731F8884907A81CF095FA07A832
:102450000021FEF713FF07A81CF04EFA229B012B68
:1024600000F0EC86C0F0B886022B40F095828049DF
:1024700007A81CF081FA002107A8FEF7FFFE07A8B5
:102480001CF03AFA2220FFF76BF8DDED177A0020F6
:10249000B8EE670AFFF708F8734907A81CF06CFA52
:1024A000002107A8FEF7EAFE07A81CF025FA7149EB
:1024B00007A81CF061FA002107A8FEF7DFFE07A8B5
:1024C0001CF01AFA2220FFF74BF80020DDED1B7AF2
:1024D0001AE3694B1D6807AC2E1B0DF1500830192B
:1024E00018F08CFF04F8010BA045F8D1C8EB0505E6
:1024F00021AE4446281918F081FF04F8010BA642CA
:10250000F8D1584903A81CF037FA002103A8FEF7B8
:10251000B5FE03A81CF0F0F9584903A81CF02CFAEA
:10252000002103A8FEF7AAFE03A81CF0E5F9DDEDE3
:10253000087A0020B8EEE70AFEF7B6FF4A4903A87A
:102540001CF01AFA002103A8FEF798FE03A81CF05D
:10255000D3F9464903A81CF00FFA002103A8FEF79F
:102560008DFE03A81CF0C8F9444903A81CF004FA26
:10257000002103A8FEF782FE03A81CF0BDF9DDEDE3
:10258000107A0020B8EEE70AFEF78EFF364903A85E
:102590001CF0F2F903A80021FEF770FE03A81CF05E
:1025A000ABF9139C012C00F03B85022C00F0D18488
:1025B000002C40F0F1812E4903A81CF0DDF92146E2
:1025C00003A8FEF75BFE03A81CF096F92B4903A8AD
:1025D0001CF0D2F9214603A8FEF750FE03A81CF018
:1025E0008BF9DDED097A2046B8EEE70AFEF75CFFCD
:1025F0001D4903A81CF0C0F9214603A8FEF73EFEC2
:1026000003A81CF079F91B4903A81CF0B5F9214671
:1026100003A8FEF733FE03A81CF06EF9174903A8C0
:102620001CF0AAF9214603A8FEF728FE03A81CF017
:1026300063F9DDED117A2046B8EEE70AFEF734FFC4
:10264000094903A81CF098F903A82146FEF716FED5
:1026500003A81CF051F99FE12C510200E407FF1F71
:10266000FC06FF1F44510200745002005851020042
:102670006C510200805102002C07FF1F985002008D
:10268000924B1D680DF15008C8EB0505444624AE79
:10269000281918F0B3FE04F8010BA642F8D1149AD9
:1026A000052A00F279810123934013F0300440F0B1
:1026B000E98313F00C0540F03A869B0700F06C812B
:1026C00007A883491CF058F9294607A8FEF7D6FD4C
:1026D00007A81CF011F92220FEF742FFDDED157A64
:1026E0002846B8EEE70AFEF7DFFE07A879491CF096
:1026F00043F9294607A8FEF7C1FD07A81CF0FCF81E
:1027000007A875491CF038F9294607A8FEF7B6FD59
:1027100007A81CF0F1F82220FEF722FFDDED167A63
:102720002846B8EE670AFEF7BFFE07A869491CF005
:1027300023F907A82946FEF7A1FD07A81CF0DCF83D
:102740002AE1664B1D680DF15008C8EB05054446AB
:1027500021AE281918F052FE04F8010BA642F8D158
:102760001E9B5F4801930B21DDF854B0DDF874A087
:10277000DDF85890179F1F9E189D149C1BF0A0FA1F
:1027800058481BF02DFF209B032B00F20581DFE84A
:1027900013F03103FD02C9028802534B1D680DF18D
:1027A0005008C8EB0505444629AE281918F026FE46
:1027B00004F8010BA642F8D14C4907A81CF0DCF83C
:1027C000002107A8FEF75AFD07A81CF095F8222063
:1027D000FEF7C6FEDDED147A0020B8EEE70AFEF73C
:1027E00063FE3C4907A81CF0C7F8002107A8FEF7C4
:1027F00045FD07A81CF080F83D4907A81CF0BCF86F
:10280000002107A8FEF73AFD07A81CF075F8222062
:10281000FEF7A6FEDDED1C7A0020B8EE670AFEF793
:1028200043FE2C4907A81CF0A7F8002107A8FEF7D3
:1028300025FD07A81CF060F807212E481BF040FA80
:10284000269C2848214600230A221BF0D9FE254851
:102850001BF0C6FE012C00F04983C0F01584022C49
:1028600040F09A801A4907A81CF086F8002107A8B2
:10287000FEF704FD07A81CF03FF82220FEF770FECB
:102880001D4B93ED030A0020B8EEC00AFEF70CFEC4
:10289000104907A81CF070F8002107A8FEF7EEFC0D
:1028A00007A81CF029F80C4907A81CF065F80021BE
:1028B00007A8FEF7E3FC07A81CF01EF82220FEF78D
:1028C0004FFE0020DDED1F7A1EE100BF3807FF1F1D
:1028D0006C51020074500200805102005007FF1F2B
:1028E000F0510200E407FF1F0007FF1F44510200E0
:1028F00058510200E85102006414FF1F8A4B1D6802
:1029000007AC2D1B0BAE281918F078FD04F8010B4D
:10291000A642F8D10DF15008844940461CF02CF82D
:1029200000214046FEF7AAFC40461BF0E5FF2220AE
:10293000FEF716FEDDED087A0020B8EEE70AFEF796
:10294000B3FD7B4940461CF017F800214046FEF7D6
:1029500095FC40461BF0D0FF764940461CF00CF831
:1029600000214046FEF78AFC40461BF0C5FF2220AE
:10297000FEF7F6FDDDED0A7A0020B8EE670AFEF7F5
:1029800093FD6B4940461BF0F7FF40460021FEF7E0
:1029900075FC40461BF0B0FF674940461BF0ECFF5A
:1029A00000214046FEF76AFC40461BF0A5FF634944
:1029B00040461BF0E1FF00214046FEF75FFC404629
:1029C0001BF09AFF5E4940461BF0D6FF00214046AF
:1029D000FEF754FC40461BF08FFF584940461BF061
:1029E000CBFF00214046FEF749FC40461BF084FF28
:1029F0002DB0BDE8F08F534B1D680DF15008C8EBAA
:102A00000505444624AE281918F0F8FC04F8010B1B
:102A1000A642F8D1454907A81BF0AEFF002107A840
:102A2000FEF72CFC07A81BF067FF2220FEF798FD9D
:102A3000DDED157A0020B8EEE70AFEF735FD3C49DA
:102A400007A81BF099FF002107A8FEF717FC07A8AD
:102A50001BF052FF374907A81BF08EFF002107A883
:102A6000FEF70CFC07A81BF047FF2220FEF778FDBD
:102A7000DDED167A0020B8EE670AFEF715FD2C4949
:102A800007A81BF079FF07A80021FEF7F7FB07A8AE
:102A90001BF032FF149B012B00F02883C0F06A83E7
:102AA000022B7FF479AF284907A81BF065FF0021AE
:102AB00007A8FEF7E3FB07A81BF01EFF2220FEF786
:102AC0004FFDDDED1B7A0020B8EEE70AFEF7ECFCC7
:102AD000174907A81BF050FF002107A8FEF7CEFBFF
:102AE00007A81BF009FF194907A81BF045FF0021A3
:102AF00007A8FEF7C3FB07A81BF0FEFE2220FEF787
:102B00002FFDDDED1C7A0020B8EE670AFEF7CCFC45
:102B1000074907A81BF030FF07A80021FEF7AEFB0E
:102B200007A81BF0E9FE37E75807FF1F44510200D2
:102B3000745002005851020024520200604E0200FC
:102B40003C5202000407FF1F6C510200805102003A
:102B5000C24B1D680DF15008C8EB050544462CAE6C
:102B6000281918F04BFC04F8010BA642F8D1BC4917
:102B7000BC4C07A81BF000FF002107A8FEF77EFB56
:102B800007A81BF0B9FE2220FEF7EAFCDDED207A53
:102B90000020B8EEE70AFEF787FCB34907A81BF050
:102BA000EBFE002107A8FEF769FB07A81BF0A4FEB7
:102BB000AE4907A81BF0E0FE002107A8FEF75EFB68
:102BC00007A81BF099FE2220FEF7CAFC289D07EEFD
:102BD000905A0020B8EE670AFEF766FCA24907A8E3
:102BE0001BF0CAFE002107A8FEF748FB07A81BF050
:102BF00083FE0F219E481BF063F800230A22216DFB
:102C00009C481BF0FDFC9B481BF0EAFC16219A48EF
:102C10001BF056F8002329460A2296481BF0F0FCC8
:102C200094481BF0DDFC2368012B00F04D83C0F0BD
:102C30001983022B7FF4B0AE904907A81BF09CFECD
:102C4000002107A8FEF71AFB07A81BF055FE22205B
:102C5000FEF786FCDDED237A0020B8EEE70AFEF7EA
:102C600023FC814907A81BF087FE002107A8FEF777
:102C700005FB07A81BF040FE814907A81BF07CFE5E
:102C8000002107A8FEF7FAFA07A81BF035FE22205C
:102C9000FEF766FC0020DDED2B7A35E70DF15008DC
:102CA0007AE66F4907A81BF067FE002107A8FEF728
:102CB000E5FA07A81BF020FE2220FEF751FC07EEE4
:102CC00090BA0020B8EEE70AFEF7EEFB664907A8C7
:102CD0001BF052FE002107A8FEF7D0FA07A81BF050
:102CE0000BFE624907A81BF047FE002107A8FEF76C
:102CF000C5FA07A81BF000FE2220FEF731FC07EE04
:102D000090AAB8EEE70A0020FEF7CEFB07A85649C6
:102D10001BF032FE07A80021FEF7B0FA07A81BF04F
:102D2000EBFD39E6554907A81BF026FE002107A850
:102D3000FEF7A4FA07A81BF0DFFD2220FEF710FC27
:102D400007EE905A0020B8EEE70AFEF7ADFB4649C1
:102D500007A81BF011FE002107A8FEF78FFA07A8AD
:102D60001BF0CAFD464907A81BF006FE002107A874
:102D7000FEF784FA07A81BF0BFFD2220FEF7F0FB48
:102D800007EE904A0020B8EEE70ABDE73B4907A8E6
:102D90001BF0F2FD002107A8FEF770FA07A81BF050
:102DA000ABFD2220FEF7DCFB07EE907A0020B8EEA8
:102DB000E70AFEF779FB2C4907A81BF0DDFD00218F
:102DC00007A8FEF75BFA07A81BF096FD2C4907A899
:102DD0001BF0D2FD002107A8FEF750FA07A81BF050
:102DE0008BFD2220FEF7BCFB07EE906A0020B8EEB8
:102DF000E70A89E7214907A81BF0BEFD002107A8C3
:102E0000FEF73CFA07A81BF077FD2220FEF7A8FB8F
:102E100007EE909A0020B8EEE70AFEF745FB12494C
:102E200007A81BF0A9FD002107A8FEF727FA07A8AD
:102E30001BF062FD124907A81BF09EFD002107A8A8
:102E4000FEF71CFA07A81BF057FD2220FEF788FBAF
:102E5000DDED017A0020B8EEE70A55E71407FF1F01
:102E600044510200F813FF1F745002005851020031
:102E7000FC510200E407FF1F0C5202006C510200DB
:102E800080510200B24907A81BF076FD002107A877
:102E9000FEF7F4F907A81BF02FFD2220FEF760FBD8
:102EA000DDED1B7A0020B8EEE70AFEF7FDFAA9492E
:102EB00007A81BF061FD002107A8FEF7DFF907A8AE
:102EC0001BF01AFDA44907A81BF056FD002107A816
:102ED000FEF7D4F907A81BF00FFD2220FEF740FBF8
:102EE000DDED1C7A0020B8EE670A0DE7984907A8C7
:102EF0001BF042FD002107A8FEF7C0F907A81BF050
:102F0000FBFC2220FEF72CFB944B93ED020A0020E1
:102F1000B8EEC00AFEF7C8FA8E4907A81BF02CFDD0
:102F2000002107A8FEF7AAF907A81BF0E5FC8A49CB
:102F300007A81BF021FD002107A8FEF79FF907A8AD
:102F40001BF0DAFC2220FEF70BFB0020DDED1E7AE1
:102F5000DAE5182182481AF0B3FE824B82481968DC
:102F60001BF08EFB80481BF03BFB19217F481AF0B9
:102F7000A7FE14997C481BF083FB7B481BF030FBB9
:102F800018217B481AF09CFE079C774821461BF0CD
:102F900077FB75481BF024FB6D4903A81BF0ECFC84
:102FA000002103A8FEF76AF903A81BF0A5FC222064
:102FB000FEF7D6FADDED0B7A0020B8EEE70AFEF751
:102FC00073FA644903A81BF0D7FC002103A8FEF79D
:102FD00055F903A81BF090FC642018F0BDFB5E4976
:102FE00003A81BF0C9FC002103A8FEF747F903A8BA
:102FF0001BF082FC2220FEF7B3FA07EE904AB8EEEF
:10300000E70A0020FEF750FA524903A81BF0B4FC6F
:1030100003A80021FEF732F903A81BF06DFCBBE406
:103020004B4903A81BF0A8FC002103A8FEF726F9D2
:1030300003A81BF061FC2220FEF792FADDED0A7A6C
:103040000020B8EEE70AFEF72FFA424903A81BF06A
:1030500093FC002103A8FEF711F903A81BF04CFC18
:103060003D4903A81BF088FC002103A8FEF706F9E0
:1030700003A81BF041FC2220FEF772FADDED127A64
:103080000020B8EEE70ABDE7314907A81BF074FC41
:10309000002107A8FEF7F2F807A81BF02DFC22205C
:1030A000FEF75EFADDED157A0020B8EEE70AFEF7CE
:1030B000FBF9284907A81BF05FFC002107A8FEF7D1
:1030C000DDF807A81BF018FC234907A81BF054FCE7
:1030D000002107A8FEF7D2F807A81BF00DFC22205C
:1030E000FEF73EFA0020DDED1D7A0DE5184907A830
:1030F0001BF042FC002107A8FEF7C0F807A81BF050
:10310000FBFB2220FEF72CFADDED197AB8EEE70A78
:103110000020FEF7C9F90F4907A81BF02DFC00217C
:1031200007A8FEF7ABF807A81BF0E6FB0A4907A8BB
:103130001BF022FC002107A8FEF7A0F807A81BF04F
:10314000DBFB2220FEF70CFA0020DDED1A7ADBE42F
:103150006C51020074500200805102006414FF1F81
:10316000945102009818FF1FE407FF1FB05102009E
:10317000CC5102008F4907A81BF0FEFB002107A8D5
:10318000FEF77CF807A81BF0B7FB2220FEF7E8F952
:10319000DDED177A0020B8EEE70AFEF785F98649DB
:1031A00007A81BF0E9FB002107A8FEF767F807A8AE
:1031B0001BF0A2FB814907A81BF0DEFB002107A83A
:1031C000FEF75CF807A81BF097FB2220FEF7C8F972
:1031D0000020DDED187A97E4764907A81BF0CCFBB8
:1031E000002107A8FEF74AF807A81BF085FB22205C
:1031F000FEF7B6F9DDED157A0020B8EEE70AFEF726
:1032000053F96D4907A81BF0B7FB002107A8FEF78B
:1032100035F807A81BF070FB684907A81BF0ACFB4A
:10322000002107A8FEF72AF807A81BF065FB22205B
:10323000FEF796F90020DDED197A65E45D4907A8EF
:103240001BF09AFB002107A8FEF718F807A81BF04F
:1032500053FB2220FEF784F9DDED167A0020B8EE4C
:10326000670A56E7534907A81BF086FB002107A809
:10327000FEF704F807A81BF03FFB2220FEF770F9C9
:10328000DDED217A0020B8EEE70AFEF70DF94A4994
:1032900007A81BF071FB002107A8FDF7EFFF07A8A7
:1032A0001BF02AFB454907A81BF066FB002107A875
:1032B000FDF7E4FF07A81BF01FFB2220FEF750F9E3
:1032C0000020DDED297A1FE43A4907A81BF054FBE2
:1032D000002107A8FDF7D2FF07A81BF00DFB222055
:1032E000FEF73EF9DDED227A0020B8EEE70AFEF7A0
:1032F000DBF8314907A81BF03FFB002107A8FDF7C9
:10330000BDFF07A81BF0F8FA2C4907A81BF034FBF7
:10331000002107A8FDF7B2FF07A81BF0EDFA222055
:10332000FEF71EF90020DDED2A7AFFF7EDBB07A8B6
:1033300020491BF021FB214607A8FDF79FFF07A8A6
:103340001BF0DAFA2220FEF70BF9DDED187A2046A1
:10335000B8EEE70AFEF7A8F807A817491BF00CFB20
:10336000214607A8FDF78AFF07A81BF0C5FA07A8A2
:1033700012491BF001FB214607A8FDF77FFF07A8B4
:103380001BF0BAFA2220FEF7EBF8DDED197A2046A1
:10339000B8EE670AFEF788F807A807491BF0ECFAB1
:1033A00007A82146FDF76AFF07A81BF0A5FAFFF75B
:1033B000F3BA00BF6C510200745002008051020049
:1033C00070B5C64BAEB01D6805AC2D1B2EAE2819CE
:1033D00018F014F804F8010BB442F8D1C049C14CFC
:1033E000C14D01A81BF0C8FA002101A8FDF746FF56
:1033F00001A81BF081FA2220FEF7B2F8DDED057A74
:103400000020B8EE670AFEF74FF8B84901A81BF094
:10341000B3FA002101A8FDF731FF01A81BF06CFAF7
:10342000B34901A81BF0A8FA002101A8FDF726FF67
:1034300001A81BF061FA2220FEF792F8DDED067A72
:103440000020B8EE670AFEF72FF8A84901A81BF084
:1034500093FA002101A8FDF711FF01A81BF04CFA17
:10346000A44901A81BF088FA002101A8FDF706FF76
:1034700001A81BF041FA2220FEF772F89DED070A21
:103480000420FEF711F8994901A81BF075FA0021F4
:1034900001A8FDF7F3FE01A81BF02EFA964901A83A
:1034A0001BF06AFA002101A8FDF7E8FE01A81BF055
:1034B00023FA2220FEF754F89DF8881001A800296D
:1034C00014BF294621461BF057FA002101A8FDF739
:1034D000D5FE01A81BF010FA844901A81BF04CFA94
:1034E000002101A8FDF7CAFE01A81BF005FA8349D7
:1034F00001A81BF041FA002101A8FDF7BFFE01A8B9
:103500001BF0FAF92220FEF72BF8DDED267A0020D9
:10351000B8EE670AFDF7C8FF744901A81BF02CFA42
:10352000002101A8FDF7AAFE01A81BF0E5F97449E6
:1035300001A81BF021FA002101A8FDF79FFE01A8B8
:103540001BF0DAF92220FEF70BF8DDED277A0020D8
:10355000B8EE670AFDF7A8FF644901A81BF00CFA52
:10356000002101A8FDF78AFE01A81BF0C5F96549F5
:1035700001A81BF001FA002101A8FDF77FFE01A8B8
:103580001BF0BAF92220FDF7EBFFDDED087A0020F1
:10359000B8EE670AFDF788FF544901A81BF0ECF963
:1035A000002101A8FDF76AFE01A81BF0A5F9564904
:1035B00001A81BF0E1F9002101A8FDF75FFE01A8B9
:1035C0001BF09AF92220FDF7CBFFDDED097A0020F0
:1035D000B8EE670AFDF768FF444901A81BF0CCF973
:1035E000002101A8FDF74AFE01A81BF085F9474913
:1035F00001A81BF0C1F9002101A8FDF73FFE01A8B9
:103600001BF07AF92220FDF7ABFF9DED0A0A04209A
:10361000FDF74AFF354901A81BF0AEF9002101A8CA
:10362000FDF72CFE01A81BF067F9394901A81BF032
:10363000A3F9002101A8FDF721FE01A81BF05CF908
:103640002220FDF78DFF9DF8891001A8002914BFE5
:10365000294621461BF090F9002101A8FDF70EFE36
:1036600001A81BF049F9214901A81BF085F90021A7
:1036700001A8FDF703FE01A81BF03EF9254901A8AA
:103680001BF07AF9002101A8FDF7F8FD01A81BF055
:1036900033F92220FDF764FFDDED0D7A0020B8EE4E
:1036A000670AFDF701FF114901A81BF065F9002128
:1036B00001A8FDF7E3FD01A81BF01EF9164901A8BA
:1036C0001BF05AF9002101A8FDF7D8FD01A81BF055
:1036D00013F92220FDF744FF20E000BFE413FF1F91
:1036E000605202005852020054520200745002000C
:1036F0007852020090520200A8520200C05202000A
:10370000D4520200EC520200FC5202000C530200A0
:103710001C5302002C5302003C530200DDED0E7AD4
:103720000020B8EE670AFDF7BFFEC34901A81BF0F1
:1037300023F9002101A8FDF7A1FD01A81BF0DCF889
:10374000BE4901A81BF018F9002101A8FDF796FD5C
:1037500001A81BF0D1F82220FDF702FF9DED0F0A12
:103760000520FDF7A1FEB44901A81BF005F90021D1
:1037700001A8FDF783FD01A81BF0BEF8B04901A820
:103780001BF0FAF8002101A8FDF778FD01A81BF055
:10379000B3F82220FDF7E4FE9DF88A1001A8002965
:1037A00014BF294621461BF0E7F8002101A8FDF7C8
:1037B00065FD01A81BF0A0F89F4901A81BF0DCF8EB
:1037C000002101A8FDF75AFD01A81BF095F89D49BD
:1037D00001A81BF0D1F8002101A8FDF74FFD01A8B9
:1037E0001BF08AF82220FDF7BBFEDDED2A7A0020CF
:1037F000B8EE670AFDF758FE8F4901A81BF0BCF828
:10380000002101A8FDF73AFD01A81BF075F88E49CB
:1038100001A81BF0B1F8002101A8FDF72FFD01A8B8
:103820001BF06AF82220FDF79BFEDDED2B7A0020CD
:10383000B8EE670AFDF738FE7F4901A81BF09CF837
:10384000002101A8FDF71AFD01A81BF055F87F49DA
:1038500001A81BF091F8002101A8FDF70FFD01A8B8
:103860001BF04AF82220FDF77BFE9DED2C0A052077
:10387000FDF71AFE704901A81BF07EF8002101A88F
:10388000FDF7FCFC01A81BF037F8714901A81BF0FB
:1038900073F8002101A8FDF7F1FC01A81BF02CF83A
:1038A0002220FDF75DFE9DF8B41001A8002914BF89
:1038B000294621461BF060F8002101A8FDF7DEFC37
:1038C00001A81BF019F85C4901A81BF055F800216C
:1038D00001A8FDF7D3FC01A81BF00EF85D4901A873
:1038E0001BF04AF8002101A8FDF7C8FC01A81BF055
:1038F00003F82220FDF734FEDDED137A0020B8EE48
:10390000670AFDF7D1FD4C4901A81BF035F80021ED
:1039100001A8FDF7B3FC01A81AF0EEFF4E4901A87B
:103920001BF02AF8002101A8FDF7A8FC01A81AF055
:10393000E3FF2220FDF714FEDDED147A0020B8EE3F
:10394000670AFDF7B1FD3C4901A81BF015F80021FD
:1039500001A8FDF793FC01A81AF0CEFF3F4901A88A
:103960001BF00AF8002101A8FDF788FC01A81AF055
:10397000C3FF2220FDF7F4FD9DED150A0420FDF79D
:1039800093FD2D4901A81AF0F7FF002101A8FDF7CA
:1039900075FC01A81AF0B0FF314901A81AF0ECFF3C
:1039A000002101A8FDF76AFC01A81AF0A5FF22205A
:1039B000FDF7D6FD9DF88B1001A8002914BF2946FC
:1039C00021461AF0D9FF002101A8FDF757FC01A8F4
:1039D0001AF092FF184901A81AF0CEFF01A80021A1
:1039E000FDF74CFC01A81AF087FF129C002C40F058
:1039F00096801C4901A81AF0BFFF214601A8FDF7D7
:103A00003DFC01A81AF078FF174901A81AF0B4FF8D
:103A1000214601A8FDF732FC01A81AF06DFF1349F9
:103A200001A81AF0A9FF214601A8FDF727FC01A86B
:103A30001AF062FF1CE000BF745002004C530200F9
:103A40005C5302006C530200845302009C5302003A
:103A5000B4530200CC530200DC530200EC530200CA
:103A6000FC5302002C540200604E02003C54020041
:103A7000414901A81AF080FF01A82146FDF7FEFB8D
:103A800001A81AF039FF3D4901A81AF075FF00217D
:103A900001A8FDF7F3FB01A81AF02EFF2220FDF785
:103AA0005FFD9DED160A0420FDF7FEFC344901A8D8
:103AB0001AF062FF002101A8FDF7E0FB01A81AF04F
:103AC0001BFF304901A81AF057FF002101A8FDF79C
:103AD000D5FB01A81AF010FF274901A81AF04CFFE6
:103AE000002101A8FDF7CAFB01A81AF005FF26492D
:103AF00001A81AF041FF002101A8FDF7BFFB01A8B2
:103B00001AF0FAFE1C4901A81AF036FF002101A89C
:103B1000FDF7B4FB01A81AF0EFFE2EB070BD1B49F3
:103B200001A81AF029FF002101A8FDF7A7FB01A8B1
:103B30001AF0E2FE104901A81AF01EFF002101A8A8
:103B4000FDF79CFB01A81AF0D7FE114901A81AF055
:103B500013FF002101A8FDF791FB01A81AF0CCFE8C
:103B6000054901A81AF008FF01A80021FDF786FB0E
:103B700001A81AF0C1FE86E7604E02004C54020014
:103B8000745002005C540200745402000C54020091
:103B90001C54020070B5C24BAEB01D6805AC2D1BA5
:103BA0002EAE281917F02AFC04F8010BA642F8D112
:103BB000BC49BD4C01A81AF0DFFE002101A8FDF7A9
:103BC0005DFB01A81AF098FE2220FDF7C9FCD4ED98
:103BD000067A0020B8EE670AFDF766FCB34901A833
:103BE0001AF0CAFE002101A8FDF748FB01A81AF04F
:103BF00083FEAF4901A81AF0BFFE002101A8FDF71E
:103C00003DFB01A81AF078FE2220FDF7A9FCD4EDB7
:103C1000077A0020B8EE670AFDF746FCA34901A821
:103C20001AF0AAFE002101A8FDF728FB01A81AF04E
:103C300063FEA04901A81AF09FFE002101A8FDF72C
:103C40001DFB01A81AF058FE2220FDF789FCD4EDD7
:103C50001E7A0020B8EE670AFDF726FC934901A8FA
:103C60001AF08AFE002101A8FDF708FB01A81AF04E
:103C700043FE914901A81AF07FFE002101A8FDF73B
:103C8000FDFA01A81AF038FE2220FDF769FCD4EDF8
:103C90000B7A0020B8EE670AFDF706FC834901A8FD
:103CA0001AF06AFE002101A8FDF7E8FA01A81AF04F
:103CB00023FE824901A81AF05FFE002101A8FDF74A
:103CC000DDFA01A81AF018FE2220FDF749FCD4ED18
:103CD0000C7A0020B8EE670AFDF7E6FB734901A8ED
:103CE0001AF04AFE002101A8FDF7C8FA01A81AF04F
:103CF00003FE734901A81AF03FFE002101A8FDF759
:103D0000BDFA01A81AF0F8FD2220FDF729FCD4ED38
:103D10001F7A0020B8EE670AFDF7C6FB634901A8C9
:103D20001AF02AFE002101A8FDF7A8FA01A81AF04E
:103D3000E3FD644901A81AF01FFE002101A8FDF768
:103D40009DFA01A81AF0D8FD2220FDF709FCD4ED58
:103D5000137A0020B8EE670AFDF7A6FB534901A8C5
:103D60001AF00AFE002101A8FDF788FA01A81AF04E
:103D7000C3FD554901A81AF0FFFD002101A8FDF778
:103D80007DFA01A81AF0B8FD2220FDF7E9FBD4ED79
:103D9000147A0020B8EE670AFDF786FB434901A8B4
:103DA0001AF0EAFD002101A8FDF768FA01A81AF04F
:103DB000A3FD464901A81AF0DFFD002101A8FDF787
:103DC0005DFA01A81AF098FD2220FDF7C9FBD4ED99
:103DD000207A0020B8EE670AFDF766FB334901A898
:103DE0001AF0CAFD002101A8FDF748FA01A81AF04F
:103DF00083FD0D21364819F063FFD4F88C10354847
:103E000000230A221AF0FCFB32481AF0E9FBD4F82E
:103E10008C40002C68D1304901A81AF0ADFD01A8F2
:103E20002146FDF72BFA01A81AF066FD2B4901A8DF
:103E30001AF0A2FD002101A8FDF720FA01A81AF04E
:103E40005BFD274901A81AF097FD002101A8FDF7A5
:103E500015FA01A81AF050FD204901A81AF08CFDAE
:103E6000002101A8FDF70AFA01A81AF045FD1D4935
:103E700001A81AF081FD002101A8FDF7FFF901A8B2
:103E80001AF03AFD154901A81AF076FD002101A8A3
:103E9000FDF7F4F901A81AF02FFD2EB070BD00BF98
:103EA000E413FF1F88540200DC17FF1F7450020048
:103EB0009C540200B0540200C4540200D8540200C2
:103EC000EC5402000055020014550200285502006F
:103ED0003C550200E407FF1F60550200604E0200DF
:103EE0007455020090550200054901A81AF044FDDE
:103EF00001A80021FDF7C2F901A81AF0FDFC95E721
:103F00004C55020070B59D4BAEB01D6805AC2D1B25
:103F10002EAE281917F072FA04F8010BB442F8D14A
:103F200001A897491AF028FD002101A8FDF7A6F97C
:103F300001A81AF0E1FC2220FDF712FBDDED1A7A50
:103F40000020B8EEE70AFDF7AFFA01A88D491AF094
:103F500013FD01A80021FDF791F901A81AF0CCFC8E
:103F600001A889491AF008FD002101A8FDF786F98A
:103F700001A81AF0C1FC2220FDF7F2FADDED1B7A50
:103F80000020B8EE670AFDF78FFA01A87D491AF004
:103F9000F3FC01A80021FDF771F901A81AF0ACFCAF
:103FA00001A87A491AF0E8FC002101A8FDF766F99A
:103FB00001A81AF0A1FC2220FDF7D2FADDED1C7A4F
:103FC0000020B8EEE70AFDF76FFA01A86D491AF074
:103FD000D3FC01A80021FDF751F901A81AF08CFCCF
:103FE00001A86B491AF0C8FC002101A8FDF746F9A9
:103FF00001A81AF081FC2220FDF7B2FADDED1D7A4E
:104000000020B8EE670AFDF74FFA01A85D491AF0E3
:10401000B3FC01A80021FDF731F901A81AF06CFCEE
:1040200001A85C491AF0A8FC002101A8FDF726F9B7
:1040300001A81AF061FC2220FDF792FADDED1E7A4C
:104040000020B8EEE70AFDF72FFA01A84D491AF053
:1040500093FC01A80021FDF711F901A81AF04CFC0E
:1040600001A84D491AF088FC002101A8FDF706F9C6
:1040700001A81AF041FC2220FDF772FADDED1F7A4B
:104080000020B8EE670AFDF70FFA01A83D491AF0C3
:1040900073FC01A80021FDF7F1F801A81AF02CFC2F
:1040A00001A83E491AF068FC002101A8FDF7E6F8D6
:1040B00001A81AF021FC2220FDF752FADDED207A4A
:1040C0000020B8EEE70AFDF7EFF901A82D491AF034
:1040D00053FC01A80021FDF7D1F801A81AF00CFC4F
:1040E00001A82F491AF048FC002101A8FDF7C6F8E5
:1040F00001A81AF001FC2220FDF732FADDED217A49
:104100000020B8EE670AFDF7CFF901A81D491AF0A3
:1041100033FC01A80021FDF7B1F801A81AF0ECFB6F
:1041200001A820491AF028FC01A80021FDF7A6F8F3
:1041300001A81AF0E1FB01A81B491AF01DFC01A817
:104140000021FDF79BF801A81AF0D6FB01A817493A
:104150001AF012FC01A80021FDF790F801A81AF04E
:10416000CBFB01A810491AF007FC01A80021FDF7BC
:1041700085F801A81AF0C0FB2EB070BDE413FF1F34
:10418000A855020074500200BC550200D055020030
:10419000E4550200F85502000C56020020560200B9
:1041A000345602004C560200604E0200685602006F
:1041B00070B5DA4B1B6884B00A2B00F2AD81DFE8E2
:1041C00013F05903AB0149045404C204AB01E904E0
:1041D0002B064B070B00D101D149D24D68461AF08E
:1041E000CBFB00216846FDF749F868461AF084FBCE
:1041F0002220FDF7B5F9D5ED0C7A0020B8EEE70ADC
:10420000FDF752F9C84968461AF0B6FB0021684626
:10421000FDF734F868461AF06FFBC44968461AF097
:10422000ABFB00216846FDF729F868461AF064FBED
:104230002220FDF795F9D5ED147A0020B8EE670A33
:10424000FDF732F9B84968461AF096FB0021684636
:10425000FDF714F868461AF04FFBB54968461AF0A6
:104260008BFB00216846FDF709F868461AF044FB0D
:104270002220FDF775F9D5ED107A0020B8EEE70A97
:10428000FDF712F9A84968461AF076FB0021684646
:10429000FCF7F4FF68461AF02FFBA64968461AF0AF
:1042A0006BFB00216846FCF7E9FF68461AF024FB27
:1042B0002220FDF755F9D5ED077A0020B8EEE70A80
:1042C000FDF7F2F8984968461AF056FB0021684657
:1042D000FCF7D4FF68461AF00FFB974968461AF0BE
:1042E0004BFB00216846FCF7C9FF68461AF004FB47
:1042F0002220FDF735F995ED080A0020FDF7D4F8E6
:10430000894968461AF038FB00216846FCF7B6FF79
:1043100068461AF0F1FA894968461AF02DFB002127
:104320006846FCF7ABFF68461AF0E6FA2220FDF774
:1043300017F995ED0B0A0020FDF7B6F87A496846A3
:104340001AF01AFB68460021FCF798FF68461AF03D
:10435000D3FAAE6A6C46002E02F0BB80012E23D148
:10436000774968461AF008FB00216846FCF786FF8B
:1043700068461AF0C1FA2220FDF7F2F87149684642
:104380001AF0FAFA00216846FCF778FF68461AF03E
:10439000B3FA654968461AF0EFFA68460021FCF75F
:1043A0006DFF68461AF0A8FA6B6A022B02F0808053
:1043B000032B23D1644920461AF0DEFA002120465F
:1043C000FCF75CFF20461AF097FA2220FDF7C8F8A8
:1043D0005E4920461AF0D0FA00212046FCF74EFF35
:1043E00020461AF089FA504920461AF0C5FA2046AC
:1043F0000021FCF743FF20461AF07EFA2B68494D56
:10440000012B00F0B387C0F01C87022B40F08480A2
:104410004F4920461AF0B0FA00212046FCF72EFF43
:1044200020461AF069FA2220FDF79AF849492046F9
:104430001AF0A2FA00212046FCF720FF20461AF0CD
:104440005BFA394920461AF097FA00212046FCF71A
:1044500015FF20461AF050FA3F4920461AF08CFA10
:1044600000212046FCF70AFF20461AF045FA2220D8
:10447000FDF776F8D5ED0F7A0020B8EEE70AFDF7E4
:1044800013F8294920461AF077FA00212046FCF754
:10449000F5FE20461AF030FA304920461AF06CFA40
:1044A00000212046FCF7EAFE20461AF025FA2220D9
:1044B000FDF756F8D5ED177A0020B8EE670AFCF73D
:1044C000F3FF194920461AF057FA00212046FCF75D
:1044D000D5FE20461AF010FA214920461AF04CFA6F
:1044E00000212046FCF7CAFE20461AF005FA2220D9
:1044F000FDF736F895ED130A0020B8EEC00AFCF778
:10450000D3FF094920461AF037FA20460021FCF76C
:10451000B5FE20461AF0F0F904B070BD4C07FF1F3D
:1045200080560200F813FF1F7450020094560200D8
:10453000A85602000C570200205702006C570200D8
:104540009C570200045A020080570200D457020010
:10455000BC560200785D0200D0560200E45602000C
:10456000F8560200B549B64C68461AF005FA002123
:104570006846FCF783FE68461AF0BEF92220FCF775
:10458000EFFFD4ED007A0020B8EEE70AFCF78CFFCD
:10459000AC4968461AF0F0F900216846FCF76EFE57
:1045A00068461AF0A9F9A84968461AF0E5F9002109
:1045B0006846FCF763FE68461AF09EF92220FCF775
:1045C000CFFFD4ED047A0020B8EE670AFCF76CFF49
:1045D0009C4968461AF0D0F900216846FCF74EFE67
:1045E00068461AF089F9994968461AF0C5F9002118
:1045F0006846FCF743FE68461AF07EF92220FCF775
:10460000AFFFD4ED087A0020B8EEE70AFCF74CFFC4
:104610008C4968461AF0B0F900216846FCF72EFE76
:1046200068461AF069F98A4968461AF0A5F9002126
:104630006846FCF723FE68461AF05EF92220FCF774
:104640008FFFD4ED0C7A0020B8EEE70AFCF72CFFC0
:104650007C4968461AF090F900216846FCF70EFE86
:1046600068461AF049F97B4968461AF085F9002135
:104670006846FCF703FE68461AF03EF92220FCF774
:104680006FFFD4ED0D7A0020B8EEE70AFCF70CFFBF
:104690006C4968461AF070F968460021FCF7EEFD97
:1046A00068461AF029F9A36B012B02F03E83C2F091
:1046B0008782022B7FF430AF674968461AF05CF9B5
:1046C00000216846FCF7DAFD68461AF015F9222049
:1046D000FCF746FF614968461AF04EF9002168462A
:1046E000FCF7CCFD68461AF007F9564968461AF0FF
:1046F00043F900216846FCF7C1FD68461AF0FCF852
:10470000574968461AF038F900216846FCF7B6FDAB
:1047100068461AF0F1F82220FCF722FFD4ED037A64
:104720000020B8EE670AFCF7BFFE464968461AF05B
:1047300023F900216846FCF7A1FD68461AF0DCF871
:10474000484968461AF018F900216846FCF796FDBA
:1047500068461AF0D1F82220FCF702FFD4ED077A60
:104760000020B8EE670AFCF79FFE364968461AF04B
:1047700003F900216846FCF781FD68461AF0BCF891
:10478000394968461AF0F8F800216846FCF776FDCA
:1047900068461AF0B1F82220FCF7E2FED4ED0B7A5D
:1047A0000020B8EEE70AFCF77FFE264968461AF0BB
:1047B000E3F800216846FCF761FD68461AF09CF8B2
:1047C0002A4968461AF0D8F800216846FCF756FDD9
:1047D00068461AF091F82220FCF7C2FE94ED160A02
:1047E0000020FCF761FE174968461AF0C5F8002161
:1047F0006846FCF743FD68461AF07EF81C49684697
:104800001AF0BAF800216846FCF738FD68461AF03D
:1048100073F82220FCF7A4FE94ED150A0020FCF7A3
:1048200043FE084968461AF0A7F800216846FCF7DD
:1048300025FD68461AF060F804B070BD805602008D
:10484000D012FF1F7450020094560200A8560200B6
:104850000C57020020570200BC560200785D02008F
:10486000D0560200E4560200F85602006C570200CF
:104870009C570200BA49BB4C68461AF07DF80021EB
:104880006846FCF7FBFC68461AF036F82220FCF775
:1048900067FED4ED017A0020B8EEE70AFCF704FECB
:1048A000B14968461AF068F800216846FCF7E6FC52
:1048B00068461AF021F8AD4968461AF05DF8002103
:1048C0006846FCF7DBFC68461AF016F82220FCF775
:1048D00047FED4ED097A0020B8EEE70AFCF7E4FDC4
:1048E000A14968461AF048F800216846FCF7C6FC62
:1048F00068461AF001F89E4968461AF03DF8002112
:104900006846FCF7BBFC684619F0F6FF2220FCF76E
:1049100027FED4ED057A0020B8EEE70AFCF7C4FDC7
:10492000914968461AF028F868460021FCF7A6FC71
:10493000684619F0E1FF256B012D01F05086022D2C
:1049400001F0C686002D7FF4E7AD8A4968461AF06B
:1049500013F829466846FCF791FC684619F0CCFF2D
:104960002220FCF7FDFD844968461AF005F8294627
:104970006846FCF783FC684619F0BEFF7A49684632
:1049800019F0FAFF29466846FCF778FC684619F0EA
:10499000B3FF7A49684619F0EFFF29466846FCF7ED
:1049A0006DFC684619F0A8FF2220FCF7D9FDD4ED74
:1049B000027A2846B8EEE70AFCF776FD6A496846AF
:1049C00019F0DAFF29466846FCF758FC684619F0EA
:1049D00093FF6B49684619F0CFFF29466846FCF7FC
:1049E0004DFC684619F088FF2220FCF7B9FDD4ED94
:1049F0000A7A2846B8EEE70AFCF756FD5A49684697
:104A000019F0BAFF29466846FCF738FC684619F0E9
:104A100073FF5C49684619F0AFFF29466846FCF70A
:104A20002DFC684619F068FF2220FCF799FD94EDF3
:104A3000060A2846B8EEC00AFCF736FD4A49684621
:104A400019F09AFF68462946FCF718FC684619F0E9
:104A500053FF61E54C4C236B032B3FF65DADDFE864
:104A600013F00B07960621067C053D49474D684625
:104A700019F082FF00216846FCF700FC684619F037
:104A80003BFF2220FCF76CFDD5ED017A0020B8EE4B
:104A9000E70AFCF709FD3449684619F06DFF00216B
:104AA0006846FCF7EBFB684619F026FF2F4968467D
:104AB00019F062FF00216846FCF7E0FB684619F038
:104AC0001BFF2220FCF74CFDD5ED037A0020B8EE49
:104AD000670AFCF7E9FC2449684619F04DFF0021FC
:104AE0006846FCF7CBFB684619F006FF204968468C
:104AF00019F042FF00216846FCF7C0FB684619F038
:104B0000FBFE2220FCF72CFDD5ED027A0020B8EE4A
:104B1000E70AFCF7C9FC1449684619F02DFF6846FE
:104B20000021FCF7ABFB684619F0E6FE2B68013B61
:104B30006C46042B3FF6F0ACDFE813F0CD0713070B
:104B4000BC07AB079A07124C2368052B3FF6E4AC71
:104B5000DFE813F08E081E0B740ADD094609F8071A
:104B6000805602009818FF1F7450020094560200ED
:104B7000A8560200BC560200B05C0200D0560200EB
:104B8000E4560200F8560200AC13FF1F6C15FF1F1D
:104B90009815FF1F9449954D684619F0EDFE0021C8
:104BA0006846FCF76BFB684619F0A6FE2220FCF76E
:104BB000D7FCD5ED017A0020B8EEE70AFCF774FCCB
:104BC0008B49684619F0D8FE00216846FCF756FB71
:104BD000684619F091FE8749684619F0CDFE00211C
:104BE0006846FCF74BFB684619F086FE2220FCF76E
:104BF000B7FCD5ED027A0020B8EE670AFCF754FC4A
:104C00007B49684619F0B8FE00216846FCF736FB80
:104C1000684619F071FE7849684619F0ADFE00212A
:104C20006846FCF72BFB684619F066FE2220FCF76D
:104C300097FCD5ED097A0020B8EEE70AFCF734FCC2
:104C40006B49684619F098FE68460021FCF716FB90
:104C5000684619F051FE6B6B012B6C4600F04C87D7
:104C6000C1F01584302B01F01284312B00F0448701
:104C700062495E4E204619F07FFE00212046FCF777
:104C8000FDFA204619F038FE2220FCF769FC95ED6C
:104C90000F0A0020FCF708FC5549204619F06CFE6D
:104CA00000212046FCF7EAFA204619F025FE544977
:104CB000204619F061FE00212046FCF7DFFA20466D
:104CC00019F01AFE2220FCF74BFC95ED0E0A00208D
:104CD000FCF7EAFB4649204619F04EFE002120462B
:104CE000FCF7CCFA204619F007FE2B68012B01F0E7
:104CF000E386C1F06B86022B7FF40EAC414920465F
:104D000019F03AFE00212046FCF7B8FA204619F0C7
:104D1000F3FD2220FCF724FC3B49204619F02CFE31
:104D200000212046FCF7AAFA204619F0E5FD30499B
:104D3000204619F021FE00212046FCF79FFA20466C
:104D400019F0DAFD3149204619F016FE00212046FF
:104D5000FCF794FA204619F0CFFD2220FCF700FC66
:104D6000D6ED077A0020B8EEE70AFCF79DFB204954
:104D7000204619F001FE00212046FCF77FFA20466C
:104D800019F0BAFD2249204619F0F6FD002120460F
:104D9000FCF774FA204619F0AFFD2220FCF7E0FB87
:104DA000D6ED087A0020B8EE670AFCF77DFB1049C3
:104DB000204619F0E1FD00212046FCF75FFA20466D
:104DC00019F09AFD1349204619F0D6FD002120461E
:104DD000FCF754FA204619F08FFD2220FCF7C0FBA7
:104DE00096ED0C0AFFF788BB805602006C13FF1F7C
:104DF0007450020094560200A85602002057020088
:104E00006C570200BC560200785D0200D0560200CA
:104E1000E4560200F85602008449854D684619F0B0
:104E2000ABFD00216846FCF729FA684619F064FDDD
:104E30002220FCF795FBD5ED007A0020B8EEE70ABA
:104E4000FCF732FB7B49684619F096FD0021684665
:104E5000FCF714FA684619F04FFD7749684619F0D7
:104E60008BFD00216846FCF709FA684619F044FDFD
:104E70002220FCF775FBD5ED087A0020B8EE670A12
:104E8000FCF712FB6B49684619F076FD0021684675
:104E9000FCF7F4F9684619F02FFD6849684619F0E7
:104EA0006BFD00216846FCF7E9F9684619F024FD1E
:104EB0002220FCF755FBD5ED047A0020B8EEE70A76
:104EC000FCF7F2FA5B49684619F056FD0021684686
:104ED000FCF7D4F9684619F00FFD5949684619F0F6
:104EE0004BFD00216846FCF7C9F9684619F004FD3E
:104EF0002220FCF735FBD5ED147A0020B8EE670AC6
:104F0000FCF7D2FA4B49684619F036FD6846002195
:104F1000FCF7B4F9684619F0EFFCEE6C6C46002E15
:104F200001F03382012E00F09782AB6C404D012BD3
:104F300001F0D684C1F04584022B7FF4EDAA4149EB
:104F4000204619F019FD00212046FCF797F920466C
:104F500019F0D2FC2220FCF703FB3B49204619F054
:104F60000BFD00212046FCF789F9204619F0C4FC0E
:104F70003049204619F000FD00212046FCF77EF95B
:104F8000204619F0B9FC3149204619F0F5FC002102
:104F90002046FCF773F9204619F0AEFC2220FCF7FE
:104FA000DFFAD5ED037A0020B8EEE70AFCF77CFAC9
:104FB0002049204619F0E0FC00212046FCF75EF96C
:104FC000204619F099FC2249204619F0D5FC002111
:104FD0002046FCF753F9204619F08EFC2220FCF7FE
:104FE000BFFAD5ED0B7A0020B8EE670AFCF75CFA41
:104FF0001049204619F0C0FC00212046FCF73EF97C
:10500000204619F079FC1349204619F0B5FC00211F
:105010002046FCF733F9204619F06EFC2220FCF7FD
:105020009FFA95ED070AFFF767BA00BF80560200A6
:105030006414FF1F7450020094560200A856020028
:1050400080570200BC560200785D0200D056020074
:10505000E4560200F8560200B549B64D684619F00C
:105060008BFC00216846FCF709F9684619F044FCFE
:105070002220FCF775FAD5ED0C7A0020B8EEE70A8D
:10508000FCF712FAAC49684619F076FC0021684634
:10509000FCF7F4F8684619F02FFCA849684619F0A7
:1050A0006BFC00216846FCF7E9F8684619F024FC1F
:1050B0002220FCF755FAD5ED147A0020B8EE670AE5
:1050C000FCF7F2F99C49684619F056FC0021684645
:1050D000FCF7D4F8684619F00FFC9949684619F0B6
:1050E0004BFC00216846FCF7C9F8684619F004FC3F
:1050F0002220FCF735FAD5ED107A0020B8EEE70A49
:10510000FCF7D2F98C49684619F036FC0021684654
:10511000FCF7B4F8684619F0EFFB8A49684619F0C5
:105120002BFC00216846FCF7A9F8684619F0E4FB5F
:105130002220FCF715FAD5ED047A0020B8EEE70A34
:10514000FCF7B2F97C49684619F016FC0021684664
:10515000FCF794F8684619F0CFFB7B49684619F0D4
:105160000BFC00216846FCF789F8684619F0C4FB7F
:105170002220FCF7F5F995ED030A0020FCF794F9DD
:105180006D49684619F0F8FB00216846FCF776F88F
:10519000684619F0B1FB6D49684619F0EDFB002136
:1051A0006846FCF76BF8684619F0A6FB2220FCF76E
:1051B000D7F995ED060A0020FCF776F95E496846B6
:1051C00019F0DAFB68460021FCF758F8684619F038
:1051D00093FB6E696C46002E01F0CA81012E23D12B
:1051E0005B49684619F0C8FB00216846FCF746F8A1
:1051F000684619F081FB2220FCF7B2F95549684650
:1052000019F0BAFB00216846FCF738F8684619F037
:1052100073FB4949684619F0AFFB68460021FCF76B
:105220002DF8684619F068FBAB68023B052B3FF68A
:10523000E5A8DFE813F044088808770866085508F1
:1052400099084549204619F097FB00212046FCF7B4
:1052500015F8204619F050FB2220FCF781F93F4950
:10526000204619F089FB00212046FCF707F820466C
:1052700019F042FB3049204619F07EFB0021204600
:10528000FBF7FCFF204619F037FB3549204619F0A3
:1052900073FB00212046FBF7F1FF204619F02CFBA1
:1052A0002220FCF75DF9D5ED0D7A0020B8EEE70A73
:1052B000FCF7FAF82049204619F05EFB0021204651
:1052C000FBF7DCFF204619F017FB2649204619F0B2
:1052D00053FB00212046FBF7D1FF204619F00CFBC1
:1052E0002220FCF73DF9D5ED157A0020B8EE670ACB
:1052F000FCF7DAF81049204619F03EFB0021204661
:10530000FBF7BCFF204619F0F7FA1749204619F0C1
:1053100033FB00212046FBF7B1FF204619F0ECFAE1
:105320002220FCF71DF995ED110AFFF7E5B800BF43
:1053300080560200F813FF1F7450020094560200BA
:10534000A85602000C570200205702006C570200BA
:105350009C570200045A0200BC560200B05C0200D6
:10536000D0560200E4560200F8560200BE4920461C
:1053700019F002FB00212046FBF780FF204619F0C0
:10538000BBFA2220FCF7ECF8B849204619F0F4FAF1
:1053900000212046FBF772FF204619F0ADFAB44910
:1053A000204619F0E9FA00212046FBF767FF204666
:1053B00019F0A2FAAF49204619F0DEFA0021204682
:1053C000FBF75CFF204619F097FA2220FCF7C8F89B
:1053D000D5ED0E7A0020B8EEE70AFCF765F8A4498F
:1053E000204619F0C9FA00212046FBF747FF204666
:1053F00019F082FAA049204619F0BEFA0021204691
:10540000FBF73CFF204619F077FA2220FCF7A8F8BA
:10541000D5ED167A0020B8EE670AFCF745F89449F6
:10542000204619F0A9FA00212046FBF727FF204665
:1054300019F062FA9149204619F09EFA002120469F
:10544000FBF71CFF204619F057FA2220FCF788F8DA
:1054500095ED120AFFF750B88949684619F08CFAA1
:1054600000216846FBF70AFF684619F045FA22203A
:10547000FCF776F88349684619F07EFA0021684601
:10548000FBF7FCFE684619F037FA7949684619F0CF
:1054900073FA00216846FBF7F1FE684619F02CFA12
:1054A0007949684619F068FA00216846FBF7E6FE7C
:1054B000684619F021FA2220FCF752F8D5ED0C7A53
:1054C0000020B8EEE70AFBF7EFFF6949684619F0DC
:1054D00053FA00216846FBF7D1FE684619F00CFA32
:1054E0006A49684619F048FA00216846FBF7C6FE8B
:1054F000684619F001FA2220FCF732F895ED0F0A00
:105500000020FBF7D1FF5A49684619F035FA00210F
:105510006846FBF7B3FE684619F0EEF95C49684649
:1055200019F02AFA00216846FBF7A8FE684619F030
:10553000E3F92220FCF714F895ED0E0A0020FBF7A2
:10554000B3FF4B49684619F017FA68460021FBF78C
:1055500095FE684619F0D0F9E7E44349684619F02A
:105560000BFA00216846FBF789FE684619F0C4F97A
:105570002220FBF7F5FF4749684619F0FDF90021A5
:105580006846FBF77BFE684619F0B6F9384968466D
:1055900019F0F2F900216846FBF770FE684619F031
:1055A000ABF93D49684619F0E7F900216846FBF779
:1055B00065FE684619F0A0F92220FBF7D1FFD4ED73
:1055C000017A0020B8EEE70AFBF76EFF284968462B
:1055D00019F0D2F900216846FBF750FE684619F031
:1055E0008BF92E49684619F0C7F900216846FBF788
:1055F00045FE684619F080F92220FBF7B1FFD4ED93
:10560000097A0020B8EEE70AFBF74EFF1849684612
:1056100019F0B2F900216846FBF730FE684619F030
:105620006BF91F49684619F0A7F900216846FBF796
:1056300025FE684619F060F92220FBF791FF94EDF2
:10564000050AB8EEC00A0020FBF72EFF684608499D
:1056500019F092F968460021FBF710FE684619F030
:105660004BF904B070BD00BFBC560200787E02004A
:1056700074500200D0560200E4560200F8560200B0
:105680000C570200045A0200205702006C57020017
:105690009C570200445C02008056020094560200AF
:1056A000A8560200E549684619F066F900216846E7
:1056B000FBF7E4FD684619F01FF92220FBF750FFC5
:1056C000DF49684619F058F900216846FBF7D6FD16
:1056D000684619F011F9DB49684619F04DF90021C7
:1056E0006846FBF7CBFD684619F006F9D6496846CF
:1056F00019F042F900216846FBF7C0FD684619F031
:10570000FBF82220FBF72CFFD4ED047A0020B8EE42
:10571000E70AFBF7C9FECB49684619F02DF90021CD
:105720006846FBF7ABFD684619F0E6F8C7496846DE
:1057300019F022F900216846FBF7A0FD684619F030
:10574000DBF82220FBF70CFFD4ED007A0020B8EE46
:10575000E70AFBF7A9FEBB49684619F00DF90021DD
:105760006846FBF78BFD684619F0C6F8B8496846ED
:1057700019F002F900216846FBF780FD684619F030
:10578000BBF82220FBF7ECFE94ED080A59E7AB4981
:10579000684619F0F1F800216846FBF76FFD68468E
:1057A00019F0AAF82220FBF7DBFEAA49684619F097
:1057B000E3F800216846FBF761FD684619F09CF8A4
:1057C000A049684619F0D8F800216846FBF756FD55
:1057D000684619F091F89C49684619F0CDF8002107
:1057E0006846FBF74BFD684619F086F82220FBF768
:1057F000B7FED4ED037A0020B8EEE70AFBF754FEBB
:105800009049684619F0B8F800216846FBF736FD64
:10581000684619F071F88D49684619F0ADF8002115
:105820006846FBF72BFD684619F066F82220FBF767
:1058300097FED4ED0B7A0020B8EEE70AFBF734FEB2
:105840008049684619F098F800216846FBF716FD74
:10585000684619F051F87E49684619F08DF8002124
:105860006846FBF70BFD684619F046F82220FBF767
:1058700077FE94ED070AE4E67049684619F07CF873
:1058800000216846FBF7FAFC684619F035F822203B
:10589000FBF766FE7049684619F06EF8002168460D
:1058A000FBF7ECFC684619F027F86649684619F0E2
:1058B00063F800216846FBF7E1FC684619F01CF824
:1058C0006149684619F058F800216846FBF7D6FC94
:1058D000684619F011F82220FBF742FED4ED027A57
:1058E0000020B8EEE70AFBF7DFFD5649684619F0DD
:1058F00043F800216846FBF7C1FC684618F0FCFF3E
:105900005249684619F038F800216846FBF7B6FCA2
:10591000684618F0F1FF2220FBF722FED4ED0A7A48
:105920000020B8EEE70AFBF7BFFD4649684619F0CC
:1059300023F800216846FBF7A1FC684618F0DCFF5D
:105940004349684619F018F800216846FBF796FCB1
:10595000684618F0D1FF2220FBF702FE94ED060AFC
:105960006FE636493D4D684619F006F80021684655
:10597000FBF784FC684618F0BFFF2220FBF7F0FD20
:105980003749204618F0F8FF00212046FBF776FC47
:10599000204618F0B1FF2B49204618F0EDFF0021FA
:1059A0002046FBF76BFC204618F0A6FF2D49204649
:1059B00018F0E2FF00212046FBF760FC204618F0BB
:1059C0009BFF2220FBF7CCFDD5E904011BF0D2F9A7
:1059D00000EE100A0020FBF767FD1A49204618F078
:1059E000CBFF00212046FBF749FC204618F084FF3E
:1059F0006B68012B07D0C0F0E185302B00F0DE850D
:105A0000312B7EF489AD1849204618F0B5FF0021EE
:105A10002046FBF733FC204618F06EFF2220FBF7F0
:105A20009FFD1249204618F0A7FF20460021FBF7F2
:105A300025FC204618F060FFFEF763BDBC5602004F
:105A4000785D020074500200D0560200E456020055
:105A5000F8560200787E0200B05C02003816FF1F84
:105A6000745B02000C570200205702003C570200F2
:105A7000CA49CB4D684618F07FFF00216846FBF706
:105A8000FDFB684618F038FF2220FBF769FDC54989
:105A900077E7C249C44D684618F06EFF002168469A
:105AA000FBF7ECFB684618F027FF2220FBF758FDB8
:105AB000BE4966E7B949BE4D684618F05DFF002152
:105AC0006846FBF7DBFB684618F016FF2220FBF761
:105AD00047FDB84955E7B149B74D684618F04CFF46
