:10000000F8FF022099010000891001004110010051
:100010004110010041100100411001004110010098
:100020004110010041100100411001008910010040
:1000300089100100411001002D2B0100312C01001D
:100040008910010089100100891001008910010048
:100050008910010089100100891001008910010038
:100060008910010089100100891001008910010028
:100070008910010089100100891001008910010018
:100080008910010089100100891001008910010008
:1000900089100100891001008910010089100100F8
:1000A00089100100891001008910010089100100E8
:1000B00089100100891001008910010081420100AE
:1000C00089100100AD43010089100100B918010039
:1000D00089100100D9440100891001008910010034
:1000E00089100100891001007502010089100100CA
:1000F0008910010089100100891001008910010098
:10010000552F0100692F01007D2F0100912F010063
:1001100089100100451B01008910010089100100B0
:100120008910010089100100891001008910010067
:100130008910010089100100891001008910010057
:100140008910010089100100D145010089100100CA
:10015000C9460100891001008910010089100100C1
:100160008910010089100100891001008910010027
:100170008910010089100100891001008910010017
:100180008910010089100100891001008910010007
:100190008910010089100100584B4CF2205210B513
:1001A0001A804DF628121A8000BF00BF10F070FFB1
:1001B000534B4FF030621A60524A9A60524ADA60EA
:1001C000524B4FF470021A60514A136813F4807353
:1001D00004D150490B604FF4A85313604E4B1A786A
:1001E000110703D51A7842F008021A704B4B4C499C
:1001F0002A221A704B4A4C4B8B4204D252F8040FFD
:1002000043F8040BF8E7494B494900228B4202D2DC
:1002100043F8042BFAE74749474A002352F82300E2
:1002200041F823000133662BF8D1444B444A802126
:1002300003F8011B9342FBD1424B3E4A1A60424BEA
:100240008A221A70A3F5805324225A70A0221A70B1
:100250009A799207FCD59A79D406FCD43B4A9379D3
:1002600003F00C03082B394BF9D103221A714622F3
:100270005A719A799006FCD5344A9179334B4906E4
:10028000FBD5334A4FF08271116009215160202261
:100290001A709A7902F00C020C2AFAD12D4B2E4AD0
:1002A0001A602E4B2E4A1A6000225A60072243F829
:1002B000042C2C4AC3F80C2D62B611F025F8154B0E
:1002C0001B68DA0705D5284810F082FF274B284A1B
:1002D0001A60284B1B785B0609D5244C244B2268F6
:1002E0009A4204D1204810F073FF0023236016F0D7
:1002F000B1F910F0D3FE12F055FEFEE70E200540D6
:1003000030800440823F04000100002B88ED00E0B3
:1003100010D0034014D0034002D0074000E0074053
:100320002812FF1F54CB0100F806FF1F2812FF1FE1
:10033000C01EFF1F0002FF1F0000000000E400E0DD
:1003400056E400E008ED00E00050064000400640A2
:100350004480044004800440C010050014E000E024
:10036000BFD40100000020205F08465D1CE0034070
:10037000A5C3945A00F00740FFFFFFFFFFFFFFFFF8
:10038000FFFFFFFFFFFFFFFFFFFFFFFFFFFFFFFF7D
:10039000FFFFFFFFFFFFFFFFFFFFFFFFFFFFFFFF6D
:1003A000FFFFFFFFFFFFFFFFFFFFFFFFFFFFFFFF5D
:1003B000FFFFFFFFFFFFFFFFFFFFFFFFFFFFFFFF4D
:1003C000FFFFFFFFFFFFFFFFFFFFFFFFFFFFFFFF3D
:1003D000FFFFFFFFFFFFFFFFFFFFFFFFFFFFFFFF2D
:1003E000FFFFFFFFFFFFFFFFFFFFFFFFFFFFFFFF1D
:1003F000FFFFFFFFFFFFFFFFFFFFFFFFFFFFFFFF0D
:10040000FFFFFFFFFFFFFFFFFFFFFFFFDEF9FFFF23
:1004100010B5054C237833B9044B13B10448AFF33E
:1004200000800123237010BD2812FF1F0000000070
:1004300058CB0100084B10B51BB108490848AFF371
:1004400000800848036803B910BD074B002BFBD0A0
:10045000BDE81040184700BF000000002C12FF1F2D
:1004600058CB01002812FF1F000000000020704739
:10047000704700BF00690B699842D4BF002001207B
:10048000704700BF80698B690028B8BF4042002BCD
:10049000B8BF5B429842D4BF00200120704700BF24
:1004A000F0B586460120DEF85470DEF82C303A6A4A
:1004B000106079683A680A447A600EF12C0493B1AE
:1004C0005A69002A08DB1A6A10605E6819683D697B
:1004D0005A6931445960521B19690A445A6154F8E7
:1004E000043F002BECD1DEF82430154ADEF818402A
:1004F000DEF8640000211160DB00516803F18043E5
:1005000003F5603321440D2419611460DA68502129
:1005100022F08002DA60D96000B1F0BD7A68FB6831
:100520009A4200D0F0BDDEF80820DEF8581093683B
:1005300023F0020393600029F4D0BDE8F04008479F
:1005400000800340836A00F1280233B10120596A18
:1005500052F8043F0860002BF9D17047234A244B1E
:10056000D2ED017AD3ED006ADFED220A224A234B55
:10057000F8EEE66AF8EEE77A80EEA67A10B55468EF
:1005800093ED000A67EE277A27EE800A14F0E0FA6E
:1005900014F036FA1A4A1B4B92ED006A93ED007A7A
:1005A00072B607EE904AF8EEE77ADFED176A174B5E
:1005B000D0EE067AB8EEC77AC7EEA65A93ED1E6A59
:1005C000D3ED1D6AC5EE877A67EE867AF4EEE67A99
:1005D000C3ED1C7AD3ED207AF1EE10FAD8BFF1EE1C
:1005E000677AC3ED217A62B610BD00BF5812FF1FB3
:1005F0009C17FF1FDB0FC9404417FF1F1C14FF1F70
:100600003016FF1FD016FF1FCDCCCC3C2414FF1F8B
:10061000074A1169D36892ED057A03FB01F307EEEF
:10062000903A20EE070AF8EE677A80EE270A7047C4
:10063000D816FF1F08B511F0D1F80028D4BF4FF02D
:10064000FF30032008BD00BF036A8B4224D0C3697A
:10065000994200D070478369002BFBD010B472B66A
:100660000F4AC369846900211160DB00516803F1FE
:10067000804303F5603321440D2419611460DA6866
:10068000502122F08002DA60D96062B600695DF81C
:10069000044B03685B681847006903689B68184748
:1006A00000800340D0ED1D7A90ED1C7A2DE9F041D9
:1006B000F4EE477A466DF1EE10FA736846D1FDEE1E
:1006C000C77A17EE904AB368A3423DD0002C336836
:1006D000B4BF4FF0FF3201229A4215D000F124013D
:1006E000012508E013685B42012B13600BBF926A7F
:1006F000D36A13601D6051F8042F002AF2D1C36E33
:1007000003EB8303DB0040D184EAE475A5EBE475D9
:100710009DB383689A6812F00207804649D01A6830
:1007200034498A4240D959683348B0FBF5F5521A2A
:10073000954250D3AA1A0027012003219F60D86058
:100740001A6099601D60B460BDE8F081D0ED216A47
:10075000F5EEC06A77EEA67AF1EE10FAB4EEE77A1B
:100760001CDDF1EE10FAD8BFF0EE477ABDEEE77A65
:10077000C0ED1D7A17EE104AA5E78268936823F052
:1007800002039360B460BDE8F081013BFDD184EACF
:10079000E475A5EBE475002DEFD0BAE7F1EE10FAA1
:1007A00058BFF0EE477AE1E7134AB2FBF5F51D605A
:1007B000E8E7406903681B689847D8F80830D8F81C
:1007C00054609F6001220321DA600B4AB2FBF5F509
:1007D0001D609960D6E7D8F814000021026899607E
:1007E00001260321DE6012681D6099609047D8F8E9
:1007F0005460C7E77FA9030000879303826893686A
:100800009B0700D47047416D036F70B5044648687C
:10081000A16F1B1A002BB8BF5B428B4244D3E16F20
:100820008B4238D3616F8B4239D24D1EAB42D4F824
:1008300080003EBF0239CB1A4343D4F8880028BF5A
:100840000023184407EE900AF8EE677AB1EEE70A43
:10085000B4EE400AF1EE10FA50D1FDEEC07A17EE78
:10086000905AE5B1936813F002062BD0136826491D
:100870008B4222D951682548B0FBF5F55B1A9D42A1
:100880002FD3EB1A0024012003219460D060136061
:100890009160156070BDD4F88450002DE2D193684A
:1008A00023F00203936070BDD4F88000D4F8881060
:1008B00000FB031307EE903AC6E7144BB3FBF5F5C4
:1008C000156070BD606903681B689847A3680F4A8C
:1008D0009E6001200321D860B2FBF5F51D60996090
:1008E00070BD6069036800260124032196601B68BF
:1008F000D46015609160BDE870401847B0EE670A9B
:1009000014F086F9A268A8E77FA903000087930383
:1009100070B5044608460D4616F012FF23680246DD
:10092000294620465B68BDE870401847032827D851
:10093000DFE800F01D140B021C4B89B393F858102C
:10094000042081F0010110F055BC184B19B393F845
:100950005B10112081F0010110F04CBC134BA9B1C8
:1009600093F85A10162081F0010110F043BC0F4B90
:1009700039B193F859100E2081F0010110F03ABC02
:1009800070470E2093F8591010F034BC162093F8DD
:100990005A1010F02FBC112093F85B1010F02ABCF5
:1009A000042093F8581010F025BC00BFD816FF1F84
:1009B0002DE9F041C04D8CB001210D2010F02EFC2E
:1009C0002B680793079A2B680693069BBA4C9B1AD1
:1009D0000E2BF8D9B94BBA481E68052111F040FF1B
:1009E00000230A223146B74812F030FBB54812F016
:1009F0001DFB40F2124010F06DFD0C21B24810F0CA
:100A0000B9FE0321B14810F0B5FE23680593059A9D
:100A10002B680493049BA84C9B1A312BF8D90C210A
:100A2000A94810F0A7FE0321A84810F0A3FE2368F0
:100A30000393039A2B680293029B9F4C9B1A312BC2
:100A4000F8D90721A24810F095FE03219F4810F025
:100A500091FE23680193019A2B680093009B9B1AD7
:100A6000312BF9D99B4B9C4F1B683E46C7EB0308C3
:100A700034465C3708EB040010F028FA04F8010B48
:100A8000A742F7D1954B964F1B683C46C7EB03082E
:100A9000343708EB040010F019FA04F8010BA742F0
:100AA000F7D1904B904F1B683C46C7EB0308343797
:100AB00008EB040010F00AFA04F8010BA742F7D182
:100AC0008A4B8B4F1B683C46C7EB0308343708EB57
:100AD000040010F0FBF904F8010BA742F7D1854B95
:100AE000854F1B683C46C7EB0308103708EB040032
:100AF00010F0ECF904F8010BA742F7D17F4B804FBF
:100B00001C6804F10C08204610F0E0F90134A045FF
:100B100007F8010BF7D17B4B7B4F1C6804F10C08E5
:100B2000204610F0D3F90134A04507F8010BF7D1A6
:100B3000764B774F1C6804F10C08204610F0C6F97C
:100B40000134A04507F8010BF7D1724B724F1B68B7
:100B50003C46C7EB0308243708EB040010F0B6F955
:100B600004F8010BA742F7D16C4B6D4F1B683C4654
:100B7000C7EB0308443708EB040010F0A7F904F8AA
:100B8000010BA742F7D1674B674F1B683C46C7EB89
:100B900003085C3708EB040010F098F904F8010B27
:100BA000A742F7D1614B624F1B683C46C7EB030875
:100BB000303708EB040010F089F904F8010BA74264
:100BC000F7D15C4B5C4F1B683C46C7EB03081837FA
:100BD00008EB040010F07AF904F8010BA742F7D1F2
:100BE000564B574F1B683C46C7EB0308183708EBBA
:100BF000040010F06BF904F8010BBC42F7D101219D
:100C0000042010F00BFB01210E2010F007FB012146
:100C1000162010F003FB0121112010F0FFFA002133
:100C20000220FFF783FE307E022110F0F7FA4FF426
:100C3000C8740221307F10F0F1FA2346013BFDD148
:100C40000121307E10F0D6FA307F012110F0D2FA67
:100C500096F82C00022110F0E1FA96F830000221FB
:100C600010F0DCFA2346013BFDD1012196F82C005F
:100C700010F0C0FA96F83000012110F0BBFA96F897
:100C80004000022110F0CAFA96F84400022110F048
:100C9000C5FA96F84000012110F0ACFA96F844002D
:100CA000012110F0A7FA013CFDD1FE2125480DF0ED
:100CB000E5F8042148E000BF501AFF1FB01EFF1FD7
:100CC00064AE0100C807FF1F6CAE01007CAE0100DE
:100CD00080AE01002807FF1FD816FF1F4C07FF1F1B
:100CE000D012FF1F0407FF1F4C13FF1F3807FF1F01
:100CF0008013FF1F4807FF1FCC15FF1F1407FF1F9E
:100D0000AC16FF1F2007FF1FB816FF1F1807FF1F95
:100D1000C416FF1F3407FF1F3816FF1FFC06FF1FF6
:100D20000813FF1F0007FF1FCC14FF1F4407FF1FFE
:100D30009012FF1F2407FF1FDC15FF1F1C07FF1F5A
:100D4000AC14FF1FA017FF1F26480FF0B5FD96F843
:100D50005820002A34D000210320FFF7E7FD0E21A0
:100D600021480FF0A9FD96F85920002A34D0162109
:100D70001E480FF0A1FD96F85A203AB31C4E0324EA
:100D800001210D2010F036FA2B680B930B9A2B687B
:100D90000A930A9B9B1A312BF9D900210D2010F0E0
:100DA00029FA33680993099A2B680893089B9B1AC0
:100DB000B3F5967FF8D3013CE2D10CB0BDE8F081E9
:100DC0000123114607480FF08DFDC4E701231146AA
:100DD00006480FF087FDD1E70123114602480FF0C6
:100DE00081FDC4E7BC13FF1F7815FF1F2815FF1FE7
:100DF000501AFF1F2DE9F04385B00DF10409044698
:100E00004E4600254FF0FF3803E02E2808BFA846C5
:100E10000135236820465B699847C0B2FF2806F871
:100E2000010BF2D102E023685B69984723682046F2
:100E30001B69984700282046F5DC00260027CDB125
:100E40000024A0454FF00002174B304639460ED023
:100E500015F090F8064619F804000F46303815F0E2
:100E600023F832463B4614F0D3FE06460F460134C3
:100E7000A542E6D1B8F1FF3F10D0013DC8EB050512
:100E8000002D0BDD0024304639460022064B15F0BC
:100E90009BF90134A54206460F46F4D147EC106B8E
:100EA00005B0BDE8F08300BF00002440FFFFFFFF56
:100EB000012805D0032803D028B19FED050B70470A
:100EC0000548FFF797BF0548FFF794BFAFF30080D1
:100ED000000000000000F0BFA807FF1FC807FF1FA9
:100EE00010B510F08BFCC4B201E010F087FC10F0DC
:100EF00075FC0028F9DC204610BD00BF08B511F0D4
:100F000085FC002825DD184B1B6853B110F076FCDA
:100F1000164BC0B2432818700AD0632808D00020AE
:100F200008BD11F037FC114BC0B243281870F4D142
:100F300000210320FFF7FAFC0D4B196879B1012954
:100F400005D100210120FFF7F1FC012008BD01209F
:100F500008BDFFF76FFB0028D5DA002008BD01208F
:100F6000FFF7E4FCEDE700BF1007FF1FB813FF1FFA
:100F70009012FF1FF8B52D4C2D4D27686368D4EDF6
:100F8000026A95ED036A2B4A2B492C4E03FB07F3AB
:100F900007EE903AF8EE677A07EE100A67EEA67A47
:100FA000B8EEC77AC7EE866A00230B601360C6EE00
:100FB000877A17EE900A14F089FF41EC100B13F0BA
:100FC000C7FC51EC100B15F085FA2B6830601BB391
:100FD000012B20D1D5ED065A94ED0A6A94ED097AD9
:100FE000D4ED087A164CC5EE866AB8EE477AF8EE6C
:100FF000677A26EE877A67EE277A17EE900A14F062
:1010000065FF41EC100B13F0A3FC51EC100B15F035
:1010100061FA2060F8BDF8BDD5ED065A94ED056A79
:1010200094ED047AD4ED037ADCE700BFD816FF1FF5
:101030009012FF1F5412FF1F8017FF1FC414FF1FC1
:101040003416FF1F70B511213C483D4C10F092FB47
:1010500003213C4810F08EFB11213B4810F08AFB25
:101060000321384810F086FB1121384810F082FB2C
:101070000321344810F07EFB1121354810F07AFB33
:101080000321304810F076FB324A33491668536822
:101090000D6892ED027ADFED316A3148216803FB79
:1010A00006F307EE903A06EE105AF8EE677AB8EEBD
:1010B000C66A67EE877A2B4B86EE277A67EE267A2A
:1010C000C0ED007A79B301290DD01868264A274B64
:1010D0001060002103201D60FFF728FC2168C9B1C2
:1010E00001291AD070BD1868516A136A92ED0A7A04
:1010F0001F4A07EE900AF8EEE77A03FB01F327EEAA
:10110000877A07EE903AF8EE677AC7EE276AC2ED63
:10111000006ADBE70120FFF709FC00210120BDE8A0
:101120007040FFF703BC186807EE900AB8EEE70AB4
:10113000FFF76EFA0E4B83ED000AC7E788AE010099
:101140009012FF1F7CAE01009CAE0100B0AE01000A
:10115000C4AE0100D816FF1F8017FF1F0000B44364
:101160005C16FF1F5412FF1F0413FF1FC815FF1F3B
:10117000F415FF1F2DE9F0412DED048B322184B0D1
:1011800008EE900A8548864EB0EE408AB0EE609A2E
:1011900011F066FB834811F049FF002182480FF0EF
:1011A00013FA01210320FFF7C1FB28EE098AF8EEAC
:1011B000E88A7D4828EE288AFDEEC87A17EE901A54
:1011C0000FF090FA3368002B40F0E580774C2268EE
:1011D00023699FED770A7448764D9FED758A03FB6E
:1011E00002F307EE903AF8EEE77A002727EE800A3E
:1011F0000FF02EFB94ED010A6B486F4CB8EE400ADD
:101200000FF052FB68480FF0D9F9002848D011F0D0
:10121000FDFA002840F389802368002B50D111F09B
:10122000B9FAC0B2654B632818704ED04BD9F92873
:101230005BD0FE282CD1624A13680393039913688C
:101240000293029B5B1A092BF9D93368002B71D0EA
:10125000012B1DD12068DFF87481FFF729FE51ECC6
:10126000100B15F037F9D8F80030C8F8100003FB60
:1012700000F300EE103AB8EEC00A4B4820EE080A20
:101280000FF0E6FA4F4B4046196818220FF060FE47
:1012900045480FF081FA44480FF090F90028B6D184
:1012A00001460320FFF742FB3F480FF08BF92B6804
:1012B00018442860384604B0BDEC048BBDE8F081CA
:1012C00010F09CFAADE74328E2D137480FF07AF9E5
:1012D0002B680021034434482B600FF075F900217E
:1012E0000320FFF723FB0127D2E7354A1368019358
:1012F000019913680093009B5B1A092BF9D9336895
:10130000BBB3012BC4D12068DFF8C080FFF7D0FD4C
:1013100051EC100B15F0DEF82A4BC8F814001968D0
:10132000404618220FF014FEB2E7FFF783F90028B9
:10133000AEDB71E72068DFF87480FFF7B9FD51EC90
:10134000100B15F0C7F8D8F80030C8F8100003FBF0
:1013500000F300EE103AB8EEC00A134820EE080A77
:101360000FF076FA184B4046196818220FF0F0FD7E
:101370008EE72068DFF83480FFF79AFD51EC100B00
:1013800015F0A8F8104BC8F8140019684046182248
:101390000FF0DEFDB7E70D4C19E700BFD8AE010036
:1013A0009012FF1FC807FF1FBC13FF1FDC15FF1F94
:1013B0000AD7233C8017FF1F1007FF1FB813FF1F1A
:1013C000501AFF1F1C07FF1F2407FF1FAC14FF1F2D
:1013D0002DE9F0412DED068B0F4684B02C2109EE4E
:1013E000900A7248724D9FED739A734CB0EE60AAEA
:1013F000F0EE408A11F034FA704811F017FE002127
:101400006F480FF0E1F801210020FFF78FFAAA687A
:101410006B69D5ED037A6A4803FB02F308EE103AD4
:10142000B8EEC88AB8EE670A28EE098A0FF03CFACF
:10143000B0EE480A62480FF00BFA68EE8A8AF8EEBE
:10144000E99A5F4868EEA98A0026FDEEE87A17EE71
:10145000901A0FF047F95A480FF0B0F801460028EB
:101460003DD011F0D3F9002840F38C802368002B85
:101470004CD111F08FF9C0B2524B6328187070D064
:101480006DD9F92845D0FE2820D14F4A136803931F
:10149000039913680293029B5B1A092BF9D94B4BF2
:1014A0001B68002B73D0012B10D12068DFF830812E
:1014B000FFF7FEFC51EC100B15F00CF8444BC8F88C
:1014C00010001968404618220FF042FD3C480FF00A
:1014D00063F93B480FF072F801460028C1D1FFF7CD
:1014E00025FA37B136480FF06DF83A4A13681844B8
:1014F00010602B21384811F0B3F9304811F096FDF7
:10150000304604B0BDEC068BBDE8F08110F076F9F2
:10151000B1E72D4A13680193019913680093009B6A
:101520005B1A092BF9D92068FFF7C2FC51EC100BAC
:1015300014F0D0FFAB68024603FB02F300EE103A52
:10154000B8EEC00A1E486A6120EE090A0FF080F961
:10155000224B1748196818220FF0FAFCB6E7432807
:10156000B4D117480FF02EF81A4A1368002103442B
:10157000134813600FF028F800210846FFF7D6F94A
:101580000126A3E7FFF756F800289FDB6EE72068E7
:10159000FFF78EFC51EC100B14F09CFF0F4B2861F1
:1015A0001968034818220FF0D3FC8FE70CAF010035
:1015B000DC15FF1F0AD7233C1007FF1FC807FF1FBA
:1015C0007815FF1FB813FF1F501AFF1F9012FF1F3F
:1015D0001C07FF1F5412FF1F3CAF01002407FF1F11
:1015E000AC14FF1F2DE9F0412DED068B0F4684B0A2
:1015F0002C2109EE900A6F486F4D9FED709A704C48
:10160000B0EE60AAF0EE408A11F02AF96D4811F0B0
:101610000DFD00216C480EF0D7FF01210846FFF7B1
:1016200085F9AA686B69D5ED037A674803FB02F375
:1016300008EE103AB8EEC88AB8EE670A28EE098AB2
:101640000FF032F9B0EE480A5F480FF001F968EE8A
:101650008A8AF8EEE99A5C4868EEA98A0026FDEECF
:10166000E87A17EE901A0FF03DF857480EF0A6FFF3
:10167000002839D011F0CAF8002840F3838023688D
:10168000002B43D111F086F8C0B2504B632818707C
:1016900067D064D9F9283CD0FE281DD14C4A136884
:1016A0000393039913680293029B5B1A092BF9D9E0
:1016B000484B1B68002B6AD0012B0DD12068FFF727
:1016C000F7FB51EC100B14F005FF434B2861196830
:1016D000394818220FF03CFC3B480FF05DF83A48BF
:1016E0000EF06CFF0028C5D101460120FFF71EF95E
:1016F00037B135480EF066FF384A13681844106059
:10170000304604B0BDEC068BBDE8F08110F076F8F1
:10171000BAE72F4A13680193019913680093009B5D
:101720005B1A092BF9D92068FFF7C2FB51EC100BAB
:1017300014F0D0FEAB68024603FB02F300EE103A51
:10174000B8EEC00A20486A6120EE090A0FF080F85E
:10175000214B1948196818220FF0FAFBBCE74328FF
:10176000BAD119480EF02EFF1C4A13680021034419
:10177000154813600EF028FF00210120FFF7D6F86E
:101780000126A9E7FEF756FF0028A5DB77E72068CA
:10179000DFF85080FFF78CFB51EC100B14F09AFE31
:1017A0000F4BC8F810001968404618220FF0D0FB04
:1017B00092E700BF68AF0100AC14FF1F0AD7233CBB
:1017C0001007FF1FC807FF1F2815FF1FB813FF1FB3
:1017D000501AFF1F9012FF1F1C07FF1F5412FF1FFC
:1017E0002407FF1FDC15FF1F0C4B0D4A1B681268F6
:1017F00010B503FB00F001215AB1FFF7F3FE0446D8
:101800001721084811F02CF8074811F00FFC20466A
:1018100010BDFFF7DDFD0446F2E700BF3C07FF1FE8
:101820009012FF1F98AF0100C807FF1F2DE9F84F66
:10183000DFF8C082D8F81430012B14BF0820042030
:10184000FFF798FBD8F81030002B40F34A81A74DE2
:10185000A74CA9460127D8F81460002E00F04C814F
:10186000012E40F03881D4ED007ADFF884A2B8EE82
:10187000E70A3046F0EE080AFFF77CFC8346FFF7E4
:101880003DFB002840F02D81BBF1000F40F0298185
:10189000D5ED007A4FF0FF30B8EEE70AF0EE000A1F
:1018A000FFF7A2FF8346FFF729FB002840F01981CC
:1018B000BBF1000F40F015819AED000A4FF0FF30A8
:1018C000B8EEC00AF7EE000AFFF754FC8246FFF7B5
:1018D00015FB002840F00581BAF1000F40F00181AE
:1018E000D9ED007A3046B8EEE70AF7EE000AFFF7C6
:1018F0007BFF0646FFF702FB002840F0F280002E37
:1019000040F0EF80D4ED007A4FF0FF30B8EEE70AF8
:10191000F7EE000AFFF72EFC0646FFF7EFFA002865
:1019200040F0DF80002E40F0DC80D5ED007A4FF0F3
:10193000FF30B8EEE70AF0EE000AFFF755FF064663
:10194000FFF7DCFA002840F0CC80002E40F0C98080
:10195000D4ED007A0120B8EEE70AF0EE080AFFF7AE
:1019600009FC0646FFF7CAFA002840F0BA80002EAC
:1019700040F0B780D5ED007A0120B8EEE70AF1EE2D
:10198000000AFFF731FF0646FFF7B8FA002840F0DB
:10199000A880002E40F0A580D5ED007A4FF0FF30F2
:1019A000B8EEE70AF2EE000AFFF71EFF0646FFF761
:1019B000A5FA002840F09580002E40F09280D4EDEA
:1019C000007A4FF0FF30B8EEE70AF0EE080AFFF7B2
:1019D000D1FB0646FFF792FA002840F08280002EE5
:1019E0007FD1D5ED007A0120B8EEE70AF0EE000ACB
:1019F000FFF7FAFE0646FFF781FA002871D1002EA4
:101A00006FD1D4ED007A0120B8EEE70AF7EE000AB4
:101A1000FFF7B0FB0646FFF771FA002861D1002EF0
:101A20005FD1D5ED007A4FF0FF30B8EEE70AF7EE60
:101A3000000AFFF7D9FE0646FFF760FA002850D1EA
:101A4000002E4ED1D4ED007A0120B8EEE70AF7EE71
:101A5000000AFFF78FFB0646FFF750FA002840D137
:101A6000FEBBD5ED007A0120B8EEE70AF0EE000AE1
:101A7000FFF7BAFE0646FFF741FA90BB8EBBD4EDE6
:101A8000007A4FF0FF30B8EEE70AF0EE080AFFF7F1
:101A900071FB0646FFF732FA18BB16BBD5ED007A8C
:101AA0000120B8EEE70AF1EE000AFFF79DFE0646B8
:101AB000FFF724FAA8B9A6B9D5ED007A4FF0FF30A8
:101AC000B8EEE70AF2EE000AFFF78EFE0646FFF7D1
:101AD00015FA30B92EB9D8F810300137BB42BFF62D
:101AE000BAAEBDE8F84FFFF7ADBA00BF3416FF1F1E
:101AF000C414FF1F9012FF1FD5ED007A0120B8EE2D
:101B0000E70AF0EE080AFFF76FFE0646FFF7F6F960
:101B10000028E6D1002EE4D1D4ED007A974EB8EE3D
:101B2000E70A4FF0FF30F0EE000AFFF723FB824692
:101B3000FFF7E4F90028D4D1BAF1000FD1D1D9EDE3
:101B4000007A4FF0FF30B8EEE70AF7EE000AFFF731
:101B50004BFE8246FFF7D2F90028C2D1BAF1000F3E
:101B6000BFD196ED000A0120B8EEC00AF7EE000AD8
:101B7000FFF700FB0646FFF7C1F90028B1D1002EA0
:101B8000AFD1D9ED007A4FF0FF30B8EEE70AF7EEAB
:101B9000000AFFF729FE0646FFF7B0F90028A0D19A
:101BA000002E9ED1D4ED007A4FF0FF30B8EEE70A58
:101BB000F0EE000AFFF7DEFA0646FFF79FF900286D
:101BC0008FD1002E8DD1D5ED007A0120B8EEE70A35
:101BD000F0EE080AFFF708FE0646FFF78FF9002827
:101BE0007FF47FAF002E7FF47CAFD4ED007A01202C
:101BF000B8EEE70AF1EE000AFFF7BCFA0646FFF777
:101C00007DF900287FF46DAF002E7FF46AAFD4ED2C
:101C1000007A4FF0FF30B8EEE70AF2EE000AFFF765
:101C2000A9FA0646FFF76AF900287FF45AAF002E9A
:101C30007FF457AFD5ED007A4FF0FF30B8EEE70AEA
:101C4000F0EE080AFFF7D0FD0646FFF757F9002827
:101C50007FF447AF002E7FF444AFD4ED007A01202B
:101C6000B8EEE70AF0EE000AFFF784FA0646FFF73F
:101C700045F900287FF435AF002E7FF432AFD5ED63
:101C8000007A0120B8EEE70AF7EE000AFFF7ACFD94
:101C90000646FFF733F900287FF423AF002E7FF4C8
:101CA00020AFD4ED007A4FF0FF30B8EEE70AF7EE40
:101CB000000AFFF75FFA0646FFF720F900287FF4D5
:101CC00010AF002E7FF40DAFD5ED007A0120B8EEF5
:101CD000E70AF7EE000AFFF787FD0646FFF70EF961
:101CE00000287FF4FEAE002E7FF4FBAED4ED007A28
:101CF0000120B8EEE70AF0EE000AFFF73BFA0646CD
:101D0000FFF7FCF800287FF4ECAE002E7FF4E9AE7C
:101D1000D5ED007A4FF0FF30B8EEE70AF0EE080A92
:101D2000FFF762FD0646FFF7E9F800287FF4D9AE19
:101D3000002E7FF4D6AED4ED007A0120B8EEE70A8B
:101D4000F1EE000AFFF716FA0646FFF7D7F800286B
:101D50007FF4C7AE002E7FF4C4AED4ED007A4FF00E
:101D6000FF30B8EEE70AF2EE000AFFF703FA064684
:101D7000FFF7C4F800283FF4ADAEB2E6C414FF1F6D
:101D80002DE9F84FE24F7B69012B14BF0D20042091
:101D9000FFF7F0F83B69002B40F34382DD4CDE4D4A
:101DA000A1464FF001087E69002E00F03E82012E10
:101DB00040F03182D5ED007ADFF85CA3B8EEE70A97
:101DC0004FF0FF30F7EE000AFFF70EFD8346FFF7F6
:101DD00095F8002840F02582BBF1000F40F02182E9
:101DE000D4ED007A3046B8EEE70AF0EE080AFFF7C5
:101DF000C1F90646FFF782F8002840F01282002E53
:101E000040F00F829AED000A4FF0FF30B8EEC00AA2
:101E1000F0EE000AFFF7E8FC0646FFF76FF800282F
:101E200040F0FF81002E40F0FC81D9ED007A4FF0A8
:101E3000FF30B8EEE70AF7EE000AFFF79BF9064617
:101E4000FFF75CF8002840F0EC81002E40F0E981BB
:101E5000D5ED007A0120B8EEE70AF7EE000AFFF7A9
:101E6000C3FC0646FFF74AF8002840F0DA81002E4E
:101E700040F0D781D4ED007A4FF0FF30B8EEE70A9A
:101E8000F7EE000AFFF776F90646FFF737F8002865
:101E900040F0C781002E40F0C481D5ED007A4FF0AC
:101EA000FF30B8EEE70AF0EE080AFFF79DFC0646A1
:101EB000FFF724F8002840F0B481002E40F0B181F3
:101EC000D4ED007A0120B8EEE70AF7EE000AFFF73A
:101ED00051F90646FFF712F8002840F0A281002EC3
:101EE00040F09F81D5ED007A0120B8EEE70AF7EEC9
:101EF000000AFFF779FC0646FFF700F8002840F0DB
:101F00009081002E40F08D81D4ED007A0120B8EE52
:101F1000E70AF7EE000AFFF72DF90646FEF7EEFF97
:101F2000002840F07E81002E40F07B81D5ED007AC4
:101F30004FF0FF30B8EEE70AF0EE000AFFF754FC6E
:101F40000646FEF7DBFF002840F06B81002E40F0D4
:101F50006881D4ED007A4FF0FF30B8EEE70AF0EE7A
:101F6000080AFFF707F90646FEF7C8FF002840F009
:101F70005881002E40F05581D5ED007A0120B8EE51
:101F8000E70AF1EE080AFFF72FFC0646FEF7B6FF58
:101F9000002840F04681002E40F04381D4ED007AC5
:101FA0000120B8EEE70AF1EE000AFFF7E3F8064673
:101FB000FEF7A4FF002840F03481002E40F031816C
:101FC000D5ED007A4FF0FF30B8EEE70AF1EE0C0ADB
:101FD000FFF70AFC0646FEF791FF002840F021813A
:101FE000002E40F01E81D4ED007A4FF0FF30B8EEA5
:101FF000E70AF0EE080AFFF7BDF80646FEF77EFF97
:10200000002840F00E81002E40F00B81D5ED007AC3
:102010004FF0FF30B8EEE70AF0EE000AFFF7E4FBFE
:102020000646FEF76BFF002840F0FB80002E40F0D4
:10203000F880D4ED007A0120B8EEE70AF7EE000A46
:10204000FFF798F80646FEF759FF002840F0E980B0
:10205000002E40F0E680D5ED007A0120B8EEE70AC8
:10206000F7EE000AFFF7C0FB0646FEF747FF002821
:1020700040F0D780002E40F0D480D4ED007A0120CB
:10208000B8EEE70AF7EE000AFFF774F80646FEF727
:1020900035FF002840F0C580002E40F0C280D5ED0D
:1020A000007A4FF0FF30B8EEE70AF0EE080AFFF7CB
:1020B0009BFB0646FEF722FF002840F0B280002E70
:1020C00040F0AF80D4ED007A4FF0FF30B8EEE70A71
:1020D000F7EE000AFFF74EF80646FEF70FFF00285E
:1020E00040F09F80002E40F09C80D5ED007A0120CA
:1020F000B8EEE70AF7EE000AFFF776FB0646FEF7B2
:10210000FDFE002840F08D80002E40F08A8005E022
:102110009012FF1FC414FF1F3416FF1FD4ED007A66
:102120004FF0FF30B8EEE70AF7EE000AFFF722F8AB
:102130000646FEF7E3FE002873D1002E71D1D5EDDF
:10214000007A4FF0FF30B8EEE70AF0EE000AFFF732
:102150004BFB0646FEF7D2FE002862D1002E60D16E
:10216000D4ED007A0120B8EEE70AF0EE080AFFF796
:1021700001F80646FEF7C2FE002852D1002E50D1CB
:10218000D5ED007A0120B8EEE70AF1EE040AFFF778
:102190002BFB0646FEF7B2FE002842D1002E40D1AE
:1021A000D5ED007A4FF0FF30B8EEE70AF1EE080AFD
:1021B000FFF71AFB0646FEF7A1FE90BB8EBBD4EDDF
:1021C000007A4FF0FF30B8EEE70AF1EE000AFEF7B2
:1021D000D1FF0646FEF792FE18BB16BBD5ED007A7E
:1021E0000120B8EEE70AF1EE0C0AFFF7FDFA064609
:1021F000FEF784FEA8B9A6B9D5ED007A4FF0FF30FE
:10220000B8EEE70AF1EE0C0AFFF7EEFA0646FEF723
:1022100075FE30B92EB93B6908F101084345BFF698
:10222000C2ADBDE8F84FFEF70DBFD4ED007A4FF018
:10223000FF30B8EEE70AF7EE000AFEF79BFF06460E
:10224000FEF75CFE0028ECD1002EEAD1D5ED007A35
:10225000D94EB8EEE70A0120F0EE080AFFF7C4FAFB
:102260008246FEF74BFE0028DBD1BAF1000FD8D131
:10227000D9ED007A4FF0FF30B8EEE70AF0EE000A31
:10228000FEF778FF8246FEF739FE0028C9D1BAF181
:10229000000FC6D196ED000A4FF0FF30B8EEC00A2D
:1022A000F7EE000AFFF7A0FA0646FEF727FE002821
:1022B000B7D1002EB5D1D9ED007A0120B8EEE70AEA
:1022C000F7EE000AFEF756FF0646FEF717FE002857
:1022D000A7D1002EA5D1D5ED007A4FF0FF30B8EE92
:1022E000E70AF7EE000AFFF77FFA0646FEF706FE5A
:1022F000002896D1002E94D1D4ED007A4FF0FF3013
:10230000B8EEE70AF0EE080AFEF734FF0646FEF7DD
:10231000F5FD002885D1002E83D1D5ED007A01206E
:10232000B8EEE70AF7EE000AFFF75EFA0646FEF798
:10233000E5FD00287FF475AF002E7FF472AFD4ED79
:10234000007A0120B8EEE70AF7EE000AFEF712FF66
:102350000646FEF7D3FD00287FF463AF002E7FF41E
:1023600060AFD5ED007A0120B8EEE70AF7EE000A7B
:10237000FFF73AFA0646FEF7C1FD00287FF451AF99
:10238000002E7FF44EAFD4ED007A4FF0FF30B8EE60
:10239000E70AF0EE000AFEF7EDFE0646FEF7AEFD98
:1023A00000287FF43EAF002E7FF43BAFD5ED007ADE
:1023B0004FF0FF30B8EEE70AF0EE080AFFF714FA24
:1023C0000646FEF79BFD00287FF42BAF002E7FF41E
:1023D00028AFD4ED007A0120B8EEE70AF1EE080A42
:1023E000FEF7C8FE0646FEF789FD00287FF419AF08
:1023F000002E7FF416AFD5ED007A0120B8EEE70A83
:10240000F1EE000AFFF7F0F90646FEF777FD002827
:102410007FF407AF002E7FF404AFD4ED007A4FF0C5
:10242000FF30B8EEE70AF1EE0C0AFEF7A3FE06460F
:10243000FEF764FD00287FF4F4AE002E7FF4F1AEC9
:10244000D5ED007A4FF0FF30B8EEE70AF0EE080A5B
:10245000FFF7CAF90646FEF751FD00287FF4E1AE0A
:10246000002E7FF4DEAED4ED007A4FF0FF30B8EEF0
:10247000E70AF0EE000AFEF77DFE0646FEF73EFD97
:1024800000287FF4CEAE002E7FF4CBAED5ED007ADF
:102490000120B8EEE70AF7EE000AFFF7A5F90646B5
:1024A000FEF72CFD00287FF4BCAE002E7FF4B9AE01
:1024B000D4ED007A0120B8EEE70AF7EE000AFEF745
:1024C00059FE0646FEF71AFD00287FF4AAAE002E3C
:1024D0007FF4A7AED5ED007A0120B8EEE70AF7EE5B
:1024E000000AFFF781F90646FEF708FD00287FF491
:1024F00098AE002E7FF495AED4ED007A4FF0FF3009
:10250000B8EEE70AF0EE080AFEF734FE0646FEF7DC
:10251000F5FC00287FF485AE002E7FF482AED5ED69
:10252000007A4FF0FF30B8EEE70AF7EE000AFFF747
:102530005BF90646FEF7E2FC00287FF472AE002E3F
:102540007FF46FAED4ED007A0120B8EEE70AF7EE23
:10255000000AFEF70FFE0646FEF7D0FC00287FF4C7
:1025600060AE002E7FF45DAED5ED007A4FF0FF3007
:10257000B8EEE70AF7EE000AFFF736F90646FEF76F
:10258000BDFC00287FF44DAE002E7FF44AAED4EDA2
:10259000007A4FF0FF30B8EEE70AF0EE000AFEF7DF
:1025A000E9FD0646FEF7AAFC00287FF43AAE002EAD
:1025B0007FF437AE02E000BF3416FF1FD5ED007A7E
:1025C0000120B8EEE70AF0EE080AFFF70DF906461B
:1025D000FEF794FC00287FF424AE002E7FF421AE99
:1025E000D4ED007A0120B8EEE70AF1EE040AFEF716
:1025F000C1FD0646FEF782FC00287FF412AE002ED5
:102600007FF40FAED4ED007A4FF0FF30B8EEE70A5A
:10261000F1EE080AFEF7AEFD0646FEF76FFC002855
:102620007FF4FFAD002E7FF4FCADD5ED007A4FF0C6
:10263000FF30B8EEE70AF1EE000AFFF7D5F80646DC
:10264000FEF75CFC00287FF4ECAD002E7FF4E9ADD2
:10265000D4ED007A0120B8EEE70AF1EE0C0AFEF79D
:1026600089FD0646FEF74AFC00287FF4DAAD002E0D
:102670007FF4D7ADD4ED007A4FF0FF30B8EEE70A23
:10268000F1EE0C0AFEF776FD0646FEF737FC002851
:102690003FF4C0ADC5E500BF2DE9F84F944E736916
:1026A000012B14BF04200320FEF764FC3369002BC8
:1026B00040F39080DFF840828E4FC1460125746957
:1026C000002C00F08B80012C7FD1D7ED007ADFF851
:1026D00024A2B8EEE70A2046F0EE080AFEF74AFD0B
:1026E0008346FEF70BFC002874D1BBF1000F71D1BB
:1026F000D8ED007A4FF0FF30B8EEE70AF0EE080AA6
:10270000FFF772F88346FEF7F9FB002862D1BBF1B0
:10271000000F5FD19AED000A4FF0FF30B8EEC00A0B
:10272000F0EE000AFEF726FD8246FEF7E7FB0028E2
:1027300050D1BAF1000F4DD1D9ED007A2046B8EE54
:10274000E70AF7EE000AFFF74FF80446FEF7D6FB5C
:1027500000283FD1F4BBD7ED007A0120B8EEE70A9C
:10276000F7EE000AFEF706FD0446FEF7C7FB88BB3E
:1027700084BBD8ED007A0120B8EEE70AF7EE000A34
:10278000FFF732F80446FEF7B9FB18BB14BBD7EDD0
:10279000007A4FF0FF30B8EEE70AF0EE000AFEF7DD
:1027A000E9FC0446FEF7AAFBA0B99CB9D8ED007A73
:1027B0004FF0FF30B8EEE70AF0EE080AFFF714F822
:1027C0000446FEF79BFB28B924B933690135AB42B7
:1027D000BFF675AFBDE8F84FFEF734BCD8ED007A10
:1027E0000120B8EEE70AF0EE080AFEF7FDFF044606
:1027F000FEF784FB0028EDD1002CEBD1D7ED007A59
:102800003C4CB8EEE70A4FF0FF30F0EE080AFEF756
:10281000B1FC8246FEF772FB0028DBD1BAF1000F53
:10282000D8D1D9ED007A4FF0FF30B8EEE70AF0EEDC
:10283000000AFEF7D9FF8246FEF760FB0028C9D1E7
:10284000BAF1000FC6D194ED000A0120B8EEC00A1B
:10285000F7EE000AFEF78EFC0446FEF74FFB002859
:10286000B8D1002CB6D1D9ED007A0120B8EEE70A34
:10287000F7EE000AFEF7B8FF0446FEF73FFB00281C
:10288000A8D1002CA6D1D7ED007A0120B8EEE70A36
:10289000F7EE000AFEF76EFC0446FEF72FFB002859
:1028A00098D1002C96D1D8ED007A4FF0FF30B8EED9
:1028B000E70AF0EE000AFEF797FF0446FEF71EFB5C
:1028C000002887D1002C85D1D7ED007A4FF0FF305A
:1028D000B8EEE70AF0EE080AFEF74CFC0446FEF7F5
:1028E0000DFB00283FF470AFBDE8F84FFEF7AABB20
:1028F0009012FF1FC414FF1F3416FF1F2DE9F84F5D
:10290000DFF87882D8F81430012B14BF0820032098
:10291000FEF730FBD8F81030002B40F32781954D9F
:10292000954CA9460127D8F81460002E00F02881A4
:10293000012E40F01581D4ED007ADFF83CA2B8EE0C
:10294000E70A3046F0EE080AFEF714FC8346FEF76D
:10295000D5FA002840F00A81BBF1000F40F0068153
:10296000D5ED007A4FF0FF30B8EEE70AF0EE080A36
:10297000FEF73AFF8346FEF7C1FA002840F0F680E2
:10298000BBF1000F40F0F2809AED000A4FF0FF30EB
:10299000B8EEC00AF0EE000AFEF7ECFB8246FEF746
:1029A000ADFA002840F0E280BAF1000F40F0DE807E
:1029B000D9ED007A3046B8EEE70AF7EE000AFEF7E6
:1029C00013FF0646FEF79AFA002840F0CF80002E4B
:1029D00040F0CC80D4ED007A0120B8EEE70AF7EEA3
:1029E000000AFEF7C7FB0646FEF788FA002840F00B
:1029F000BD80002E40F0BA80D5ED007A0120B8EEFF
:102A0000E70AF7EE000AFEF7EFFE0646FEF776FA53
:102A1000002840F0AB80002E40F0A880D4ED007A72
:102A20004FF0FF30B8EEE70AF0EE000AFEF7A2FB27
:102A30000646FEF763FA002840F09880002E40F02A
:102A40009580D5ED007A4FF0FF30B8EEE70AF1EE51
:102A5000040AFEF7C9FE0646FEF750FA002840F0C9
:102A60008580002E40F08280D4ED007A0120B8EEFF
:102A7000E70AF0EE000AFEF77DFB0646FEF73EFA97
:102A8000002873D1002E71D1D5ED007A0120B8EE67
:102A9000E70AF7EE000AFEF7A7FE0646FEF72EFA53
:102AA000002863D1002E61D1D4ED007A4FF0FF30C1
:102AB000B8EEE70AF7EE000AFEF75CFB0646FEF703
:102AC0001DFA002852D1002E50D1D5ED007A0120F8
:102AD000B8EEE70AF7EE000AFEF786FE0646FEF7B6
:102AE0000DFA002842D1002E40D1D4ED007A012009
:102AF000B8EEE70AF0EE000AFEF73CFB0646FEF7EA
:102B0000FDF998BB96BBD5ED007A4FF0FF30B8EEDB
:102B1000E70AF0EE080AFEF767FE0646FEF7EEF952
:102B200020BB1EBBD4ED007A4FF0FF30B8EEE70AB1
:102B3000F0EE080AFEF71EFB0646FEF7DFF9A8B91D
:102B4000A6B9D5ED007A4FF0FF30B8EEE70AF7EE00
:102B5000000AFEF749FE0646FEF7D0F930B92EB955
:102B6000D8F810300137BB42BFF6DDAEBDE8F84FF4
:102B7000FEF768BA3416FF1FC414FF1F9012FF1F20
:102B8000D5ED007A0120B8EEE70AF0EE080AFEF76C
:102B90002BFE0646FEF7B2F90028E7D1002EE5D15C
:102BA000D4ED007A864EB8EEE70A4FF0FF30F0EE33
:102BB000080AFEF7DFFA8246FEF7A0F90028D5D111
:102BC000BAF1000FD2D1D9ED007A4FF0FF30B8EE54
:102BD000E70AF0EE000AFEF707FE8246FEF78EF9DE
:102BE0000028C3D1BAF1000FC0D196ED000A012030
:102BF000B8EEC00AF7EE000AFEF7BCFA0646FEF78A
:102C00007DF90028B2D1002EB0D1D9ED007A012093
:102C1000B8EEE70AF7EE000AFEF7E6FD0646FEF715
:102C20006DF90028A2D1002EA0D1D4ED007A0120A8
:102C3000B8EEE70AF7EE000AFEF79CFA0646FEF742
:102C40005DF9002892D1002E90D1D5ED007A4FF099
:102C5000FF30B8EEE70AF0EE000AFEF7C5FD0646C3
:102C6000FEF74CF9002881D1002E7FF47FAFD4ED20
:102C7000007A4FF0FF30B8EEE70AF1EE040AFEF7F3
:102C800079FA0646FEF73AF900287FF46FAF002E76
:102C90007FF46CAFD5ED007A0120B8EEE70AF0EED4
:102CA000000AFEF7A1FD0646FEF728F900287FF48A
:102CB0005DAF002E7FF45AAFD4ED007A0120B8EE5C
:102CC000E70AF7EE000AFEF755FA0646FEF716F990
:102CD00000287FF44BAF002E7FF448AFD5ED007A8B
:102CE0004FF0FF30B8EEE70AF7EE000AFEF77CFD82
:102CF0000646FEF703F900287FF438AF002E7FF474
:102D000035AFD4ED007A0120B8EEE70AF7EE000AFD
:102D1000FEF730FA0646FEF7F1F800287FF426AFFA
:102D2000002E7FF423AFD5ED007A0120B8EEE70A3C
:102D3000F0EE000AFEF758FD0646FEF7DFF8002821
:102D40007FF414AF002E7FF411AFD4ED007A4FF072
:102D5000FF30B8EEE70AF0EE080AFEF70BFA064677
:102D6000FEF7CCF800287FF401AF002E7FF4FEAE12
:102D7000D5ED007A4FF0FF30B8EEE70AF0EE080A22
:102D8000FEF732FD0646FEF7B9F800287FF4EEAEF6
:102D9000002E7FF4EBAED4ED007A4FF0FF30B8EEAA
:102DA000E70AF7EE000AFEF7E5F90646FEF7A6F891
:102DB00000283FF4D4AEBDE8F84FFEF743B900BF9A
:102DC000C414FF1F2DE9F84F964E7369012B14BFF1
:102DD00003200220FEF7CEF83369002B40F39380E6
:102DE000914FDFF84882BA4601257469002C00F043
:102DF0008E80012C40F08280D8ED007ADFF82C9292
:102E0000B8EEE70A2046F0EE000AFEF7EDFC834636
:102E1000FEF774F8002876D1BBF1000F73D1D9ED1D
:102E2000007A4FF0FF30B8EEE70AF0EE000AFEF746
:102E3000DBFC8346FEF762F8002864D1BBF1000F8B
:102E400061D1D7ED007A2046B8EEE70AF0EE000A2D
:102E5000FEF790F90446FEF751F8002853D1002CF4
:102E600051D199ED000A4FF0FF30B8EEC00AF0EEF4
:102E7000000AFEF7B9FC0446FEF740F8002842D1EC
:102E8000002C40D1D7ED007A4FF0FF30B8EEE70AC2
:102E9000F7EE000AFEF76EF90446FEF72FF890BB36
:102EA0008CBBD8ED007A4FF0FF30B8EEE70AF7EEB2
:102EB000000AFEF799FC0446FEF720F818BB14BB85
:102EC000D7ED007A4FF0FF30B8EEE70AF7EE000AD0
:102ED000FEF750F90446FEF711F8A0B99CB9D8EDF9
:102EE000007A4FF0FF30B8EEE70AF0EE000AFEF786
:102EF0007BFC0446FEF702F828B924B93369013592
:102F0000AB42BFF672AFBDE8F84FFEF79BB8D7ED06
:102F1000007A0120B8EEE70AF0EE000AFEF72AF97F
:102F20000446FDF7EBFF0028EDD1002CEBD1DAEDE4
:102F3000007A4FF0FF30B8EEE70AF0EE000AFEF735
:102F400019F90446FDF7DAFF0028DCD1002CDAD1AC
:102F5000D8ED007A354CB8EEE70A0120F0EE000A11
:102F6000FEF742FC8146FDF7C9FF0028CBD1B9F13D
:102F7000000FC8D1DAED007A4FF0FF30B8EEE70A63
:102F8000F0EE000AFEF7F6F88146FDF7B7FF0028DD
:102F9000B9D1B9F1000FB6D194ED000A4FF0FF306E
:102FA000B8EEC00AF7EE000AFEF71EFC0446FDF775
:102FB000A5FF0028A7D1002CA5D1D7ED007A0120CC
:102FC000B8EEE70AF7EE000AFEF7D4F80446FDF77C
:102FD00095FF002897D1002C95D1D8ED007A4FF0BD
:102FE000FF30B8EEE70AF7EE000AFEF7FDFB0446F5
:102FF000FDF784FF002886D1002C84D1D7ED007A1C
:103000004FF0FF30B8EEE70AF0EE000AFEF7B2F834
:103010000446FDF773FF00283FF46FAFBDE8F84F9B
:10302000FEF710B89012FF1FC414FF1F3416FF1FC5
:103030002DE9F0478F4F7B69012B14BF062002203A
:10304000FDF798FF3B69002B40F310818A4C8B4DB4
:10305000A14601267869002800F01281012840F07D
:103060000081D5ED007ADFF81482B8EEE70AF7EEBA
:10307000000AFEF7B9FB8246FDF740FF002840F04A
:10308000F580BAF1000F40F0F180D8ED007A4FF0F2
:10309000FF30B8EEE70AF7EE000AFEF7A5FB82461E
:1030A000FDF72CFF002840F0E180BAF1000F40F05E
:1030B000DD80D4ED007A4FF0FF30B8EEE70AF0EE95
:1030C000000AFEF757F88246FDF718FF002840F087
:1030D000CD80BAF1000F40F0C98098ED000A4FF0A2
:1030E000FF30B8EEC00AF0EE000AFEF77DFB804626
:1030F000FDF704FF002840F0B980B8F1000F40F060
:10310000B580D4ED007A4FF0FF30B8EEE70AF0EE6C
:10311000000AFEF72FF88046FDF7F0FE002840F089
:10312000A580B8F1000F40F0A180D5ED007A012014
:10313000B8EEE70AF7EE000AFEF756FB8046FDF709
:10314000DDFE002840F09280B8F1000F40F08E8044
:10315000D4ED007A4FF0FF30B8EEE70AF7EE000A40
:10316000FEF708F88046FDF7C9FE00287ED1B8F1C9
:10317000000F7BD1D5ED007A4FF0FF30B8EEE70AB3
:10318000F0EE080AFEF730FB8046FDF7B7FE002898
:103190006CD1B8F1000F69D1D4ED007A0120B8EEFE
:1031A000E70AF7EE000AFDF7E5FF8046FDF7A6FE09
:1031B00000285BD1B8F1000F58D1D5ED007A01207D
:1031C000B8EEE70AF7EE000AFEF70EFB8046FDF7C1
:1031D00095FE00284AD1B8F1000F47D1D4ED007A0E
:1031E0000120B8EEE70AF7EE000AFDF7C3FF8046BC
:1031F000FDF784FED0BBB8F1000F37D1D5ED007AD2
:103200004FF0FF30B8EEE70AF0EE000AFEF7ECFAF6
:103210008046FDF773FE48BBB8F1000F26D1D4ED10
:10322000007A4FF0FF30B8EEE70AF0EE000AFDF743
:10323000A1FF8046FDF762FEC0B9B8F1000F15D1BD
:10324000D5ED007A4FF0FF30B8EEE70AF7EE000A4E
:10325000FEF7CAFA8046FDF751FE38B9B8F1000F03
:1032600004D13B690136B342BFF6F4AEBDE8F04786
:10327000FDF7E8BE9012FF1FC414FF1F3416FF1F96
:10328000D4ED007A0120B8EEE70AF7EE000AFDF768
:1032900071FF8046FDF732FE0028E7D1B8F1000F3C
:1032A000E4D1D9ED007A4FF0FF30B8EEE70AF7EE3F
:1032B000000AFDF75FFF8046FDF720FE0028D5D10C
:1032C000B8F1000FD2D1D5ED007ADFF8C481B8EEA5
:1032D000E70A0120F0EE000AFEF786FA8246FDF7C3
:1032E0000DFE0028C2D1BAF1000FBFD1D9ED007A8E
:1032F0004FF0FF30B8EEE70AF0EE000AFDF73AFFB4
:103300008246FDF7FBFD0028B0D1BAF1000FADD128
:1033100098ED000A4FF0FF30B8EEC00AF7EE000A51
:10332000FEF762FA8046FDF7E9FD00289ED1B8F16C
:10333000000F9BD1D4ED007A0120B8EEE70AF7EE3A
:10334000000AFDF717FF8046FDF7D8FD00288DD154
:10335000B8F1000F8AD1D5ED007A4FF0FF30B8EE0A
:10336000E70AF7EE000AFEF73FFA8046FDF7C6FDD2
:1033700000287FF47BAFB8F1000F7FF477AFD4ED76
:10338000007A4FF0FF30B8EEE70AF0EE080AFDF7DA
:10339000F1FE8046FDF7B2FD00287FF467AFB8F17B
:1033A000000F7FF463AFD5ED007A0120B8EEE70A95
:1033B000F7EE000AFEF718FA8046FDF79FFD002899
:1033C0007FF454AFB8F1000F7FF450AFD4ED007A22
:1033D0000120B8EEE70AF7EE000AFDF7CBFE8046C3
:1033E000FDF78CFD00287FF441AFB8F1000F7FF4AA
:1033F0003DAFD5ED007A0120B8EEE70AF7EE000AFE
:10340000FEF7F2F98046FDF779FD00287FF42EAF34
:10341000B8F1000F7FF42AAFD4ED007A4FF0FF30FF
:10342000B8EEE70AF0EE000AFDF7A4FE8046FDF7CD
:1034300065FD00287FF41AAFB8F1000F7FF416AFD6
:10344000D5ED007A4FF0FF30B8EEE70AF0EE000A53
:10345000FEF7CAF98046FDF751FD00287FF406AF5C
:10346000B8F1000F7FF402AFD4ED007A4FF0FF30D7
:10347000B8EEE70AF7EE000AFDF77CFE8046FDF79E
:103480003DFD00283FF4EAAEBDE8F047FDF7DABDA8
:103490003416FF1F38B50F4B1C68012C4FF000018C
:1034A0000FD0FEF79FF8002105460120FDF73EFAF8
:1034B0001B2109480FF0D4F908480FF0B7FD284642
:1034C00038BDFDF785FF002105462046FDF72EFAA1
:1034D000EEE700BF9012FF1FB0AF0100C807FF1F4B
:1034E00070B582B000231D4C1D4D1E4E019309E0A6
:1034F000019B286818440DF003FD019B0133142B38
:10350000019313DC0EF07AF9C0B2FF28236801465C
:1035100019D0032BECD1019B32680146D0180DF075
:10352000EFFC019B0133142B0193EBDD2368032B8C
:103530000CBF0D4B0D4B042219680DEB02000DF072
:1035400007FD02B070BD032B0CBF064A044A019B65
:103550001068002118440DF0D3FCE7E70C07FF1FAB
:103560003007FF1F0807FF1F4007FF1F2C07FF1F23
:103570002DE9F0472DED028B98B007464A494B4E96
:1035800003A80FF021FF4A4B1C68002304F1040834
:1035900033606D4620460DF099FC0134444505F832
:1035A000010BF7D1009B002B75DB424A15680DF12A
:1035B0002C0A03F10109CAEB05050AEB0908544678
:1035C00028190DF083FC04F8010B4445F8D14B4653
:1035D00018AA02EB0309002110A809F8341C52466E
:1035E000012335490AF0F6FC10A80AF03FFC002838
:1035F0003CD0324A13680293029913680193019BED
:103600005B1A632BF9D9294C0FE007A80FF064FE71
:1036100007A903A80FF060FF07A80FF095FE336815
:10362000BB4203F1010308D0236010A80AF060FB3D
:1036300078230A2210A90028E7D110A80AF008FC74
:10364000039812F0E5FFB0EE408AF0EE608A10A811
:103650000AF0E2FB03A80FF077FEB0EE480AF0EEA6
:10366000680A18B0BDEC028BBDE8F087144B154812
:10367000012218211A700EF07DF822200EF070F849
:103680000E2111480EF076F8042110480EF072F861
:103690009FED038BDBE700230DF12C0A98E700BFB9
:1036A00000000000000000008CB401002014FF1F87
:1036B0004007FF1F0807FF1FA017FF1F501AFF1F1B
:1036C000C814FF1FCCAF0100E8AF0100F8AF010044
:1036D00030B504468DB0002505E004A80AF0B8FB1B
:1036E00004A80AF099FB04A8012221460AF0E6FC8E
:1036F00004A80AF0BBFB70B304A80AF091FB0028F1
:10370000EBD104A80AF08AFB0146C14813F04CFE35
:103710000028E2D004A80AF081FBBE4913F0AEFFF6
:103720000028DAD00135052DD7DC0A21BA480FF080
:1037300097F82946B9480FF0C9FCB8480FF076FC55
:10374000AB1E6846032B00F2CF80DFE813F09B002E
:10375000690009002E0104A80AF05EFB0DB030BD1F
:10376000AF490FF031FE6946AE480FF039FC6946AB
:10377000AA480FF035FC68460FF0E6FD0121AA4883
:103780000DF0F8FF04A80AF049FB014668460FF067
:103790001BFE6946A3480FF023FC69469F480FF0C3
:1037A0001FFC68460FF0D0FD0421A0480DF0E2FF99
:1037B00002219F480FF054F898480FF037FC9D49BC
:1037C00068460FF001FE694696480FF009FC69460D
:1037D00092480FF005FC68460FF0B6FD01219248B3
:1037E0000DF0C8FF04A80AF019FB014668460FF067
:1037F000EBFD69468B480FF0F3FB694687480FF0F5
:10380000EFFB68460FF0A0FD042188480DF0B2FFE1
:10381000022187480FF024F880480FF007FC5CE78E
:1038200085490FF0D1FD69467E480FF0D9FB694606
:103830007A480FF0D5FB68460FF086FD01217A48E3
:103840000DF098FF04A80AF0E9FA014668460FF067
:10385000BBFD694673480FF0C3FB69466F480FF024
:10386000BFFB68460FF070FD042170480DF082FF29
:1038700002216F480EF0F4FF68480FF0D7FB68464E
:103880006E499EE76E490FF09FFD694665480FF04F
:10389000A7FB694661480FF0A3FB68460FF054FD93
:1038A000012161480DF066FF04A80AF0B7FA01464D
:1038B00068460FF089FD69465A480FF091FB69464A
:1038C00056480FF08DFB68460FF03EFD0421574827
:1038D0000DF050FF022156480EF0C2FF4F480FF086
:1038E000A5FB684657496CE757490FF06DFD6946DF
:1038F0004C480FF075FB694648480FF071FB68466D
:103900000FF022FD012148480DF034FF04A80AF011
:1039100085FA014668460FF057FD694641480FF0A9
:103920005FFB69463D480FF05BFB68460FF00CFDFE
:1039300004213E480DF01EFF02213D480EF090FF8D
:1039400036480FF073FB414968460FF03DFD69466C
:1039500034480FF045FB694630480FF041FB68469C
:103960000FF0F2FC012130480DF004FF04A80AF02A
:1039700055FA014668460FF027FD694629480FF0C1
:103980002FFB694625480FF02BFB68460FF0DCFC47
:10399000042126480DF0EEFE022125480EF060FFBE
:1039A0001E480FF043FB012597E629490FF00CFD57
:1039B00069461C480FF014FB694618480FF010FBCD
:1039C00068460FF0C1FC012117480DF0D3FE04A892
:1039D0000AF024FA014668460FF0F6FC69461148E1
:1039E0000FF0FEFA69460D480FF0FAFA68460FF03C
:1039F000ABFC04210D480DF0BDFE02210C480EF079
:103A00002FFF06480FF012FB68461249D9E600BFA7
:103A100000B001000CB0010018B00100C807FF1F82
:103A2000B0B00100A807FF1F38B00100F8AF0100D7
:103A30003CB00100C4B0010084B0010098B00100A6
:103A400058B001006CB0010024B0010040B001008A
:103A5000DCB00100F0B001002DE9F0472DED028B44
:103A60006D4E6E49A2B00024074604A834600FF0E2
:103A7000ABFC214608A80FF0A7FC21460CA80FF0CC
:103A8000A3FC674B1C6801AD04F1040820460DF04F
:103A90001DFA0134444505F8010BF7D1019B002BB9
:103AA000C0F2AB805F4A15680DF1400A03F10109CD
:103AB000CAEB05050AEB0908544628190DF006FA69
:103AC00004F8010B4445F8D14B4622AA02EB030946
:103AD00000211AA809F8481C5246012352490AF04D
:103AE00079FA1AA80AF0C2F900285AD04F4A136886
:103AF0000393039913680293029B5B1A132BF9D962
:103B0000454C0FE015A80FF0E7FB15A904A80FF02E
:103B1000E3FC15A80FF018FC3368BB4203F1010366
:103B200008D023601AA80AF0E3F878230A221AA919
:103B30000028E7D11AA80AF08BF9002104A80FF099
:103B40001BFD3B4C03782360012204A915A80FF04C
:103B50005FFD15A908A80FF0BFFC15A80FF0F4FB36
:103B600023683B2B42D0482B21D0089812F050FDFF
:103B7000B0EE408AF0EE608A1AA80AF04DF90CA85F
:103B80000FF0E2FB08A80FF0DFFB04A80FF0DCFB4E
:103B9000B0EE480AF0EE680A22B0BDEC028BBDE838
:103BA000F087244B01221A709FED178BE4E7002366
:103BB000142215A908A80FF0EDFC1F491F4D204C39
:103BC00015A814F04BFE12F023FD51EC100B12F06F
:103BD000C9FC1C492860002014F040FE12F018FDBA
:103BE00051EC100B12F0BEFC2060BEE708A916488D
:103BF0000FF06AFC9FED068BBEE700230DF1400A33
:103C000063E700BFAFF30080000000000000F0BFDA
:103C100000000000000000002014FF1F8CB4010011
:103C20002C07FF1F3007FF1FA017FF1F501AFF1F91
:103C30007C17FF1FC814FF1F08B101008417FF1F66
:103C4000D416FF1F0CB101009816FF1F08B5084BD2
:103C5000DFED080AD3ED007A27EE800A10F078FF36
:103C600010F0CEFE044BD3ED007A20EE270A08BDFB
:103C70001C14FF1FDB0FC9403016FF1F1E4A1F4BCD
:103C800092ED010AD3ED007ADFED1D6A1D4BF8EECF
:103C9000E77AB8EEC00A86EEA77A10B55C6827EE20
:103CA000000AFFF7D3FF184B93ED007A72B607EEC8
:103CB000904AF8EEE77ADFED156A154B30EE670AA9
:103CC000B8EEC77AC0EE265A93ED1E6AD3ED1D6A90
:103CD000C5EE877A67EE867AF4EEE67AC3ED1C7A53
:103CE000D3ED207AF1EE10FAD8BFF1EE677AC3ED8A
:103CF000217A62B610BD00BF5812FF1F9C17FF1F2C
:103D0000DB0FC940F815FF1FD016FF1FCDCCCC3CF0
:103D10002414FF1F2DE9F04F16219DB0044668487A
:103D20000EF09EFD67480FF081F90A2C00F2B58075
:103D3000DFE814F0DE00B3008C01B5012802B30007
:103D400030037402C903C9030B005F4B1D6805AC47
:103D50002D1B16AE28190DF0B9F804F8010BA64278
:103D6000F8D15A4901A80FF02FFB01A958480FF0CC
:103D700037F901A953480FF033F901A80FF0E4FA1D
:103D800022200DF0EDFC0A22059901A80FF03EFB60
:103D900001A94F480FF024F901A94A480FF020F972
:103DA00001A80FF0D1FA04214A480DF0E3FC4A497A
:103DB00001A80FF009FB01A945480FF011F901A96D
:103DC00040480FF00DF901A80FF0BEFA22200DF0C7
:103DD000C7FC0A22069901A80FF02CFB01A93C4858
:103DE0000FF0FEF801A937480FF0FAF801A80FF01C
:103DF000ABFA042137480DF0BDFC0E9B374901A8F2
:103E0000002B40F095840FF0DFFA01A930480FF045
:103E1000E7F801A92B480FF0E3F801A80FF094FA96
:103E200022200DF09DFC0A22079901A80FF0EEFA5E
:103E300001A927480FF0D4F801A922480FF0D0F8C3
:103E400001A80FF081FA042122480DF093FC2449C7
:103E500001A80FF0B9FA01A91D480FF0C1F801A996
:103E600018480FF0BDF801A80FF06EFA22200DF0EF
:103E700077FC08990A2201A80FF0DCFA01A914487E
:103E80000FF0AEF801A90F480FF0AAF801A80FF043
:103E90005BFA04210F480DF06DFC172111480DF05D
:103EA00069FC032110480DF065FC14210F480DF04A
:103EB00061FC03210C480DF05DFC1DB0BDE8F08FE6
:103EC00010B10100C807FF1FFC06FF1F28B1010049
:103ED000A807FF1FF8AF01003CB1010050B101007D
:103EE00064B101008CB101007CAE0100A4B10100FD
:103EF000974B1D6805AC2D1B12AE28190CF0E6FF80
:103F000004F8010BB442F8D19249DDF814B0DDF8A1
:103F100034A0DDF81890DDF83880079F0F9E089DCB
:103F2000109C01A80FF050FA01A98B480FF058F827
:103F300001A98A480FF054F801A80FF005FA0121F1
:103F400087480DF017FC0A22594601A80FF05EFAC7
:103F500001A981480FF044F801A980480FF040F80A
:103F600001A80FF0F1F904217E480DF003FC7E4911
:103F700001A80FF029FA01A977480FF031F801A93B
:103F800076480FF02DF801A80FF0DEF901217448F2
:103F90000DF0F0FB0A22514601A80FF037FA01A9F3
:103FA0006D480FF01DF801A96C480FF019F801A831
:103FB0000FF0CAF904216B480DF0DCFB6B4B1B6B57
:103FC000012B00F06B85C0F02885022B7FF465AFD4
:103FD000674901A80FF0F8F901A95F480FF000F850
:103FE00001A95E480EF0FCFF01A80FF0ADF92220F8
:103FF0000DF0B6FB0A22294601A80FF007FA01A925
:1040000055480EF0EDFF01A954480EF0E9FF01A854
:104010000FF09AF9042153480DF0ACFB554901A863
:104020000FF0D2F901A94C480EF0DAFF01A94B4874
:104030000EF0D6FF01A80FF087F922200DF090FBBB
:1040400021460A2201A80FF0E1F917E74A4B1D6843
:1040500005AC2D1B12AE28190CF038FF04F8010B2B
:10406000A642F8D10B214548DDF814B0DDF834A0A4
:10407000DDF81890DDF83880079F0F9E089D109C92
:104080000EF0EEFB35480EF0D1FF119B032B3FF6EF
:1040900004AFDFE813F08E044F040204C303384B6F
:1040A0001E6801AC361B05AD30190CF00FFF04F88B
:1040B000010BA542F8D1274928460FF085F929467A
:1040C00025480EF08DFF294624480EF089FF28462A
:1040D0000FF03AF922200DF043FB0A2202992846FC
:1040E0000FF094F929461C480EF07AFF29461B4828
:1040F0000EF076FF28460FF027F9042119480DF03D
:1041000039FB194928460FF05FF9294612480EF08D
:1041100067FF294611480EF063FF28460FF014F997
:1041200022200DF01DFB0A22049928460FF082F987
:10413000294609480EF054FF294608480EF050FF62
:1041400028460FF001F9042106480DF013FBA4E600
:104150004C07FF1F28B10100A807FF1FC807FF1F5A
:1041600038B00100F8AF01003CB10100D012FF1FD0
:1041700050B1010064B101003807FF1F80B1010098
:104180004807FF1F784B1D6805AC2D1B0EAE281984
:104190000CF09CFE04F8010BA642F8D1059B734974
:1041A00001A8002B40F089820FF00EF901A9704898
:1041B0000EF016FF01A96F480EF012FF01A80FF0D4
:1041C000C3F822200DF0CCFA0A22069901A80FF0BC
:1041D0001DF901A966480EF003FF01A965480EF01C
:1041E000FFFE01A80FF0B0F8042163480DF0C2FAF9
:1041F000624901A80FF0E8F801A95D480EF0F0FE51
:1042000001A95C480EF0ECFE01A80FF09DF82220F9
:104210000DF0A6FA01A80A2207992DE6584B1D6851
:1042200005AC2D1B1CAE28190CF050FE04F8010B38
:10423000A642F8D15349544C01A80FF0C5F801A982
:104240004B480EF0CDFE01A94A480EF0C9FE01A868
:104250000FF07AF822200DF083FA0A22059901A8BE
:104260000FF0D4F801A942480EF0BAFE01A9414866
:104270000EF0B6FE01A80FF067F804213E480DF0DD
:1042800079FA424901A80FF09FF801A938480EF0C9
:10429000A7FE01A937480EF0A3FE01A80FF054F8BD
:1042A00022200DF05DFA0A22069901A80FF0C2F84B
:1042B00001A92F480EF094FE01A92E480EF090FEA1
:1042C00001A80FF041F804212B480DF053FA072103
:1042D0002F480EF0C5FA00231A9926480A220EF03C
:1042E000B5FE24480EF0A2FE636D204901A8002B04
:1042F00040F0A8810FF068F801A91D480EF070FE8B
:1043000001A91C480EF06CFE01A80FF01DF8222038
:104310000DF026FA0A22079901A80FF077F801A9F3
:1043200013480EF05DFE01A912480EF059FE01A8D7
:104330000FF00AF8042110480DF01CFA0F4901A8EB
:104340000FF042F801A90A480EF04AFE01A90948F7
:104350000EF046FE01A80EF0F7FF22200DF000FA45
:104360000A220C9901A887E53407FF1F50B101000C
:10437000A807FF1FC807FF1FF8AF010064B10100C5
:104380000007FF1F28B10100CC14FF1F3CB1010042
:1043900078B101009F4B1D6805AC2D1B12AE28198A
:1043A0000CF094FD04F8010BB442F8D19A4901A82D
:1043B0000FF00AF801A999480EF012FE01A99848D9
:1043C0000EF00EFE01A80EF0BFFF22200DF0C8F97E
:1043D0000A22069901A80FF019F801A98F480EF0DA
:1043E000FFFD01A98E480EF0FBFD01A80EF0ACFF09
:1043F00004218C480DF0BEF98B4901A80EF0E4FFB2
:1044000001A986480EF0ECFD01A985480EF0E8FDF3
:1044100001A80EF099FF22200DF0A2F90A220799B7
:1044200001A80FF007F801A97C480EF0D9FD01A9F9
:104430007B480EF0D5FD01A80EF086FF04217948D7
:104440000DF098F9794B7A491B6801A8002B40F0D0
:10445000AA810EF0B9FF01A970480EF0C1FD01A9B3
:104460006F480EF0BDFD01A80EF06EFF22200DF08A
:1044700077F90A22089901A80EF0C8FF01A9674838
:104480000EF0AEFD01A966480EF0AAFD01A80EF0DF
:104490005BFF042163480DF06DF9664901A80EF039
:1044A00093FF01A95D480EF09BFD01A95C480EF049
:1044B00097FD01A80EF048FF22200DF051F90A22C5
:1044C000099901A8D8E45C4B1B68002B40F094804C
:1044D0005A4B1D6805AC2D1B0BAE28190CF0F6FCD1
:1044E00004F8010BA642F8D14B4901A80EF06CFF6D
:1044F00001A94A480EF074FD01A949480EF070FD6B
:1045000001A80EF021FF22200DF02AF90A220599B8
:1045100001A80EF07BFF01A940480EF061FD01A942
:104520003F480EF05DFD01A80EF00EFF04213D484E
:104530000DF020F93C4901A80EF046FF01A93748CB
:104540000EF04EFD01A936480EF04AFD01A80EF00E
:10455000FBFE22200DF004F90A22069901A80EF0B4
:1045600069FF01A92D480EF03BFD01A92C480EF072
:1045700037FD01A80EF0E8FE04212A480DF0FAF8F4
:104580002B4901A80EF020FF01A924480EF028FDB8
:1045900001A923480EF024FD01A80EF0D5FE22202B
:1045A0000DF0DEF80A22079901A80EF02FFF01A9ED
:1045B0001A480EF015FD01A919480EF011FD01A8C9
:1045C0000EF0C2FE042117480DF0D4F8194901A8D5
:1045D0000EF0FAFE01A911480EF002FD01A91048E3
:1045E0000EF0FEFC01A80EF0AFFE22200DF0B8F890
:1045F00001A80A2208993FE4114B1D6805AC2D1B48
:104600000BAE28190CF062FC04F8010BA642F8D19D
:104610006AE700BF0407FF1F28B10100A807FF1FBA
:10462000C807FF1FF8AF01003CB101004C13FF1F8A
:1046300050B1010064B101009012FF1F2407FF1F59
:104640001C07FF1F0EF0C0FE01A9B3480EF0C8FC06
:1046500001A9B2480EF0C4FC01A80EF075FE22209C
:104660000DF07EF80A22E16801A80EF0CFFE01A944
:10467000A9480EF0B5FC01A9A8480EF0B1FC01A8AC
:104680000EF062FE0421A6480DF074F8A54901A8B9
:104690000EF09AFE01A9A0480EF0A2FC01A99F48C5
:1046A0000EF09EFC01A80EF04FFE22200DF058F8EF
:1046B0000A220D9901A8FFF7DFBB0EF085FE01A9C4
:1046C00095480EF08DFC01A994480EF089FC01A8D4
:1046D0000EF03AFE22200DF043F80A22089901A8B4
:1046E0000EF094FE01A98C480EF07AFC01A98B48CB
:1046F0000EF076FC01A80EF027FE042188480DF08C
:1047000039F8884901A80EF05FFE01A982480EF031
:1047100067FC01A981480EF063FC01A80EF014FEAD
:1047200022200DF01DF801A80A220999FFF7A4BB69
:104730000EF04AFE01A978480EF052FC01A9774814
:104740000EF04EFC01A80EF0FFFD22200DF008F83F
:104750000A22099901A80EF06DFE01A96E480EF01B
:104760003FFC01A96D480EF03BFC01A80EF0ECFDEA
:1047700004216B480CF0FEFF6A4901A80EF024FEEC
:1047800001A965480EF02CFC01A964480EF028FC34
:1047900001A80EF0D9FD22200CF0E2FF0A220A99AE
:1047A00001A8FFF769BB0EF00FFE01A95A480EF0F1
:1047B00017FC01A959480EF013FC01A80EF0C4FD26
:1047C00022200CF0CDFF0A220A9901A80EF01EFE4D
:1047D00001A951480EF004FC01A950480EF000FC5C
:1047E00001A80EF0B1FD04214D480CF0C3FF4D4966
:1047F00001A80EF0E9FD01A947480EF0F1FB01A95F
:1048000046480EF0EDFB01A80EF09EFD22200CF0B4
:10481000A7FF0A220B9901A8FFF72EBB01A8424966
:104820000EF0D2FD01A93C480EF0DAFB01A93B488D
:104830000EF0D6FB01A80EF087FD22200CF090FFB1
:104840000A22594601A80EF0E1FD01A932480EF0F6
:10485000C7FB01A931480EF0C3FB01A80EF074FD9F
:1048600004212F480CF086FF01A830490EF0ACFD62
:1048700001A929480EF0B4FB01A928480EF0B0FBAD
:1048800001A80EF061FD22200CF06AFF514601A83C
:104890000A220EF0BBFDFFF7F1BA01A824490EF081
:1048A00093FD01A91C480EF09BFB01A91B480EF0CB
:1048B00097FB01A80EF048FD22200CF051FF0A22C0
:1048C000294601A80EF0A2FD01A913480EF088FBAD
:1048D00001A912480EF084FB01A80EF035FD042159
:1048E0000F480CF047FF01A80E490EF06DFD01A91D
:1048F00009480EF075FB01A908480EF071FB01A8EC
:104900000EF022FD22200CF02BFF214601A80A22E6
:104910000EF07CFDFFF7B2BAA807FF1FC807FF1F04
:10492000F8AF010064B1010028B101003CB1010001
:1049300050B1010001A879490EF046FD01A978485F
:104940000EF04EFB01A977480EF04AFB01A80EF0CD
:10495000FBFC22200CF004FF0A22394601A80EF0CD
:1049600055FD01A96E480EF03BFB01A96D480EF004
:1049700037FB01A80EF0E8FC04216B480CF0FAFEAE
:1049800001A86A490EF020FD01A965480EF028FB38
:1049900001A964480EF024FB01A80EF0D5FC2220EA
:1049A0000CF0DEFE314601A80A220EF02FFDFFF7C3
:1049B00065BA132159480CF0DDFE22200CF0D0FE20
:1049C0000A22494601A80EF021FD01A954480EF023
:1049D00007FB01A953480EF003FB01A80EF0B4FC3D
:1049E000042151480CF0C6FE01A850490EF0ECFC21
:1049F00001A94B480EF0F4FA01A94A480EF0F0FA6A
:104A000001A80EF0A1FC22200CF0AAFE414601A84C
:104A10000A220EF0FBFCFFF731BA404901A80EF064
:104A2000D3FC01A93E480EF0DBFA01A93D480EF087
:104A3000D7FA01A80EF088FC01213D480CF09AFE3F
:104A40000A22494601A80EF0E1FC01A934480EF003
:104A5000C7FA01A933480EF0C3FA01A80EF074FC9E
:104A6000042131480CF086FE304901A80EF0ACFC60
:104A700001A92B480EF0B4FA01A92A480EF0B0FAA9
:104A800001A80EF061FC012129480CF073FE41469B
:104A90000A2201A80EF0BAFCFFF7F0B91F4901A8DD
:104AA0000EF092FC01A91E480EF09AFA01A91D48C9
:104AB0000EF096FA01A80EF047FC22200CF050FEF2
:104AC0000A22394601A80EF0A1FC01A914480EF0F3
:104AD00087FA01A913480EF083FA01A80EF034FCFE
:104AE000042111480CF046FE104901A80EF06CFCA0
:104AF00001A90B480EF074FA01A90A480EF070FAE9
:104B000001A80EF021FC22200CF02AFE31460A22D8
:104B100001A80EF07BFCFFF7B1B900BF50B1010056
:104B2000A807FF1FC807FF1FF8AF010064B101000D
:104B300038B0010070B5B64B9CB01D6805AC2D1B9C
:104B40001CAE28190CF0C2F904F8010BA642F8D1EA
:104B500001A8B049B04DB14C0EF036FC01A9B048E7
:104B60000EF03EFA01A9AF480EF03AFA01A80EF095
:104B7000EBFB22200CF0F4FD0A22059901A80EF0AF
:104B800059FC01A9A6480EF02BFA01A9A5480EF080
:104B900027FA01A80EF0D8FB0421A3480CF0EAFD87
:104BA00001A8A2490EF010FC01A99D480EF018FAC8
:104BB00001A99C480EF014FA01A80EF0C5FB2220B2
:104BC0000CF0CEFD0A22069901A80EF033FC01A9D3
:104BD00093480EF005FA01A992480EF001FA01A8D7
:104BE0000EF0B2FB042190480CF0C4FD01A89049DE
:104BF0000EF0EAFB01A98A480EF0F2F901A98948F2
:104C00000EF0EEF901A80EF09FFB22200CF0A8FD9B
:104C10009DED070A01A802210EF020FC01A98048A1
:104C20000EF0DEF901A97F480EF0DAF901A80EF0C6
:104C30008BFB04217C480CF09DFD01A87D490EF002
:104C4000C3FB01A976480EF0CBF901A975480EF017
:104C5000C7F901A80EF078FB22200CF081FD9DF829
:104C60006C1001A8002914BF294621460EF0ACFBA8
:104C700001A96B480EF0B4F901A96A480EF0B0F929
:104C800001A80EF061FB042167480CF073FD01A838
:104C900069490EF099FB01A961480EF0A1F901A93B
:104CA00060480EF09DF901A80EF04EFB22200CF09A
:104CB00057FD0A22089901A80EF0BCFB01A958482B
:104CC0000EF08EF901A957480EF08AF901A80EF0EE
:104CD0003BFB042154480CF04DFD01A857490EF050
:104CE00073FB01A94E480EF07BF901A94D480EF067
:104CF00077F901A80EF028FB22200CF031FD0A22E2
:104D0000099901A80EF096FB01A945480EF068F933
:104D100001A944480EF064F901A80EF015FB042126
:104D200041480CF027FD01A845490EF04DFB01A9B3
:104D30003B480EF055F901A93A480EF051F901A887
:104D40000EF002FB22200CF00BFD9DED0A0A01A8DB
:104D500002210EF083FB01A931480EF041F901A9AF
:104D600030480EF03DF901A80EF0EEFA04212E486D
:104D70000CF000FD01A833490EF026FB01A92848DC
:104D80000EF02EF901A927480EF02AF901A80EF01D
:104D9000DBFA22200CF0E4FC9DF86D1001A800293C
:104DA00014BF294621460EF00FFB01A91C480EF046
:104DB00017F901A91B480EF013F901A80EF0C4FA67
:104DC000042119480CF0D6FC01A81F490EF0FCFA8A
:104DD00001A913480EF004F901A912480EF000F9D8
:104DE00001A80EF0B1FA22200CF0BAFC0A220D99AB
:104DF00001A80EF01FFB01A909480EF0F1F801A966
:104E000008480EF0EDF801A80EF09EFA04211DE00E
:104E10002807FF1FC8B10100BCB10100C0B10100EB
:104E2000A807FF1FC807FF1FF8AF0100DCB1010092
:104E3000F0B1010004B2010018B201002CB201006F
:104E400040B2010054B2010068B2010094480CF075
:104E500091FC01A893490EF0B7FA01A992480EF00F
:104E6000BFF801A991480EF0BBF801A80EF06CFA4A
:104E700022200CF075FC0A220E9901A80EF0DAFA35
:104E800001A989480EF0ACF801A988480EF0A8F8ED
:104E900001A80EF059FA042181480CF06BFC01A81E
:104EA00083490EF091FA01A97F480EF099F801A903
:104EB0007E480EF095F801A80EF046FA22200CF07C
:104EC0004FFC9DED0F0A01A802210EF0C7FA01A9BF
:104ED00075480EF085F801A974480EF081F801A814
:104EE0000EF032FA04216E480CF044FC01A871491E
:104EF0000EF06AFA01A96C480EF072F801A96B482D
:104F00000EF06EF801A80EF01FFA22200CF028FC1B
:104F10009DF86E1001A8002914BF294621460EF005
:104F200053FA01A960480EF05BF801A95F480EF042
:104F300057F801A80EF008FA042159480CF01AFCA1
:104F400001A85D490EF040FA01A957480EF048F853
:104F500001A956480EF044F801A80EF0F5F92220F8
:104F60000CF0FEFB0A22129901A80EF063FA01A9C7
:104F70004D480EF035F801A94C480EF031F801A863
:104F80000EF0E2F9042146480CF0F4FB01A84B496D
:104F90000EF01AFA01A944480EF022F801A943487C
:104FA0000EF01EF801A80EF0CFF922200CF0D8FB6D
:104FB0000A22139901A80EF03DFA01A93A480EF011
:104FC0000FF801A939480EF00BF801A80EF0BCF952
:104FD000042133480CF0CEFB01A839490EF0F4F956
:104FE00001A931480DF0FCFF01A930480DF0F8FF90
:104FF00001A80EF0A9F922200CF0B2FB9DED140AD5
:1050000001A802210EF02AFA01A927480DF0E8FFB5
:1050100001A926480DF0E4FF01A80EF095F904213E
:105020001F480CF0A7FB01A826490EF0CDF901A9F5
:105030001D480DF0D5FF01A91C480DF0D1FF01A8B6
:105040000EF082F922200CF08BFB9DF86F1001A866
:10505000002914BF294621460EF0B6F901A91248CD
:105060000DF0BEFF01A911480DF0BAFF01A80EF026
:105070006BF904210A480CF07DFB172112480CF053
:1050800079FB032111480CF075FB132110480CF03B
:1050900071FB03210D480CF06DFB1CB070BD00BF0F
:1050A000F8AF01007CB20100A807FF1FC807FF1F6F
:1050B00090B20100A4B20100B8B20100CCB201006C
:1050C000E0B20100F4B2010008B301007CAE0100BF
:1050D00020B3010070B5434B98B01D6801AC2D1B87
:1050E00018AE28190BF0F2FE04F8010BA642F8D115
:1050F0003D4C3E4812210CF03DFB22200CF030FBD1
:1051000000230A22A1693A480DF0A0FF0421394882
:105110000CF030FB122138480CF02CFB22200CF054
:105120001FFB00230A22E16931480DF08FFF0421A3
:1051300030480CF01FFB122130480CF01BFB2220E2
:105140000CF00EFB00230A22E16A29480DF07EFFD5
:10515000042128480CF00EFB122129480CF00AFB10
:1051600022200CF0FDFA00230A22216B20480DF0CA
:105170006DFF04211F480CF0FDFA122121480CF0AC
:10518000F9FA22200CF0ECFA00230A22216C1848CC
:105190000DF05CFF042117480CF0ECFA12211A48BC
:1051A0000CF0E8FA22200CF0DBFA00230A22616CF2
:1051B0000F480DF04BFF04210E480CF0DBFA1821CC
:1051C00012480CF0D7FA032111480CF0D3FA14213D
:1051D00010480CF0CFFA0E48032118B0BDE870401B
:1051E0000CF0C8BA2807FF1FD816FF1F34B3010000
:1051F000A807FF1FF8AF010048B301005CB301002E
:1052000070B3010084B3010098B30100ACB3010096
:105210007CAE0100C8B3010070B5304B98B01D687A
:1052200001AC2D1B18AE28190BF050FE04F8010B31
:10523000A642F8D12A4C2B4813210CF09BFA2220CD
:105240000CF08EFAA16C28480DF040FF042127488D
:105250000CF090FA132126480CF08CFA22200CF066
:105260007FFA00230A22E16C1F480DF0EFFE0421B3
:105270001E480CF07FFA13211E480CF07BFA222006
:105280000CF06EFA216D18480DF020FF042117482C
:105290000CF070FA132118480CF06CFA22200CF074
:1052A0005FFA00230A22616D0F480DF0CFFE042142
:1052B0000E480CF05FFA192110480CF05BFA03213C
:1052C0000F480CF057FA15210E480CF053FA0C4811
:1052D000032118B0BDE870400CF04CBA2807FF1F3E
:1052E000D816FF1FE0B30100A807FF1FF8AF0100A9
:1052F000F4B3010008B401001CB4010030B4010093
:105300007CAE01004CB40100F0B52DED028BA7B0CE
:1053100005460C4616461F4602A80023012257499F
:105320000BF0E6FA09A808F0A1FD002869D112A83F
:105330009DF82230524902AA08F04CFE149A9DF8BA
:1053400054309DF84C100B928DF830308DF82810A9
:1053500015AA0DF131030DF13E0012F8011F03F8FB
:10536000011B8342F9D1199B109312A808F054FD38
:1053700009A808F07BFD68B901238DF823309FED63
:10538000418A02A80BF0D2FAB0EE480A27B0BDEC71
:10539000028BF0BD0023502212A902A88DF8233001
:1053A0000BF022FB0028EAD050230093224612ABD8
:1053B000294602A80BF088FC38B312A812F0C0F9F5
:1053C000014612A80DF04CFA2F480DF02FFE0521D2
:1053D0002E480CF0CFF9002F41D112A812F0B0F9ED
:1053E000014612A80CF0C6F9012129480CF0C2F9B7
:1053F000314628480DF06AFE032127480CF0BAF91F
:1054000023E009A808F024FD91E7102123480DF0BE
:1054100027FA1D480DF00AFE042121480DF020FA5C
:10542000284612F08DF9014628460DF019FA03219D
:105430001C480DF015FA204612F082F9014620466C
:105440000DF00EFA10480DF0F1FD12A811F0E0F881
:1054500051EC100B11F086F808EE100A91E72220AB
:105460000CF07EF912A812F06BF9014612A80CF0AC
:1054700081F922200CF074F9B6E700BF64B4010092
:10548000A017FF1F00000000C807FF1F70B4010035
:1054900078B40100A807FF1F7CAE01007CB40100B6
:1054A00090B4010098B4010038B5484D4849494CC2
:1054B0002846002340F21222FFF726FFBDEEC00A65
:1054C000284600234FF46172434984ED0C0AFFF72C
:1054D0001BFFBDEEC00A284600234FF46B723F4904
:1054E00084ED000AFFF710FFBDEEC00A2846002336
:1054F00014223B4984ED080AFFF706FFBDEEC00AFF
:10550000284600233222374984ED040AFFF7FCFEC7
:10551000BDEEC00A284600233622334984ED010A35
:10552000FFF7F2FEBDEEC00A284600233A222F49BB
:1055300084ED090AFFF7E8FEBDEEC00A2846002305
:105540003E222B4984ED050AFFF7DEFEBDEEC00AC0
:10555000284600234222274984ED020AFFF7D4FEA1
:10556000BDEEC00A284600234622234984ED0A0ADC
:10557000FFF7CAFEBDEEC00A284600234A221F4993
:1055800084ED060AFFF7C0FEBDEEC00A28460023E0
:1055900040F20A221A4984ED030AFFF7B5FEBDEE78
:1055A000C00A2846002340F20E22164984ED0B0A59
:1055B000FFF7AAFE144BBDEEC00A2046196884ED21
:1055C000070A3422BDE838400BF0C2BCA4B4010085
:1055D0009CB401008013FF1FA8B40100BCB40100FB
:1055E000CCB40100E4B40100F0B40100F8B401004F
:1055F0000CB5010018B5010020B5010034B501005B
:1056000040B5010048B501003807FF1F38B54B4DC4
:105610004B494C4C2846002340F23A22FFF774FED7
:10562000BDEEC00A284600234FF45A72464984ED65
:105630000C0AFFF769FEBDEEC00A284600234FF4AE
:105640006472424984ED000AFFF75EFE0023BDEE5E
:10565000C00A28461A463E4984ED080AFFF754FE60
:10566000BDEEC00A284600234FF46E72394984ED1E
:10567000040AFFF749FEBDEEC00A284600234FF496
:105680007372354984ED010AFFF73EFEBDEEC00A94
:10569000284600234FF4DC72304984ED090AFFF7F5
:1056A00033FEBDEEC00A284600234FF478722C4921
:1056B00084ED050AFFF728FEBDEEC00A2846002348
:1056C0004FF47B72274984ED020AFFF71DFEBDEE01
:1056D000C00A284600230822234984ED0A0AFFF75E
:1056E00013FEBDEEC00A284600234FF47E721F4908
:1056F00084ED060AFFF708FEBDEEC00A2846002327
:105700004FF47F721A4984ED030AFFF7FDFDBDEEE9
:10571000C00A284600230C22164984ED0B0AFFF725
:10572000F3FD154BBDEEC00A2046196884ED070A4B
:105730003422BDE838400BF00BBC00BF5CB5010063
:105740009CB40100D012FF1FA8B40100BCB401003A
:10575000CCB40100E4B40100F0B40100F8B40100DD
:105760000CB5010018B5010020B5010034B50100E9
:1057700040B5010048B501004C07FF1F38B54A4D40
:105780004A494B4C284600234FF41872FFF7BCFDE2
:10579000BDEEC00A284600234FF4D272454984ED7D
:1057A000000AFFF7B1FDBDEEC00A284601234FF401
:1057B0001D72414984ED0A0AFFF7A6FD2846012320
:1057C0004FF422723D4984ED0C0AFFF79DFD2846F7
:1057D00000234FF45D723A4984ED0B0AFFF794FD04
:1057E000BDEEC00A284600234FF46772354984EDA8
:1057F000010AFFF789FDBDEEC00A284600234FF4D9
:10580000CE72314984ED020AFFF77EFDBDEEC00A7B
:10581000284600234FF46F722C4984ED070AFFF7E6
:1058200073FDBDEEC00A284600234FF47472284968
:1058300084ED030AFFF768FDBDEEC00A2846002389
:105840004FF4C872234984ED040AFFF75DFDBDEEF5
:10585000C00A284600234FF479721F4984ED080AD4
:10586000FFF752FDBDEEC00A284600234FF47C72BC
:105870001A4984ED050AFFF747FDBDEEC00A284628
:1058800000231822164984ED060AFFF73DFD154B4B
:10589000BDEEC00A2046196884ED090A3422BDE82D
:1058A00038400BF055BB00BF64B501009CB401004B
:1058B0004C13FF1F6CB5010078B5010084B50100E1
:1058C000A8B40100BCB40100CCB40100E4B40100F0
:1058D000F0B40100F8B401000CB5010018B50100E6
:1058E00020B501000407FF1F38B57B4D7B497C4C78
:1058F000284600239022FFF707FDBDEEC00A284688
:10590000002340F23222774984ED150AFFF7FCFCB0
:10591000BDEEC00A284600234FF46072724984ED40
:10592000160AFFF7F1FCBDEEC00A284600234FF42B
:105930006A726E4984ED040AFFF7E6FCBDEEC00A08
:10594000284600234FF44972694984ED010AFFF7A4
:10595000DBFCBDEEC00A284600234FF47172654996
:1059600084ED040AFFF7D0FCBDEEC00A28460023F0
:105970004FF46972604984ED020AFFF7C5FCBDEE81
:10598000C00A284600234FF44A725C4984ED070A96
:10599000FFF7BAFCBDEEC00A284600234FF44B7255
:1059A000574984ED050AFFF7AFFCBDEEC00A284653
:1059B00001234FF44C72534984ED0B0AFFF7A4FC0A
:1059C000284601234FF451724F4984ED110AFFF725
:1059D0009BFC284600234FF43C724C4984ED110A8D
:1059E000FFF792FCBDEEC00A284601234FF43D723A
:1059F000474984ED090AFFF787FC284601234FF445
:105A00004272444984ED0F0AFFF77EFC28460023CA
:105A10004FF47072404984ED0D0AFFF775FCBDEE3E
:105A2000C00A284600234FF475723C4984ED060AEB
:105A3000FFF76AFCBDEEC00A284600234FF4487207
:105A4000374984ED060AFFF75FFCBDEEC00A284621
:105A50000123CC22334984ED060AFFF755FCBDEE45
:105A6000C00A2846002340F23A322F4984ED0C0A3E
:105A7000FFF74AFCBDEEC00A2846B8EEC00A012373
:105A8000B8222A4984ED120AFFF73EFC284600237B
:105A9000C422274984ED120AFFF736FCBDEEC00A86
:105AA00028460123D822234984ED0A0AFFF72CFC5B
:105AB0002846012340F212321F4984ED100AFFF7F5
:105AC00023FC1E4B84ED0E0A204619685C22BDE8BB
:105AD00038400BF03DBA00BF90B501009CB4010006
