:10000000F8FF0220990100007D050100350501007F
:1000100035050100350501003505010035050100F4
:100020003505010035050100350501007D0501009C
:100030007D05010035050100292001002D21010069
:100040007D0501007D0501007D0501007D050100A4
:100050007D0501007D0501007D0501007D05010094
:100060007D0501007D0501007D0501007D05010084
:100070007D0501007D0501007D0501007D05010074
:100080007D0501007D0501007D0501007D05010064
:100090007D0501007D0501007D0501007D05010054
:1000A0007D0501007D0501007D0501007D05010044
:1000B0007D0501007D0501007D050100F52C010095
:1000C0007D050100212E01007D050100B50D010017
:1000D0007D0501004D2F01007D0501007D0501001A
:1000E0007D0501007D050100B5FC00007D050100D6
:1000F0007D0501007D0501007D0501007D050100F4
:1001000065230100792301008D230100A123010053
:100110007D050100411001007D0501007D05010004
:100120007D0501007D0501007D0501007D050100C3
:100130007D0501007D0501007D0501007D050100B3
:100140007D0501007D050100453001007D050100B0
:100150003D3101007D0501007D0501007D050100A7
:100160007D0501007D0501007D0501007D05010083
:100170007D0501007D0501007D0501007D05010073
:100180007D0501007D0501007D0501007D05010063
:100190007D0501007D050100584B4CF2205210B541
:1001A0001A804DF628121A8000BF00BF10F0EAF93D
:1001B000534B4FF030621A60524A9A60524ADA60EA
:1001C000524B4FF470021A60514A136813F4807353
:1001D00004D150490B604FF4A85313604E4B1A786A
:1001E000110703D51A7842F008021A704B4B4C499C
:1001F0002A221A704B4A4C4B8B4204D252F8040FFD
:1002000043F8040BF8E7494B494900228B4202D2DC
:1002100043F8042BFAE74749474A002352F82300E2
:1002200041F823000133662BF8D1444B444A802126
:1002300003F8011B9342FBD1424B3E4A1A60424BEA
:100240008A221A70A3F5805324225A70A0221A70B1
:100250009A799207FCD59A79D406FCD43B4A9379D3
:1002600003F00C03082B394BF9D103221A714C22ED
:100270005A719A799006FCD5344A9179334B4906E4
:10028000FBD5334A4FF001711160042151602022E7
:100290001A709A7902F00C020C2AFAD12D4B2E4AD0
:1002A0001A602E4B2E4A1A6000225A60072243F829
:1002B000042C2C4AC3F80C2D62B610F0A3FA154B8F
:1002C0001B68DA0705D5284810F0FCF9274B284AA7
:1002D0001A60284B1B785B0609D5244C244B2268F6
:1002E0009A4204D1204810F0EDF90023236014F065
:1002F000DBFE10F04DF912F05DF8FEE70E20054030
:1003000030800440823F04000100002B88ED00E0B3
:1003100010D0034014D0034002D0074000E0074053
:100320002012FF1FE4A00100F806FF1F2012FF1F8C
:10033000041FFF1F0002FF1F0000000000E400E098
:1003400056E400E008ED00E00050064000400640A2
:100350004480044004800440C010050014E000E024
:100360007F320200000020203AAD185D1CE00340FF
:10037000A5C3945A00F00740FFFFFFFFFFFFFFFFF8
:10038000FFFFFFFFFFFFFFFFFFFFFFFFFFFFFFFF7D
:10039000FFFFFFFFFFFFFFFFFFFFFFFFFFFFFFFF6D
:1003A000FFFFFFFFFFFFFFFFFFFFFFFFFFFFFFFF5D
:1003B000FFFFFFFFFFFFFFFFFFFFFFFFFFFFFFFF4D
:1003C000FFFFFFFFFFFFFFFFFFFFFFFFFFFFFFFF3D
:1003D000FFFFFFFFFFFFFFFFFFFFFFFFFFFFFFFF2D
:1003E000FFFFFFFFFFFFFFFFFFFFFFFFFFFFFFFF1D
:1003F000FFFFFFFFFFFFFFFFFFFFFFFFFFFFFFFF0D
:10040000FFFFFFFFFFFFFFFFFFFFFFFFDEF9FFFF23
:1004100010B5054C237833B9044B13B10448AFF33E
:1004200000800123237010BD2012FF1F0000000078
:10043000E8A00100084B10B51BB108490848AFF30C
:1004400000800848036803B910BD074B002BFBD0A0
:10045000BDE81040184700BF000000002412FF1F35
:10046000E8A001002012FF1F0000000000690B69D6
:100470009842D4BF00200120704700BF80698B697B
:100480000028B8BF4042002BB8BF5B429842D4BF9F
:1004900000200120704700BFF0B586460120DEF83D
:1004A0005470DEF82C303A6A106079683A680A4471
:1004B0007A600EF12C0493B15A69002A08DB1A6A9B
:1004C00010605E6819683D695A6931445960521B71
:1004D00019690A445A6154F8043F002BECD1DEF844
:1004E0002430154ADEF81840DEF86400002111605F
:1004F000DB00516803F1804303F5603321440D2490
:1005000019611460DA68502122F08002DA60D96043
:1005100000B1F0BD7A68FB689A4200D0F0BDDEF809
:100520000820DEF85810936823F002039360002936
:10053000F4D0BDE8F040084700800340836A00F132
:10054000280233B10120596A52F8043F0860002B99
:10055000F9D17047234A244BD2ED017AD3ED006ADA
:10056000DFED220A224A234BF8EEE66AF8EEE77A3C
:1005700080EEA67A10B5546893ED000A67EE277AEC
:1005800027EE800A13F020F812F076FF1A4A1B4B70
:1005900092ED006A93ED007A72B607EE904AF8EE9B
:1005A000E77ADFED176A174BD0EE067AB8EEC77A16
:1005B000C7EEA65A93ED1E6AD3ED1D6AC5EE877A83
:1005C00067EE867AF4EEE67AC3ED1C7AD3ED207AF4
:1005D000F1EE10FAD8BFF1EE677AC3ED217A62B678
:1005E00010BD00BF5012FF1FE417FF1FDB0FC940F3
:1005F000D816FF1FDC13FF1FBC15FF1F7416FF1F4B
:10060000CDCCCC3CE413FF1F074AD16BD36A92EDEB
:100610001C7A03FB01F307EE903A20EE070AF8EE8E
:10062000E77A80EE270A70472C17FF1F08B510F0F5
:1006300053FB0028D4BF4FF0FF30032008BD00BF9C
:10064000036A8B4224D0C369994200D07047836902
:10065000002BFBD010B472B60F4AC3698469002125
:100660001160DB00516803F1804303F560332144DE
:100670000D2419611460DA68502122F08002DA60DA
:10068000D96062B600695DF8044B03685B6818477F
:10069000006903689B68184700800340D0ED1D7A0D
:1006A00090ED1C7A2DE9F041F4EE477A466DF1EEBB
:1006B00010FA736846D1FDEEC77A17EE904AB36818
:1006C000A3423DD0002C3368B4BF4FF0FF3201226B
:1006D0009A4215D000F12401012508E013685B421D
:1006E000012B13600BBF926AD36A13601D6051F82F
:1006F000042F002AF2D1C36E03EB43031B0140D148
:1007000084EAE475A5EBE4759DB383689A6812F0FA
:100710000207804649D01A6834498A4240D959684C
:100720003348B0FBF5F5521A954250D3AA1A002768
:10073000012003219F60D8601A6099601D60B46039
:10074000BDE8F081D0ED216AF5EEC06A77EEA67AB9
:10075000F1EE10FAB4EEE77A1CDDF1EE10FAD8BF34
:10076000F0EE477ABDEEE77AC0ED1D7A17EE104A3B
:10077000A5E78268936823F002039360B460BDE844
:10078000F081013BFDD184EAE475A5EBE475002D11
:10079000EFD0BAE7F1EE10FA58BFF0EE477AE1E792
:1007A000134AB2FBF5F51D60E8E7406903681B6872
:1007B0009847D8F80830D8F854609F600122032188
:1007C000DA600B4AB2FBF5F51D609960D6E7D8F800
:1007D000140000210268996001260321DE6012687E
:1007E0001D6099609047D8F85460C7E7FFED02009C
:1007F000006CDC02826893689B0700D47047416DEF
:10080000036F70B504464868A16F1B1A002BB8BF70
:100810005B428B4244D3E16F8B4238D3616F8B4292
:1008200039D24D1EAB42D4F880003EBF0239CB1AFC
:100830004343D4F8880028BF0023184407EE900AE9
:10084000F8EE677AB1EEE70AB4EE400AF1EE10FA7C
:1008500050D1FDEEC07A17EE905AE5B1936813F0CF
:1008600002062BD0136826498B4222D951682548AD
:10087000B0FBF5F55B1A9D422FD3EB1A0024012043
:1008800003219460D06013609160156070BDD4F84E
:100890008450002DE2D1936823F00203936070BD71
:1008A000D4F88000D4F8881000FB031307EE903AC8
:1008B000C6E7144BB3FBF5F5156070BD60690368BE
:1008C0001B689847A3680F4A9E6001200321D860E7
:1008D000B2FBF5F51D60996070BD60690368002684
:1008E0000124032196601B68D46015609160BDE807
:1008F00070401847B0EE670A12F0C6FEA268A8E77B
:10090000FFED0200006CDC0270B5044608460D469F
:1009100015F096FA23680246294620465B68BDE832
:100920007040184738B5044608460D4615F088FA59
:100930002368024629465B682046984705462046BC
:1009400011F07CFD284438BD38B5054611F0C6FDD0
:100950000446284611F072FD204438BD032827D8EC
:10096000DFE800F01D140B021C4B89B393F88810CC
:10097000042081F001010FF0B7BE184B19B393F8B2
:100980008B10112081F001010FF0AEBE134BA9B105
:1009900093F88A10162081F001010FF0A5BE0F4BCD
:1009A00039B193F889100E2081F001010FF09CBE3F
:1009B00070470E2093F889100FF096BE162093F81A
:1009C0008A100FF091BE112093F88B100FF08CBE9F
:1009D000042093F888100FF087BE00BF2C17FF1F6C
:1009E000F8B501210D200FF093FE40F241300FF0D9
:1009F000EFFF0C21C548C64D10F03AF9FF2010F06A
:100A00002DF9FF2010F02AF9FF2010F027F93220ED
:100A10000FF0A8FE0C21BD4810F02AF9FF2010F0BD
:100A20001DF9FF2010F01AF9FF2010F017F93220FD
:100A30000FF098FE0721B74810F01AF9FF2010F0C8
:100A40000DF9FF2010F00AF9FF2010F007F932200D
:100A50000FF088FEB04B1F682E467F1B3446B8351A
:100A600038190FF0ADFC04F8010BA542F8D1AB4BDF
:100A7000AB4D1F682C467F1B383538190FF0A0FC92
:100A800004F8010BA542F8D1A64BA74D1F682C46D0
:100A90007F1B183538190FF093FC04F8010BA542A1
:100AA000F8D1A24BA24D1F682C467F1B1835381970
:100AB0000FF086FC04F8010BA542F8D19D4B9E4D2A
:100AC0001F682C467F1B383538190FF079FC04F865
:100AD000010BA542F8D1994B994D1F682C467F1BFD
:100AE000103538190FF06CFC04F8010BA542F8D151
:100AF000944B954D1C6804F10C0720460FF060FCE8
:100B00000134A74205F8010BF7D1904B904D1C68BA
:100B100004F10C0720460FF053FC0134A74205F8FE
:100B2000010BF7D18B4B8C4D1C6804F10C07204650
:100B30000FF046FC0134A74205F8010BF7D1874BB3
:100B4000874D1C6804F1080720460FF039FC01347A
:100B5000A74205F8010FF7D1824B834D1C6804F1C1
:100B6000080720460FF02CFC0134A74205F8010FBE
:100B7000F7D17E4B7E4D1F682C467F1B44353819BC
:100B80000FF01EFC04F8010BA542F8D1794B7A4D09
:100B90001F682C467F1B5C3538190FF011FC04F8D8
:100BA000010BA542F8D1754B754D1F682C467F1B74
:100BB000303538190FF004FC04F8010BA542F8D1C8
:100BC000704B714D1F682C467F1B183538190FF07C
:100BD000F7FB04F8010BA542F8D16C4B6C4D1F6874
:100BE0002C467F1B183538190FF0EAFB04F8010B6F
:100BF000AC42F8D1012104200FF08AFD01210E2022
:100C00000FF086FD012116200FF082FD0021032048
:100C1000FFF7A4FE00210846FFF7A0FE00210120F7
:100C2000FFF79CFE012111200FF072FD0021022030
:100C3000FFF794FE96F88C0002210FF069FD4FF447
:100C4000F074022196F890000FF062FD2346013BFC
:100C5000FDD1012196F88C000FF046FD96F890002A
:100C600001210FF041FD96F8940002210FF050FD94
:100C700096F8980002210FF04BFD2346013BFDD171
:100C8000012196F894000FF02FFD96F898000121AD
:100C90000FF02AFD96F89C0002210FF039FD96F81E
:100CA000A00002210FF034FD96F89C0001210FF006
:100CB0001BFD96F8A00001210FF016FD013CFDD1AF
:100CC000FE2134480CF092FE042133480FF014FB4F
:100CD00096F88820002A7CD000210320FFF73EFEF2
:100CE0000E212E480FF008FB96F88920002A7CD0B0
:100CF00000210846FFF732FE162129480FF0FCFAC2
:100D000096F88A20002A6AD04CE000BF588401007F
:100D10002C17FF1F688401007813FF1F5007FF1F67
:100D2000B812FF1F4C07FF1FD815FF1F4807FF1FF2
:100D3000C015FF1F0C07FF1F3C13FF1F3C07FF1FC1
:100D4000A415FF1F0007FF1F5016FF1F1C07FF1FE2
:100D50005C16FF1F0807FF1F6816FF1F1407FF1F01
:100D60009716FF1F1007FF1F7F16FF1FFC06FF1FB0
:100D7000F412FF1F0407FF1FA014FF1F2007FF1F0F
:100D80008812FF1F3807FF1F8814FF1F3407FF1F3B
:100D90006C14FF1FE817FF1F7C13FF1F5015FF1F68
:100DA0000015FF1F00210120FFF7D8FD03240121BA
:100DB0000D200FF099FC32200FF0D4FC00210D2003
:100DC0000FF092FC4FF496700FF0CCFC013CEED18A
:100DD000F8BD0123114608480FF0A4FA7CE701236F
:100DE000114606480FF09EFADCE70123114604483D
:100DF0000FF098FA7CE700BF7C13FF1F0015FF1F60
:100E00005015FF1F2DE9F04385B00DF1040904468C
:100E10004E4600254FF0FF3803E02E2808BFA846B5
:100E20000135236820465B699847C0B2FF2806F861
:100E3000010BF2D102E023685B69984723682046E2
:100E40001B69984700282046F5DC00260027CDB115
:100E50000024A0454FF00002174B304639460ED013
:100E600013F0C4FD064619F804000F46303813F09D
:100E700057FD32463B4613F007FC06460F46013449
:100E8000A542E6D1B8F1FF3F10D0013DC8EB050502
:100E9000002D0BDD0024304639460022064B13F0AE
:100EA000CFFE0134A54206460F46F4D147EC106B45
:100EB00005B0BDE8F08300BF00002440FFFFFFFF46
:100EC000012805D0032803D028B19FED050B7047FA
:100ED0000548FFF797BF0548FFF794BFAFF30080C1
:100EE000000000000000F0BF9C07FF1FBC07FF1FB1
:100EF00010B50FF001FFC4B201E00FF0FDFE0FF0DE
:100F0000EBFE0028F9DC0421054810F027FF2146FC
:100F1000044811F0E3FA034811F090FA204610BD9E
:100F200070840100BC07FF1F08B510F0EDFE00281B
:100F300025DD184B1B6853B10FF0DEFE164BC0B217
:100F4000432818700AD0632808D0002008BD10F08C
:100F50009FFE114BC0B243281870F4D1002103202A
:100F6000FFF7FCFC0D4B196879B1012905D100216F
:100F70000120FFF7F3FC012008BD012008BDFFF7A9
:100F800055FB0028D5DA002008BD0120FFF7E6FC5C
:100F9000EDE700BF1807FF1F7413FF1F8812FF1F24
:100FA000F8B52D4C2D4DA76AA36BD4ED1A6A95EDBB
:100FB000036A2B4A2B492C4E03FB07F307EE903AAA
:100FC000F8EEE77A07EE100A67EEA67AB8EEC77A6F
:100FD000C7EE866A00230B601360C6EE877A17EEB1
:100FE000900A13F0AFFC41EC100B12F0EDF951EC4C
:100FF000100B13F0ABFF2B6830601BB3012B20D11B
:10100000D5ED065A94ED1D6A94ED107AD4ED0C7A64
:10101000164CC5EE866AB8EEC77AF8EEE77A26EE89
:10102000877A67EE277A17EE900A13F08BFC41EC73
:10103000100B12F0C9F951EC100B13F087FF206070
:10104000F8BDF8BDD5ED065A94ED1C6A94ED0F7A03
:10105000D4ED0B7ADCE700BF2C17FF1F8812FF1FAF
:101060004C12FF1F1417FF1FB415FF1FF012FF1FB4
:1010700070B511214D484E4C0FF0FAFDFF200FF0D6
:10108000EDFDFF200FF0EAFDFF200FF0E7FD11213D
:1010900048480FF0EDFDFF200FF0E0FDFF200FF0BE
:1010A000DDFDFF200FF0DAFD112143480FF0E0FDD8
:1010B000FF200FF0D3FDFF200FF0D0FDFF200FF039
:1010C000CDFD11213D480FF0D3FDFF200FF0C6FDEF
:1010D000FF200FF0C3FDFF200FF0C0FD11213848A5
:1010E0000FF0C6FDFF200FF0B9FDFF200FF0B6FD99
:1010F000FF200FF0B3FD334A3349966A936B0D68B6
:1011000092ED1A7ADFED316A3148216803FB06F36C
:1011100007EE903A06EE105AF8EEE77AB8EEC66A95
:1011200067EE877A2B4B86EE277A67EE267AC0ED3C
:10113000007A79B301290DD01868274A274B10602F
:10114000002103201D60FFF709FC2168C9B10129B6
:101150001AD070BD1868116C136B92ED1D7A204A7D
:1011600007EE900AF8EEE77A03FB01F327EE877AA1
:1011700007EE903AF8EEE77AC7EE276AC2ED006A0A
:10118000DBE70120FFF7EAFB00210120BDE870400A
:10119000FFF7E4BB186807EE900AB8EEE70AFFF71E
:1011A00033FA0F4B83ED000AC7E700BF78840100D4
:1011B0008812FF1F8C840100A0840100B484010008
:1011C000C88401002C17FF1F1417FF1F0000B44331
:1011D000F015FF1F4C12FF1FB815FF1FA015FF1FB2
:1011E0003813FF1F2DE9F04132212DED048B08EE5D
:1011F000900A9448944EB0EE408AB0EE609A10F097
:10120000ADFD924811F01AF9002191480EF0FCFE54
:1012100001210320FFF7A2FB28EE098AF8EEE88AF5
:101220008B4828EE288AFDEEC87A17EE901A0EF049
:1012300079FF3368002B40F00381864C22682369D4
:101240009FED850A8248854D9FED838A03FB02F35B
:1012500007EE903AF8EEE77A002727EE800A0FF0C3
:1012600017F894ED010A7A487D4CB8EEC00A0FF0E9
:101270003BF835E010F00CFD7A4BC0B263281870D3
:1012800041D06AD9F9284ED0FE2826D10A200FF085
:1012900069FA3368002B00F0B480012B1DD120685F
:1012A000DFF8D881FFF70CFE51EC100B13F04EFE67
:1012B000D8F80030C8F8100003FB00F300EE103A35
:1012C000B8EEC00A624820EE080A0EF0E1FF664B55
:1012D0004046196818220FF0B5F85D480EF07CFF03
:1012E0005B480EF08BFE00283FD010F00DFD00286B
:1012F00036DD2368002BBDD00FF0FEFC594BC0B289
:1013000063281870BDD152480EF07CFE2B68002176
:1013100003444F482B600EF077FE00210320FFF7B7
:101320001DFB0127D9E70A200FF01CFA3368002BB8
:1013300055D0012BD1D12068DFF84081FFF7C0FDE7
:1013400051EC100B13F002FE474BC8F8140019685B
:10135000404618220FF076F8BFE74328D3D0BCE709
:10136000FFF764F90028B8DBC3E701460320FFF765
:10137000F5FA28213D4810F0F1FC35480EF042FE08
:101380000146324811F0AAF8304811F057F81421FC
:10139000374810F0E3FC29682C4811F09FF82B48DF
:1013A00011F04CF82A480EF02DFE2B68142103444E
:1013B0002F482B6010F0D2FC2968244811F08EF8D9
:1013C000224811F03BF831212A4810F0C7FC1F4891
:1013D00011F034F8BDEC048B3846BDE8F08120688C
:1013E000DFF87080FFF76CFD51EC100B13F0AEFDD1
:1013F000214BC8F814001968404618220FF022F853
:1014000099E72068DFF84C80FFF75AFD51EC100B8C
:1014100013F09CFDD8F80030C8F8100003FB00F36F
:1014200000EE103AB8EEC00A094820EE080A0EF0A5
:101430002FFF114B4046196818220FF003F84CE7B4
:101440000E4CFBE6DC8401008812FF1FBC07FF1F67
:101450007C13FF1F8814FF1F0AD7233C1417FF1F9C
:101460001807FF1F7413FF1F3407FF1F10850100AB
:101470003C850100548501003807FF1F6C14FF1FD5
:101480002DE9F84388462DED068B2C2109EE900AB4
:101490007448754D9FED759A754E764CB0EE60AA06
:1014A000F0EE408A10F05AFC734810F0C7FF00219C
:1014B00072480EF0A9FD01210020FFF74FFAAA683B
:1014C0006B69D5ED037A6D4803FB02F308EE103A21
:1014D000B8EEC88AB8EEE70A28EE098A0EF004FFD3
:1014E000B0EE480A65480EF0D3FE68EE8A8AF8EE40
:1014F000E99A624868EEA98A0027FDEEE87A17EEBD
:10150000901A0EF00FFE29E010F0C2FBC0B25C4B47
:101510006328187034D031D9F92841D0FE281AD167
:101520000A200FF01FF9574B1B68002B00F08A8030
:10153000012B10D12068DFF86491FFF7C1FC51EC5A
:10154000100B13F003FD504BC9F810001968484602
:1015500018220EF077FF49480EF03EFE47480EF085
:101560004DFD014600283FD010F0CEFB002836DDAF
:101570002368002BC8D00FF0BFFBC7E74328EAD190
:101580003E480EF03FFD3368002103443B48336082
:101590000EF03AFD00210846FFF7E0F90127DAE7EF
:1015A0000A200FF0DFF82068FFF78AFC51EC100BDF
:1015B00013F0CCFCAB68024603FB02F300EE103ADA
:1015C000B8EEC00A2D486A6120EE090A0EF060FEEE
:1015D0002E4B2548196818220EF034FFBBE7FFF7A1
:1015E00025F80028B7DBC3E7FFF7B8F9132128482F
:1015F0001F4C10F0B3FB31681F4810F06FFF1E48FE
:1016000010F01CFFB8F1000F05D01C480EF0FAFCDA
:1016100023681844206013211E4810F09FFB316896
:10162000154810F05BFF144810F008FF2B211A48F2
:1016300010F094FB104810F001FFBDEC068B38460B
:10164000BDE8F8832068FFF73BFC51EC100B13F06A
:101650007DFC0E4B28611968034818220EF0F2FE3B
:1016600079E700BF888501008814FF1F0AD7233C53
:101670004C12FF1F1807FF1FBC07FF1F5015FF1F4D
:101680007413FF1F8812FF1F3407FF1F3807FF1F47
:10169000B8850100CC850100E08501006C14FF1FB6
:1016A0002DE9F84388462DED068B2C2109EE900A92
:1016B0007448754D9FED759A754E764CB0EE60AAE4
:1016C000F0EE408A10F04AFB734810F0B7FE00219C
:1016D00072480EF099FC01210846FFF73FF9AA680D
:1016E0006B69D5ED037A6D4803FB02F308EE103AFF
:1016F000B8EEC88AB8EEE70A28EE098A0EF0F4FDC3
:10170000B0EE480A65480EF0C3FD68EE8A8AF8EE2E
:10171000E99A624868EEA98A0027FDEEE87A17EE9A
:10172000901A0EF0FFFC26E010F0B2FAC0B25C4B4B
:101730006328187030D02DD9F9283DD0FE2817D154
:101740000A200FF00FF8574B1B68002B00F0888021
:10175000012B0DD12068FFF7B3FB51EC100B13F0F8
:10176000F5FB514B28611968474818220EF06AFEB4
:101770004A480EF031FD49480EF040FC00283FD0A9
:1017800010F0C2FA002836DD2368002BCCD00FF011
:10179000B3FACBE74328EBD140480EF033FC336873
:1017A000002103443D4833600EF02EFC002101204F
:1017B000FFF7D4F80127DBE70A200EF0D3FF2068FB
:1017C000FFF77EFB51EC100B13F0C0FBAB68024639
:1017D00003FB02F300EE103AB8EEC00A2F486A612C
:1017E00020EE090A0EF054FD2F4B274819681822E5
:1017F0000EF028FEBCE7FEF719FF0028B8DBC3E7B0
:1018000001460120FFF7AAF811212848204C10F0CA
:10181000A5FA3168204810F061FE1F4810F00EFE56
:10182000B8F1000F05D01D480EF0ECFB23681844FA
:10183000206011211D4810F091FA3168164810F00F
:101840004DFE154810F0FAFD2B21194810F086FACC
:10185000114810F0F3FDBDEC068B3846BDE8F88367
:101860002068DFF85490FFF72BFB51EC100B13F0BE
:101870006DFB104BC9F810001968484618220EF08D
:10188000E1FD75E70C8601006C14FF1F0AD7233CAD
:101890004C12FF1F1807FF1FBC07FF1F0015FF1F7B
:1018A0007413FF1F8812FF1F3407FF1F3C860100BF
:1018B000508601003807FF1F8814FF1F38B52E4BD4
:1018C0002E4D1C682DED028B04FB00F430212C48BA
:1018D000B0EE408AF0EE608A10F040FA296829489C
:1018E00010F0FCFD274810F0A9FD1921264810F042
:1018F00035FA18EE100A13F025F841EC100B02210E
:10190000204810F0F5FD1F4810F098FD15211F48E4
:1019100010F024FA18EE900A13F014F841EC100BB2
:101920000221184810F0E4FD164810F087FD172139
:10193000174810F013FA2146124810F0CFFD114855
:1019400010F07CFD2B682046F0EE680AB0EE480AE5
:1019500001216BB1FFF7A4FE044617210D4810F0DA
:10196000FDF9084810F06AFDBDEC028B204638BD39
:10197000FFF786FD0446F0E74407FF1F8812FF1FAC
:101980007C860100BC07FF1FB0860100CC860100E9
:10199000E4860100FC8601002DE9F84FDFF8C082E3
:1019A000D8F81430012B14BF08200420FFF7F8FAF0
:1019B000D8F81030002B40F34A81A74DA74CA94618
:1019C0000127D8F81460002E00F04C81012E40F061
:1019D0003881D4ED007ADFF884A2B8EEE70A304609
:1019E000F0EE080AFFF7FEFB8346FFF79DFA00289A
:1019F00040F02D81BBF1000F40F02981D5ED007A38
:101A00004FF0FF30B8EEE70AF0EE000AFFF756FF9E
:101A10008346FFF789FA002840F01981BBF1000FD7
:101A200040F015819AED000A4FF0FF30B8EEC00A81
:101A3000F7EE000AFFF7D6FB8246FFF775FA00289B
:101A400040F00581BAF1000F40F00181D9ED007A34
:101A50003046B8EEE70AF7EE000AFFF72FFF06461A
:101A6000FFF762FA002840F0F280002E40F0EF808D
:101A7000D4ED007A4FF0FF30B8EEE70AF7EE000A37
:101A8000FFF7B0FB0646FFF74FFA002840F0DF8073
:101A9000002E40F0DC80D5ED007A4FF0FF30B8EE3C
:101AA000E70AF0EE000AFFF709FF0646FFF73CFAE7
:101AB000002840F0CC80002E40F0C980D4ED007AA0
:101AC0000120B8EEE70AF0EE080AFFF78BFB0646A6
:101AD000FFF72AFA002840F0BA80002E40F0B780C5
:101AE000D5ED007A0120B8EEE70AF1EE000AFFF723
:101AF000E5FE0646FFF718FA002840F0A880002E01
:101B000040F0A580D5ED007A4FF0FF30B8EEE70A3F
:101B1000F2EE000AFFF7D2FE0646FFF705FA0028AC
:101B200040F09580002E40F09280D4ED007A4FF086
:101B3000FF30B8EEE70AF0EE080AFFF753FB06465F
:101B4000FFF7F2F9002840F08280002E7FD1D5ED1A
:101B5000007A0120B8EEE70AF0EE000AFFF7AEFEC9
:101B60000646FFF7E1F9002871D1002E6FD1D4EDC0
:101B7000007A0120B8EEE70AF7EE000AFFF732FB21
:101B80000646FFF7D1F9002861D1002E5FD1D5EDCF
:101B9000007A4FF0FF30B8EEE70AF7EE000AFFF7E1
:101BA0008DFE0646FFF7C0F9002850D1002E4ED119
:101BB000D4ED007A0120B8EEE70AF7EE000AFFF74D
:101BC00011FB0646FFF7B0F9002840D1FEBBD5ED6A
:101BD000007A0120B8EEE70AF0EE000AFFF76EFE89
:101BE0000646FFF7A1F990BB8EBBD4ED007A4FF00B
:101BF000FF30B8EEE70AF0EE080AFFF7F3FA064600
:101C0000FFF792F918BB16BBD5ED007A0120B8EEAC
:101C1000E70AF1EE000AFFF751FE0646FFF784F9E6
:101C2000A8B9A6B9D5ED007A4FF0FF30B8EEE70AB3
:101C3000F2EE000AFFF742FE0646FFF775F930B9EB
:101C40002EB9D8F810300137BB42BFF6BAAEBDE8A6
:101C5000F84FFFF70DBA00BFF012FF1FB415FF1FBA
:101C60008812FF1FD5ED007A0120B8EEE70AF0EEEA
:101C7000080AFFF723FE0646FFF756F90028E6D1CB
:101C8000002EE4D1D4ED007A974EB8EEE70A4FF07B
:101C9000FF30F0EE000AFFF7A5FA8246FFF744F99D
:101CA0000028D4D1BAF1000FD1D1D9ED007A4FF08C
:101CB000FF30B8EEE70AF7EE000AFFF7FFFD8246B5
:101CC000FFF732F90028C2D1BAF1000FBFD196ED6B
:101CD000000A0120B8EEC00AF7EE000AFFF782FA08
:101CE0000646FFF721F90028B1D1002EAFD1D9ED7A
:101CF000007A4FF0FF30B8EEE70AF7EE000AFFF780
:101D0000DDFD0646FFF710F90028A0D1002E9ED178
:101D1000D4ED007A4FF0FF30B8EEE70AF0EE000A9B
:101D2000FFF760FA0646FFF7FFF800288FD1002E74
:101D30008DD1D5ED007A0120B8EEE70AF0EE080A61
:101D4000FFF7BCFD0646FFF7EFF800287FF47FAFF2
:101D5000002E7FF47CAFD4ED007A0120B8EEE70AC4
:101D6000F1EE000AFFF73EFA0646FFF7DDF800281D
:101D70007FF46DAF002E7FF46AAFD4ED007A4FF0A0
:101D8000FF30B8EEE70AF2EE000AFFF72BFA06463C
:101D9000FFF7CAF800287FF45AAF002E7FF457AF40
:101DA000D5ED007A4FF0FF30B8EEE70AF0EE080A02
:101DB000FFF784FD0646FFF7B7F800287FF447AF2A
:101DC000002E7FF444AFD4ED007A0120B8EEE70A8C
:101DD000F0EE000AFFF706FA0646FFF7A5F800281E
:101DE0007FF435AF002E7FF432AFD5ED007A0120BD
:101DF000B8EEE70AF7EE000AFFF760FD0646FFF7C8
:101E000093F800287FF423AF002E7FF420AFD4EDA9
:101E1000007A4FF0FF30B8EEE70AF7EE000AFFF75E
:101E2000E1F90646FFF780F800287FF410AF002E96
:101E30007FF40DAFD5ED007A0120B8EEE70AF7EE9A
:101E4000000AFFF73BFD0646FFF76EF800287FF417
:101E5000FEAE002E7FF4FBAED4ED007A0120B8EE8A
:101E6000E70AF0EE000AFFF7BDF90646FFF75CF857
:101E700000287FF4ECAE002E7FF4E9AED5ED007AB9
:101E80004FF0FF30B8EEE70AF0EE080AFFF716FD54
:101E90000646FFF749F800287FF4D9AE002E7FF4FC
:101EA000D6AED4ED007A0120B8EEE70AF1EE000AD2
:101EB000FFF798F90646FFF737F800287FF4C7AE1A
:101EC000002E7FF4C4AED4ED007A4FF0FF30B8EEB0
:101ED000E70AF2EE000AFFF785F90646FFF724F855
:101EE00000283FF4ADAEB2E6B415FF1F2DE9F84F60
:101EF000E24F7B69012B14BF0D200420FFF750F83F
:101F00003B69002B40F34382DD4CDE4DA1464FF090
:101F100001087E69002E00F03E82012E40F03182E1
:101F2000D5ED007ADFF85CA3B8EEE70A4FF0FF309A
:101F3000F7EE000AFFF7C2FC8346FEF7F5FF002824
:101F400040F02582BBF1000F40F02182D4ED007AF1
:101F50003046B8EEE70AF0EE080AFFF743F9064606
:101F6000FEF7E2FF002840F01282002E40F00F82C0
:101F70009AED000A4FF0FF30B8EEC00AF0EE000A0A
:101F8000FFF79CFC0646FEF7CFFF002840F0FF81DC
:101F9000002E40F0FC81D9ED007A4FF0FF30B8EE12
:101FA000E70AF7EE000AFFF71DF90646FEF7BCFF49
:101FB000002840F0EC81002E40F0E981D5ED007A58
:101FC0000120B8EEE70AF7EE000AFFF777FC0646B5
:101FD000FEF7AAFF002840F0DA81002E40F0D781FA
:101FE000D4ED007A4FF0FF30B8EEE70AF7EE000AC2
:101FF000FFF7F8F80646FEF797FF002840F0C78184
:10200000002E40F0C481D5ED007A4FF0FF30B8EEDD
:10201000E70AF0EE080AFFF751FC0646FEF784FFD8
:10202000002840F0B481002E40F0B181D4ED007A58
:102030000120B8EEE70AF7EE000AFFF7D3F80646EC
:10204000FEF772FF002840F0A281002E40F09F8131
:10205000D5ED007A0120B8EEE70AF7EE000AFFF7A7
:102060002DFC0646FEF760FF002840F09081002E10
:1020700040F08D81D4ED007A0120B8EEE70AF7EE4A
:10208000000AFFF7AFF80646FEF74EFF002840F0C3
:102090007E81002E40F07B81D5ED007A4FF0FF303D
:1020A000B8EEE70AF0EE000AFFF708FC0646FEF776
:1020B0003BFF002840F06B81002E40F06881D4ED9A
:1020C000007A4FF0FF30B8EEE70AF0EE080AFFF7AB
:1020D00089F80646FEF728FF002840F05881002EB8
:1020E00040F05581D5ED007A0120B8EEE70AF1EE17
:1020F000080AFFF7E3FB0646FEF716FF002840F04C
:102100004681002E40F04381D4ED007A0120B8EEE4
:10211000E70AF1EE000AFFF765F80646FEF704FF4E
:10212000002840F03481002E40F03181D5ED007A56
:102130004FF0FF30B8EEE70AF1EE0C0AFFF7BEFBF6
:102140000646FEF7F1FE002840F02181002E40F007
:102150001E81D4ED007A4FF0FF30B8EEE70AF0EEC2
:10216000080AFFF73FF80646FEF7DEFE002840F0BB
:102170000E81002E40F00B81D5ED007A4FF0FF303C
:10218000B8EEE70AF0EE000AFFF798FB0646FEF706
:10219000CBFE002840F0FB80002E40F0F880D4ED0C
:1021A000007A0120B8EEE70AF7EE000AFFF71AF806
:1021B0000646FEF7B9FE002840F0E980002E40F008
:1021C000E680D5ED007A0120B8EEE70AF7EE000AC6
:1021D000FFF774FB0646FEF7A7FE002840F0D78005
:1021E000002E40F0D480D4ED007A0120B8EEE70A4A
:1021F000F7EE000AFEF7F6FF0646FEF795FE00280A
:1022000040F0C580002E40F0C280D5ED007A4FF03E
:10221000FF30B8EEE70AF0EE080AFFF74FFB06467C
:10222000FEF782FE002840F0B280002E40F0AF8022
:10223000D4ED007A4FF0FF30B8EEE70AF7EE000A6F
:10224000FEF7D0FF0646FEF76FFE002840F09F80A5
:10225000002E40F09C80D5ED007A0120B8EEE70A10
:10226000F7EE000AFFF72AFB0646FEF75DFE0028A0
:1022700040F08D80002E40F08A8005E08812FF1F1C
:10228000B415FF1FF012FF1FD4ED007A4FF0FF309E
:10229000B8EEE70AF7EE000AFEF7A4FF0646FEF7DF
:1022A00043FE002873D1002E71D1D5ED007A4FF096
:1022B000FF30B8EEE70AF0EE000AFFF7FFFA064635
:1022C000FEF732FE002862D1002E60D1D4ED007AF4
:1022D0000120B8EEE70AF0EE080AFEF783FF064693
:1022E000FEF722FE002852D1002E50D1D5ED007A03
:1022F0000120B8EEE70AF1EE040AFFF7DFFA06461E
:10230000FEF712FE002842D1002E40D1D5ED007A12
:102310004FF0FF30B8EEE70AF1EE080AFFF7CEFA09
:102320000646FEF701FE90BB8EBBD4ED007A4FF05F
:10233000FF30B8EEE70AF1EE000AFEF753FF06465B
:10234000FEF7F2FD18BB16BBD5ED007A0120B8EE02
:10235000E70AF1EE0C0AFFF7B1FA0646FEF7E4FDD4
:10236000A8B9A6B9D5ED007A4FF0FF30B8EEE70A6C
:10237000F1EE0C0AFFF7A2FA0646FEF7D5FD30B9DA
:102380002EB93B6908F101084345BFF6C2ADBDE86F
:10239000F84FFEF76DBED4ED007A4FF0FF30B8EE87
:1023A000E70AF7EE000AFEF71DFF0646FEF7BCFD42
:1023B0000028ECD1002EEAD1D5ED007AD94EB8EE46
:1023C000E70A0120F0EE080AFFF778FA8246FEF7E6
:1023D000ABFD0028DBD1BAF1000FD8D1D9ED007ADE
:1023E0004FF0FF30B8EEE70AF0EE000AFEF7FAFE13
:1023F0008246FEF799FD0028C9D1BAF1000FC6D177
:1024000096ED000A4FF0FF30B8EEC00AF7EE000A72
:10241000FFF754FA0646FEF787FD0028B7D1002ED5
:10242000B5D1D9ED007A0120B8EEE70AF7EE000A3F
:10243000FEF7D8FE0646FEF777FD0028A7D1002E4E
:10244000A5D1D5ED007A4FF0FF30B8EEE70AF7EEF0
:10245000000AFFF733FA0646FEF766FD002896D11C
:10246000002E94D1D4ED007A4FF0FF30B8EEE70A99
:10247000F0EE080AFEF7B6FE0646FEF755FD002808
:1024800085D1002E83D1D5ED007A0120B8EEE70A80
:10249000F7EE000AFFF712FA0646FEF745FD0028A0
:1024A0007FF475AF002E7FF472AFD4ED007A012077
:1024B000B8EEE70AF7EE000AFEF794FE0646FEF7CE
:1024C00033FD00287FF463AF002E7FF460AFD5EDBD
:1024D000007A0120B8EEE70AF7EE000AFFF7EEF9FE
:1024E0000646FEF721FD00287FF451AF002E7FF451
:1024F0004EAFD4ED007A4FF0FF30B8EEE70AF0EEC1
:10250000000AFEF76FFE0646FEF70EFD00287FF478
:102510003EAF002E7FF43BAFD5ED007A4FF0FF3099
:10252000B8EEE70AF0EE080AFFF7C8F90646FEF72C
:10253000FBFC00287FF42BAF002E7FF428AFD4EDF6
:10254000007A0120B8EEE70AF1EE080AFEF74AFE2B
:102550000646FEF7E9FC00287FF419AF002E7FF451
:1025600016AFD5ED007A0120B8EEE70AF1EE000AC9
:10257000FFF7A4F90646FEF7D7FC00287FF407AF63
:10258000002E7FF404AFD4ED007A4FF0FF30B8EEA8
:10259000E70AF1EE0C0AFEF725FE0646FEF7C4FC3C
:1025A00000287FF4F4AE002E7FF4F1AED5ED007A72
:1025B0004FF0FF30B8EEE70AF0EE080AFFF77EF9B9
:1025C0000646FEF7B1FC00287FF4E1AE002E7FF452
:1025D000DEAED4ED007A4FF0FF30B8EEE70AF0EE51
:1025E000000AFEF7FFFD0646FEF79EFC00287FF47A
:1025F000CEAE002E7FF4CBAED5ED007A0120B8EE42
:10260000E70AF7EE000AFFF759F90646FEF78CFCD9
:1026100000287FF4BCAE002E7FF4B9AED4ED007A72
:102620000120B8EEE70AF7EE000AFEF7DBFD0646EA
:10263000FEF77AFC00287FF4AAAE002E7FF4A7AE46
:10264000D5ED007A0120B8EEE70AF7EE000AFFF7B1
:1026500035F90646FEF768FC00287FF498AE002E98
:102660007FF495AED4ED007A4FF0FF30B8EEE70A74
:10267000F0EE080AFEF7B6FD0646FEF755FC002808
:102680007FF485AE002E7FF482AED5ED007A4FF058
:10269000FF30B8EEE70AF7EE000AFFF70FF906463B
:1026A000FEF742FC00287FF472AE002E7FF46FAE7E
:1026B000D4ED007A0120B8EEE70AF7EE000AFEF743
:1026C00091FD0646FEF730FC00287FF460AE002E38
:1026D0007FF45DAED5ED007A4FF0FF30B8EEE70A3B
:1026E000F7EE000AFFF7EAF80646FEF71DFC0028A1
:1026F0007FF44DAE002E7FF44AAED4ED007A4FF059
:10270000FF30B8EEE70AF0EE000AFEF76BFD064672
:10271000FEF70AFC00287FF43AAE002E7FF437AEB5
:1027200002E000BFF012FF1FD5ED007A0120B8EEE5
:10273000E70AF0EE080AFFF7C1F80646FEF7F4FBD9
:1027400000287FF424AE002E7FF421AED4ED007A71
:102750000120B8EEE70AF1EE040AFEF743FD064653
:10276000FEF7E2FB00287FF412AE002E7FF40FAEDE
:10277000D4ED007A4FF0FF30B8EEE70AF1EE080A28
:10278000FEF730FD0646FEF7CFFB00287FF4FFADD5
:10279000002E7FF4FCADD5ED007A4FF0FF30B8EE9F
:1027A000E70AF1EE000AFFF789F80646FEF7BCFBE0
:1027B00000287FF4ECAD002E7FF4E9ADD4ED007A73
:1027C0000120B8EEE70AF1EE0C0AFEF70BFD064613
:1027D000FEF7AAFB00287FF4DAAD002E7FF4D7AD18
:1027E000D4ED007A4FF0FF30B8EEE70AF1EE0C0AB4
:1027F000FEF7F8FC0646FEF797FB00283FF4C0AD55
:10280000C5E500BF2DE9F84F944E7369012B14BF45
:1028100004200320FEF7C4FB3369002B40F39080B3
:10282000DFF840828E4FC14601257469002C00F00C
:102830008B80012C7FD1D7ED007ADFF824A2B8EE8F
:10284000E70A2046F0EE080AFEF7CCFC8346FEF7C6
:102850006BFB002874D1BBF1000F71D1D8ED007A69
:102860004FF0FF30B8EEE70AF0EE080AFFF726F85F
:102870008346FEF759FB002862D1BBF1000F5FD100
:102880009AED000A4FF0FF30B8EEC00AF0EE000AF1
:10289000FEF7A8FC8246FEF747FB002850D1BAF1AC
:1028A000000F4DD1D9ED007A2046B8EEE70AF7EED9
:1028B000000AFFF703F80446FEF736FB00283FD175
:1028C000F4BBD7ED007A0120B8EEE70AF7EE000A74
:1028D000FEF788FC0446FEF727FB88BB84BBD8EDD7
:1028E000007A0120B8EEE70AF7EE000AFEF7E6FFED
:1028F0000446FEF719FB18BB14BBD7ED007A4FF066
:10290000FF30B8EEE70AF0EE000AFEF76BFC044673
:10291000FEF70AFBA0B99CB9D8ED007A4FF0FF3062
:10292000B8EEE70AF0EE080AFEF7C8FF0446FEF725
:10293000FBFA28B924B933690135AB42BFF675AF4C
:10294000BDE8F84FFEF794BBD8ED007A0120B8EE51
:10295000E70AF0EE080AFEF7B1FF0446FEF7E4FAD4
:102960000028EDD1002CEBD1D7ED007A3C4CB8EE2D
:10297000E70A4FF0FF30F0EE080AFEF733FC82461C
:10298000FEF7D2FA0028DBD1BAF1000FD8D1D9ED89
:10299000007A4FF0FF30B8EEE70AF0EE000AFEF7DB
:1029A0008DFF8246FEF7C0FA0028C9D1BAF1000FA8
:1029B000C6D194ED000A0120B8EEC00AF7EE000A75
:1029C000FEF710FC0446FEF7AFFA0028B8D1002C41
:1029D000B6D1D9ED007A0120B8EEE70AF7EE000A89
:1029E000FEF76CFF0446FEF79FFA0028A8D1002CE2
:1029F000A6D1D7ED007A0120B8EEE70AF7EE000A7B
:102A0000FEF7F0FB0446FEF78FFA002898D1002C61
:102A100096D1D8ED007A4FF0FF30B8EEE70AF0EE2D
:102A2000000AFEF74BFF0446FEF77EFA002887D126
:102A3000002C85D1D7ED007A4FF0FF30B8EEE70AD1
:102A4000F0EE080AFEF7CEFB0446FEF76DFA00280A
:102A50003FF470AFBDE8F84FFEF70ABB8812FF1FC6
:102A6000B415FF1FF012FF1F2DE9F84FDFF8788231
:102A7000D8F81430012B14BF08200320FEF790FA79
:102A8000D8F81030002B40F32781954D954CA9467E
:102A90000127D8F81460002E00F02881012E40F0A4
:102AA0001581D4ED007ADFF83CA2B8EEE70A304693
:102AB000F0EE080AFEF796FB8346FEF735FA00288B
:102AC00040F00A81BBF1000F40F00681D5ED007A9D
:102AD0004FF0FF30B8EEE70AF0EE080AFEF7EEFE20
:102AE0008346FEF721FA002840F0F680BBF1000F84
:102AF00040F0F2809AED000A4FF0FF30B8EEC00AC5
:102B0000F0EE000AFEF76EFB8246FEF70DFA002893
:102B100040F0E280BAF1000F40F0DE80D9ED007A9B
:102B20003046B8EEE70AF7EE000AFEF7C7FE0646A3
:102B3000FEF7FAF9002840F0CF80002E40F0CC805C
:102B4000D4ED007A0120B8EEE70AF7EE000AFEF7AE
:102B500049FB0646FEF7E8F9002840F0BD80002E4C
:102B600040F0BA80D5ED007A0120B8EEE70AF7EE22
:102B7000000AFEF7A3FE0646FEF7D6F9002840F04D
:102B8000AB80002E40F0A880D4ED007A4FF0FF30EB
:102B9000B8EEE70AF0EE000AFEF724FB0646FEF761
:102BA000C3F9002840F09880002E40F09580D5EDC4
:102BB000007A4FF0FF30B8EEE70AF1EE040AFEF7B4
:102BC0007DFE0646FEF7B0F9002840F08580002E15
:102BD00040F08280D4ED007A0120B8EEE70AF0EEF2
:102BE000000AFEF7FFFA0646FEF79EF9002873D1A9
:102BF000002E71D1D5ED007A0120B8EEE70AF7EE8C
:102C0000000AFEF75BFE0646FEF78EF9002863D148
:102C1000002E61D1D4ED007A4FF0FF30B8EEE70A14
:102C2000F7EE000AFEF7DEFA0646FEF77DF9002809
:102C300052D1002E50D1D5ED007A0120B8EEE70A2E
:102C4000F7EE000AFEF73AFE0646FEF76DF9002899
:102C500042D1002E40D1D4ED007A0120B8EEE70A2F
:102C6000F0EE000AFEF7BEFA0646FEF75DF998BBE5
:102C700096BBD5ED007A4FF0FF30B8EEE70AF0EEE4
:102C8000080AFEF71BFE0646FEF74EF920BB1EBBE8
:102C9000D4ED007A4FF0FF30B8EEE70AF0EE080A04
:102CA000FEF7A0FA0646FEF73FF9A8B9A6B9D5ED9A
:102CB000007A4FF0FF30B8EEE70AF7EE000AFEF7B1
:102CC000FDFD0646FEF730F930B92EB9D8F81030C0
:102CD0000137BB42BFF6DDAEBDE8F84FFEF7C8B91D
:102CE000F012FF1FB415FF1F8812FF1FD5ED007AE9
:102CF0000120B8EEE70AF0EE080AFEF7DFFD06460F
:102D0000FEF712F90028E7D1002EE5D1D4ED007AC4
:102D1000864EB8EEE70A4FF0FF30F0EE080AFEF7F5
:102D200061FA8246FEF700F90028D5D1BAF1000F0A
:102D3000D2D1D9ED007A4FF0FF30B8EEE70AF0EECD
:102D4000000AFEF7BBFD8246FEF7EEF80028C3D16D
:102D5000BAF1000FC0D196ED000A0120B8EEC00A0A
:102D6000F7EE000AFEF73EFA0646FEF7DDF8002809
:102D7000B2D1002EB0D1D9ED007A0120B8EEE70A29
:102D8000F7EE000AFEF79AFD0646FEF7CDF800289A
:102D9000A2D1002EA0D1D4ED007A0120B8EEE70A2E
:102DA000F7EE000AFEF71EFA0646FEF7BDF8002809
:102DB00092D1002E90D1D5ED007A4FF0FF30B8EED1
:102DC000E70AF0EE000AFEF779FD0646FEF7ACF8DA
:102DD000002881D1002E7FF47FAFD4ED007A4FF030
:102DE000FF30B8EEE70AF1EE040AFEF7FBF90646FB
:102DF000FEF79AF800287FF46FAF002E7FF46CAFD7
:102E0000D5ED007A0120B8EEE70AF0EE000AFEF7F1
:102E100055FD0646FEF788F800287FF45DAF002ECA
:102E20007FF45AAFD4ED007A0120B8EEE70AF7EE4E
:102E3000000AFEF7D7F90646FEF776F800287FF479
:102E40004BAF002E7FF448AFD5ED007A4FF0FF3046
:102E5000B8EEE70AF7EE000AFEF730FD0646FEF789
:102E600063F800287FF438AF002E7FF435AFD4ED3F
:102E7000007A0120B8EEE70AF7EE000AFEF7B2F991
:102E80000646FEF751F800287FF426AF002E7FF4A7
:102E900023AFD5ED007A0120B8EEE70AF0EE000A84
:102EA000FEF70CFD0646FEF73FF800287FF414AF4E
:102EB000002E7FF411AFD4ED007A4FF0FF30B8EE62
:102EC000E70AF0EE080AFEF78DF90646FEF72CF841
:102ED00000287FF401AF002E7FF4FEAED5ED007A1E
:102EE0004FF0FF30B8EEE70AF0EE080AFEF7E6FC16
:102EF0000646FEF719F800287FF4EEAE002E7FF4A8
:102F0000EBAED4ED007A4FF0FF30B8EEE70AF7EE03
:102F1000000AFEF767F90646FEF706F800283FF4B8
:102F2000D4AEBDE8F84FFEF7A3B800BFB415FF1F3D
:102F30002DE9F84F964E7369012B14BF0320022030
:102F4000FEF72EF83369002B40F39380914FDFF8A2
:102F50004882BA4601257469002C00F08E80012C4D
:102F600040F08280D8ED007ADFF82C92B8EEE70AC4
:102F70002046F0EE000AFEF7A1FC8346FDF7D4FFE1
:102F8000002876D1BBF1000F73D1D9ED007A4FF054
:102F9000FF30B8EEE70AF0EE000AFEF78FFC83463A
:102FA000FDF7C2FF002864D1BBF1000F61D1D7ED5E
:102FB000007A2046B8EEE70AF0EE000AFEF712F9B2
:102FC0000446FDF7B1FF002853D1002C51D199EDF3
:102FD000000A4FF0FF30B8EEC00AF0EE000AFEF72C
:102FE0006DFC0446FDF7A0FF002842D1002C40D123
:102FF000D7ED007A4FF0FF30B8EEE70AF7EE000A9F
:10300000FEF7F0F80446FDF78FFF90BB8CBBD8EDC0
:10301000007A4FF0FF30B8EEE70AF7EE000AFEF74D
:103020004DFC0446FDF780FF18BB14BBD7ED007ABA
:103030004FF0FF30B8EEE70AF7EE000AFEF7D2F8DD
:103040000446FDF771FFA0B99CB9D8ED007A4FF0A6
:10305000FF30B8EEE70AF0EE000AFEF72FFC044658
:10306000FDF762FF28B924B933690135AB42BFF6D9
:1030700072AFBDE8F84FFDF7FBBFD7ED007A012036
:10308000B8EEE70AF0EE000AFEF7ACF80446FDF7EA
:103090004BFF0028EDD1002CEBD1DAED007A4FF098
:1030A000FF30B8EEE70AF0EE000AFEF79BF80446A0
:1030B000FDF73AFF0028DCD1002CDAD1D8ED007AF8
:1030C000354CB8EEE70A0120F0EE000AFEF7F6FBF9
:1030D0008146FDF729FF0028CBD1B9F1000FC8D1F7
:1030E000DAED007A4FF0FF30B8EEE70AF0EE000AB2
:1030F000FEF778F88146FDF717FF0028B9D1B9F13E
:10310000000FB6D194ED000A4FF0FF30B8EEC00AC0
:10311000F7EE000AFEF7D2FB0446FDF705FF002894
:10312000A7D1002CA5D1D7ED007A0120B8EEE70A8F
:10313000F7EE000AFEF756F80446FDF7F5FE002804
:1031400097D1002C95D1D8ED007A4FF0FF30B8EE32
:10315000E70AF7EE000AFEF7B1FB0446FDF7E4FECE
:10316000002886D1002C84D1D7ED007A4FF0FF30B3
:10317000B8EEE70AF0EE000AFEF734F80446FDF771
:10318000D3FE00283FF46FAFBDE8F84FFDF770BFE6
:103190008812FF1FB415FF1FF012FF1F2DE9F04723
:1031A0008F4F7B69012B14BF06200220FDF7F8FE2C
:1031B0003B69002B40F310818A4C8B4DA1460126C0
:1031C0007869002800F01281012840F00081D5EDD7
:1031D000007ADFF81482B8EEE70AF7EE000AFEF78D
:1031E0006DFB8246FDF7A0FE002840F0F580BAF1A5
:1031F000000F40F0F180D8ED007A4FF0FF30B8EECC
:10320000E70AF7EE000AFEF759FB8246FDF78CFE4F
:10321000002840F0E180BAF1000F40F0DD80D4EDED
:10322000007A4FF0FF30B8EEE70AF0EE000AFDF743
:10323000D9FF8246FDF778FE002840F0CD80BAF134
:10324000000F40F0C98098ED000A4FF0FF30B8EE53
:10325000C00AF0EE000AFEF731FB8046FDF764FE7F
:10326000002840F0B980B8F1000F40F0B580D4EDEF
:10327000007A4FF0FF30B8EEE70AF0EE000AFDF7F3
:10328000B1FF8046FDF750FE002840F0A580B8F160
:10329000000F40F0A180D5ED007A0120B8EEE70ADA
:1032A000F7EE000AFEF70AFB8046FDF73DFE002818
:1032B00040F09280B8F1000F40F08E80D4ED007A9B
:1032C0004FF0FF30B8EEE70AF7EE000AFDF78AFF8D
:1032D0008046FDF729FE00287ED1B8F1000F7BD192
:1032E000D5ED007A4FF0FF30B8EEE70AF0EE080AAD
:1032F000FEF7E4FA8046FDF717FE00286CD1B8F11E
:10330000000F69D1D4ED007A0120B8EEE70AF7EE9C
:10331000000AFDF767FF8046FDF706FE00285BD137
:10332000B8F1000F58D1D5ED007A0120B8EEE70AC8
:10333000F7EE000AFEF7C2FA8046FDF7F5FD002819
:103340004AD1B8F1000F47D1D4ED007A0120B8EE90
:10335000E70AF7EE000AFDF745FF8046FDF7E4FDBA
:10336000D0BBB8F1000F37D1D5ED007A4FF0FF3068
:10337000B8EEE70AF0EE000AFEF7A0FA8046FDF785
:10338000D3FD48BBB8F1000F26D1D4ED007A4FF041
:10339000FF30B8EEE70AF0EE000AFDF723FF8046A3
:1033A000FDF7C2FDC0B9B8F1000F15D1D5ED007A17
:1033B0004FF0FF30B8EEE70AF7EE000AFEF77EFAAC
:1033C0008046FDF7B1FD38B9B8F1000F04D13B6973
:1033D0000136B342BFF6F4AEBDE8F047FDF748BE94
:1033E0008812FF1FB415FF1FF012FF1FD4ED007AE3
:1033F0000120B8EEE70AF7EE000AFDF7F3FE80467B
:10340000FDF792FD0028E7D1B8F1000FE4D1D9ED26
:10341000007A4FF0FF30B8EEE70AF7EE000AFDF74A
:10342000E1FE8046FDF780FD0028D5D1B8F1000F00
:10343000D2D1D5ED007ADFF8C481B8EEE70A0120D9
:10344000F0EE000AFEF73AFA8246FDF76DFD00281D
:10345000C2D1BAF1000FBFD1D9ED007A4FF0FF30E1
:10346000B8EEE70AF0EE000AFDF7BCFE8246FDF773
:103470005BFD0028B0D1BAF1000FADD198ED000A84
:103480004FF0FF30B8EEC00AF7EE000AFEF716FA6A
:103490008046FDF749FD00289ED1B8F1000F9BD171
:1034A000D4ED007A0120B8EEE70AF7EE000AFDF746
:1034B00099FE8046FDF738FD00288DD1B8F1000F48
:1034C0008AD1D5ED007A4FF0FF30B8EEE70AF7EE7B
:1034D000000AFEF7F3F98046FDF726FD00287FF489
:1034E0007BAFB8F1000F7FF477AFD4ED007A4FF0E7
:1034F000FF30B8EEE70AF0EE080AFDF773FE8046EB
:10350000FDF712FD00287FF467AFB8F1000F7FF4DC
:1035100063AFD5ED007A0120B8EEE70AF7EE000AB6
:10352000FEF7CCF98046FDF7FFFC00287FF454AF8E
:10353000B8F1000F7FF450AFD4ED007A0120B8EE5F
:10354000E70AF7EE000AFDF74DFE8046FDF7ECFCBA
:1035500000287FF441AFB8F1000F7FF43DAFD5ED07
:10356000007A0120B8EEE70AF7EE000AFEF7A6F9A6
:103570008046FDF7D9FC00287FF42EAFB8F1000F8C
:103580007FF42AAFD4ED007A4FF0FF30B8EEE70AAF
:10359000F0EE000AFDF726FE8046FDF7C5FC002888
:1035A0007FF41AAFB8F1000F7FF416AFD5ED007AB3
:1035B0004FF0FF30B8EEE70AF0EE000AFEF77EF9B2
:1035C0008046FDF7B1FC00287FF406AFB8F1000F8C
:1035D0007FF402AFD4ED007A4FF0FF30B8EEE70A87
:1035E000F7EE000AFDF7FEFD8046FDF79DFC002882
:1035F0003FF4EAAEBDE8F047FDF73ABDF012FF1F19
:1036000038B50F4B1C68012C4FF000010FD0FEF7AE
:1036100047F8002105460120FDF7A0F91B210948C4
:103620000EF09CFB08480EF009FF284638BDFDF758
:1036300027FF002105462046FDF790F9EEE700BF81
:103640008812FF1F14870100BC07FF1F70B582B0EE
:1036500000231D4C1D4D1E4E019309E0019B28685F
:1036600018440CF0C7FE019B0133142B019313DCAB
:103670000DF042FBC0B2FF282368014619D0082B89
:10368000ECD1019B32680146D0180CF0B3FE019BCF
:103690000133142B0193EBDD2368082B0CBF0D4B7A
:1036A0000D4B042219680DEB02000CF0CBFE02B0AA
:1036B00070BD082B0CBF064A044A019B106800210C
:1036C00018440CF097FEE7E74007FF1F2C07FF1F89
:1036D0003007FF1F2407FF1F2807FF1F08B5084BEF
:1036E000DFED080AD3ED007A27EE800A0FF06CFFB9
:1036F0000FF0C2FE044BD3ED007A20EE270A08BD7E
:10370000DC13FF1FDB0FC940BC15FF1F1E4A1F4BF8
:1037100092ED010AD3ED007ADFED1D6A1D4BF8EE44
:10372000E77AB8EEC00A86EEA77A10B55C6827EE95
:10373000000AFFF7D3FF184B93ED007A72B607EE3D
:10374000904AF8EEE77ADFED156A154B30EE670A1E
:10375000B8EEC77AC0EE265A93ED1E6AD3ED1D6A05
:10376000C5EE877A67EE867AF4EEE67AC3ED1C7AC8
:10377000D3ED207AF1EE10FAD8BFF1EE677AC3EDFF
:10378000217A62B610BD00BF5012FF1FE417FF1F61
:10379000DB0FC940A016FF1F7416FF1FCDCCCC3C19
:1037A000E413FF1F70B598B0B149B24C01A80FF0F7
:1037B00013F801A9B0480EF01BFE01A9AF480EF0A6
:1037C00017FE01A80EF0C8FF22200EF04BFB2220AE
:1037D0000DF044FAAA4901A80EF0FEFF01A9A6487F
:1037E0000EF006FE01A9A5480EF002FE01A80EF09B
:1037F000B3FF22200EF036FB22200DF02FFAFF201F
:103800000EF030FBFF200DF029FAFF200EF02AFB0E
:10381000FF200DF023FAFF200EF024FBFF200DF017
:103820001DFA4FF4FA600CF09DFF0DF065FAC0B27E
:10383000206001E00DF060FA0DF04EFA0028F9DC8E
:1038400013218B480DF014FA22200DF007FA052100
:103850008C480DF00DFA216888480EF03FFE2220BA
:103860000DF0FCF9FF200DF0F9F9FF200DF0F6F94D
:10387000FF200DF0F3F94FF4FA600CF073FF2368AA
:10388000102B00F2D980DFE813F08901D700D700B0
:1038900009029003DB02D7003D047C02D700030439
:1038A00056031100D700D70011011101764B1D6896
:1038B00001AC2D1B12AE28190CF082FD04F8010B8F
:1038C000B442F8D113216A480DF0D2F922200DF04C
:1038D000C5F916216D480DF0CBF9019967480EF036
:1038E000FDFD22200DF0BAF9FF200DF0B7F9FF2001
:1038F0000DF0B4F9FF200DF0B1F94FF4FA600CF0BF
:1039000031FF13215A480DF0B3F922200DF0A6F92A
:1039100013215F480DF0ACF9029958480EF0DEFD16
:1039200022200DF09BF9FF200DF098F9FF200DF0FB
:1039300095F9FF200DF092F94FF4FA600CF012FFA8
:1039400013214B480DF094F922200DF087F9142132
:1039500050480DF08DF9039948480EF0BFFD222024
:103960000DF07CF9FF200DF079F9FF200DF076F9CC
:10397000FF200DF073F94FF4FA600CF0F3FE132101
:103980003B480DF075F922200DF068F911214248ED
:103990000DF06EF9049939480EF0A0FD22200DF0CB
:1039A0005DF9FF200DF05AF9FF200DF057F9FF20C7
:1039B0000DF054F94FF4FA600CF0D4FE13212C48AA
:1039C0000DF056F922200DF049F9142133480DF07D
:1039D0004FF9059929480EF081FD22200DF03EF99E
:1039E000FF200DF03BF9FF200DF038F9FF200DF01E
:1039F00035F94FF4FA600CF0B5FE13211C480DF0B8
:103A000037F922200DF02AF9112125480DF030F95F
:103A100006991A480EF062FD22200DF01FF9FF20D2
:103A20000DF01CF9FF200DF019F9FF200DF016F92B
:103A30004FF4FA600CF096FE17211A480DF018F9B1
:103A4000FF200DF00BF9FF200DF008F9FF200DF01D
:103A500005F9142114480DF00BF9FF200DF0FEF8C4
:103A6000FF200DF0FBF8FF200DF0F8F818B070BD46
:103A7000308701004007FF1FBC07FF1F9C07FF1F87
:103A8000448701004C870100FC06FF1F40890100AC
:103A9000588901006C89010084890100988901001E
:103AA000B0890100408A0100588A0100D14B1B688F
:103AB000002B40F08F83D04B1D6801AC2D1B07AE4F
:103AC00028190CF07DFC04F8010BA642F8D1132153
:103AD000CA480DF0CDF822200DF0C0F81521C848D5
:103AE0000DF0C6F80199C7480EF0F8FC22200DF041
:103AF000B5F8FF200DF0B2F8FF200DF0AFF8FF2071
:103B00000DF0ACF84FF4FA600CF02CFE1321BB481A
:103B10000DF0AEF822200DF0A1F81221BA480DF0F8
:103B2000A7F80299B7480EF0D9FC22200DF096F8BC
:103B3000FF200DF093F8FF200DF090F8FF200DF01E
:103B40008DF84FF4FA600CF00DFE1321AB480DF028
:103B50008FF822200DF082F81321AC480DF088F880
:103B60000399A8480EF0BAFC22200DF077F8FF2048
:103B70000DF074F8FF200DF071F8FF200DF06EF8D5
:103B80004FF4FA600CF0EEFD13219C480DF070F834
:103B900022200DF063F810219D4826E19D4B1D6801
:103BA00001AC2D1B0FAE28190CF00AFC04F8010B18
:103BB000A642F8D1132191480DF05AF822200DF0B9
:103BC0004DF80E2194480DF053F802998D480EF0EF
:103BD00085FC22200DF042F8FF200DF03FF8FF2079
:103BE0000DF03CF8FF200DF039F84FF4FA600CF0BE
:103BF000B9FD132181480DF03BF822200DF02EF87D
:103C00000B2186480DF034F80A997E480EF066FCC8
:103C100022200DF023F8FF200DF020F8FF200DF0FA
:103C20001DF8FF200DF01AF84FF4FA600CF09AFD21
:103C30000E9B012B00F04384022B00F03E83002BEF
:103C40007FF4FAAE13216D480DF012F822200DF02A
:103C500005F8102172480DF00BF8039969480EF031
:103C60003DFC22200CF0FAFFFF200CF0F7FFFF20B4
:103C70000CF0F4FFFF200CF0F1FF4FF4FA600CF0B1
:103C800071FD13215D480CF0F3FF22200CF0E6FFDC
:103C90000D2164480CF0ECFF0B99BAE6624B1D68ED
:103CA00001AC2D1B07AE28190CF08AFB04F8010BA0
:103CB000A642F8D1132151480CF0DAFF22200CF073
:103CC000CDFF0F2159480CF0D3FF01994D480EF05C
:103CD00005FC22200CF0C2FFFF200CF0BFFFFF20EC
:103CE0000CF0BCFFFF200CF0B9FF4FF4FA600CF0B1
:103CF00039FD132141480CF0BBFF22200CF0AEFF30
:103D00000C214B480CF0B4FF02993E480EF0E6FB44
:103D100022200CF0A3FFFF200CF0A0FFFF200CF0EE
:103D20009DFFFF200CF09AFF4FF4FA600CF01AFD93
:103D3000132132480CF09CFF22200CF08FFF102141
:103D400037480CF095FF03992E480EF0C7FB222050
:103D50000CF084FFFF200CF081FFFF200CF07EFFB1
:103D6000FF200CF07BFF4FF4FA600CF0FBFC1321FA
:103D700022480CF07DFF22200CF070FF0D21294815
:103D800033E02C4B1D6801AC2D1B05AE28190CF03F
:103D900017FB04F8010BA642F8D1132117480CF0C9
:103DA00067FF22200CF05AFF102123480CF060FF1F
:103DB000029914480EF092FB22200CF04FFFFF20D6
:103DC0000CF04CFFFF200CF049FFFF200CF046FFE9
:103DD0004FF4FA600CF0C6FC132108480CF048FFC1
:103DE00022200CF03BFF15480D210CF041FF0499F7
:103DF0000FE600BF8812FF1F3807FF1F3087010042
:103E0000C48901009C07FF1FDC890100F0890100C3
:103E1000048A01005007FF1F5487010064870100D6
:103E200070870100848701004C07FF1FDC870100B9
:103E3000EC8701003C07FF1FDC880100F0880100CF
:103E4000D04B1D6801AC2D1B18AE28190CF0B8FA28
:103E500004F8010BA642F8D11321CB480CF008FF5F
:103E600022200CF0FBFE1621C8480CF001FF01993E
:103E7000C7480EF033FB22200CF0F0FEFF200CF0C0
:103E8000EDFEFF200CF0EAFEFF200CF0E7FE4FF401
:103E9000FA600CF067FC1321BB480CF0E9FE22200D
:103EA0000CF0DCFE1321BB480CF0E2FE0299B8488E
:103EB0000EF014FB22200CF0D1FEFF200CF0CEFE01
:103EC000FF200CF0CBFEFF200CF0C8FE4FF4FA6090
:103ED0000CF048FCB04BAC485B6D1321002B40F05C
:103EE00027810CF0C5FE22200CF0B8FE1021AB4853
:103EF0000CF0BEFE0399A6480EF0F0FA22200CF05A
:103F0000ADFEFF200CF0AAFEFF200CF0A7FEFF2064
:103F10000CF0A4FE4FF4FA600CF024FC13219A4834
:103F20000CF0A6FE22200CF099FE0D219C480CF00E
:103F30009FFE08996DE59B4B1C680DF1030504F18C
:103F4000080620460CF03CFA0134A64205F8010FA1
:103F5000F7D113218C480CF08BFE22200CF07EFE52
:103F60000F2191480CF084FE019989480EF0B6FAB1
:103F700022200CF073FEFF200CF070FEFF200CF0EE
:103F80006DFEFF200CF06AFE4FF4FA600CF0EAFBC5
:103F900013217D480CF06CFE22200CF05FFE0C21FA
:103FA00082480CF065FE029933E5814B1D6801AC37
:103FB0002D1B07AE28190CF003FA04F8010BA642DA
:103FC000F8D1132170480CF053FE22200CF046FE6D
:103FD0000F2178480CF04CFE01996D480EF07EFAE6
:103FE00022200CF03BFEFF200CF038FEFF200CF0EE
:103FF00035FEFF200CF032FE4FF4FA600CF0B2FBFD
:10400000132161480CF034FE22200CF027FE0C2115
:1040100069480CF02DFE02995D480EF05FFA2220EF
:104020000CF01CFEFF200CF019FEFF200CF016FE19
:10403000FF200CF013FE4FF4FA600CF093FB1321F9
:1040400051480CF015FE22200CF008FE10215B48B0
:104050000CF00EFE03994E480EF040FA22200CF0B0
:10406000FDFDFF200CF0FAFDFF200CF0F7FDFF2016
:104070000CF0F4FD4FF4FA600CF074FB132142488D
:104080000CF0F6FD22200CF0E9FD0D214C48ACE6C9
:104090004C4B1C680DF1030504F1080620460CF09A
:1040A0008FF90134A64205F8010FF7D113213648E4
:1040B0000CF0DEFD22200CF0D1FD0F2142480CF067
:1040C000D7FD019932480EF009FA22200CF0C6FD06
:1040D000FF200CF0C3FDFF200CF0C0FDFF200CF012
:1040E000BDFD4FF4FA600CF03DFB132126480CF0A7
:1040F000BFFD22200CF0B2FD0C2134480CF0B8FDBD
:10410000029986E4324B1D6801AC2D1B0FAE2819B5
:104110000CF056F904F8010BA642F8D1019B032BD1
:104120003FF68AACDFE813F09E0171014401F6000E
:104130000CF09EFD22200CF091FD10211F480CF088
:1041400097FD049912480EF0C9F922200CF086FD63
:10415000FF200CF083FDFF200CF080FDFF200CF011
:104160007DFD4FF4FA600CF0FDFA132106480CF0C7
:104170007FFD22200CF072FD0D2111480CF078FD1E
:10418000099946E40407FF1F308701001C880100DD
:104190009C07FF1F34880100A014FF1F70870100D7
:1041A000848701001007FF1F20890100308901006A
:1041B0004807FF1FFC8701000C880100948701005D
:1041C000A88701001407FF1F008901001089010062
:1041D0000C07FF1FD04B1D6801AC2D1B07AE281923
:1041E0000CF0EEF804F8010BA642F8D11321CB48ED
:1041F0000CF03EFD22200CF031FD1521C8480CF0DA
:1042000037FD0199C7480EF069F922200CF026FD10
:10421000FF200CF023FDFF200CF020FDFF200CF010
:104220001DFD4FF4FA600CF09DFA1321BB480CF011
:104230001FFD22200CF012FD1221BB480CF018FDCE
:104240000299B8480EF04AF922200CF007FDFF2031
:104250000CF004FDFF200CF001FDFF200CF0FEFC33
:104260004FF4FA600CF07EFA1321AC480CF000FD1C
:1042700022200CF0F3FC1321AC480CF0F9FC03995C
:10428000A8480EF02BF922200CF0E8FCFF200CF0DF
:10429000E5FCFF200CF0E2FCFF200CF0DFFC4FF40B
:1042A000FA600CF05FFA13219C480CF0E1FC22202C
:1042B0000CF0D4FC10219E4897E5132197480CF090
:1042C000D7FC22200CF0CAFC10219A480CF0D0FC3C
:1042D000059994480EF002F922200CF0BFFCFF2053
:1042E0000CF0BCFCFF200CF0B9FCFF200CF0B6FC7D
:1042F0004FF4FA600CF036FA132188480CF0B8FC41
:1043000022200CF0ABFC0D218B480CF0B1FC0D9978
:10431000FFF77FBB132181480CF0AAFC22200CF090
:104320009DFC112185480CF0A3FC02997D480EF0FC
:10433000D5F822200CF092FCFF200CF08FFCFF201F
:104340000CF08CFCFF200CF089FC4FF4FA600CF0B0
:1043500009FA132171480CF08BFC22200CF07EFC32
:104360000E2177480CF084FC0A996E480EF0B6F8DE
:1043700022200CF073FCFF200CF070FCFF200CF0EE
:104380006DFCFF200CF06AFC4FF4FA600CF0EAF9C7
:10439000132162480CF06CFC22200CF05FFC0F2112
:1043A00068480CF065FC684B5E48596AFFF732BB01
:1043B00013215A480CF05CFC22200CF04FFC0E211B
:1043C00062480CF055FC059956480EF087F82220FB
:1043D0000CF044FCFF200CF041FCFF200CF03EFCF4
:1043E000FF200CF03BFC4FF4FA600CF0BBF91321FA
:1043F0004A480CF03DFC22200CF030FC0D215448C2
:104400000CF036FC0D99FFF704BB132143480CF068
:104410002FFC22200CF022FC0E214E480CF028FC30
:10442000049940480EF05AF822200CF017FCFF20A7
:104430000CF014FCFF200CF011FCFF200CF00EFC23
:104440004FF4FA600CF08EF9132134480CF010FC94
:1044500022200CF003FC0D213F480CF009FC0C99C4
:10446000FFF7D7BA13212D480CF002FC22200CF0E4
:10447000F5FB0E2139480CF0FBFB039929480EF09F
:104480002DF822200CF0EAFBFF200CF0E7FBFF20C8
:104490000CF0E4FBFF200CF0E1FB4FF4FA600CF0B1
:1044A00061F913211D480CF0E3FB22200CF0D6FB30
:1044B0000D212B480CF0DCFB0B99FFF7AABA132156
:1044C00016480CF0D5FB22200CF0C8FB1021254823
:1044D0000CF0CEFB049913480EF000F822200CF0EB
:1044E000BDFBFF200CF0BAFBFF200CF0B7FBFF2058
:1044F0000CF0B4FB4FF4FA600CF034F913210748C8
:104500000CF0B6FB22200CF0A9FB0D2116480CF094
:10451000AFFB0C99FFF77DBA3407FF1F308701000E
:10452000C48901009C07FF1FDC890100188A010073
:104530002C8A0100B8870100CC870100488801005F
:104540005C8801006C8801003C13FF1FBC880100DF
:10455000CC8801009C880100AC8801007C880100A7
:104560008C88010094870100A887010070B5E54B95
:10457000AEB01D686C462D1B2EAE28190BF020FF27
:1045800004F8010BA642F8D14FF4FA600CF0EAF8F7
:104590001221DD48DD4EDE4DDE4C0CF069FB2220A1
:1045A0000CF05CFB0621DC480CF062FB22200CF0D6
:1045B00055FBFF200CF052FBFF200CF04FFBFF20BF
:1045C0000CF04CFB4FF47A700CF0CCF81221CE4872
:1045D0000CF04EFB22200CF041FB1321CF480CF0D5
:1045E00047FB22200CF03AFBFF200CF037FBFF20AA
:1045F0000CF034FBFF200CF031FB0F200CF0B2F874
:104600001221C7480CF034FB22200CF027FB0A993A
:10461000C4480DF063FF22200CF020FBFF200CF0BB
:104620001DFBFF200CF01AFBFF200CF017FB40F2E3
:10463000A4600CF097F81221B3480CF019FB22206B
:104640000CF00CFB1121B8480CF012FB22200CF0EE
:1046500005FBFF200CF002FBFF200CF0FFFAFF200F
:104660000CF0FCFA0F200CF07DF81221AC480CF095
:10467000FFFA22200CF0F2FA0E99AA480DF02EFF54
:1046800022200CF0EBFAFF200CF0E8FAFF200CF0EF
:10469000E5FAFF200CF0E2FA40F2A4600CF062F8B8
:1046A000122199480CF0E4FA22200CF0D7FA1321D9
:1046B0009E480CF0DDFA22200CF0D0FAFF200CF01E
:1046C000CDFAFF200CF0CAFAFF200CF0C7FA0F2039
:1046D0000CF048F8122192480CF0CAFA22200CF093
:1046E000BDFA1A9810F02EF941EC100B02218D48FA
:1046F0000DF0FEFE22200CF0B1FAFF200CF0AEFA15
:10470000FF200CF0ABFAFF200CF0A8FA40F2A460F6
:104710000CF028F812217C480CF0AAFA22200CF0A8
:104720009DFA0F2182480CF0A3FA22200CF096FA91
:10473000FF200CF093FAFF200CF090FAFF200CF011
:104740008DFA0F200CF00EF8122175480CF090FA3B
:1047500022200CF083FA9DF88830002B0BBF3046E6
:104760002846042103210CF083FA22200CF076FA6B
:10477000FF200CF073FAFF200CF070FAFF200CF011
:104780006DFA40F2A4600BF0EDFF12215E480CF0D0
:104790006FFA22200CF062FA122166480CF068FAD7
:1047A00022200CF05BFAFF200CF058FAFF200CF0EE
:1047B00055FAFF200CF052FA0F200BF0D3FF122114
:1047C00057480CF055FA22200CF048FA0B9955483E
:1047D0000DF084FE22200CF041FAFF200CF03EFA8E
:1047E000FF200CF03BFAFF200CF038FA40F2A460F6
:1047F0000BF0B8FF122144480CF03AFA22200CF0DA
:104800002DFA11214C480CF033FA22200CF026FA34
:10481000FF200CF023FAFF200CF020FAFF200CF010
:104820001DFA0F200BF09EFF12213D480CF020FADC
:1048300022200CF013FA0F993A480DF04FFE222077
:104840000CF00CFAFF200CF009FAFF200CF006FA2D
:10485000FF200CF003FA40F2A4600BF083FF12215A
:1048600029480CF005FA22200CF0F8F91021334801
:104870000CF0FEF922200CF0F1F9FF200CF0EEF91B
:10488000FF200CF0EBF9FF200CF0E8F90F200BF003
:1048900069FF122122480CF0EBF922200CF0DEF91E
:1048A0001C9810F04FF841EC100B02211D480DF040
:1048B0001FFE22200CF0D2F9FF200CF0CFF9FF20D0
:1048C0000CF0CCF9FF200CF0C9F940F2A4600BF019
:1048D00049FF12210C480CF0CBF922200CF0BEF954
:1048E0000E2117480CF0C4F922200CF0B7F9FF2074
:1048F0000CF0B4F9FF200CF0B1F9FF200CF0AEF988
:104900000F201FE07813FF1F7C8A0100748A0100CA
:10491000708A01002C17FF1F908A0100988A0100FD
:10492000AC8A01009C07FF1FC08A0100D48A0100E5
:10493000E88A0100F88A01000C8B0100208B01003D
:10494000348B01000BF00EFF1221E4480CF090F9BB
:1049500022200CF083F99DF88930002B0BBF3046E4
:104960002846042103210CF083F922200CF076F96B
:10497000FF200CF073F9FF200CF070F9FF200CF011
:104980006DF940F2A4600BF0EDFE1221D4480CF05A
:104990006FF922200CF062F91221D2480CF068F96C
:1049A00022200CF05BF9FF200CF058F9FF200CF0EE
:1049B00055F9FF200CF052F90F200BF0D3FE122115
:1049C000C6480CF055F922200CF048F90C99C6485D
:1049D0000DF084FD22200CF041F9FF200CF03EF98F
:1049E000FF200CF03BF9FF200CF038F940F2A460F6
:1049F0000BF0B8FE1221BA480CF03AF922200CF064
:104A00002DF91121B9480CF033F922200CF026F9C8
:104A1000FF200CF023F9FF200CF020F9FF200CF010
:104A20001DF90F200BF09EFE1221AC480CF020F96E
:104A300022200CF013F91099AB480DF04FFD222005
:104A40000CF00CF9FF200CF009F9FF200CF006F92E
:104A5000FF200CF003F940F2A4600BF083FE12215A
:104A60009F480CF005F922200CF0F8F81021A0481E
:104A70000CF0FEF822200CF0F1F8FF200CF0EEF81C
:104A8000FF200CF0EBF8FF200CF0E8F80F200BF003
:104A900069FE122191480CF0EBF822200CF0DEF8B0
:104AA0001D980FF04FFF41EC100B02218E480DF0C6
:104AB0001FFD22200CF0D2F8FF200CF0CFF8FF20D1
:104AC0000CF0CCF8FF200CF0C9F840F2A4600BF019
:104AD00049FE122182480CF0CBF822200CF0BEF8DF
:104AE0000E2184480CF0C4F822200CF0B7F8FF2007
:104AF0000CF0B4F8FF200CF0B1F8FF200CF0AEF889
:104B00000F200BF02FFE122174480CF0B1F8222078
:104B10000CF0A4F89DF88A30002B0BBF30462846D5
:104B2000042103210CF0A4F822200CF097F8FF20B8
:104B30000CF094F8FF200CF091F8FF200CF08EF8A8
:104B400040F2A4600BF00EFE122165480CF090F8C4
:104B500022200CF083F8122167480CF089F82220FB
:104B60000CF07CF8FF200CF079F8FF200CF076F8C0
:104B7000FF200CF073F80F200BF0F4FD12215748C2
:104B80000CF076F822200CF069F80D9956480DF0DB
:104B9000A5FC22200CF062F8FF200CF05FF8FF204B
:104BA0000CF05CF8FF200CF059F840F2A4600BF018
:104BB000D9FD12214A480CF05BF822200CF04EF887
:104BC00010214E480CF054F822200CF047F8FF203A
:104BD0000CF044F8FF200CF041F8FF200CF03EF8F8
:104BE0000F200BF0BFFD12213C480CF041F82220B1
:104BF0000CF034F811993C480DF070FC22200CF0B8
:104C00002DF8FF200CF02AF8FF200CF027F8FF20E9
:104C10000CF024F840F2A4600BF0A4FD12213048FF
:104C20000CF026F822200CF019F80E2134480CF074
:104C30001FF822200CF012F8FF200CF00FF8FF20D4
:104C40000CF00CF8FF200CF009F80F200BF08AFD97
:104C5000122122480CF00CF822200BF0FFFF9DF8E7
:104C60008B30002B0BBF30462846042103210BF06C
:104C7000FFFF22200BF0F2FFFF200BF0EFFFFF20E1
:104C80000BF0ECFFFF200BF0E9FF40F2A4600BF00B
:104C900069FD122112480BF0EBFF22200BF0DEFF22
:104CA0000C2118480BF0E4FF22200BF0D7FFFF2067
:104CB0000BF0D4FFFF200BF0D1FFFF200BF0CEFF55
:104CC0000F200BF04FFD122104480BF0D1FF2220E2
:104CD0000BF0C4FFD4F88C1016E000BFAC8A0100C2
:104CE0007C8A0100448B01009C07FF1F588B010048
:104CF0006C8B0100808B0100908B0100A48B010064
:104D0000B88B0100C88B0100EC480DF0E7FB2220B6
:104D10000BF0A4FFFF200BF0A1FFFF200BF09EFF84
:104D2000FF200BF09BFF40F2A4600BF01BFD122153
:104D3000E3480BF09DFF22200BF090FF0C21E1488F
:104D40000BF096FF22200BF089FFFF200BF086FF6F
:104D5000FF200BF083FFFF200BF080FF0F200BF0F4
:104D600001FD1221D8480BF083FF22200BF076FFC3
:104D7000D4F89010D1480DF0B1FB22200BF06EFF5B
:104D8000FF200BF06BFFFF200BF068FFFF200BF004
:104D900065FF40F2A4600BF0E5FC1221C8480BF05F
:104DA00067FF22200BF05AFF0C21C8480BF060FF70
:104DB00022200BF053FFFF200BF050FFFF200BF0E1
:104DC0004DFFFF200BF04AFF0F200BF0CBFC122110
:104DD000BD480BF04DFF22200BF040FFD4F894109B
:104DE000B6480DF07BFB22200BF038FFFF200BF0C4
:104DF00035FFFF200BF032FFFF200BF02FFF40F2BA
:104E0000A4600BF0AFFC1221AD480BF031FF222063
:104E10000BF024FF0C21AE480BF02AFF22200BF0F0
:104E20001DFFFF200BF01AFFFF200BF017FFFF20E4
:104E30000BF014FF0F200BF095FC1221A2480BF091
:104E400017FF22200BF00AFFD4F898109B480DF0B2
:104E500045FB22200BF002FFFF200BF0FFFEFF209E
:104E60000BF0FCFEFF200BF0F9FE40F2A4600BF00B
:104E700079FC122192480BF0FBFE22200BF0EEFE93
:104E80000C2194480BF0F4FE22200BF0E7FEFF20EB
:104E90000BF0E4FEFF200BF0E1FEFF200BF0DEFE46
:104EA0000F200BF05FFC122187480BF0E1FE22205F
:104EB0000BF0D4FED4F89C1080480DF00FFB22209C
:104EC0000BF0CCFEFF200BF0C9FEFF200BF0C6FE5E
:104ED000FF200BF0C3FE40F2A4600BF043FC122154
:104EE00077480BF0C5FE22200BF0B8FE0C217A4863
:104EF0000BF0BEFE22200BF0B1FEFF200BF0AEFE49
:104F0000FF200BF0ABFEFF200BF0A8FE0F200BF0F4
:104F100029FC12216C480BF0ABFE22200BF09EFE08
:104F2000D4F8A01065480DF0D9FA22200BF096FEB7
:104F3000FF200BF093FEFF200BF090FEFF200BF004
:104F40008DFE40F2A4600BF00DFC12215C480BF0CA
:104F50008FFE22200BF082FE162160480BF088FEA7
:104F600022200BF07BFEFF200BF078FEFF200BF0E1
:104F700075FEFF200BF072FE0F200BF0F3FB1221E9
:104F800051480BF075FE22200BF068FED4F8A410F7
:104F90004A480DF0A3FA22200BF060FEFF200BF030
:104FA0005DFEFF200BF05AFEFF200BF057FE40F293
:104FB000A4600BF0D7FB122141480BF059FE2220D0
:104FC0000BF04CFE152146480BF052FE22200BF050
:104FD00045FEFF200BF042FEFF200BF03FFEFF20BE
:104FE0000BF03CFE0F200BF0BDFB122136480BF0FE
:104FF0003FFE22200BF032FED4F8A8102F480DF00F
:105000006DFA22200BF02AFEFF200BF027FEFF2076
:105010000BF024FEFF200BF021FE40F2A4600BF009
:10502000A1FB122126480BF023FE22200BF016FED6
:1050300013212C480BF01CFE22200BF00FFEFF204A
:105040000BF00CFEFF200BF009FEFF200BF006FE1C
:105050000F200BF087FB12211B480BF009FE2220CA
:105060000BF0FCFDD4F8AC1014480DF037FA2220F8
:105070000BF0F4FDFF200BF0F1FDFF200BF0EEFD37
:10508000FF200BF0EBFD40F2A4600BF06BFB122154
:105090000B480BF0EDFD22200BF0E0FD142112482F
:1050A0000BF0E6FD22200BF0D9FDFF200BF0D6FD22
:1050B000FF200BF0D3FDFF2018E000BF9C07FF1F6F
:1050C0007C8A0100D88B0100AC8A0100E88B0100CA
:1050D000F88B0100088C0100188C0100288C01005D
:1050E000408C0100588C01006C8C01000BF0B6FD67
:1050F0000F200BF037FB12211B480BF0B9FD2220CB
:105100000BF0ACFDD4F8B01018480DF0E7F92220F0
:105110000BF0A4FDFF200BF0A1FDFF200BF09EFD86
:10512000FF200BF09BFD40F2A4600BF01BFB17214E
:105130000F480BF09DFDFF200BF090FDFF200BF0C2
:105140008DFDFF200BF08AFD13210A480BF090FD26
:10515000FF200BF083FDFF200BF080FDFF202EB021
:10516000BDE870400BF07ABDAC8A01009C07FF1FC0
:10517000848C01009C8C0100436D10B55B68044673
:1051800072B6DFED116AD0ED1E7A90ED1D7A67EEF2
:10519000A67AF4EEC77AC0ED1C7AD0ED207AF1EE53
:1051A00010FAD8BFF1EE677AC0ED217A62B6836853
:1051B0009B689A0706D501200BF0D4FAA3689B6878
:1051C0009B07F8D410BD00BF00000000416D036FC5
:1051D000826F10B44C681B1B002BB8BF5B4293421C
:1051E00011D3C46FA34209D3426FD21A4B68086827
:1051F0005DF8044B00FB0232CA6070471344002480
:105200004367C467F2E700225C00C26782674467B5
:105210001A46EBE710B50446FFF7D8FFA3689B6872
:105220009A0706D501200BF09DFAA3689B689B079F
:10523000F8D410BDF0B5044683B000258023261DA8
:10524000264F274823742760606064613046A5605C
:10525000E5600F4601920AF001FD206230460AF037
:10526000FDFC012360626366A56584F85C502566D9
:105270000AF0C8FC04F1080061690AF089FC07EE35
:10528000907A019A9FED177ADFED175A9FED176A12
:1052900084F85C00F8EE676A07EE902AF8EE677A09
:1052A00066EE876A67EE877A66EEA56A27EEA57ACC
:1052B000F6EE007AF0EE675AE6EE865A2046A266CF
:1052C000E7EE067AE766FDEEE56AFDEEE77AC4ED05
:1052D000066AC4ED077A03B0F0BD00BF0C8401007C
:1052E00000840100BD378635001B374C0000003DAF
:1052F00038B590F85C300D4A0260044623B18268EC
:10530000936823F002039360094B636004F10C057A
:1053100028460DF005F8206A0AF0B4FC606A0AF02D
:10532000B1FC28460CF0FCFF204638BD0C8401007F
:105330000084010010B5034B03600446FFF7D8FF5B
:10534000204610BD4484010010B5054B036004469F
:10535000FFF7CEFF20468C210DF034F8204610BD1B
:105360004484010010B5034B03600446FFF7C0FFFF
:10537000204610BD2884010010B5054B036004468B
:10538000FFF7B6FF204688210DF01CF8204610BD1F
:105390002884010010B50446FFF7AAFF20467021BB
:1053A0000DF010F8204610BD884231D02DE9F047AD
:1053B00000F10408414516468A46814617D0D9F8BF
:1053C0000010D8F80000B04798B9D8F8005044460B
:1053D00001E0236863602746284654F8041DB0475F
:1053E0000028F6D13D6008F10408C245E7D1BDE8C8
:1053F000F087C9EB08029308D8F8004005D0C2F145
:1054000004004044494610F087F9C9F80040EAE733
:10541000704700BF2DE9F8430B1A432B1CDD00F148
:105420004008894641461746FFF7BEFFC14515D0E3
:10543000D8F80050444601E02368636026462846B9
:1054400054F8041DB8470028F6D108F10408C145F6
:105450003560EDD1BDE8F883FFF7A6FFBDE8F8831E
:105460002DE9F04F561E06EBD67683B07610B1428A
:1054700001928846054699460C9F5CDA8A4600E010
:10548000DA460AF101034FEA430B0BF1804101397F
:1054900055F8330055F8211005EBC304B84718B18F
:1054A0000BF1FF3B05EB8B04236845F82A30B3452D
:1054B000E6DB019BDA0707D4019BA3F1020A0AEBA2
:1054C000DA7ABBEB6A0F06D0C34514DCC4F800904F
:1054D00003B0BDE8F08F0BF1010B4FEA4B0B0BF162
:1054E0008043013B0BF1FF3B55F823302360C3455C
:1054F00005EB8B04EADD0BF1FF3606EBD676761072
:10550000494655F82600B847731E03EBD37305EBE5
:1055100086045B1030B905EB8B04C4F8009003B02F
:10552000BDE8F08F55F8262045F82B20B045CDDAA0
:10553000B3461E46E4E7019BDB0700EB8104C5D4BC
:105540008B46B9E72DE9F04F0C1A432C85B040F398
:1055500089800546894692461E46002A61D0031D71
:105560000393E410686855F82410B0470AF1FF3A35
:1055700059F8041C002834D055F82400B0470028FE
:1055800037D02B6855F824202A6045F82430686805
:105590002968039FCB46B846B04780B9ABF10404F5
:1055A00021682868A346043CB0470028F8D15F452D
:1055B00009D23A68DBF800103960CBF8002057F8C0
:1055C000040F2968E7E749463346524638467C1BB4
:1055D000FFF7B8FF432C45DDBAF1000F22D0B946E2
:1055E000BFE76868B04798B195E803002960686034
:1055F000CFE759F8041C6868B0470028F4D02B683E
:1056000059F8042C2A6049F8043C68682968C0E706
:1056100059F8041C55F82400B0472B680028B1D075
:10562000EEE78846A410A71E7F1005EB870900E06F
:10563000013F59F804390096224639462846FFF7BB
:105640000FFF002FF4D158F8043D2A680096C5EBEF
:105650000804C8F800200021A2102846FFF700FF28
:10566000072CF0DC05B0BDE8F08F00BF2DE9F04756
:1056700000F128064FEA810806EB0805AE422DED41
:10568000028B04468946B0EE408A10D04FEAA80249
:10569000B2FA82F2C2F11F02520029463046544B40
:1056A000FFF750FF524A29463046FFF7B3FEA76A7C
:1056B0006765D7F818C0BCF1000F69D08CEAEC73AD
:1056C0000022A3EBEC73B9F1010FBA603B6112DD6C
:1056D00008F1240EA644304650F8042F936983EA5B
:1056E000E378A8EBE378C2F8108039697045C1EB24
:1056F00048035361F0D1AE426DD0FA6904F12C0336
:1057000006E01968C9698A4203F1040328BF0A4602
:105710009D42F6D107EE902A94ED1A7A9FED356AF4
:105720007A68F8EE476AF8EE677A07EE10CA67EE15
:10573000A67AB8EEC77A002384ED1E7A87EE867AC1
:10574000636784ED1F7A72B6E36FC4F8803062B687
:1057500072B694ED1E0AD4ED1D7A28EE000AB4EE5E
:10576000E70AD4ED207A84ED1C0AF1EE10FAD8BFD6
:10577000F1EE677AC4ED217A62B6A268206A936876
:10578000616A23F002038842936028D0E3691BB961
:10579000BDEC028BBDE8F08772B6174A236AE06958
:1057A00000211160DB00516803F1804303F5603391
:1057B00001440D2019611060DA68502122F0800246
:1057C000DA60D96062B6BDEC028B60690368BDE83F
:1057D000F0475B681847A36AD3ED077A9CE7BDECF6
:1057E000028B60690368BDE8F0479B68184700BFFB
:1057F0007D04000000247449008003402DE9F04F2F
:105800002DED048BC14CDFF84C93B5B041F28832DA
:10581000052108EE900A12A8FFF70CFDBC4B226888
:10582000CDF848900121D3F89070D3F88C802B915B
:10583000032A00F2F781DFE812F00C01F500DE0028
:105840000400D4ED057A9FEDB37AD4F804A0D4F81F
:1058500024B0F8EEE77AB8EEE88A67EE877A02229B
:1058600027EE888A032104AD28460AF0AFF8002607
:10587000052005960AF076FF514628460AF0E6F81C
:1058800059460AF0D7F8A4490AF004F92068012122
:10589000FBF764F82A9B2A9634A903F10B0201EB6B
:1058A000820201EB8303B7EE000A43F8605C01213A
:1058B00012A842F8886CFFF7D9FE72B6DDED307A97
:1058C0009DED2F7A68EE277AF4EEC77ACDED2E7A29
:1058D000DDED327AF1EE10FAD8BFF1EE677ACDED58
:1058E000337A62B6149B9B689A071CD58B4D8C4EFD
:1058F0009FED889A0CF008FA002840F3BD80F8B2BA
:105900000AF0F8FE002800F072815FFA88F00AF0D1
:10591000F1FE002800F06B810A200AF023FF149B9F
:105920009B689B07E6D42068032800F0EA807D4945
:105930007D4C7E4A059B0B60002123601160002195
:10594000FBF70CF817217A480BF092F9FF200BF0C7
:1059500085F9FF200BF082F9FF200BF07FF91A2167
:1059600074480BF085F9FF200BF078F9FF200BF05D
:1059700075F9FF200BF072F912216F480BF078F9DE
:10598000FF200BF06BF9FF200BF068F9FF200BF004
:1059900065F9112169480BF06BF922200CF062FACD
:1059A00022200BF05BF9684665490CF015FF69464B
:1059B00064480CF01DFD694663480CF019FD68460B
:1059C0000CF0CAFE22200CF04DFA22200BF046F912
:1059D000FF200BF043F9FF200BF040F9FF200BF004
:1059E0003DF912A8CDF84890FFF782FC35B0BDEC28
:1059F000048BBDE8F08FD4ED087A9FED467AD4F899
:105A000010A0D3F8A070D3F89C80D4F830B0F8EE92
:105A1000E77AB8EEE88A67EE877A172227EE888A57
:105A2000102120E7D4ED077A9FED3A7AD4F80CA044
:105A3000D3F89870D3F89480D4F82CB0F8EEE77AC5
:105A4000B8EEE88A67EE877A142227EE888A152155
:105A500009E7D4ED067A9FED2F7AD4F808A0D4F8A0
:105A600028B0F8EEE77AB8EEE88A67EE877A052282
:105A700027EE888A0621F6E6FAF7D8FD00287FF798
:105A80003EAF2B68B3B90CF003F9C0B243283070B5
:105A900016D066287FF433AF2868FBF711FA51EC73
:105AA000100B0FF053FA2368032B60D8DFE803F0E4
:105AB00093877B540BF020F9C0B243283070E8D1B3
:105AC00072B6DFED226ADDED307A9DED2F7A67EE5A
:105AD000A67AF4EEC77ACDED2E7ADDED327AF1EECC
