:10000000F8FF022099010000C1B2010079B201009D
:1000100079B2010079B2010079B2010079B2010030
:1000200079B2010079B2010079B20100C1B20100D8
:10003000C1B2010079B2010095DC010099DD010037
:10004000C1B20100C1B20100C1B20100C1B20100E0
:10005000C1B20100C1B20100C1B20100C1B20100D0
:10006000C1B20100C1B20100C1B20100C1B20100C0
:10007000C1B20100C1B20100C1B20100C1B20100B0
:10008000C1B20100C1B20100C1B20100C1B20100A0
:10009000C1B20100C1B20100C1B20100C1B2010090
:1000A000C1B20100C1B20100C1B20100C1B2010080
:1000B000C1B20100C1B20100C1B201001DBD010009
:1000C000C1B201008DC40100C1B2010021CA01000A
:1000D000C1B20100C5EA0100C1B20100C1B2010014
:1000E000C1B20100C1B20100E5AA0100C1B2010024
:1000F000C1B20100C1B20100C1B20100C1B2010030
:1001000009E201001DE2010031E2010045E20100C7
:10011000C1B20100ADCC0100C1B20100C1B2010009
:10012000C1B20100C1B20100C1B20100C1B20100FF
:10013000C1B20100C1B20100C1B20100C1B20100EF
:10014000C1B20100C1B20100BDEB0100C1B20100AA
:10015000B5EC0100C1B20100C1B20100C1B20100A1
:10016000C1B20100C1B20100C1B20100C1B20100BF
:10017000C1B20100C1B20100C1B20100C1B20100AF
:10018000C1B20100C1B20100C1B20100C1B201009F
:10019000C1B20100C1B20100584B4CF2205210B55F
:1001A0001A804DF628121A8000BF00BF1BF08CF891
:1001B000534B4FF030621A60524A9A60524ADA60EA
:1001C000524B4FF470021A60514A136813F4807353
:1001D00004D150490B604FF4A85313604E4B1A786A
:1001E000110703D51A7842F008021A704B4B4C499C
:1001F0002A221A704B4A4C4B8B4204D252F8040FFD
:1002000043F8040BF8E7494B494900228B4202D2DC
:1002100043F8042BFAE74749474A002352F82300E2
:1002200041F823000133662BF8D1444B444A802126
:1002300003F8011B9342FBD1424B3E4A1A60424BEA
:100240008A221A70A3F5805324225A70A0221A70B1
:100250009A799207FCD59A79D406FCD43B4A9379D3
:1002600003F00C03082B394BF9D103221A714622F3
:100270005A719A799006FCD5344A9179334B4906E4
:10028000FBD5334A4FF08271116009215160202261
:100290001A709A7902F00C020C2AFAD12D4B2E4AD0
:1002A0001A602E4B2E4A1A6000225A60072243F829
:1002B000042C2C4AC3F80C2D62B61BF01FF9154B09
:1002C0001B68DA0705D528481BF09EF8274B284AFB
:1002D0001A60284B1B785B0609D5244C244B2268F6
:1002E0009A4204D120481BF08FF80023236020F0AD
:1002F000D3FE1AF0EFFF1DF0AFFFFEE70E20054022
:1003000030800440823F04000100002B88ED00E0B3
:1003100010D0034014D0034002D0074000E0074053
:100320004812FF1F547E0200F806FF1F4812FF1FED
:10033000EC1FFF1F0002FF1F0000000000E400E0B0
:1003400056E400E008ED00E00050064000400640A2
:100350004480044004800440C010050014E000E024
:10036000BFD40100000020200FB258601CE0034001
:10037000A5C3945A00F00740FFFFFFFFFFFFFFFFF8
:10038000FFFFFFFFFFFFFFFFFFFFFFFFFFFFFFFF7D
:10039000FFFFFFFFFFFFFFFFFFFFFFFFFFFFFFFF6D
:1003A000FFFFFFFFFFFFFFFFFFFFFFFFFFFFFFFF5D
:1003B000FFFFFFFFFFFFFFFFFFFFFFFFFFFFFFFF4D
:1003C000FFFFFFFFFFFFFFFFFFFFFFFFFFFFFFFF3D
:1003D000FFFFFFFFFFFFFFFFFFFFFFFFFFFFFFFF2D
:1003E000FFFFFFFFFFFFFFFFFFFFFFFFFFFFFFFF1D
:1003F000FFFFFFFFFFFFFFFFFFFFFFFFFFFFFFFF0D
:10040000FFFFFFFFFFFFFFFFFFFFFFFFDEF9FFFF23
:1004100010B5054C237833B9044B13B10448AFF33E
:1004200000800123237010BD4812FF1F0000000050
:10043000507E0200084B10B51BB108490848AFF3C5
:1004400000800848036803B910BD074B002BFBD0A0
:10045000BDE81040184700BF000000004C12FF1F0D
:10046000507E02004812FF1F0000000000690B6967
:100470009842D4BF00200120704700BF80698B697B
:100480000028B8BF4042002BB8BF5B429842D4BF9F
:1004900000200120704700BFF0B586460120DEF83D
:1004A0005870DEF83030BA6A106079683A680A44E9
:1004B0007A600EF1300493B15A69002A08DB9A6A17
:1004C00010605E6819683D695A6931445960521B71
:1004D00019690A445A6154F8043F002BECD1DEF844
:1004E0002430144ADEF81840DEF86C000021116058
:1004F000DB00516803F1804303F5603321440D2490
:1005000019611460DA68502122F08002DA60D96043
:1005100000B1F0BD7A68FB689A4200D0F0BDDEF809
:100520005C3001228EF82820002BF7D0BDE8F04087
:10053000184700BF00800340C36A00F12C0233B1AA
:100540000120D96A52F8043F0860002BF9D17047A6
:100550000C4BD3F8902072B9596A1A6AD3ED0A7A13
:1005600002FB01F207EE102A60EE277AB8EE477A16
:1005700087EE870A7047D3F89810D3F89420D3ED0C
:10058000277AEDE7D417FF1F836D012280F89020B2
:100590005B6872B6DFED0B6AD0ED207A90ED1F7AC2
:1005A00067EEA67AF4EEC77AC0ED1E7AD0ED227A15
:1005B000F1EE10FAD8BFF1EE677AC0ED237A62B699
:1005C000704700BF00000000036A8B4210B523D0C3
:1005D000C369994200D010BD8369002BFBD072B66D
:1005E000194AC369846900211160DB00516803F175
:1005F000804303F5603321440D2419611460DA68E7
:10060000502122F08002DA60D96062B60069036886
:10061000BDE810405B6818470446006903689B68A2
:10062000984794F82430002BD5D004F108001DF031
:10063000C9FD0023E06963601AF03CFA206ABDE856
:1006400010401AF037BA00BF008003402DE9F04196
:100650008568002D31D0816D836F04464868D4F8D9
:10066000AC101B1A002BB8BF5B428B423ADBD4F8AC
:10067000B0108B422A4608DBE16F8B4265DB936842
:1006800023F002039360BDE8F081D4F888100029BC
:10069000F5D02B683B4A93421ED96A683A48B0FBB2
:1006A000F1F19B1A99420AD3CB1A002401200322AC
:1006B000AC60E8602B60AA602960BDE8F0816069E9
:1006C0000368002601240322AE601B68EC602960E9
:1006D000AA60BDE8F04118472B4BB3FBF1F129604C
:1006E000BDE8F081D4E92401D4F8A82002FB03F38B
:1006F000C61841F100073046394620F0B5FA07EE3A
:10070000900AB1EEE70AB4EE400AF1EE10FA2ED1EB
:10071000FDEEC07A2A4617EE903A17EE901ADBB13A
:10072000002DB6D11949184D0E68B5FBF3F51EB171
:1007300002210120B047A26800200121032390601C
:10074000D16015609360BDE8F081CB1AD4F8A82081
:10075000D4E92601013BC9E7002D90D10B4B1B6862
:10076000002B8CD0022101209847A26887E73946E8
:10077000304620F079FA00EE100A1EF0ABFCA568B6
:10078000C6E700BF7FA9030000879303441BFF1F38
:10079000F8B50446D0ED1F7A94ED1E7A806DF4EE24
:1007A000477AF1EE10FA436838D1FDEEC77A17EEBA
:1007B000905A94F890300BB1002D76D08368AB42FC
:1007C0002BD0002D0368B4BF4FF0FF3201229A42B4
:1007D00015D004F12801012608E013685B42012BC3
:1007E00013600BBF126B536B13601E6051F8042F24
:1007F000002AF2D1636F03EB8303DB003FD185EA6C
:10080000E572A2EBE572A368FAB9002B7AD09A6878
:1008100022F002029A608560F8BDF8BDD4ED236A2B
:10082000F5EEC06A77EEA67AF1EE10FAB4EEE77A4A
:100830002FDDF1EE10FAD8BFF0EE477ABDEEE77A81
:10084000C4ED1F7A17EE105AB3E7002B47D0196892
:10085000314EB14223D95E68304FB7FBF2F2891BAB
:100860008A4232D26069002601689E600127032611
:10087000DF6009681A609E608847A06DCBE7013B86
:10088000FDD185EAE572A2EBE572A368002ABCD02F
:10089000DBE7F1EE10FA58BFF0EE477ACEE71F49DA
:1008A000B1FBF2F21A608560F8BD04F10C001DF096
:1008B00089FC206AA5601AF0FDF8606A1AF0FAF85F
:1008C000A36D9D6084F89050F8BD511A0027012651
:1008D00003249F60DE6019609C601A609BE71049EA
:1008E0000E4E0F68B6FBF2F627B101200221B84781
:1008F000A368A06D0024012103229C60D9601E60C2
:100900009A6088E7064B1B68002B80D001200221EB
:100910009847A368A06D7AE77FA903000087930337
:10092000441BFF1F70B5044608460D4621F028FC05
:1009300023680246294620465B68BDE87040184798
:1009400038B5044608460D4621F01AFC23680246D5
:1009500029465B6820469847054620461DF0C4FCA2
:10096000284438BD38B505461DF00EFD044628461E
:100970001DF0BAFC204438BD38B505461DF004FD15
:10098000044628461DF0B0FC204438BD38B50A2284
:10099000002305461DF0B8FC044628461DF0A4FCC3
:1009A000204438BD38B5C9B205461DF0F5FC0446F3
:1009B00028461DF099FC204438BD00BF10B5092120
:1009C0002C481DF001F82C481DF08EFCFE212B4810
:1009D00017F06CFE00282FD10A21284817F066FE78
:1009E00098B91821254817F061FE00283AD10F2147
:1009F000224817F05BFE50BB09212048204C17F01D
:100A000055FE002832D1206009E01D4C1D480A2304
:100A1000194623601CF0D8FF17481DF065FC0C2117
:100A200019481CF0D1FF216813481DF0ADFC124895
:100A3000BDE810401DF058BC114C14480123092199
:100A400023601CF0C1FF0C481DF04EFCE7E70C4C86
:100A50000F480F230A2123601CF0B6FF06481DF043
:100A600043FCDCE7064C0B481823F3E70A4809234C
:100A7000CEE700BF48480200E407FF1FC818FF1F69
:100A80009416FF1F6048020090480200544802007C
:100A9000784802006C4802008448020010B584B017
:100AA000C9B9344A344B11680191019C1968136823
:100AB0000093009B1B1B9942F9D8032809D8DFE853
:100AC00000F02E3602262D4B112093F877101AF0E5
:100AD000ADFC04B010BD03280BD8DFE800F00230F5
:100AE0003942264B93F875100E2081F001011AF05F
:100AF0009DFC204A204B11680391039819681368E4
:100B00000293029B1B1A9942F9D804B010BD1B4BEB
:100B1000042093F874101AF089FC04B010BD174B30
:100B20000E2093F875101AF081FC04B010BD134B21
:100B3000162093F876101AF079FC04B010BD0F4B14
:100B400093F87610162081F001011AF06FFCD0E7BF
:100B50000A4B93F87710112081F001011AF066FC1E
:100B6000C7E7064B93F87410042081F001011AF0D6
:100B70005DFCBEE77C1BFF1F2007FF1FD417FF1F74
:100B8000F0B52DED028B85B0044601AE0DF10F07D7
:100B90000FE0FF2D58D001A8357021F0F1FA014681
:100BA00001A81CF011FF2C481DF09EFB0136BE422F
:100BB00029D0236820465B6998470021C5B22748A1
:100BC0001CF002FF24481DF08FFB332124481CF049
:100BD000FBFE28461CF07CFF022122481CF0F4FE9C
:100BE00029461D481DF0D0FB1B481DF07DFB042D40
:100BF000CFD119211C481CF0E7FE013616481DF024
:100C000073FBBE42D5D101A820F036FA0721174860
:100C1000B0EE408AF0EE608A1CF0D6FEB0EE480AD4
:100C2000F0EE680A04210C481DF0B6FB0A481DF0DE
:100C30005BFBB0EE480AF0EE680A05B0BDEC028B33
:100C4000F0BD23685B699847236820461B69984775
:100C500000282046F5DCA9E7E407FF1F3460020006
:100C6000A0480200D4480200D8480200F44802001C
:100C700003280FD8DFE800F00B0805020A48FFF749
:100C80007FBF0A48FFF77CBF0948FFF779BF0948D3
:100C9000FFF776BF9FED020B704700BFAFF30080F8
:100CA000000000000000F0BFC407FF1FB407FF1FD3
:100CB000A407FF1FE407FF1F012828D0022813D034
:100CC00010B19FED140A7047134A1169D368D2ED31
:100CD000056A03FB01F307EE103A60EE267AB8EEE0
:100CE000477A87EE870A70470B4B5A6B012AE8D880
:100CF000D96B9A6BD3ED116A02FB01F207EE102A51
:100D000060EE267AB8EE477A87EE870A7047FFF7DB
:100D10001FBC00BF00000000D417FF1F38B5434DB3
:100D20004348EA6BAB6B95ED107AD5ED127A414CE6
:100D300003FB02F32DED048B08EE103AB8EE488A5F
:100D4000DFED3D8A28EE078A0D2167EEA88AF0EED6
:100D5000409A1CF039FE18EE100A1FF019FB41EC06
:100D6000100B022120461DF017FB20461DF0BCFA97
:100D7000112132481CF028FE286C1FF009FB41ECC1
:100D8000100B022120461DF007FB20461DF0ACFA97
:100D90000F212B481CF018FE89EEA89A18EE900A35
:100DA0001FF0F6FA41EC100B022120461DF0F4FA78
:100DB00020461DF099FA102122481CF005FE19EE7C
:100DC000900A1FF0E5FA41EC100B022120461DF0BD
:100DD000E3FA20461DF088FA07211B481CF0F4FDB9
:100DE00019EE100A1FF0D4FA41EC100B0221204634
:100DF0001DF0D2FA28EE098A20461DF075FA082166
:100E000012481CF0E1FD18EE100A1FF0C1FA41EC87
:100E1000100B022120461DF0BFFA20461DF064FA97
:100E2000B0EE480ABDEC048B38BD00BFD417FF1FDD
:100E30002C490200E407FF1FDB0FC9403C490200B8
:100E40005049020060490200744902007C490200D6
:100E5000144A1548D2ED117AD16B936B80EE270AB4
:100E600010B503FB01F31921104C2DED028B08EE98
:100E7000103AB8EE488A28EE008A1CF0A5FD18EE5C
:100E8000100A1FF085FA41EC100B022120461DF0DC
:100E900083FA20461DF028FAB0EE480ABDEC028B1A
:100EA00010BD00BFD417FF1F88490200E407FF1FD1
:100EB0000128F0EE407A1CD0022813D010B19FED2B
:100EC000160A7047154AD2ED056A1169D36887EE94
:100ED000A67A03FB01F300EE103AB8EE400A20EECA
:100EE000070A70470D4B5B6B9BB1012BE7D1FFF7F6
:100EF000AFBF0A4AD2F8903023B9D2ED0A6A516ADC
:100F0000136AE4E7D2ED276AD2F89810D2F8943049
:100F1000DDE7FFF703BF00BF00000000D417FF1F8D
:100F200038B52F4D2F4C95ED007AD4ED007AB5EE03
:100F3000C07AF1EE10FA48BFB1EE477AF5EEC07A0A
:100F400048BF85ED007AF1EE10FA44BFF1EE677A02
:100F5000C4ED007A67EEA77A2DED048BE7EE077AF1
:100F600008EE100A17EE900A08EE901A1FF010FA19
:100F700041EC100B1DF0EEFF51EC100B1FF054FD77
:100F800094ED006AD5ED006A07EE900A87EE867A46
:100F900087EEA69AF8EEE88AB8EEC88A67EE287A55
:100FA00017EE900A1FF0F4F941EC100B1DF032FF20
:100FB00051EC100B1FF038FD68EE097A206017EE37
:100FC000900A1FF0E5F941EC100B1DF023FF51ECE6
:100FD000100B1FF029FDBDEC048B286038BD00BF4D
:100FE000E013FF1F2816FF1FF8B51D212DED028B02
:100FF000914D924C924E08EE100A92481CF0E4FC7F
:1010000091481DF071F995E8090003FB00F307EE24
:10101000903A95ED027AD4ED036A8C4A8C49F8EE49
:10102000677AB8EEC88A67EE877A002387EEA67AD9
:101030000B601360C7EE087A17EE900A1FF0A8F94C
:1010400041EC100B1DF0E6FE51EC100B1FF0A4FC60
:1010500027683060012F00F0B98065D3022F41D09E
:101060007C4F7D4815211CF0AFFC316876481DF09F
:101070008BF975481DF038F9242178481CF0A4FC40
:10108000E0681FF085F941EC100B02216E481DF05D
:1010900083F96D481DF028F9292171481CF094FC52
:1010A000A0691FF075F941EC100B022166481DF094
:1010B00073F965481DF018F914216A481CF084FC86
:1010C000396861481DF060F95F481DF00DF9142181
:1010D00065481CF079FCBDEC028B5B48BDE8F8402C
:1010E0001DF002B92B21614894ED068A1CF06CFCBE
:1010F000A0691FF04DF941EC100B394652481DF024
:101100004BF951481DF0F0F86B6B002B00F0898013
:10111000012BA5D1B0EE480AFFF79AFE4D4FBDEE68
:10112000C00A87ED000A9CE794ED067AD5ED057AB2
:10113000484F87EE278AD5ED047A95ED037AF8EECD
:10114000677AB8EE477A67EE887A67EE877A17EEA5
:10115000900A1FF01DF941EC100B1DF05BFE51ECE5
:10116000100B1FF019FC1821386041481CF02CFCB2
:10117000A0691FF00DF941EC100B022132481DF05F
:101180000BF931481DF0B0F824213A481CF01CFC42
:1011900068691FF0FDF841EC100B02212A481DF090
:1011A000FBF829481DF0A0F8112133481CF00CFC75
:1011B00018EE100A1FF0ECF841EC100B0221224847
:1011C0001DF0EAF820481DF08FF84AE7D5F8903076
:1011D000D4ED065AF3B195ED276A95ED267AD5ED53
:1011E000257A1C4FC5EE866AB8EE477AF8EE677A24
:1011F00026EE877A67EE277A17EE900A1FF0C8F876
:1012000041EC100B1DF006FE51EC100B1FF0C4FB5F
:10121000386026E795ED0A6A95ED097AD5ED087AEA
:10122000DFE7B0EE480AFFF779FD0A4FBDEEC00ACE
:1012300087ED000A15E700BFD417FF1FF813FF1F43
:101240006014FF1FA4490200E407FF1F7412FF1F70
:101250003817FF1FCC12FF1F484A0200604A0200E5
:10126000884A0200B44A0200406D02001C4A020093
:10127000C4490200E0490200084A02000C4B1B6806
:10128000032B13D8DFE803F00E0A060201460948D3
:101290001DF004B8014608481DF000B80146074893
:1012A0001CF0FCBF014606481CF0F8BF704700BFA9
:1012B0001007FF1FC407FF1FB407FF1FA407FF1F6E
:1012C000E407FF1F70B584B06649674C674D6846F8
:1012D0001DF0D6F900216846FFF7D0FF68461DF0E3
:1012E0008FF9634968461DF0CBF900216846FFF786
:1012F000C5FF68461DF084F95E4968461DF0C0F9D7
:1013000000216846FFF7BAFF68461DF079F9584991
:1013100068461DF0B5F900216846FFF7AFFF684643
:101320001DF06EF9544968461DF0AAF9002168467F
:10133000FFF7A4FF68461DF063F94D4968461DF0AC
:101340009FF900216846FFF799FF68461DF058F99C
:101350004A4968461DF094F900216846FFF78EFF60
:1013600068461DF04DF9424968461DF089F9002193
:101370006846FFF783FF68461DF042F9404A21683E
:101380001668536892ED027ADFED3E6A2D683E489A
:1013900003FB06F307EE903A06EE101AF8EE677AB2
:1013A000B8EEC66A67EE877A012D86EE277A374E49
:1013B00067EE267AC0ED007A4DD031D3022D0ED1E2
:1013C000D6ED007A2846B8EEE70AFFF775FC304BF9
:1013D0000021284683ED000AFFF760FB21682D4AB3
:1013E0002D4B1160002508212C481D601CF0ECFAE3
:1013F00021682B481CF0C8FF29481CF075FF052107
:1014000028481CF0E1FA316825481CF0BDFF24484B
:101410001CF06AFF29460320FFF740FB04B070BDB3
:10142000D6ED007A1169D36892ED057A184AF8EE84
:10143000E77A03FB01F327EE877A07EE903AF8EE9E
:10144000677A0021C7EE276A0846C2ED006AFFF7F7
:1014500025FB2168C3E7D6ED007AB8EEE70AFFF76F
:1014600077F8B4E7CC4A02003817FF1FF813FF1FC4
:10147000E04A0200E44A0200F84A02000C4B020073
:10148000D417FF1F0000B4432C16FF1F7412FF1F58
:101490009015FF1F6815FF1FB812FF1F346202006E
:1014A000E407FF1F905E020010B5F0EE407A0021C5
:1014B000F2EE046ABDEEE77AB8EEC77AB4EE677A68
:1014C000F1EE10FA04D00131062967EEA67AF1D1C7
:1014D0001E4B1B68032B37D8DFE803F0291C0F02D3
:1014E00010EE100ACCB21EF053FF41EC100B214657
:1014F0001748BDE810401CF04FBF10EE100ACCB2E8
:101500001EF046FF41EC100B21461248BDE810408A
:101510001CF042BF10EE100ACCB21EF039FF41ECB5
:10152000100B21460C48BDE810401CF035BF10EEF2
:10153000100ACCB21EF02CFF41EC100B21460748DC
:10154000BDE810401CF028BF10BD00BF1007FF1FF2
:10155000C407FF1FB407FF1FA407FF1FE407FF1FF7
:10156000084B1B68032B0BD8DFE803F008060402C6
:101570001BF0AAB91AF02EBE1AF0C2BA1CF0A8BA13
:10158000704700BF1007FF1F2DE9F041DFF85080C2
:10159000104F114E114D0446014640461CF07EFE90
:1015A00040461CF0A1FE214638461CF077FE384626
:1015B0001CF09AFE214630461CF070FE30461CF0AE
:1015C00093FE214628461CF069FE2846BDE8F041FE
:1015D0001CF08ABEA407FF1FB407FF1FC407FF1F2C
:1015E000E407FF1F2DE9F04FB24CA3B001210D20FD
:1015F00019F030FF23680893089A23680793079B24
:10160000AC4D9B1A0E2BF8D9AB4BAC491E681EA8EB
:101610001DF036F800211EA8FFF730FE1EA81CF0B2
:10162000EFFF0A2231461EA81DF05CF81EA8FFF746
:10163000ABFF1EA81CF0E4FF40F623001AF044F8AC
:101640000C219F481AF066FA03219E481AF062FAAC
:101650002B680693069A23680593059B954D9B1A64
:10166000312BF8D90C2196481AF054FA03219548E9
:101670001AF050FA2B680493049A23680393039B8F
:101680008C4D9B1A312BF8D907218F481AF042FA5A
:1016900003218C481AF03EFA2B680293029A2368C1
:1016A0000193019B9B1A312BF9D91AF0B5FA002846
:1016B000864D0CDD01230C2185482B601CF084F93C
:1016C000296884481CF060FE82481CF00DFE40F63C
:1016D00023001AF0A9FB0C2179481AF0D3FD03214D
:1016E00078481AF0CFFD23680E930E9A23680D9365
:1016F0000D9B704E9B1A312BF8D90C2170481AF0B3
:10170000C1FD03216F481AF0BDFD33680C930C9A9C
:1017100023680B930B9B674E9B1A312BF8D907213B
:1017200069481AF0AFFD032166481AF0ABFD336833
:101730000A930A9A23680993099B9B1A312BF9D9BA
:101740001AF022FE00280CDD02230C2162482B60D7
:101750001CF03AF929685F481CF016FE5D481CF041
:10176000C3FD40F212401AF069FF0C2154481BF0EF
:10177000B5F8032153481BF0B1F823681493149A69
:1017800023681393139B4B4E9B1A312BF8D90C21D2
:101790004B481BF0A3F803214A481BF09FF833681D
:1017A0001293129A23681193119B424E9B1A312B6C
:1017B000F8D9072144481BF091F8032141481BF058
:1017C0008DF833681093109A23680F930F9B9B1A20
:1017D000312BF9D91BF0B6F800280CDD03230C21BE
:1017E0003E482B601CF0F0F829683A481CF0CCFD0C
:1017F00038481CF079FD0A2139483A4E1CF0E4F8CB
:10180000296834481CF0C0FD32481CF06DFD364B91
:101810001B683746C6EB03083D46A43608EB0500B7
:1018200019F070FC05F8010BB542F7D12F4B304E83
:101830001B68B346C6EB03085D46343608EB05006B
:1018400019F060FC05F8010BB542F7D1294B2A4E7F
:101850001B683246C6EB03081546403608EB050008
:1018600019F050FC05F8010BAE42F7D1234B244E82
:101870001B68B246C6EB03085546343608EB050034
:1018800019F040FC05F8010BB542F7D11D4B1E4D78
:101890001E68A946761BC846103506EB080019F0ED
:1018A00031FC08F8010BA845F7D1184B184D1E68FC
:1018B00030E000BF7C1BFF1FDC1FFF1F204B02001E
:1018C000284B0200E04A0200384B02001007FF1FBD
:1018D000404B0200E407FF1F504B0200604B020028
:1018E000704B0200D417FF1FE413FF1F2C07FF1FCC
:1018F0009018FF1F0407FF1F6C13FF1F5007FF1FE7
:10190000AC13FF1F5807FF1F6C15FF1F1807FF1FA1
:10191000B814FF1FA846761B183506EB080019F00F
:10192000F1FB08F8010B4545F7D1C34BC34D1E68C9
:10193000A846761B183506EB080019F0E3FB08F8FB
:10194000010BA845F7D1BE4BBE4D1E68A846761BBD
:10195000183506EB080019F0D5FB08F8010BA8456F
:10196000F7D1B94BB94D1E682B46761B98464035CA
:1019700006EB080019F0C6FB08F8010B4545F7D146
:10198000B34BB44D1E682B46761B98465C3506EB70
:10199000080019F0B7FB08F8010BA845F7D1AE4BCA
:1019A000AE4D1E682B46761B9846543506EB080054
:1019B00019F0A8FB08F8010B4545F7D1A84BA94D34
:1019C0001E682B46761B9846603506EB080019F01A
:1019D00099FB08F8010BA845F7D11321A2481BF089
:1019E000F3FFDBF83010A1481CF0CEFC9F481CF040
:1019F0007BFC12219E481BF0E7FFDAF830109B4871
:101A00001CF0C2FC99481CF06FFC1A2199481BF08D
:101A1000DBFFD9F8001095481CF0B6FC93481CF089
:101A200063FC132194481BF0CFFF884B8F48196843
:101A30000A2200231CF068FC8C481CF055FC132182
:101A40008E481BF0C1FF8E4B884819680A2200237C
:101A50001CF05AFC85481CF047FC122189481BF0F9
:101A6000B3FF7E4B8148996C0A2200231CF04CFC8A
:101A70007E481CF039FC172183481BF0A5FF794BE9
:101A80007A4819680A2200231CF03EFC77481CF0B3
:101A90002BFC13217D481BF097FF6E4B7348996B0D
:101AA0000A2200231CF030FC70481CF01DFC0121B0
:101AB000042019F0CFFC01210E2019F0CBFC0121EC
:101AC000162019F0C7FC0121112019F0C3FC0021D8
:101AD0000320FEF7E3FF00210846FEF7DFFF0021A9
:101AE0000120FEF7DBFF00210220FEF7D7FF0221D5
:101AF000387E19F0AFFC0221387F19F0ABFC236867
:101B00001A931A9A23681993199B614D9B1A092BF2
:101B1000F8D90121387E19F089FC0121387F19F0AC
:101B200085FC022197F82C0019F094FC022197F80B
:101B3000300019F08FFC2B681893189A23681793BC
:101B4000179B534D9B1A092BF8D9012197F82C00AC
:101B500019F06CFC012197F8300019F067FC0221A4
:101B600097F84C0019F076FC022197F8500019F014
:101B700071FC012197F84C0019F058FC97F85000BF
:101B8000012119F053FC2B681693169A23681593BC
:101B9000159B9B1A092BF9D90121182019F05AFC21
:101BA0000121182019F042FC01210F2019F052FCEC
:101BB00001210F2019F03AFC01210A2019F04AFCFA
:101BC00001210A2019F032FC0121092019F042FC00
:101BD0000121092019F02AFCFEF7F0FE0021032064
:101BE000FEF75CFF2A4E032501210D2019F01EFC93
:101BF00023681E931E9A23681D931D9B9B1A312BED
:101C0000F9D900210D2019F011FC33681C931C9A9E
:101C100023681B931B9B9B1AB3F5967FF8D3013D5A
:101C2000E2D10E211B481BF0CFFE10481CF05CFBDC
:101C300023B0BDE8F08F00BF1C07FF1F3016FF1F49
:101C40003407FF1F4816FF1F3807FF1F9415FF1F9B
:101C5000FC06FF1FD012FF1F0007FF1F6414FF1FA9
:101C60001407FF1FF813FF1F7C4B0200E407FF1F40
:101C7000904B0200A44B0200C04B0200D44B020068
:101C80006C13FF1FE84B0200FC4B0200144C0200D7
:101C90007C1BFF1F284C020003280BD8DFE800F054
:101CA000080604021AF05EBE1AF07EBB19F0C4BF2B
:101CB0001BF024BE0020704708B519F0ADFF0028C6
:101CC00001DD012008BD1AF05FFB002801DD0220C4
:101CD00008BD1AF037FE0028D4BF0020032008BD3D
:101CE00038B50D4C2068FFF7D7FFC5B202E0206879
:101CF000FFF7D2FFFFF7E0FF0028F8DC04210748D8
:101D00001BF062FE294606481CF03EFB04481CF00E
:101D1000EBFA284638BD00BF1007FF1F384C020001
:101D2000E407FF1F08B5FFF7C7FF002808DB134BC8
:101D30001868FFF7B1FF124BC0B25328187001D0DA
:101D4000002008BD00210320FEF7A8FE0D4B1B68F4
:101D5000012B08D003D3022B09D0012008BD00219C
:101D60000120FEF79BFE00210120FEF797FE0021D7
:101D70000220FEF793FE012008BD00BF1007FF1FE1
:101D8000E016FF1FF813FF1FF0B51C2183B0274892
:101D9000274C284D284E294F1BF016FE28481CF0D2
:101DA000A3FA0E2127481BF00FFE216824481CF0DF
:101DB000EBFA23481CF098FA0023019309E0019BF9
:101DC0003068184419F0B8F9019B0133142B0193C2
:101DD00014DC2868FFF760FFC0B2FF2823680146C3
:101DE00019D0032BEBD1019B3A680146D01819F0AA
:101DF000A3F9019B0133142B0193EADD2368032B24
:101E00000CBF114B114B042219680DEB020019F0A5
:101E1000BBF903B0F0BD032B0CBF084A064A019B77
:101E200010680021184419F087F9E7E7404C0200D8
:101E30004C07FF1F1007FF1F4807FF1F0C07FF1F5E
:101E4000E407FF1F604C02005407FF1F2807FF1F15
:101E50002DE9F04F95B0074604A816F0E3FB882063
:101E60001CF002FA0823102280E80C00C61800F1CA
:101E70008808354634462046002110341CF000FC0A
:101E8000A045F8D11721BF481BF09EFDBE481CF0AD
:101E90002BFA0CA80123BD4ABD4916F0B3FC0E9ADB
:101EA0009DF83C309DF8341006928DF81C308DF86A
:101EB00014100FAA0DF11D030DF12A0012F8011FD5
:101EC00003F8011B8342F9D1139B0B930CA816F066
:101ED000B7FB04A816F0E2FB002800F0AF8104A8CD
:101EE00016F0CAFB0A210446AA481BF06DFD2146E4
:101EF00000230A22A4481CF007FAA3481CF0F4F9B6
:101F0000002F4AD017F1060900F1B7800024A2463D
:101F100010E0013C0CA816F0C1FB8046002842D01E
:101F20000CA816F0ADFB01340CA816F089FB4C454B
:101F300000F3A380012204A90CA816F0D7FC0CA87A
:101F400016F080FB804620F01BF9014640461BF04E
:101F50003BFD8D481CF0C8F90CA816F075FB002855
:101F6000D7D10CA816F06EFB01468B481FF03CFF42
:101F70000A2100285CD189481BF026FD0CA816F028
:101F800061FB804620F0FCF8014640461BF01CFD3A
:101F90007D48013C1CF0A8F9C2E7814B64221A601D
:101FA0004FF00609B2E70F217E48DFF8F4B11BF0CD
:101FB0000BFD214674481CF0E7F903217A481BF019
:101FC00003FDDBF8001070481CF0DEF904F1080393
:101FD00003217548CBF800301BF0F6FCDBF800104D
:101FE00069481CF0D1F968481CF07EF968466F49D1
:101FF0001CF046FB41466846FFF740F968461CF076
:10200000FFFA2220FFF7ACFA631E00EE103A4046BA
:10201000B8EEC00AFFF748FA684665491CF030FB85
:1020200068464146FFF72AF968461CF0E9FA77E767
:1020300060481BF0C9FC214653481CF0A5F9032158
:1020400059481BF0C1FC0CA816F0FCFA804620F0A1
:1020500097F8014640461BF0B7FC032152481BF09D
:10206000B3FCA74240F3F48006EB0A1146481CF08B
:1020700015F945481CF038F94CE70126741E032178
:102080004D481BF0A1FC21463F481CF07DF903217F
:1020900045481BF099FC29463B481CF0FFF8B41E4C
:1020A00039481CF021F9052C04D8DFE804F06866F3
:1020B0006462359541490CA81CF0E2FA00210CA895
:1020C000FFF7DCF80CA81CF09BFA3D490CA81CF0AB
:1020D000D7FA00210CA8FFF7D1F80CA81CF090FA51
:1020E00029460CA81CF0E0FA00210CA8FFF7C6F85E
:1020F0000CA81CF085FA2E490CA81CF0C1FA00218E
:102100000CA8FFF7BBF80CA81CF07AFA072E00F019
:102110008F8010350136B1E72A490CA81CF0B0FABF
:1021200000210CA8FFF7AAF80CA81CF069FA2449B2
:102130000CA81CF0A5FA00210CA8FFF79FF80CA82A
:102140001CF05EFA29460CA81CF0AEFA00210CA87F
:10215000FFF794F80CA81CF053FA15490CA81CF0D2
:102160008FFA0CA80021FFF789F80CA81CF048FA98
:10217000CFE71549D1E71549CFE71549CDE715490F
:10218000CBE700BF704C0200E407FF1F884C020041
:10219000C818FF1F8C4C0200A84C0200B44C02006F
:1021A0004007FF1FD04C0200CC4C0200E04C020064
:1021B000F44C0200C04C0200FC4C0200004D020036
:1021C000184D02007C4D0200644D02004C4D02008F
:1021D000344D02001C4D020023490CA81CF050FA9B
:1021E00000210CA8FFF74AF80CA81CF009FA1F49B7
:1021F0000CA81CF045FA00210CA8FFF73FF80CA82A
:102200001CF0FEF929460CA81CF04EFA00210CA87F
:10221000FFF734F80CA81CF0F3F915490CA81CF0D2
:102220002FFA0CA80021FFF729F80CA81CF0E8F9F8
:1022300004A816F005FA15B0BDE8F08F0E210D4880
:102240001BF0C2FB04A816F0FBF915B0BDE8F08F37
:102250000CA816F0F7F906EB0A18014640461CF0E8
:1022600083FA0AF1010AFFE6944D0200184D0200BC
:10227000F44C0200984C020008B5084BDFED080A48
:10228000D3ED007A27EE800A1CF0C4FE1CF01AFE83
:10229000044BD3ED007A20EE270A08BD5814FF1F27
:1022A000DB0FC9408C15FF1F08B52C4A2C4B92ED53
:1022B000010A93ED007ADFED2B6A2B4BB8EEC77A5B
:1022C0009B6BC6EE877A012BB8EEC00A2DED028B10
:1022D00027EE800A3BD034D3022B2CD09FED238AEB
:1022E000FFF7CAFF224A234B92ED007A002283F8BF
:1022F000902072B6DFED207A93ED206AD3ED1F6A4D
:1023000030EE480AB8EEC77AC0EE275AC5EE877A93
:1023100067EE867AF4EEE67AC3ED1E7AD3ED227A82
:10232000F1EE10FAD8BFF1EE677AC3ED237A62B608
:10233000BDEC028B08BD114B93ED018AB8EEC88A43
:10234000CEE70F4B93ED018AB8EEC88AC8E70D4B74
:1023500093ED018AB8EEC88AC2E700BF7812FF1F6A
:10236000C418FF1FDB0FC940D012FF1F0000000080
:102370009016FF1FD414FF1FCDCCCC3CD415FF1FEB
:10238000E416FF1F9C16FF1F2DE9F04F1621ADB07C
:102390000446B1481BF018FBB0481BF0A5FF0A2CFF
:1023A00000F27C84DFE814F095007A04CD01AA02E3
:1023B0006C017A042703F901D403D4030B00A84B62
:1023C0001D680DF15008C8EB050544462BAE2819D1
:1023D00018F098FE04F8010BA642F8D1A14907A80D
:1023E0001CF04EF9002107A8FEF748FF07A81CF0D3
:1023F00007F92220FFF7B4F8DDED147A0020B8EEDB
:10240000E70AFFF751F8984907A81CF039F90021AD
:1024100007A8FEF733FF07A81CF0F2F8934907A8B6
:102420001CF02EF9002107A8FEF728FF07A81CF0D2
:10243000E7F82220FFF794F8DDED187A0020B8EED7
:10244000670AFFF731F8884907A81CF019F907A8AF
:102450000021FEF713FF07A81CF0D2F8229B012BE6
:1024600000F0EC86C0F0B886022B40F095828049DF
:1024700007A81CF005F9002107A8FEF7FFFE07A832
:102480001CF0BEF82220FFF76BF8DDED177A002074
:10249000B8EE670AFFF708F8734907A81CF0F0F8D0
:1024A000002107A8FEF7EAFE07A81CF0A9F8714969
:1024B00007A81CF0E5F8002107A8FEF7DFFE07A833
:1024C0001CF09EF82220FFF74BF80020DDED1B7A70
:1024D0001AE3694B1D6807AC2E1B0DF1500830192B
:1024E00018F010FE04F8010BA045F8D1C8EB050563
:1024F00021AE4446281918F005FE04F8010BA64247
:10250000F8D1584903A81CF0BBF8002103A8FEF736
:10251000B5FE03A81CF074F8584903A81CF0B0F8E5
:10252000002103A8FEF7AAFE03A81CF069F8DDED60
:10253000087A0020B8EEE70AFEF7B6FF4A4903A87A
:102540001CF09EF8002103A8FEF798FE03A81CF0DB
:1025500057F8464903A81CF093F8002103A8FEF79A
:102560008DFE03A81CF04CF8444903A81CF088F821
:10257000002103A8FEF782FE03A81CF041F8DDED60
:10258000107A0020B8EEE70AFEF78EFF364903A85E
:102590001CF076F803A80021FEF770FE03A81CF0DB
:1025A0002FF8139C012C00F03B85022C00F0D18405
:1025B000002C40F0F1812E4903A81CF061F821465F
:1025C00003A8FEF75BFE03A81CF01AF82B4903A82A
:1025D0001CF056F8214603A8FEF750FE03A81CF095
:1025E0000FF8DDED097A2046B8EEE70AFEF75CFF4A
:1025F0001D4903A81CF044F8214603A8FEF73EFE3F
:1026000003A81BF0FDFF1B4903A81CF039F8214665
:1026100003A8FEF733FE03A81BF0F2FF174903A837
:102620001CF02EF8214603A8FEF728FE03A81BF095
:10263000E7FFDDED117A2046B8EEE70AFEF734FF3A
:10264000094903A81CF01CF803A82146FEF716FE52
:1026500003A81BF0D5FF9FE1AC4D0200E407FF1F6C
:10266000FC06FF1FC44D0200F44C0200D84D0200CE
:10267000EC4D0200004E02002C07FF1F184D020017
:10268000924B1D680DF15008C8EB0505444624AE79
:10269000281918F037FD04F8010BA642F8D1149A56
:1026A000052A00F279810123934013F0300440F0B1
:1026B000E98313F00C0540F03A869B0700F06C812B
:1026C00007A883491BF0DCFF294607A8FEF7D6FDC3
:1026D00007A81BF095FF2220FEF742FFDDED157ADB
:1026E0002846B8EEE70AFEF7DFFE07A879491BF097
:1026F000C7FF294607A8FEF7C1FD07A81BF080FF0A
:1027000007A875491BF0BCFF294607A8FEF7B6FDD0
:1027100007A81BF075FF2220FEF722FFDDED167AD9
:102720002846B8EE670AFEF7BFFE07A869491BF006
:10273000A7FF07A82946FEF7A1FD07A81BF060FF29
:102740002AE1664B1D680DF15008C8EB05054446AB
:1027500021AE281918F0D6FC04F8010BA642F8D1D6
:102760001E9B5F4801930B21DDF854B0DDF874A087
:10277000DDF85890179F1F9E189D149C1BF024F99C
:1027800058481BF0B1FD209B032B00F20581DFE8C8
:1027900013F03103FD02C9028802534B1D680DF18D
:1027A0005008C8EB0505444629AE281918F0AAFCC4
:1027B00004F8010BA642F8D14C4907A81BF060FFB2
:1027C000002107A8FEF75AFD07A81BF019FF2220D9
:1027D000FEF7C6FEDDED147A0020B8EEE70AFEF73C
:1027E00063FE3C4907A81BF04BFF002107A8FEF73A
:1027F00045FD07A81BF004FF3D4907A81BF040FF5B
:10280000002107A8FEF73AFD07A81BF0F9FE2220D9
:10281000FEF7A6FEDDED1C7A0020B8EE670AFEF793
:1028200043FE2C4907A81BF02BFF002107A8FEF749
:1028300025FD07A81BF0E4FE07212E481BF0C4F875
:10284000269C2848214600230A221BF05DFD2548CE
:102850001BF04AFD012C00F04983C0F01584022CC6
:1028600040F09A801A4907A81BF00AFF002107A828
:10287000FEF704FD07A81BF0C3FE2220FEF770FE42
:102880001D4B93ED030A0020B8EEC00AFEF70CFEC4
:10289000104907A81BF0F4FE002107A8FEF7EEFC84
:1028A00007A81BF0ADFE0C4907A81BF0E9FE0021AC
:1028B00007A8FEF7E3FC07A81BF0A2FE2220FEF704
:1028C0004FFE0020DDED1F7A1EE100BF3807FF1F1D
:1028D000EC4D0200F44C0200004E02005007FF1FB6
:1028E000704E0200E407FF1F0007FF1FC44D0200E7
:1028F000D84D0200684E02006414FF1F8A4B1D6809
:1029000007AC2D1B0BAE281918F0FCFB04F8010BCB
:10291000A642F8D10DF15008844940461BF0B0FEA4
:1029200000214046FEF7AAFC40461BF069FE22202B
:10293000FEF716FEDDED087A0020B8EEE70AFEF796
:10294000B3FD7B4940461BF09BFE00214046FEF74D
:1029500095FC40461BF054FE764940461BF090FE25
:1029600000214046FEF78AFC40461BF049FE22202B
:10297000FEF7F6FDDDED0A7A0020B8EE670AFEF7F5
:1029800093FD6B4940461BF07BFE40460021FEF75D
:1029900075FC40461BF034FE674940461BF070FE54
:1029A00000214046FEF76AFC40461BF029FE6349C1
:1029B00040461BF065FE00214046FEF75FFC4046A6
:1029C0001BF01EFE5E4940461BF05AFE00214046A9
:1029D000FEF754FC40461BF013FE584940461BF0DE
:1029E0004FFE00214046FEF749FC40461BF008FE22
:1029F0002DB0BDE8F08F534B1D680DF15008C8EBAA
:102A00000505444624AE281918F07CFB04F8010B98
:102A1000A642F8D1454907A81BF032FE002107A8BD
:102A2000FEF72CFC07A81BF0EBFD2220FEF798FD1B
:102A3000DDED157A0020B8EEE70AFEF735FD3C49DA
:102A400007A81BF01DFE002107A8FEF717FC07A82A
:102A50001BF0D6FD374907A81BF012FE002107A87E
:102A6000FEF70CFC07A81BF0CBFD2220FEF778FD3B
:102A7000DDED167A0020B8EE670AFEF715FD2C4949
:102A800007A81BF0FDFD07A80021FEF7F7FB07A82C
:102A90001BF0B6FD149B012B00F02883C0F06A8365
:102AA000022B7FF479AF284907A81BF0E9FD00212C
:102AB00007A8FEF7E3FB07A81BF0A2FD2220FEF704
:102AC0004FFDDDED1B7A0020B8EEE70AFEF7ECFCC7
:102AD000174907A81BF0D4FD002107A8FEF7CEFB7D
:102AE00007A81BF08DFD194907A81BF0C9FD00219F
:102AF00007A8FEF7C3FB07A81BF082FD2220FEF704
:102B00002FFDDDED1C7A0020B8EE670AFEF7CCFC45
:102B1000074907A81BF0B4FD07A80021FEF7AEFB8C
:102B200007A81BF06DFD37E75807FF1FC44D0200D3
:102B3000F44C0200D84D0200A44E0200E04A02000C
:102B4000BC4E02000407FF1FEC4D0200004E0200C5
:102B5000C24B1D680DF15008C8EB050544462CAE6C
:102B6000281918F0CFFA04F8010BA642F8D1BC4995
:102B7000BC4C07A81BF084FD002107A8FEF77EFBD4
:102B800007A81BF03DFD2220FEF7EAFCDDED207AD0
:102B90000020B8EEE70AFEF787FCB34907A81BF050
:102BA0006FFD002107A8FEF769FB07A81BF028FDB1
:102BB000AE4907A81BF064FD002107A8FEF75EFBE5
:102BC00007A81BF01DFD2220FEF7CAFC289D07EE7A
:102BD000905A0020B8EE670AFEF766FCA24907A8E3
:102BE0001BF04EFD002107A8FEF748FB07A81BF0CD
:102BF00007FD0F219E481AF0E7FE00230A22216DEF
:102C00009C481BF081FB9B481BF06EFB16219A48E9
:102C10001AF0DAFE002329460A2296481BF074FBBC
:102C200094481BF061FB2368012B00F04D83C0F03A
:102C30001983022B7FF4B0AE904907A81BF020FD4A
:102C4000002107A8FEF71AFB07A81BF0D9FC2220D9
:102C5000FEF786FCDDED237A0020B8EEE70AFEF7EA
:102C600023FC814907A81BF00BFD002107A8FEF7F4
:102C700005FB07A81BF0C4FC814907A81BF000FD59
:102C8000002107A8FEF7FAFA07A81BF0B9FC2220DA
:102C9000FEF766FC0020DDED2B7A35E70DF15008DC
:102CA0007AE66F4907A81BF0EBFC002107A8FEF7A6
:102CB000E5FA07A81BF0A4FC2220FEF751FC07EE62
:102CC00090BA0020B8EEE70AFEF7EEFB664907A8C7
:102CD0001BF0D6FC002107A8FEF7D0FA07A81BF0CE
:102CE0008FFC624907A81BF0CBFC002107A8FEF768
:102CF000C5FA07A81BF084FC2220FEF731FC07EE82
:102D000090AAB8EEE70A0020FEF7CEFB07A85649C6
:102D10001BF0B6FC07A80021FEF7B0FA07A81BF0CD
:102D20006FFC39E6554907A81BF0AAFC002107A84B
:102D3000FEF7A4FA07A81BF063FC2220FEF710FCA4
:102D400007EE905A0020B8EEE70AFEF7ADFB4649C1
:102D500007A81BF095FC002107A8FEF78FFA07A82B
:102D60001BF04EFC464907A81BF08AFC002107A86F
:102D7000FEF784FA07A81BF043FC2220FEF7F0FBC5
:102D800007EE904A0020B8EEE70ABDE73B4907A8E6
:102D90001BF076FC002107A8FEF770FA07A81BF0CD
:102DA0002FFC2220FEF7DCFB07EE907A0020B8EE25
:102DB000E70AFEF779FB2C4907A81BF061FC00210C
:102DC00007A8FEF75BFA07A81BF01AFC2C4907A816
:102DD0001BF056FC002107A8FEF750FA07A81BF0CD
:102DE0000FFC2220FEF7BCFB07EE906A0020B8EE35
:102DF000E70A89E7214907A81BF042FC002107A840
:102E0000FEF73CFA07A81BF0FBFB2220FEF7A8FB0D
:102E100007EE909A0020B8EEE70AFEF745FB12494C
:102E200007A81BF02DFC002107A8FEF727FA07A82A
:102E30001BF0E6FB124907A81BF022FC002107A8A3
:102E4000FEF71CFA07A81BF0DBFB2220FEF788FB2D
:102E5000DDED017A0020B8EEE70A55E71407FF1F01
:102E6000C44D0200F813FF1FF44C0200D84D0200BD
:102E70007C4E0200E407FF1F8C4E0200EC4D020066
:102E8000004E0200B24907A81BF0FAFB002107A878
:102E9000FEF7F4F907A81BF0B3FB2220FEF760FB56
:102EA000DDED1B7A0020B8EEE70AFEF7FDFAA9492E
:102EB00007A81BF0E5FB002107A8FEF7DFF907A82C
:102EC0001BF09EFBA44907A81BF0DAFB002107A812
:102ED000FEF7D4F907A81BF093FB2220FEF740FB76
:102EE000DDED1C7A0020B8EE670A0DE7984907A8C7
:102EF0001BF0C6FB002107A8FEF7C0F907A81BF0CE
:102F00007FFB2220FEF72CFB944B93ED020A00205E
:102F1000B8EEC00AFEF7C8FA8E4907A81BF0B0FB4E
:102F2000002107A8FEF7AAF907A81BF069FB8A4948
:102F300007A81BF0A5FB002107A8FEF79FF907A82B
:102F40001BF05EFB2220FEF70BFB0020DDED1E7A5E
:102F5000DAE5182182481AF037FD824B8248196859
:102F60001BF012FA80481BF0BFF919217F481AF0B4
:102F70002BFD14997C481BF007FA7B481BF0B4F931
:102F800018217B481AF020FD079C774821461BF04A
:102F9000FBF975481BF0A8F96D4903A81BF070FBFD
:102FA000002103A8FEF76AF903A81BF029FB2220E1
:102FB000FEF7D6FADDED0B7A0020B8EEE70AFEF751
:102FC00073FA644903A81BF05BFB002103A8FEF71A
:102FD00055F903A81BF014FB642018F041FA5E4970
:102FE00003A81BF04DFB002103A8FEF747F903A837
:102FF0001BF006FB2220FEF7B3FA07EE904AB8EE6C
:10300000E70A0020FEF750FA524903A81BF038FBEC
:1030100003A80021FEF732F903A81BF0F1FABBE484
:103020004B4903A81BF02CFB002103A8FEF726F94F
:1030300003A81BF0E5FA2220FEF792FADDED0A7AEA
:103040000020B8EEE70AFEF72FFA424903A81BF06A
:1030500017FB002103A8FEF711F903A81BF0D0FA13
:103060003D4903A81BF00CFB002103A8FEF706F95D
:1030700003A81BF0C5FA2220FEF772FADDED127AE2
:103080000020B8EEE70ABDE7314907A81BF0F8FABF
:10309000002107A8FEF7F2F807A81BF0B1FA2220DA
:1030A000FEF75EFADDED157A0020B8EEE70AFEF7CE
:1030B000FBF9284907A81BF0E3FA002107A8FEF74F
:1030C000DDF807A81BF09CFA234907A81BF0D8FAE3
:1030D000002107A8FEF7D2F807A81BF091FA2220DA
:1030E000FEF73EFA0020DDED1D7A0DE5184907A830
:1030F0001BF0C6FA002107A8FEF7C0F807A81BF0CE
:103100007FFA2220FEF72CFADDED197AB8EEE70AF5
:103110000020FEF7C9F90F4907A81BF0B1FA0021FA
:1031200007A8FEF7ABF807A81BF06AFA0A4907A838
:103130001BF0A6FA002107A8FEF7A0F807A81BF0CD
:103140005FFA2220FEF70CFA0020DDED1A7ADBE4AC
:10315000EC4D0200F44C0200004E02006414FF1F0C
:10316000144E02009018FF1FE407FF1F304E0200AC
:103170004C4E02008F4907A81BF082FA002107A8D5
:10318000FEF77CF807A81BF03BFA2220FEF7E8F9CF
:10319000DDED177A0020B8EEE70AFEF785F98649DB
:1031A00007A81BF06DFA002107A8FEF767F807A82B
:1031B0001BF026FA814907A81BF062FA002107A834
:1031C000FEF75CF807A81BF01BFA2220FEF7C8F9EF
:1031D0000020DDED187A97E4764907A81BF050FA35
:1031E000002107A8FEF74AF807A81BF009FA2220D9
:1031F000FEF7B6F9DDED157A0020B8EEE70AFEF726
:1032000053F96D4907A81BF03BFA002107A8FEF708
:1032100035F807A81BF0F4F9684907A81BF030FA45
:10322000002107A8FEF72AF807A81BF0E9F92220D9
:10323000FEF796F90020DDED197A65E45D4907A8EF
:103240001BF01EFA002107A8FEF718F807A81BF0CC
:10325000D7F92220FEF784F9DDED167A0020B8EECA
:10326000670A56E7534907A81BF00AFA002107A886
:10327000FEF704F807A81BF0C3F92220FEF770F947
:10328000DDED217A0020B8EEE70AFEF70DF94A4994
:1032900007A81BF0F5F9002107A8FDF7EFFF07A825
:1032A0001BF0AEF9454907A81BF0EAF9002107A871
:1032B000FDF7E4FF07A81BF0A3F92220FEF750F961
:1032C0000020DDED297A1FE43A4907A81BF0D8F960
:1032D000002107A8FDF7D2FF07A81BF091F92220D3
:1032E000FEF73EF9DDED227A0020B8EEE70AFEF7A0
:1032F000DBF8314907A81BF0C3F9002107A8FDF747
:10330000BDFF07A81BF07CF92C4907A81BF0B8F9F2
:10331000002107A8FDF7B2FF07A81BF071F92220D2
:10332000FEF71EF90020DDED2A7AFFF7EDBB07A8B6
:1033300020491BF0A5F9214607A8FDF79FFF07A824
:103340001BF05EF92220FEF70BF9DDED187A20461E
:10335000B8EEE70AFEF7A8F807A817491BF090F99E
:10336000214607A8FDF78AFF07A81BF049F907A81F
:1033700012491BF085F9214607A8FDF77FFF07A832
:103380001BF03EF92220FEF7EBF8DDED197A20461E
:10339000B8EE670AFEF788F807A807491BF070F92E
:1033A00007A82146FDF76AFF07A81BF029F9FFF7D8
:1033B000F3BA00BFEC4D0200F44C0200004E0200D4
:1033C00070B5C64BAEB01D6805AC2D1B2EAE2819CE
:1033D00017F098FE04F8010BB442F8D1C049C14C73
:1033E000C14D01A81BF04CF9002101A8FDF746FFD3
:1033F00001A81BF005F92220FEF7B2F8DDED057AF1
:103400000020B8EE670AFEF74FF8B84901A81BF094
:1034100037F9002101A8FDF731FF01A81BF0F0F8F2
:10342000B34901A81BF02CF9002101A8FDF726FFE4
:1034300001A81BF0E5F82220FEF792F8DDED067AF0
:103440000020B8EE670AFEF72FF8A84901A81BF084
:1034500017F9002101A8FDF711FF01A81BF0D0F812
:10346000A44901A81BF00CF9002101A8FDF706FFF3
:1034700001A81BF0C5F82220FEF772F89DED070A9F
:103480000420FEF711F8994901A81BF0F9F8002172
:1034900001A8FDF7F3FE01A81BF0B2F8964901A8B8
:1034A0001BF0EEF8002101A8FDF7E8FE01A81BF0D3
:1034B000A7F82220FEF754F89DF8881001A80029EB
:1034C00014BF294621461BF0DBF8002101A8FDF7B7
:1034D000D5FE01A81BF094F8844901A81BF0D0F890
:1034E000002101A8FDF7CAFE01A81BF089F8834955
:1034F00001A81BF0C5F8002101A8FDF7BFFE01A837
:103500001BF07EF82220FEF72BF8DDED267A002056
:10351000B8EE670AFDF7C8FF744901A81BF0B0F8C0
:10352000002101A8FDF7AAFE01A81BF069F8744963
:1035300001A81BF0A5F8002101A8FDF79FFE01A836
:103540001BF05EF82220FEF70BF8DDED277A002055
:10355000B8EE670AFDF7A8FF644901A81BF090F8D0
:10356000002101A8FDF78AFE01A81BF049F8654972
:1035700001A81BF085F8002101A8FDF77FFE01A836
:103580001BF03EF82220FDF7EBFFDDED087A00206E
:10359000B8EE670AFDF788FF544901A81BF070F8E0
:1035A000002101A8FDF76AFE01A81BF029F8564981
:1035B00001A81BF065F8002101A8FDF75FFE01A836
:1035C0001BF01EF82220FDF7CBFFDDED097A00206D
:1035D000B8EE670AFDF768FF444901A81BF050F8F0
:1035E000002101A8FDF74AFE01A81BF009F8474990
:1035F00001A81BF045F8002101A8FDF73FFE01A836
:103600001AF0FEFF2220FDF7ABFF9DED0A0A042011
:10361000FDF74AFF354901A81BF032F8002101A847
:10362000FDF72CFE01A81AF0EBFF394901A81BF0A9
:1036300027F8002101A8FDF721FE01A81AF0E0FFFC
:103640002220FDF78DFF9DF8891001A8002914BFE5
:10365000294621461BF014F8002101A8FDF70EFEB3
:1036600001A81AF0CDFF214901A81BF009F800219B
:1036700001A8FDF703FE01A81AF0C2FF254901A821
:103680001AF0FEFF002101A8FDF7F8FD01A81AF0CD
:10369000B7FF2220FDF764FFDDED0D7A0020B8EEC4
:1036A000670AFDF701FF114901A81AF0E9FF00219F
:1036B00001A8FDF7E3FD01A81AF0A2FF164901A831
:1036C0001AF0DEFF002101A8FDF7D8FD01A81AF0CD
:1036D00097FF2220FDF744FF20E000BFE413FF1F07
:1036E000E04E0200D84E0200D44E0200F44C02001C
:1036F000F84E0200104F0200284F0200404F020017
:10370000544F02006C4F02007C4F02008C4F0200AD
:103710009C4F0200AC4F0200BC4F0200DDED0E7A60
:103720000020B8EE670AFDF7BFFEC34901A81AF0F2
:10373000A7FF002101A8FDF7A1FD01A81AF060FF75
:10374000BE4901A81AF09CFF002101A8FDF796FDD3
:1037500001A81AF055FF2220FDF702FF9DED0F0A88
:103760000520FDF7A1FEB44901A81AF089FF002148
:1037700001A8FDF783FD01A81AF042FFB04901A896
:103780001AF07EFF002101A8FDF778FD01A81AF0CC
:1037900037FF2220FDF7E4FE9DF88A1001A80029DA
:1037A00014BF294621461AF06BFF002101A8FDF73E
:1037B00065FD01A81AF024FF9F4901A81AF060FFD7
:1037C000002101A8FDF75AFD01A81AF019FF9D4933
:1037D00001A81AF055FF002101A8FDF74FFD01A82F
:1037E0001AF00EFF2220FDF7BBFEDDED2A7A002045
:1037F000B8EE670AFDF758FE8F4901A81AF040FF9E
:10380000002101A8FDF73AFD01A81AF0F9FE8E4942
:1038100001A81AF035FF002101A8FDF72FFD01A82E
:103820001AF0EEFE2220FDF79BFEDDED2B7A002044
:10383000B8EE670AFDF738FE7F4901A81AF020FFAD
:10384000002101A8FDF71AFD01A81AF0D9FE7F4951
:1038500001A81AF015FF002101A8FDF70FFD01A82E
:103860001AF0CEFE2220FDF77BFE9DED2C0A0520EE
:10387000FDF71AFE704901A81AF002FF002101A805
:10388000FDF7FCFC01A81AF0BBFE714901A81AF073
:10389000F7FE002101A8FDF7F1FC01A81AF0B0FE27
:1038A0002220FDF75DFE9DF8B41001A8002914BF89
:1038B000294621461AF0E4FE002101A8FDF7DEFCAE
:1038C00001A81AF09DFE5C4901A81AF0D9FE00215A
:1038D00001A8FDF7D3FC01A81AF092FE5D4901A8EA
:1038E0001AF0CEFE002101A8FDF7C8FC01A81AF0CD
:1038F00087FE2220FDF734FEDDED137A0020B8EEBE
:10390000670AFDF7D1FD4C4901A81AF0B9FE002164
:1039100001A8FDF7B3FC01A81AF072FE4E4901A8F8
:103920001AF0AEFE002101A8FDF7A8FC01A81AF0CC
:1039300067FE2220FDF714FEDDED147A0020B8EEBC
:10394000670AFDF7B1FD3C4901A81AF099FE002174
:1039500001A8FDF793FC01A81AF052FE3F4901A807
:103960001AF08EFE002101A8FDF788FC01A81AF0CC
:1039700047FE2220FDF7F4FD9DED150A0420FDF71A
:1039800093FD2D4901A81AF07BFE002101A8FDF747
:1039900075FC01A81AF034FE314901A81AF070FE36
:1039A000002101A8FDF76AFC01A81AF029FE2220D7
:1039B000FDF7D6FD9DF88B1001A8002914BF2946FC
:1039C00021461AF05DFE002101A8FDF757FC01A871
:1039D0001AF016FE184901A81AF052FE01A800219B
:1039E000FDF74CFC01A81AF00BFE129C002C40F0D5
:1039F00096801C4901A81AF043FE214601A8FDF754
:103A00003DFC01A81AF0FCFD174901A81AF038FE88
:103A1000214601A8FDF732FC01A81AF0F1FD134977
:103A200001A81AF02DFE214601A8FDF727FC01A8E8
:103A30001AF0E6FD1CE000BFF44C0200CC4F02007F
:103A4000DC4F0200EC4F0200045002001C50020048
:103A5000345002004C5002005C5002006C500200D6
:103A60007C500200AC500200E04A0200BC50020050
:103A7000414901A81AF004FE01A82146FDF7FEFB0A
:103A800001A81AF0BDFD3D4901A81AF0F9FD002179
:103A900001A8FDF7F3FB01A81AF0B2FD2220FDF703
:103AA0005FFD9DED160A0420FDF7FEFC344901A8D8
:103AB0001AF0E6FD002101A8FDF7E0FB01A81AF0CD
:103AC0009FFD304901A81AF0DBFD002101A8FDF798
:103AD000D5FB01A81AF094FD274901A81AF0D0FDE2
:103AE000002101A8FDF7CAFB01A81AF089FD2649AB
:103AF00001A81AF0C5FD002101A8FDF7BFFB01A830
:103B00001AF07EFD1C4901A81AF0BAFD002101A897
:103B1000FDF7B4FB01A81AF073FD2EB070BD1B4970
:103B200001A81AF0ADFD002101A8FDF7A7FB01A82F
:103B30001AF066FD104901A81AF0A2FD002101A8A3
:103B4000FDF79CFB01A81AF05BFD114901A81AF0D2
:103B500097FD002101A8FDF791FB01A81AF050FD87
:103B6000054901A81AF08CFD01A80021FDF786FB8C
:103B700001A81AF045FD86E7E04A0200CC50020099
:103B8000F44C0200DC500200F45002008C500200A1
:103B90009C50020070B5C24BAEB01D6805AC2D1B29
:103BA0002EAE281917F0AEFA04F8010BA642F8D190
:103BB000BC49BD4C01A81AF063FD002101A8FDF726
:103BC0005DFB01A81AF01CFD2220FDF7C9FCD4ED15
:103BD000067A0020B8EE670AFDF766FCB34901A833
:103BE0001AF04EFD002101A8FDF748FB01A81AF0CC
:103BF00007FDAF4901A81AF043FD002101A8FDF718
:103C00003DFB01A81AF0FCFC2220FDF7A9FCD4ED35
:103C1000077A0020B8EE670AFDF746FCA34901A821
:103C20001AF02EFD002101A8FDF728FB01A81AF0CB
:103C3000E7FCA04901A81AF023FD002101A8FDF727
:103C40001DFB01A81AF0DCFC2220FDF789FCD4ED55
:103C50001E7A0020B8EE670AFDF726FC934901A8FA
:103C60001AF00EFD002101A8FDF708FB01A81AF0CB
:103C7000C7FC914901A81AF003FD002101A8FDF736
:103C8000FDFA01A81AF0BCFC2220FDF769FCD4ED76
:103C90000B7A0020B8EE670AFDF706FC834901A8FD
:103CA0001AF0EEFC002101A8FDF7E8FA01A81AF0CD
:103CB000A7FC824901A81AF0E3FC002101A8FDF746
:103CC000DDFA01A81AF09CFC2220FDF749FCD4ED96
:103CD0000C7A0020B8EE670AFDF7E6FB734901A8ED
:103CE0001AF0CEFC002101A8FDF7C8FA01A81AF0CD
:103CF00087FC734901A81AF0C3FC002101A8FDF755
:103D0000BDFA01A81AF07CFC2220FDF729FCD4EDB5
:103D10001F7A0020B8EE670AFDF7C6FB634901A8C9
:103D20001AF0AEFC002101A8FDF7A8FA01A81AF0CC
:103D300067FC644901A81AF0A3FC002101A8FDF763
:103D40009DFA01A81AF05CFC2220FDF709FCD4EDD5
:103D5000137A0020B8EE670AFDF7A6FB534901A8C5
:103D60001AF08EFC002101A8FDF788FA01A81AF0CC
:103D700047FC554901A81AF083FC002101A8FDF772
:103D80007DFA01A81AF03CFC2220FDF7E9FBD4EDF6
:103D9000147A0020B8EE670AFDF786FB434901A8B4
:103DA0001AF06EFC002101A8FDF768FA01A81AF0CC
:103DB00027FC464901A81AF063FC002101A8FDF781
:103DC0005DFA01A81AF01CFC2220FDF7C9FBD4ED16
:103DD000207A0020B8EE670AFDF766FB334901A898
:103DE0001AF04EFC002101A8FDF748FA01A81AF0CC
:103DF00007FC0D21364819F0E7FDD4F88C10354842
:103E000000230A221AF080FA32481AF06DFAD4F828
:103E10008C40002C68D1304901A81AF031FC01A86F
:103E20002146FDF72BFA01A81AF0EAFB2B4901A85D
:103E30001AF026FC002101A8FDF720FA01A81AF0CB
:103E4000DFFB274901A81AF01BFC002101A8FDF7A0
:103E500015FA01A81AF0D4FB204901A81AF010FCA9
:103E6000002101A8FDF70AFA01A81AF0C9FB1D49B3
:103E700001A81AF005FC002101A8FDF7FFF901A82F
:103E80001AF0BEFB154901A81AF0FAFB002101A89F
:103E9000FDF7F4F901A81AF0B3FB2EB070BD00BF16
:103EA000E413FF1F08510200D417FF1FF44C020057
:103EB0001C510200305102004451020058510200CE
:103EC0006C5102008051020094510200A85102007E
:103ED000BC510200E407FF1FE0510200E04A02006B
:103EE000F451020010520200054901A81AF0C8FB63
:103EF00001A80021FDF7C2F901A81AF081FB95E79E
:103F0000CC51020070B59D4BAEB01D6805AC2D1BA9
:103F10002EAE281917F0F6F804F8010BB442F8D1C8
:103F200001A897491AF0ACFB002101A8FDF7A6F9FA
:103F300001A81AF065FB2220FDF712FBDDED1A7ACD
:103F40000020B8EEE70AFDF7AFFA01A88D491AF094
:103F500097FB01A80021FDF791F901A81AF050FB89
:103F600001A889491AF08CFB002101A8FDF786F908
:103F700001A81AF045FB2220FDF7F2FADDED1B7ACD
:103F80000020B8EE670AFDF78FFA01A87D491AF004
:103F900077FB01A80021FDF771F901A81AF030FBA9
:103FA00001A87A491AF06CFB002101A8FDF766F917
:103FB00001A81AF025FB2220FDF7D2FADDED1C7ACC
:103FC0000020B8EEE70AFDF76FFA01A86D491AF074
:103FD00057FB01A80021FDF751F901A81AF010FBC9
:103FE00001A86B491AF04CFB002101A8FDF746F926
:103FF00001A81AF005FB2220FDF7B2FADDED1D7ACB
:104000000020B8EE670AFDF74FFA01A85D491AF0E3
:1040100037FB01A80021FDF731F901A81AF0F0FAE9
:1040200001A85C491AF02CFB002101A8FDF726F934
:1040300001A81AF0E5FA2220FDF792FADDED1E7ACA
:104040000020B8EEE70AFDF72FFA01A84D491AF053
:1040500017FB01A80021FDF711F901A81AF0D0FA09
:1040600001A84D491AF00CFB002101A8FDF706F943
:1040700001A81AF0C5FA2220FDF772FADDED1F7AC9
:104080000020B8EE670AFDF70FFA01A83D491AF0C3
:10409000F7FA01A80021FDF7F1F801A81AF0B0FA2B
:1040A00001A83E491AF0ECFA002101A8FDF7E6F854
:1040B00001A81AF0A5FA2220FDF752FADDED207AC8
:1040C0000020B8EEE70AFDF7EFF901A82D491AF034
:1040D000D7FA01A80021FDF7D1F801A81AF090FA4B
:1040E00001A82F491AF0CCFA002101A8FDF7C6F863
:1040F00001A81AF085FA2220FDF732FADDED217AC7
:104100000020B8EE670AFDF7CFF901A81D491AF0A3
:10411000B7FA01A80021FDF7B1F801A81AF070FA6A
:1041200001A820491AF0ACFA01A80021FDF7A6F871
:1041300001A81AF065FA01A81B491AF0A1FA01A812
:104140000021FDF79BF801A81AF05AFA01A81749B7
:104150001AF096FA01A80021FDF790F801A81AF0CC
:104160004FFA01A810491AF08BFA01A80021FDF7B7
:1041700085F801A81AF044FA2EB070BDE413FF1FB1
:1041800028520200F44C02003C520200505202003D
:1041900064520200785202008C520200A0520200C7
:1041A000B4520200CC520200E04A0200E85202007F
:1041B00070B5DA4B1B6884B00A2B00F2AD81DFE8E2
:1041C00013F05903AB0149045404C204AB01E904E0
:1041D0002B064B070B00D101D149D24D68461AF08E
:1041E0004FFA00216846FDF749F868461AF008FAC8
:1041F0002220FDF7B5F9D5ED0C7A0020B8EEE70ADC
:10420000FDF752F9C84968461AF03AFA00216846A3
:10421000FDF734F868461AF0F3F9C44968461AF015
:104220002FFA00216846FDF729F868461AF0E8F9E8
:104230002220FDF795F9D5ED147A0020B8EE670A33
:10424000FDF732F9B84968461AF01AFA00216846B3
:10425000FDF714F868461AF0D3F9B54968461AF024
:104260000FFA00216846FDF709F868461AF0C8F908
:104270002220FDF775F9D5ED107A0020B8EEE70A97
:10428000FDF712F9A84968461AF0FAF900216846C4
:10429000FCF7F4FF68461AF0B3F9A64968461AF02D
:1042A000EFF900216846FCF7E9FF68461AF0A8F923
:1042B0002220FDF755F9D5ED077A0020B8EEE70A80
:1042C000FDF7F2F8984968461AF0DAF900216846D5
:1042D000FCF7D4FF68461AF093F9974968461AF03C
:1042E000CFF900216846FCF7C9FF68461AF088F943
:1042F0002220FDF735F995ED080A0020FDF7D4F8E6
:10430000894968461AF0BCF900216846FCF7B6FFF7
:1043100068461AF075F9894968461AF0B1F9002122
:104320006846FCF7ABFF68461AF06AF92220FDF7F1
:1043300017F995ED0B0A0020FDF7B6F87A496846A3
:104340001AF09EF968460021FCF798FF68461AF0BB
:1043500057F9AE6A6C46002E02F0BB80012E23D1C5
:10436000774968461AF08CF900216846FCF786FF09
:1043700068461AF045F92220FDF7F2F871496846BF
:104380001AF07EF900216846FCF778FF68461AF0BB
:1043900037F9654968461AF073F968460021FCF759
:1043A0006DFF68461AF02CF96B6A022B02F08080D0
:1043B000032B23D1644920461AF062F900212046DC
:1043C000FCF75CFF20461AF01BF92220FDF7C8F825
:1043D0005E4920461AF054F900212046FCF74EFFB2
:1043E00020461AF00DF9504920461AF049F92046A6
:1043F0000021FCF743FF20461AF002F92B68494DD3
:10440000012B00F0B387C0F01C87022B40F08480A2
:104410004F4920461AF034F900212046FCF72EFFC0
:1044200020461AF0EDF82220FDF79AF84949204677
:104430001AF026F900212046FCF720FF20461AF04A
:10444000DFF8394920461AF01BF900212046FCF715
:1044500015FF20461AF0D4F83F4920461AF010F90B
:1044600000212046FCF70AFF20461AF0C9F8222056
:10447000FDF776F8D5ED0F7A0020B8EEE70AFDF7E4
:1044800013F8294920461AF0FBF800212046FCF7D2
:10449000F5FE20461AF0B4F8304920461AF0F0F83C
:1044A00000212046FCF7EAFE20461AF0A9F8222057
:1044B000FDF756F8D5ED177A0020B8EE670AFCF73D
:1044C000F3FF194920461AF0DBF800212046FCF7DB
:1044D000D5FE20461AF094F8214920461AF0D0F86B
:1044E00000212046FCF7CAFE20461AF089F8222057
:1044F000FDF736F895ED130A0020B8EEC00AFCF778
:10450000D3FF094920461AF0BBF820460021FCF7EA
:10451000B5FE20461AF074F804B070BD4C07FF1FBA
:1045200000530200F813FF1FF44C02001453020062
:10453000285302008C530200A0530200EC530200E7
:104540001C5402008456020000540200545402001D
:104550003C530200F8590200505302006453020019
:1045600078530200B549B64C68461AF089F8002124
:104570006846FCF783FE68461AF042F82220FCF7F2
:10458000EFFFD4ED007A0020B8EEE70AFCF78CFFCD
:10459000AC4968461AF074F800216846FCF76EFED4
:1045A00068461AF02DF8A84968461AF069F8002103
:1045B0006846FCF763FE68461AF022F82220FCF7F2
:1045C000CFFFD4ED047A0020B8EE670AFCF76CFF49
:1045D0009C4968461AF054F800216846FCF74EFEE4
:1045E00068461AF00DF8994968461AF049F8002112
:1045F0006846FCF743FE68461AF002F82220FCF7F2
:10460000AFFFD4ED087A0020B8EEE70AFCF74CFFC4
:104610008C4968461AF034F800216846FCF72EFEF3
:10462000684619F0EDFF8A4968461AF029F800211A
:104630006846FCF723FE684619F0E2FF2220FCF7EB
:104640008FFFD4ED0C7A0020B8EEE70AFCF72CFFC0
:104650007C4968461AF014F800216846FCF70EFE03
:10466000684619F0CDFF7B4968461AF009F8002129
:104670006846FCF703FE684619F0C2FF2220FCF7EB
:104680006FFFD4ED0D7A0020B8EEE70AFCF70CFFBF
:104690006C49684619F0F4FF68460021FCF7EEFD0E
:1046A000684619F0ADFFA36B012B02F03E83C2F008
:1046B0008782022B7FF430AF6749684619F0E0FF2C
:1046C00000216846FCF7DAFD684619F099FF2220C0
:1046D000FCF746FF6149684619F0D2FF00216846A1
:1046E000FCF7CCFD684619F08BFF5649684619F077
:1046F000C7FF00216846FCF7C1FD684619F080FF3E
:104700005749684619F0BCFF00216846FCF7B6FD22
:10471000684619F075FF2220FCF722FFD4ED037ADA
:104720000020B8EE670AFCF7BFFE4649684619F05C
:10473000A7FF00216846FCF7A1FD684619F060FF5D
:104740004849684619F09CFF00216846FCF796FD31
:10475000684619F055FF2220FCF702FFD4ED077AD6
:104760000020B8EE670AFCF79FFE3649684619F04C
:1047700087FF00216846FCF781FD684619F040FF7D
:104780003949684619F07CFF00216846FCF776FD40
:10479000684619F035FF2220FCF7E2FED4ED0B7AD3
:1047A0000020B8EEE70AFCF77FFE2649684619F0BC
:1047B00067FF00216846FCF761FD684619F020FF9D
:1047C0002A49684619F05CFF00216846FCF756FD4F
:1047D000684619F015FF2220FCF7C2FE94ED160A78
:1047E0000020FCF761FE1749684619F049FF0021D7
:1047F0006846FCF743FD684619F002FF1C4968460D
:1048000019F03EFF00216846FCF738FD684619F0B4
:10481000F7FE2220FCF7A4FE94ED150A0020FCF719
:1048200043FE0849684619F02BFF00216846FCF753
:1048300025FD684619F0E4FE04B070BD0053020087
:10484000D012FF1FF44C0200145302002853020040
:104850008C530200A05302003C530200F85902009E
:10486000505302006453020078530200EC530200DC
:104870001C540200BA49BB4C684619F001FF0021E4
:104880006846FCF7FBFC684619F0BAFE2220FCF7EC
:1048900067FED4ED017A0020B8EEE70AFCF704FECB
:1048A000B149684619F0ECFE00216846FCF7E6FCC9
:1048B000684619F0A5FEAD49684619F0E1FE0021F1
:1048C0006846FCF7DBFC684619F09AFE2220FCF7EC
:1048D00047FED4ED097A0020B8EEE70AFCF7E4FDC4
:1048E000A149684619F0CCFE00216846FCF7C6FCD9
:1048F000684619F085FE9E49684619F0C1FE002100
:104900006846FCF7BBFC684619F07AFE2220FCF7EB
:1049100027FED4ED057A0020B8EEE70AFCF7C4FDC7
:104920009149684619F0ACFE68460021FCF7A6FCE8
:10493000684619F065FE256B012D01F05086022DA9
:1049400001F0C686002D7FF4E7AD8A49684619F06C
:1049500097FE29466846FCF791FC684619F050FE20
:104960002220FCF7FDFD8449684619F089FE29469E
:104970006846FCF783FC684619F042FE7A496846AF
:1049800019F07EFE29466846FCF778FC684619F067
:1049900037FE7A49684619F073FE29466846FCF7E7
:1049A0006DFC684619F02CFE2220FCF7D9FDD4EDF1
:1049B000027A2846B8EEE70AFCF776FD6A496846AF
:1049C00019F05EFE29466846FCF758FC684619F067
:1049D00017FE6B49684619F053FE29466846FCF7F6
:1049E0004DFC684619F00CFE2220FCF7B9FDD4ED11
:1049F0000A7A2846B8EEE70AFCF756FD5A49684697
:104A000019F03EFE29466846FCF738FC684619F066
:104A1000F7FD5C49684619F033FE29466846FCF705
:104A20002DFC684619F0ECFD2220FCF799FD94ED71
:104A3000060A2846B8EEC00AFCF736FD4A49684621
:104A400019F01EFE68462946FCF718FC684619F066
:104A5000D7FD61E54C4C236B032B3FF65DADDFE8E2
:104A600013F00B07960621067C053D49474D684625
:104A700019F006FE00216846FCF700FC684619F0B4
:104A8000BFFD2220FCF76CFDD5ED017A0020B8EEC9
:104A9000E70AFCF709FD3449684619F0F1FD0021E9
:104AA0006846FCF7EBFB684619F0AAFD2F496846FB
:104AB00019F0E6FD00216846FCF7E0FB684619F0B6
:104AC0009FFD2220FCF74CFDD5ED037A0020B8EEC7
:104AD000670AFCF7E9FC2449684619F0D1FD00217A
:104AE0006846FCF7CBFB684619F08AFD204968460A
:104AF00019F0C6FD00216846FCF7C0FB684619F0B6
:104B00007FFD2220FCF72CFDD5ED027A0020B8EEC7
:104B1000E70AFCF7C9FC1449684619F0B1FD68467C
:104B20000021FCF7ABFB684619F06AFD2B68013BDE
:104B30006C46042B3FF6F0ACDFE813F0CD0713070B
:104B4000BC07AB079A07124C2368052B3FF6E4AC71
:104B5000DFE813F08E081E0B740ADD094609F8071A
:104B6000005302009018FF1FF44C0200145302007F
:104B7000285302003C5302003059020050530200F7
:104B80006453020078530200AC13FF1F6C15FF1F23
:104B90009415FF1F9449954D684619F071FD002149
:104BA0006846FCF76BFB684619F02AFD2220FCF7EB
:104BB000D7FCD5ED017A0020B8EEE70AFCF774FCCB
:104BC0008B49684619F05CFD00216846FCF756FBEE
:104BD000684619F015FD8749684619F051FD002116
:104BE0006846FCF74BFB684619F00AFD2220FCF7EB
:104BF000B7FCD5ED027A0020B8EE670AFCF754FC4A
:104C00007B49684619F03CFD00216846FCF736FBFD
:104C1000684619F0F5FC7849684619F031FD002125
:104C20006846FCF72BFB684619F0EAFC2220FCF7EB
:104C300097FCD5ED097A0020B8EEE70AFCF734FCC2
:104C40006B49684619F01CFD68460021FCF716FB0D
:104C5000684619F0D5FC6B6B012B6C4600F04C8755
:104C6000C1F01584302B01F01284312B00F0448701
:104C700062495E4E204619F003FD00212046FCF7F4
:104C8000FDFA204619F0BCFC2220FCF769FC95EDEA
:104C90000F0A0020FCF708FC5549204619F0F0FCEB
:104CA00000212046FCF7EAFA204619F0A9FC5449F5
:104CB000204619F0E5FC00212046FCF7DFFA2046EB
:104CC00019F09EFC2220FCF74BFC95ED0E0A00200B
:104CD000FCF7EAFB4649204619F0D2FC00212046A9
:104CE000FCF7CCFA204619F08BFC2B68012B01F065
:104CF000E386C1F06B86022B7FF40EAC414920465F
:104D000019F0BEFC00212046FCF7B8FA204619F045
:104D100077FC2220FCF724FC3B49204619F0B0FC2C
:104D200000212046FCF7AAFA204619F069FC304918
:104D3000204619F0A5FC00212046FCF79FFA2046EA
:104D400019F05EFC3149204619F09AFC00212046FA
:104D5000FCF794FA204619F053FC2220FCF700FCE3
:104D6000D6ED077A0020B8EEE70AFCF79DFB204954
:104D7000204619F085FC00212046FCF77FFA2046EA
:104D800019F03EFC2249204619F07AFC0021204609
:104D9000FCF774FA204619F033FC2220FCF7E0FB04
:104DA000D6ED087A0020B8EE670AFCF77DFB1049C3
:104DB000204619F065FC00212046FCF75FFA2046EA
:104DC00019F01EFC1349204619F05AFC0021204618
:104DD000FCF754FA204619F013FC2220FCF7C0FB24
:104DE00096ED0C0AFFF788BB005302006C13FF1FFF
:104DF000F44C02001453020028530200A053020096
:104E0000EC5302003C530200F859020050530200D8
:104E100064530200785302008449854D684619F0B6
:104E20002FFC00216846FCF729FA684619F0E8FBD8
:104E30002220FCF795FBD5ED007A0020B8EEE70ABA
:104E4000FCF732FB7B49684619F01AFC00216846E2
:104E5000FCF714FA684619F0D3FB7749684619F055
:104E60000FFC00216846FCF709FA684619F0C8FBF8
:104E70002220FCF775FBD5ED087A0020B8EE670A12
:104E8000FCF712FB6B49684619F0FAFB00216846F3
:104E9000FCF7F4F9684619F0B3FB6849684619F065
:104EA000EFFB00216846FCF7E9F9684619F0A8FB1A
:104EB0002220FCF755FBD5ED047A0020B8EEE70A76
:104EC000FCF7F2FA5B49684619F0DAFB0021684604
:104ED000FCF7D4F9684619F093FB5949684619F074
:104EE000CFFB00216846FCF7C9F9684619F088FB3A
:104EF0002220FCF735FBD5ED147A0020B8EE670AC6
:104F0000FCF7D2FA4B49684619F0BAFB6846002113
:104F1000FCF7B4F9684619F073FBEE6C6C46002E92
:104F200001F03382012E00F09782AB6C404D012BD3
:104F300001F0D684C1F04584022B7FF4EDAA4149EB
:104F4000204619F09DFB00212046FCF797F92046EA
:104F500019F056FB2220FCF703FB3B49204619F0D1
:104F60008FFB00212046FCF789F9204619F048FB09
:104F70003049204619F084FB00212046FCF77EF9D9
:104F8000204619F03DFB3149204619F079FB0021FC
:104F90002046FCF773F9204619F032FB2220FCF77B
:104FA000DFFAD5ED037A0020B8EEE70AFCF77CFAC9
:104FB0002049204619F064FB00212046FCF75EF9E9
:104FC000204619F01DFB2249204619F059FB00210B
:104FD0002046FCF753F9204619F012FB2220FCF77B
:104FE000BFFAD5ED0B7A0020B8EE670AFCF75CFA41
:104FF0001049204619F044FB00212046FCF73EF9F9
:10500000204619F0FDFA1349204619F039FB00211A
:105010002046FCF733F9204619F0F2FA2220FCF77B
:105020009FFA95ED070AFFF767BA00BF0053020029
:105030006414FF1FF44C02001453020028530200B2
:10504000005402003C530200F85902005053020081
:105050006453020078530200B549B64D684619F012
:105060000FFB00216846FCF709F9684619F0C8FAF9
:105070002220FCF775FAD5ED0C7A0020B8EEE70A8D
:10508000FCF712FAAC49684619F0FAFA00216846B2
:10509000FCF7F4F8684619F0B3FAA849684619F025
:1050A000EFFA00216846FCF7E9F8684619F0A8FA1B
:1050B0002220FCF755FAD5ED147A0020B8EE670AE5
:1050C000FCF7F2F99C49684619F0DAFA00216846C3
:1050D000FCF7D4F8684619F093FA9949684619F034
:1050E000CFFA00216846FCF7C9F8684619F088FA3B
:1050F0002220FCF735FAD5ED107A0020B8EEE70A49
:10510000FCF7D2F98C49684619F0BAFA00216846D2
:10511000FCF7B4F8684619F073FA8A49684619F042
:10512000AFFA00216846FCF7A9F8684619F068FA5A
:105130002220FCF715FAD5ED047A0020B8EEE70A34
:10514000FCF7B2F97C49684619F09AFA00216846E2
:10515000FCF794F8684619F053FA7B49684619F051
:105160008FFA00216846FCF789F8684619F048FA7A
:105170002220FCF7F5F995ED030A0020FCF794F9DD
:105180006D49684619F07CFA00216846FCF776F80C
:10519000684619F035FA6D49684619F071FA002130
:1051A0006846FCF76BF8684619F02AFA2220FCF7EB
:1051B000D7F995ED060A0020FCF776F95E496846B6
:1051C00019F05EFA68460021FCF758F8684619F0B5
:1051D00017FA6E696C46002E01F0CA81012E23D1A8
:1051E0005B49684619F04CFA00216846FCF746F81E
:1051F000684619F005FA2220FCF7B2F955496846CD
:1052000019F03EFA00216846FCF738F8684619F0B4
:10521000F7F94949684619F033FA68460021FCF766
:105220002DF8684619F0ECF9AB68023B052B3FF608
:10523000E5A8DFE813F044088808770866085508F1
:1052400099084549204619F01BFA00212046FCF731
:1052500015F8204619F0D4F92220FCF781F93F49CE
:10526000204619F00DFA00212046FCF707F82046E9
:1052700019F0C6F93049204619F002FA00212046FB
:10528000FBF7FCFF204619F0BBF93549204619F021
:10529000F7F900212046FBF7F1FF204619F0B0F99D
:1052A0002220FCF75DF9D5ED0D7A0020B8EEE70A73
:1052B000FCF7FAF82049204619F0E2F900212046CF
:1052C000FBF7DCFF204619F09BF92649204619F030
:1052D000D7F900212046FBF7D1FF204619F090F9BD
:1052E0002220FCF73DF9D5ED157A0020B8EE670ACB
:1052F000FCF7DAF81049204619F0C2F900212046DF
:10530000FBF7BCFF204619F07BF91749204619F03E
:10531000B7F900212046FBF7B1FF204619F070F9DC
:105320002220FCF71DF995ED110AFFF7E5B800BF43
:1053300000530200F813FF1FF44C02001453020044
:10534000285302008C530200A0530200EC530200C9
:105350001C540200845602003C53020030590200E3
:10536000505302006453020078530200BE492046A5
:1053700019F086F900212046FBF780FF204619F03E
:105380003FF92220FCF7ECF8B849204619F078F9EB
:1053900000212046FBF772FF204619F031F9B4498D
:1053A000204619F06DF900212046FBF767FF2046E3
:1053B00019F026F9AF49204619F062F9002120467C
:1053C000FBF75CFF204619F01BF92220FCF7C8F818
:1053D000D5ED0E7A0020B8EEE70AFCF765F8A4498F
:1053E000204619F04DF900212046FBF747FF2046E3
:1053F00019F006F9A049204619F042F9002120468B
:10540000FBF73CFF204619F0FBF82220FCF7A8F838
:10541000D5ED167A0020B8EE670AFCF745F89449F6
:10542000204619F02DF900212046FBF727FF2046E2
:1054300019F0E6F89149204619F022F9002120469A
:10544000FBF71CFF204619F0DBF82220FCF788F858
:1054500095ED120AFFF750B88949684619F010F91E
:1054600000216846FBF70AFF684619F0C9F82220B8
:10547000FCF776F88349684619F002F9002168467E
:10548000FBF7FCFE684619F0BBF87949684619F04D
:10549000F7F800216846FBF7F1FE684619F0B0F80E
:1054A0007949684619F0ECF800216846FBF7E6FEFA
:1054B000684619F0A5F82220FCF752F8D5ED0C7AD1
:1054C0000020B8EEE70AFBF7EFFF6949684619F0DC
:1054D000D7F800216846FBF7D1FE684619F090F82E
:1054E0006A49684619F0CCF800216846FBF7C6FE09
:1054F000684619F085F82220FCF732F895ED0F0A7E
:105500000020FBF7D1FF5A49684619F0B9F800218D
:105510006846FBF7B3FE684619F072F85C496846C6
:1055200019F0AEF800216846FBF7A8FE684619F0AE
:1055300067F82220FCF714F895ED0E0A0020FBF71F
:10554000B3FF4B49684619F09BF868460021FBF70A
:1055500095FE684619F054F8E7E44349684619F0A7
:105560008FF800216846FBF789FE684619F048F875
:105570002220FBF7F5FF4749684619F081F8002122
:105580006846FBF77BFE684619F03AF838496846EA
:1055900019F076F800216846FBF770FE684619F0AE
:1055A0002FF83D49684619F06BF800216846FBF773
:1055B00065FE684619F024F82220FBF7D1FFD4EDF0
:1055C000017A0020B8EEE70AFBF76EFF284968462B
:1055D00019F056F800216846FBF750FE684619F0AE
:1055E0000FF82E49684619F04BF800216846FBF782
:1055F00045FE684619F004F82220FBF7B1FFD4ED10
:10560000097A0020B8EEE70AFBF74EFF1849684612
:1056100019F036F800216846FBF730FE684618F0AE
:10562000EFFF1F49684619F02BF800216846FBF789
:1056300025FE684618F0E4FF2220FBF791FF94ED69
:10564000050AB8EEC00A0020FBF72EFF684608499D
:1056500019F016F868460021FBF710FE684618F0AE
:10566000CFFF04B070BD00BF3C530200C07A0200FF
:10567000F44C0200505302006453020078530200BD
:105680008C53020084560200A0530200EC53020027
:105690001C540200C45802000053020014530200BC
:1056A00028530200E549684618F0EAFF00216846E1
:1056B000FBF7E4FD684618F0A3FF2220FBF750FF3C
:1056C000DF49684618F0DCFF00216846FBF7D6FD8D
:1056D000684618F095FFDB49684618F0D1FF0021B5
:1056E0006846FBF7CBFD684618F08AFFD649684646
:1056F00018F0C6FF00216846FBF7C0FD684618F0A9
:105700007FFF2220FBF72CFFD4ED047A0020B8EEB7
:10571000E70AFBF7C9FECB49684618F0B1FF002144
:105720006846FBF7ABFD684618F06AFFC749684654
:1057300018F0A6FF00216846FBF7A0FD684618F0A8
:105740005FFF2220FBF70CFFD4ED007A0020B8EEBB
:10575000E70AFBF7A9FEBB49684618F091FF002154
:105760006846FBF78BFD684618F04AFFB849684663
:1057700018F086FF00216846FBF780FD684618F0A8
:105780003FFF2220FBF7ECFE94ED080A59E7AB49F6
:10579000684618F075FF00216846FBF76FFD684604
:1057A00018F02EFF2220FBF7DBFEAA49684618F00E
:1057B00067FF00216846FBF761FD684618F020FF8F
:1057C000A049684618F05CFF00216846FBF756FDCB
:1057D000684618F015FF9C49684618F051FF0021F3
:1057E0006846FBF74BFD684618F00AFF2220FBF7DE
:1057F000B7FED4ED037A0020B8EEE70AFBF754FEBB
:105800009049684618F03CFF00216846FBF736FDDA
:10581000684618F0F5FE8D49684618F031FF002102
:105820006846FBF72BFD684618F0EAFE2220FBF7DE
:1058300097FED4ED0B7A0020B8EEE70AFBF734FEB2
:105840008049684618F01CFF00216846FBF716FDEA
:10585000684618F0D5FE7E49684618F011FF002111
:105860006846FBF70BFD684618F0CAFE2220FBF7DE
:1058700077FE94ED070AE4E67049684618F000FFE9
:1058800000216846FBF7FAFC684618F0B9FE2220B2
:10589000FBF766FE7049684618F0F2FE0021684684
:1058A000FBF7ECFC684618F0ABFE6649684618F05A
:1058B000E7FE00216846FBF7E1FC684618F0A0FE11
:1058C0006149684618F0DCFE00216846FBF7D6FC0B
:1058D000684618F095FE2220FBF742FED4ED027ACE
:1058E0000020B8EEE70AFBF7DFFD5649684618F0DE
:1058F000C7FE00216846FBF7C1FC684618F080FE31
:105900005249684618F0BCFE00216846FBF7B6FC19
:10591000684618F075FE2220FBF722FED4ED0A7AC5
:105920000020B8EEE70AFBF7BFFD4649684618F0CD
:10593000A7FE00216846FBF7A1FC684618F060FE50
:105940004349684618F09CFE00216846FBF796FC28
:10595000684618F055FE2220FBF702FE94ED060A79
:105960006FE636493D4D684618F08AFE00216846CC
:10597000FBF784FC684618F043FE2220FBF7F0FD9D
:105980003749204618F07CFE00212046FBF776FCC4
:10599000204618F035FE2B49204618F071FE0021F4
:1059A0002046FBF76BFC204618F02AFE2D492046C6
:1059B00018F066FE00212046FBF760FC204618F038
:1059C0001FFE2220FBF7CCFDD5E904011BF02CF8CB
:1059D00000EE100A0020FBF767FD1A49204618F078
:1059E0004FFE00212046FBF749FC204618F008FE38
:1059F0006B68012B07D0C0F0E185302B00F0DE850D
:105A0000312B7EF489AD1849204618F039FE00216B
:105A10002046FBF733FC204618F0F2FD2220FBF76E
:105A20009FFD1249204618F02BFE20460021FBF76F
:105A300025FC204618F0E4FDFEF763BD3C53020050
:105A4000F8590200F44C0200505302006453020063
:105A500078530200C07A0200305902003016FF1F4E
:105A6000F45702008C530200A0530200BC53020002
:105A7000CA49CB4D684618F003FE00216846FBF783
:105A8000FDFB684618F0BCFD2220FBF769FDC54907
:105A900077E7C249C44D684618F0F2FD0021684618
:105AA000FBF7ECFB684618F0ABFD2220FBF758FD36
:105AB000BE4966E7B949BE4D684618F0E1FD0021D0
:105AC0006846FBF7DBFB684618F09AFD2220FBF7DF
:105AD00047FDB84955E7B149B74D684618F0D0FDC4
