:10000000F8FF022099010000F57B0000AD7B0000A5
:10001000AD7B0000AD7B0000AD7B0000AD7B000040
:10002000AD7B0000AD7B0000AD7B0000F57B0000E8
:10003000F57B0000AD7B000031990000359A00008F
:10004000F57B0000F57B0000F57B0000F57B0000F0
:10005000F57B0000F57B0000F57B0000F57B0000E0
:10006000F57B0000F57B0000F57B0000F57B0000D0
:10007000F57B0000F57B0000F57B0000F57B0000C0
:10008000F57B0000F57B0000F57B0000F57B0000B0
:10009000F57B0000F57B0000F57B0000F57B0000A0
:1000A000F57B0000F57B0000F57B0000F57B000090
:1000B000F57B0000F57B0000F57B000089860000E1
:1000C000F57B0000DDA20000F57B000009A4000024
:1000D000F57B000001A50000F57B0000F57B00002A
:1000E000F57B0000F57B0000B95A0000F57B0000AD
:1000F000F57B0000F57B0000F57B0000F57B000040
:100100000D9C0000219C0000359C0000499C0000D3
:10011000F57B000049890000F57B0000F57B0000BD
:10012000F57B0000F57B0000F57B0000F57B00000F
:10013000F57B0000F57B0000F57B0000F57B0000FF
:10014000F57B0000F57B0000F9A50000F57B0000C1
:10015000F1A60000F57B0000F57B0000F57B0000B8
:10016000F57B0000F57B0000F57B0000F57B0000CF
:10017000F57B0000F57B0000F57B0000F57B0000BF
:10018000F57B0000F57B0000F57B0000F57B0000AF
:10019000F57B0000F57B0000584B4CF2205210B567
:1001A0001A804DF628121A8000BF00BF07F026FD06
:1001B000534B4FF030621A60524A9A60524ADA60EA
:1001C000524B4FF470021A60514A136813F4807353
:1001D00004D150490B604FF4A85313604E4B1A786A
:1001E000110703D51A7842F008021A704B4B4C499C
:1001F0002A221A704B4A4C4B8B4204D252F8040FFD
:1002000043F8040BF8E7494B494900228B4202D2DC
:1002100043F8042BFAE74749474A002352F82300E2
:1002200041F823000133662BF8D1444B444A802126
:1002300003F8011B9342FBD1424B3E4A1A60424BEA
:100240008A221A70A3F5805324225A70A0221A70B1
:100250009A799207FCD59A79D406FCD43B4A9379D3
:1002600003F00C03082B394BF9D103221A714622F3
:100270005A719A799006FCD5344A9179334B4906E4
:10028000FBD5334A4FF08271116009215160202261
:100290001A709A7902F00C020C2AFAD12D4B2E4AD0
:1002A0001A602E4B2E4A1A6000225A60072243F829
:1002B000042C2C4AC3F80C2D62B607F0D9FD154B5F
:1002C0001B68DA0705D5284807F036FD274B284A72
:1002D0001A60284B1B785B0609D5244C244B2268F6
:1002E0009A4204D1204807F027FD002323600BF039
:1002F000F7F907F089FC09F0B1FCFEE70E20054094
:1003000030800440823F04000100002B88ED00E0B3
:1003100010D0034014D0034002D0074000E0074053
:100320005C10FF1FB0D30000F806FF1F6010FF1F16
:100330002C1CFF1F0002FF1F0000000000E400E073
:1003400056E400E008ED00E00050064000400640A2
:100350004480044004800440C010050014E000E024
:10036000BFD4010000002020E322465C1CE00340D3
:10037000A5C3945A00F00740FFFFFFFFFFFFFFFFF8
:10038000FFFFFFFFFFFFFFFFFFFFFFFFFFFFFFFF7D
:10039000FFFFFFFFFFFFFFFFFFFFFFFFFFFFFFFF6D
:1003A000FFFFFFFFFFFFFFFFFFFFFFFFFFFFFFFF5D
:1003B000FFFFFFFFFFFFFFFFFFFFFFFFFFFFFFFF4D
:1003C000FFFFFFFFFFFFFFFFFFFFFFFFFFFFFFFF3D
:1003D000FFFFFFFFFFFFFFFFFFFFFFFFFFFFFFFF2D
:1003E000FFFFFFFFFFFFFFFFFFFFFFFFFFFFFFFF1D
:1003F000FFFFFFFFFFFFFFFFFFFFFFFFFFFFFFFF0D
:10040000FFFFFFFFFFFFFFFFFFFFFFFFDEF9FFFF23
:1004100010B5054C237833B9044B13B10448AFF33E
:1004200000800123237010BD6010FF1F000000003A
:10043000B4D30000084B10B51BB108490848AFF30E
:1004400000800848036803B910BD074B002BFBD0A0
:10045000BDE81040184700BF000000006410FF1FF7
:10046000B4D300005C10FF1F0000000040684B6820
:10047000984294BF00200120704700BFF0B4476B42
:10048000836B7A6A012616603A6832443A6000F15A
:10049000380483B1DA68002A06DB596A0E601968ED
:1004A0009D6801311960521B59680A44DA6054F89A
:1004B000043F002BEED1C36A104A00211160DB001B
:1004C000516803F1804303F5603309310D2419614C
:1004D0001460DA68502122F08002DA60D9603A684C
:1004E0007B689A4208D34269C16D936823F0020386
:1004F000936009B1F0BC0847F0BC7047008003402E
:1005000038B5C36A8B422DED028B4FD0036B9942F5
:1005100002D0BDEC028B38BD43699B689B07F8D5C0
:10052000054672B63449036B00220A604A68DB0054
:1005300003F1804303F5603302F512521F320D249C
:100540001A610C60DA68502122F08002DA60D9600A
:1005500062B6426B816913688B4238D3C1698B42A2
:1005600031D3526890ED0A7A4469D31A23EAE373CF
:1005700007EE903AF8EEE77AB8EE478AB1EEE70A6E
:10058000B4EE400AF1EE10FA31D1D5ED097ADFED83
:100590001B6AF8EE677AE8EE007ABDEC028B86EE15
:1005A000A77ABCEEC77A84ED007A38BD436B00F1C0
:1005B0003402002BAAD001259C6A52F8043F256022
:1005C000002BF9D1A2E74369026A1A60A1E707EE9E
:1005D000903AF8EE677A90ED0A7A4469B1EEE70A4C
:1005E000B8EE478AB4EE400AF1EE10FACDD0B0EE84
:1005F000670A0AF0E9F9C8E700800340C0E1644CEB
:10060000A0F104007CE700BF10B5054B036003F1C7
:100610001002426004460C3009F0D6FA204610BDA4
:1006200024C7000008B507F0ADFF0028D4BF4FF085
:10063000FF30012008BD00BF2DE9F04385B00DF16A
:1006400004094C4600254FF0FF3803E02E2808BF70
:10065000A846013508F0A0FFC0B2FF2804F8010B3E
:10066000F4D100260027CDB10024A0454FF00002B0
:10067000174B304639460ED00AF0D8FC064619F81A
:1006800004000F4630380AF06BFC32463B460AF055
:100690001BFB06460F460134A542E6D1B8F1FF3FE9
:1006A00010D0013DC8EB0505002D0BDD00243046C0
:1006B00039460022064B0AF0E3FD0134A542064606
:1006C0000F46F4D147EC106B05B0BDE8F08300BFD6
:1006D000000024402DE9F04385B00DF104094C469B
:1006E00000254FF0FF3803E02E2808BFA84601354B
:1006F00007F058FFC0B2FF2804F8010BF4D107F04F
:1007000041FF002805DD07F04DFF07F03BFF002803
:10071000F9DC00260027CDB10024A0454FF00002EF
:10072000174B304639460ED00AF080FC064619F8C1
:1007300004000F4630380AF013FC32463B460AF0FC
:10074000C3FA06460F460134A542E6D1B8F1FF3F91
:1007500010D0013DC8EB0505002D0BDD002430460F
:1007600039460022064B0AF08BFD0134A5420646AD
:100770000F46F4D147EC106B05B0BDE8F08300BF25
:100780000000244010B507F00DFFC4B201E007F0EF
:1007900009FF07F0F7FE0028F9DC204610BD00BF76
:1007A000F8B5904C904ED4ED157A2DED028B07469E
:1007B000B8EEE70A8D489FED8E8A05F095FCD4F8D7
:1007C000A420E3699FED8A0A884803FB02F307EE41
:1007D000903AF8EEE77A27EE800A05F059FC0021FE
:1007E000824805F011FBD4ED4C7AD4ED446AD4F87C
:1007F000C020D4F8B0307D4886EEA77A03FB02F320
:1008000007EE903AF8EEE77A7B1C67EE877AFDEE0A
:10081000E77A17EE905A08BF6D42294605F082FB31
:10082000724805F061FA26E008F0B6FEC0B2714BDE
:100830003E28187004D063281AD16C4805F078FC63
:10084000FFF7A0FFE369024603FB02F300EE103A54
:10085000B8EEC00A6548C4F8A42020EE080A05F0E6
:1008600017FC654B5F4819684FF4A47207F026F92E
:100870005E4805F0B1FB5D4805F0C2FA70B108F0C2
:10088000C7FE002805DD3368002BCDD007F08AFEB7
:10089000CCE7FFF7C7FE0028EADBF4E70137574E45
:1008A00000F09780D6ED007A94ED447A77EEC77A1F
:1008B000C6ED007A1121524807F0E2FD222007F030
:1008C000D5FD29464F4809F05BFA222007F0CEFDFE
:1008D000FF2007F0CBFDFF2007F0C8FDFF2007F049
:1008E000C5FD1121464807F0CBFD222007F0BEFDD3
:1008F0002946444809F044FA222007F0B7FDFF20BA
:1009000007F0B4FDFF2007F0B1FDFF2007F0AEFDBA
:1009100017213D4807F0B4FDFF2007F0A7FDFF2099
:1009200007F0A4FDFF2007F0A1FD1321374807F0D1
:10093000A7FDFF2007F09AFDFF2007F097FDFF209D
:1009400007F094FD1321324807F09AFDFF2007F0CD
:100950008DFDFF2007F08AFDFF2007F087FD1321A2
:100960002C4807F08DFDFF2007F080FDFF2007F0E9
:100970007DFDFF2007F07AFD1321274807F080FD59
:10098000FF2007F073FDFF2007F070FDFF2007F048
:100990006DFD1121214807F073FD222007F066FD4F
:1009A00030680AF0EFFA41EC100B0221154809F00B
:1009B000EFF9222007F05AFDFF2007F057FDFF2036
:1009C00007F054FDFF2007F051FDBDEC028B002025
:1009D000F8BD96ED007AD4ED447A77EE877AC6EDCD
:1009E000007A67E71012FF1FFC06FF1FB014FF1FFD
:1009F0000AD7233C3C14FF1F0815FF1FF813FF1FE5
:100A000038C700004807FF1F4CC7000064C700003C
:100A100078C700008CC70000A0C70000B4C7000062
:100A200070B57B4C7B4DD4ED167A2DED028B0646CE
:100A3000B8EEE70A78489FED798A05F055FBD4F8BF
:100A4000A820236A9FED750A734803FB02F307EEA3
:100A5000903AF8EEE77A27EE800A05F019FB0021BC
:100A60006D4805F0D1F9D4ED4D7AD4ED456AD4F84E
:100A7000C420D4F8B430684886EEA77A03FB02F3AA
:100A800007EE903AF8EEE77A731C67EE877AFDEE90
:100A9000E77A17EE901A08BF494205F043FA5E481C
:100AA00005F022F923E008F077FD5D4BC0B2632822
:100AB00018702ED0B32817D1FFF764FE236A0246C0
:100AC00003FB02F300EE103AB8EEC00A5248C4F835
:100AD000A82020EE080A05F0DBFA524B4C481968B2
:100AE0004FF4A47206F0EAFF4B4805F075FA4A4845
:100AF00005F086F9B0B108F08BFD00280DDD2B68FC
:100B0000002BD0D007F04EFD454BC0B263281870C3
:100B1000D0D1414805F00CFBCEE7FFF783FD00285C
:100B2000E2DBECE70136404B69D0D3ED007A94ED7F
:100B3000457A77EEC77AC3ED007A17213B4807F074
:100B40009FFCFF2007F092FCFF2007F08FFCFF20A6
:100B500007F08CFC1321364807F092FCFF2007F0C9
:100B600085FCFF2007F082FCFF2007F07FFC1321AB
:100B7000304807F085FCFF2007F078FCFF2007F0E5
:100B800075FCFF2007F072FC13212B4807F078FC5E
:100B9000FF2007F06BFCFF2007F068FCFF2007F048
:100BA00065FC1321254807F06BFCFF2007F05EFC75
:100BB000FF2007F05BFCFF2007F058FC11212048C4
:100BC00007F05EFC222007F051FC1E4B18680AF06B
:100BD000D9F941EC100B02211B4809F0D9F8222069
:100BE00007F044FCFF2007F041FCFF2007F03EFC2B
:100BF000FF2007F03BFCBDEC028B002070BD93EDA5
:100C0000007AD4ED457A77EE877AC3ED007A94E7DF
:100C10001012FF1FFC06FF1F6014FF1F0AD7233CA2
:100C20003C14FF1F0815FF1F5014FF1FC8C700000A
:100C3000E0C70000F4C7000008C800001CC800009E
:100C400030C80000F813FF1F4807FF1F2DE9F843C5
:100C500007EE902A2DED028B0A9F9FED3B8A3B4DBC
:100C60003B4EB8EEE70A8146984608460C4605F02A
:100C70003BFA07FB08F300EE103AB8EEC00A204634
:100C800020EE080A05F004FA2046002105F0BCF821
:100C9000304B31492046B9F1FF3F08BF194605F0F6
:100CA00041F9204605F020F8204605F0A9F8002873
:100CB0003ED008F0ADFC002841DD2B68002B3BD175
:100CC00008F06AFCC0B2A0F1430330702B2B27D888
:100CD000DFE803F0162626262626262626262626A2
:100CE00026262626262626262626262626262626A4
:100CF00026261926162626192626262626262619CB
:100D0000204605F015FAFFF73DFD00FB07F007EE62
:100D1000900AB8EEE70A204620EE080A05F0B8F976
:100D2000204605F059F9204605F06AF80028C0D1A0
:100D3000BDEC028BBDE8F88307F034FCC2E7FFF797
:100D400071FC0028ECDBB8E70AD7233CFC06FF1F48
:100D50003C14FF1F003665C400CA9A3B2DE9F047DA
:100D6000AE4EDFF8D882D6F89840F369AC4F03FB5B
:100D700004F300EE103A2DED028BB8EEC00ADFED61
:100D8000A98A022A20EE280A8246A748B5BF002574
:100D9000012501240024894605F07AF90021A248A2
:100DA00005F032F8BAF1FF3F14BF414639469E487C
:100DB00005F0B8F89C4804F097FF326F33689B4801
:100DC00003FB02F300EE103AB8EEC00AB0EE688AF8
:100DD00020EE280A05F05CF90021944805F014F88B
:100DE0009248B9F1FF3F14BF4146394605F09AF8E1
:100DF0008E4804F079FF8D4805F002F800286ED087
:100E000008F006FC002840F35B81894B1B68002B2F
:100E100040F0538108F0C0FBC0B2864AA0F1430302
:100E200010702B2B44D8DFE813F00B014300430074
:100E3000430043004300430043004300430043009A
:100E4000430043004300430043004300430043008A
:100E50004300430043004300D600BE00430043006C
:100E6000430043004300A4004300960043004300B6
:100E7000430043004300430043006D001A01430058
:100E80002C00FFF77FFC3368024603FB02F300EE01
:100E9000103AB8EEC00A6548326720EE080A05F03D
:100EA000F7F8654B5D4819684FF4A47206F006FE2A
:100EB0005D4804F0A5FF00283FDD132006F054FF35
:100EC00000283FD02F46002D40F0E080002C40F05D
:100ED000E4805648002404F093FF002890D1524843
:100EE00004F08EFF074600288AD101464E4804F0E0
:100EF0008BFF4E48394604F087FFBDEC028B384625
:100F0000BDE8F087326F3368484803FB02F300EE18
:100F1000103AB8EEC00A012520EE080A05F0B8F82C
:100F20000021424804F070FF4449404804F0FAFFB1
:100F30003D4804F065FF0028BFDC122006F014FFD6
:100F40000028BFD1384805F0F3F8002D00F01681D5
:100F5000002401279BE0344805F0EAF800213248DC
:100F600004F052FF002DA3D12946304804F04CFF75
:100F70009EE7FFF707FC304BC6F898001968274832
:100F80004FF4A47206F09AFDD6F89820F36926482B
:100F900003FB02F300EE103AB8EEC00A20EE080A96
:100FA00005F076F884E7D6F89820F3691E4803FB2D
:100FB00002F300EE103AB8EEC00A012420EE080A4F
:100FC00005F066F80021184804F01EFF1449164881
:100FD00004F0A8FF6CE7FFF7D5FB174BC6F89800A5
:100FE00019680E484FF4A47206F068FDD6F89820F0
:100FF000F3690D4803FB02F300EE103AB8EEC00AA5
:10100000012420EE080A05F043F80021064804F008
:10101000FBFE0A49044804F085FF49E71012FF1F50
:10102000003665C40AD7233CB014FF1F2011FF1FF0
:10103000FC06FF1F3C14FF1F0815FF1F00CA9A3B48
:10104000514805F075F800214F4804F0DDFE002CF2
:101050007FF42EAF21464D4804F0D6FE28E7326FCC
:101060003368494803FB02F300EE103AB8EEC00AB9
:10107000012520EE080A05F00BF80021424804F093
:10108000C3FE4349404804F04DFF11E700273E48A6
:1010900004F0A2FF002C3FF41CAF3C4804F0B0FE6B
:1010A000002813DD132006F05FFEA0B1374804F0DE
:1010B00093FF002F3FF49FAE14E007F073FAABE606
:1010C000FFF7B0FA0028FFF6F3AE9EE6122006F016
:1010D0004BFE0028EAD12D4805F02AF82B4804F0F1
:1010E0007BFF002410212B4807F0CAF9222007F0CB
:1010F000BDF90221284807F0C3F9222007F0B6F90C
:10110000FF2007F0B3F9FF2007F0B0F9FF2007F048
:10111000ADF91221214807F0B3F9FF2007F0A6F935
:10112000FF2007F0A3F9FF2007F0A0F912211C48C7
:1011300007F0A6F9FF2007F099F9FF2007F096F9CC
:10114000FF2007F093F91221164807F099F9FF20C4
:1011500007F08CF9FF2007F089F9FF2007F086F9E6
:101160001221114807F08CF9FF2007F07FF9FF20CA
:1011700007F07CF9FF2007F079F93CE600210248EE
:1011800004F042FEA5E600BF2011FF1FB014FF1FB0
:10119000003665C444C8000058C800005CC80000A0
:1011A00070C8000084C8000098C800002DE9F0470E
:1011B000B94EDFF80483D6F89C40336AB74F03FB7F
:1011C00004F300EE103A2DED028BB8EEC00ADFED0D
:1011D000B48A022A20EE280A8246B248B5BF00250A
:1011E000012501240024894604F052FF0021AD4866
:1011F00004F00AFEBAF1FF3F14BF41463946A94840
:1012000004F090FEA74804F06FFD726F7368A64863
:1012100003FB02F300EE103AB8EEC00AB0EE688AA3
:1012200020EE280A04F034FF00219F4804F0ECFD72
:101230009D48B9F1FF3F14BF4146394604F072FEA4
:10124000994804F051FD984804F0DAFD002850D088
:1012500008F0DEF9002840F3BC80944B1B68002B9B
:1012600070D108F099F9924BC0B2A228187070D0D2
:1012700040F29980A42800F02D81C0F08181A5283A
:1012800000F06681A62821D1FFF77CFA894BC6F8C9
:101290009C00196880484FF4A47206F00FFCD6F841
:1012A0009C20336A7F4803FB02F300EE103AB8EE4D
:1012B000C00A012420EE080A04F0EAFE0021794861
:1012C00004F0A2FD7C49774804F02CFE754804F038
:1012D00097FD00285BDD132006F046FD00285BD05B
:1012E0002F46CDB9F4B97048002404F089FD0028D8
:1012F000AED16C4804F084FD07460028A8D1014611
:10130000684804F081FD6848394604F07DFDBDEC75
:10131000028B3846BDE8F0870027634804F05CFE86
:10132000002CE0D05F4804F06BFD00285CDD13204A
:1013300006F01AFD00285CD05A4804F04DFE002F3C
:1013400081D05DE007F02EF9594BC0B2A228187089
:101350008ED1FFF717FA574BC6F89C0019684E4814
:101360004FF4A47206F0AAFBD6F89C20336A4D48CD
:1013700003FB02F300EE103AB8EEC00A20EE080AB2
:1013800004F086FE474804F03BFD0028A3DC122051
:1013900006F0EAFC0028A3D1424804F0C9FEF5B1EA
:1013A00000240127B9E7632800F0C380A12800F0DA
:1013B000A88043288AD13C4804F0BAFE00213A486C
:1013C00004F022FD002C81D12146364804F01CFD9A
:1013D0007CE7FFF727F90028FFF678AF3DE700210B
:1013E000314804F011FD7EE7122006F0BDFC002814
:1013F000A2D12C4804F09CFE2A4804F0EDFD002404
:101400000F212E4807F03CF8222007F02FF8022188
:101410002B4807F035F8222007F028F8FF2007F0C6
:1014200025F8FF2007F022F8FF2007F01FF8112110
:10143000244807F025F8FF2007F018F8FF2007F0F0
:1014400015F8FF2007F012F811211F4807F018F8CF
:10145000FF2007F00BF8FF2007F008F8FF2007F047
:1014600005F81121194807F00BF8FF2006F0FEFFE0
:10147000FF2006F0FBFFFF2006F0F8FF11211448C3
:1014800006F0FEFFFF2006F0F1FFFF2006F0EEFF62
:10149000FF2006F0EBFFD6E61012FF1F003665C4F2
:1014A0000AD7233C6014FF1F2011FF1FFC06FF1FFB
:1014B0003C14FF1F0815FF1F00CA9A3BACC8000070
:1014C00058C80000BCC80000D0C80000E4C8000034
:1014D000F8C80000726F7368354803FB02F300EE32
:1014E000103AB8EEC00A012520EE080A04F0D0FD3B
:1014F00000212F4804F088FC2E492D4804F012FDED
:10150000E4E6FFF73FF97368024603FB02F300EEDF
:10151000103AB8EEC00A2648726720EE080A04F0B6
:10152000B7FD254B254819684FF4A47206F0C6FA9A
:10153000CCE6234804F0FCFD0021214804F064FCC3
:10154000002D7FF4C3AE2946194804F05DFCBDE6CA
:10155000D6F89C20336A1A4803FB02F300EE103AD7
:10156000B8EEC00A012420EE080A04F091FD002123
:10157000134804F049FC1349114804F0D3FCA5E6D4
:10158000726F73680A4803FB02F300EE103AB8EE7C
:10159000C00A012520EE080A04F07AFD0021044863
:1015A00004F032FC0749024804F0BCFC8EE600BFA0
:1015B0002011FF1F00CA9A3B0815FF1F1012FF1FC2
:1015C0006014FF1F003665C42DE9F047BF4EDFF8F9
:1015D0001883D6F8A040736ABD4F03FB04F300EEF6
:1015E000103A2DED028BB8EEC00ADFEDBA8A022A5E
:1015F00020EE280A8246B848B5BF002501250124FF
:101600000024894604F044FD0021B34804F0FCFBAB
:10161000BAF1FF3F14BF41463946AF4804F082FC9F
:10162000AD4804F061FBB26FB368AC4803FB02F352
:1016300000EE103AB8EEC00AB0EE688A20EE280A32
:1016400004F026FD0021A54804F0DEFBA348B9F113
:10165000FF3F14BF4146394604F064FC9F4804F044
:1016600043FB9E4804F0CCFB002845D007F0D0FF98
:10167000002840F3B1809A4B1B68002B65D107F01E
:101680008BFF984BC0B2A828187065D040F28E80AE
:10169000AA2800F00481C0F07681AB2800F05B81BD
:1016A000AC2816D1D6F8A020736A8B4803FB02F34E
:1016B00000EE103AB8EEC00A012420EE080A04F049
:1016C000E7FC0021844804F09FFB8749824804F02E
:1016D00029FC814804F094FB00285BDD132006F010
:1016E00043FB00285BD02F46CDB9F4B97B480024DA
:1016F00004F086FB0028B9D1774804F081FB074647
:101700000028B3D10146744804F07EFB7348394683
:1017100004F07AFBBDEC028B3846BDE8F087002769
:101720006E4804F059FC002CE0D06B4804F068FBD4
:1017300000285CDD132006F017FB00285CD066480B
:1017400004F04AFC002F8CD05DE006F02BFF654BC7
:10175000C0B2A828187099D1FFF714F8634BC6F8E7
:10176000A000196859484FF4A47206F0A7F9D6F8FA
:10177000A020736A584803FB02F300EE103AB8EE5B
:10178000C00A20EE080A04F083FC534804F038FB3A
:101790000028A3DC122006F0E7FA0028A3D14E4867
:1017A00004F0C6FCF5B100240127B9E7632800F076
:1017B000C380A72800F0A88043288AD1474804F0B6
:1017C000B7FC0021454804F01FFB002C81D12146C5
:1017D000414804F019FB7CE7FEF724FF0028FFF6E0
:1017E00078AF48E700213D4804F00EFB7EE7122069
:1017F00006F0BAFA0028A2D1374804F099FC36481E
:1018000004F0EAFB00240F21394806F039FE2220BB
:1018100006F02CFE0221374806F032FE222006F0A8
:1018200025FEFF2006F022FEFF2006F01FFEFF200F
:1018300006F01CFE1121304806F022FEFF2006F0C3
:1018400015FEFF2006F012FEFF2006F00FFE11210C
:101850002A4806F015FEFF2006F008FEFF2006F0DD
:1018600005FEFF2006F002FE1121254806F008FEC5
:10187000FF2006F0FBFDFF2006F0F8FDFF2006F03C
:10188000F5FD11211F4806F0FBFDFF2006F0EEFDDF
:10189000FF2006F0EBFDFF2006F0E8FDE1E6B26F69
:1018A000B3680E4803FB02F300EE103AB8EEC00A2C
:1018B000012520EE080A04F0EBFB0021074804F0A4
:1018C000A3FA0949054804F02DFB02E71012FF1F97
:1018D000003665C40AD7233C9813FF1F2011FF1F51
:1018E000FC06FF1F3C14FF1F00CA9A3B0815FF1F90
:1018F0000CC9000058C800001CC9000030C9000015
:1019000044C9000058C90000FEF73CFFB368024616
:1019100003FB02F300EE103AB8EEC00A2548B267A6
:1019200020EE080A04F0B4FB234B244819684FF456
:10193000A47206F0C3F8CCE6214804F0F9FB0021BC
:101940001F4804F061FA002D7FF4C3AE2946194800
:1019500004F05AFABDE6D6F8A020736A184803FBD3
:1019600002F300EE103AB8EEC00A012420EE080A95
:1019700004F08EFB0021124804F046FA1149104889
:1019800004F0D0FAA5E6B26FB3680A4803FB02F38D
:1019900000EE103AB8EEC00A012520EE080A04F065
:1019A00077FB0021034804F02FFA0649014804F0B0
:1019B000B9FA8EE62011FF1F0815FF1F1012FF1F36
:1019C0009813FF1F003665C430B50E498BB005462D
:1019D00008F010FB0DF1130406F0E4FD04F8010F0C
:1019E00005A9284608F04EFB2378FF2BF4D105A962
:1019F00001A808F0FFFA01A808F0BCFA28460BB0CD
:101A000030BD00BF70CC0000F0B5E14BD3B01D6815
:101A10006F46ED1B6C4652AE281906F035F804F8F7
:101A2000010BA642F8D14FF4FA6006F0D3F9132166
:101A3000D84806F025FD222006F018FD0621D648DC
:101A400006F01EFD222006F011FDFF2006F00EFD1F
:101A5000FF2006F00BFDFF2006F008FD4FF4FA60B2
:101A600006F0B8F91321CB4806F00AFD222006F053
:101A7000FDFC0E21C94806F003FD3968C84808F08E
:101A80007FF9222006F0F2FCFF2006F0EFFCFF2099
:101A900006F0ECFCFF2006F0E9FC4FF4FA6006F0DB
:101AA00099F91321BB4806F0EBFC222006F0DEFC7E
:101AB0000B21BC4806F0E4FCB96BB94808F060F9AA
:101AC000222006F0D3FCFF2006F0D0FCFF2006F019
:101AD000CDFCFF2006F0CAFC4FF4FA6006F07AF95C
:101AE0001321AC4806F0CCFC222006F0BFFC0E21EE
:101AF000AD4806F0C5FCF968A94808F041F9222074
:101B000006F0B4FCFF2006F0B1FCFF2006F0AEFCAE
:101B1000FF2006F0ABFC4FF4FA6006F05BF91321EE
:101B20009C4806F0ADFC222006F0A0FC0B219F484B
:101B300006F0A6FCF96C9A4808F022F9222006F07B
:101B400095FCFF2006F092FCFF2006F08FFCFF20A2
:101B500006F08CFC4FF4FA6006F03CF913218D4836
:101B600006F08EFC222006F081FC0D21904806F044
:101B700087FC79698A4808F003F9222006F076FC90
:101B8000FF2006F073FCFF2006F070FCFF2006F03B
:101B90006DFC4FF4FA6006F01DF913217D4806F044
:101BA0006FFC222006F062FC0A21824806F068FCE5
:101BB000796C7B4808F0E4F8222006F057FCFF20FF
:101BC00006F054FCFF2006F051FCFF2006F04EFC0E
:101BD0004FF4FA6006F0FEF813216E4806F050FC50
:101BE000222006F043FC0F21734806F049FCB96936
:101BF0006B4808F0C5F8222006F038FCFF2006F0FC
:101C000035FCFF2006F032FCFF2006F02FFC4FF4DD
:101C1000FA6006F0DFF813215E4806F031FC22205E
:101C200006F024FC0C21654806F02AFCB96C5C48DF
:101C300008F0A6F8222006F019FCFF2006F016FC9A
:101C4000FF2006F013FCFF2006F010FC4FF4FA60B2
:101C500006F0C0F813214F4806F012FC222006F0CF
:101C600005FC1021564806F00BFCF9694C4808F0B9
:101C700087F8222006F0FAFBFF2006F0F7FBFF2092
:101C800006F0F4FBFF2006F0F1FB4FF4FA6006F0DB
:101C9000A1F813213F4806F0F3FB222006F0E6FBF3
:101CA0000D21484806F0ECFB796D3D4808F068F8D6
:101CB000222006F0DBFBFF2006F0D8FBFF2006F019
:101CC000D5FBFF2006F0D2FB4FF4FA6006F082F855
:101CD0001321304806F0D4FB222006F0C7FB102168
:101CE000394806F0CDFB396A2D4808F049F8222022
:101CF00006F0BCFBFF2006F0B9FBFF2006F0B6FBA8
:101D0000FF2006F0B3FB4FF4FA6006F063F81321EE
:101D1000204806F0B5FB222006F0A8FB0D212B4839
:101D200006F0AEFBB96D1E4808F02AF8222006F036
:101D30009DFBFF2006F09AFBFF2006F097FBFF209B
:101D400006F094FB4FF4FA6006F044F813211148B2
:101D500006F096FB222006F089FB10211C4806F0B5
:101D60008FFB796A0E4808F00BF8222006F07EFB04
:101D7000FF2006F07BFBFF2006F078FBFF2006F03B
:101D800075FB4FF4FA6006F025F8132122E000BF3E
:101D90000815FF1F5CCA000070CA000078CA000066
:101DA0004807FF1F88CA000094CA0000A4CA0000A8
:101DB000B0CA0000C0CA0000CCCA0000DCCA0000E3
:101DC000ECCA000000CB000010CB000024CB0000C8
:101DD00034CB0000104806F053FB222006F046FBEF
:101DE0000D210E4806F04CFBF96D0D4807F0C8FFB9
:101DF000222006F03BFBFF2006F038FBFF2006F018
:101E000035FBFF2006F032FB4FF4FA6053B0BDE81B
:101E1000F04005F0DFBF00BF5CCA000048CB000007
:101E20004807FF1FF0B5E24BD3B01D686F46ED1BAE
:101E30006C4652AE281905F027FE04F8010BA642A5
:101E4000F8D14FF4FA6005F0C5FF1321D94806F028
:101E500017FB222006F00AFB0621D74806F010FBEC
:101E6000222006F003FBFF2006F000FBFF2006F017
:101E7000FDFAFF2006F0FAFA4FF4FA6005F0AAFF27
:101E80001221CE4806F0FCFA222006F0EFFA1321C8
:101E9000CB4806F0F5FAD7F8AC10CA4807F070FF47
:101EA000222006F0E3FAFF2006F0E0FAFF2006F019
:101EB000DDFAFF2006F0DAFA4FF4FA6005F08AFF47
:101EC0001221BE4806F0DCFA222006F0CFFA1121DA
:101ED000BD4806F0D5FAD7F8BC10BA4807F050FF55
:101EE000222006F0C3FAFF2006F0C0FAFF2006F019
:101EF000BDFAFF2006F0BAFA4FF4FA6005F06AFF67
:101F00001221AE4806F0BCFA222006F0AFFA1321E7
:101F1000AE4806F0B5FAD7F8280109F033F841ECDD
:101F2000100B0221A74807F033FF222006F09EFA8B
:101F3000FF2006F09BFAFF2006F098FAFF2006F03B
:101F400095FA4FF4FA6005F045FF12219B4806F020
:101F500097FA222006F08AFA12219D4806F090FA9C
:101F6000D7F8B010974807F00BFF222006F07EFA52
:101F7000FF2006F07BFAFF2006F078FAFF2006F03B
:101F800075FA4FF4FA6005F025FF12218B4806F030
:101F900077FA222006F06AFA11218E4806F070FACC
:101FA000D7F8C010874807F0EBFE222006F05EFA53
:101FB000FF2006F05BFAFF2006F058FAFF2006F03B
:101FC00055FA4FF4FA6005F005FF12217B4806F040
:101FD00057FA222006F04AFA10217F4806F050FAFC
:101FE000D7F8300108F0CEFF41EC100B0221754804
:101FF00007F0CEFE222006F039FAFF2006F036FA6E
:10200000FF2006F033FAFF2006F030FA4FF4FA60B2
:1020100005F0E0FE1221694806F032FA222006F0AF
:1020200025FA12216D4806F02BFAD7F8B41065484E
:1020300007F0A6FE222006F019FAFF2006F016FA95
:10204000FF2006F013FAFF2006F010FA4FF4FA60B2
:1020500005F0C0FE1221594806F012FA222006F0BF
:1020600005FA11215E4806F00BFAD7F8C41055485E
:1020700007F086FE222006F0F9F9FF2006F0F6F9B7
:10208000FF2006F0F3F9FF2006F0F0F94FF4FA60B4
:1020900005F0A0FE1221494806F0F2F9222006F0D0
:1020A000E5F910214F4806F0EBF9D7F8340108F0B4
:1020B00069FF41EC100B0221424807F069FE222023
:1020C00006F0D4F9FF2006F0D1F9FF2006F0CEF992
:1020D000FF2006F0CBF94FF4FA6005F07BFE1221E9
:1020E000364806F0CDF9222006F0C0F912213E480C
:1020F00006F0C6F9D7F8B810324807F041FE2220A2
:1021000006F0B4F9FF2006F0B1F9FF2006F0AEF9B1
:10211000FF2006F0ABF94FF4FA6005F05BFE1221E8
:10212000264806F0ADF9222006F0A0F910212F482C
:1021300006F0A6F9D7F8C810224807F021FE2220A1
:1021400006F094F9FF2006F091F9FF2006F08EF9D1
:10215000FF2006F08BF94FF4FA6005F03BFE1221E8
:10216000164806F08DF9222006F080F91221204849
:1021700006F086F9D7F82C0108F004FF41EC100BAB
:102180000221104807F004FE222006F06FF9FF201C
:1021900006F06CF9FF2006F069F9FF2006F066F9F9
:1021A0004FF4FA6053B0BDE8F04005F013BE00BF35
:1021B0000815FF1F5CCA000058CB000060CB000070
:1021C00074CB00004807FF1F88CB00009CCB0000A9
:1021D000B0CB0000C4CB0000D8CB0000ECCB00009B
:1021E00000CC000014CC000028CC00003CCC000047
:1021F00050CC0000082838B515461C4647D014DDE1
:1022000020283DD029DD402824D0802846D1C8B2DE
:10221000012105F0A3FDE8B2012105F09FFDE0B228
:102220000121BDE8384005F099BD02281ED00428E0
:1022300002D0012821D038BDC8B2002105F08EFDA2
:10224000E8B2012105F08AFDE0B20021BDE8384086
:1022500005F084BDC8B20021DBE710281FD1C8B249
:10226000002105F07BFDE8B20021D6E7C8B20121CC
:1022700005F074FDE8B20021E4E7C8B20021F7E7F9
:10228000C8B2012105F06AFDE8B20021C5E7C8B275
:10229000012105F063FDE8B20121D3E738BD38BD67
:1022A0002DE9F04146F2A81005F0C8FE0C21C44803
:1022B000C44D06F0E5F8FF2006F0D8F8FF2006F040
:1022C000D5F8FF2006F0D2F80C21BD4806F0D8F86A
:1022D000FF2006F0CBF8FF2006F0C8F8FF2006F03C
:1022E000C5F80721B84806F0CBF8FF2006F0BEF885
:1022F000FF2006F0BBF8FF2006F0B8F8B34B1E68CD
:102300002F46761B3C4605F5A475301905F0BCFB3D
:1023100004F8010BAC42F8D101210D2005F032FD8B
:10232000032401210D2005F019FD642005F052FD64
:1023300000210D2005F012FD4FF4FA6005F04AFD72
:10234000013CEED11A2319221821D7F8AC00A04D78
:10235000FFF750FF20231F221E21D7F8B400FFF7FC
:1023600049FF1D231C221B21D7F8B000FFF742FFB5
:102370001D231C221B21D7F8B800FFF73BFF0121CA
:10238000042005F0FFFC0121042005F0E7FC0421F6
:10239000904803F0B1FE01231A4621468D4803F010
:1023A000C1FE8C4803F0A0FCD7ED007A8948B8EE56
:1023B000E70A03F06DFED7ED0E7A8648B8EEE70A1D
:1023C00003F092FE01210E2005F0DCFC01210E201D
:1023D00005F0C4FC0E21804803F08EFE01231A464E
:1023E00021467D4803F09EFE7B4803F0B5FCD7ED07
:1023F000077A7948B8EEE70A03F04AFED7ED157A76
:102400007548B8EEE70A03F06FFE0121162005F0CB
:10241000B9FC0121162005F0A1FC16216F4803F03C
:102420006BFE01231A4621466C4803F07BFE6B4885
:1024300003F092FCD7ED077A6848B8EEE70A03F09C
:1024400027FED7ED157A6548B8EEE70A03F04CFE93
:102450000121112005F096FC0121112005F07EFCE0
:1024600011215F4803F048FE01231A4621465C48CB
:1024700003F058FE5A4803F06FFCD7ED077A58482E
:10248000B8EEE70A03F004FED7ED157A5448B8EE2B
:10249000E70A03F029FE3B6A5249534A002B6FDBDF
:1024A0008B42C8BF134601226B61EA61B96DDFF848
:1024B00034814D4E4648414594BF0C463446002178
:1024C000AC6103F00BFA7B6A002BC0F29580474D9C
:1024D0004345C8BF334601226B61EA61F96DDFF8FD
:1024E0000481414E4148414594BF0C463446002189
:1024F000AC6103F0F3F9BB68002B55DB3C4D434561
:10250000C8BF334601226B61EA61396CDFF8D480C1
:10251000354E3748414594BF0C4634460021AC61E6
:1025200003F0DCF9FB69002B33DB324C4345C8BFB9
:10253000334601226361E2612B4A7B6D29492D48B4
:102540008B4288BF13460021A36103F0C7F9022123
:10255000122005F017FC4FF4C8740221132005F077
:1025600011FC2346013BFDD10121122005F0F6FBB1
:102570000121132005F0F2FB013CFDD1BDE8F08103
:102580005B428B42C8BF13464FF0FF326B61EA617A
:102590008CE75A42174C4245D4BF134633464FF09E
:1025A000FF326361E261C7E75A42114D4245D4BF31
:1025B000134633464FF0FF326B61EA61A5E700BF77
:1025C00064CC00001012FF1F74CC00000815FF1F20
:1025D000FC13FF1F2011FF1FB014FF1F6014FF1F0B
:1025E0009813FF1F1FA1070020A107005813FF1F0A
:1025F000D011FF1F7C10FF1F5A42054D4245D4BF2A
:10260000134633464FF0FF326B61EA6166E700BF65
:102610005813FF1F124B70B5044603F110018022BE
:102620000025061D03600274416030462572E56096
:1026300065614FF0FF3103F029FA4FF0FF31E0629E
:10264000304603F023FA21462063E56504F10C00CF
:1026500003F0C0F9207203F0F5F9204670BD00BF09
:1026600024C70000426BC16913688B4210B5044651
:102670000CD881698B4234BF5900C91800205160C1
:10268000E361A06102E00A2005F0A4FB63699B6896
:102690009B07F8D410BD00BF884231D02DE9F04728
:1026A00000F10408414516468A46814617D0D9F8FC
:1026B0000010D8F80000B04798B9D8F80050444648
:1026C00001E0236863602746284654F8041DB0479C
:1026D0000028F6D13D6008F10408C245E7D1BDE805
:1026E000F087C9EB08029308D8F8004005D0C2F182
:1026F00004004044494609F0E3FAC9F80040EAE71B
:10270000704700BF2DE9F04F561E06EBD67683B01A
:102710007610B14201928846054699460C9F5CDAD4
:102720008A4600E0DA460AF101034FEA430B0BF157
:102730008041013955F8330055F8211005EBC304E9
:10274000B84718B10BF1FF3B05EB8B04236845F844
:102750002A30B345E6DB019BDA0707D4019BA3F1DE
:10276000020A0AEBDA7ABBEB6A0F06D0C34514DC27
:10277000C4F8009003B0BDE8F08F0BF1010B4FEAF5
:102780004B0B0BF18043013B0BF1FF3B55F8233022
:102790002360C34505EB8B04EADD0BF1FF3606EB46
:1027A000D6767610494655F82600B847731E03EBD7
:1027B000D37305EB86045B1030B905EB8B04C4F8CA
:1027C000009003B0BDE8F08F55F8262045F82B2087
:1027D000B045CDDAB3461E46E4E7019BDB0700EBCC
:1027E0008104C5D48B46B9E72DE9F04F0C1A432C70
:1027F00085B040F389800546894692461E46002AE8
:1028000061D0031D0393E410686855F82410B047A5
:102810000AF1FF3A59F8041C002834D055F8240076
:10282000B047002837D02B6855F824202A6045F897
:10283000243068682968039FCB46B846B04780B902
:10284000ABF1040421682868A346043CB047002883
:10285000F8D15F4509D23A68DBF800103960CBF84F
:10286000002057F8040F2968E7E7494633465246E7
:1028700038467C1BFFF7B8FF432C45DDBAF1000F4B
:1028800022D0B946BFE76868B04798B195E8030021
:1028900029606860CFE759F8041C6868B0470028D1
:1028A000F4D02B6859F8042C2A6049F8043C686875
:1028B0002968C0E759F8041C55F82400B0472B6874
:1028C0000028B1D0EEE78846A410A71E7F1005EBC4
:1028D000870900E0013F59F804390096224639463D
:1028E0002846FFF70FFF002FF4D158F8043D2A685F
:1028F0000096C5EB0804C8F800200021A210284665
:10290000FFF700FF072CF0DC05B0BDE8F08F00BF3B
:102910002DE9F04FF7EE007A2DED028BB4EEE70AC9
:10292000F1EE10FA83B006460D46904600F136816E
:10293000B0EE678A06F134034FEA850903EB090418
:10294000A342184601931F4600F034814FEAA902C2
:10295000B2FA82F2C2F11F025200A54B2146FFF7E4
:1029600043FFB9F1430F2EDD06F1740A5146A04A28
:102970003846FFF791FE54451FD006F1700BD6463E
:102980005A465AF8049B5BF8043BD9F8040059688E
:10299000884240F2FC80504600E0624640F8043D28
:1029A00052F8043CD9F8047059688F42A2F1040C23
:1029B000F3D85445C2F80090E1D1706B0023012D8B
:1029C00003600BDC24E00198894A2146FFF764FE8E
:1029D000706B0023012D036040F3FA80DDF804E002
:1029E00001214FF0000A5EF8043FC3F800A0D0F8C0
:1029F0000490D3F804C04268C3F808900131C2EBD8
:102A00004C028D42DA60EEDC019BA34200F0D880DC
:102A1000D6F834E0F14606F13802D9F81010154620
:102A2000134608E0D3F800C0DCF810C0614503F19C
:102A3000040328BF61469C42F4D17162019BB8F146
:102A4000000F00F09580A34200F0CD80D9F814303B
:102A500006E02A685269934205F1040528BF13462F
:102A6000AC42F6D107EE903A0D46F8EE677A019B3C
:102A7000DEF8181067EE887AA342FCEEE77A17EECC
:102A8000902A0BD006F1380306E01F68BF69B942EF
:102A900003F1040328BF39469C42F6D1002A62D0D4
:102AA0004368002B5FD0AA423BD9551B07EE905AD2
:102AB000F8EE677A9FED4F6A27EEA77A07EE901A35
:102AC000F8EE677A77EEA77AC7EE276AF4EEC66A61
:102AD000F1EE10FA47DC490007EE901AF8EE677A3B
:102AE000FCEEE66AB1EEE70A590816EE900A884253
:102AF00028BF0846B4EE400A1B1AF1EE10FAF36143
:102B0000B0613D4BB3FBF2F2326265D1BCEEC00A5C
:102B10007169726A86ED0A0A374BB3FBF2F30B60F8
:102B200008E07169F3610020334BB061B3FBF2F24E
:102B300032620A60336B314A002003240125CD60E4
:102B4000A34088608C601060516803F1804303F5F6
:102B5000603304310D2019611060DA68502122F0D1
:102B60008002DA60D96003B0BDEC028BBDE8F08F63
:102B7000A34236D0DEF8143006E015686D69AB422A
:102B800002F1040238BF2B469442F6D16AE772463E
:102B90005445C2F800907FF4F2AE0EE7B5EEC00ADD
:102BA000DFED177AB0EE408AF1EE10FAD8BFB0EE42
:102BB000678ABFE6706B0023012D03603FF70EAFFD
:102BC000D6F834E0DEF810507562DEED057A4CE799
:102BD000D6F834E081461EE7B0EE670A07F0F4FE4F
:102BE00094E70D46F1E70D46DEED057A3DE700BFBF
:102BF0006D0400000000804F0087930300800340B5
:102C000000000000734A02282DE9F0410746D2E98E
:102C1000404500F08E809369DFF8ECE16E486F4E1E
:102C2000002BC0F289807345C8BF03460120736141
:102C3000F061DFF8D4E1936C674ADFF8D081734527
:102C400088BF1346B361084608F08AF922462B462E
:102C500008F0ECF908F09AFC0146604802F054FED6
:102C60000021042005F07AF8012200234046114695
:102C7000B7EE000AC8F83830C8F83460FFF748FEED
:102C8000D8F814309B689B0751D4022F5DD01721D0
:102C9000534805F0F5FBFF2005F0E8FBFF2005F0A9
:102CA000E5FBFF2005F0E2FB14214E4805F0E8FBB0
:102CB000FF2005F0DBFBFF2005F0D8FBFF2005F02F
:102CC000D5FB1721464805F0DBFBFF2005F0CEFBC6
:102CD000FF2005F0CBFBFF2005F0C8FB1721424881
:102CE00005F0CEFBFF2005F0C1FBFF2005F0BEFB89
:102CF000FF2005F0BBFB11213C4805F0C1FBFF2084
:102D000005F0B4FBFF2005F0B1FBFF2005F0AEFBA2
:102D10003748112105F0B4FBFF2005F0A7FBFF2089
:102D200005F0A4FBFF20BDE8F04105F09FBBBDE826
:102D3000F081D2E942456EE75B427345C8BF034666
:102D40004FF0FF307361F06173E71821294805F0F7
:102D500097FBFF2005F08AFBFF2005F087FBFF2093
:102D600005F084FB1521244805F08AFBFF2005F0BF
:102D70007DFBFF2005F07AFBFF2005F077FB182193
:102D80001C4805F07DFBFF2005F070FBFF2005F0DF
:102D90006DFBFF2005F06AFB1821184805F070FB59
:102DA000FF2005F063FBFF2005F060FBFF2005F02E
:102DB0005DFB1221124805F063FBFF2005F056FB76
:102DC000FF2005F053FBFF2005F050FB12210D48BA
:102DD000A0E700BF1012FF1F20A10700D011FF1FA6
:102DE000F4CC00000CCD000024CD00003CCD000050
:102DF00050CD00007CCC000098CC0000B0CC00008E
:102E0000CCCC0000E0CC00001FA10700BC10FF1FCD
:102E1000494B4A4A70B593E811009368484E494DB2
:102E2000002B04F10041484C7DDBB342C8BF234670
:102E300001246B61EC61136C414E434A434CB34235
:102E400088BF1346AB6108F0A1FB01463D4802F084
:102E50005BFD0122002311462046B7EE000AA36362
:102E60006563FFF755FD63699B689A0725D5384D63
:102E7000384E0CE006F090FBC0B25D28307013D0E5
:102E80000A2004F0A7FF63699B689B0715D506F02D
:102E9000BFFB00280CDD2B68002BEBD005F082FB7C
:102EA000C0B25D283070EBD12848FFF7DBFBE7E7C5
:102EB000FDF7B8FB0028E3DBEDE71721264805F016
:102EC000DFFAFF2005F0D2FAFF2005F0CFFAFF204D
:102ED00005F0CCFA1721214805F0D2FAFF2005F0C1
:102EE000C5FAFF2005F0C2FAFF2005F0BFFA17214E
:102EF0001B4805F0C5FAFF2005F0B8FAFF2005F0E1
:102F0000B5FAFF2005F0B2FA1721164805F0B8FA15
:102F1000FF2005F0ABFAFF2005F0A8FAFF20BDE87E
:102F2000704005F0A3BA5B42B342C8BF23464FF0DE
:102F3000FF346B61EC617EE75814FF1F1012FF1F16
:102F40001FA10700D011FF1F20A10700BC10FF1F09
:102F5000FC06FF1F3C14FF1F64CD00007CCD000069
:102F600094CD0000ACCD0000494B4A4A70B593E8BF
:102F70001100D369484E494D002B04F10041484CE3
:102F80007DDBB342C8BF234601246B61EC61536D06
:102F9000414E434A434CB34288BF1346AB6108F0ED
:102FA000F5FA01463D4802F0AFFC0122002311462C
:102FB0002046B7EE000AA3636563FFF7A9FC6369C7
:102FC0009B689A0725D5384D384E0CE006F0E4FA98
:102FD000C0B25D28307013D00A2004F0FBFE636994
:102FE0009B689B0715D506F013FB00280CDD2B68AA
:102FF000002BEBD005F0D6FAC0B25D283070EBD1D3
:103000002848FFF72FFBE7E7FDF70CFB0028E3DB81
:10301000EDE71621264805F033FAFF2005F026FAE1
:10302000FF2005F023FAFF2005F020FA16212148A1
:1030300005F026FAFF2005F019FAFF2005F016FA30
:10304000FF2005F013FA16211B4805F019FAFF209E
:1030500005F00CFAFF2005F009FAFF2005F006FA4A
:103060001621164805F00CFAFF2005F0FFF9FF20A5
:1030700005F0FCF9FF20BDE8704005F0F7B95B42B0
:10308000B342C8BF23464FF0FF346B61EC617EE76B
:103090000015FF1F1012FF1F1FA107007C10FF1F4C
:1030A00020A107007011FF1FFC06FF1F3C14FF1F2B
:1030B000C4CD0000DCCD0000F4CD00000CCE00003B
:1030C0002DE9F041B64DB74EEA68EB6F03FB02F312
:1030D000002B2DED028B06EE900A08EE101AB24A74
:1030E000B249C0F248818B42C8BF134601227361C6
:1030F000F261D5ED4A7A95ED507AE96CDFF8AC8251
:10310000A94CA84827EE277AD5ED2B7AB8EEE76AC6
:10311000D5ED2F7A27EE067AF8EEE77AF8EEE66A32
:1031200067EE277A414588BF214667EEA67AB161EE
:10313000FDEEE77A17EE901A02F0E6FBEB69D5F8A0
:10314000842002FB03F3002BC0F21E81984F4345FD
:10315000C8BF234601227B61FA61D5ED4E6AD5EDE9
:103160004C7A914A6B6D91499148924C86EEA77AC0
:103170008B4288BF1346BB61D5ED2C7AF8EEE76A27
:10318000D5ED307A27EE267AF8EEE77AB8EEC88ADF
:1031900067EE277A67EE887AFDEEE77A17EE901AE7
:1031A00002F0B2FB0021042004F0D8FD00210E2023
:1031B00004F0D4FD002301222046B7EE000A0221CC
:1031C000E3636663A763FFF7A3FB63699B689A07E2
:1031D0002ED5794E794FA0461BE006F0DDF9C0B23E
:1031E0005D2838700ED1626BE16913688B4209D893
:1031F000D8F818108B4234BF5900C918002051600C
:10320000E361A0610A2004F0E5FD63699B689B0708
:103210000ED506F0FDF9002805DD3368002BDCD063
:1032200005F0C0F9DBE7FDF7FDF90028EADBF4E77C
:103230001221634805F024F9FF2005F017F9FF205B
:1032400005F014F9FF2005F011F911215D4805F092
:1032500017F9222005F00AF995ED4A7AD5ED507A52
:1032600067EE877A95ED2B7AF8EEC76A95ED2F7A9F
:1032700067EEA67AB8EEC77A67EE877A17EE900AFD
:1032800007F080FE41EC100B02214F4806F080FD54
:10329000222005F0EBF8FF2005F0E8F8FF2005F00C
:1032A000E5F8FF2005F0E2F81121484805F0E8F8BC
:1032B000222005F0DBF8D5ED4E5A95ED4C6A95EDE0
:1032C0002C7AD5ED307AC5EE866AB8EEC77AF8EE7C
:1032D000E77A26EE877A67EE277A17EE900A07F0EC
:1032E00051FE41EC100B0221374806F051FD22201F
:1032F00005F0BCF8FF2005F0B9F8FF2005F0B6F89E
:10330000FF2005F0B3F81221314805F0B9F8FF208D
:1033100005F0ACF8FF2005F0A9F8FF2005F0A6F8AD
:1033200012212C4805F0ACF8FF2005F09FF8FF2093
:1033300005F09CF8FF2005F099F81221264805F0C9
:103340009FF8FF2005F092F8FF2005F08FF8FF208E
:1033500005F08CF81221214805F092F8FF2005F0C5
:1033600085F8FF2005F082F8BDEC028BFF20BDE858
:10337000F04105F07BB85B428B42C8BF13464FF06B
:10338000FF327361F261B4E65A42094F4245D4BF3D
:10339000134623464FF0FF327B61FA61DDE600BF42
:1033A0001012FF1FD011FF1F20A107001FA107004F
:1033B0007C10FF1FBC10FF1FFC06FF1F3C14FF1FEB
:1033C00024CE000038CE00004807FF1F4CCE00007E
:1033D000BCC9000094C9000080C90000A8C9000051
:1033E0002DE9F041874C884D2269D4F8803003FBE9
:1033F00002F3002B2DED028B06EE900A08EE101A58
:10340000824A8349C0F2E9808B42C8BF1346012239
:103410006B61EA61D4ED4A7A94ED517A216DDFF85F
:10342000F0817A4F784827EE277AD4ED2B7AB8EEE0
:10343000E76AD4ED2F7A27EE067AF8EEE77AF8EE0F
:10344000E66A67EE277A414588BF394667EEA67A75
:10345000A961FDEEE77A17EE901A02F055FA236A99
:10346000D4F8882002FB03F3002BC0F2BF80694E22
:103470004345C8BF3B4601227361F261D4ED4F5A08
:1034800094ED4D6A94ED2D7AD4ED317A5F4AA36DB7
:103490005F496048604CC5EE866A8B4288BF134620
:1034A000B361B8EEC77AF8EEE77A26EE877AB8EE1F
:1034B000C88A67EE277A67EE887AFDEEE77A17EE1C
:1034C000901A02F021FA0021042004F047FC0021A8
:1034D000162004F043FC002301222046B7EE000A28
:1034E0000221E3636563A663FFF712FA63699B68D1
:1034F0009A072DD5494D4A4E27461AE006F04CF85A
:10350000C0B25D2830700DD1626BE16913688B42E7
:1035100008D8B9698B4234BF5900C91800205160DE
:10352000E361A0610A2004F055FC63699B689B0776
:103530000ED506F06DF8002805DD2B68002BDDD0D8
:1035400005F030F8DCE7FDF76DF80028EADBF4E77A
:103550001321344804F094FFFF2004F087FFFF207C
:1035600004F084FFFF2004F081FF13212E4804F0B3
:1035700087FFFF2004F07AFFFF2004F077FFFF2091
:1035800004F074FF1321294804F07AFFFF2004F0AF
:103590006DFFFF2004F06AFFFF2004F067FF132196
:1035A000234804F06DFFFF2004F060FFFF2004F0CB
:1035B0005DFFFF2004F05AFF13211E4804F060FF56
:1035C000FF2004F053FFFF2004F050FFBDEC028BFE
:1035D000FF20BDE8F04104F049BF5B428B42C8BF09
:1035E00013464FF0FF326B61EA6113E75A42094E0E
:1035F0004245D4BF13463B464FF0FF327361F26140
:103600003CE700BF1012FF1FD011FF1F20A10700D1
:103610001FA10700FC13FF1FBC10FF1FFC06FF1FAC
:103620003C14FF1F34CA000020CA0000F8C9000083
:10363000E4C900000CCA00002DE9F04FCC4FCD4981
:103640003B6BCD4ADFF84893002B83B006EE100A9F
:10365000C0F282818B42C8BF13460122C9F81430E0
:10366000C9F81C20D7F8F86097ED495A97ED484AF9
:10367000D7ED4C7ADFEDC15AD7F8AC10D7F8BC3093
:10368000D7ED4A4ABA6EBB4CBB4D700007EE100A2C
:10369000B8EEC77AC4EE276A03FB01F3A24288BFE3
:1036A0002A46C9F8182085EE074A07EE903A84EEBC
:1036B000255AB8EEE77AD7ED2C7AF8EEE75A67EE9E
:1036C000247A26EEA57AD7ED306AF8EEE65A67EE50
:1036D000857AF8EEC66A27EE257A67EEA67A27EE97
:1036E000267AFDEEE77A17EE100ACDED017A07F0A3
:1036F00049FC41EC100B07F0AFF851EC100B07F050
:1037000045FF019B804603FB06F0400007F028FCC4
:103710007B6B9B4A002BC2E90001C0F21081DFF8ED
:1037200074A2A342C8BF2B460122CAF81430CAF8BB
:103730001C20914AFB6E8F4904208B4288BF1346A0
:103740000021CAF8183004F009FB00210E2004F013
:1037500005FBD7F8F830002B47DD8A4C8A4E8B4D9D
:103760004FF0000B01998A48C8F1000802F0CCF82C
:103770004146884802F0C8F800230122B7EE000A4B
:1037800002218048E363C4F83490C4F838A0FFF7FE
:10379000BFF863699B689A0707D41FE00A2004F00A
:1037A00019FB63699B689B0718D505F031FF00285A
:1037B000F4DCFCF737FF0028F0DD33685BB905F077
:1037C000EBFEC0B25D282870E8D16E48FEF74AFFD4
:1037D00003B0BDE8F08F04F0E5FEF2E7D7F8F8306B
:1037E0000BF1010BBBEB430FBCDB15216A4804F066
:1037F00047FE222004F03AFE019C6848214606F06C
:10380000BFFA222004F032FEFF2004F02FFEFF203A
:1038100004F02CFEFF2004F029FE15215E4804F080
:103820002FFE222004F022FE21465C4806F0A8FA72
:10383000222004F01BFEFF2004F018FEFF2004F0FD
:1038400015FEFF2004F012FE1621554804F018FE64
:10385000222004F00BFED7F8F8105048490008FB6E
:1038600001F106F08DFA222004F000FEFF2004F0A2
:10387000FDFDFF2004F0FAFDFF2004F0F7FD162106
:10388000484804F0FDFD222004F0F0FD3C4B93ED90
:10389000000B06F0E1FF0221404806F079FA2220F1
:1038A00004F0E4FDFF2004F0E1FDFF2004F0DEFD64
:1038B000FF2004F0DBFD17213B4804F0E1FDFF2071
:1038C00004F0D4FDFF2004F0D1FDFF2004F0CEFD74
:1038D0001721364804F0D4FDFF2004F0C7FDFF2077
:1038E00004F0C4FDFF2004F0C1FD1721304804F0AE
:1038F000C7FDFF2004F0BAFDFF2004F0B7FDFF2054
:1039000004F0B4FD17212B4804F0BAFDFF2004F0A9
:10391000ADFDFF2004F0AAFDFF2004F0A7FD172154
:10392000254804F0ADFDFF2004F0A0FDFF2004F0C9
:103930009DFDFF2003B0BDE8F04F04F097BDDFF818
:1039400054A05B42A342C8BF2B464FF0FF32CAF8D7
:103950001430CAF81C20ECE65B428B42C8BF134609
:103960004FF0FF32C9F81430C9F81C207AE600BFC6
:103970001012FF1F1FA1070020A107000000B44381
:103980005814FF1FBC10FF1FFC06FF1F3C14FF1F35
:10399000D011FF1F7C10FF1F60CE00004807FF1FE3
:1039A00078CE000090CE0000A8CE00007CCD0000B4
:1039B000C0CE0000D8CE0000ACCD00002DE9F04F05
:1039C000DFF86893C749D9F82830C74ADFF82CA335
:1039D000002B83B006EE100AC0F278818B42C8BF7C
:1039E00013460122CAF81430CAF81C2099ED467A11
:1039F000D9ED4C7AD9F8C000D9F8B020D9F8AC107C
:103A0000D9F8BC30D9F8F470D9ED473A9FEDB74AF0
:103A1000D9ED4A4AD9F86060B24DB34CDFF8108353
:103A200087EE275A02FB00F203FB01F3AE4288BF88
:103A30002646CAF8186006EE902A07EE103A7B0078
:103A400005EE903AF8EEE66AC3EE847AF8EEE55AAF
:103A500066EE856AB8EEC77A86EEA55A27EE247A16
:103A6000F8EEC66A67EE277A25EE267A67EEA67A22
:103A700017EE100AFDEEE77A17EE906A07F082FA69
:103A800041EC100B06F0E8FE51EC100B07F07EFD48
:103A9000019000FB07F0400007F062FAD9F82C30E3
:103AA000002BC8E90001C0F20481DFF854B2AB4238
:103AB000C8BF23460122CBF81430CBF81C208A4A19
:103AC000D9F86430874904208B4288BF134600210F
:103AD000CBF8183004F042F900210E2004F03EF932
:103AE000D9F8F430002B54DD0023814C814DDFF8F0
:103AF0004482814F009376423146804801F004FFB2
:103B000001997F4801F000FF00237948C4F834A0F0
:103B10000122B7EE000A0221C4F838B0E363FEF7D1
:103B2000F7FE0A2007E02023C8F8003005F070FDFA
:103B300000280FDD642004F04DF963699B689A0743
:103B40001FD52B689B06EED420233B6005F060FD5B
:103B50000028EFDCFCF766FD0028EBDD694B1B68F5
:103B600063B905F019FDC0B2674B5D281870E1D14B
:103B70005F48FEF777FD03B0BDE8F08F04F012FD5B
:103B8000F1E7009AD9F8F4300132B2EB430F00921A
:103B9000B1DB14215D4804F073FC222004F066FCC4
:103BA000019C5B48214606F0EBF8222004F05EFC05
:103BB000FF2004F05BFCFF2004F058FCFF2004F021
:103BC00055FC1421514804F05BFC222004F04EFC0B
:103BD000D9F8F4104E484900234603FB01F3194677
:103BE00006F0CEF8222004F041FCFF2004F03EFC59
:103BF000FF2004F03BFCFF2004F038FC1521454871
:103C000004F03EFC222004F031FC3146404806F02E
:103C1000B7F8222004F02AFCFF2004F027FCFF2044
:103C200004F024FCFF2004F021FC1A213A4804F09F
:103C300027FCFF2004F01AFCFF2004F017FCFF20F3
:103C400004F014FC1621354804F01AFCFF2004F09F
:103C50000DFCFF2004F00AFCFF2004F007FC1621F5
:103C60002F4804F00DFCFF2004F000FCFF2004F0BE
:103C7000FDFBFF2004F0FAFB16212A4804F000FCAB
:103C8000FF2004F0F3FBFF2004F0F0FBFF2004F022
:103C9000EDFB1621244804F0F3FBFF2004F0E6FBC3
:103CA000FF2004F0E3FBFF2003B0BDE8F04F04F079
:103CB000DDBBDFF84CB05B42AB42C8BF23464FF0E0
:103CC000FF32CBF81430CBF81C20F8E65B428B4275
:103CD000C8BF13464FF0FF32CAF81430CAF81C2090
:103CE00084E600BF1FA1070020A107000000B44325
:103CF000BC10FF1F90F00F4084F00F40D011FF1F49
:103D00007C10FF1FFC06FF1F3C14FF1FF0CE0000BD
:103D10004807FF1F08CF000020CF0000DCCD0000C7
:103D20003CCF000054CF00000CCE00001012FF1F4B
:103D30000015FF1F88F00F402DE9F04399B005F002
:103D400067FC002840F3B080984C0023236005F006
:103D500023FC0346964DC8202B7004F03BF82B78CB
:103D60003A3B9D2B01F2E582DFE813F0F300DF0020
:103D7000AC031704D4030204E30AA0027F03E30A9E
:103D8000730347033703900383039F035802AE0472
:103D900078043E049D058F0562051E05DB04F503CE
:103DA000E103C00346060F06D405B505D707D009C1
:103DB000E30AE30AAA00BA00E30ACC00D7043709F1
:103DC0005E08E808D008C207E30AAD075C094609A7
:103DD0006E094908C308AC0885091607330880072F
:103DE00062074D070008EA071D08EA06D406BE066A
:103DF000A90694069006E30AE30AE30AE30AE30A43
:103E0000E30AE30AE30AE30AE30AE30AE30AE30A4A
:103E1000E30AE30AE30AE30AE30AE30AE30AE30A3A
:103E2000E30AE30AE30AE30AE30AE30AE30AE30A2A
:103E3000E30AE30AE30AE30AE30A830675065E0679
:103E4000210A0A0AF409E7094E0A370A5C0A9607AA
:103E5000BF0AE30AB10AD50A9B09900A820AA30A9B
:103E6000E30A0007BB09A9093C0727071C04BB0498
:103E70008B0276026A02EA02D502C002A4020C0397
:103E80000003210347023302E1010A02A4011E02DA
:103E9000CC01F5013F017E016A0156014201B801E2
:103EA0008F012A010A01070104F06CFB00283F4C36
:103EB00041F365820123236004F074FB034649E764
:103EC000FCF760FC022801F03484032801D00128AB
:103ED00006D1384801F008FF00210E2003F03EFF14
:103EE000FCF750FC0228044601F09082032801F000
:103EF0008482012806D12F4801F02EFF21460E2092
:103F000003F02CFFFCF73EFC2B4B2C4AC3F8980027
:103F1000116818464FF4A47203F0D0FD4FF4FA7004
:103F200003F058FF19B0BDE8F0832368002B41F07F
:103F30007682FCF781FB51EC100B07F027FB1E4B40
:103F40001E4AD864116818464FF4A47203F0B6FDF7
:103F5000E4E72368002B41F06882FCF76DFB51EC2D
:103F6000100B07F013FB144B144AD8601168184665
:103F70004FF4A47203F0A2FDD0E7FEF749FFCDE7AE
:103F80002368002B41F01082FCF756FB51EC100B1C
:103F900007F044FB084B094AC3F820011168184692
:103FA0004FF4A47203F08AFDB8E700BFFC06FF1FC0
:103FB0003C14FF1FB014FF1F1012FF1F0815FF1F36
:103FC0002368002B41F03782FCF736FB51EC100BD5
:103FD00007F024FBC24BC34AC3F8240111681846FA
:103FE0004FF4A47203F06AFD98E7FEF7BDFF95E772
:103FF0002368002B41F07F82FCF71EFB51EC100B75
:1040000007F0C4FAB64BB74A1863116818464FF464
:10401000A47203F053FD81E72368002B41F0E18295
:10402000FCF70AFB51EC100B07F0B0FAAC4BAD4AB1
:10403000D866116818464FF4A47203F03FFD6DE78F
:104040002368002B41F0D382FCF7F6FA51EC100BF9
:1040500007F09CFAA24BA34A9866116818464FF4E1
:10406000A47203F02BFD59E72368002B41F09081E7
:10407000FCF7E2FA51EC100B07F088FA012818BFA0
:104080004FF0FF30FFF7D8FA48E72368002B41F0E4
:10409000EA81FCF7D1FA51EC100B07F077FA904B5C
:1040A000904AC3F8F800116818464FF4A47203F060
:1040B00005FD33E72368002B41F07081FCF7BCFA63
:1040C00051EC100B07F062FA854B864AD8621168F2
:1040D00018464FF4A47203F0F1FC1FE72368002B8D
:1040E00041F0B581FCF7A8FA51EC100B07F04EFA3D
:1040F0007B4B7C4A5863116818464FF4A47203F056
:10410000DDFC0BE72368002B41F0B981FCF794FA42
:1041100051EC100B07F082FA714B724AC3F8180188
:10412000116818464FF4A47203F0C8FCF6E6236841
:10413000002B41F08681FCF77FFA51EC100B07F061
:1041400025FA674B674A5866116818464FF4A472FF
:1041500003F0B4FCE2E62368002B41F08A81FCF70F
:104160006BFA51EC100B07F059FA5D4B5D4AC3F83E
:104170001C01116818464FF4A47203F09FFCCDE6B1
:104180002368002B41F06981FCF756FA51EC100BC3
:1041900007F0FCF9524B534A9862116818464FF4E5
:1041A000A47203F08BFCB9E62368002B41F06D810B
:1041B000FCF742FA51EC100B07F0E8F9484B494A7A
:1041C000C3F8F400116818464FF4A47203F076FCAB
:1041D000A4E62368002B41F0A081FCF72DFA51ECF6
:1041E000100B07F0D3F93E4B3E4A1866116818468B
:1041F0004FF4A47203F062FC90E62368002B41F0B8
:104200005681FCF719FA51EC100B07F0BFF90128A1
:1042100018BF4FF0FF30FFF7D1FB7FE6FCF7B2FA93
:10422000012807D041F36082302801F074823128E0
:1042300041F05B824FF0FF310120FEF741FF6DE658
:10424000274B28490022C3F8EC20184609684FF490
:10425000A47203F033FC61E62368002B41F0CD81AA
:10426000FCF7EAF951EC100B07F0D8F91C4B1D4A8A
:10427000C3F83401116818464FF4A47203F01EFC11
:104280004CE62368002B41F02481FCF7D5F951EC72
:10429000100B07F07BF9124B124AC3F8C4001168E7
:1042A00018464FF4A47203F009FC37E60E4801F0FB
:1042B0001BFD33E62368002B41F0ED80FCF7BCF9D1
:1042C00051EC100B07F0AAF9054B064AC3F844015C
:1042D000116818464FF4A47203F0F0FB1EE600BF0D
:1042E0001012FF1F0815FF1F2011FF1F2368002B4E
:1042F00041F00781FCF7A0F951EC100B07F08EF9A3
:10430000B24BB34AC3F83801116818464FF4A4728F
:1043100003F0D4FB02E62368002B41F0F880FCF7A1
:104320008BF951EC100B07F079F9A84BA84AC3F8A8
:104330004001116818464FF4A47203F0BFFBEDE58D
:1043400004A8FDF741FB04A9A24805F093FE04A8C8
:1043500005F010FE9D4B9E490122C3F8EC20184643
:1043600009684FF4A47203F0A9FBD7E5974B98496D
:104370000022C3F8F020184609684FF4A47203F035
:104380009DFBCBE52368002B41F0CD80FCF754F971
:1043900051EC100B07F042F98C4B8D4AC3F83C01ED
:1043A000116818464FF4A47203F088FBB6E504A820
:1043B000FDF70AFB04A9884805F05CFE04A805F097
:1043C000D9FD824B82490122C3F8F02018460968C2
:1043D0004FF4A47203F072FBA0E57C490022002395
:1043E000D1E9420107F0B2F800283FF497AD4FF051
:1043F000FF310220FEF706FC90E52368002B41F018
:104400005080FCF719F957EC106B704CD4F8AC20C5
:10441000D4F8BC3094ED4A7A03FB02F307EE903AED
:10442000F8EEE77A67EE877A17EE900A06F0AAFDB3
:1044300032463B4606F024FF654AC4E942010223A6
:104440001168C4F8E83020464FF4A47203F036FB3C
:1044500064E5FCF797F95D4B5D4AD867116818462B
:104460004FF4A47203F02AFB58E55C4801F074FC99
:1044700054E5FCF787F9554B554AC3F8900011688D
:1044800018464FF4A47203F019FB47E54F49002288
:104490000023D1E9420107F059F800283FF43EAD6E
:1044A00001210220FEF7AEFB38E5FCF76BF9474B24
:1044B000474AC3F8DC00116818464FF4A47203F0B1
:1044C000FDFA2BE52368002B40F0F787FCF7B4F8E2
:1044D00051EC100B07F05AF83C4B3D4A58651168F7
:1044E00018464FF4A47203F0E9FA17E52368002B8D
:1044F00040F0F587FCF7A0F851EC100B07F08EF8B0
:10450000374A334B1060196830484FF4A47203F0F7
:10451000D5FA03E5FCF736F92C4B2D4AC3F8A40075
:10452000116818464FF4A47203F0C8FAF6E4236841
:10453000002B40F0C887FCF77FF851EC100B07F018
:1045400025F8224B224A9861116818464FF4A4724C
:1045500003F0B4FAE2E4FCF715F91C4B1C4AC3F86B
:104560008C00116818464FF4A47203F0A7FAD5E442
:104570002368002B40F0B987FCF75EF851EC100B74
:1045800007F04CF8114B124AC3F810011168184695
:104590004FF4A47203F092FAC0E4FE21114801F036
:1045A000F7FDBBE42368002B41F00F80FCF744F8D3
:1045B00051EC100B06F0EAFF044B054A98651168B0
:1045C00018464FF4A47203F079FAA7E41012FF1F03
:1045D0000815FF1FE813FF1F4014FF1F2011FF1FC6
:1045E000F813FF1F4015FF1F2368002B40F0E987D9
:1045F000FCF722F8C24CD4F8E830D4F8AC208DEDAA
:10460000020B002B40F0C387D4F8BC3094ED4A7AFB
:1046100003FB02F307EE903AF8EEE77A67EE877A4B
:1046200017EE900A06F0AEFC9DED020B06460F4613
:104630000022B44B51EC100B06F022FE02460B4652
:104640003046394606F0F2FCC4E94201AE4BAC48B4
:1046500019684FF4A47203F031FA5FE42368002B69
:1046600040F0B987FBF7E8FF57EC106BA44CD4F887
:10467000AC20D4F8BC3094ED4A7A03FB02F307EE89
:10468000903AF8EEE77A67EE877A17EE900A06F02E
:1046900079FC0022804689469A4B3046394606F01E
:1046A000EFFD02460B464046494606F0BFFC964ADF
:1046B000C4E9420100231168C4F8E83020464FF4F1
:1046C000A47203F0FBF929E4FCF75CF8012800F080
:1046D0009A87312800F0978701200121FEF7F0FC2E
:1046E0001CE42368002B40F06586FBF7A5FF51EC26
:1046F000100B06F04BFF824C834BC4F8B4001968D2
:1047000020464FF4A47203F0D9F9D4F8B400202362
:104710001F221E21FDF76EFD00E4FDF783FBFFF76E
:10472000FDBB774C00220023D4E9400106F00EFFC8
:1047300018B101210846FEF765FA1221734803F00B
:104740009FFE222003F092FE94ED400B0221704860
:1047500005F01EFB222003F089FEFF2003F086FEF9
:10476000FF2003F083FEFF2003F080FE1221674844
:1047700003F086FE222003F079FE022194ED400B27
:10478000634805F005FB222003F070FEFF2003F0D4
:104790006DFEFF2003F06AFEFF2003F067FE642039
:1047A00003F018FBFFF7BABB554C00220023D4E9F5
:1047B000400106F0CBFE20B14FF0FF310120FEF7A3
:1047C00021FA1221514803F05BFE222003F04EFE35
:1047D00094ED400B02214E4805F0DAFA222003F056
:1047E00045FEFF2003F042FEFF2003F03FFEFF20C6
:1047F00003F03CFE1221454803F042FE222003F064
:1048000035FE022194ED400B414805F0C1FA22200B
:1048100003F02CFEFF2003F029FEFF2003F026FE0C
:10482000FF2003F023FE642003F0D4FAFFF776BBE9
:104830002368002B40F00987FBF7FEFE57EC106B56
:104840002F4CD4F8AC20D4F8BC3094ED4A7A03FB5A
:1048500002F307EE903AF8EEE77A67EE877A17EE02
:10486000900A06F08FFB32463B4606F009FD264AC9
:10487000C4E9400102231168C4F8E43020464FF433
:10488000A47203F01BF9FFF749BBFBF77BFF1C4B3E
:104890001D4AC3F88400116818464FF4A47203F04F
:1048A0000DF9FFF73BBBFBF76DFF012806D040F386
:1048B0003787302800F03787312803D1104B012289
:1048C000C3F8CC20104B0E4819684FF4A47203F0C3
:1048D000F5F8FFF723BB2368002B40F0CF86FBF7EA
:1048E000ABFE51EC100B06F051FE054B064A9864E6
:1048F000116818464FF4A47203F0E0F8FFF70EBBFE
:104900001012FF1F008076400815FF1F6CCF0000BB
:104910004807FF1F2368002B40F09386FBF78CFEAF
:10492000CE4CD4F8E430D4F8AC208DED020B002B43
:1049300040F06D86D4F8BC3094ED4A7A03FB02F364
:1049400007EE903AF8EEE77A67EE877A17EE900A6C
:1049500006F018FB9DED020B06460F460022C04BE9
:1049600051EC100B06F08CFC02460B4630463946E3
:1049700006F05CFBC4E94001BA4BB84819684FF433
:10498000A47203F09BF8FFF7C9BA2368002B40F02C
:104990002985FBF751FE57EC106BB04CD4F8AC20D6
:1049A000D4F8BC3094ED4A7A03FB02F307EE903A58
:1049B000F8EEE77A67EE877A17EE900A06F0E2FAE9
:1049C000002280468946A64B3046394606F058FC00
:1049D00002460B464046494606F028FBA14AC4E978
:1049E000400100231168C4F8E43020464FF4A4725B
:1049F00003F064F8FFF792BAFBF7C4FE012806D073
:104A000040F37786302800F07786312803D1934B26
:104A10000122C3F8D420934B904819684FF4A47234
:104A200003F04CF8FFF77ABAFBF7ACFE8B4C002191
:104A300060678D4801F0E8F98A4B204619684FF409
:104A4000A47203F03BF84FF0FF3108460322FCF755
:104A5000ADFBFFF763BAFBF795FE804B814AC3F8C5
:104A60009C00116818464FF4A47203F027F8FFF772
:104A700055BAFBF787FE794B7A4A58671168184692
:104A80004FF4A47203F01AF8FFF748BAFCF7BCFF22
:104A9000FFF744BA2368002B40F06D85FBF7CCFD8F
:104AA00051EC100B06F072FD6C4B6E4AD861116828
:104AB00018464FF4A47203F001F8FFF72FBA2368E9
:104AC000002B40F0E185FBF7B7FD51EC100B06F031
:104AD0005DFD624B634A5865116818464FF4A47235
:104AE00002F0ECFFFFF71ABA2368002B40F0D285E2
:104AF000FBF7A2FD51EC100B06F090FD574B594A05
:104B0000C3F83001116818464FF4A47202F0D6FFC2
:104B1000FFF704BA2368002B40F0CE85FBF78CFD2D
:104B200051EC100B06F032FD4C4B4E4AC3F8C0005E
:104B3000116818464FF4A47202F0C0FFFFF7EEB9F7
:104B40002368002B40F0F584FBF776FD51EC100B49
:104B500006F01CFD414B434AC3F8B00011681846EB
:104B60004FF4A47202F0AAFFFFF7D8B92368002B14
:104B700040F0EA84FBF760FD51EC100B06F04EFDAF
:104B8000364B384AC3F81401116818464FF4A47222
:104B900002F094FFFFF7C2B9FBF7F4FD2F4B314A47
:104BA000C3F8A400116818464FF4A47202F086FFFF
:104BB0000120FBF7F5FDFFF7B1B92368002B40F0AA
:104BC000E084FBF739FD51EC100B06F0DFFC234BC2
:104BD000244A1862116818464FF4A47202F06EFF5E
:104BE000FFF79CB9FBF7CEFD1C4B1E4AC3F8A8008B
:104BF000116818464FF4A47202F060FF0120FBF721
:104C00000FFFFFF78BB92368002B40F06185FBF79E
:104C100013FD51EC100B06F0B9FC104B114A586211
:104C2000116818464FF4A47202F048FFFFF776B9F6
:104C30002368002B40F03485FBF7FEFC51EC100B91
:104C400006F0A4FC054B074AD865116818464FF4D6
:104C5000A47202F033FFFFF761B900BF1012FF1F0B
:104C6000008076400815FF1F2011FF1F2368002BCE
:104C700040F07084FBF7E0FC51EC100B06F0CEFC2A
:104C8000A94BAA4AC3F82801116818464FF4A47228
:104C900002F014FFFFF742B9FBF774FDA24BA34AE1
:104CA000C3F8A000116818464FF4A47202F006FF82
:104CB0009F4801F019F8002201214FF0FF30FCF766
:104CC00083FCFFF72BB92368002B40F00785FBF727
:104CD000B3FC51EC100B06F059FC934B934A58640B
:104CE000116818464FF4A47202F0E8FEFFF716B9F7
:104CF0002368002B40F07183FBF79EFC51EC100BF6
:104D000006F044FC884B894A5861116818464FF4F4
:104D1000A47202F0D3FEFFF701B9FBF733FD824B1B
:104D2000824AC3F89800116818464FF4A47202F042
:104D3000C5FE012108460022FCF710F8FFF7EEB887
:104D40002368002B40F00C84FBF776FC51EC100B31
:104D500006F01CFC744B754AC3F8C800116818466D
:104D60004FF4A47202F0AAFEFFF7D8B82368002B14
:104D700040F0A884FBF760FC51EC100B06F006FC39
:104D8000694C6A4BC4F8B800196820464FF4A47205
:104D900002F094FED4F8B8001D231C221B21FDF75D
:104DA00029FAFFF7BBB82368002B40F07F84FBF79C
:104DB00043FC51EC100B06F031FC5B4B5B4AC3F833
:104DC0002C01116818464FF4A47202F077FEFFF729
:104DD000A5B82368002B40F0F882FBF72DFC51ECBE
:104DE000100B06F0D3FB504B504AC3F8BC001168BF
:104DF00018464FF4A47202F061FEFFF78FB82368E3
:104E0000002B40F0DD82FBF717FC51EC100B06F095
:104E1000BDFB454B454A9863116818464FF4A47290
:104E200002F04CFEFFF77AB8FBF7ACFC3E4C3F4B70
:104E3000C4F89400196820464FF4A47202F03EFEB4
:104E40003C493D4A8B69CF690E6A4D6A08790A93DD
:104E50004B790B970C96D1F80670D1F80A600D9536
:104E60008DF814000D6948698DF815308B6ACDF8FE
:104E70001670CDF81A60CF6A0E6B0895099091F8FC
:104E8000345091F835000E938B6B0F9710968DF878
:104E900044508DF8450004921293D4F89430626C1B
:104EA0006469486C8F6CCE6C0094CD6B0C6C159063
:104EB00004A901201697179613951494FBF7C6FEC4
:104EC000FFF72CB82368002B40F05083FBF7B4FBAE
:104ED00051EC100B06F05AFB134B144918600246B4
:104EE000DA60184609684FF4A47202F0E7FDFFF794
:104EF00015B8FBF747FC0C4B0C4A186711681846AD
:104F00004FF4A47202F0DAFDFFF708B8FBF73AFCA1
:104F1000054B064AC3F89400116818464FF4A47272
:104F200002F0CCFDFEF7FABF1012FF1F0815FF1F9D
:104F30009813FF1F2011FF1FA4CF0000FBF722FCD6
:104F4000C34CC44BC4F89400196820464FF4A472B3
:104F500002F0B4FDC049C14A8B69CF690E6A4D6A3F
:104F600008790A934B790B970C96D1F80670D1F813
:104F70000A600D958DF814000D6948698DF815309B
:104F80008B6ACDF81670CDF81A60CF6A0E6B089553
:104F9000099091F8345091F835000E938B6B0F9770
:104FA00010968DF844508DF8450004921293D4F871
:104FB0009430626C6469486C8F6CCE6C0094CD6BDD
:104FC0000C6C159004A94FF0FF30169717961395A7
:104FD0001494FBF73BFEFEF7A1BF1221A04803F09B
:104FE0004FFAFF2003F042FAFF2003F03FFAFF20C0
:104FF00003F03CFAFEF792BFFBF7C4FB944C002190
:105000002067954800F000FF924B204619684FF446
:10501000A47202F053FD012108460322FBF79EFE15
:10502000FEF77CBFFBF7AEFB894B8A4AC3F8A400AE
:10503000116818464FF4A47202F040FD4FF0FF30A3
:10504000FBF7AEFBFEF76ABFFBF79CFB804C002131
:105050002067814800F0D8FE7E4B204619684FF447
:10506000A47202F02BFD4FF0FF3108460322FBF73C
:1050700075FEFEF753BF2368002B40F06082FBF7FC
:10508000DBFA51EC100B06F081FA714B714AC3F850
:10509000AC00116818464FF4A47202F00FFDFEF741
:1050A0003DBFFBF76FFB6A4B6A4AC3F8E00011682B
:1050B00018464FF4A47202F001FDFEF72FBFFBF774
:1050C00061FB634B634AC3F8A800116818464FF4AC
:1050D000A47202F0F3FC4FF0FF30FBF7A1FCFEF7E7
:1050E0001DBF2368002B40F08381FBF7A5FA51EC2C
:1050F000100B06F093FA5B4A564B1060196854483F
:105100004FF4A47202F0DAFCFEF708BFFBF73AFB9B
:105110004F4B504AC3F89800116818464FF4A472D8
:1051200002F0CCFC504800F0DFFD002201214FF0DE
:10513000FF30FBF713FEFEF7F1BEFBF723FB444BFA
:10514000444A9867116818464FF4A47202F0B6FCFE
:10515000FEF7E4BEFBF716FB3D4B3E4AC3F89C004E
:10516000116818464FF4A47202F0A8FC3F4800F002
:10517000BBFD012108460022FCF718F8FEF7CEBE61
:10518000FBF700FB324B334AC3F89C00116818460A
:105190004FF4A47202F092FC344800F0A5FD002206
:1051A00001214FF0FF30FCF701F8FEF7B7BEFBF727
:1051B000E9FA274C00216067274800F025FE254BBF
:1051C000204619684FF4A47202F078FC01210846C9
:1051D0000322FBF7EBFFFEF7A1BEFBF7D3FA1C4C53
:1051E0000021A0671C4800F00FFE1A4B20461968EA
:1051F0004FF4A47202F062FC4FF0FF310846032224
:10520000FCF7E2F9FEF78ABEFBF7BCFA104B114A35
:10521000C3F8A000116818464FF4A47202F04EFCC7
:10522000FEF77CBEFBF7AEFA094C0021A0670A48E6
:1052300000F0EAFD074B204619684FF4A47202F013
:105240003DFC012108460322FCF7BEF9FEF766BECD
:105250001012FF1F0815FF1F2011FF1FA4CF000011
:1052600098C800005014FF1FB014FF1F6014FF1FE8
:10527000FBF788FA012800F0AD80312800F0AA8001
:1052800001200121FEF7ACF8FEF748BEFBF77AFAE1
:10529000012807D040F33A82302800F033823128C9
:1052A00040F036824FF0FF310120FEF799F8FEF70B
:1052B00035BEFBF767FAE84BE84AC3F8A800116867
:1052C00018464FF4A47202F0F9FBFEF727BEFBF775
:1052D00059FAE14BE14AC3F88800116818464FF4C7
:1052E000A47202F0EBFBFEF719BEFBF74BFADA4BA8
:1052F000DA4AC3F8A000116818464FF4A47202F00D
:10530000DDFBD74800F0F0FC012108460022FCF745
:105310005BF9FEF703BEFBF735FACF4BCF4AC3F874
:105320008000116818464FF4A47202F0C7FBFEF724
:10533000F5BD04A8CB4904F05DFE04A9CA4804F0F9
:10534000A9FC04A9C94804F0A5FC04A804F012FEB5
:1053500004A8C74904F04EFE04A9C34804F09AFC0F
:10536000C14804F0BDFC04A9C04804F093FCBF4848
:1053700004F0B6FC04A804F0FDFDFEF7CFBD2368E1
:10538000082B3EF7CFAD002B7EF496ADFEF7DFBCC9
:10539000FBF7A0F951EC100BFEF76EBEFBF79AF984
:1053A00051EC100BFEF78EBEFBF794F951EC100B8D
:1053B000FEF7EEBDFBF78EF951EC100BFFF799B934
:1053C000FBF788F951EC100B21E5FBF783F951EC61
:1053D000100B06E54FF0FF3053E7FBF77BF951EC7C
:1053E000100B8DE4FBF776F957EC106BFFF7D5BA8D
:1053F000FBF770F951EC100B7BE69E4800F0ACFC1B
:1054000001210E2002F0AAFCFEF77CBD9A4800F0B4
:10541000A3FC01210E2002F0A1FCFEF773BDFBF7F7
:1054200059F951EC100BFEF788BDFBF753F951EC1D
:10543000100BFEF796BDFBF74DF951EC100BFEF784
:10544000C7BDFBF747F951EC100BFEF778BEFBF731
:1054500041F951EC100BFEF749BEFBF73BF951EC5B
:10546000100BFEF795BEFBF735F951EC100BFEF76C
:1054700014BEFBF72FF951EC100BFEF774BEFBF7CF
:1054800029F951EC100BFEF745BEFBF723F951EC5F
:10549000100BFEF791BEFBF71DF951EC100BFEF758
:1054A00011BFFBF717F957EC106BFEF7AEBFFBF718
:1054B00011F951EC100BFEF7A8BEFBF70BF951ECFC
:1054C000100BFFF707B8FBF705F951EC100BFFF7CE
:1054D00036B8FBF7FFF851EC100BFEF7DABEFBF71E
:1054E000F9F851EC100BFFF709B8FBF7F3F851ECA2
:1054F000100BFFF745B8FBF7EDF851EC100BFEF77A
:105500007FBDFBF7E7F851EC100BFEF7F7BEFBF79A
:10551000E1F851EC100BFEF706BFFBF7DBF851EC9E
:10552000100BFEF75EBEFBF7D5F851EC100BFEF743
:1055300031BFFBF7CFF851EC100BFFF709BBFBF7BE
:10554000C9F851EC100B9EE5FBF7C4F851EC100BB9
:10555000FFF714BBFBF7BEF851EC100BFFF78EBB47
:10556000FBF7B8F851EC100BFFF7F2BBFBF7B2F802
:1055700051EC100BAEE4FBF7ADF851EC100BFFF75C
:1055800091BAFBF7A7F851EC100BFFF71EBBD4F84C
:10559000BC3094ED4A7A03FB02F307EE903AF8EE42
:1055A000E77A67EE877A17EE900A05F0EBFC9DED3F
:1055B000020B53EC102B05F063FEC4E94201FFF728
:1055C00045B8FBF787F8FFF715B8FBF783F851EC00
:1055D000100BFEF7EFBFFBF77DF857EC106BFFF7F2
:1055E00045B8FBF777F851EC100BFEF71DBDFBF744
:1055F00071F851EC100BFEF72BBDFBF76BF851EC7B
:10560000100BFEF731BE4FF0FF30FFF766B8D4F84D
:10561000BC3094ED4A7A03FB02F307EE903AF8EEC1
:10562000E77A67EE877A17EE900A05F0ABFC9DEDFE
:10563000020B53EC102B05F023FEC4E94001FFF7E9
:105640009BB9FBF747F8FFF76BB9FBF743F857EC4B
:10565000106BFFF7F5B800BF1012FF1F0815FF1FF2
:105660009813FF1F80CF00006807FF1F4807FF1F28
:1056700088CF0000B014FF1F6014FF1FFBF72AF84B
:1056800051EC100BFFF72FB9FBF724F851EC100B7E
:10569000FFF71DBAFBF71EF851EC100BFFF72CBA01
:1056A000FBF718F851EC100BFFF7CABAFBF712F82A
:1056B00051EC100BFFF77FBBFBF70CF851EC100B14
:1056C000FFF730BAFBF706F851EC100BFFF756BBAB
:1056D000FBF700F851EC100BFFF79DBAFAF7FAFF51
:1056E00051EC100BFFF7F7BAA8B101210846FEF7FD
:1056F000A4BD00287FF48FA9124B0022C3F8D42048
:10570000FFF789B94FF0FF310846CEE50028F9D000
:1057100001210846C9E54FF0FF310846FEF78DBD6F
:1057200000287FF4CFA8074B0022C3F8CC20FFF756
:10573000C9B8054800F0D8FA00210E2002F00EFB8F
:10574000FEF7CEBB1012FF1F6014FF1F2DE9F041C2
:10575000384F394E394D3A4CDFF8188186B002F097
:105760004BF93846002104F045FC324629463846BC
:1057700005F0A4FF2046002104F03CFC32462946F7
:10578000204605F09BFF2F4B2F4A1B6805930124F1
:1057900005250427059802940195214600970223C8
:1057A00010600322294800F033FC2B460294019537
:1057B000214600970622264800F02AFC02220321F7
:1057C000244800F059F82A460621234800F054F8EE
:1057D0000294019521460097142315221F4800F0DA
:1057E00017FC1723029401952146009710221C48AC
:1057F0001C4D1D4C00F00CFC142215211B4800F020
:105800003BF8172210211A4800F036F84046FCF702
:1058100001FF32462946404605F050FF2046FCF77E
:10582000F9FE32462946204605F048FF06B0BDE89D
:10583000F08100BFE813FF1FF806FF1F759F0000EF
:105840004014FF1FBC17FF1F1C11FF1F2011FF1F5B
:10585000B014FF1FD011FF1F7C10FF1F6014FF1F2B
:105860009813FF1F090600007011FF1FFC13FF1F94
:105870005813FF1FBC10FF1FF8B5164B164F53F8F7
:105880003160044606F1800506F580706562A0620D
:1058900053F83230E2636425002240F6C41E2561CD
:1058A0006761012503F1800703F58073A163C4F8E4
:1058B00018E022602262C8B2C6F80051294623636C
:1058C000E76202F05FFA94F83C00294602F05AFAC7
:1058D0002046F8BD8CD0000020A10700826B094B48
:1058E00053F8323003F1800203F5807321B1426234
:1058F000012283621A60704743621346826201226A
:105900001A6070478CD0000030B40268036A446BA0
:10591000002504FB023300290560036206DBC26A2E
:1059200041600123436330BC13607047036B4FF049
:10593000FF34494201224463416030BC1A60704721
:10594000704700BF024B186803681B68184700BF08
:105950000C15FF1F024B586803681B68184700BFEF
:105960000C15FF1F024B986803681B68184700BF9F
:105970000C15FF1F024BD86803681B68184700BF4F
:105980000C15FF1F0268BAB10D4B13441B113033C5
:10599000DBB2303B032B0FD8DFE803F00B08050226
:1059A000084B83607047084B83607047074B8360E8
:1059B0007047074B8360704700238360704700BFC8
:1059C000008FFCBF30710340207103401071034011
:1059D0000071034070B5154A0E461549044604F09F
:1059E000A9F8054608B9284670BD2046FFF7CAFF4A
:1059F000A168104B104A20680B441B11202142F86B
:105A00002360217120B10B4A0C4E024412119155B2
:105A10000B49064A51F82310204604F08BF8A2687F
:105A2000936823F002039360284670BD00879303B8
:105A300041590000008FFCBF0C15FF1F30E400E04F
:105A40008CCF00000F4B00224FF6FF711A60102020
:105A50009960D30003F1804303F560330132D968C4
:105A600021F08001D960D968082A21F04001D9606D
:105A7000D860EED10349044B0D204FF480620860DA
:105A80001A6070470080034004E100E000290246EC
:105A900004DB074B084643F821207047054B196883
:105AA000481C1860024B084643F82120704700BF8D
:105AB0001C15FF1F3C15FF1F70B50F4D002402E0A1
:105AC0000134082C16D0E30003F1804303F5603362
:105AD000DA6802F0C002C02AF2D155F82400DA6870
