:10000000F8FF0220990100003D9C0200F59B0200D0
:10001000F59B0200F59B0200F59B0200F59B020098
:10002000F59B0200F59B0200F59B02003D9C02003F
:100030003D9C0200F59B02007DC1020081C20200CE
:100040003D9C02003D9C02003D9C02003D9C020044
:100050003D9C02003D9C02003D9C02003D9C020034
:100060003D9C02003D9C02003D9C02003D9C020024
:100070003D9C02003D9C02003D9C02003D9C020014
:100080003D9C02003D9C02003D9C02003D9C020004
:100090003D9C02003D9C02003D9C02003D9C0200F4
:1000A0003D9C02003D9C02003D9C02003D9C0200E4
:1000B0003D9C02003D9C02003D9C020099A602006E
:1000C0003D9C020075A902003D9C020009AF0200A0
:1000D0003D9C0200E1CE02003D9C02003D9C0200DE
:1000E0003D9C02003D9C0200B19402003D9C020038
:1000F0003D9C02003D9C02003D9C02003D9C020094
:10010000A5C50200B9C50200CDC50200E1C50200C7
:100110003D9C020095B102003D9C02003D9C020006
:100120003D9C02003D9C02003D9C02003D9C020063
:100130003D9C02003D9C02003D9C02003D9C020053
:100140003D9C02003D9C0200D9CF02003D9C020074
:10015000D1D002003D9C02003D9C02003D9C02006B
:100160003D9C02003D9C02003D9C02003D9C020023
:100170003D9C02003D9C02003D9C02003D9C020013
:100180003D9C02003D9C02003D9C02003D9C020003
:100190003D9C02003D9C0200584B4CF2205210B591
:1001A0001A804DF628121A8000BF00BF29F04AFDC0
:1001B000534B4FF030621A60524A9A60524ADA60EA
:1001C000524B4FF470021A60514A136813F4807353
:1001D00004D150490B604FF4A85313604E4B1A786A
:1001E000110703D51A7842F008021A704B4B4C499C
:1001F0002A221A704B4A4C4B8B4204D252F8040FFD
:1002000043F8040BF8E7494B494900228B4202D2DC
:1002100043F8042BFAE74749474A002352F82300E2
:1002200041F823000133662BF8D1444B444A802126
:1002300003F8011B9342FBD1424B3E4A1A60424BEA
:100240008A221A70A3F5805324225A70A0221A70B1
:100250009A799207FCD59A79D406FCD43B4A9379D3
:1002600003F00C03082B394BF9D103221A714622F3
:100270005A719A799006FCD5344A9179334B4906E4
:10028000FBD5334A4FF08271116009215160202261
:100290001A709A7902F00C020C2AFAD12D4B2E4AD0
:1002A0001A602E4B2E4A1A6000225A60072243F829
:1002B000042C2C4AC3F80C2D62B629F0DDFD154B39
:1002C0001B68DA0705D5284829F05CFD274B284A2A
:1002D0001A60284B1B785B0609D5244C244B2268F6
:1002E0009A4204D1204829F04DFD002323602FF0CD
:1002F00075F929F0ADFC2CF07DF9FEE70E200540E4
:1003000030800440823F04000100002B88ED00E0B3
:1003100010D0034014D0034002D0074000E0074053
:100320007812FF1FA4870300F806FF1F7812FF1F33
:100330009422FF1F0002FF1F0000000000E400E005
:1003400056E400E008ED00E00050064000400640A2
:100350004480044004800440C010050014E000E024
:10036000BFD401000000202076FC28661CE003407A
:10037000A5C3945A00F00740FFFFFFFFFFFFFFFFF8
:10038000FFFFFFFFFFFFFFFFFFFFFFFFFFFFFFFF7D
:10039000FFFFFFFFFFFFFFFFFFFFFFFFFFFFFFFF6D
:1003A000FFFFFFFFFFFFFFFFFFFFFFFFFFFFFFFF5D
:1003B000FFFFFFFFFFFFFFFFFFFFFFFFFFFFFFFF4D
:1003C000FFFFFFFFFFFFFFFFFFFFFFFFFFFFFFFF3D
:1003D000FFFFFFFFFFFFFFFFFFFFFFFFFFFFFFFF2D
:1003E000FFFFFFFFFFFFFFFFFFFFFFFFFFFFFFFF1D
:1003F000FFFFFFFFFFFFFFFFFFFFFFFFFFFFFFFF0D
:10040000FFFFFFFFFFFFFFFFFFFFFFFFDEF9FFFF23
:1004100010B5054C237833B9044B13B10448AFF33E
:1004200000800123237010BD7812FF1F0000000020
:10043000A0870300084B10B51BB108490848AFF36B
:1004400000800848036803B910BD074B002BFBD0A0
:10045000BDE81040184700BF000000007C12FF1FDD
:10046000A08703007812FF1F0000000000690B69DD
:100470009842D4BF00200120704700BF80698B697B
:100480000028B8BF4042002BB8BF5B429842D4BF9F
:1004900000200120704700BFF0B586460120DEF83D
:1004A0005870DEF83030BA6A106079683A680A44E9
:1004B0007A600EF1300493B15A69002A08DB9A6A17
:1004C00010605E6819683D695A6931445960521B71
:1004D00019690A445A6154F8043F002BECD1DEF844
:1004E0002430144ADEF81840DEF86C000021116058
:1004F000DB00516803F1804303F5603321440D2490
:1005000019611460DA68502122F08002DA60D96043
:1005100000B1F0BD7A68FB689A4200D0F0BDDEF809
:100520005C3001228EF82820002BF7D0BDE8F04087
:10053000184700BF00800340C36A00F12C0233B1AA
:100540000120D96A52F8043F0860002BF9D17047A6
:10055000094A0A49136891ED007A07EE903AF8EEDD
:10056000E77A002BCCBF77EE877A77EEC77AFDEE7D
:10057000E77AC2ED007A7047A412FF1F3C13FF1FF9
:10058000094A0A49136891ED007A07EE903AF8EEAD
:10059000E77A002BCCBF77EE877A77EEC77AFDEE4D
:1005A000E77AC2ED007A7047281AFF1F081AFF1F6A
:1005B00008B52AF03BFC0028CCBF0320002008BD72
:1005C000836D012280F890205B6872B6DFED0B6AC4
:1005D000D0ED207A90ED1F7A67EEA67AF4EEC77A16
:1005E000C0ED1E7AD0ED227AF1EE10FAD8BFF1EE0E
:1005F000677AC0ED237A62B6704700BF0000000042
:10060000036A8B4210B523D0C369994200D010BD54
:100610008369002BFBD072B6194AC3698469002133
:100620001160DB00516803F1804303F5603321441E
:100630000D2419611460DA68502122F08002DA601A
:10064000D96062B600690368BDE810405B6818476E
:100650000446006903689B68984794F82430002B8F
:10066000D5D004F108002BF07BFF0023E069636024
:1006700028F006FF206ABDE8104028F001BF00BF47
:10068000008003402DE9F04186682DED028BC6B154
:10069000816D836F4D68D0F8AC105D1B85EAE578FD
:1006A000A8EBE578884504463EDBD0F8B0309845A5
:1006B00032460ADBC76FB8455CDB936823F0020360
:1006C0009360BDEC028BBDE8F081D0F88830002B40
:1006D000F3D0B26812F0020219D0326838498A4267
:1006E00056D971683748B0FBF3F3521A934256D289
:1006F000BDEC028B60690268002501240321B5600E
:100700001268F4603360B160BDE8F0411047BDECA1
:10071000028B01200321B260F0602A4AB2FBF3F39E
:100720003360B160BDE8F081D4ED2A7AD0E92401CC
:10073000B8EE678A2EF03AFD07EE908AF8EEE77A77
:1007400007EE100AA8EE277AB1EEC70AB4EE400A07
:10075000F1EE10FA2DD1FDEEC07A17EE903A002B93
:10076000B7D1D6B9184B1B68BBB1022101209847FD
:10077000A268A2E7D4ED2A7AC8EB0705D0E92601E2
:10078000013DB8EE678A2EF011FD07EE905AD5E7CD
:100790000C4AB2FBF3F3336093E732468DE79A1AC3
:1007A000002401200321B460F0603260B160336046
:1007B00087E7B0EE470A2CF02FFFA668CBE700BF13
:1007C0007FA9030000879303EC1DFF1F2DE9F04173
:1007D0000446D0ED1F7A94ED1E7A806DF4EE477AD0
:1007E000F1EE10FA43683CD1FDEEC77A17EE905A4D
:1007F00094F890300BB1002D72D08368AB422ED0AC
:10080000002D0368B4BF4FF0FF3201229A4217D087
:1008100004F12801012608E013685B42012B1360F4
:100820000BBF126B536B13601E6051F8042F002A2C
:10083000F2D1636F03EB8303DB0001D0013BFDD1F9
:1008400085EAE572A2EBE572A3680ABB002B67D0CC
:100850009A6822F002029A608560BDE8F081BDE8E6
:10086000F081D4ED236AF5EEC06A77EEA67AF1EE58
:1008700010FAB4EEE77A48DDF1EE10FAD8BFF0EEE8
:10088000477ABDEEE77AC4ED1F7A17EE105AAFE74C
:10089000996811F0020117D019682B4EB1423AD96C
:1008A0005E682A4FB7FBF2F2891B8A4242D2606926
:1008B000002601689E6001270326DF6009681A6030
:1008C0009E608847A06DC7E7012603249960DE601B
:1008D0001E49B1FBF2F21A609C608560BDE8F081B0
:1008E00004F10C002BF03CFE206AA56028F0C8FD46
:1008F000606A28F0C5FDA26DE36D956084F89050A4
:10090000002BACD0BDE8F0411847F1EE10FA58BF0B
:10091000F0EE477AB5E70D49B1FBF2F21A609BE7BA
:100920000B4B1B68002B93D0012002219847A36832
:10093000A06D8DE7511A0027012603249F60DE6019
:1009400019609C601A6087E77FA903000087930302
:10095000EC1DFF1F70B5044608460D462FF0F0FE53
:1009600023680246294620465B68BDE87040184768
:1009700038B505462BF0D6FE044628462BF082FEFD
:10098000204438BD38B505462BF0CCFE0446284639
:100990002BF078FE204438BD38B50A2200230546E6
:1009A0002BF080FE044628462BF06CFE204438BD18
:1009B00038B5C9B205462BF0BFFE044628462BF0D9
:1009C00061FE204438BD00BF10B5334C33480C21C4
:1009D0002BF06EFA102120462BF0A4FE20462BF0BF
:1009E00051FE0E212E482BF063FA542120462BF0A5
:1009F00099FE20462BF046FE0F212A482BF058FA8C
:100A0000502120462BF08EFE20462BF03BFE10217D
:100A100025482BF04DFAE42120462BF083FE20469A
:100A20002BF030FE0F2121482BF042FA7021204696
:100A30002BF078FE20462BF025FE0F211C482BF0D2
:100A400037FA702120462BF06DFE20462BF01AFE5F
:100A5000142118482BF02CFA782120462BF062FE46
:100A600020462BF00FFE132113482BF021FA6C21A6
:100A700020462BF057FE20462BF004FE10210F4895
:100A80002BF016FA204634212BF04CFE2046BDE810
:100A900010402BF0F7BD00BF1808FF1FD83203002D
:100AA000E8320300F8320300083303001C3303006C
:100AB0002C3303003C33030054330300683303003A
:100AC00010B509211E482BF0F3F91E482BF0DAFD72
:100AD000FE211D4826F0D0FA18BB0A211A4826F03C
:100AE000CBFA98B909211848184C26F0C5FA18BB5A
:100AF00020600C2116482BF0DBF9216811482BF0FF
:100B000011FE1048BDE810402BF0BCBD0F4C114841
:100B10000A23194623602BF0CBF90A482BF0B2FDCB
:100B2000E7E70A4C0C480123092123602BF0C0F9A8
:100B300004482BF0A7FDDCE708480923E9E700BFDC
:100B40007C3303001808FF1F701BFF1FD41AFF1F00
:100B5000AC3303009433030088330300A033030055
:100B600070B52DED028B84B0044601AB0DF10F0181
:100B7000002203F8012B9942FBD1002601A82FF097
:100B8000DFFD014601A82BF093F952482BF07AFDC6
:100B9000236820465B6998470021C5B24E482BF078
:100BA00087F94C482BF06EFD24214C482BF080F93E
:100BB000314648482BF0B6FD042149482BF078F91E
:100BC00028462BF0F9F9022146482BF071F9294605
:100BD00040482BF0A7FD3F482BF054FD7F2D75D0EA
:100BE00004ABFF2D334401A84BD0042D3DD003F8B6
:100BF0000C5C2FF0A5FD014601A82BF059F9013638
:100C000034482BF03FFD0A2EB8DD01A82EF0D6FCAB
:100C100051EC100B2EF0AAF92DF05CFE41EC180BF4
:100C2000042131482BF044F901A82FF089FD014639
:100C300001A82BF03DF927482BF024FD08212B4873
:100C40002BF036F9B0EE480AF0EE680A042121488C
:100C50002BF072FD1F482BF015FDB0EE480AF0EEA8
:100C6000680A04B0BDEC028B70BD214819212BF03D
:100C70001FF9314617482BF055FD16482BF002FDA1
:100C80007BE714211B482BF013F901A82FF058FD26
:100C9000014601A82BF00CF90E482BF0F3FC0DE0F7
:100CA00023685B6998471C21054613482BF000F91F
:100CB000E8B22BF081F907482BF0E4FC23682046CA
:100CC0001B69984700282046EADC9EE71B210B4859
:100CD000CDE700BF1808FF1FB46E0300BC3303004C
:100CE000E4330300286F0300043403000C340300D2
:100CF00038340300EC330300183403005434030089
:100D000001280BD0032806D010B19FED070B7047C8
:100D10000748FFF725BF0748FFF722BF0648FFF740
:100D20001FBF00BFAFF30080000000000000F0BF55
:100D30001808FF1FF807FF1FE807FF1F38B5434DCE
:100D40004348EA6BAB6B95ED107AD5ED127A414CC6
:100D500003FB02F32DED048B08EE103AB8EE488A3F
:100D6000DFED3D8A28EE078A0D2167EEA88AF0EEB6
:100D7000409A2BF09DF818EE100A2DF0ABFD41ECD7
:100D8000100B022120462BF0D7FC20462BF07AFCDA
:100D9000112132482BF08CF8286C2DF09BFD41EC92
:100DA000100B022120462BF0C7FC20462BF06AFCDA
:100DB0000F212B482BF07CF889EEA89A18EE900AA8
:100DC0002DF088FD41EC100B022120462BF0B4FCE5
:100DD00020462BF057FC102122482BF069F819EE21
:100DE000900A2DF077FD41EC100B022120462BF0EC
:100DF000A3FC20462BF046FC07211B482BF058F89B
:100E000019EE100A2DF066FD41EC100B0221204670
:100E10002BF092FC28EE098A20462BF033FC0821A7
:100E200012482BF045F818EE100A2DF053FD41EC56
:100E3000100B022120462BF07FFC20462BF022FCD9
:100E4000B0EE480ABDEC048B38BD00BF7C18FF1F14
:100E5000983403001808FF1FDB0FC940A8340300B3
:100E6000BC340300CC340300E03403000C34030032
:100E700038B5434D4348EA6DAB6D95ED187AD5ED25
:100E80001A7A414C03FB02F32DED048B08EE103A65
:100E9000B8EE488ADFED3D8A28EE078A0D2167EE1D
:100EA000A88AF0EE409A2BF003F818EE100A2DF005
:100EB00011FD41EC100B022120462BF03DFC204699
:100EC0002BF0E0FB132132482AF0F2FF286E2DF0C0
:100ED00001FD41EC100B022120462BF02DFC204699
:100EE0002BF0D0FB0F212B482AF0E2FF89EEA89AC5
:100EF00018EE900A2DF0EEFC41EC100B022120467A
:100F00002BF01AFC20462BF0BDFB102122482AF0C2
:100F1000CFFF19EE900A2DF0DDFC41EC100B022101
:100F200020462BF009FC20462BF0ACFB07211B4888
:100F30002AF0BEFF19EE100A2DF0CCFC41EC100B8C
:100F4000022120462BF0F8FB28EE098A20462BF0E0
:100F500099FB082112482AF0ABFF18EE100A2DF079
:100F6000B9FC41EC100B022120462BF0E5FB20469A
:100F70002BF088FBB0EE480ABDEC048B38BD00BFF7
:100F80007C18FF1F983403001808FF1FDB0FC940AF
:100F9000E8340300BC340300CC340300E034030025
:100FA0000C3403001D4A1E4892ED117AD16B936BED
:100FB000C0EE077A10B503FB01F30A21194C2DEDA1
:100FC000028B08EE103AB8EE488AF0EE408A28EE1E
:100FD000278A2AF06DFF18EE900A2DF07BFC41EC79
:100FE000100B022120462BF0A7FB20462BF04AFBDA
:100FF0001A210D482AF05CFF18EE100A2DF06AFC49
:1010000041EC100B022120462BF096FB20462BF0E2
:1010100039FBB0EE480ABDEC028B10BD7C18FF1FF7
:10102000FC3403001808FF1F083503001D4A1E4842
:1010300092ED197AD16D936DC0EE077A10B503FB6E
:1010400001F30A21194C2DED028B08EE103AB8EE8F
:10105000488AF0EE408A28EE278A2AF029FF18EE07
:10106000900A2DF037FC41EC100B022120462BF0AA
:1010700063FB20462BF006FB1A210D482AF018FFCF
:1010800018EE100A2DF026FC41EC100B0221204630
:101090002BF052FB20462BF0F5FAB0EE480ABDECDF
:1010A000028B10BD7C18FF1FFC3403001808FF1FC3
:1010B000243503000138032840D8DFE800F026116A
:1010C0000A02204B5B6D002B36D0012B36D1FFF787
:1010D000ADBF1C4B5B6B6BB3012B2FD1FFF762BF16
:1010E000184AD2F8B83003B3D2ED317AD2F8C01032
:1010F000D2F8BC3080EE277A03FB01F300EE103A01
:10110000F8EE407A27EE870A70470E4A92ED057A8C
:101110001169D368C0EE077A03FB01F300EE103AC1
:10112000B8EE400A20EE270A7047D2ED0A7A516ADB
:10113000136ADFE7FFF702BEFFF79ABE9FED020AD0
:10114000704700BF7C18FF1F0000000038B52F4D0E
:101150002F4C95ED007AD4ED007AB5EEC07AF1EE21
:1011600010FA48BFB1EE477AF5EEC07A48BF85ED78
:10117000007AF1EE10FA44BFF1EE677AC4ED007A1E
:1011800067EEA77A2DED048BE7EE077A08EE100ADA
:1011900017EE900A08EE901A2DF09CFB41EC100B14
:1011A0002CF07AF951EC100B2DF0E0FE94ED006A72
:1011B000D5ED006A07EE900A87EE867A87EEA69A4A
:1011C000F8EEE88AB8EEC88A67EE287A17EE900A39
:1011D0002DF080FB41EC100B2CF0BEF851EC100B05
:1011E0002DF0C4FE68EE097A206017EE900A2DF00B
:1011F00071FB41EC100B2CF0AFF851EC100B2DF003
:10120000B5FEBDEC048B286038BD00BF9C15FF1FE8
:10121000141BFF1F38B5384B1B68013B0A2B6AD8DB
:10122000DFE803F0283A45696906060606573A00E2
:10123000324B334D1868334CFFF762FD51EC100B05
:101240002DF04CFE304A034630481168C3625022EC
:101250006B61636428F056FC2D4B28461968702298
:1012600028F050FC2B4B204619686C22BDE8384012
:1012700028F048BC214B284C1868FFF741FD51EC81
:10128000100B2DF02BFE254B60611968204678224B
:10129000BDE8384028F036BC184B214C1868FFF7E1
:1012A0002FFD51EC100B2DF019FE1E4BECE7134BEC
:1012B0001D4C1868FFF724FD51EC100B2DF00EFEAD
:1012C0001A4B6061196820463422BDE8384028F086
:1012D00019BC0A4B164C1868FFF712FD51EC100BA5
:1012E0002DF0FCFD134BA062196820467022BDE86A
:1012F000384028F007BC38BD4807FF1F0407FF1F10
:101300007C16FF1F0018FF1F4C07FF1F1017FF1F41
:101310007C07FF1F6407FF1F0016FF1F6C07FF1FDE
:101320004013FF1F3807FF1F0413FF1F4007FF1F55
:101330003C1AFF1F7007FF1F10B515219E489F4CD8
:101340002AF0B6FD9E482BF09DF90E219D482AF00B
:10135000AFFD21689A482BF0E5F999482BF092F9F6
:101360002368013B0A2B7AD8DFE803F01123364EBD
:101370007906060606632300934C2368013B032B82
:101380007BD8DFE813F0D700C900BB006D008F4B9E
:101390001868FFF7B5FC51EC100B2DF09FFD8C4A3F
:1013A000936D013B0446032B59D8DFE803F09E956B
:1013B0008C83864B1868FFF7A3FC51EC100B2DF0C3
:1013C0008DFD844A936D042B6CD8DFE813F06A001E
:1013D000230121011F01F3007F4C2368032B00F040
:1013E0001B81042B08D1794B1868FFF789FC51EC5D
:1013F000100B2DF073FDE061784B774819683422AB
:10140000BDE8104028F07EBB754C2368013B0D2BD6
:1014100025D8DFE813F0C400B900AE009D00240019
:1014200024002400240024002400C400B900AE00DD
:101430009D006C4C636C012B00F0F880022B00F0D7
:10144000FF80032B00F00681042B00F00D81664B1A
:10145000644819687022BDE8104028F053BB10BDE5
:101460005A4B1868FFF74CFC51EC100B2DF036FD71
:101470005E4A5F4BE063506258655E4B52481968A4
:10148000502228F03FFB5C4B58481968702228F026
:1014900039FB5A4B564819686C22BDE8104028F0B9
:1014A00031BB5061564B4B4819687822BDE810405B
:1014B00028F028BB534B5462454819687822BDE890
:1014C000104028F01FBB4F4B146241481968782226
:1014D000BDE8104028F016BB4A4BD4613C4819685F
:1014E0007822BDE8104028F00DBB464B9461384887
:1014F00019687822BDE8104028F004BB334B186807
:10150000FFF7FEFB51EC100B2DF0E8FC374A384B8F
:10151000A06310621865B0E72C4B1868FFF7F0FB6A
:1015200051EC100B2DF0DAFC304A314B6063D06186
:10153000D864A2E7254B1868FFF7E2FB51EC100BCB
:101540002DF0CCFC294A2A4B20639061986494E7E3
:101550001E4B1868FFF7D4FB51EC100B2DF0BEFCAE
:10156000294B206319681E485422BDE8104028F01A
:10157000C9BA164B1868FFF7C3FB51EC100B2DF0DE
:10158000ADFC214B6062EDE7104B1868FFF7B8FB2C
:1015900051EC100B2DF0A2FC1B4BA061E2E70B4BB2
:1015A0001868FFF7ADFB51EC100B2DF097FC164BB4
:1015B000E060D7E7506275E7403503004807FF1F3A
:1015C0001808FF1F583503001017FF1F0407FF1FDF
:1015D0000016FF1F4013FF1F0413FF1F4007FF1FCC
:1015E0004014FF1F3C1AFF1F7007FF1F7C16FF1FD0
:1015F0000018FF1F4C07FF1F7C07FF1F6407FF1F1A
:101600003807FF1F6C07FF1FFC06FF1F106249E72A
:10161000D06147E7906145E7184B1868FFF770FB0A
:1016200051EC100B2DF05AFCA061E5E6134B186845
:10163000FFF766FB51EC100B2DF050FCE06206E763
:101640000E4B1868FFF75CFB51EC100B2DF046FCBD
:101650002063FCE6094B1868FFF752FB51EC100BB6
:101660002DF03CFC6063F2E6044B1868FFF748FB82
:1016700051EC100B2DF032FCA063E8E60407FF1FCD
:101680006F4A92E80A0010B503FB01F307EE903AA7
:1016900092ED027AF8EE677A2DED028B67EE877A8B
:1016A00082B0044617EE900AB0EE408A2DF012F98F
:1016B00041EC100B2BF050FE51EC100B2DF00EFCFA
:1016C0000190601E04286CD8DFE800F01E324558F7
:1016D00003005C4B1A6883ED038A012A65D0DDEDB7
:1016E000017AF8EEE77A87EE887ABCEEC77A83ED66
:1016F000027A554B53481968102202B0BDEC028B98
:10170000BDE8104028F0FEB9504B1A6883ED038AFB
:10171000012A00F08680DDED017AB8EEE77AC7EEA7
:10172000087AFCEEE77AC3ED027A494B4748E2E7D4
:10173000484B1A6883ED038A012A63D0DDED017AF4
:10174000B8EEE77AC7EE087AFCEEE77AC3ED027AE4
:10175000414B4048CFE7414B1A6883ED038A012A89
:1017600041D0DDED017AB8EEE77AC7EE087AFCEEFB
:10177000E77AC3ED027A3A4B3848BCE7394B1A682E
:1017800083ED038A012A1FD0DDED017AB8EEE77AF6
:10179000C7EE087AFCEEE77AC3ED027A324B3148A5
:1017A000A9E702B0BDEC028B10BDDFED307A88EE08
:1017B000277ADDED017AF8EEE77A67EE877AFCEEBC
:1017C000E77AC3ED027A94E7DFED287A88EE277A8C
:1017D000DDED017AF8EEE77A67EE877AFCEEE77ADC
:1017E000C3ED027ADAE7DFED217A88EE277ADDEDC4
:1017F000017AF8EEE77A67EE877AFCEEE77AC3EDD6
:10180000027AB8E7DFED197A88EE277ADDED017A02
:10181000F8EEE77A67EE877AFCEEE77AC3ED027AB4
:1018200096E7DFED127A88EE277ADDED017AF8EEA1
:10183000E77A67EE877AFCEEE77AC3ED027A74E71F
:101840007C18FF1FCC12FF1F2C07FF1F9412FF1FD5
:101850001C07FF1F9C14FF1F2007FF1FB812FF1F4C
:101860002407FF1FE01AFF1F2807FF1F0000B443D3
:10187000F8B51D212DED028B564C08EE100A564886
:101880002AF016FB55482AF0FDFED4F8D800A0F146
:101890000A031D2B40F282802768636894ED027A68
:1018A0004F4D504AD5ED036A4F485049504E03FB07
:1018B00007F307EE903AF8EE677AB8EEC88A67EE5B
:1018C000877A002387EEA67A03600B601360C7EE69
:1018D000087A17EE900A2CF0FDFF41EC100B2BF06C
:1018E0003BFD51EC100B2DF0F9FA2B683060013BF9
:1018F000032B11D8DFE803F02F221302636D95ED5F
:10190000060A002B5ED0012B06D1FFF78FFB394B67
:10191000BDEEC00A83ED000ABDEC028BF8BD636B1F
:1019200095ED060A002B45D0012BF5D1FFF73AFBC8
:10193000304BBDEEC00A83ED000AEDE7D4F8B820C5
:10194000244BD5ED065A72BB93ED0A6A93ED097AE2
:10195000D3ED087A07E0D5ED065A94ED056A94EDCB
:10196000047AD4ED037A234CC5EE866AB8EE477A42
:10197000F8EE677A26EE877A67EE277A17EE900AF6
:101980002CF0A8FF41EC100B2BF0E6FC51EC100BF7
:101990002DF0A4FABDEC028B2060F8BDC0B200218E
:1019A00028F002FA78E793ED316A93ED307AD3EDBF
:1019B0002F7AD8E7FFF7C2F90E4BBDEEC00A83EDD0
:1019C000000AA9E7FFF754FA0A4BBDEEC00A83EDFF
:1019D000000AA1E77C18FF1F683503001808FF1FE5
:1019E0000018FF1F2814FF1F9414FF1F6019FF1F0A
:1019F000F81AFF1F9814FF1F094B1B68012B0BD00F
:101A0000032B05D003B17047014606482AF014BEE7
:101A1000014605482AF010BE014604482AF00CBED3
:101A20000407FF1F1808FF1FF807FF1FE807FF1F25
:101A300070B5064688B00D4632B1AF4BD3F8CC40F6
:101A4000012C00F02C810022AC4C236802930299F7
:101A500023680193019B5B1A092BF9D9042E00F22C
:101A6000F781DFE816F04E008A00BB00EC000500AD
:101A7000002D00F06D81A04B93F8A0100F2081F095
:101A8000010128F091F99E4904A82AF0C9FF00211C
:101A900004A8FFF7B1FF04A82AF082FF994904A81F
:101AA0002AF0BEFF04A80021FFF7A6FF04A82AF031
:101AB00077FF954B95481E6811212AF0F9F90F21FF
:101AC00093482AF02FFE924806F001062AF0DAFD2C
:101AD000112190482AF0ECF931468D482AF022FE77
:101AE0008B482AF0CFFD55B122688B4B04920499A4
:101AF0001A6823680393039B5B1A9A42F9D808B0CB
:101B000070BD002D00F044817B4B93F89C100420A5
:101B100081F0010128F048F9804904A82AF080FFEB
:101B2000002104A8FFF768FF04A82AF039FF7549CF
:101B300004A82AF075FF04A80021FFF75DFF04A8A0
:101B40002AF02EFF764B73481E681121C6F34036EB
:101B50002AF0AEF931466E482AF0E4FD6C482AF0CE
:101B600091FD16216F482AF0A3F9042168482AF054
:101B7000D9FD67482AF086FDAAE7002D00F02881EC
:101B80005D4B93F89D100E2081F0010128F00CF9B7
:101B9000654904A82AF044FF002104A8FFF72CFFA0
:101BA00004A82AF0FDFE574904A82AF039FF04A82A
:101BB0000021FFF721FF04A82AF0F2FE5B4B5C48EE
:101BC0001E6810212AF074F90E2151482AF0AAFD4E
:101BD0004F48C6F340062AF055FD79E7002D00F086
:101BE0001781454B93F89E10162081F0010128F0D3
:101BF000DBF8504904A82AF013FF002104A8FFF7DE
:101C0000FBFE04A82AF0CCFE3E4904A82AF008FFF7
:101C100004A80021FFF7F0FE04A82AF0C1FE3A4B09
:101C200045481E6810212AF043F9162138482AF049
:101C300079FD3748C6F340062AF024FD48E7002D19
:101C40003AD02D4B93F89F10112081F0010128F01C
:101C5000ABF83A4904A82AF0E3FE002104A8FFF7F4
:101C6000CBFE04A82AF09CFE264904A82AF0D8FE40
:101C700004A80021FFF7C0FE04A82AF091FE304B13
:101C800030481E6811212AF013F9112120482AF04A
:101C900049FD1F48C6F340062AF0F4FC18E710215E
:101CA00029482AF005F9214619482AF03BFD184831
:101CB0002AF0E8FC2246C7E6002AE0D10E4B1120AC
:101CC00093F89F1028F070F804A820492AF0A8FE85
:101CD000294604A8FFF790FE04A82AF061FE04A894
:101CE00008492AF09DFE04A82946FFF785FE04A8AE
:101CF0002AF056FEC3E700BF7C18FF1F241EFF1FFB
:101D000008370300BC35030090F00F40483703004C
:101D10001808FF1FE03503004407FF1F9C35030030
:101D200010F00F40F43503000C360300D0F00F40E4
:101D30004C36030060360300A0360300B4360300BF
:101D400050F00F40F436030088350300D43603000A
:101D5000002A7FF4AEAE3F4B0F2093F8A01028F07E
:101D600023F804A83C492AF05BFE294604A8FFF7A3
:101D700043FE04A82AF014FE04A838492AF050FEB5
:101D800004A82946FFF738FE04A82AF009FE90E6C9
:101D9000002A7FF4D7AE2F4B042093F89C1028F034
:101DA00003F804A82E492AF03BFE294604A8FFF7B1
:101DB00023FE04A82AF0F4FD04A828492AF030FEE6
:101DC00004A82946FFF718FE04A82AF0E9FDB9E6A1
:101DD000002A7FF4F3AE1F4B0E2093F89D1027F0DE
:101DE000E3FF04A81F492AF01BFE294604A8FFF7B9
:101DF00003FE04A82AF0D4FD04A818492AF010FE16
:101E000004A82946FFF7F8FD04A82AF0C9FDD5E685
:101E1000002A7FF404AF0F4B162093F89E1027F092
:101E2000C3FF04A810492AF0FBFD294604A8FFF7C8
:101E3000E3FD04A82AF0B4FD04A808492AF0F0FD47
:101E400004A82946FFF7D8FD04A82AF0A9FDE6E674
:101E500000263DE67C18FF1F28370300BC35030031
:101E6000C03503002C36030080360300F0B519217D
:101E700087B04448444E454F454D2AF019F845482F
:101E80002AF000FC4449454A454BDFF864C1D5F8C7
:101E9000D800DFF860E10024CCF804401C607460D6
:101EA000404B4C60404E41495460414A3C60346074
:101EB0000C60404F404E41491C605460404B414AC9
:101EC0003C6034600C6014603F4F404E4049414AD2
:101ED0001C60A0F10A031D2BCEF800403C6034606A
:101EE0000C70147037D90A213B4829F0E1FFD5F86E
:101EF000D810284800230A222AF0D4FB25482AF0CB
:101F0000C1FB364A13680193019913680093009B43
:101F10005B1A092BF9D902A831492AF081FD02A8E0
:101F20000021FFF769FD02A82AF03AFD2D4B02A817
:101F300019682AF075FD02A80021FFF75DFD02A8CF
:101F40002AF02EFD2A21284829F0B2FF11482AF054
:101F500099FB07B0F0BD2146C0B227F025FF95F8E8
:101F6000D80027F027FF0A210646204829F0A0FFC5
:101F7000234631460A2207482AF094FB05482AF0F6
:101F800081FBB0E75C3703006C17FF1FC014FF1F15
:101F90007C18FF1F1808FF1FA815FF1FE013FF1F65
:101FA000C414FF1F2014FF1F2814FF1F2C14FF1F31
:101FB0002C1BFF1F2414FF1F6C1BFF1FB01AFF1FD9
:101FC0006007FF1F3014FF1F0007FF1FFC15FF1FD6
:101FD000C812FF1F3C14FF1F84370300241EFF1F7D
:101FE000903703008C07FF1FAC37030078370300DE
:101FF000B017FF1F9414FF1FF0B5102185B0AF4834
:10200000AF4C29F055FFAF4B197819B92578002D41
:1020100000F00781AC48AD4F2AF084FB0221AC48A8
:1020200029F046FF2178A8482AF07CFBA6482AF030
:1020300029FB6C46A749A84DA84E20462AF0F0FC83
:1020400000212046FFF7D8FC20462AF0A9FC396879
:1020500020462AF0E5FC00212046FFF7CDFC204673
:102060002AF09EFC9E4920462AF0DAFC00212046F8
:10207000FFF7C2FC20462AF093FC396820462AF07C
:10208000CFFC00212046FFF7B7FC20462AF088FC51
:1020900095E8180003FB04F307EE903A326895EDDB
:1020A000027A9049DFED906A09689048F8EE677A05
:1020B00006EE102A67EE877AB8EEC66A4B1E86EEE9
:1020C000277A67EE267AC0ED007A032B00F2F480BF
:1020D000DFE803F06B4624026B6D7F4A012B00F2B0
:1020E000E780834CD16DD4ED007A936D92ED197A2F
:1020F000F8EEE77A03FB01F327EE877A07EE903AD2
:10210000F8EE677AC7EE276A7A4B01220021042095
:10211000C3ED006AFFF78CFC326862E06B6B6E4ABD
:10212000012B00F2C180724CD16BD4ED007A936B1D
:1021300092ED117AF8EEE77A03FB01F327EE877A46
:1021400007EE903AF8EE677AC7EE276A694B0122EC
:1021500000210320C3ED006AFFF76AFC326840E00B
:10216000634CD5F8B820D4ED007A5B4BF8EEE77AF3
:10217000002A00F09480D3F8C010D3F8BC20D3ED2F
:10218000316A5C4B02FB01F207EE102A67EEA67A79
:10219000B8EE477A0122C7EE876A00210220C3ED1C
:1021A000006AFFF745FC32681BE0514C2A69D4ED08
:1021B000007AEB6895ED057A4E4FF8EEE77A03FB6F
:1021C00002F327EE877A07EE903AF8EE677A01225B
:1021D000C7EE276A10460021C7ED006AFFF728FC0A
:1021E00032682168444B454C1B684548454F464E74
:1021F00049422160524200245B420260214620464F
:1022000001223B603460FFF713FCD5F8D800A0F141
:102210000A031D2B03D8C0B2012127F0C5FD05B06C
:10222000F0BD29462848294F2AF07CFA0221284887
:1022300029F03EFE217824482AF074FA22482AF038
:1022400021FA684631492AF0EBFB29466846FFF738
:10225000D3FB68462AF0A4FB396868462AF0E0FB05
:1022600029466846FFF7C8FB68462AF099FB68468E
:1022700027492AF0D5FB29466846FFF7BDFB68468B
:102280002AF08EFB396868462AF0CAFB6846294660
:10229000FFF7B2FB68466C462AF082FBCAE6596A31
:1022A0001A6AD3ED0A6A6CE7DFED1A6A104C4DE743
:1022B000DFED186A0E4C27E70D4C92E7D837030084
:1022C0003C14FF1FC812FF1F1808FF1F8C07FF1FB9
:1022D000286F0300143803007C18FF1F9414FF1F9D
:1022E000283803000018FF1F0000B4430C1AFF1F1A
:1022F0006019FF1F101AFF1F2814FF1F2414FF1F4F
:102300002014FF1F6C1BFF1FFC15FF1FEC37030081
:10231000003803000000000010B5F0EE407A002104
:10232000F2EE046ABDEEE77AB8EEC77AB4EE677AE9
:10233000F1EE10FA04D00131062967EEA67AF1D148
:10234000174B1B68012B1DD0032B0ED003B110BD02
:1023500010EE100ACCB22CF0BDFA41EC100B214665
:102360001048BDE810402AF0E7B910EE100ACCB2D0
:102370002CF0B0FA41EC100B21460B48BDE81040A0
:102380002AF0DAB910EE100ACCB22CF0A3FA41EC24
:10239000100B21460548BDE810402AF0CDB900BF1A
:1023A0000407FF1F1808FF1FF807FF1FE807FF1F9C
:1023B00007EE901AB8EEE76A07EE900AF8EEE76AC1
:1023C00010B586EE267ADFED327A2DED028B67EEC0
:1023D000277A84B017EE900A2CF07CFA41EC100BAF
:1023E0002AF02AFF51EC100B2CF0C0FD294B08EE0F
:1023F000100AF7EE007A1B68B4EEE78AF1EE10FAE5
:10240000A3F1030348BFB1EE488A6C46082B11D8EC
:10241000DFE803F0292C102F3235383B05001E4928
:1024200068462AF0FDFA20460021FFF7E5FA20462B
:102430002AF0B6FAB0EE480A0020FFF76DFF174BFE
:10244000204619682AF0ECFA00212046FFF7D4FA5A
:1024500020462AF0A5FAFDEEC87A17EE900A04B0DD
:10246000BDEC028B10BD68460D49DAE768460D49A0
:10247000D7E768460C49D4E768460C49D1E7684677
:102480000B49CEE768460B49CBE768460A49C8E7DF
:102490000000C8424807FF1F3C3803008C07FF1F9D
:1024A00058380300743803008C380300A438030044
:1024B000BC380300D4380300F0380300064B1B6817
:1024C000012B07D0032B03D003B1704729F074BD53
:1024D00028F06EBC27F0D2BF0407FF1FF8B50D4FE0
:1024E0000D4E0E4D0446014638462AF0A5F83846F2
:1024F0002AF0C8F8214630462AF09EF830462AF0E5
:10250000C1F8214628462AF097F82846BDE8F84049
:102510002AF0B8B81808FF1FE807FF1FF807FF1FC9
:10252000012808D0032804D008B10020704729F002
:1025300059BC28F08BBC28F03DB800BF38B5144C0E
:102540002068FFF7EDFF0C21C5B2124829F0B0FC5E
:10255000284629F031FD10482AF094F802E020685E
:10256000FFF7DEFF28F016F80028F8DCFEF720F869
:102570000028F4DC0421094829F09AFC2946064881
:102580002AF0D0F804482AF07DF8284638BD00BF6C
:102590000407FF1F083903001808FF1F183903003C
:1025A00008B527F0F7FF00282EDD1B4B1868FFF752
:1025B000B7FF1A4BC0B25328187001D0002008BDD5
:1025C000002108460122FFF733FA154B1B68013B37
:1025D000032B1FD8DFE803F002070C1101220021B2
:1025E0000220FFF725FA012200210220FFF720FA3E
:1025F000012200210320FFF71BFA01220021042001
:10260000FFF716FA012008BDFDF7D2FF0028CCDA4B
:10261000002008BD012008BD0407FF1FAC1AFF1FE2
:102620000018FF1F2DE9F0416C4C8CB02368039318
:10263000039A23680293029B684E9B1A0E2BF8D9CB
:10264000674D68480C2127F023FF2F6838462EF08D
:1026500077F80146384627F01BFF33680193019A4B
:1026600023680093009B9B1A0E2BF9D94FF48270BC
:1026700027F0E8FC27F08EFF00285B4E18DD0123D1
:102680000C215A48336029F013FC316858482AF06D
:1026900049F8574829F0F6FF0721564827F0F8FE79
:1026A0002F6838462EF04CF80146384627F0F0FEE9
:1026B0003368012B00F0848023680793079A23680E
:1026C0000693069B454F9B1A0E2BF8D90C214548C3
:1026D00028F0DCF8D5F8008040462EF031F80146AD
:1026E000404628F0D3F83B680593059A2368049385
:1026F000049B9B1A0E2BF9D94FF4827028F052F8E4
:1027000028F028F9002818DD02230C213A4833600C
:1027100029F0CEFB316836482AF004F8344829F015
:10272000B1FF0721334828F0B1F82F6838462EF062
:1027300007F80146384628F0A9F83368042B3FDD36
:1027400023680B930B9A23680A930A9B234F9B1AC7
:102750000E2BF8D90C21234828F034FBD5F8008043
:1027600040462DF0EDFF0146404628F02BFB3B682C
:102770000993099A23680893089B9B1A0E2BF9D991
:10278000822028F0CFF928F051FB002818DD032320
:102790000C211A48336029F08BFB3168144829F06A
:1027A000C1FF134829F06EFF0721124828F00AFBE9
:1027B0002C6820462DF0C4FF0146204628F002FB7D
:1027C0000A210F4829F074FB3168094829F0AAFF53
:1027D000074829F057FF0CB0BDE8F081241EFF1F09
:1027E0008C07FF1F203903000407FF1F3039030047
:1027F0001808FF1F40390300483903005839030007
:10280000683903002DE9F04FC64E97B001210D2025
:1028100027F0DEFA33680193019A33680093009B36
:102820009B1A0E2BF9D9C04BC0481C68C04D05211E
:1028300029F03EFB0A2221460023BE4829F032FF40
:10284000BC4829F01FFFFFF7EDFE0A21BA4829F026
:102850002FFBBA4BB748196829F064FFB54829F037
:1028600011FFB74B1B682F46C5EB03083C46E43508
:1028700008EB040027F02CF904F8010BA542F7D16E
:10288000DFF84893AF4DD9F80030AB46C5EB0308ED
:102890005C46783508EB040027F01AF904F8010BC0
:1028A000A542F7D13421A848A84D29F001FB002307
:1028B0000A22D9F800109F4829F0F4FE9D4829F01B
:1028C000E1FEA34B1B682A46C5EB030814465035AE
:1028D00008EB040027F0FCF804F8010BA542F7D13F
:1028E0009C4B9D4D1B68AA46C5EB030854467835A2
:1028F00008EB040027F0ECF804F8010BA542F7D12F
:10290000964B974C1D68A1462D1BC846343405EBE9
:10291000080027F0DDF808F8010B4445F7D1914B8A
:10292000914C1D68A0462D1B103405EB080027F0C4
:10293000CFF808F8010BA045F7D18C4B8C4C1D68E3
:10294000A0462D1B103405EB080027F0C1F808F84D
:10295000010B4445F7D1874B874C1D68A0462D1BC2
:10296000103405EB080027F0B3F808F8010B4445D4
:10297000F7D1824B824C1D68A0462D1B103405EB0D
:10298000080027F0A5F808F8010B4445F7D17D4B66
:102990007D4C1D68A0462D1B103405EB080027F068
:1029A00097F808F8010B4445F7D1784B784C1D682F
:1029B00023462D1B9846543405EB080027F088F871
:1029C00008F8010BA045F7D1724B734C1D682346E4
:1029D0002D1B9846703405EB080027F079F808F8AD
:1029E000010BA045F7D16D4B6D4C1D6823462D1B87
:1029F0009846703405EB080027F06AF808F8010BD8
:102A0000A045F7D1674B684C1D6823462D1B98469F
:102A10006C3405EB080027F05BF808F8010B44451F
:102A2000F7D113216148424C29F042FADBF85810E3
:102A3000404829F077FE3F4829F024FE12215C48E7
:102A400029F036FADAF858103A4829F06BFE39487E
:102A500029F018FE1A21574829F02AFA00230A22E1
:102A6000D9F80410334829F01DFE324829F00AFE37
:102A70001321514829F01CFA454B2E4819680A22A7
:102A8000002329F00FFE2B4829F0FCFD13214B48B1
:102A900029F00EFA2D4B274819680A22002329F045
:102AA00001FE244829F0EEFD1221454829F000FAE4
:102AB0003B4B2048596D0A22002329F0F3FD1D48A5
:102AC00029F0E0FD17213F4829F0F2F9364B19486B
:102AD00019680A22002329F0E5FD164829F0D2FDE5
:102AE0001321394829F0E4F92B4B1248596C0A227A
:102AF000002329F0D7FD0F4829F0C4FD01210A2049
:102B000027F066F901210A2027F04EF9012109205A
:102B100027F05EF90121092027F046F9FDF7D0FFE3
:102B2000012155E0241EFF1F8422FF1F743903007A
:102B30007C18FF1F1808FF1F683903000407FF1FD8
:102B4000F815FF1F0016FF1F7C3903001017FF1F29
:102B50004C07FF1F3807FF1F4013FF1F4007FF1FD1
:102B60000413FF1F1C07FF1F9412FF1F2007FF1FE6
:102B70009C14FF1F2407FF1FB812FF1F2807FF1F09
:102B8000E01AFF1F2C07FF1FCC12FF1FFC06FF1FC0
:102B90004014FF1F7007FF1F3C1AFF1F7C07FF1F19
:102BA0007C16FF1F6407FF1F0018FF1FB4390300C6
:102BB000C8390300DC390300F83903000C3A03007C
:102BC000203A0300343A03004C3A03006C07FF1F1D
:102BD000042027F0FDF801210E2027F0F9F801214B
:102BE000162027F0F5F80121112027F0F1F8002137
:102BF00008460122FEF71CFF012210460021FEF7C5
:102C000017FF012200210220FEF712FF01220021FE
:102C10000320FEF70DFFD7F8E030052B00F03F81D1
:102C2000BD4B01221A60B869A0F10A031D2B40F2C6
:102C3000A480F869A0F10A031D2B40F2B680F86A5F
:102C4000092800F2C880386B092800F2DB80F86C94
:102C5000092800F2EE80386D092800F20181D7F8CA
:102C6000D800AE4CA0F10A031D2B7ED8C0B20121C2
:102C700027F0AEF8012194F8D80027F095F894F8E1
:102C8000D80027F097F80A210446A54829F010F942
:102C9000214600230A22A34829F004FDA14829F077
:102CA000F1FC33681393139A33681293129B9B1AA7
:102CB000092BF9D9D7F8D000984CA0F10A031D2BA5
:102CC00040F2E28033681593159A33681493149B8D
:102CD0009B1A092BF9D9002101220846FEF7A8FE0C
:102CE000D7ED106A97ED027A8F4C9048C6EE877A3E
:102CF0001F21C4ED007A29F0DBF8B8682BF0EAFD5B
:102D000041EC100B0521874829F016FD854829F074
:102D1000B9FC1E21864829F0CBF8386C2BF0DAFD7F
:102D200041EC100B05217F4829F006FD7D4829F074
:102D3000A9FC0F217F4829F0BBF820682BF0CAFDC1
:102D400041EC100B0521774829F0F6FC754829F075
:102D500099FC0E21784829F0ABF8724829F092FCD2
:102D6000FDF732FE17B0BDE8F08F1821734829F047
:102D70009FF86C4829F086FC93E7C0B2022127F047
:102D800027F833680793079A33680693069B9B1AC4
:102D9000092BF9D9387E97F8D41027F005F8F8698F
:102DA000A0F10A031D2B3FF64AAFC0B2022127F063
:102DB0000FF833680993099A33680893089B9B1AA4
:102DC000092BF9D9387F97F8D41026F0EDFFF86A6F
:102DD00009287FF638AFC0B2022126F0F9FF336828
:102DE0000B930B9A33680A930A9B9B1A092BF9D908
:102DF00097F82C0097F8D41026F0D6FF386B0928E6
:102E00007FF625AFC0B2022126F0E2FF33680D93B2
:102E10000D9A33680C930C9B9B1A092BF9D997F8E0
:102E2000300097F8D41026F0BFFFF86C09287FF621
:102E300012AFC0B2022126F0CBFF33680F930F9A76
:102E400033680E930E9B9B1A092BF9D997F84C0007
:102E500097F8D41026F0A8FF386D09287FF6FFAE4A
:102E6000C0B2022126F0B4FF33681193119A33687F
:102E70001093109B9B1A092BF9D997F8D41097F847
:102E8000500026F091FFEAE6C0B2022126F0A0FF32
:102E900094F8D41094F8D00026F086FF12E70121B0
:102EA0000F2026F095FF042001220021FEF7C0FD2F
:102EB000E06EA0F10A031D2B19D9386FA0F10A03A7
:102EC0001D2B3FF6B0AEC0B2022126F081FF336861
:102ED0000593059A33680493049B9B1A092BF9D92F
:102EE00097F8D41097F8700026F05EFF9BE6C0B20A
:102EF000022126F06DFF33680393039A336802932F
:102F0000029B9B1A092BF9D997F8D41097F86C00FB
:102F100026F04AFFD1E700BF88F00F407C18FF1F62
:102F2000783703001808FF1FB81AFF1F7C3A030008
:102F30009C3A0300BC3A0300CC3A0300603A030019
:102F40002DE9F8431C214848484E28F0B1FF484875
:102F500029F098FB0E21474828F0AAFF3168444821
:102F600029F0E0FB424829F08DFB3368092B78D02B
:102F70001A2B74D0032B5FD03F4FDFF80C91002544
:102F800008E01A2B45D0032B01D13C4BEC54013502
:102F90000D2D32D03868FFF7C3FA0721C4B2384884
:102FA00028F086FF204629F007F8314829F06AFB0F
:102FB000FF2C48D03368092BE3D11121314805F8A3
:102FC000094028F075FF30482DF0BAFB01462E4825
:102FD00028F06EFF264829F055FB1A212B4828F0CF
:102FE00067FF00230A220D21214829F05BFB0135F0
:102FF0001F4829F047FB0D2DCCD10721204828F090
:1030000057FF204628F0D8FF1948BDE8F84329F0BB
:1030100039BBDFF884801E4805F808400D2128F0F0
:1030200047FF40462DF08CFB0146404628F040FF0C
:103030000F4829F027FBAAE7104B00221A605A60BC
:103040009A601A7398E70321124828F031FF294645
:10305000074829F067FB064829F014FBCDE70E4B23
:10306000EBE7094BE9E700BFDC3A03004807FF1F25
:103070001808FF1F583503000407FF1F2C1AFF1FF5
:10308000FC3A0300083B0300F017FF1F1C3B030042
:10309000383B0300043B0300DC12FF1F2DE9F0471F
:1030A0002DED028BADF5B16DB649074601A829F0AB
:1030B000B7FCB54905A829F0B3FC40F21452002131
:1030C0001DA82CF047FE0DA80123B04AB04924F0FA
:1030D0007FF800260FE00121AC4828F0E9FEAD485A
:1030E00029F0D0FA15A823F0B1FF09A829F058FC5F
:1030F00015A823F08BFF01220DA915A824F0DCF8F8
:1031000015A823F085FF014609A829F089FC15A818
:1031100023F0AAFF044698B115A823F07BFF0028EE
:10312000D9D101A909A829F095FD0028C0F2DB81B9
:103130001521994828F0BCFE964829F0A3FAD1E75A
:1031400013219648964D28F0B3FE924829F09AFA3A
:1031500009A829F025FC15A823F058FF914915A8C6
:1031600029F05EFC214615A8FEF746FC15A829F0BB
:1031700017FC07EE906AB8EEE78A2046B0EE480AE0
:10318000FFF7CAF8296815A829F04AFC214615A8B6
:10319000FEF732FC15A829F003FC834915A829F095
:1031A0003FFC214615A8FEF727FC15A829F0F8FBDF
:1031B000B0EE480A2046FFF7AFF8296815A829F0B5
:1031C0002FFC214615A8FEF717FC15A829F0E8FBEF
:1031D0000C21764828F06CFE31466E4829F0A2FAA0
:1031E0006C4829F04FFA1DAD28462DF0A9FA01468A
:1031F000284628F05DFE674829F044FA0A216C4809
:1032000028F056FE0134634829F03CFAA64205F145
:103210000D05E9DA07EB470507EB85056FF00C08AC
:103220001DABDFF8B49108FB07F81D44013F0126F0
:10323000741E03215F4828F03BFE2146554829F0C3
:1032400071FA08EB050A03215B4828F031FE50466D
:103250002DF076FA0146504628F02AFE07EB060AC2
:103260001321564828F024FE51464A4829F05AFABC
:10327000B41E484829F006FA052C07D8DFE814F0F8
:10328000AE007F007D007B004300E7004C4915A89D
:1032900029F0C6FB002115A8FEF7AEFB15A829F002
:1032A0007FFB484915A829F0BBFB002115A8FEF7B4
:1032B000A3FB15A829F074FB294615A829F0B0FB3B
:1032C000002115A8FEF798FB15A829F069FB2846F0
:1032D0002DF036FA0146284628F0EAFD2D4829F05F
:1032E000D1F9D9F8001015A829F09AFB002115A8EA
:1032F000FEF782FB15A829F053FB072E00F0E480AF
:1033000001360D3594E7304915A829F089FB0021D5
:1033100015A8FEF771FB15A829F042FB294915A84D
:1033200029F07EFB002115A8FEF766FB15A829F001
:1033300037FB294615A829F073FB002115A8FEF7D5
:103340005BFB15A829F02CFB28462DF0F9F9014666
:10335000284628F0ADFD0F4829F094F9D9F800105F
:1033600015A829F05DFB15A80021FEF745FB15A85F
:1033700029F016FBC4E71549C6E71549C4E7154906
:10338000C2E700BF483B0300503B0300583B03002B
:10339000701BFF1F1808FF1F9C3C03005C3B0300D1
:1033A0008C07FF1F703B0300903B0300A83B03000A
:1033B000B83B0300D43B0300286A0300C43B03006E
:1033C000D83B0300F03B03006C3C0300543C03007B
:1033D0003C3C0300243C03008807FF1F554915A807
:1033E00029F01EFB002115A8FEF706FB15A829F001
:1033F000D7FA514915A829F013FB002115A8FEF7AB
:10340000FBFA15A829F0CCFA294615A829F008FBE3
:10341000002115A8FEF7F0FA15A829F0C1FA2846F0
:103420002DF08EF90146284628F042FD434829F048
:1034300029F9D9F8001015A829F0F2FA002115A8E9
:10344000FEF7DAFA15A829F0ABFA3D495CE73D49E9
:1034500015A829F0E5FA002115A8FEF7CDFA15A860
:1034600029F09EFA344915A829F0DAFA002115A8A6
:10347000FEF7C2FA15A829F093FA0AEB4A030AEB01
:10348000830A1DAB9A44514615A829F0C9FA0021B8
:1034900015A8FEF7B1FA15A829F082FA50462DF0CA
:1034A0004FF90146504628F003FD244829F0EAF878
:1034B000D9F8001015A829F0B3FA15A80021FEF7D5
:1034C0009BFA15A829F06CFA0DA823F09FFD05A81A
:1034D00029F066FA01A829F063FA0DF5B16DBDEC8B
:1034E000028BBDE8F08705A909A829F0B3FB0028E5
:1034F000BFF61EAE15A823F08BFD04462DF020F973
:103500000146204628F0D4FC0C4829F0BBF8622E76
:1035100001DD0136E6E515A823F07AFD06EB46034A
:1035200006EB830301461DA80D2218442DF0C6F9B1
:10353000EFE700BFF43B0300F03B03001808FF1F58
:103540000C3C0300843C03002DE9F04F99B0064683
:1035500008A823F04DFDBE49684629F061FA88208D
:1035600029F050F80823102280E80C00C71800F159
:1035700088083D463C4620460021103429F050FA88
:10358000A045F8D11A21B34828F092FCB24829F09E
:1035900079F810A80123B14AB14923F019FE129A13
:1035A0009DF84C309DF844100A928DF82C308DF81F
:1035B000241013AA0DF12D030DF13A0012F8011F8A
:1035C00003F8011B8342F9D1179B0F9310A823F036
:1035D0001DFD08A823F048FD002800F00D8108A873
:1035E00023F030FD0A2104469E48DFF8B0A228F0FF
:1035F0005FFC00230A222146974829F053F8964899
:1036000029F040F80921984828F052FC31469248A8
:1036100029F088F8904829F035F80D21934828F0D2
:1036200047FCDAF800108C4829F07CF88A4829F029
:1036300029F8002E00F0CE8016F1060900F1E9808D
:103640000024A34616E08A4828F032FC824829F07C
:1036500019F810A823F008FD013C8046002872D01C
:1036600010A823F0F3FC013410A823F0CFFCA145EF
:10367000C0F2CF80012208A910A823F01DFE214628
:10368000754829F04FF802217A4828F011FC10A85B
:1036900023F0BEFC80462DF053F80146404628F04A
:1036A00007FC6D4828F0EEFF10A823F0B3FC1121B1
:1036B0000028C8D110A823F0ABFC014604A829F0CB
:1036C000AFF90E216C4828F0F3FB04A9624828F0FA
:1036D000B3FF1221694828F0EBFB694604A829F0E2
:1036E000B9FA01465C4829F01DF85B4828F0CAFF8A
:1036F000694604A829F0AEFA002801DBA6426FDD76
:103700000A215F4828F0D4FB2146534829F00AF8E3
:1037100003215C4828F0CCFB10A823F079FC8046FC
:103720002DF00EF80146404628F0C2FB0321554813
:1037300028F0BEFB04A829F033F910A823F094FC6C
:10374000804600288CD10F214F48504E28F0B0FB06
:103750002146414828F0E6FF03214A4828F0A8FB0B
:10376000DAF800103C4828F0DDFF04F108030321DB
:103770004448CAF8003028F09BFBDAF800103648BD
:1037800028F0D0FF344828F07DFF04A8404929F0F4
:1037900047F9414604A8FEF72FF904A829F000F9DB
:1037A0002220FEF78BFE631E00EE103A4046B8EE74
:1037B000C00AFEF7B1FD316804A829F031F941468D
:1037C00004A8FEF719F904A829F0EAF810A823F0D4
:1037D0001DFC1FE06423CAF800304FF006092FE7F4
:1037E00010A823F015FC07EB0B180146404629F002
:1037F0008BF90BF1010B83E70E21264828F058FBCB
:10380000684629F0CDF808A823F000FC19B0BDE8FF
:10381000F08F1E4E01277C1E03211F4828F048FB15
:1038200021460D4828F07EFF0321164828F040FB72
:103830002946094828F000FFBC1E074828F022FF4F
:10384000052C2DD8DFE804F0908E8C8A5D9200BFA5
:10385000B43C0300BC3C03001808FF1F583B0300A6
:10386000701BFF1FD83C0300E43C0300F03C030046
:10387000103D03008C370300243D0300343D03005A
:10388000483D0300286A0300543D03008807FF1FDA
:10389000643D0300003D0300D43B03000807FF1F05
:1038A000494910A829F0BCF8002110A8FEF7A4F897
:1038B00010A829F075F8454910A829F0B1F80021A1
:1038C00010A8FEF799F810A829F06AF8294610A860
:1038D00029F0BAF8002110A8FEF78EF810A829F0F8
:1038E0005FF8316810A829F09BF8002110A8FEF7B6
:1038F00083F810A829F054F8072F81D0103501372C
:1039000089E7334910A829F08BF8002110A8FEF7A9
:1039100073F810A829F044F82C4910A829F080F871
:10392000002110A8FEF768F810A829F039F82946F8
:1039300010A829F089F8002110A8FEF75DF810A85A
:1039400029F02EF8316810A829F06AF810A8002193
:10395000FEF752F810A829F023F8CFE71D49D1E768
:103960001D49CFE71D49CDE71D49CBE71D4910A8EB
:1039700029F056F8002110A8FEF73EF810A829F00B
:103980000FF8124910A829F04BF8002110A8FEF7F3
:1039900033F810A829F004F8294610A829F054F8A3
:1039A000002110A8FEF728F810A828F0F9FF3168C8
:1039B00010A829F035F810A80021FEF71DF810A86E
:1039C00028F0EEFF1CE700BFD83B0300F03B0300EC
:1039D0006C3C0300543C03003C3C0300243C0300CB
:1039E000F43B0300843C030008B5084BDFED080AF4
:1039F000D3ED007A27EE800A29F0AEFD29F004FD10
:103A0000044BD3ED007A20EE270A08BD7816FF1F7D
:103A1000DB0FC940A415FF1F08B5304A304B92EDAB
:103A2000010A93ED007ADFED2F6A2F4BB8EEC77ACB
:103A30005B6CC6EE877A013BB8EEC00A2DED028BB7
:103A400027EE800A032B45D8DFE803F03E38320228
:103A5000264B93ED018AB8EEC88AFFF7C5FF244ACA
:103A6000244B92ED007A002283F8902072B6DFEDAD
:103A7000227A93ED206AD3ED1F6A30EE480AB8EE41
:103A8000C77AC0EE275AC5EE877A67EE867AF4EEDB
:103A9000E67AC3ED1E7AD3ED227AF1EE10FAD8BFA2
:103AA000F1EE677AC3ED237A62B6BDEC028B08BDF6
:103AB000124B93ED018AB8EEC88ACEE7104B93ED16
:103AC000018AB8EEC88AC8E70E4B93ED018AB8EEBA
:103AD000C88AC2E79FED0C8ABFE700BF2C1BFF1FFF
:103AE000201BFF1FDB0FC9403C1AFF1FE013FF1F05
:103AF000CC13FF1F6419FF1FCDCCCC3CA815FF1FB2
:103B00006C17FF1FB017FF1F000000002DE9F041E8
:103B1000C54BBEB01D6805AC2D1B3EAE281925F067
:103B2000D7FF04F8010BA642F8D1C049C04CC14EE2
:103B3000C14DC24F01A828F073FF002101A8FDF775
:103B40005BFF01A828F02CFF2220FEF7B7FCDDED7B
:103B5000057A0020B8EE670AFEF7DEFB216801A8AF
:103B600028F05EFF002101A8FDF746FF01A828F01C
:103B700017FFB34901A828F053FF002101A8FDF762
:103B80003BFF01A828F00CFF2220FEF797FCDDED9B
:103B9000067A0020B8EE670AFEF7BEFB216801A88E
:103BA00028F03EFF002101A8FDF726FF01A828F01C
:103BB000F7FEA44901A828F033FF002101A8FDF772
:103BC0001BFF01A828F0ECFE2220FEF777FC9DEDFC
:103BD000070A0420FEF7A0FB216801A828F020FFB7
:103BE000002101A8FDF708FF01A828F0D9FE964999
:103BF00001A828F015FF002101A8FDF7FDFE01A88E
:103C000028F0CEFE2220FEF759FC9DF8B01001A846
:103C1000002914BF3146294628F002FF002101A8DF
:103C2000FDF7EAFE01A828F0BBFE216801A828F0F4
:103C3000F7FE002101A8FDF7DFFE01A828F0B0FE85
:103C4000824901A828F0ECFE002101A8FDF7D4FE6E
:103C500001A828F0A5FE2220FEF730FCDDED087A51
:103C60000020B8EE670AFEF757FB216801A828F08C
:103C7000D7FE002101A8FDF7BFFE01A828F090FEA5
:103C8000734901A828F0CCFE002101A8FDF7B4FE7D
:103C900001A828F085FE2220FEF710FCDDED097A50
:103CA0000020B8EE670AFEF737FB216801A828F06C
:103CB000B7FE002101A8FDF79FFE01A828F070FEC5
:103CC000644901A828F0ACFE002101A8FDF794FE8C
:103CD00001A828F065FE2220FEF7F0FBDDF8288021
:103CE000062000EE108AFEF717FB216801A828F0D5
:103CF00097FE002101A8FDF77FFE01A828F050FEE5
:103D00002321554828F0D4F878692AF0E3FD41ECE6
:103D1000100B0821514828F00FFD504828F0B2FC44
:103D200027214F4828F0C4F840462AF0D3FD41EC43
:103D3000100B0821494828F0FFFC484828F0A2FC55
:103D4000484901A828F06CFE002101A8FDF754FEA7
:103D500001A828F025FE2220FEF7B0FB9DF8B11047
:103D600001A8002914BF3146294628F059FE002138
:103D700001A8FDF741FE01A828F012FE216801A864
:103D800028F04EFE002101A8FDF736FE01A828F01C
:103D900007FE354901A828F043FE002101A8FDF7E0
:103DA0002BFE01A828F0FCFD2220FEF787FBDDEDAD
:103DB0000D7A0020B8EE670AFEF7AEFA216801A876
:103DC00028F02EFE002101A8FDF716FE01A828F01C
:103DD000E7FD264901A828F023FE002101A8FDF7F0
:103DE0000BFE01A828F0DCFD2220FEF767FBDDEDCD
:103DF0000E7A0020B8EE670AFEF78EFA216801A855
:103E000028F00EFE002101A8FDF7F6FD01A828F01C
:103E1000C7FD174901A828F003FE002101A8FDF7FE
:103E2000EBFD01A826E000BFF815FF1F843D03004D
:103E30008807FF1F783D03007C3D03007C18FF1FAF
:103E40009C3D0300B43D0300CC3D0300E43D030072
:103E5000F43D0300043E0300143E03001808FF1F56
:103E6000383E0300603E0300703E0300803E0300C6
:103E7000903E030028F094FD2220FEF71FFB9DEDED
:103E80000F0A0520FEF748FA216801A828F0C8FDAE
:103E9000002101A8FDF7B0FD01A828F081FDC2496D
:103EA00001A828F0BDFD002101A8FDF7A5FD01A88E
:103EB00028F076FD2220FEF701FB9DF8B21001A844
:103EC000002914BF3146294628F0AAFD002101A887
:103ED000FDF792FD01A828F063FD216801A828F0F4
:103EE0009FFD002101A8FDF787FD01A828F058FDDE
:103EF000AE4901A828F094FD002101A8FDF77CFD42
:103F000001A828F04DFD2220FEF7D8FADDED347A25
:103F10000020B8EE670AFEF7FFF9216801A828F033
:103F20007FFD002101A8FDF767FD01A828F038FDFD
:103F30009F4901A828F074FD002101A8FDF75CFD50
:103F400001A828F02DFD2220FEF7B8FADDED357A24
:103F50000020B8EE670AFEF7DFF9216801A828F013
:103F60005FFD002101A8FDF747FD01A828F018FD1D
:103F7000904901A828F054FD002101A8FDF73CFD5F
:103F800001A828F00DFD2220FEF798FA9DED360AD3
:103F90000520FEF7C1F9216801A828F041FD0021A4
:103FA00001A8FDF729FD01A828F0FAFC824901A823
:103FB00028F036FD002101A8FDF71EFD01A828F01C
:103FC000EFFC2220FEF77AFA9DF8DC1001A8002908
:103FD00014BF3146294628F023FD002101A8FDF732
:103FE0000BFD01A828F0DCFC216801A828F018FDD1
:103FF00001A80021FDF700FD01A828F0D1FC339BAA
:10400000012B00F023836D496D4D01A828F008FDB8
:10401000002101A8FDF7F0FC01A828F0C1FC2968E7
:1040200001A828F0FDFC002101A8FDF7E5FC01A88E
:1040300028F0B6FC634901A828F0F2FC002101A891
:10404000FDF7DAFC01A828F0ABFC296801A828F0EC
:10405000E7FC002101A8FDF7CFFC01A828F0A0FC97
:10406000594901A828F0DCFC002101A8FDF7C4FC97
:1040700001A828F095FC296801A828F0D1FC0021AE
:1040800001A8FDF7B9FC01A828F08AFC4F4901A856
:1040900028F0C6FC002101A8FDF7AEFC01A828F01D
:1040A0007FFC296801A828F0BBFC002101A8FDF7CE
:1040B000A3FC01A828F074FC454901A828F0B0FC35
:1040C000002101A8FDF798FC01A828F069FC222036
:1040D000FEF7F4F9DDED137A0020B8EE670AFEF77B
:1040E0001BF9216801A828F09BFC002101A8FDF71D
:1040F00083FC01A828F054FC364901A828F090FC64
:10410000002101A8FDF778FC01A828F049FC222035
:10411000FEF7D4F9DDED147A0020B8EE670AFEF759
:10412000FBF8216801A828F07BFC002101A8FDF71D
:1041300063FC01A828F034FC274901A828F070FC92
:10414000002101A8FDF758FC01A828F029FC222035
:10415000FEF7B4F99DED150A0420FEF7DDF821689D
:1041600001A828F05DFC002101A8FDF745FC01A88D
:1041700028F016FC194901A828F052FC002101A8DA
:10418000FDF73AFC01A828F00BFC2220FEF796F977
:10419000134A144B9DF8B31001A8002914BF11460F
:1041A000194628F03DFC1FE0A03E0300B03E03008E
:1041B000C83E0300E03E0300F83E0300603F0300FA
:1041C0008C07FF1F703F0300803F0300983F0300F0
:1041D000B03F0300C83F0300E03F0300F83F030087
:1041E000783D03007C3D0300002101A8FDF704FC9D
:1041F00001A828F0D5FB216801A828F011FC0021B6
:1042000001A8FDF7F9FB01A828F0CAFB129E002EB9
:1042100000F0AB81C04901A828F002FC002101A8F0
:10422000FDF7EAFB01A828F0BBFB296801A828F0EC
:10423000F7FB002101A8FDF7DFFB01A828F0B0FB88
:10424000B64901A828F0ECFB002101A8FDF7D4FB3A
:1042500001A828F0A5FB296801A828F0E1FB01A826
:104260000021FDF7C9FB01A828F09AFBAC4901A881
:1042700028F0D6FB002101A8FDF7BEFB01A828F01D
:104280008FFB2220FEF71AF99DED160A0420FEF797
:1042900043F8216801A828F0C3FB002101A8FDF71D
:1042A000ABFB01A828F07CFB9E4901A828F0B8FBD5
:1042B000002101A8FDF7A0FB01A828F071FB222036
:1042C000FEF7FCF8DDED1B7A0020B8EE670AFEF77A
:1042D00023F8216801A828F0A3FB002101A8FDF71D
:1042E0008BFB01A828F05CFB8F4901A828F098FB04
:1042F000002101A8FDF780FB01A828F051FB222036
:10430000FEF7DCF897ED170A0020B8EE400AFEF73A
:1043100003F8216801A828F083FB002101A8FDF71C
:104320006BFB01A828F03CFB804901A828F078FB32
:10433000002101A8FDF760FB01A828F031FB222035
:10434000FEF7BCF89DED1D0A0520FDF7E5FF21688D
:1043500001A828F065FB002101A8FDF74DFB01A88D
:1043600028F01EFB724901A828F05AFB002101A881
:10437000FDF742FB01A828F013FB2220FEF79EF870
:104380006C4A6D4B9DF8B41001A8002914BF11466A
:10439000194628F045FB002101A8FDF72DFB01A8D7
:1043A00028F0FEFA216801A828F03AFB002101A8B4
:1043B000FDF722FB01A828F0F3FA1A9E002E00F068
:1043C00001815E4901A828F02BFB002101A8FDF71F
:1043D00013FB01A828F0E4FA296801A828F020FBC3
:1043E000002101A8FDF708FB01A828F0D9FA5449DB
:1043F00001A828F015FB002101A8FDF7FDFA01A88E
:1044000028F0CEFA296801A828F00AFB01A80021AB
:10441000FDF7F2FA01A828F0C3FA4A4901A828F0EA
:10442000FFFA002101A8FDF7E7FA01A828F0B8FA81
:104430002220FEF743F89DED1E0A0420FDF76CFFD5
:10444000216801A828F0ECFA002101A8FDF7D4FAB0
:1044500001A828F0A5FA3C4901A828F0E1FA0021BA
:1044600001A8FDF7C9FA01A828F09AFA2220FEF760
:1044700025F8DDED3B7A0020B8EE670AFDF74CFF2A
:10448000216801A828F0CCFA002101A8FDF7B4FAB0
:1044900001A828F085FA389C002C00F0C0802B4938
:1044A00001A828F0BDFA002101A8FDF7A5FA01A88E
:1044B00028F076FA296801A828F0B2FA01A80021AC
:1044C000FDF79AFA01A828F06BFA214901A828F013
:1044D000A7FA002101A8FDF78FFA01A828F060FAD9
:1044E000296801A828F09CFA002101A8FDF784FAA8
:1044F00001A828F055FA174901A828F091FA0021DF
:1045000001A8FDF779FA01A828F04AFA296801A85C
:1045100028F086FA00211FE0104003002840030025
:104520007040030088400300A0400300B84003002F
:10453000D0400300783D03007C3D0300E8400300C9
:10454000004103004841030060410300884103002B
:104550009C410300B441030001A8FDF74DFA01A8F6
:1045600028F01EFA3EB0BDE8F0815B4901A828F0B2
:1045700057FA314601A8FDF73FFA01A828F010FAD2
:10458000296801A828F04CFA314601A8FDF734FA51
:1045900001A828F005FA514901A828F041FA31464E
:1045A00001A8FDF729FA01A828F0FAF9296801A85D
:1045B00028F036FA01A83146FDF71EFA01A828F0C6
:1045C000EFF953E6464901A828F02AFA314601A836
:1045D000FDF712FA01A828F0E3F9296801A828F0EC
:1045E0001FFA314601A8FDF707FA01A828F0D8F90B
:1045F0003C4901A828F014FA314601A8FDF7FCF95E
:1046000001A828F0CDF9296801A828F009FA01A825
:104610003146FDF7F1F901A828F0C2F9FDE632496B
:1046200001A828F0FDF9214601A8FDF7E5F901A848
:1046300028F0B6F9296801A828F0F2F901A8214666
:10464000FDF7DAF901A828F0ABF93EE72749284D34
:1046500001A828F0E5F9002101A8FDF7CDF901A88E
:1046600028F09EF9296801A828F0DAF9002101A8AC
:10467000FDF7C2F901A828F093F91E4901A828F016
:10468000CFF9002101A8FDF7B7F901A828F088F9B2
:10469000296801A828F0C4F9002101A8FDF7ACF9A8
:1046A00001A828F07DF9144901A828F0B9F90021E2
:1046B00001A8FDF7A1F901A828F072F9296801A85D
:1046C00028F0AEF9002101A8FDF796F901A828F01D
:1046D00067F90A49DBE400BF40400300584003008B
:1046E000184103003041030074410300103F0300F0
:1046F0008C07FF1F203F0300303F0300483F0300AB
:1047000070B5C54BC0B01D6807AC2D1B40AE281955
:1047100025F0DEF904F8010BA642F8D1BF4A136870
:104720000293029913680193019B5B1AC72BF9D975
:10473000BB49BC4CBC4D03A828F072F9002103A86A
:10474000FDF75AF903A828F02BF92220FDF7B6FE51
:10475000D4ED067A0020B8EE670AFDF7DDFD296882
:1047600003A828F05DF9002103A8FDF745F903A887
:1047700028F016F9AD4903A828F052F9002103A842
:10478000FDF73AF903A828F00BF92220FDF796FE71
:10479000D4ED077A0020B8EE670AFDF7BDFD296861
:1047A00003A828F03DF9002103A8FDF725F903A887
:1047B00028F0F6F89E4903A828F032F9002103A852
:1047C000FDF71AF903A828F0EBF82220FDF776FE92
:1047D000D4ED0B7A0020B8EE670AFDF79DFD29683D
:1047E00003A828F01DF9002103A8FDF705F903A887
:1047F00028F0D6F88F4903A828F012F9002103A861
:10480000FDF7FAF803A828F0CBF82220FDF756FEB2
:10481000D4ED0C7A0020B8EE670AFDF77DFD29681B
:1048200003A828F0FDF8002103A8FDF7E5F803A888
:1048300028F0B6F8804903A828F0F2F8002103A870
:10484000FDF7DAF803A828F0ABF82220FDF736FED2
:10485000D4ED137A0020B8EE670AFDF75DFD2968F4
:1048600003A828F0DDF8002103A8FDF7C5F803A888
:1048700028F096F8714903A828F0D2F8002103A87F
:10488000FDF7BAF803A828F08BF82220FDF716FEF2
:10489000D4ED147A0020B8EE670AFDF73DFD2968D3
:1048A00003A828F0BDF8002103A8FDF7A5F803A888
:1048B00028F076F8624903A828F0B2F8002103A88E
:1048C000FDF79AF803A828F06BF82220FDF7F6FD13
:1048D000D4ED1B7A0020B8EE670AFDF71DFD2968AC
:1048E00003A828F09DF8002103A8FDF785F803A888
:1048F00028F056F80921534827F0DAFA00230A2253
:10490000E16E514827F0CEFE4F4827F0BBFE4F49DD
:1049100003A828F085F8002103A8FDF76DF803A887
:1049200028F03EF82220FDF7C9FDD4ED1C7A0020C6
:10493000B8EE670AFDF7F0FC296803A828F070F8C4
:10494000002103A8FDF758F803A828F029F8092149
:104950003F4827F0ADFA00230A22216F3A4827F09A
:10496000A1FE394827F08EFE3A4903A828F058F8EE
:10497000002103A8FDF740F803A828F011F8222031
:10498000FDF79CFDD4ED347A0020B8EE670AFDF700
:10499000C3FC296803A828F043F8002103A8FDF709
:1049A0002BF803A827F0FCFF0D212B4827F080FAF5
:1049B000D4F8B410244800230A2227F073FE2248BA
:1049C00027F060FED4F8B450002D00F09F802349FA
:1049D00003A828F025F803A80021FDF70DF803A887
:1049E00027F0DEFF1E4D03A8296828F019F80021E2
:1049F00003A8FDF701F803A827F0D2FFD4F8D440AC
:104A0000002C00F08F80174903A828F009F8002136
:104A100003A8FCF7F1FF27E0F815FF1F241EFF1F76
:104A2000C84103007C18FF1F8807FF1FDC410300FB
:104A3000F041030004420300184203002C4203002B
:104A400040420300544203001808FF1F6042030065
:104A5000744203008042030094420300A442030016
:104A60008C07FF1FF442030003A827F099FF296871
:104A700003A827F0D5FF002103A8FCF7BDFF03A87A
:104A800027F08EFF3E4903A827F0CAFF002103A8A4
:104A9000FCF7B2FF03A827F083FF296803A827F0DB
:104AA000BFFF03A80021FCF7A7FF03A827F078FFAA
:104AB000344903A827F0B4FF002103A8FCF79CFFAA
:104AC00003A827F06DFF296803A827F0A9FF00219C
:104AD00003A8FCF791FF03A827F062FF2A4903A867
:104AE00027F09EFF002103A8FCF786FF03A827F00C
:104AF00057FF296803A827F093FF002103A8FCF7BC
:104B00007BFF03A827F04CFF40B070BD1F4903A8EE
:104B100027F086FF03A82946FCF76EFF03A827F0BD
:104B20003FFF5FE71A4903A827F07AFF214603A851
:104B3000FCF762FF03A827F033FF296803A827F0DA
:104B40006FFF214603A8FCF757FF03A827F028FFB3
:104B5000104903A827F064FF214603A8FCF74CFF87
:104B600003A827F01DFF296803A827F059FF03A811
:104B70002146FCF741FF03A827F012FF98E700BF8A
:104B8000084303001C43030038430300B8420300FA
:104B9000CC420300E042030070B5BE4BBEB01D68BE
:104BA00005AC2D1B3EAE281924F092FF04F8010B32
:104BB000B442F8D101A8B849B84CB94D27F030FF3C
:104BC000002101A8FCF718FF01A827F0E9FE222028
:104BD000FDF774FCDDED227A0020B8EE670AFDF7E0
:104BE0009BFB216801A827F01BFF01A80021FCF70F
:104BF00003FF01A827F0D4FE01A8AA4927F010FF5F
:104C0000002101A8FCF7F8FE01A827F0C9FE222028
:104C1000FDF754FCDDED237A0020B8EE670AFDF7BE
:104C20007BFB216801A827F0FBFE01A80021FCF70F
:104C3000E3FE01A827F0B4FE01A89B4927F0F0FE8F
:104C4000002101A8FCF7D8FE01A827F0A9FE222028
:104C5000FDF734FCDDED247A0020B8EE670AFDF79D
:104C60005BFB216801A827F0DBFE01A80021FCF70F
:104C7000C3FE01A827F094FE01A88C4927F0D0FEBE
:104C8000002101A8FCF7B8FE01A827F089FE222028
:104C9000FDF714FCDDED257A0020B8EE670AFDF77C
:104CA0003BFB216801A827F0BBFE01A80021FCF70F
:104CB000A3FE01A827F074FE01A87D4927F0B0FEED
:104CC000002101A8FCF798FE01A827F069FE222028
:104CD000FDF7F4FBDDED267A0020B8EE670AFDF75C
:104CE0001BFB216801A827F09BFE01A80021FCF70F
:104CF00083FE01A827F054FE01A86E4927F090FE1C
:104D0000002101A8FCF778FE01A827F049FE222027
:104D1000FDF7D4FBDDED277A0020B8EE670AFDF73A
:104D2000FBFA216801A827F07BFE01A80021FCF70F
:104D300063FE01A827F034FE01A85F4927F070FE4A
:104D4000002101A8FCF758FE01A827F029FE222027
:104D5000FDF7B4FBDDED287A0020B8EE670AFDF719
:104D6000DBFA216801A827F05BFE01A80021FCF70F
:104D700043FE01A827F014FE01A8504927F050FE79
:104D8000002101A8FCF738FE01A827F009FE222027
:104D9000FDF794FBDDED297A0020B8EE670AFDF7F8
:104DA000BBFA216801A827F03BFE01A80021FCF70F
:104DB00023FE01A827F0F4FD01A8414927F030FEA9
:104DC000002101A8FCF718FE01A827F0E9FD222028
:104DD000FDF774FBDDED2A7A0020B8EE670AFDF7D7
:104DE0009BFA216801A827F01BFE01A80021FCF70F
:104DF00003FE01A827F0D4FD01A8324927F010FED8
:104E0000002101A8FCF7F8FD01A827F0C9FD222028
:104E1000FDF754FBDDED2B7A0020B8EE670AFDF7B5
:104E20007BFA216801A827F0FBFD01A80021FCF70F
:104E3000E3FD01A827F0B4FD01A8234927F0F0FD08
:104E400001A80021FCF7D8FD01A827F0A9FD2968D9
:104E500001A827F0E5FD01A80021FCF7CDFD01A880
:104E600027F09EFD01A8194927F0DAFD01A80021CD
:104E7000FCF7C2FD01A827F093FD296801A827F0DF
:104E8000CFFD01A80021FCF7B7FD01A827F088FDA0
:104E90003EB070BDF815FF1F504303008807FF1F89
:104EA0008C07FF1F64430300784303008C43030017
:104EB000A0430300B4430300C8430300DC430300E2
:104EC000F44303000C440300244403004044030063
:104ED0002DE9F047094B1B68013BA0B00A2B00F2FB
:104EE0007C85DFE813F0A3052F063B066E067A05E6
:104EF000B50679070909130A6D0B0D004807FF1F56
:104F0000E64EE749736DE74D04AC204603F0100709
:104F100027F086FD00212046FCF76EFD204627F095
:104F20003FFD2220FDF7CAFADF49204627F078FD31
:104F300000212046FCF760FD204627F031FD29685E
:104F4000204627F06DFD00212046FCF755FD204648
:104F500027F026FDD549204627F062FD0021204696
:104F6000FCF74AFD204627F01BFD2220FDF7A6FA9C
:104F7000336C012B0CBFCE49CE49204627F050FDA3
:104F800000212046FCF738FD204627F009FD29685E
:104F9000204627F045FD00212046FCF72DFD204648
:104FA00027F0FEFCC449204627F03AFD00212046A8
:104FB000FCF722FD204627F0F3FC2220FDF77EFAC5
:104FC00096ED170A0020FDF7A7F92968204627F07B
:104FD00027FD00212046FCF70FFD204627F0E0FCCE
:104FE000B649204627F01CFD00212046FCF704FDB1
:104FF000204627F0D5FC2220FDF760FA002F44F070
:105000008683AF49204627F00BFD00212046FCF7A0
:10501000F3FC204627F0C4FC2968204627F000FD59
:1050200000212046FCF7E8FC204627F0B9FCA54902
:10503000204627F0F5FC00212046FCF7DDFC204649
:1050400027F0AEFC2220FDF739FAD6ED0A7A0020CF
:10505000B8EEE70AFDF760F92968204627F0E0FC82
:1050600000212046FCF7C8FC204627F099FC964911
:10507000204627F0D5FC00212046FCF7BDFC204649
:1050800027F08EFC2220FDF719FAD6ED007A0020D9
:10509000B8EEE70AFDF740F92968204627F0C0FC82
:1050A00000212046FCF7A8FC204627F079FC874920
:1050B000204627F0B5FC00212046FCF79DFC204649
:1050C00027F06EFC2220FDF7F9F9D6ED057A0020D5
:1050D000B8EEE70AFDF720F92968204627F0A0FC82
:1050E00000212046FCF788FC204627F059FC1521BA
:1050F000774826F0DDFEF16B764827F013FB754804
:1051000027F0C0FA6649204627F08AFC0021204695
:10511000FCF772FC204627F043FC2220FDF7CEF975
:105120006D49204627F07CFC00212046FCF764FCFA
:10513000204627F035FC2968204627F071FC002125
:105140002046FCF759FC204627F02AFC63492046FC
:1051500027F066FC00212046FCF74EFC204627F095
:105160001FFC2220FDF7AAF9D6ED067A0020B8EE42
:10517000E70AFDF7D1F82968204627F051FC002105
:105180002046FCF739FC204627F00AFC544920460B
:1051900027F046FC00212046FCF72EFC204627F095
:1051A000FFFB2220FDF78AF9D6ED017A0020B8EE48
:1051B000E70AFDF7B1F82968204627F031FC002105
:1051C0002046FCF719FC204627F0EAFB454920461B
:1051D00027F026FC00212046FCF70EFC204627F095
:1051E000DFFB2220FDF76AF9D6ED0B7A0020B8EE3E
:1051F000E70AFDF791F82968204627F011FC002105
:105200002046FCF7F9FB204627F0CAFB364920462A
:1052100027F006FC00212046FCF7EEFB204627F095
:10522000BFFB2220FDF74AF9736DDB074CBF2F4906
:105230002349204627F0F4FB00212046FCF7DCFB45
:10524000204627F0ADFB2968204627F0E9FB002126
:105250002046FCF7D1FB204627F0A2FB244920463C
:1052600027F0DEFB00212046FCF7C6FB204627F096
:1052700097FB2220FDF722F996ED180A0020FDF792
:105280004BF82968204627F0CBFB00212046FCF78D
:10529000B3FB204627F084FB2CE000BF4013FF1F28
:1052A000F44403008807FF1FC0520300DC440300DE
:1052B0007445030078450300C4440300AC44030074
:1052C000244503007044030058440300884403004D
:1052D0007C4503001808FF1F107003000C450300F5
:1052E0002C45030094450300AC450300284503000A
:1052F00044450300E749204627F092FB0021204661
:10530000FCF77AFB204627F04BFB2220FDF7D6F86E
:10531000736C012B0CBFE049E049204627F080FB6D
:1053200000212046FCF768FB204627F039FB29685E
:10533000204627F075FB00212046FCF75DFB204648
:1053400027F02EFBD649204627F06AFB0021204695
:10535000FCF752FB204627F023FB2220FDF7AEF896
:10536000D049204627F05CFB00212046FCF744FB97
:10537000204627F015FB2968204627F051FB002125
:105380002046FCF739FB204627F00AFBC649204699
:1053900027F046FB00212046FCF72EFB204627F095
:1053A000FFFA2220FDF78AF8D6ED077A0020B8EE42
:1053B000E70AFCF7B1FF2968204627F031FB0021FE
:1053C0002046FCF719FB204627F0EAFAB7492046A9
:1053D00027F026FB00212046FCF70EFB204627F095
:1053E000DFFA2220FDF76AF8D6ED027A0020B8EE47
:1053F000E70AFCF791FF2968204627F011FB0021FE
:105400002046FCF7F9FA204627F0CAFAA8492046B8
:1054100027F006FB00212046FCF7EEFA204627F095
:10542000BFFA2220FDF74AF8D6ED0C7A0020B8EE3C
:10543000E70AFCF771FF2968204627F0F1FA0021FE
:105440002046FCF7D9FA204627F0AAFA99492046C7
:1054500027F0E6FA00212046FCF7CEFA204627F096
:105460009FFA2220FDF72AF8736D03F00203002B48
:1054700044F053819049204627F0D2FA002120467B
:10548000FCF7BAFA204627F08BFA2968204627F065
:10549000C7FA00212046FCF7AFFA204627F080FA31
:1054A0008649204627F0BCFA00212046FCF7A4FAE2
:1054B000204627F075FA2220FDF700F896ED190A2C
:1054C0000020FCF729FF2968204627F0A9FA0021CF
:1054D0002046FCF791FA204627F062FA78492046E8
:1054E00027F09EFA00212046FCF786FA204627F096
:1054F00057FA2220FCF7E2FFB36C012B0CBF664980
:105500006649204627F08CFA00212046FCF774FA01
:10551000204627F045FA2968204627F081FA002125
:105520002046FCF769FA204627F03AFA65492046FA
:1055300027F076FA00212046FCF75EFA204627F095
:105540002FFA2220FCF7BAFF5F49204627F068FABD
:1055500000212046FCF750FA204627F021FA29685E
:10556000204627F05DFA00212046FCF745FA204648
:1055700027F016FA5549204627F052FA0021204616
:10558000FCF73AFA204627F00BFA2220FCF796FFA8
:10559000D6ED087A0020B8EEE70AFCF7BDFE2968D0
:1055A000204627F03DFA00212046FCF725FA204648
:1055B00027F0F6F94649204627F032FA0021204626
:1055C000FCF71AFA204627F0EBF92220FCF776FFC9
:1055D000D6ED037A0020B8EEE70AFCF79DFE2968B5
:1055E000204627F01DFA00212046FCF705FA204648
:1055F00027F0D6F93749204627F012FA0021204635
:10560000FCF7FAF9204627F0CBF92220FCF756FFE9
:10561000D6ED0D7A0020B8EEE70AFCF77DFE29688A
:10562000204627F0FDF900212046FCF7E5F9204649
:1056300027F0B6F92849204627F0F2F90021204644
:10564000FCF7DAF9204627F0ABF92220FCF736FF09
:10565000736D03F00403002B44F05C8016491F4F68
:10566000DFF880A0204627F0DBF900212046FCF778
:10567000C3F9204627F094F92968204627F0D0F98D
:1056800000212046FCF7B8F9204627F089F9144993
:10569000204629E05C450300C4450300CC450300D7
:1056A000D445030010840300EC45030004460300C6
:1056B0001C46030034460300244503004C46030007
:1056C000644603007C460300A45303009446030091
:1056D000AC460300C4460300DC4603007C18FF1FF1
:1056E000F44603004013FF1F27F09AF900212046DB
:1056F000FCF782F9204627F053F92220FCF7DEFE62
:1057000096ED1A0A0020FCF707FE2968204627F0CC
:1057100087F900212046FCF76FF9204627F040F971
:10572000AF49204627F07CF900212046FCF764F9B8
:10573000204627F035F92220FCF7C0FEF36BD7F89E
:10574000349003F00408DAF84C30B9F1000F41F05E
:105750002E80012B0CBFA349A349204627F060F9F6
:1057600020464946FCF748F9204627F019F92968F0
:10577000204627F055F900212046FCF73DF9204648
:1057800027F00EF91221994826F092FB00230A22F5
:10579000796B974826F086FF954826F073FF122113
:1057A000944826F085FB4146914826F0BBFF90487F
:1057B00026F068FF9049204627F032F90021204664
:1057C000FCF71AF9204627F0EBF82220FCF776FECA
:1057D0008A49204627F024F900212046FCF70CF9DD
:1057E000204627F0DDF82968204627F019F9002126
:1057F0002046FCF701F9204627F0D2F880492046E0
:1058000027F00EF900212046FCF7F6F8204627F095
:10581000C7F82220FCF752FED6ED097A0020B8EE38
:10582000E70AFCF779FD2968204627F0F9F80021FE
:105830002046FCF7E1F8204627F0B2F871492046EF
:1058400027F0EEF800212046FCF7D6F8204627F096
:10585000A7F82220FCF732FED6ED047A0020B8EE3D
:10586000E70AFCF759FD2968204627F0D9F80021FE
:105870002046FCF7C1F8204627F092F862492046FE
:1058800027F0CEF800212046FCF7B6F8204627F096
:1058900087F82220FCF712FED6ED0E7A0020B8EE33
:1058A000E70AFCF739FD2968204627F0B9F80021FE
:1058B0002046FCF7A1F8204627F072F8534920460D
:1058C00027F0AEF800212046FCF796F8204627F096
:1058D00067F82220FCF7F2FD736D03F00803002B3C
:1058E00043F01E874A49DFF84091204627F098F898
:1058F00000212046FCF780F8204627F051F829685F
:10590000204627F08DF800212046FCF775F8204648
:1059100027F046F812213F4826F0CAFA00230A224F
:10592000796D334826F0BEFE314826F0ABFE1221D9
:10593000304826F0BDFA41462D4826F0F3FE2C48AB
:1059400026F0A0FE3449204627F06AF800212046C0
:10595000FCF752F8204627F023F82220FCF7AEFD92
:1059600096ED1B0A0020FCF7D7FC2968204627F09B
:1059700057F800212046FCF73FF8204627F010F8A2
:105980002649204627F04CF800212046FCF734F841
:10599000204627F005F82220FCF790FD7E6DD9F80F
:1059A0005030002E03F08C85012B0CBF1C491D4983
:1059B000204627F035F820460021FCF71DF8204648
:1059C00026F0EEFF2968204627F02AF8204600211D
:1059D000FCF712F8204626F0E3FF20B0BDE8F08780
:1059E0000C47030074450300784503002447030077
:1059F0001808FF1F384703004C470300F453030007
:105A0000644703007C47030094470300AC4703004E
:105A100024450300C4470300D8470300F0470300B0
:105A2000C4450300CC4503004013FF1F774E784F59
:105A3000B36D784AD7F8E000756913701B02D7F888
:105A4000DC10754CDFF804E203F47F43EAB243EA6A
:105A5000006313430A0402F47F0213436F4A236076
:105A60006F4B8EF8000004AC117020466D491D701C
:105A700026F0D6FF00212046FBF7BEFF204626F089
:105A80008FFF2220FCF71AFDD6ED007A664DB8EEA6
:105A9000E70A0020FCF740FC2968204626F0C0FFFA
:105AA00000212046FBF7A8FF204626F079FF5F493A
:105AB000204626F0B5FF00212046FBF79DFF20463B
:105AC00026F06EFF2220FCF7F9FCD6ED0A7A0020C2
:105AD000B8EEE70AFCF720FC2968204626F0A0FF74
