:10000000F8FF022099010000596603001166030001
:1000100011660300116603001166030011660300F8
:1000200011660300116603001166030059660300A0
:100030005966030011660300499103004D910300C6
:1000400059660300596603005966030059660300A8
:100050005966030059660300596603005966030098
:100060005966030059660300596603005966030088
:100070005966030059660300596603005966030078
:100080005966030059660300596603005966030068
:100090005966030059660300596603005966030058
:1000A0005966030059660300596603005966030048
:1000B0005966030059660300596603003D72030048
:1000C000596603005966030059660300617903000D
:1000D00059660300FD80030059660300596603005A
:1000E00059660300596603007D5C030059660300EE
:1000F00059660300596603005966030059660300F8
:10010000299603003D96030051960300659603006F
:1001100059660300ED830300596603005966030026
:1001200059660300596603005966030059660300C7
:1001300059660300596603005966030059660300B7
:1001400059660300596603005966030059660300A7
:100150005966030059660300596603005966030097
:100160005966030059660300596603005966030087
:100170005966030059660300596603005966030077
:100180005966030059660300596603005966030067
:100190005966030059660300584B4CF2205210B5C3
:1001A0001A804DF628121A8000BF00BF36F058FAA8
:1001B000534B4FF030621A60524A9A60524ADA60EA
:1001C000524B4FF470021A60514A136813F4807353
:1001D00004D150490B604FF4A85313604E4B1A786A
:1001E000110703D51A7842F008021A704B4B4C499C
:1001F0002A221A704B4A4C4B8B4204D252F8040FFD
:1002000043F8040BF8E7494B494900228B4202D2DC
:1002100043F8042BFAE74749474A002352F82300E2
:1002200041F823000133662BF8D1444B444A802126
:1002300003F8011B9342FBD1424B3E4A1A60424BEA
:100240008A221A70A3F5805324225A70A0221A70B1
:100250009A799207FCD59A79D406FCD43B4A9379D3
:1002600003F00C03082B394BF9D103221A714622F3
:100270005A719A799006FCD5344A9179334B4906E4
:10028000FBD5334A4FF08271116009215160202261
:100290001A709A7902F00C020C2AFAD12D4B2E4AD0
:1002A0001A602E4B2E4A1A6000225A60072243F829
:1002B000042C2C4AC3F80C2D62B636F01DFB154BEE
:1002C0001B68DA0705D5284836F078FA274B284A04
:1002D0001A60284B1B785B0609D5244C244B2268F6
:1002E0009A4204D1204836F069FA0023236036F0A0
:1002F000BDF93CF0CBF839F0BFF9FEE70E20054020
:1003000030800440823F04000100002B88ED00E0B3
:1003100010D0034014D0034002D0074000E0074053
:10032000F812FF1FCC7E0400F806FF1FF812FF1F13
:100330000024FF1F0002FF1F0000000000E400E097
:1003400056E400E008ED00E00050064000400640A2
:100350004480044004800440C010050014E000E024
:10036000BFD401000000202029F0B6621CE0034049
:10037000A5C3945A00F00740FFFFFFFFFFFFFFFFF8
:10038000FFFFFFFFFFFFFFFFFFFFFFFFFFFFFFFF7D
:10039000FFFFFFFFFFFFFFFFFFFFFFFFFFFFFFFF6D
:1003A000FFFFFFFFFFFFFFFFFFFFFFFFFFFFFFFF5D
:1003B000FFFFFFFFFFFFFFFFFFFFFFFFFFFFFFFF4D
:1003C000FFFFFFFFFFFFFFFFFFFFFFFFFFFFFFFF3D
:1003D000FFFFFFFFFFFFFFFFFFFFFFFFFFFFFFFF2D
:1003E000FFFFFFFFFFFFFFFFFFFFFFFFFFFFFFFF1D
:1003F000FFFFFFFFFFFFFFFFFFFFFFFFFFFFFFFF0D
:10040000FFFFFFFFFFFFFFFFFFFFFFFFDEF9FFFF23
:1004100010B5054C237833B9044B13B10448AFF33E
:1004200000800123237010BDF812FF1F00000000A0
:10043000C87E0400084B10B51BB108490848AFF34B
:1004400000800848036803B910BD074B002BFBD0A0
:10045000BDE81040184700BF00000000FC12FF1F5D
:10046000C87E0400F812FF1F000000000020704743
:10047000704700BF036D0BB101207047406D003025
:1004800018BF0120704700BF00690B699842D4BFB4
:1004900000200120704700BF80698B690028B8BF29
:1004A0004042002BB8BF5B429842D4BF00200120DD
:1004B000704700BFF0B586460120DEF85870DEF8C0
:1004C0003030BA6A106079683A680A447A600EF18E
:1004D000300493B15A69002A08DB9A6A10605E689A
:1004E00019683D695A6931445960521B19690A44B7
:1004F0005A6154F8043F002BECD1DEF82430144A42
:10050000DEF81840DEF86C0000211160DB00516855
:1005100003F1804303F5603321440D241961146015
:10052000DA68502122F08002DA60D96000B1F0BDB3
:100530007A68FB689A4200D0F0BDDEF85C30012298
:100540008EF82820002BF7D0BDE8F040184700BFF8
:1005500000800340C36A00F12C0233B10120D96A44
:1005600052F8043F0860002BF9D1704710B50446DB
:10057000806D18B13BF0DAFF0023A365236D2BB12A
:1005800004F11800BDE8104032F0ECBE636D002BA2
:10059000F6D110BDF0B5002395B01A4605461831C6
:1005A00004A84FF47A74224F8DF804308DF80C3083
:1005B000129313930294009732F028FF129B002BA2
:1005C0002BD05C2039F060F804461A4B9DF80400EB
:1005D000029A1949236000269DF80C302073A1600F
:1005E000226104A9237504F11800666032F08CFEC4
:1005F0006368124AA76001334FF47A71A6652E71C1
:100600002E732C616360A9602A600D4B009304A8CF
:1006100032F0A8FE284615B0F0BD139B002BD0D1B8
:10062000064A2B71AC602B732B612A60EDE700BF8B
:100630002001040070010400D800040044010400FB
:10064000FC000400836C13B1184631F007B9C06C8C
:1006500008B12EF04BBF4FF0FF30704700B5836CF0
:1006600083B063B1184601220DF1070131F026F87D
:1006700001280CD19DF8070003B05DF804FBC06CA5
:1006800028B101220DF107012EF05CFEF0E74FF0DA
:10069000FF30F1E7836D012280F890205B6872B62D
:1006A000DFED0B6AD0ED207A90ED1F7A67EEA67A27
:1006B000F4EEC77AC0ED1E7AD0ED227AF1EE10FA90
:1006C000D8BFF1EE677AC0ED237A62B6704700BFFB
:1006D00000000000036D9BB11A7812F0700F00D17A
:1006E000704710B504460021184631F0D9F9606D05
:1006F00028B100220023BDE810402EF00FBF10BD2E
:10070000406D0028ECD090F8313013F0500FE7D056
:10071000002200232EF002BF38B5846D0CB12046B4
:1007200038BD05464FF480703BF0F8FE0146A865E1
:1007300080B1286D0C7028B14FF4807232F01CFC2F
:10074000AC6DECE7686D40B14FF4807230F056FA52
:10075000AC6DE4E7024CAC65E1E70C46DFE700BFB7
:100760001413FF1F8A79A2F150031B0620D4F0B5A1
:100770004B79046D0D798E784F780978013385B007
:1007800002F26C72DBB244B103918DE8E0002046C6
:10079000022131F09DFA05B0F0BD406D0028FAD07D
:1007A00003918DE8E00002212FF072FC05B0F0BD4E
:1007B00000207047D0B5046D8CB1012B08BF002A12
:1007C00001D30020D0BD1146204631F069F9002840
:1007D000F7D0204631F0E4FA0028F2D0D0BD446DC5
:1007E000002CEED020462EF099FE0028E9D02046BD
:1007F000BDE8D0402FF0FABCF0B5036D83B00C46D5
:100800002BB318460DF1060201A930F0CBFDD8B18B
:10081000BDF80430BDF8062003B9AAB102F01F06E6
:10082000C3F343155912C2F345177600013D01F594
:10083000EA6103F01F03D21226706571A171237162
:100840006770A27003B0F0BD002003B0F0BD406D32
:100850000028F9D00DF1060201A92EF013FDD6E70C
:10086000F0B5036D83B00C462BB318460DF10602AC
:1008700001A930F087FDD8B1BDF80430BDF80620DD
:1008800003B9AAB102F01F06C3F343155912C2F30C
:1008900045177600013D01F5EA6103F01F03D2120E
:1008A00026706571A17123716770A27003B0F0BDED
:1008B000002003B0F0BD406D0028F9D00DF1060214
:1008C00001A92EF0CFFCD6E7036D13B158690021C2
:1008D0007047436D13B193E80300704718461946FB
:1008E000704700BF036D13B1D86900217047436D95
:1008F00013B118695969704718461946704700BF07
:10090000036D13B1184630F0D9BE406D08B12EF01A
:1009100019BD4FF0FF307047036D13B1184630F02A
:100920009DBF406D08B12EF0E1BD4FF0FF30704724
:10093000036D33B11B7813F0700F14BF012000203A
:100940007047406D30B190F8313013F0500F14BF44
:1009500001200020704700BF8A79A2F150031B06D6
:1009600020D4F0B54B79046D0D798E784F780978E5
:10097000013385B002F26C72DBB244B103918DE8B1
:10098000E0002046042131F0A3F905B0F0BD406D30
:100990000028FAD003918DE8E00004212FF078FBC5
:1009A00005B0F0BD00207047036963B11A680749BC
:1009B00092698A4208D1186D08B131F083B9586D37
:1009C00008B12FF0F9B9704718461047E509000043
:1009D000836C13B1184631F075B9C06C08B12FF0B3
:1009E000EBB97047036D13B1184631F06BB9406D28
:1009F00008B12FF0E1B9704710B5036982B08DF8E6
:100A00000710BBB11968104ACC68944215D1186D13
:100A100030B101220DF1070131F0FEF902B010BD35
:100A2000586D0028FAD001220DF107012FF04EFC7D
:100A300002B010BD184602B010BD184601220DF1DB
:100A40000701A04702B010BDE50A0000036973B1B9
:100A50001A68084952698A4207D1186D08B130F006
:100A6000FDBE586D18B12EF041BD184610474FF02D
:100A7000FF30704719090000036923B310B51968E6
:100A8000124A8C68944282B014D1186D48B1012288
:100A90000DF1070130F012FE90B19DF8070002B091
:100AA00010BD586D0028F8D001220DF107012EF07D
:100AB00049FCF1E7184601220DF10701A047EBE7D9
:100AC0004FF0FF30EBE74FF0FF30704701090000B7
:100AD000836C13B1184631F09FB9C06C08B12FF088
:100AE000F5BB7047036D13B1184631F095B9406DF1
:100AF00008B12FF0EBBB704700B5836C83B08DF865
:100B0000071043B1184601220DF1070131F084F9B5
:100B100003B05DF804FBC06C0028F9D001220DF190
:100B200007012FF0D3FB03B05DF804FB03698BB121
:100B300010B41C680D48E468844211D1186D18B1D6
:100B40005DF8044B31F068B9586D28B15DF8044B7D
:100B50002FF0BCBB0020704700205DF8044B7047AD
:100B6000184623465DF8044B184700BFE50A00000D
:100B7000826C62B1137803F0080303F0FF0003B343
:100B8000D3695069181A48BF6FF000407047C16CB4
:100B9000C1B191F8313003F0080303F0FF0083B1D5
:100BA000D1E90423D1E90001101A30B463EB01014B
:100BB00000256FF000448D4208BF844200D22046D9
:100BC00030BC704708467047026D62B1137803F07D
:100BD000080303F0FF0003B3D3695069181A48BF34
:100BE0006FF000407047416DC1B191F8313003F0B2
:100BF000080303F0FF0083B1D1E90423D1E9000128
:100C0000101A30B463EB010100256FF000448D42EF
:100C100008BF844200D2204630BC70470846704767
:100C2000006970B30368184A1B6993420ED1026DC4
:100C30006AB1137803F0080303F0FF000BB3D36924
:100C40005069181A48BF6FF0004070471847416D4F
:100C5000C1B191F8313003F0080303F0FF0083B114
:100C6000D1E90423D1E90001101A30B463EB01018A
:100C700000256FF000448D4208BF844200D2204618
:100C800030BC704708467047C90B0000D0B4039CC5
:100C900016461F4634B1012C1ED0022C0DD0002068
:100CA000D0BC7047046DDCB1012B08BF002AF6D21E
:100CB00020461146D0BC30F0F3BE036DB3B1DA6903
:100CC000B61847F10007012F08BF002EE7D23146C2
:100CD0001846D0BC30F0E4BE036D8BB15A69EFE723
:100CE000406D0028DBD0D0BC2EF018BC406D002831
:100CF000D5D0D0E9042392197B41D0BC2EF00EBC94
:100D0000406D0028CBD0D0E9002392197B41EAE75F
:100D100038B50446806D0C4B236018B13BF006FCDF
:100D20000023A365236D04F118054BB1284632F06A
:100D300019FB064BA360284632F014FB204638BD51
:100D4000636D002BF2D1F4E770010400FC00040095
:100D500038B50446806D0E4B236018B13BF0E6FBBE
:100D60000023A365236D04F118056BB1284632F00A
:100D7000F9FA084BA360284632F0F4FA20465C21C9
:100D800038F086FC204638BD636D002BEED1F0E7CD
:100D900070010400FC00040070B505686C68013C3B
:100DA00006466C6014B10023336070BD2B68204A86
:100DB000DB6A93422DD1A86D10B13BF0B7FBAC6557
:100DC0002B6D63B305F1180032F0CCFA3468002CB7
:100DD000E9D02368174A5B6893421DD1A06D164B7A
:100DE000236018B13BF0A2FB0023A365236D04F13F
:100DF0001805C3B1284632F0B5FA104BA360284657
:100E000032F0B0FA20465C2138F042FC0023336017
:100E100070BD28469847D9E720469847C3E76B6DD1
:100E2000002BCFD1D2E7636D002BE3D1E5E700BF04
:100E30006D050000510D000070010400FC0004006D
:100E400070B50469244B036005461CB16668013E19
:100E500066600EB1284670BD2368204ADB6A934263
:100E60002CD1A06D10B13BF061FBA665236D5BB387
:100E700004F1180032F076FA2C69002CEAD02368CD
:100E8000174A5B6893421CD1A06D164B236018B1C2
:100E90003BF04CFB0023A365236D04F11806BBB1A6
:100EA000304632F05FFA104BA360304632F05AFA07
:100EB00020465C2138F0ECFB284670BD2046984760
:100EC000DAE720469847C5E7636D002BD0D1D3E71A
:100ED000636D002BE4D1E6E7440104006D050000DA
:100EE000510D000070010400FC00040070B505699C
:100EF000284B036004461DB16E68013E6E602EB142
:100F00002046142138F0C4FB204670BD2B68224ACD
:100F1000DB6A934230D1A86D10B13BF007FBAE65A0
:100F20002B6D7BB305F1180032F01CFA2569002DFA
:100F3000E6D02B68194A5B68934220D1A86D184B04
:100F40002B6018B13BF0F2FA0023AB652B6D05F175
:100F50001806DBB1304632F005FA124BAB60304672
:100F600032F000FA28465C2138F092FB204614212A
:100F700038F08EFB204670BD28469847D6E72846B5
:100F80009847BDE76B6D002BCCD1CFE76B6D002B85
:100F9000E0D1E2E7440104006D050000510D0000BE
:100FA00070010400FC000400036A8B4210B523D0DA
:100FB000C369994200D010BD8369002BFBD072B683
:100FC000194AC369846900211160DB00516803F18B
:100FD000804303F5603321440D2419611460DA68FD
:100FE000502122F08002DA60D96062B6006903689D
:100FF000BDE810405B6818470446006903689B68B9
:10100000984794F82430002BD5D004F1080038F02C
:10101000E9FA0023E069636034F018FE206ABDE855
:10102000104034F013BE00BF008003402DE9F041B2
:101030008568002D31D0816D836F04464868D4F8EF
:10104000AC101B1A002BB8BF5B428B423ADBD4F8C2
:10105000B0108B422A4608DBE16F8B4265DB936858
:1010600023F002039360BDE8F081D4F888100029D2
:10107000F5D02B683B4A93421ED96A683A48B0FBC8
:10108000F1F19B1A99420AD3CB1A002401200322C2
:10109000AC60E8602B60AA602960BDE8F0816069FF
:1010A0000368002601240322AE601B68EC602960FF
:1010B000AA60BDE8F04118472B4BB3FBF1F1296062
:1010C000BDE8F081D4E92401D4F8A82002FB03F3A1
:1010D000C61841F10007304639463AF0C5FF07EE21
:1010E000900AB1EEE70AB4EE400AF1EE10FA2ED102
:1010F000FDEEC07A2A4617EE903A17EE901ADBB151
:10110000002DB6D11949184D0E68B5FBF3F51EB187
:1011100002210120B047A268002001210323906032
:10112000D16015609360BDE8F081CB1AD4F8A82097
:10113000D4E92601013BC9E7002D90D10B4B1B6878
:10114000002B8CD0022101209847A26887E73946FE
:1011500030463AF089FF00EE100A39F0B5F9A5687B
:10116000C6E700BF7FA9030000879303A020FF1FED
:1011700070B5044608460D463CF062FA2368024604
:10118000294620465B68BDE87040184738B50446DC
:1011900008460D463CF054FA2368024629465B682F
:1011A000204698470546204638F0B0FA284438BD16
:1011B00038B5054638F0FEFA0446284638F0A6FA57
:1011C000204438BD38B5054638F0F4FA04462846C0
:1011D00038F09CFA204438BD38B50A220023054671
:1011E00038F0A8FA0446284638F090FA204438BD72
:1011F00038B5C9B2054638F0E7FA0446284638F053
:1012000085FA204438BD00BF10B50446083038F0D8
:10121000E9F90023E069636034F018FD206ABDE855
:10122000104034F013BD00BF70B543680446C9B127
:10123000002B2CD01A682348824219D95868224DB5
:10124000B5FBF1F1121A914217D22069026800260B
:10125000012503249E601268DD6019609C60BDE872
:10126000704010472BB39A6822F002029A6070BD5A
:10127000154AB2FBF1F1196070BD8A1A00250124EC
:1012800003209D60DC601A609860196070BD0F4A91
:101290000D4D1268B5FBF1F51AB1022101209047FE
:1012A00063680020012103229860D9601D609A6064
:1012B00070BD064B1B68002BD5D00221012098473A
:1012C0006368D0E77FA9030000879303A020FF1F76
:1012D000D0ED1F7A90ED1E7A38B5F4EE477A836D23
:1012E000F1EE10FA04465A6833D1FDEEC77A17EED4
:1012F000905A94F890200AB1002D4AD09A68AA42D8
:1013000026D0002D1B68ACBF01224FF0FF329A425D
:1013100015D004F12801012008E013685B42012B7D
:1013200013600BBF126B536B1360186051F8042FDE
:10133000002AF2D1636F03EB8303DB0020D185EA3F
:10134000E571A1EBE571201DFFF76EFFA36D9D60B8
:1013500038BDD0ED236AF5EEC06A77EEA67AF1EEDD
:1013600010FAB4EEE77A0EDDF1EE10FAD8BFF0EE27
:10137000477ABDEEE77AC4ED1F7A17EE105AB8E748
:10138000013BFDD1DBE7F1EE10FA58BFF0EE477AF2
:10139000EFE704F10C0038F025F9206AA56034F07D
:1013A00055FC606A34F052FCA36D9D6084F8905047
:1013B00038BD00BF10B5334C33480C2137F05EFD0B
:1013C0001021204638F0F6F9204638F09FF90E211A
:1013D0002E4837F053FD5421204638F0EBF92046D3
:1013E00038F094F90F212A4837F048FD4C21204667
:1013F00038F0E0F9204638F089F91021254837F017
:101400003DFDE421204638F0D5F9204638F07EF93C
:101410000F21214837F032FD6021204638F0CAF90B
:10142000204638F073F90F211C4837F027FD702152
:10143000204638F0BFF9204638F068F914211848E2
:1014400037F01CFD7821204638F0B4F9204638F0FA
:101450005DF91321134837F011FD6C21204638F057
:10146000A9F9204638F052F910210F4837F006FD4F
:101470002046342138F09EF92046BDE8104038F06F
:1014800045B900BF9808FF1F24020400340204007D
:1014900044020400540204006802040078020400BC
:1014A00088020400A0020400B402040010B509215F
:1014B0001E4837F0E3FC1E4838F028F9FE211D488D
:1014C0002DF05EFB18BB0A211A482DF059FB98B984
:1014D00009211848184C2DF053FB18BB20600C2133
:1014E000164837F0CBFC2168114838F063F91048F2
:1014F000BDE8104038F00AB90F4C11480A231946CC
:10150000236037F0BBFC0A4838F000F9E7E70A4CE3
:101510000C4801230921236037F0B0FC044838F05F
:10152000F5F8DCE708480923E9E700BFC802040032
:101530009808FF1F741BFF1F3C1AFF1FF8020400CE
:10154000E0020400D4020400EC02040070B52DEDAA
:10155000028B044684B0002601A83CF071F80146D5
:1015600001A837F08BFC524838F0D0F823682046A9
:101570005B6998470021C5B24E4837F07FFC4C4864
:1015800038F0C4F821214C4837F078FC31464848FF
:1015900038F010F90421494837F070FC284637F03C
:1015A000F1FC0221464837F069FC2946404838F0F2
:1015B00001F93F4838F0AAF8042D71D0FF2D01A899
:1015C0003CD001AB9D553CF03BF8014601A837F0FB
:1015D00055FC374838F09AF801360B2EBCD101A8DB
:1015E0003AF044FF04213748B0EE408AF0EE608ABA
:1015F00037F044FC01A83CF023F8014601A837F07D
:101600003DFC2B4838F082F807212F4837F036FC94
:10161000B0EE480AF0EE680A0421254838F0D4F804
:10162000234838F073F8B0EE480AF0EE680A04B0C8
:10163000BDEC028B70BD23685B6998472368204628
:101640001B69984700282046F5DC01A83AF00EFFF8
:1016500004211C48B0EE408AF0EE608A37F00EFCA0
:1016600001A83BF0EDFF014601A837F007FC104848
:1016700038F04CF80721144837F000FCB0EE480A67
:10168000F0EE680A04210A4838F09EF8084838F05D
:101690003DF801A83AF0EAFE04B0BDEC028B70BD43
:1016A00019210A4837F0EAFB014838F02FF893E790
:1016B0009808FF1FAC700400080304002C0304000A
:1016C00010570400340304003C03040044030400E6
:1016D000042810D8DFE800F00C090F0603000A48C0
:1016E000FFF734BF0948FFF731BF0948FFF72EBFA6
:1016F0000848FFF72BBF9FED020B7047AFF3008048
:10170000000000000000F0BF7008FF1F5C08FF1F12
:101710004808FF1F9808FF1F38B5434D4348EA6B40
:10172000AB6B95ED107AD5ED127A414C03FB02F3C9
:101730002DED048B08EE103AB8EE488ADFED3D8AB5
:1017400028EE078A0D2167EEA88AF0EE409A37F05E
:1017500095FB18EE100A3AF01BF841EC100B022131
:10176000204638F031F8204637F0D0FF11213248BA
:1017700037F084FB286C3AF00BF841EC100B022197
:10178000204638F021F8204637F0C0FF0F212B48C3
:1017900037F074FB89EEA89A18EE900A39F0F8FF3A
:1017A00041EC100B0221204638F00EF8204637F0AD
:1017B000ADFF1021224837F061FB19EE900A39F095
:1017C000E7FF41EC100B0221204637F0FDFF2046D9
:1017D00037F09CFF07211B4837F050FB19EE100A29
:1017E00039F0D6FF41EC100B0221204637F0ECFF18
:1017F00028EE098A204637F089FF0821124837F081
:101800003DFB18EE100A39F0C3FF41EC100B02212A
:10181000204637F0D9FF204637F078FFB0EE480A6F
:10182000BDEC048B38BD00BF0417FF1F8803040004
:101830009808FF1FDB0FC94098030400AC030400A5
:10184000BC030400D0030400D803040038B5434DA2
:101850004348EA6DAB6D95ED187AD5ED1A7A414C97
:1018600003FB02F32DED048B08EE103AB8EE488A24
:10187000DFED3D8A28EE078A0D2167EEA88AF0EE9B
:10188000409A37F0FBFA18EE100A39F081FF41EC6C
:10189000100B0221204637F097FF204637F036FF25
:1018A0001321324837F0EAFA286E39F071FF41EC23
:1018B000100B0221204637F087FF204637F026FF25
:1018C0000F212B4837F0DAFA89EEA89A18EE900A21
:1018D00039F05EFF41EC100B0221204637F074FF17
:1018E000204637F013FF1021224837F0C7FA19EECF
:1018F000900A39F04DFF41EC100B0221204637F0E1
:1019000063FF204637F002FF07211B4837F0B6FA85
:1019100019EE100A39F03CFF41EC100B0221204671
:1019200037F052FF28EE098A204637F0EFFE0821F3
:10193000124837F0A3FA18EE100A39F029FF41ECEB
:10194000100B0221204637F03FFF204637F0DEFE25
:10195000B0EE480ABDEC048B38BD00BF0417FF1F72
:10196000880304009808FF1FDB0FC940E40304004C
:10197000AC030400BC030400D0030400D80304003B
:101980001D4A1E4892ED117AD16B936BC0EE077A17
:1019900010B503FB01F30A21194C2DED028B08EE63
:1019A000103AB8EE488AF0EE408A28EE278A37F0DF
:1019B00065FA18EE900A39F0EBFE41EC100B0221AB
:1019C000204637F001FF204637F0A0FE1A210D48CF
:1019D00037F054FA18EE100A39F0DAFE41EC100B29
:1019E0000221204637F0F0FE204637F08FFEB0EEA1
:1019F000480ABDEC028B10BD0417FF1FF80304005A
:101A00009808FF1F040404001D4A1E4892ED197A2D
:101A1000D16D936DC0EE077A10B503FB01F30A2177
:101A2000194C2DED028B08EE103AB8EE488AF0EE14
:101A3000408A28EE278A37F021FA18EE900A39F00A
:101A4000A7FE41EC100B0221204637F0BDFE2046D8
:101A500037F05CFE1A210D4837F010FA18EE100A24
:101A600039F096FE41EC100B0221204637F0ACFE17
:101A7000204637F04BFEB0EE480ABDEC028B10BD9D
:101A80000417FF1FF80304009808FF1F2004040038
:101A90000138032840D8DFE800F026110A02204B65
:101AA0005B6D002B36D0012B36D1FFF7ADBF1C4B41
:101AB0005B6B6BB3012B2FD1FFF762BF184AD2F8D3
:101AC000B83003B3D2ED317AD2F8C010D2F8BC30BE
:101AD00080EE277A03FB01F300EE103AF8EE407A2D
:101AE00027EE870A70470E4A92ED057A1169D3688E
:101AF000C0EE077A03FB01F300EE103AB8EE400A9D
:101B000020EE270A7047D2ED0A7A516A136ADFE79E
:101B1000FFF702BEFFF79ABE9FED020A704700BFB3
:101B20000417FF1F0000000038B52F4D2F4C95ED16
:101B3000007AD4ED007AB5EEC07AF1EE10FA48BF23
:101B4000B1EE477AF5EEC07A48BF85ED007AF1EE46
:101B500010FA44BFF1EE677AC4ED007A67EEA77A17
:101B60002DED048BE7EE077A08EE100A17EE900AC7
:101B700008EE901A39F00CFE41EC100B38F0E4FB43
:101B800051EC100B3AF050F994ED006AD5ED006A73
:101B900007EE900A87EE867A87EEA69AF8EEE88A34
:101BA000B8EEC88A67EE287A17EE900A39F0F0FD91
:101BB00041EC100B38F028FB51EC100B3AF034F9E3
:101BC00068EE097A206017EE900A39F0E1FD41ECE9
:101BD000100B38F019FB51EC100B3AF025F9BDEC65
:101BE000048B286038BD00BFC815FF1F201BFF1FD6
:101BF0004B4B1B68013B70B50A2B00F29080DFE86D
:101C000003F03648628E8E06060606784800454B7D
:101C1000454C1868454E464DFFF75AFD51EC100BE8
:101C20003AF0BAF8434AE06203461168736120460D
:101C30004C226B6434F068FC3F4B304619686022DC
:101C400034F062FC3D4B284619686C2234F05CFC91
:101C500016213B4837F012F9E16A3A4800230A227C
:101C600037F068FD3748BDE8704037F04FBD2D4B69
:101C7000354C1868FFF72CFD51EC100B3AF08CF83E
:101C8000324B6061196820467822BDE8704034F01C
:101C90003BBC244B2E4C1868FFF71AFD51EC100B7F
:101CA0003AF07AF8034601462648636137F082FD30
:101CB000244837F02BFD274B204619687822BDE8D1
:101CC000704034F021BC174B234C1868FFF700FD1F
:101CD00051EC100B3AF060F8204B60611968204617
:101CE000342234F011FC1621154837F0C7F8616929
:101CF000B3E70C4B1A4C1868FFF7EAFC51EC100BD9
:101D00003AF04AF8174BA06219682046702234F066
:101D1000FBFB16210A4837F0B1F8A16A9DE770BDB8
:101D20004407FF1F5807FF1F0418FF1FA416FF1FBB
:101D30002C19FF1F4807FF1F7407FF1F5C07FF1FB9
:101D40003C0404009808FF1F2816FF1F6407FF1FAC
:101D50000815FF1F3807FF1FF818FF1F4007FF1F58
:101D60004C1AFF1F6807FF1F38B52A21A748A84C47
:101D700037F084F8A74837F0C9FC0E21A64837F0A1
:101D80007DF82168A34837F015FDA24837F0BEFC66
:101D90002368013B0A2B07D8DFE803F013273B5BDE
:101DA000060707070780270038BD9C4C2368013BC6
:101DB000032B00F29F80DFE813F059011201FB00B2
:101DC0008700974B974C1868FFF782FC51EC100B7B
:101DD00039F0E2FFA36D013B0246032BE4D8DFE8B4
:101DE00013F0D600C600B600A6008D4B1868FFF7AA
:101DF0006FFC51EC100B39F0CFFF8B4A936D042B25
:101E000000F28D80DFE813F08A00AF01AD01AB0175
:101E1000A901864C2368032B00F0A781042B10D165
:101E20007F4B1868FFF754FC51EC100B39F0B4FFEE
:101E30001621E0617E4837F021F8E1697548FFF727
:101E4000CBF97C4B794819683422BDE8384034F02E
:101E50005BBB794C2368013B0D2BA5D801A252F83E
:101E600023F000BF2B210000FB200000CB2000004E
:101E70009B200000A91D0000A91D0000A91D000055
:101E8000A91D0000A91D0000A91D00002B210000B4
:101E9000FB200000CB2000009B200000674C636CFF
:101EA000012B00F07481022B00F07B81032B00F0EA
:101EB0008281042B00F08981614B6048196870228F
:101EC000BDE8384034F020BB554B5E4D1868FFF735
:101ED000FFFB51EC100B39F05FFF5B4A544903469E
:101EE0004C48E3636B625365FFF742F9E16B494885
:101EF000FFF772F9554B494819684C2234F004FB3E
:101F0000534B50481968602234F0FEFA514B4E484A
:101F100019686C22BDE8384034F0F6BA50614E4B77
:101F2000414819687822BDE8384034F0EDBA4B4B8F
:101F3000626219683B48782234F0E6FA484935482D
:101F4000FFF716F9616A3348FFF73CF938BD434B98
:101F5000226219683348782234F0D6FA34492D4881
:101F6000FFF706F9216A2B48FFF72CF938BD3B4BE8
:101F7000E26119682B48782234F0C6FA39492548BD
:101F8000FFF7F6F8E1692348FFF71CF938BD364939
:101F90002048A261FFF7ECF8A1691E48FFF712F98B
:101FA0002E4B204819687822BDE8384034F0ACBA8E
:101FB0001B4B244D1868FFF78BFB51EC100B39F0CD
:101FC000EBFE214A1A4903461248A3632B621365AC
:101FD000FFF7CEF8A16B0F48FFF7FEF88AE7104B2A
:101FE000184D1868FFF774FB51EC100B39F0D4FE54
:101FF000154A1C49034607486363EB61D364FFF746
:10200000B7F8616B0348FFF7E7F873E7540404007F
:102010004407FF1F9808FF1F800404000418FF1FD7
:102020005807FF1F2816FF1F0815FF1FF818FF1F6E
:10203000C00404004007FF1FA414FF1F4C1AFF1F19
:102040006807FF1FA416FF1F2C19FF1F4807FF1F5B
:102050007407FF1F5C07FF1F3807FF1F6407FF1F80
:10206000D8040400A8040400900404005C4B5D4DF7
:102070001868FFF72DFB51EC100B39F08DFE5A4A12
:102080005A4903465A482363AB619364FFF770F8DB
:10209000216B5748FFF7A0F82CE7514B1868FFF762
:1020A00017FB51EC100B39F077FE524B2063196887
:1020B0005148542234F028FA50494D48FFF758F857
:1020C000216B4B48FFF788F838BD454B1868FFF780
:1020D000FFFA51EC100B39F05FFE464B6062196855
:1020E0004548542234F010FA44494148FFF740F87B
:1020F000616A3F48FFF770F838BD394B1868FFF741
:10210000E7FA51EC100B39F047FE3A4BA061196821
:102110003948542234F0F8F939493548FFF728F89E
:10212000A1693348FFF758F838BD2D4B1868FFF701
:10213000CFFA51EC100B39F02FFE2E4BE0601968EE
:102140002D48542234F0E0F928492948FFF710F8C7
:10215000E1682748FFF740F838BD5062DFE61062BB
:10216000DDE6D061DBE69061D9E61D4B1868FFF72C
:10217000AFFA51EC100B39F00FFE1621A0611F4889
:1021800036F07CFEA1691A48FFF726F859E6144B91
:102190001868FFF79DFA51EC100B39F0FDFDE06275
:1021A0008AE60F4B1868FFF793FA51EC100B39F0E1
:1021B000F3FD206380E60A4B1868FFF789FA51ECBB
:1021C000100B39F0E9FD606376E6054B1868FFF700
:1021D0007FFA51EC100B39F0DFFDA0636CE600BF15
:1021E0005807FF1FA416FF1F2C19FF1F900404009F
:1021F0009808FF1FFC06FF1FA414FF1FC004040063
:10220000A8040400B94A92E80A0010B503FB01F3E0
:1022100007EE903A92ED027AF8EE677A2DED048B94
:1022200067EE877A82B0044617EE900AB0EE408AD5
:1022300039F0AEFA41EC100B37F0E6FF51EC100B21
:1022400039F0AAFD1E210190A94836F017FE092198
:10225000A84836F013FE2146A74837F0ABFAA64847
:1022600037F054FA18EE100A39F092FA41EC190BD3
:102270000221B0EE490AF0EE690A9F4837F0A4FA4D
:102280009D4837F043FA013C1E21994836F0F6FD8F
:10229000042C00F2DC80DFE804F0486D92B6030005
:1022A000964C236884ED038A012B00F0D480DDED89
:1022B000017AB8EEE77AC7EE087AFCEEE77AC4ED69
:1022C000027A16218E4836F0D9FD01998A4837F0F6
:1022D00071FA10218B4836F0D1FDB0EE490AF0EECC
:1022E000690A0221844837F06FFA0321864836F0E4
:1022F000C5FD0621854836F0C1FD0621844836F02B
:10230000BDFD0023A1687C480A2237F013FA7A4801
:1023100037F0FCF97F4B79481968102202B0BDEC08
:10232000048BBDE8104034F0EFB87B4C236884ED9B
:10233000038A012B00F0CB80DDED017AB8EEE77A5D
:10234000C7EE087AFCEEE77AC4ED027A06217348FC
:1023500036F094FD06216E4836F090FD0023A1680A
:1023600065480A2237F0E6F9634837F0CFF96C4B3D
:102370006948D1E76B4C236884ED038A012B00F098
:102380009780DDED017AB8EEE77AC7EE087AFCEEC9
:10239000E77AC4ED027A0621634836F06FFD062124
:1023A0005B4836F06BFD0023A16853480A2237F0E2
:1023B000C1F9514837F0AAF95C4B5A48ACE75C4C7C
:1023C000236884ED038A012B63D0DDED017AB8EE3A
:1023D000E77AC7EE087AFCEEE77AC4ED027A0621C6
:1023E000544836F04BFD0621494836F047FD00239E
:1023F000A16841480A2237F09DF93F4837F086F935
:102400004D4B4B4888E74D4C236884ED038A012BE4
:1024100030D0DDED017AB8EEE77AC7EE087AFCEE4F
:10242000E77AC4ED027A0621454836F027FD0621F9
:10243000374836F023FD0023A1682F480A2237F0E1
:1024400079F92D4837F062F93E4B3C4864E702B019
:10245000BDEC048B10BDDFED3C7A88EE277ADDED14
:10246000017AF8EEE77A67EE877AFCEEE77AC4ED58
:10247000027A26E7DFED347A88EE277ADDED017AFD
:10248000F8EEE77A67EE877AFCEEE77AC4ED027A37
:10249000C9E7DFED2D7A88EE277ADDED017AF8EED7
:1024A000E77A67EE877AFCEEE77AC4ED027A96E780
:1024B000DFED257A88EE277ADDED017AF8EEE77A0E
:1024C00067EE877AFCEEE77AC4ED027A63E7DFED28
:1024D0001E7A88EE277ADDED017AF8EEE77A67EE6C
:1024E000877AFCEEE77AC4ED027A2FE70417FF1F24
:1024F000F0040400100504009808FF1F6013FF1F7C
:10250000440504005C050400AC560400700504009A
:10251000240504002807FF1F1813FF1F1C050400D3
:102520001807FF1F2C13FF1F2C0504001C07FF1F9B
:102530004C13FF1F340504002007FF1FE41AFF1F80
:102540003C0504002407FF1F0000B443F8B51D211B
:102550002DED028BB14D08EE100AB14836F08EFC1D
:10256000B04837F0D3F8D5F8D800A0F10A031D2BF6
:1025700040F232812F686B6895ED027AAA4CAB4A23
:10258000D4ED036AAA48AB49AB4E03FB07F307EE51
:10259000903AF8EE677AB8EEC88A67EE877A002339
:1025A00087EEA67A03600B601360C7EE087A17EE19
:1025B000900A39F0EDF841EC100B37F025FE51ECA4
:1025C000100B39F0E9FB23683060013B032B00F26C
:1025D0002381DFE803F06F4825022B21974894ED13
:1025E000068A36F04BFCA06939F0D2F841EC100BAA
:1025F00002218C4837F0E8F88A4837F087F86B6D8D
:10260000002B00F0FF80012B40F00681B0EE480A5D
:10261000FFF7FAF98A4FBDEEC00A87ED000A9AE08B
:102620002B21864894ED068A36F028FCA06939F003
:10263000AFF841EC100B02217A4837F0C5F8794821
:1026400037F064F86B6B002B00F0D280012B40F068
:10265000E380B0EE480AFFF793F9794FBDEEC00A68
:1026600087ED000A77E0D5F8B8206C4BD4ED065A18
:10267000002A00F0B68093ED316A93ED307AD3ED05
:102680002F7A6F4FC5EE866AB8EE477AF8EE677A12
:1026900026EE877A67EE277A17EE900A39F078F8F7
:1026A00041EC100B37F0B0FD51EC100B39F074FB1E
:1026B000386050E094ED067AD5ED057A604F87EEEC
:1026C000278AD5ED047A95ED037AF8EE677AB8EEAD
:1026D000477A67EE887A67EE877A17EE900A39F0C4
:1026E00057F841EC100B37F08FFD51EC100B39F01F
:1026F00053FB18213860534836F0C0FBA06939F00D
:1027000047F841EC100B0221464837F05DF8454888
:1027100036F0FCFF24214C4836F0B0FB686939F0F4
:1027200037F841EC100B02213E4837F04DF83D4898
:1027300036F0ECFF1121454836F0A0FB18EE100AE8
:1027400039F026F841EC100B0221364837F03CF8FE
:10275000344836F0DBFF15213D4836F08FFB3168F9
:10276000304837F027F82F4836F0D0FF2421394879
:1027700036F084FBE06839F00BF841EC100B0221D5
:10278000284837F021F8274836F0C0FF2921324881
:1027900036F074FBA06938F0FBFF41EC100B02210E
:1027A000204837F011F81F4836F0B0FF14212B48AD
:1027B00036F064FB39681B4836F0FCFF194836F0E8
:1027C000A5FF1421264836F059FBBDEC028B1548B5
:1027D000BDE8F84036F09ABFC0B2002134F002F8EC
:1027E000C8E693ED0A6A93ED097AD3ED087A48E7D3
:1027F000B0EE480AFEF790FF114FBDEEC00A87ED1C
:10280000000AA8E7B0EE480AFFF720F80C4FBDEE2B
:10281000C00A87ED000A9EE7094F9CE70417FF1FD7
:10282000780504009808FF1F2C19FF1FFC13FF1FD9
:102830005C13FF1F9819FF1F041BFF1FF005040006
:10284000FC14FF1F98050400B4050400DC05040017
:102850001C060400340604005C060400880604001C
:10286000A00604000C4B1B68042B14D8DFE803F00F
:102870000F0B130703000146084836F021BF01463D
:10288000074836F01DBF0146064836F019BF01461D
:10289000054836F015BF70475807FF1F7008FF1F27
:1028A0005C08FF1F4808FF1F9808FF1F70B5064609
:1028B00088B00D4632B1AD4BD3F8CC40012C00F0BE
:1028C0002C810022AA4C2368029302992368019369
:1028D000019B5B1A092BF9D9042E00F2F381DFE882
:1028E00016F04E008A00BB00EC000500002D00F041
:1028F00069819E4B93F8A0100F2081F0010133F005
:1029000071FF9C4904A837F0A7F9002104A8FFF73C
:10291000A9FF04A837F060F9974904A837F09CF99B
:1029200004A80021FFF79EFF04A837F055F9934B48
:1029300093481E68112136F0A1FA0F21914836F014
:1029400039FF904806F0010636F0E0FE11218E486E
:1029500036F094FA31468B4836F02CFF894836F031
:10296000D5FE55B12268894B049204991A682368F0
:102970000393039B5B1A9A42F9D808B070BD002DEF
:1029800000F04081794B93F89C10042081F0010104
:1029900033F028FF7E4904A837F05EF9002104A82F
:1029A000FFF760FF04A837F017F9734904A837F060
:1029B00053F904A80021FFF755FF04A837F00CF9DC
:1029C000744B71481E681121C6F3403636F056FA32
:1029D00031466C4836F0EEFE6A4836F097FE162116
:1029E0006D4836F04BFA0421664836F0E3FE654840
:1029F00036F08CFEAAE7002D00F024815B4B93F8A3
:102A00009D100E2081F0010133F0ECFE634904A813
:102A100037F022F9002104A8FFF724FF04A837F0BB
:102A2000DBF8554904A837F017F904A80021FFF78F
:102A300019FF04A837F0D0F8594B5A481E681021E6
:102A400036F01CFA0E214F4836F0B4FE4D48C6F35E
:102A5000400636F05BFE79E7002D00F01381434B12
:102A600093F89E10162081F0010133F0BBFE4E4911
:102A700004A837F0F1F8002104A8FFF7F3FE04A83A
:102A800037F0AAF83C4904A837F0E6F804A800217A
:102A9000FFF7E8FE04A837F09FF8384B43481E685C
:102AA000102136F0EBF91621364836F083FE354812
:102AB000C6F3400636F02AFE48E7002D37D02B4BF0
:102AC00093F89F10112081F0010133F08BFE3849FB
:102AD00004A837F0C1F8002104A8FFF7C3FE04A83A
:102AE00037F07AF8244904A837F0B6F804A8002192
:102AF000FFF7B8FE04A837F06FF82E4B2E481E687B
:102B0000112136F0BBF911211E4836F053FE1D4845
:102B1000C6F3400636F0FAFD18E71021274836F0D4
:102B2000ADF921461748FEF743FB2246CAE6002AC4
:102B3000E3D10E4B112093F89F1033F053FE04A8FD
:102B40001F4937F089F8294604A8FFF78BFE04A82F
:102B500037F042F804A8084937F07EF804A829465F
:102B6000FFF780FE04A837F037F8C6E70417FF1F09
:102B7000D820FF1F38080400EC06040090F00F4036
:102B8000780804009808FF1F100704002C07FF1F97
:102B9000CC06040010F00F40240704003C0704009A
:102BA000D0F00F407C07040090070400D007040019
:102BB000E407040050F00F4024080400B8060400A5
:102BC00004080400002A7FF4B2AE3F4B0F2093F8B4
:102BD000A01033F007FE04A83C4937F03DF8294621
:102BE00004A8FFF73FFE04A836F0F6FF04A8384912
:102BF00037F032F804A82946FFF734FE04A836F06F
:102C0000EBFF94E6002A7FF4DBAE2F4B042093F811
:102C10009C1033F0E7FD04A82E4937F01DF8294633
:102C200004A8FFF71FFE04A836F0D6FF04A8284921
:102C300037F012F804A82946FFF714FE04A836F06E
:102C4000CBFFBDE6002A7FF4F7AE1F4B0E2093F8B2
:102C50009D1033F0C7FD04A81F4936F0FDFF29463B
:102C600004A8FFF7FFFD04A836F0B6FF04A8184932
:102C700036F0F2FF04A82946FFF7F4FD04A836F069
:102C8000ABFFD9E6002A7FF408AF0F4B162093F86C
:102C90009E1033F0A7FD04A8104936F0DDFF294649
:102CA00004A8FFF7DFFD04A836F096FF04A8084942
:102CB00036F0D2FF04A82946FFF7D4FD04A836F069
:102CC0008BFFEAE6002641E60417FF1F58080400C0
:102CD000EC060400F00604005C070400B0070400E2
:102CE0002DE9F041102184B0C348C44C36F0C6F839
:102CF000C34B197819B92578002D00F02F81C148F0
:102D0000C14F36F057FD0221C04836F0B7F82178A0
:102D1000BC4836F04FFDBB4836F0F8FC6C46BC4969
:102D2000BC4DBD4E204636F097FF00212046FFF7F0
:102D300099FD204636F050FF3968204636F08CFF6A
:102D400000212046FFF78EFD204636F045FFB349AF
:102D5000204636F081FF00212046FFF783FD204604
:102D600036F03AFF3968204636F076FF00212046DB
:102D7000FFF778FD204636F02FFF95E8180003FB9B
:102D800004F307EE903A326895ED027AA449DFED3C
:102D9000A56A0968A448F8EE677A06EE102A67EE7D
:102DA000877AB8EEC66A4B1E86EE277A67EE267AD9
:102DB000C0ED007A032B00F21C81DFE803F06B46C4
:102DC00024026B6D934A012B00F20F81974CD16D59
:102DD000D4ED007A936D92ED197AF8EEE77A03FB61
:102DE00001F327EE877A07EE903AF8EE677AC7EE9E
:102DF000276A8F4B012200210420C3ED006AFFF7F0
:102E000055FD326862E06B6B824A012B00F2E9806B
:102E1000864CD16BD4ED007A936B92ED117AF8EE7B
:102E2000E77A03FB01F327EE877A07EE903AF8EE94
:102E3000677AC7EE276A7E4B012200210320C3ED8B
:102E4000006AFFF733FD326840E0784CD5F8B820CF
:102E5000D4ED007A6F4BF8EEE77A002A00F0BC80E0
:102E6000D3F8C010D3F8BC20D3ED316A704B02FB0D
:102E700001F207EE102A67EEA67AB8EE477A012231
:102E8000C7EE876A00210220C3ED006AFFF70EFD3E
:102E900032681BE0654C2A69D4ED007AEB6895ED49
:102EA000057A634FF8EEE77A03FB02F327EE877AA1
:102EB00007EE903AF8EE677A0122C7EE276A1046CD
:102EC0000021C7ED006AFFF7F1FC3268594FDFF8C7
:102ED00088C1396823685848DFF880E15242CCF84D
:102EE00000204942554A01605B424FF000081A2118
:102EF0005348CEF80030C2F8008035F0BFFF31688B
:102F0000404836F057FC3F4836F000FC17214D484A
:102F100035F0B4FF21683B4836F04CFC394836F0B8
:102F2000F5FB1521484835F0A9FF3968354836F0DA
:102F300041FC344836F0EAFB404641460122FFF7A7
:102F4000B5FCD5F8D800A0F10A031D2B03D8C0B2F8
:102F5000012133F047FC04B0BDE8F081294629483F
:102F6000294F36F027FC0221284835F087FF2178C9
:102F7000244836F01FFC234836F0C8FB6846334926
:102F800036F06AFE29466846FFF76CFC684636F064
:102F900023FE3968684636F05FFE29466846FFF72B
:102FA00061FC684636F018FE6846294936F054FE42
:102FB00029466846FFF756FC684636F00DFE39682C
:102FC000684636F049FE68462946FFF74BFC6846DE
:102FD0006C4636F001FEA2E6596A1A6AD3ED0A6A17
:102FE00044E7DFED1C6A114C25E7DFED1A6A0F4C50
:102FF000FFE60E4C6AE700BF8C080400A114FF1F17
:10300000701BFF1F9808FF1F8407FF1F1057040045
:10301000C80804000417FF1F5C13FF1FDC0804002E
:103020002C19FF1F0000B443341AFF1F9819FF1F0B
:10303000381AFF1FFC13FF1FFC1AFF1F2416FF1F67
:10304000F00804000C09040024090400A00804008E
:10305000B408040000000000F413FF1FF813FF1F62
:1030600010B5F0EE407A0021F2EE046ABDEEE77A88
:10307000B8EEC77AB4EE677AF1EE10FA04D00131F7
:10308000062967EEA67AF1D11E4B1B68042B38D8AF
:10309000DFE803F02A1D3710030010EE100ACCB24F
:1030A00038F076FB41EC100B21461748BDE8104084
:1030B00036F08ABB10EE100ACCB238F069FB41EC56
:1030C000100B21461148BDE8104036F07DBB10EED4
:1030D000100ACCB238F05CFB41EC100B21460C48D6
:1030E000BDE8104036F070BB10EE100ACCB238F0DC
:1030F0004FFB41EC100B21460648BDE8104036F06E
:1031000063BB10BD5807FF1F7008FF1F5C08FF1F3F
:103110004808FF1F9808FF1F084B1B68042B0CD89A
:10312000DFE803F009070B05030034F017BF34F0A4
:1031300047BB33F025BF35F025BF70475807FF1F49
:103140002DE9F041DFF85080104F114E114D04462B
:103150000146404636F0B4FA404636F0D7FA2146EA
:10316000384636F0ADFA384636F0D0FA21463046C9
:1031700036F0A6FA304636F0C9FA2146284636F02F
:103180009FFA2846BDE8F04136F0C0BA4808FF1F54
:103190005C08FF1F7008FF1F9808FF1F04280CD849
:1031A000DFE800F009070B05030034F02FBF34F00F
:1031B0005FBB33F0B7BF35F0FBBD0020704700BFE9
:1031C00008B533F09BFF002801DD012008BD34F075
:1031D0003BFB002801DD032008BD34F003FF00287D
:1031E000D4BF0020042008BD38B5124C2068FFF77A
:1031F000D5FF0C21C5B2104835F040FE284635F009
:10320000C1FE0E4836F082FA02E02068FFF7C6FFE2
:10321000FFF7D6FF0028F8DC0421094835F02EFE20
:103220002946064836F0C6FA044836F06FFA2846B2
:1032300038BD00BF5807FF1F3C0904009808FF1F56
:103240004C09040008B5FFF7BBFF002808DB184B4A
:103250001868FFF7A3FF174BC0B25328187001D0AE
:10326000002008BD002108460122FFF71FFB124B7A
:103270001B68013B032B19D8DFE803F002070C1190
:10328000012200210220FFF711FB01220021022070
:10329000FFF70CFB012200210320FFF707FB0122AF
:1032A00000210420FFF702FB012008BD012008BD1A
:1032B0005807FF1FCD15FF1F2C19FF1F2DE9F843DD
:1032C0001C214748474E35F0D9FD474836F01EFAD5
:1032D0000E21464835F0D2FD3168434836F06AFA8F
:1032E000414836F013FA3368092B73D0192B6BD091
:1032F000032B57D03E4FDFF80491002506E0192B31
:1033000049D0032B34D001350D2D25D03868FFF777
:1033100045FF0721C4B2374835F0B0FD204635F0EF
:1033200031FE314836F0F2F9FF2C41D03368092BD9
:10333000E5D11121304805F8094035F09FFD2F48AF
:103340003AF07EF901462D4835F098FD01352648C2
:1033500036F0DCF90D2DD9D10721264835F08EFD48
:10336000204635F00FFE2048BDE8F84336F0CEB9D0
:10337000DFF89480224805F808400F2135F07EFDE3
:1033800040463AF05DF90146404635F077FD164873
:1033900036F0BCF9B7E7DFF878801A4805F808403E
:1033A0000D21EBE7184B00221A605A609A60A1E7E2
:1033B0000321164835F062FD29460B4836F0FAF92C
:1033C000094836F0A3F9C7E7114B00221A605A608A
:1033D0009A608FE7094B00221A605A609A6089E769
:1033E000540904004407FF1F9808FF1F80040400CD
:1033F0005807FF1F7409040090090400EC18FF1F10
:1034000080090400A4090400401AFF1F7C0904007D
:103410007013FF1FFFFFFFFF2DE9F04F2DED028B13
:10342000A1B004469F49A04D03A836F015FC002624
:1034300021219E482E6035F021FD21469C4836F022
:10344000B9F99B4836F062F933460CA8994A9A4973
:1034500030F072F81E9B002B00F0BD815C2036F02E
:1034600013F90646954B9DF834000E9A9449336043
:1034700000279DF83C3030730DF14008B160326197
:103480004146337506F1180077602FF03DFF7368F1
:103490008C49DFF854A2B76501334FF47A728DF886
:1034A00020708DF828700B96B16073600992CDF88A
:1034B0001CA04046DFF834B2CDF830B02FF052FFF8
:1034C0000B98002800F0188103687F4A1B6B934219
:1034D00040F09481036D002B00F00A817B4A136851
:1034E0000293029913680193019B5B1A632BF9D92C
:1034F00000282ED00368764F1B696B4EBB426FF0DD
:1035000000484FF0000972D1036D002B71D01A787A
:1035100012074DD40B9CE4B123686E4EDB6AB342B4
:1035200040F05681A06D18B139F000F80023A36572
:10353000236D002B00F0688104F118002FF012FFBA
:103540000B9D6C68013C6C60002C00F00E81002328
:103550000B93614B039C6148002C08BF1C46132150
:1035600035F08CFC20463AF06BF80146204635F0E9
:1035700085FC4F4836F0CAF8204638F077FFB0EEA9
:10358000408AF0EE608A0B9CCDF81CA024B16568DF
:10359000013D6560002D41D003A836F01DFBB0EE63
:1035A000480AF0EE680A21B0BDEC028BBDE8F08F4E
:1035B000DA695869101A01D40028ABD078230A229E
:1035C00007A90CA836F002FA0CA903A836F0BCFB38
:1035D0000CA836F001FB2B689C4256D00B980133A7
:1035E00033600028B5D003681B69BB428CD0984774
:1035F000E2E7416D00298DD091F831301B0789D564
:10360000D1E90423D1E90001101A63EB01018945D6
:1036100008BF8045D0D26FF00040CDE723682D4A27
:10362000DB6A934240F0F580A06D10B138F07EFF68
:10363000A565236D002B00F0F58004F118002FF034
:1036400091FE0B9C002CA7D02368254A5B6893420F
:1036500040F0E280A06D194B236018B138F066FF8E
:103660000023A365236D04F11805002B00F0E28010
:1036700028462FF077FEC4F808B028462FF072FED7
:1036800020465C2136F004F886E71D21154835F008
:10369000F5FB2146064836F08DF8054836F036F839
:1036A00038E700BFAC700400BC1AFF1FB409040067
:1036B0009808FF1F401AFF1F781BFF1F70010400AE
:1036C000D80004002001040075040000D820FF1F6A
:1036D000C90B00006D050000E0760400480A0400F4
:1036E000510D0000280A040044010400FC000400FD
:1036F000436D002B7FF4F2AE574B58480122122144
:103700001A7035F0BBFB564836F000F80B215548CF
:1037100035F0B4FB524835F0F9FF53490CA836F0A8
:103720009BFA00210CA8FFF79DF80CA836F054FA7C
:103730002220FFF7F1FC4D490CA836F08DFA00214C
:103740000CA8FFF78FF80CA836F046FA484B0CA8E7
:10375000196836F081FA00210CA8FFF783F80CA84D
:1037600036F03AFA9FED3A8B0DE72B68DB6AB342ED
:1037700055D1A86D10B138F0D9FEAC652B6D002B7A
:103780005DD005F118002FF0EDFD0B9C002C3FF4EF
:10379000DEAE2368374A5B68934248D1A06D364B52
:1037A000236018B138F0C2FE0023A365236D04F135
:1037B0001805002B47D028462FF0D4FDC4F808B0D8
:1037C00028462FF0CFFD20465C2135F061FFBEE694
:1037D00020469847B4E61F9B002B7FF43FAE4FF482
:1037E0007A72DFF898A08DF820308DF828300B938E
:1037F0000992CDF81CA00DF140085AE69847002820
:103800003FF47AAF0B9869E6636D002B7FF494AEBA
:1038100096E62046984714E720469847BCE6284697
:103820009847B2E7636D002B7FF407AF09E72046A6
:1038300098478CE6636D002B7FF41AAF1BE76B6D26
:10384000002B9ED1A1E7636D002BB4D1B6E700BF7A
:103850000000000000000000CC15FF1FD809040084
:103860009808FF1FEC090400F8090400140A04007A
:103870008007FF1F510D0000700104004401040087
:103880002DE9F04F2DED028BADF2BC5DB5498146BF
:1038900003A836F0E1F9B44907A836F0DDF90023B2
:1038A00029A8B24AB2492FF047FE3B9B002B00F0FB
:1038B0005F845C2035F0E8FE0446AE4B9DF8A8001E
:1038C0002B9AAD49236000269DF8B03020730DF18E
:1038D000B408A1602261237504F1180041466660B6
:1038E0002FF012FD6368A54AA54DA6650BAF013305
:1038F00063604FF47A73A2603C613E713E73BB60BB
:103900003D604046DFF8A882CDF8A4802FF02AFD64
:1039100000263969002900F0EE800B68994ADB6BBC
:10392000934240F01C8300231A46183119A84FF423
:103930007A74DFF848B28DF858308DF860302793EC
:1039400028931794CDF854B02FF060FD279B002BDF
:1039500000F05E835C2035F097FE04464FF0000ACD
:103960009DF85810179A8348834B9DF860E02060BB
:103970002173226119A904F11800A36084F814E0EE
:10398000C4F804A02FF0C0FC6268C4F808B001328B
:103990004FF47A71C4F858A08DF844A08DF84CA06B
:1039A000149410956260129119A8CDF854802FF0EC
:1039B000D9FC149C002C00F02C842368724A5B6BA9
:1039C000934240F0ED81A16D002900F0698315A8B4
:1039D00036F042F91498002800F09E8002686B4986
:1039E000136B8B4240F07381036D002B00F0C2819A
:1039F000926B67498A4240F0D7811B7813F0700FB1
:103A000014BF01200020002800F0698101215748DF
:103A100035F034FA5F4835F079FE149C04B323681E
:103A2000DFF874B1DB6A5B4540F0B781A06D18B177
:103A300038F07CFD0023A365236D002B00F0E382AA
:103A400004F118002FF08EFCDDF850A0DAF80440E5
:103A5000013CCAF80440002C00F05181002314936B
:103A600015A836F0B9F8149C1095002C3FF451AF0E
:103A70006368013B6360002B7FF44BAF22684649CB
:103A8000D26A01938A4240F02283A06D18B138F0C7
:103A90004DFD019BA365236D002B00F0338304F1E2
:103AA00018002FF05FFC149C002C3FF432AF236809
:103AB0003A4A5B68934240F01C83A06D2D4B236013
:103AC00018B138F033FD0023A365236D04F1180B02
:103AD000002B00F0218358462FF044FCC4F80880E6
:103AE00058462FF03FFC5C21204635F0D1FD396966
:103AF00000297FF412AF4FF47A738DF844108DF8DB
:103B00004C10149115A826491095129336F0A4F87C
:103B1000149800287FF462AF1321224835F0AEF9E3
:103B20001C4835F0F3FD15A836F056F8149B109597
:103B300013B114A8FDF730F91B491C4C15A836F039
:103B40008BF8002115A8FEF78DFE15A836F044F875
:103B500007EE906AB8EEE78A0020B0EE480AFFF759
:103B60007FFA27E05C0A0400640A04006C0A04007F
:103B7000781BFF1F70010400D8000400200104001E
:103B800044010400950500001907000075040000B9
:103B9000310900009808FF1F6D050000510D00005D
:103BA000AC700400700A0400840A04008407FF1F3C
:103BB000FC000400216815A836F04EF8002115A875
:103BC000FEF750FE15A836F007F8B64915A836F0EE
:103BD00043F8002115A8FEF745FE15A835F0FCFFB7
:103BE000B0EE480A0020FFF73BFA216815A836F02E
:103BF00033F8002115A8FEF735FE15A835F0ECFFC7
:103C00000C21A94835F03AF93146A84835F0D2FDE3
:103C1000A64835F07BFD29AC4FF00008204639F06E
:103C20000FFD0146204635F029F9A04835F06EFD1C
:103C30000A219F4835F022F908F101089B4835F028
:103C400065FD464504F10D04E8DA09EB490429ABAA
:103C500009EB84046FF00C0A1C44DFF88CB209F104
:103C6000FF330AFB09FA0193012606F1FF3803210D
:103C7000904835F003F941468C4835F09BFDC1462C
:103C800003210AEB04088C4835F0F8F8404639F077
:103C9000D7FC0146404635F0F1F8019B874803EB1D
:103CA0000608132135F0EAF84146804835F082FDD8
:103CB0007E4835F02BFD09F1FF33052B76D8DFE880
:103CC00013F01501EE00EC00EA00B2005301984732
:103CD00000283FF421AF1498002840F09D8203A9EA
:103CE00015A836F0DFF80028C0F29E81152174482F
:103CF00035F0C4F86D4835F009FD149C8EE6DAF80D
:103D00000020D26A5A4540F0DF81DAF8580018B135
:103D100038F00CFCCAF85840DAF85020002A00F0BD
:103D2000EB810AF118002FF01DFB149C002C3FF4CE
:103D300095AE2368634A5B68934240F0D781A06DDB
:103D4000614B236018B138F0F1FB0023A365236DAC
:103D500004F1180B002B00F0DA8158462FF002FB1B
:103D6000C4F8088058462FF0FDFA20465C2135F053
:103D70008FFC73E6436D002B3FF4CEAE926B534B3A
:103D80009A4211D1436D002BA9D093F8313013F032
:103D9000500F14BF0120002035E62046984753E617
:103DA00020469847014612E690472CE6484915A858
:103DB00035F052FF002115A8FEF754FD15A835F087
:103DC0000BFF444915A835F047FF002115A8FEF761
:103DD00049FD15A835F000FF214615A835F03CFF38
:103DE000002115A8FEF73EFD15A835F0F5FE20468A
:103DF00039F026FC0146204635F040F82B4835F0D6
:103E000085FCDBF8001015A835F026FF002115A869
:103E1000FEF728FD15A835F0DFFE072E00F0E18043
:103E200001360D3421E72C4915A835F015FF002186
:103E300015A8FEF717FD15A835F0CEFE254915A8E3
:103E400035F00AFF002115A8FEF70CFD15A835F086
:103E5000C3FE214615A835F0FFFE002115A8FEF788
:103E600001FD15A835F0B8FE204639F0E9FB014602
:103E7000204635F003F80D4835F048FCDBF800101B
:103E800015A835F0E9FE15A80021FEF7EBFC15A8F2
:103E900035F0A2FEC4E71149C6E71149C4E711494C
:103EA000C2E700BFA40A0400BC0A04009808FF1F70
:103EB000D83E0400DC0A0400CC310400CC0A040023
:103EC000A40B0400510D0000700104003109000032
:103ED000E00A0400F80A0400740B04005C0B040000
:103EE000440B04002C0B04008007FF1FA94915A8F0
:103EF00035F0B2FE002115A8FEF7B4FC15A835F088
:103F00006BFEA54915A835F0A7FE002115A8FEF700
:103F1000A9FC15A835F060FE214615A835F09CFED9
:103F2000002115A8FEF79EFC15A835F055FE204689
:103F300039F086FB0146204634F0A0FF974835F063
:103F4000E5FBDBF8001015A835F086FE002115A86A
:103F5000FEF788FC15A835F03FFE914964E7002282
:103F600010A89847149C25E58E4915A835F074FED5
:103F7000002115A8FEF776FC15A835F02DFE864920
:103F800015A835F069FE002115A8FEF76BFC15A8F1
:103F900035F022FE08EB480308EB830829AB984470
:103FA000414615A835F058FE002115A8FEF75AFC29
:103FB00015A835F011FE404639F042FB0146404657
:103FC00034F05CFF754835F0A1FBDBF8001015A854
:103FD00035F042FE15A80021FEF744FC15A835F087
:103FE000FBFD3B693D6013B10FA8FCF7D5FE07A8A8
:103FF00035F0F2FD03A835F0EFFD0DF2BC5DBDEC30
:10400000028BBDE8F08F636D002B7FF419AD1BE5CB
:10401000289B002B7FF49EAC8DF8443012948DF8D1
:104020004C3010951493BFE407A915A835F03AFF5A
:104030000028BFF65BAE149C7CB323685A4A5B6BC6
:10404000934249D1D4F858B0BBF1000F6ED0584616
:1040500039F0F6FA5C460146204634F00FFF4F482F
:1040600035F054FB622E02DD149C0136D6E406EBDB
:10407000460B149C06EB8B0B29AB9B4454B3236873
:10408000494A5B6B93424CD1A16D002900F09480AA
:1040900058460D2239F092FBE7E72146434CDBE717
:1040A0004FF48070019138F039FAA065D8B10199C8
:1040B0000170236D002B51D001464FF480721846D9
:1040C0002EF05AFFA16D82E4504690472DE620461F
:1040D0009047E8E43549DBE720469847044639F045
:1040E000AFFA0146B8E73249A16570E42046984727
:1040F000B4E4204698470CE4DAF85420002A7FF410
:1041000010AE12E6636D002B7FF4C9ACCBE4636D97
:10411000002B7FF422AE23E6636D002B7FF4DBAC33
:10412000DCE420469847149C0146B1E74FF48070C8
:1041300038F0F4F90146A06558B180F800B0206D60
:10414000002858D04FF480722EF016FFD4F858B0E3
:104150007DE7DFF85CB0C4F858B078E7636D2BB149
:1041600001464FF4807218462CF048FDA16D2EE4F4
:104170003C9B002B7FF49DAB0BAF4FF47A720D4D3F
:104180003B713B733B61BA603D600DF1B408FFF7D2
:10419000B8BB00BFFC0A0400F80A04009808FF1F1F
:1041A000140B04008C0B040019070000AC70040011
:1041B0001413FF1F440104004FF48070019138F084
:1041C000ADF9A06500B301990170236D43B10146BB
:1041D0004FF4807218462EF0CFFEA16D149C57E765
:1041E000636DA3B101464FF4807218462CF006FDB2
:1041F000A16D149C4CE7606D18B14FF480722CF0E7
:10420000FDFCD4F858B022E70949A16540E7A16D4B
:104210003EE70849FFF7DBBB0268074B926B9A4207
:104220007FF4C2AD036D002B7FF4E7ABAAE500BFBE
:104230001413FF1FAC700400310900002DE9F04F8A
:10424000ABB000234FF47A72BA490290BA4E8DF89F
:10425000343008A88DF83C3010930E920C9635F04F
:10426000FBFC882035F012FA0823102280E80C00AD
:10427000C118069100F188070D460C462046002122
:10428000103435F0E9FCBC42F8D11A21AB4834F0C7
:10429000F5FDAB4835F03AFA002316A8A94AAA4919
:1042A0002FF04AF9289B002B00F04F845C2035F05A
:1042B000EBF90446A54A9DF85C00189BA4492260CE
:1042C0004FF000089DF8642020731AAFA1602361AD
:1042D0003946227504F11800C4F804802FF014F850
:1042E00063689C49C4F8588001334FF47A728DF8A2
:1042F00048808DF8508015941196A16063601392E8
:10430000954B169338462FF02DF8159B002B00F097
:10431000C7835A68109901325A60002900F03D8421
:1043200010A8FCF739FD159B11961093002B00F097
:10433000BB8315A8FCF730FD1098002800F0B4836B
:1043400002688649136B8B4240F0EE83036D002BAD
:1043500000F0CE83926A82498A4240F00684DC698A
:104360008048DFF81C920A2134F088FD00230A22DD
:104370002146734835F0DEF9714835F0C7F9092157
:10438000794834F07BFD029C6D48214635F012FAE5
:104390006B4835F0BBF90D21744834F06FFDD9F846
:1043A0000010674835F006FA654835F0AFF9002C83
:1043B00040F06B836423C9F800304FF0060B0024F3
:1043C000DFF8C0A103940795CDF810A0109900293B
:1043D00000F06A810B68664ADB6B934240F01A83F7
:1043E00000231A4618314FF47A785A4D8DF85C3014
:1043F00038468DF8643028932993CDF8608016955F
:104400002FF004F8289A002A00F00E835C2035F083
:104410003BF980464FF0000A9DF85C0018994B4B21
:104420004B4A9DF864E088F80C00C8F81010C8F8F2
:104430000030394608F11800C8F8082088F814E060
:10444000C8F804A02EF060FFD8F80410C8F808508F
:1044500001314FF47A70C8F858A08DF848A08DF853
:1044600050A0CDF854801196C8F8041013903A4B20
:10447000169338462EF076FF159D002D00F0C78369
:104480002B683C4A5B6B934240F07182D5F85880B0
:10449000B8F1000F00F0E382404639F0D1F8014650
:1044A000404634F0EBFC264835F030F9159B002BE4
:1044B00000F04D821A683048916B814240F00081D3
:1044C000196D002900F09582097811F0700F14BF62
:1044D00001210021002900F0FD80013C002B00F0AB
:1044E0006D811A681D49126B8A4240F036821A6D3E
:1044F000002A00F08A821A68204DD26AAA4240F04F
:10450000AA81986D28B1019338F010F8019B002220
:104510009A651A6D002A00F0828203F118002EF0CD
:1045200021FF159A5368013B5360002B00F0D281A4
:104530002AE000BF5C0A040044010400540C04009B
:104540009808FF1F6C0A0400781BFF1F700104000D
:10455000D800040020010400FC00040075040000E1
:10456000E5080000D40B0400E00B0400EC0B040091
:104570009505000019070000310900006D050000D5
:104580000407FF1F8007FF1F0134A345BFF61EAFBE
:10459000079DDDF810A001277C1E0321AF4834F0F1
:1045A0006DFC2146AE4835F005F90321AD4834F0E5
:1045B00065FC2946AA4835F083F8BC1EA84835F0AA
:1045C000A5F8052C07D8DFE814F06D006B00690032
:1045D00067003900D901A44916A835F03DFB002138
:1045E00016A8FEF73FF916A835F0F6FA9F4916A867
:1045F00035F032FB002116A8FEF734F916A835F085
:10460000EBFA294616A835F03BFB002116A8FEF769
:1046100029F916A835F0E0FADAF8001016A835F0F6
:104620001BFB002116A8FEF71DF916A835F0D4FAD9
:10463000072F00F0D08110350137ADE78C4916A85F
:1046400035F00AFB002116A8FEF70CF916A835F084
:10465000C3FA864916A835F0FFFA002116A8FEF71E
:1046600001F916A835F0B8FA294616A835F008FB66
:10467000002116A8FEF7F6F816A835F0ADFADAF81C
:10468000001016A835F0E8FA16A80021FEF7EAF89F
:1046900016A835F0A1FACEE77649D0E77649CEE7FD
:1046A0007649CCE77649CAE74FF47A738DF848101B
:1046B0008DF85010119615911393DFF8E481EFE611
:1046C00018468847159B00287FF407AF002B00F0A1
:1046D0003E811A68526B6B498A4240F0B9819D6DE8
:1046E000002D00F0DF80294616A835F0B5FA0F211D
:1046F000654834F0C3FB16A9594834F0E1FF0621A0
:10470000624834F0BBFB08A916A835F0CBFB014684
:10471000534835F04FF8524834F0F8FF08A916A86E
:1047200035F0C0FB0028C0F26281029BA34217DC77
:10473000069B039A159D03EB0218002D00F0A38140
:104740002A685049526B8A4240F0F681A96D0029CF
:1047500000F00F82404635F0FFFA039B01330393CC
:104760000A214B4834F08AFB21463D4835F022F8B7
:1047700003213C4834F082FB159D002D00F0E980B8
:104780002B68404A5B6B934240F05B81D5F85880C0
:10479000B8F1000F00F09981404638F051FF014612
:1047A000404634F06BFB03212E4834F067FB16A81B
:1047B00035F012FA159B002B7FF493AE0F2135488C
:1047C00034F05CFB2146264834F0F4FF03212548F1
:1047D00034F054FBD9F80010214834F0EBFF04F119
:1047E000080303211F48C9F8003034F047FBD9F80B
:1047F00000101B4834F0DEFF194834F087FF2649CB
:1048000016A835F029FA002116A8FEF72BF816A8ED
:1048100035F0E2F92220FEF77FFC631E00EE103A2D
:104820000020B8EEC00AFEF71BFC049B16A819680E
:1048300035F012FA002116A8FEF714F816A835F084
:10484000CBF9159B002B3FF49FAE1A68134DD26A2B
:10485000AA423FF456AE1846904762E6DC0A0400CE
:104860009808FF1FCC310400E00A0400F80A040095
:10487000740B04005C0B0400440B04002C0B0400BC
:10488000FC0A040019070000700C04001C0C040052
:10489000240C0400300C0400400C04006D050000E2
:1048A000AC7004004FF48070019337F037FE019B29
:1048B0009865002800F0358105701A6D002A00F017
:1048C0009081014610464FF480722EF055FB019BFB
:1048D0009D6D08E711680193C96AA94240F0BC8048
:1048E000906D28B1059237F021FE059A019B9365E2
:1048F000136D002B00F0DD8002F118002EF032FD68
:10490000159D002D3FF440AE2B68A74A5B6893428B
:1049100040F0C380A86DA54B2B6018B137F006FEA0
:104920000023AB652B6D002B00F0C88005F1180348
:10493000184601932EF016FD019B9D4AAA60184669
:104940002EF010FD28465C2134F0A2FE1CE69949A9
:10495000CAE6DFF86082294622E718469047002819
:104960003FF42CAF159B002B7FF46FAF0CE628466D
:104970009847804638F064FE014691E58E4916A8B6
:1049800035F06AF9002116A8FDF76CFF16A835F07E
:1049900023F98A4916A835F05FF9002116A8FDF71A
:1049A00061FF16A835F018F9294616A835F068F900
:1049B000002116A8FDF756FF16A835F00DF9DAF814
:1049C000001016A835F048F916A80021FDF74AFF97
:1049D00016A835F001F908A835F0FEF8109B0C96E2
:1049E00013B110A8FCF7D8F92BB0BDE8F08F013C4B
:1049F000B6E6596D00293FF46DAE91F8311011F013
:104A0000500F14BF0121002164E55A6D002A7FF484
:104A100072ADD3E6002211A89847159D2DE55A6D79
:104A2000002A7FF47AAD7CE5299A002A7FF4EEAC67
:104A30008DF84820CDF84C808DF8502011961592B5
:104A400015E528469847804638F0FAFD0146A7E666
:104A500018469047014647E61046884750E74FF40E
:104A6000807037F05BFD0146A865002868D080F8AB
:104A70000080286D002846D04FF480722EF07CFA1A
:104A8000D5F8588008E54B4964E6029B13F1060B04
:104A90007FF595ACDFF834A17DE52846984773E5AE
:104AA000109B002B7FF43CAC0E21454834F0E6F916
:104AB00091E7536D002B7FF41FAF21E76B6D002B47
:104AC0007FF434AF05F1180337E74FF4807037F007
:104AD00025FD0146A865F8B180F80080286D002802
:104AE00076D04FF480722EF047FAD5F8588053E60E
:104AF000436D002BD8D0926A324B9A4235D1436D28
:104B0000C3B11C692CE4686D18B14FF480722CF0AD
:104B100075F8D5F85880BFE4DFF8AC80C5F8588048
:104B20003AE6294D9D65DEE598470028BCD01098EF
:104B3000002870D1002413E428469047014609E676
:104B4000DFF88480C5F85880A6E4299B002B7FF409
:104B5000ADAB4FF47A728DF848308DF85030119625
:104B6000159313921AAFFFF7CBBB90470446FFF79C
:104B7000F7BB4FF48070019137F0D0FCA86580B18D
:104B8000019901702A6D002A37D0014610464FF472
:104B900080722EF0F1F9A96DDCE510931196FFF704
:104BA000C8BB0949A965D5E5510D00007001040095
:104BB000FC000400AC7004008C0B0400F80A040034
:104BC000FC0B0400E50800001413FF1F8007FF1F03
:104BD000686D18B14FF480722CF010F8D5F8588039
:104BE000DAE55A6D3AB1014610464FF480720193EE
:104BF0002CF004F8019B9D6D75E56A6D2AB10146A4
:104C000010464FF480722BF0F9FFA96DA2E5DFF892
:104C10002080294644E40268044B926A9A42A4D157
:104C2000036D002B3FF46BAFFFF799BBE508000065
:104C3000AC700400FFFFFFFF2DE9F0472DED028B64
:104C40009E4C9F49ACB00026054603A8266035F06F
:104C500003F8314607A834F0FFFF31460BA834F0C3
:104C6000FBFF1221974834F009F9974838F0E8FC27
:104C70000146954834F002F9944834F047FD334634
:104C800018A8914A92492EF057FC2A9B002B00F05D
:104C900083835C2034F0F8FC06468E4B9DF864005C
:104CA0001A9A8D49336000279DF86C3030730DF1EE
:104CB0007008B16032614146337506F118007760C3
:104CC0002EF022FB73688549DFF838A2B7650133FF
:104CD0004FF47A728DF850708DF858701796B16055
:104CE00073601592CDF84CA07D4B189340462EF082
:104CF00039FB1798002800F0CB810368794A1B6BB9
:104D0000934240F05C83036D002B00F0BD81764A36
:104D100013680293029913680193019B5B1A132B8A
:104D2000F9D9002831D0DFF8E091DFF890816FF0F9
:104D30000046002703681B694B4540F09481036DD2
:104D4000002B00F06F811A78120740F17181DA6947
:104D50005869101A02D4002800F06A8178230A22C8
:104D600013A918A834F032FE18A903A834F0ECFFF8
:104D700018A834F031FF2368AB4200F0598117982E
:104D80000133C8F800300028D4D1002103A835F041
:104D900061F8564D03782B60012203A918A835F05D
:104DA000B7F818A907A834F0CFFF18A834F014FFFB
:104DB00003A94F4834F0C0FF2D214E4834F05EF86F
:104DC0002168424834F0F6FC404834F09FFC0C2146
:104DD000494834F053F829683C4834F0EBFC3B4830
:104DE00034F094FC1221454834F048F840493748E3
:104DF00034F066FC354834F089FC0821404834F032
:104E00003DF807A9314834F05BFC304834F07EFCB3
:104E10002B680D3B4D2B00F2BA82DFE813F0AF0098
:104E2000B802B802B802B802B802B802B802B802B2
:104E3000B802B802B802B802B802B802B802B802A2
:104E4000B802B802B802B802B802B802B802B80292
:104E5000B802B802B802B802B802B802B802B80282
:104E6000B802B802B802B802B802B802B802B80272
:104E7000B802B802B802B802B8024901B802B802D2
:104E8000B802B802B802AF00AF00AF00B802AF007E
:104E9000110233025502AF0096025701B802B80260
:104EA0008201AF00AF00A401B802AF00B802B8029F
:104EB000B2017700AF00B802AF0000BFBC1AFF1FFD
:104EC000AC700400800C0400EC18FF1F9808FF1F52
:104ED000781BFF1F70010400D800040020010400AB
:104EE000FC00040075040000D820FF1F181BFF1FE2
:104EF000A815FF1FA40C0400D40C0400E40C04004B
:104F0000F80C040044010400C90B0000012103A8AF
:104F100034F0A0FF01780FA834F0E4FE0FA8AE49EA
:104F200034F082FF002840F05582AC490FA834F0DD
:104F30007BFF08B102232B60022203A918A834F0DA
:104F4000E7FF18A907A834F0FFFE18A834F044FEC4
:104F50000D21A34833F092FF2968A24834F02AFCBF
:104F60000521A14833F08AFF07A99E4834F0A8FB29
:104F70009C4834F0CBFB0FA834F02EFE9B4B079CD3
:104F8000002C08BF1C46204637F070FA0B219848C9
:104F9000B0EE408AF0EE608A33F070FF07A99148C6
:104FA00034F08EFB8F4834F0B1FB0C21914833F084
:104FB00065FF204638F044FB0146204633F05EFF93
:104FC000884834F0A3FB07218B4833F057FFB0EE3D
:104FD000480AF0EE680A0221824834F0F5FB814865
:104FE00034F094FB1A21854833F048FF7D4834F0B3
:104FF0008DFB179BCDF84CA013B117A8FBF7CCFE87
:105000000BA834F0E9FD07A834F0E6FD03A834F05E
:10501000E3FDB0EE480AF0EE680A2CB0BDEC028B5E
:10502000BDE8F087416D19B191F831301B071CD4F0
:10503000179D002D3FF4A9AE2B68714ADB6A93429D
:1050400033D1A86D18B137F071FA0023AB652B6D21
:10505000002B00F0BA8105F118002EF083F917A893
:10506000FBF79AFE91E6984775E6D1E90423D1E96A
:105070000001101A63EB01018F4208BF8642BFF4A2
:105080006AAE6FF0004066E6436D002B7FF43FAEE2
:105090005C4B5D4801220F211A7033F0EFFE51483E
:1050A00034F034FB9FED488BA3E728469847D6E7BA
:1050B0000B21564833F0E2FE4A4834F027FB07A99B
:1050C000534834F039FE9FED428B92E7012103A84B
:1050D00034F0C0FE01784F4834F048FE022203A9A4
:1050E00018A834F015FF18A907A834F02DFE18A849
:1050F00034F072FD1B21484833F0C0FE4549394861
:1051000034F0DEFA374834F001FB44480C2133F028
:10511000B5FE07A9334834F0D3FA324834F0F6FA32
:105120002CE7012103A834F095FE01783C4834F0C7
:105130001DFE022203A918A834F0EAFE18A907A848
:1051400034F002FE18A834F047FD0921354833F049
:1051500095FE3349234834F0B3FA224834F0D6FAA6
:1051600009213148D3E7314C3148012329212370EB
:1051700033F084FE21781B48FCF71AF89FED148B5E
:1051800037E7012103A834F065FE0178294834F09F
:10519000EDFD022203A918A834F0BAFE18A907A849
:1051A00034F0D2FD18A834F017FD0921224833F05D
:1051B00065FE20490B4834F083FA0A4834F0A6FA19
:1051C00009211E48A3E700BF000000000000F0BF57
:1051D0000000000000000000040E0400200E040087
:1051E000240E04009808FF1F180E0400E076040047
:1051F000640E0400700E0400800E0400880E04008B
:105200006D050000CC15FF1F940C0400040D040074
:105210008013FF1FEC17FF1F7C0D0400980D040086
:105220003C13FF1FA80D0400B40D0400F814FF1F69
:10523000C00D0400CC1AFF1FEC0D0400F80D040093
:10524000012103A834F006FE01786D4834F08EFD8C
:10525000022203A918A834F05BFE18A907A834F0AD
:1052600073FD18A834F0B8FC0921664833F006FE37
:105270006349654834F024FA634834F047FA092159
:10528000624844E7012103A834F0E4FD0178604856
:1052900034F06CFD022203A918A834F039FE18A9D5
:1052A00007A834F051FD18A834F096FC092159489C
:1052B00033F0E4FD5649544834F002FA524834F0D1
:1052C00025FA0921544822E70023142218A907A827
:1052D00034F0CEFD5149524D524C18A839F0AAFC79
:1052E00037F0C4F851EC100B36F09EFD4E492860A3
:1052F000002039F09FFC37F0B9F851EC100B36F074
:1053000093FD06212060494833F0B8FD07A93E48C7
:1053100034F0D6F90921464833F0B0FD286836F05C
:1053200037FA41EC100B0221374834F04DFA0921CD
:10533000404833F0A3FD206836F02AFA41EC100B08
:1053400002213148FBF754FF18E6012103A834F08D
:1053500081FD0178384834F009FD022203A918A81C
:1053600034F0D6FD18A907A834F0EEFC18A834F0E4
:1053700033FC0921314833F081FD2549224834F0BE
:105380009FF9214834F0C2F909212D48BFE62D4C80
:105390002D4801232E21EAE62B9B002B7FF479ACCC
:1053A0004FF47A72DFF8ACA08DF850308DF8583099
:1053B00017931592CDF84CA00DF1700894E498471E
:1053C00000283FF465AE1798A1E46B6D002B7FF4C5
:1053D00042AE44E601231D490B482B60FBF7C8FE93
:1053E0002968094834F0E6F919490748FBF7C0FE77
:1053F00007A9054834F064F9034834F087F99BE5C0
:105400009013FF1F100D04009808FF1F1C0D0400CF
:105410009815FF1F280D0400340D0400400D0400F2
:10542000201BFF1FC815FF1FBC700400440D0400A3
:105430004C0D0400580D04005818FF1F640D0400A3
:10544000700D0400F814FF1F340E0400080E040051
:10545000180E04004401040008B5084BDFED080AEB
:10546000D3ED007A27EE800A34F0CEFF34F024FF2B
:10547000044BD3ED007A20EE270A08BDA016FF1FCB
:10548000DB0FC940301AFF1F08B5304A304B92ED90
:10549000010A93ED007ADFED2F6A2F4BB8EEC77A41
:1054A0005B6CC6EE877A013BB8EEC00A2DED028B2D
:1054B00027EE800A032B45D8DFE803F03E3832029E
:1054C000264B93ED018AB8EEC88AFFF7C5FF244A40
:1054D000244B92ED007A002283F8902072B6DFED23
:1054E000227A93ED206AD3ED1F6A30EE480AB8EEB7
:1054F000C77AC0EE275AC5EE877A67EE867AF4EE51
:10550000E67AC3ED1E7AD3ED227AF1EE10FAD8BF17
:10551000F1EE677AC3ED237A62B6BDEC028B08BD6B
:10552000124B93ED018AB8EEC88ACEE7104B93ED8B
:10553000018AB8EEC88AC8E70E4B93ED018AB8EE2F
:10554000C88AC2E79FED0C8ABFE700BF301BFF1F70
:10555000281BFF1FDB0FC9404C1AFF1FB413FF1F8E
:10556000A013FF1F9C19FF1FCDCCCC3CD015FF1FF3
:105570006818FF1FAC18FF1F000000002DE9F04164
:10558000C54BBEB01D6805AC2D1B3EAE281930F0D2
:10559000A1FF04F8010BA642F8D1C049C04CC14E8E
:1055A000C14DC24F01A834F057FB002101A8FDF7FF
:1055B00059F901A834F010FB2220FDF7ADFDDDED17
:1055C000057A0020B8EE670AFDF74AFD216801A8B8
:1055D00034F042FB002101A8FDF744F901A834F0A2
:1055E000FBFAB34901A834F037FB002101A8FDF70D
:1055F00039F901A834F0F0FA2220FDF78DFDDDED38
:10560000067A0020B8EE670AFDF72AFD216801A896
:1056100034F022FB002101A8FDF724F901A834F0A1
:10562000DBFAA44901A834F017FB002101A8FDF71B
:1056300019F901A834F0D0FA2220FDF76DFD9DED97
:10564000070A0420FDF70CFD216801A834F004FBD3
:10565000002101A8FDF706F901A834F0BDFA96492A
:1056600001A834F0F9FA002101A8FDF7FBF801A820
:1056700034F0B2FA2220FDF74FFD9DF8B01001A8DA
:10568000002914BF3146294634F0E6FA002101A86A
:10569000FDF7E8F801A834F09FFA216801A834F07A
:1056A000DBFA002101A8FDF7DDF801A834F094FA37
:1056B000824901A834F0D0FA002101A8FDF7D2F800
:1056C00001A834F089FA2220FDF726FDDDED087AE5
:1056D0000020B8EE670AFDF7C3FC216801A834F08A
:1056E000BBFA002101A8FDF7BDF801A834F074FA57
:1056F000734901A834F0B0FA002101A8FDF7B2F80F
:1057000001A834F069FA2220FDF706FDDDED097AE3
:105710000020B8EE670AFDF7A3FC216801A834F069
:105720009BFA002101A8FDF79DF801A834F054FA76
:10573000644901A834F090FA002101A8FDF792F81D
:1057400001A834F049FA2220FDF7E6FCDDF82880B4
:10575000062000EE108AFDF783FC216801A834F0D2
:105760007BFA002101A8FDF77DF801A834F034FA96
:105770002321554833F082FB786936F009F841EC73
:10578000100B0821514834F01FF8504833F0BEFF89
:1057900027214F4833F072FB404635F0F9FF41ECCA
:1057A000100B0821494834F00FF8484833F0AEFF99
:1057B000484901A834F050FA002101A8FDF752F839
:1057C00001A834F009FA2220FDF7A6FC9DF8B110DB
:1057D00001A8002914BF3146294634F03DFA0021C2
:1057E00001A8FDF73FF801A834F0F6F9216801A8F7
:1057F00034F032FA002101A8FDF734F801A834F0A2
:10580000EBF9354901A834F027FA002101A8FDF78A
:1058100029F801A834F0E0F92220FDF77DFCDDED48
:105820000D7A0020B8EE670AFDF71AFC216801A87E
:1058300034F012FA002101A8FDF714F801A834F0A1
:10584000CBF9264901A834F007FA002101A8FDF799
:1058500009F801A834F0C0F92220FDF75DFCDDED68
:105860000E7A0020B8EE670AFDF7FAFB216801A85E
:1058700034F0F2F9002101A8FCF7F4FF01A834F09C
:10588000ABF9174901A834F0E7F9002101A8FCF7AA
:10589000E9FF01A826E000BF2016FF1FB00E04009C
:1058A0008007FF1FA40E0400A80E04000417FF1FAA
:1058B000C80E0400E00E0400F80E0400100F0400EF
:1058C000200F0400300F0400400F04009808FF1F51
:1058D000640F04008C0F04009C0F0400AC0F040044
:1058E000BC0F040034F078F92220FDF715FC9DED83
:1058F0000F0A0520FDF7B4FB216801A834F0ACF9CC
:10590000002101A8FCF7AEFF01A834F065F9C249F7
:1059100001A834F0A1F9002101A8FCF7A3FF01A818
:1059200034F05AF92220FDF7F7FB9DF8B21001A8D8
:10593000002914BF3146294634F08EF9002101A810
:10594000FCF790FF01A834F047F9216801A834F072
:1059500083F9002101A8FCF785FF01A834F03CF988
:10596000AE4901A834F078F9002101A8FCF77AFFCC
:1059700001A834F031F92220FDF7CEFBDDED347AB9
:105980000020B8EE670AFDF76BFB216801A834F030
:1059900063F9002101A8FCF765FF01A834F01CF9A8
:1059A0009F4901A834F058F9002101A8FCF75AFFDB
:1059B00001A834F011F92220FDF7AEFBDDED357AB8
:1059C0000020B8EE670AFDF74BFB216801A834F010
:1059D00043F9002101A8FCF745FF01A834F0FCF8C9
:1059E000904901A834F038F9002101A8FCF73AFFEA
:1059F00001A834F0F1F82220FDF78EFB9DED360A68
:105A00000520FDF72DFB216801A834F025F90021C0
:105A100001A8FCF727FF01A834F0DEF8824901A8AD
:105A200034F01AF9002101A8FCF71CFF01A834F09A
:105A3000D3F82220FDF770FB9DF8DC1001A80029A7
:105A400014BF3146294634F007F9002101A8FCF7BC
:105A500009FF01A834F0C0F8216801A834F0FCF86F
:105A600001A80021FCF7FEFE01A834F0B5F8339B35
:105A7000012B00F065836D496D4D01A834F0ECF801
:105A8000002101A8FCF7EEFE01A834F0A5F8296872
:105A900001A834F0E1F8002101A8FCF7E3FE01A819
:105AA00034F09AF8634901A834F0D6F8002101A82F
:105AB000FCF7D8FE01A834F08FF8296801A834F06B
:105AC000CBF8002101A8FCF7CDFE01A834F084F842
:105AD000594901A834F0C0F8002101A8FCF7C2FE22
