:10000000F8FF02209901000081A8030039A803002D
:1000100039A8030039A8030039A8030039A8030050
:1000200039A8030039A8030039A8030081A80300F8
:1000300081A8030039A8030071D3030075D303001E
:1000400081A8030081A8030081A8030081A8030000
:1000500081A8030081A8030081A8030081A80300F0
:1000600081A8030081A8030081A8030081A80300E0
:1000700081A8030081A8030081A8030081A80300D0
:1000800081A8030081A8030081A8030081A80300C0
:1000900081A8030081A8030081A8030081A80300B0
:1000A00081A8030081A8030081A8030081A80300A0
:1000B00081A8030081A8030081A8030065B40300A0
:1000C00081A8030081A8030081A8030089BB030065
:1000D00081A8030025C3030081A8030081A80300B1
:1000E00081A8030081A80300559E030081A8030096
:1000F00081A8030081A8030081A8030081A8030050
:1001000051D8030065D8030079D803008DD80300C7
:1001100081A8030015C6030081A8030081A803007D
:1001200081A8030081A8030081A8030081A803001F
:1001300081A8030081A8030081A8030081A803000F
:1001400081A8030081A8030081A8030081A80300FF
:1001500081A8030081A8030081A8030081A80300EF
:1001600081A8030081A8030081A8030081A80300DF
:1001700081A8030081A8030081A8030081A80300CF
:1001800081A8030081A8030081A8030081A80300BF
:1001900081A8030081A80300584B4CF2205210B5EF
:1001A0001A804DF628121A8000BF00BF3AF06CFB8F
:1001B000534B4FF030621A60524A9A60524ADA60EA
:1001C000524B4FF470021A60514A136813F4807353
:1001D00004D150490B604FF4A85313604E4B1A786A
:1001E000110703D51A7842F008021A704B4B4C499C
:1001F0002A221A704B4A4C4B8B4204D252F8040FFD
:1002000043F8040BF8E7494B494900228B4202D2DC
:1002100043F8042BFAE74749474A002352F82300E2
:1002200041F823000133662BF8D1444B444A802126
:1002300003F8011B9342FBD1424B3E4A1A60424BEA
:100240008A221A70A3F5805324225A70A0221A70B1
:100250009A799207FCD59A79D406FCD43B4A9379D3
:1002600003F00C03082B394BF9D103221A714622F3
:100270005A719A799006FCD5344A9179334B4906E4
:10028000FBD5334A4FF08271116009215160202261
:100290001A709A7902F00C020C2AFAD12D4B2E4AD0
:1002A0001A602E4B2E4A1A6000225A60072243F829
:1002B000042C2C4AC3F80C2D62B63AF031FC154BD5
:1002C0001B68DA0705D528483AF08CFB274B284AEB
:1002D0001A60284B1B785B0609D5244C244B2268F6
:1002E0009A4204D120483AF07DFB002323603AF083
:1002F000D1FA40F0DFF93DF0D3FAFEE70E200540D9
:1003000030800440823F04000100002B88ED00E0B3
:1003100010D0034014D0034002D0074000E0074053
:100320001813FF1F3CBF0400F806FF1F1813FF1F20
:100330000C24FF1F0002FF1F0000000000E400E08B
:1003400056E400E008ED00E00050064000400640A2
:100350004480044004800440C010050014E000E024
:10036000BFD4010000002020A115B1621CE00340B1
:10037000A5C3945A00F00740FFFFFFFFFFFFFFFFF8
:10038000FFFFFFFFFFFFFFFFFFFFFFFFFFFFFFFF7D
:10039000FFFFFFFFFFFFFFFFFFFFFFFFFFFFFFFF6D
:1003A000FFFFFFFFFFFFFFFFFFFFFFFFFFFFFFFF5D
:1003B000FFFFFFFFFFFFFFFFFFFFFFFFFFFFFFFF4D
:1003C000FFFFFFFFFFFFFFFFFFFFFFFFFFFFFFFF3D
:1003D000FFFFFFFFFFFFFFFFFFFFFFFFFFFFFFFF2D
:1003E000FFFFFFFFFFFFFFFFFFFFFFFFFFFFFFFF1D
:1003F000FFFFFFFFFFFFFFFFFFFFFFFFFFFFFFFF0D
:10040000FFFFFFFFFFFFFFFFFFFFFFFFDEF9FFFF23
:1004100010B5054C237833B9044B13B10448AFF33E
:1004200000800123237010BD1813FF1F000000007F
:1004300038BF0400084B10B51BB108490848AFF39A
:1004400000800848036803B910BD074B002BFBD0A0
:10045000BDE81040184700BF000000001C13FF1F3C
:1004600038BF04001813FF1F000000000020704771
:10047000704700BF036D0BB101207047406D003025
:1004800018BF0120704700BF00690B699842D4BFB4
:1004900000200120704700BF80698B690028B8BF29
:1004A0004042002BB8BF5B429842D4BF00200120DD
:1004B000704700BFF0B586460120DEF85870DEF8C0
:1004C0003030BA6A106079683A680A447A600EF18E
:1004D000300493B15A69002A08DB9A6A10605E689A
:1004E00019683D695A6931445960521B19690A44B7
:1004F0005A6154F8043F002BECD1DEF82430144A42
:10050000DEF81840DEF86C0000211160DB00516855
:1005100003F1804303F5603321440D241961146015
:10052000DA68502122F08002DA60D96000B1F0BDB3
:100530007A68FB689A4200D0F0BDDEF85C30012298
:100540008EF82820002BF7D0BDE8F040184700BFF8
:1005500000800340C36A00F12C0233B10120D96A44
:1005600052F8043F0860002BF9D1704710B50446DB
:10057000806D18B140F0EEF80023A365236D2BB118
:1005800004F11800BDE8104036F0D8BF636D002BB1
:10059000F6D110BDF0B5002395B01A4605461831C6
:1005A00004A84FF47A74224F8DF804308DF80C3083
:1005B000129313930294009737F014F8129B002BB8
:1005C0002BD05C203DF074F904461A4B9DF80400D2
:1005D000029A1949236000269DF80C302073A1600F
:1005E000226104A9237504F11800666036F078FFD3
:1005F0006368124AA76001334FF47A71A6652E71C1
:100600002E732C616360A9602A600D4B009304A8CF
:1006100036F094FF284615B0F0BD139B002BD0D1C7
:10062000064A2B71AC602B732B612A60EDE700BF8B
:100630002043040070430400D842040044430400F3
:10064000FC420400836C13B1184635F0F3B9C06C5A
:1006500008B133F037B84FF0FF30704700B5836C06
:1006600083B063B1184601220DF1070135F012F98C
:1006700001280CD19DF8070003B05DF804FBC06CA5
:1006800028B101220DF1070132F048FFF0E74FF0E9
:10069000FF30F1E7836D012280F890205B6872B62D
:1006A000DFED0B6AD0ED207A90ED1F7A67EEA67A27
:1006B000F4EEC77AC0ED1E7AD0ED227AF1EE10FA90
:1006C000D8BFF1EE677AC0ED237A62B6704700BFFB
:1006D00000000000036D9BB11A7812F0700F00D17A
:1006E000704710B504460021184635F0C5FA606D14
:1006F00028B100220023BDE8104032F0FBBF10BD3E
:10070000406D0028ECD090F8313013F0500FE7D056
:100710000022002332F0EEBF38B5846D0CB12046C4
:1007200038BD05464FF4807040F00CF80146A865CE
:1007300080B1286D0C7028B14FF4807236F008FD3E
:10074000AC6DECE7686D40B14FF4807234F042FB61
:10075000AC6DE4E7024CAC65E1E70C46DFE700BFB7
:100760003413FF1F8A79A2F150031B0620D4F0B581
:100770004B79046D0D798E784F780978013385B007
:1007800002F26C72DBB244B103918DE8E0002046C6
:10079000042135F089FB05B0F0BD406D0028FAD08A
:1007A00003918DE8E000042133F05EFD05B0F0BD5B
:1007B00000207047D0B5046D8CB1012B08BF002A12
:1007C00001D30020D0BD1146204635F055FA00284F
:1007D000F7D0204635F0D0FB0028F2D0D0BD446DD4
:1007E000002CEED0204632F085FF0028E9D02046CC
:1007F000BDE8D04033F0E6BDF0B5036D83B00C46E4
:100800002BB318460DF1060201A934F0B7FED8B19A
:10081000BDF80430BDF8062003B9AAB102F01F06E6
:10082000C3F343155912C2F345177600013D01F594
:10083000EA6103F01F03D21226706571A171237162
:100840006770A27003B0F0BD002003B0F0BD406D32
:100850000028F9D00DF1060201A932F0FFFDD6E71C
:10086000F0B5036D83B00C462BB318460DF10602AC
:1008700001A934F073FED8B1BDF80430BDF80620EC
:1008800003B9AAB102F01F06C3F343155912C2F30C
:1008900045177600013D01F5EA6103F01F03D2120E
:1008A00026706571A17123716770A27003B0F0BDED
:1008B000002003B0F0BD406D0028F9D00DF1060214
:1008C00001A932F0BBFDD6E7036D13B158690021D1
:1008D0007047436D13B193E80300704718461946FB
:1008E000704700BF036D13B1D86900217047436D95
:1008F00013B118695969704718461946704700BF07
:10090000036D13B1184634F0C5BF406D08B132F025
:1009100005BE4FF0FF307047036D13B1184635F038
:1009200089B8406D08B132F0CDBE4FF0FF3070474E
:10093000036D33B11B7813F0700F14BF012000203A
:100940007047406D30B190F8313013F0500F14BF44
:1009500001200020704700BF8A79A2F150031B06D6
:1009600020D4F0B54B79046D0D798E784F780978E5
:10097000013385B002F26C72DBB244B103918DE8B1
:10098000E0002046022135F08FFA05B0F0BD406D41
:100990000028FAD003918DE8E000022133F064FCD6
:1009A00005B0F0BD00207047036963B11A680749BC
:1009B00092698A4208D1186D08B135F06FBA586D46
:1009C00008B133F0E5BA704718461047D109000066
:1009D000036D13B1184635F061BA406D08B133F0BC
:1009E000D7BA7047836C13B1184635F057BAC06C4C
:1009F00008B133F0CDBA704703698BB110B41C68ED
:100A00000D48E468844211D1186D18B15DF8044BAB
:100A100035F0EEBA586D28B15DF8044B33F042BDA5
:100A20000020704700205DF8044B704718462346AD
:100A30005DF8044B184700BFC10A0000036973B199
:100A40001A68084952698A4207D1186D08B134F012
:100A5000F1BF586D18B132F035BE184610474FF04F
:100A6000FF30704719090000036923B310B51968F6
:100A7000124A8C68944282B014D1186D48B1012298
:100A80000DF1070134F006FF90B19DF8070002B0A8
:100A900010BD586D0028F8D001220DF1070132F089
:100AA0003DFDF1E7184601220DF10701A047EBE7F4
:100AB0004FF0FF30EBE74FF0FF30704701090000C7
:100AC000036D13B1184635F093BA406D08B133F099
:100AD000E9BC7047836C13B1184635F089BAC06C15
:100AE00008B133F0DFBC704700B5836C83B08DF87C
:100AF000071043B1184601220DF1070135F078FACD
:100B000003B05DF804FBC06C0028F9D001220DF1A0
:100B1000070133F0C7FC03B05DF804FB10B50369AF
:100B200082B08DF80710BBB11968104ACC689442A6
:100B300015D1186D30B101220DF1070135F058FAC9
:100B400002B010BD586D0028FAD001220DF1070146
:100B500033F0A8FC02B010BD184602B010BD184614
:100B600001220DF10701A04702B010BDC10A00002B
:100B7000026D62B1137803F0080303F0FF0003B3C2
:100B8000D3695069181A48BF6FF000407047416D33
:100B9000C1B191F8313003F0080303F0FF0083B1D5
:100BA000D1E90423D1E90001101A30B463EB01014B
:100BB00000256FF000448D4208BF844200D22046D9
:100BC00030BC704708467047826C62B1137803F0FE
:100BD000080303F0FF0003B3D3695069181A48BF34
:100BE0006FF000407047C16CC1B191F8313003F033
:100BF000080303F0FF0083B1D1E90423D1E9000128
:100C0000101A30B463EB010100256FF000448D42EF
:100C100008BF844200D2204630BC70470846704767
:100C2000006970B30368184A1B6993420ED1026DC4
:100C30006AB1137803F0080303F0FF000BB3D36924
:100C40005069181A48BF6FF0004070471847416D4F
:100C5000C1B191F8313003F0080303F0FF0083B114
:100C6000D1E90423D1E90001101A30B463EB01018A
:100C700000256FF000448D4208BF844200D2204618
:100C800030BC704708467047710B0000D0B4039C1D
:100C900016461F4634B1012C1ED0022C0DD0002068
:100CA000D0BC7047046DDCB1012B08BF002AF6D21E
:100CB00020461146D0BC34F0DFBF036DB3B1DA6912
:100CC000B61847F10007012F08BF002EE7D23146C2
:100CD0001846D0BC34F0D0BF036D8BB15A69EFE732
:100CE000406D0028DBD0D0BC32F004BD406D002840
:100CF000D5D0D0E9042392197B41D0BC32F0FABCA4
:100D0000406D0028CBD0D0E9002392197B41EAE75F
:100D100038B50446806D0C4B236018B13FF01AFDC6
:100D20000023A365236D04F118054BB1284636F066
:100D300005FC064BA360284636F000FC204638BD73
:100D4000636D002BF2D1F4E770430400FC42040011
:100D500038B50446806D0E4B236018B13FF0FAFCA5
:100D60000023A365236D04F118056BB1284636F006
:100D7000E5FB084BA360284636F0E0FB20465C21EB
:100D80003CF09AFD204638BD636D002BEED1F0E7B4
:100D900070430400FC42040070B505686C68013CB7
:100DA00006466C6014B10023336070BD2B68204A86
:100DB000DB6A93422DD1A86D10B13FF0CBFCAC653E
:100DC0002B6D63B305F1180036F0B8FB3468002CC6
:100DD000E9D02368174A5B6893421DD1A06D164B7A
:100DE000236018B13FF0B6FC0023A365236D04F126
:100DF0001805C3B1284636F0A1FB104BA360284666
:100E000036F09CFB20465C213CF056FD002333600D
:100E100070BD28469847D9E720469847C3E76B6DD1
:100E2000002BCFD1D2E7636D002BE3D1E5E700BF04
:100E30006D050000510D000070430400FC420400E9
:100E400070B50469244B036005461CB16668013E19
:100E500066600EB1284670BD2368204ADB6A934263
:100E60002CD1A06D10B13FF075FCA665236D5BB36E
:100E700004F1180036F062FB2C69002CEAD02368DC
:100E8000174A5B6893421CD1A06D164B236018B1C2
:100E90003FF060FC0023A365236D04F11806BBB18D
:100EA000304636F04BFB104BA360304636F046FB25
:100EB00020465C213CF000FD284670BD2046984746
:100EC000DAE720469847C5E7636D002BD0D1D3E71A
:100ED000636D002BE4D1E6E7444304006D05000098
:100EE000510D000070430400FC42040070B5056918
:100EF000284B036004461DB16E68013E6E602EB142
:100F0000204614213CF0D8FC204670BD2B68224AB4
:100F1000DB6A934230D1A86D10B13FF01BFCAE6587
:100F20002B6D7BB305F1180036F008FB2569002D09
:100F3000E6D02B68194A5B68934220D1A86D184B04
:100F40002B6018B13FF006FC0023AB652B6D05F15B
:100F50001806DBB1304636F0F1FA124BAB60304682
:100F600036F0ECFA28465C213CF0A6FC2046142121
:100F70003CF0A2FC204670BD28469847D6E728469C
:100F80009847BDE76B6D002BCCD1CFE76B6D002B85
:100F9000E0D1E2E7444304006D050000510D00007C
:100FA00070430400FC420400036A8B4210B523D056
:100FB000C369994200D010BD8369002BFBD072B683
:100FC000194AC369846900211160DB00516803F18B
:100FD000804303F5603321440D2419611460DA68FD
:100FE000502122F08002DA60D96062B6006903689D
:100FF000BDE810405B6818470446006903689B68B9
:10100000984794F82430002BD5D004F108003CF028
:10101000FDFB0023E069636038F004FF206ABDE84F
:10102000104038F0FFBE00BF008003402DE9F041C2
:101030008568002D31D0816D836F04464868D4F8EF
:10104000AC101B1A002BB8BF5B428B423ADBD4F8C2
:10105000B0108B422A4608DBE16F8B4265DB936858
:1010600023F002039360BDE8F081D4F888100029D2
:10107000F5D02B683B4A93421ED96A683A48B0FBC8
:10108000F1F19B1A99420AD3CB1A002401200322C2
:10109000AC60E8602B60AA602960BDE8F0816069FF
:1010A0000368002601240322AE601B68EC602960FF
:1010B000AA60BDE8F04118472B4BB3FBF1F1296062
:1010C000BDE8F081D4E92401D4F8A82002FB03F3A1
:1010D000C61841F10007304639463FF0D9F807EE0F
:1010E000900AB1EEE70AB4EE400AF1EE10FA2ED102
:1010F000FDEEC07A2A4617EE903A17EE901ADBB151
:10110000002DB6D11949184D0E68B5FBF3F51EB187
:1011100002210120B047A268002001210323906032
:10112000D16015609360BDE8F081CB1AD4F8A82097
:10113000D4E92601013BC9E7002D90D10B4B1B6878
:10114000002B8CD0022101209847A26887E73946FE
:1011500030463FF09DF800EE100A3DF0C9FAA56850
:10116000C6E700BF7FA9030000879303AC20FF1FE1
:1011700070B5044608460D4640F062FB23680246FF
:10118000294620465B68BDE87040184738B50446DC
:1011900008460D4640F054FB2368024629465B682A
:1011A00020469847054620463CF0C4FB284438BDFD
:1011B00038B505463CF012FC044628463CF0BAFB24
:1011C000204438BD38B505463CF008FC04462846A6
:1011D0003CF0B0FB204438BD38B50A220023054658
:1011E0003CF0BCFB044628463CF0A4FB204438BD40
:1011F00038B5C9B205463CF0FBFB044628463CF036
:1012000099FB204438BD00BF10B5044608303CF0BF
:10121000FDFA0023E069636038F004FE206ABDE84F
:10122000104038F0FFBD00BF70B543680446C9B137
:10123000002B2CD01A682348824219D95868224DB5
:10124000B5FBF1F1121A914217D22069026800260B
:10125000012503249E601268DD6019609C60BDE872
:10126000704010472BB39A6822F002029A6070BD5A
:10127000154AB2FBF1F1196070BD8A1A00250124EC
:1012800003209D60DC601A609860196070BD0F4A91
:101290000D4D1268B5FBF1F51AB1022101209047FE
:1012A00063680020012103229860D9601D609A6064
:1012B00070BD064B1B68002BD5D00221012098473A
:1012C0006368D0E77FA9030000879303AC20FF1F6A
:1012D000D0ED1F7A90ED1E7A38B5F4EE477A836D23
:1012E000F1EE10FA04465A6833D1FDEEC77A17EED4
:1012F000905A94F890200AB1002D4AD09A68AA42D8
:1013000026D0002D1B68ACBF01224FF0FF329A425D
:1013100015D004F12801012008E013685B42012B7D
:1013200013600BBF126B536B1360186051F8042FDE
:10133000002AF2D1636F03EB8303DB0020D185EA3F
:10134000E571A1EBE571201DFFF76EFFA36D9D60B8
:1013500038BDD0ED236AF5EEC06A77EEA67AF1EEDD
:1013600010FAB4EEE77A0EDDF1EE10FAD8BFF0EE27
:10137000477ABDEEE77AC4ED1F7A17EE105AB8E748
:10138000013BFDD1DBE7F1EE10FA58BFF0EE477AF2
:10139000EFE704F10C003CF039FA206AA56038F060
:1013A00041FD606A38F03EFDA36D9D6084F8905069
:1013B00038BD00BF2DE9F041C46A96B005460CB3B4
:1013C00023689A4A1B6B934240F00181236D002BE6
:1013D00000F0E9802368964ADB6A934240F00A8174
:1013E000A06D18B13FF0B6F90023A365236D002B63
:1013F00000F0138104F1180036F0A0F805F12C007C
:10140000FFF7CAFCAB7E012B00F0CA80022B40F232
:10141000022318BF00232A46864902A836F078F92D
:10142000149B002B46D05C203CF042FA04469DF809
:101430000C60049A9DF814307F488049267300267A
:101440002060A160226106A92375666004F118007E
:1014500036F046F863687A4AA66501336360794FCF
:10146000A26006A8029736F069F86368EE6A013355
:101470006360002E00F0A1807368013B7360002B55
:101480002AD0EC6214B363685E1E6660002E58D0EA
:10149000E86AD8B10368654A1B6B934240F08F80BD
:1014A000036D002B00F0848000230120EB7616B042
:1014B000BDE8F081159C002CB5D1624F029706A8BB
:1014C00036F03CF8EE6A002ED6D1EE620123EB76C0
:1014D000002016B0BDE8F08132685549D26A019308
:1014E0008A427ED1B06D18B13FF034F9019BB365EB
:1014F000336D002B00F0888006F1180036F01EF8DE
:10150000EE6A002EBDD033684F4A5B6893426ED1BD
:10151000B06D494B336018B13FF01CF90023B3653F
:10152000336D06F11808002B73D0404636F006F8EC
:10153000B760404636F002F830465C213CF0BCF91A
:101540009FE723683A4ADB6A93424DD1A06D10B100
:101550003FF000F9A665236D002B4ED004F1180072
:1015600035F0ECFF2368384A5B68934249D1A06D9F
:10157000314B236018B13FF0EDF80023A365236DD4
:1015800004F11806002B4DD0304635F0D7FFA76088
:10159000304635F0D3FF20465C213CF08DF977E7EB
:1015A00044F2022337E7636D002B7FF413AF29E782
:1015B000436D002B7FF478AF88E7EC6264E79847CF
:1015C00000287FF471AF0123EB76002081E72046ED
:1015D000984700283FF416AFEC6A002C3FF412AF96
:1015E000F8E6304690478BE720469847BAE7304602
:1015F000984746E72046984700E7636D002BADD13A
:10160000B0E72046984743E7736D002B7FF474AF33
:1016100076E7736D002B88D18AE7636D002B7FF42A
:10162000E9AEEBE6636D002BAED1B0E775040000C8
:101630006D050000841BFF1F70430400D8420400A6
:1016400020430400FC420400510D000010B5364C4C
:1016500036480C213BF026FD102120463CF0BEF917
:1016600020463CF067F90E2131483BF01BFD542128
:1016700020463CF0B3F920463CF05CF90F212D48A0
:101680003BF010FD4C2120463CF0A8F920463CF0F0
:1016900051F9102128483BF005FDE42120463CF09B
:1016A0009DF920463CF046F9E42120463CF096F9AD
:1016B00020463CF03FF90F2120483BF0F3FC60212D
:1016C00020463CF08BF920463CF034F90F211C48B1
:1016D0003BF0E8FC702120463CF080F920463CF0CD
:1016E00029F9142117483BF0DDFC782120463CF015
:1016F00075F920463CF01EF9132113483BF0D2FC4B
:101700006C2120463CF06AF920463CF013F9102188
:101710000E483BF0C7FC204634213CF05FF92046E0
:10172000BDE810403CF006B9B408FF1F2444040093
:101730003444040044440400544404006844040055
:101740007844040088440400A0440400B444040025
:1017500010B509211E483BF0A5FC1E483CF0EAF8F4
:10176000FE211D4831F0F8FA18BB0A211A4831F061
:10177000F3FA98B909211848184C31F0EDFA18BB62
:1017800020600C2116483BF08DFC216811483CF08C
:1017900025F91048BDE810403CF0CCB80F4C11487A
:1017A0000A23194623603BF07DFC0A483CF0C2F84E
:1017B000E7E70A4C0C480123092123603BF072FC47
:1017C00004483CF0B7F8DCE708480923E9E700BF24
:1017D000C8440400B408FF1F801BFF1F341AFF1FFA
:1017E000F8440400E0440400D4440400EC44040041
:1017F00070B5064684B00D4632B1784BD3F8CC4074
:10180000012C00F0AE800022754C236801930199F1
:1018100023680093009B5B1A092BF9D9042E00F270
:10182000DB80DFE806F036516B850300002D00F009
:10183000AE806A4B93F8A0100F2081F0010139F0BF
:10184000E5F8684B68481E6816213BF02BFC0F2119
:1018500066483CF0C3F8654806F001063CF06AF8BB
:10186000112163483BF01EFC314660483CF0B6F85D
:101870005E483CF05FF855B122685E4B03920399D5
:101880001A6823680293029B5B1A9A42F9D804B043
:1018900070BD002D00F08580504B93F89C10042003
:1018A00081F0010139F0B2F8534B4F481E68162100
:1018B0003BF0F8FB04214D483CF090F84B48C6F350
:1018C00040363CF037F8CBE7002D73D0434B93F80C
:1018D0009D100E2081F0010139F098F8474B4248E5
:1018E0001E6816213BF0DEFB0E2140483CF076F8E6
:1018F0003E48C6F340063CF01DF8B1E7002D62D02B
:10190000364B93F89E10162081F0010139F07EF8D5
:10191000344B35481E6816213BF0C4FB1621334872
:101920003CF05CF83148C6F340063CF003F897E71A
:1019300025B32A4B93F89F10112081F0010139F053
:1019400065F82F4B28481E6816213BF0ABFB112190
:1019500026483CF043F82548C6F340063BF0EAFF32
:101960007EE7102127483BF09DFB21461F483CF0B5
:1019700035F81E483BF0DEFF224645E7002AE0D15D
:10198000164B112093F89F1039F040F8D9E7002A40
:101990007FF457AF114B0F2093F8A01039F036F8B1
:1019A0004FE7002A80D10D4B042093F89C1039F0AA
:1019B0002DF879E7002A91D1084B0E2093F89D105D
:1019C00039F024F88AE7002AA2D1044B162093F8B4
:1019D0009E1039F01BF89BE7002641E7F416FF1F25
:1019E000E420FF1F90F00F401C450400B408FF1FC7
:1019F000344504004007FF1F10F00F40D0F00F40A7
:101A000050F00F400845040070B52DED028B0446E0
:101A100084B0002601A83FF013FF014601A83BF067
:101A200041FB52483BF086FF236820465B6998479C
:101A30000021C5B24E483BF035FB4C483BF07AFFE5
:101A400021214C483BF02EFB314648483BF0C6FF75
:101A5000042149483BF026FB28463BF0A7FB022126
:101A600046483BF01FFB294640483BF0B7FF3F4844
:101A70003BF060FF042D71D0FF2D01A83CD001ABDD
:101A80009D553FF0DDFE014601A83BF00BFB3748BA
:101A90003BF050FF01360B2EBCD101A83EF0FAFD01
:101AA00004213748B0EE408AF0EE608A3BF0FAFA43
:101AB00001A83FF0C5FE014601A83BF0F3FA2B4810
:101AC0003BF038FF07212F483BF0ECFAB0EE480A14
:101AD000F0EE680A042125483BF08AFF23483BF0DA
:101AE00029FFB0EE480AF0EE680A04B0BDEC028BA4
:101AF00070BD23685B699847236820461B69984737
:101B000000282046F5DC01A83EF0C4FD04211C4855
:101B1000B0EE408AF0EE608A3BF0C4FA01A83FF0D4
:101B20008FFE014601A83BF0BDFA10483BF002FFD2
:101B3000072114483BF0B6FAB0EE480AF0EE680A06
:101B400004210A483BF054FF08483BF0F3FE01A88B
:101B50003EF0A0FD04B0BDEC028B70BD19210A4817
:101B60003BF0A0FA01483BF0E5FE93E7B408FF1F05
:101B700020B10400484504006C4504000C970400A3
:101B8000744504007C45040084450400FFFFFFFF0A
:101B9000042810D8DFE800F00C090F0603000A48FB
:101BA000FFF732BF0948FFF72FBF0948FFF72CBFE7
:101BB0000848FFF729BF9FED020B7047AFF3008085
:101BC000000000000000F0BF8C08FF1F7808FF1F16
:101BD0006408FF1FB408FF1F38B5434D4348EA6B44
:101BE000AB6B95ED107AD5ED127A414C03FB02F305
:101BF0002DED048B08EE103AB8EE488ADFED3D8AF1
:101C000028EE078A0D2167EEA88AF0EE409A3BF095
:101C100049FA18EE100A3DF0CFFE41EC100B0221FC
:101C200020463BF0E5FE20463BF084FE1121324881
:101C30003BF038FA286C3DF0BFFE41EC100B02215E
:101C400020463BF0D5FE20463BF074FE0F212B488A
:101C50003BF028FA89EEA89A18EE900A3DF0ACFE07
:101C600041EC100B022120463BF0C2FE20463BF027
:101C700061FE102122483BF015FA19EE900A3DF062
:101C80009BFE41EC100B022120463BF0B1FE2046AA
:101C90003BF050FE07211B483BF004FA19EE100AF6
:101CA0003DF08AFE41EC100B022120463BF0A0FEE5
:101CB00028EE098A20463BF03DFE082112483BF001
:101CC000F1F918EE100A3DF077FE41EC100B0221FD
:101CD00020463BF08DFE20463BF02CFEB0EE480A3D
:101CE000BDEC048B38BD00BFF416FF1FC8450400CF
:101CF000B408FF1FDB0FC940D8450400EC450400C1
:101D0000FC450400104604001846040038B5434D55
:101D10004348EA6DAB6D95ED187AD5ED1A7A414CD2
:101D200003FB02F32DED048B08EE103AB8EE488A5F
:101D3000DFED3D8A28EE078A0D2167EEA88AF0EED6
:101D4000409A3BF0AFF918EE100A3DF035FE41EC39
:101D5000100B022120463BF04BFE20463BF0EAFDF3
:101D6000132132483BF09EF9286E3DF025FE41ECF0
:101D7000100B022120463BF03BFE20463BF0DAFDF3
:101D80000F212B483BF08EF989EEA89A18EE900AA5
:101D90003DF012FE41EC100B022120463BF028FEE4
:101DA00020463BF0C7FD102122483BF07BF919EE9D
:101DB000900A3DF001FE41EC100B022120463BF061
:101DC00017FE20463BF0B6FD07211B483BF06AF9A1
:101DD00019EE100A3DF0F0FD41EC100B02212046F7
:101DE0003BF006FE28EE098A20463BF0A3FD0821C1
:101DF00012483BF057F918EE100A3DF0DDFD41ECBA
:101E0000100B022120463BF0F3FD20463BF092FDF3
:101E1000B0EE480ABDEC048B38BD00BFF416FF1FBE
:101E2000C8450400B408FF1FDB0FC9402446040066
:101E3000EC450400FC45040010460400184604006C
:101E40001D4A1E4892ED117AD16B936BC0EE077A52
:101E500010B503FB01F30A21194C2DED028B08EE9E
:101E6000103AB8EE488AF0EE408A28EE278A3BF016
:101E700019F918EE900A3DF09FFD41EC100B02217C
:101E800020463BF0B5FD20463BF054FD1A210D489D
:101E90003BF008F918EE100A3DF08EFD41EC100BF6
:101EA000022120463BF0A4FD20463BF043FDB0EE6E
:101EB000480ABDEC028B10BDF416FF1F3846040023
:101EC000B408FF1F444604001D4A1E4892ED197ACB
:101ED000D16D936DC0EE077A10B503FB01F30A21B3
:101EE000194C2DED028B08EE103AB8EE488AF0EE50
:101EF000408A28EE278A3BF0D5F818EE900A3DF08C
:101F00005BFD41EC100B022120463BF071FD2046A9
:101F10003BF010FD1A210D483BF0C4F818EE100AF2
:101F20003DF04AFD41EC100B022120463BF060FDE4
:101F300020463BF0FFFCB0EE480ABDEC028B10BD22
:101F4000F416FF1F38460400B408FF1F6046040063
:101F50000138032840D8DFE800F026110A02204BA0
:101F60005B6D002B36D0012B36D1FFF7ADBF1C4B7C
:101F70005B6B6BB3012B2FD1FFF762BF184AD2F80E
:101F8000B83003B3D2ED317AD2F8C010D2F8BC30F9
:101F900080EE277A03FB01F300EE103AF8EE407A68
:101FA00027EE870A70470E4A92ED057A1169D368C9
:101FB000C0EE077A03FB01F300EE103AB8EE400AD8
:101FC00020EE270A7047D2ED0A7A516A136ADFE7DA
:101FD000FFF702BEFFF79ABE9FED020A704700BFEF
:101FE000F416FF1F0000000038B52F4D2F4C95ED63
:101FF000007AD4ED007AB5EEC07AF1EE10FA48BF5F
:10200000B1EE477AF5EEC07A48BF85ED007AF1EE81
:1020100010FA44BFF1EE677AC4ED007A67EEA77A52
:102020002DED048BE7EE077A08EE100A17EE900A02
:1020300008EE901A3DF0C0FC41EC100B3CF098FA11
:1020400051EC100B3EF004F894ED006AD5ED006AF7
:1020500007EE900A87EE867A87EEA69AF8EEE88A6F
:10206000B8EEC88A67EE287A17EE900A3DF0A4FC15
:1020700041EC100B3CF0DCF951EC100B3DF0E8FFAB
:1020800068EE097A206017EE900A3DF095FC41EC6D
:10209000100B3CF0CDF951EC100B3DF0D9FFBDEC2D
:1020A000048B286038BD00BFA815FF1F201AFF1F32
:1020B0004B4B1B68013B70B50A2B00F29080DFE8A8
:1020C00003F03648628E8E06060606784800454BB9
:1020D000454C1868454E464DFFF75AFD51EC100B24
:1020E0003DF06EFF434AE06203461168736120468B
:1020F0004C226B6438F01CFB3F4B30461968602261
:1021000038F016FB3D4B284619686C2238F010FB5E
:1021100016213B483AF0C6FFE16A3A4800230A22FA
:102120003BF01CFC3748BDE870403BF003BC2D4B36
:10213000354C1868FFF72CFD51EC100B3DF040FFBB
:10214000324B6061196820467822BDE8704038F053
:10215000EFBA244B2E4C1868FFF71AFD51EC100B08
:102160003DF02EFF03460146264863613BF036FCF6
:1021700024483BF0DFFB274B204619687822BDE856
:10218000704038F0D5BA174B234C1868FFF700FDA4
:1021900051EC100B3DF014FF204B60611968204694
:1021A000342238F0C5FA162115483AF07BFF6169F0
:1021B000B3E70C4B1A4C1868FFF7EAFC51EC100B14
:1021C0003DF0FEFE174BA06219682046702238F0E1
:1021D000AFFA16210A483AF065FFA16A9DE770BD83
:1021E0005407FF1F6807FF1FF417FF1F9416FF1FF8
:1021F0001819FF1F5807FF1F8407FF1F6C07FF1FD9
:102200007C460400B408FF1F1816FF1F7807FF1F45
:10221000F814FF1F4C07FF1FE418FF1FFC06FF1FE9
:10222000381AFF1F7C07FF1F38B52A21A748A84C82
:102230003AF038FFA7483BF07DFB0E21A6483AF064
:1022400031FF2168A3483BF0C9FBA2483BF072FB79
:102250002368013B0A2B07D8DFE803F013273B5B19
:10226000060707070780270038BD9C4C2368013B01
:10227000032B00F29F80DFE813F059011201FB00ED
:102280008700974B974C1868FFF782FC51EC100BB6
:102290003DF096FEA36D013B0246032BE4D8DFE838
:1022A00013F0D600C600B600A6008D4B1868FFF7E5
:1022B0006FFC51EC100B3DF083FE8B4A936D042BA9
:1022C00000F28D80DFE813F08A00AF01AD01AB01B1
:1022D000A901864C2368032B00F0A781042B10D1A1
:1022E0007F4B1868FFF754FC51EC100B3DF068FE73
:1022F0001621E0617E483AF0D5FEE1697548FEF7A7
:102300006BFF7C4B794819683422BDE8384038F0BF
:102310000FBA794C2368013B0D2BA5D801A252F8C6
:1023200023F000BFEB250000BB2500008B2500003B
:102330005B2500006922000069220000692200007C
:10234000692200006922000069220000EB250000DC
:10235000BB2500008B2500005B250000674C636CEB
:10236000012B00F07481022B00F07B81032B00F025
:102370008281042B00F08981614B604819687022CA
:10238000BDE8384038F0D4B9554B5E4D1868FFF7BA
:10239000FFFB51EC100B3DF013FE5B4A0346162188
:1023A0005348E3636B6253653AF07CFEE16B494846
:1023B000FEF712FF554B494819684C2238F0B8F91E
:1023C000534B50481968602238F0B2F9514B4E48CF
:1023D00019686C22BDE8384038F0AAB950614E4BFC
:1023E000414819687822BDE8384038F0A1B94B4B14
:1023F000626219683B48782238F09AF916214848F9
:102400003AF050FE616A3348FEF7DCFE38BD434BBC
:10241000226219683348782238F08AF91621344844
:102420003AF040FE216A2B48FEF7CCFE38BD3B4B0C
:10243000E26119682B48782238F07AF91521394879
:102440003AF030FEE1692348FEF7BCFE38BD1521A5
:102450003548A2613AF026FEA1691E48FEF7B2FE99
:102460002E4B204819687822BDE8384038F060B912
:102470001B4B244D1868FFF78BFB51EC100B3DF004
:102480009FFD214A034616211948A3632B62136559
:102490003AF008FEA16B0F48FEF79EFE8AE7104B4C
:1024A000184D1868FFF774FB51EC100B3DF088FDD8
:1024B000154A034615211B486363EB61D3643AF068
:1024C000F1FD616B0348FEF787FE73E79446040055
:1024D0005407FF1FB408FF1FC0460400F417FF1F76
:1024E0006807FF1F1816FF1FF814FF1FE418FF1FCF
:1024F00000470400FC06FF1F9414FF1F381AFF1F3B
:102500007C07FF1F9416FF1F1819FF1F5807FF1F96
:102510008407FF1F6C07FF1F4C07FF1F7807FF1F73
:1025200018470400E8460400D04604005C4B5D4DAB
:102530001868FFF72DFB51EC100B3DF041FD5A4A96
:102540000346152159482363AB6193643AF0AAFD11
:10255000216B5748FEF740FE2CE7514B1868FFF7F8
:1025600017FB51EC100B3DF02BFD524B206319680B
:102570005148542238F0DCF8162150483AF092FDC8
:10258000216B4B48FEF728FE38BD454B1868FFF716
:10259000FFFA51EC100B3DF013FD464B60621968D9
:1025A0004548542238F0C4F8162144483AF07AFDE0
:1025B000616A3F48FEF710FE38BD394B1868FFF7D7
:1025C000E7FA51EC100B3DF0FBFC3A4BA0611968A7
:1025D0003948542238F0ACF8152139483AF062FDF8
:1025E000A1693348FEF7F8FD38BD2D4B1868FFF799
:1025F000CFFA51EC100B3DF0E3FC2E4BE060196874
:102600002D48542238F094F8152128483AF04AFD14
:10261000E1682748FEF7E0FD38BD5062DFE6106252
:10262000DDE6D061DBE69061D9E61D4B1868FFF767
:10263000AFFA51EC100B3DF0C3FC1621A0611F480E
:102640003AF030FDA1691A48FEF7C6FD59E6144B71
:102650001868FFF79DFA51EC100B3DF0B1FCE062F9
:102660008AE60F4B1868FFF793FA51EC100B3DF018
:10267000A7FC206380E60A4B1868FFF789FA51EC43
:10268000100B3DF09DFC606376E6054B1868FFF784
:102690007FFA51EC100B3DF093FCA0636CE600BF99
:1026A0006807FF1F9416FF1F1819FF1FD04604006C
:1026B000B408FF1F0807FF1F9414FF1F0047040002
:1026C000E8460400B94A92E80A0010B503FB01F39A
:1026D00007EE903A92ED027AF8EE677A2DED048BD0
:1026E00067EE877A82B0044617EE900AB0EE408A11
:1026F0003DF062F941EC100B3BF09AFE51EC100BEF
:102700003DF05EFC1E210190A9483AF0CBFC092166
:10271000A8483AF0C7FC2146A7483BF05FF9A64815
:102720003BF008F918EE100A3DF046F941EC190BA0
:102730000221B0EE490AF0EE690A9F483BF058F9D1
:102740009D483BF0F7F8013C1E2199483AF0AAFC5D
:10275000042C00F2DC80DFE804F0486D92B6030040
:10276000964C236884ED038A012B00F0D480DDEDC4
:10277000017AB8EEE77AC7EE087AFCEEE77AC4EDA4
:10278000027A16218E483AF08DFC01998A483BF076
:1027900025F910218B483AF085FCB0EE490AF0EE9D
:1027A000690A022184483BF023F9032186483AF064
:1027B00079FC062185483AF075FC062184483AF0F8
:1027C00071FC0023A1687C480A223BF0C7F87A48D4
:1027D0003BF0B0F87F4B79481968102202B0BDEC8D
:1027E000048BBDE8104037F0A3BF7B4C236884ED19
:1027F000038A012B00F0CB80DDED017AB8EEE77A99
:10280000C7EE087AFCEEE77AC4ED027A0621734837
:102810003AF048FC06216E483AF044FC0023A168D7
:1028200065480A223BF09AF863483BF083F86C4B0A
:102830006948D1E76B4C236884ED038A012B00F0D3
:102840009780DDED017AB8EEE77AC7EE087AFCEE04
:10285000E77AC4ED027A062163483AF023FC0621A8
:102860005B483AF01FFC0023A16853480A223BF062
:1028700075F851483BF05EF85C4B5A48ACE75C4C4D
:10288000236884ED038A012B63D0DDED017AB8EE75
:10289000E77AC7EE087AFCEEE77AC4ED027A062101
:1028A00054483AF0FFFB062149483AF0FBFB00236D
:1028B000A16841480A223BF051F83F483BF03AF802
:1028C0004D4B4B4888E74D4C236884ED038A012B20
:1028D00030D0DDED017AB8EEE77AC7EE087AFCEE8B
:1028E000E77AC4ED027A062145483AF0DBFB06217F
:1028F00037483AF0D7FB0023A1682F480A223BF063
:102900002DF82D483BF016F83E4B3C4864E702B0EA
:10291000BDEC048B10BDDFED3C7A88EE277ADDED4F
:10292000017AF8EEE77A67EE877AFCEEE77AC4ED93
:10293000027A26E7DFED347A88EE277ADDED017A38
:10294000F8EEE77A67EE877AFCEEE77AC4ED027A72
:10295000C9E7DFED2D7A88EE277ADDED017AF8EE12
:10296000E77A67EE877AFCEEE77AC4ED027A96E7BB
:10297000DFED257A88EE277ADDED017AF8EEE77A49
:1029800067EE877AFCEEE77AC4ED027A63E7DFED63
:102990001E7A88EE277ADDED017AF8EEE77A67EEA7
:1029A000877AFCEEE77AC4ED027A2FE7F416FF1F70
:1029B0003047040050470400B408FF1FF81AFF1FF7
:1029C000844704009C470400A8960400B047040014
:1029D000644704003C07FF1FC81AFF1F5C47040040
:1029E0003007FF1FD81AFF1F6C4704003407FF1F72
:1029F0004C13FF1F744704008C07FF1FE81AFF1FCA
:102A00007C4704003807FF1F0000B443F8B51D21C0
:102A10002DED028BB14D08EE100AB1483AF042FBA1
:102A2000B0483AF087FFD5F8D800A0F10A031D2B73
:102A300040F232812F686B6895ED027AAA4CAB4A5E
:102A4000D4ED036AAA48AB49AB4E03FB07F307EE8C
:102A5000903AF8EE677AB8EEC88A67EE877A002374
:102A600087EEA67A03600B601360C7EE087A17EE54
:102A7000900A3CF0A1FF41EC100B3BF0D9FC51EC6B
:102A8000100B3DF09DFA23683060013B032B00F2F0
:102A90002381DFE803F06F4825022B21974894ED4E
:102AA000068A3AF0FFFAA0693CF086FF41EC100B71
:102AB00002218C483AF09CFF8A483AF03BFF6B6D4C
:102AC000002B00F0FF80012B40F00681B0EE480A99
:102AD000FFF7FAF98A4FBDEEC00A87ED000A9AE0C7
:102AE0002B21864894ED068A3AF0DCFAA0693CF086
:102AF00063FF41EC100B02217A483AF079FF7948E4
:102B00003AF018FF6B6B002B00F0D280012B40F0E5
:102B1000E380B0EE480AFFF793F9794FBDEEC00AA3
:102B200087ED000A77E0D5F8B8206C4BD4ED065A53
:102B3000002A00F0B68093ED316A93ED307AD3ED40
:102B40002F7A6F4FC5EE866AB8EE477AF8EE677A4D
:102B500026EE877A67EE277A17EE900A3CF02CFF74
:102B600041EC100B3BF064FC51EC100B3DF028FAEB
:102B7000386050E094ED067AD5ED057A604F87EE27
:102B8000278AD5ED047A95ED037AF8EE677AB8EEE8
:102B9000477A67EE887A67EE877A17EE900A3CF0FC
:102BA0000BFF41EC100B3BF043FC51EC100B3DF0E4
:102BB00007FA1821386053483AF074FAA0693CF0DB
:102BC000FBFE41EC100B022146483AF011FF45484C
:102BD0003AF0B0FE24214C483AF064FA68693CF0BF
:102BE000EBFE41EC100B02213E483AF001FF3D485C
:102BF0003AF0A0FE112145483AF054FA18EE100AB6
:102C00003CF0DAFE41EC100B022136483AF0F0FEBF
:102C100034483AF08FFE15213D483AF043FA3168C6
:102C200030483AF0DBFE2F483AF084FE2421394840
:102C30003AF038FAE0683CF0BFFE41EC100B02219C
:102C400028483AF0D5FE27483AF074FE2921324848
:102C50003AF028FAA0693CF0AFFE41EC100B0221DB
:102C600020483AF0C5FE1F483AF064FE14212B4874
:102C70003AF018FA39681B483AF0B0FE19483AF0B1
:102C800059FE142126483AF00DFABDEC028B154886
:102C9000BDE8F8403AF04EBEC0B2002137F0B6FEB3
:102CA000C8E693ED0A6A93ED097AD3ED087A48E70E
:102CB000B0EE480AFEF790FF114FBDEEC00A87ED57
:102CC000000AA8E7B0EE480AFFF720F80C4FBDEE67
:102CD000C00A87ED000A9EE7094F9CE7F416FF1F24
:102CE000B8470400B408FF1F1819FF1FEC13FF1F9B
:102CF000D817FF1F8419FF1F181BFF1F304804003F
:102D0000EC14FF1FD8470400F44704001C480400DB
:102D10005C480400744804009C480400C84804004F
:102D2000E04804000C4B1B68042B14D8DFE803F0C8
:102D30000F0B13070300014608483AF0D5BD0146C2
:102D400007483AF0D1BD014606483AF0CDBD0146EC
:102D500005483AF0C9BD70476807FF1F8C08FF1F80
:102D60007808FF1F6408FF1FB408FF1F2DE9F0411A
:102D7000102184B0C448C54C3AF094F9C44B19787A
:102D800019B92578002D00F03181C248C24F3AF0C0
:102D900025FE0221C1483AF085F92178BD483AF074
:102DA0001DFEBC483AF0C6FD6C46BD49BD4DBE4E49
:102DB00020463BF065F800212046FFF7B3FF204690
:102DC0003BF01EF8396820463BF05AF800212046B7
:102DD000FFF7A8FF20463BF013F8B44920463BF02C
:102DE0004FF800212046FFF79DFF20463BF008F8F2
:102DF000396820463BF044F800212046FFF792FF57
:102E000020463AF0FDFF95E8180003FB04F307EEB7
:102E1000903A326895ED027AA549DFEDA66A096815
:102E2000A548F8EE677A06EE102A67EE877AB8EEC4
:102E3000C66A4B1E86EE277A67EE267AC0ED007AC8
:102E4000032B00F21E81DFE803F06B4624026B6D5A
:102E5000944A012B00F21181984CD16DD4ED007A87
:102E6000936D92ED197AF8EEE77A03FB01F327EE02
:102E7000877A07EE903AF8EE677AC7EE276A904BAA
:102E8000012200210420C3ED006AFEF7B1FC326884
:102E900062E06B6B834A012B00F2EB80874CD16BB5
:102EA000D4ED007A936B92ED117AF8EEE77A03FB9A
:102EB00001F327EE877A07EE903AF8EE677AC7EECD
:102EC000276A7F4B012200210320C3ED006AFEF731
:102ED0008FFC326840E0794CD5F8B820D4ED007A08
:102EE000704BF8EEE77A002A00F0BE80D3F8C010ED
:102EF000D3F8BC20D3ED316A714B02FB01F207EE2F
:102F0000102A67EEA67AB8EE477A0122C7EE876AE2
:102F100000210220C3ED006AFEF76AFC32681BE064
:102F2000664C2A69D4ED007AEB6895ED057A644F1A
:102F3000F8EEE77A03FB02F327EE877A07EE903A82
:102F4000F8EE677A0122C7EE276A10460021C7ED26
:102F5000006AFEF74DFC32685A4FDFF890C13968BD
:102F60002368DFF88CE158484942CCF800105B42F6
:102F70005649CEF800304FF00008554B0A60C0F8B3
:102F8000008052421A2153481A603AF08BF8316897
:102F900040483AF023FD3F483AF0CCFC17214E4818
:102FA0003AF080F821683B483AF018FD39483AF089
:102FB000C1FC152149483AF075F8396835483AF0AE
:102FC0000DFD34483AF0B6FC404641460122FEF77A
:102FD0000FFCD5F8D800A0F10A031D2B03D8C0B20E
:102FE000012137F013FD04B0BDE8F08129462948DE
:102FF000294F3AF0F3FC022128483AF053F821789F
:1030000024483AF0EBFC23483AF094FC68463449F3
:103010003AF036FF29466846FFF784FE68463AF0E4
:10302000EFFE396868463AF02BFF29466846FFF7FD
:1030300079FE68463AF0E4FE68462A493AF020FFF5
:1030400029466846FFF76EFE68463AF0D9FE3968B1
:1030500068463AF015FF68462946FFF763FE684662
:103060006C463AF0CDFEA0E6596A1A6AD3ED0A6AB8
:1030700042E7DFED1D6A114C23E7DFED1B6A0F4CC1
:10308000FDE60E4C68E700BFF84804009114FF1FEE
:103090007C1BFF1FB408FF1F9407FF1F0C97040041
:1030A00034490400F416FF1FD817FF1F48490400D5
:1030B0001819FF1F0000B443241AFF1F8419FF1FB3
:1030C0002C1AFF1FEC13FF1F1416FF1F0C1BFF1FF2
:1030D000E413FF1F5C490400784904009049040090
:1030E0000C4904002049040000000000101BFF1FD1
:1030F000E813FF1F10B5F0EE407A0021F2EE046AEB
:10310000BDEEE77AB8EEC77AB4EE677AF1EE10FA60
:1031100004D00131062967EEA67AF1D11E4B1B6857
:10312000042B38D8DFE803F02A1D3710030010EE17
:10313000100ACCB23CF040FC41EC100B2146174881
:10314000BDE810403AF054BC10EE100ACCB23CF08E
:1031500033FC41EC100B21461148BDE810403AF019
:1031600047BC10EE100ACCB23CF026FC41EC100B30
:1031700021460C48BDE810403AF03ABC10EE100A67
:10318000CCB23CF019FC41EC100B21460648BDE8DE
:1031900010403AF02DBC10BD6807FF1F8C08FF1FC0
:1031A0007808FF1F6408FF1FB408FF1F084B1B6847
:1031B000042B0CD8DFE803F009070B05030038F0F7
:1031C000E1BF38F011BC37F0EFBF39F0EFBF704707
:1031D0006807FF1F2DE9F041DFF85080104F114EB6
:1031E000114D0446014640463AF07EFB40463AF017
:1031F000A1FB214638463AF077FB38463AF09AFB75
:10320000214630463AF070FB30463AF093FB2146B7
:1032100028463AF069FB2846BDE8F0413AF08ABBFF
:103220006408FF1F7808FF1F8C08FF1FB408FF1FEA
:1032300004280CD8DFE800F009070B05030038F07C
:10324000F9BF38F029BC38F081B839F0C5BE00208C
:10325000704700BF08B538F065F8002801DD01208F
:1032600008BD38F005FC002801DD032008BD38F05A
:10327000CDFF0028D4BF0020042008BD38B5124C73
:103280002068FFF7D5FF0C21C5B2104839F00AFFBE
:10329000284639F08BFF0E483AF04CFB02E02068DC
:1032A000FFF7C6FFFFF7D6FF0028F8DC0421094826
:1032B00039F0F8FE294606483AF090FB04483AF007
:1032C00039FB284638BD00BF6807FF1FA849040026
:1032D000B408FF1FB849040008B5FFF7BBFF00287A
:1032E00008DB184B1868FFF7A3FF174BC0B2532831
:1032F000187001D0002008BD002108460122FEF709
:1033000077FA124B1B68013B032B19D8DFE803F057
:1033100002070C11012200210220FEF769FA0122A6
:1033200000210220FEF764FA012200210320FEF7AB
:103330005FFA012200210420FEF75AFA012008BD9D
:10334000012008BD6807FF1FAD15FF1F1819FF1FDB
:103350002DE9F0431C2187B07548764F764C774EA7
:1033600039F0A0FE76483AF0E5FA0E21754839F0BA
:1033700099FE396872483AF031FB71483AF0DAFA4E
:103380000023019308E0192B5BD0032B57D0019B3E
:103390000133142B01932FDC2068FFF749FF07212D
:1033A000C5B2694839F07EFE284639F0FFFE644810
:1033B0003AF0C0FAFF2D4FF00D0164487AD0019B1E
:1033C000F55439F06FFE5D483EF03AFA01465B482D
:1033D00039F068FE5A483AF0ADFA3B68092BD2D171
:1033E0005B4A019B10680021184437F079F9019B72
:1033F0000133142B0193CFDDDFF85491DFF85C81AA
:1034000002AE002411E0192B1DD0032B1BD010217C
:10341000504839F047FE16F8010B39F0C7FE013469
:1034200047483AF087FA0D2C14D03B68092BEAD1B3
:10343000D9F80000204437F039F93070E7E7464A00
:10344000CFE7464ACDE7D8F80000204437F02EF900
:103450003070DCE721463D4839F024FE37483EF025
:10346000EFF90146354839F01DFE35483AF062FA69
:103470000A213B4839F016FE02A83EF0E1F9014668
:1034800002A839F00FFE2E483AF054FA284639F0D7
:103490008DFE2B483AF04EFA02A932483AF070FD00
:1034A000304927483AF020FA25483AF043FA07B065
:1034B000BDE8F0833B68092B2BD0192B1BD0032BC5
:1034C0000BD00321284839F0EDFD01991C483AF052
:1034D00085FA1B483AF02EFA8EE7244B04220DEBB6
:1034E0000200196837F024F91B4B144819680D22A3
:1034F00037F01EF9E5E71E4B04220DEB02001968B8
:1035000037F016F9154B0D4819680D2237F010F9F0
:10351000D7E7184B04220DEB0200196837F008F9C1
:103520000B4B064819680D2237F002F9C9E700BFB6
:10353000C04904005407FF1F6807FF1F6013FF1FE7
:10354000B408FF1FC0460400E0490400EC49040031
:103550007007FF1FFC4904001807FF1F2007FF1F0B
:10356000104A04009815FF1FE84904000007FF1FD8
:103570000407FF1F2807FF1FF8B51F2129482A4EFF
:103580002A4F39F08FFD2A483AF0D4F90E21294804
:1035900039F088FD284B264819683AF01FFA24486C
:1035A0003AF0C8F900250EE006F8014F39F07AFD2F
:1035B00022483EF045F90146204839F073FD1C4889
:1035C00001353AF0B7F93868FFF732FE0721C4B287
:1035D0001B4839F067FD204639F0E8FD14483AF001
:1035E000A9F9FF2C4FF00D011648DDD10321164833
:1035F00039F058FD29460E483AF0F0F90C483AF0F7
:1036000099F90D210F4839F04DFD0C483EF018F99D
:1036100001460A4839F046FD0548BDE8F8403AF051
:1036200089B900BF1C4A04005F13FF1F6807FF1F12
:10363000B408FF1FC04604005407FF1F6013FF1F9C
:10364000E0490400EC490400E8490400FFFFFFFFE3
:103650002DE9F04F2DED028BA5B005469849994E06
:1036600007A83AF00DFC00231F219748336039F07A
:1036700019FD294695483AF0B1F994483AF05AF9BB
:10368000934B1C686F4604F10408204637F00EF88F
:103690000134444507F8010BF7D1DDF800A0BAF179
:1036A000000F40F301828B4B1F680DF10C09C9EB31
:1036B000070709EB0A084C46381936F0F7FF04F8FB
:1036C000010B4445F8D124AB9A440A2100248248D6
:1036D0000AF8844C39F0E6FC48463EF0B1F8014661
:1036E000484639F0DFFC79483AF024F923464A4647
:1036F00010A87A4934F00CF8229B002B00F0BB8113
:103700005C203AF0D5F80446754B9DF84400129AB7
:103710007449236000279DF84C3020730DF1500848
:10372000A16022614146237504F11800676033F0FF
:10373000D7FE63686C49DFF8CCA1A76501334FF46D
:103740007A728DF830708DF838700F94A1606360D4
:103750000D92CDF82CA04046DFF8ACB1CDF840B0CA
:1037600033F0ECFE0F98002800F0178103685F4AE1
:103770001B6B934240F09281036D002B00F0098196
:103780005B4A13680293029913680193019B5B1AC9
:10379000632BF9D900282ED00368564F1B69494C7A
:1037A000BB426FF000484FF0000972D1036D002B4F
:1037B00071D01A7812074DD40F9CE4B123684E4E95
:1037C000DB6AB34240F05481A06D18B13CF0C2FFF7
:1037D0000023A365236D002B00F06B8104F118001A
:1037E00033F0ACFE0F9D6C68013C6C60002C00F067
:1037F0000C8100230F93414B079C4148002C08BFCC
:103800001C46132139F04EFC20463EF019F80146C3
:10381000204639F047FC2D483AF08CF820463CF021
:1038200039FFB0EE408AF0EE608A0F9CCDF82CA0F4
:1038300024B16568013D6560002D67D007A83AF0A6
:10384000DFFAB0EE480AF0EE680A25B0BDEC028B54
:10385000BDE8F08FDA695869101A01D40028ABD09E
:1038600078230A220BA910A83AF0C4F910A907A8D6
:103870003AF07EFB10A83AF0C3FA33689D427CD040
:103880000F98013323600028B5D003681B69BB4241
:103890008CD09847E2E7416D00298DD091F8313006
:1038A0001B0789D5D1E90423D1E90001101A63EB84
:1038B0000101894508BF8045D0D26FF00040CDE7B7
:1038C00020B10400A81AFF1F3C4A0400B408FF1FDF
:1038D0000007FF1F1807FF1F5C4A0400841BFF1F1F
:1038E00070430400D8420400204304007504000023
:1038F000E420FF1F710B00006D05000054B70400A9
:10390000E04A040044430400FC42040023687C4A6B
:10391000DB6A934240F0D280A06D10B13CF01AFFF8
:10392000A565236D002B00F0D28004F1180033F060
:1039300005FE0F9C002C81D02368724A5B6893427D
:1039400040F0BF80A06D704B236018B13CF002FFC7
:103950000023A365236D04F11805002B00F0BF8040
:10396000284633F0EBFDC4F808B0284633F0E6FDF6
:1039700020465C2139F0A0FF60E71D21634839F043
:1039800091FB294662483AF029F8614839F0D2FFA4
:1039900012E7436D002B7FF4F3AE5E4B5E480122CD
:1039A00012211A7039F07EFB594839F0C3FF0B2100
:1039B0005A4839F077FB564839F0BCFF584910A8EF
:1039C0003AF05EFA002110A8FFF7ACF910A83AF01F
:1039D00017FA2220FFF7EAFB524910A83AF050FAF2
:1039E000002110A8FFF79EF910A83AF009FA4E49F5
:1039F00010A83AF045FA002110A8FFF793F910A893
:103A00003AF0FEF99FED3C8B0FE72B68DB6AB3427F
:103A10005AD1A86D10B13CF09DFEAC652B6D002B0A
:103A200062D005F1180033F089FD0F9C002C3FF4A3
:103A3000E0AE2368334A5B6893424DD1A06D324BB0
:103A4000236018B13CF086FE0023A365236D04F1CA
:103A50001805002B4CD0284633F070FDC4F808B090
:103A6000284633F06BFD20465C2139F025FFC0E687
:103A700020469847B6E6239B002B7FF441AE4FF4D7
:103A80007A72DFF8A8A08DF830308DF838300F93B7
:103A90000D92CDF82CA00DF150085CE69847002857
:103AA0003FF47BAF0F986BE64FF0000A0DF10C0965
:103AB00009E6636D002B7FF491AE93E620469847AC
:103AC00037E720469847B9E628469847ADE7636D43
:103AD000002B7FF42AAF2CE72046984789E6636DD8
:103AE000002B7FF43DAF3EE76B6D002B99D19CE737
:103AF000636D002BAFD1B1E70000000000000000B3
:103B00006D050000510D000070430400C04A040020
:103B1000B408FF1FAC15FF1F684A04007C4A04006C
:103B2000884A0400A44A0400B84A0400444304003C
:103B30002DE9F04F2DED028BADF2BC5DB54981460C
:103B400003A83AF09DF9B44907A83AF099F900237F
:103B500029A8B24AB24933F0DBFD3B9B002B00F0B1
:103B60005F845C2039F0A4FE0446AE4B9DF8A800AB
:103B70002B9AAD49236000269DF8B03020730DF1DB
:103B8000B408A1602261237504F118004146666003
:103B900033F0A6FC6368A54AA54DA6650BAF0133BB
:103BA00063604FF47A73A2603C613E713E73BB6008
:103BB0003D604046DFF8A882CDF8A48033F0BEFC1B
:103BC00000263969002900F0EE800B68994ADB6B0A
:103BD000934240F01C8300231A46183119A84FF471
:103BE0007A74DFF848B28DF858308DF8603027933A
:103BF00028931794CDF854B033F0F4FC279B002B96
:103C000000F05E835C2039F053FE04464FF0000A5A
:103C10009DF85810179A8348834B9DF860E0206008
:103C20002173226119A904F11800A36084F814E03B
:103C3000C4F804A033F054FC6268C4F808B0013240
:103C40004FF47A71C4F858A08DF844A08DF84CA0B8
:103C5000149410956260129119A8CDF8548033F035
:103C60006DFC149C002C00F02C842368724A5B6B62
:103C7000934240F0ED81A16D002900F0698315A801
:103C80003AF0FEF81498002800F09E8002686B4914
:103C9000136B8B4240F07381036D002B00F0C281E7
:103CA000926B67498A4240F0D7811B7813F0700FFE
:103CB00014BF01200020002800F06981012157482D
:103CC00039F0F0F95F4839F035FE149C04B32368ED
:103CD000DFF874B1DB6A5B4540F0B781A06D18B1C5
:103CE0003CF038FD0023A365236D002B00F0E38238
:103CF00004F1180033F022FCDDF850A0DAF804409B
:103D0000013CCAF80440002C00F0518100231493B8
:103D100015A83AF075F8149C1095002C3FF451AF9B
:103D20006368013B6360002B7FF44BAF2268464918
:103D3000D26A01938A4240F02283A06D18B13CF010
:103D400009FD019BA365236D002B00F0338304F173
:103D5000180033F0F3FB149C002C3FF432AF2368BF
:103D60003A4A5B68934240F01C83A06D2D4B236060
:103D700018B13CF0EFFC0023A365236D04F1180B90
:103D8000002B00F02183584633F0D8FBC4F808809C
:103D9000584633F0D3FB5C21204639F08DFD39695C
:103DA00000297FF412AF4FF47A738DF844108DF828
:103DB0004C10149115A82649109512933AF060F80A
:103DC000149800287FF462AF1321224839F06AF971
:103DD0001C4839F0AFFD15A83AF012F8149B109565
:103DE00013B114A8FCF7D8FF1B491C4C15A83AF0D6
:103DF00047F8002115A8FEF795FF15A83AF000F83E
:103E000007EE906AB8EEE78A0020B0EE480AFFF7A6
:103E100071F927E02CAE0400F44A0400FC4A0400C7
:103E2000841BFF1F70430400D84204002043040099
:103E300044430400950500001907000075040000C4
:103E400031090000B408FF1F6D050000510D00008E
:103E500020B10400004B0400144B04009407FF1F22
:103E6000FC420400216815A83AF00AF8002115A8C0
:103E7000FEF758FF15A839F0C3FFB64915A839F069
:103E8000FFFF002115A8FEF74DFF15A839F0B8FF78
:103E9000B0EE480A0020FFF72DF9216815A839F087
:103EA000EFFF002115A8FEF73DFF15A839F0A8FF88
:103EB0000C21A94839F0F6F83146A84839F08EFDB2
:103EC000A64839F037FD29AC4FF0000820463DF0F8
:103ED000B7FC0146204639F0E5F8A04839F02AFD44
:103EE0000A219F4839F0DEF808F101089B4839F0B3
:103EF00021FD464504F10D04E8DA09EB490429AB3C
:103F000009EB84046FF00C0A1C44DFF88CB209F151
:103F1000FF330AFB09FA0193012606F1FF3803215A
:103F2000904839F0BFF841468C4839F057FDC146FA
:103F300003210AEB04088C4839F0B4F840463DF000
:103F40007FFC0146404639F0ADF8019B874803EB02
:103F50000608132139F0A6F84146804839F03EFDA5
:103F60007E4839F0E7FC09F1FF33052B76D8DFE80E
:103F700013F01501EE00EC00EA00B200530198477F
:103F800000283FF421AF1498002840F09D8203A937
:103F900015A83AF09BF80028C0F29E8115217448BC
:103FA00039F080F86D4839F0C5FC149C8EE6DAF8DB
:103FB0000020D26A5A4540F0DF81DAF8580018B183
:103FC0003CF0C8FBCAF85840DAF85020002A00F04C
:103FD000EB810AF1180033F0B1FA149C002C3FF485
:103FE00095AE2368634A5B68934240F0D781A06D29
:103FF000614B236018B13CF0ADFB0023A365236D3A
:1040000004F1180B002B00F0DA81584633F096FAD1
:10401000C4F80880584633F091FA20465C2139F004
:104020004BFC73E6436D002B3FF4CEAE926B534BCB
:104030009A4211D1436D002BA9D093F8313013F07F
:10404000500F14BF0120002035E62046984753E664
:1040500020469847014612E690472CE6484915A8A5
:1040600039F00EFF002115A8FEF75CFE15A839F007
:10407000C7FE444915A839F003FF002115A8FEF733
:1040800051FE15A839F0BCFE214615A839F0F8FEFE
:10409000002115A8FEF746FE15A839F0B1FE20460E
:1040A0003DF0CEFB0146204638F0FCFF2B4839F0AE
:1040B00041FCDBF8001015A839F0E2FE002115A83C
:1040C000FEF730FE15A839F09BFE072E00F0E180C8
:1040D00001360D3421E72C4915A839F0D1FE002115
:1040E00015A8FEF71FFE15A839F08AFE254915A868
:1040F00039F0C6FE002115A8FEF714FE15A839F008
:104100007FFE214615A839F0BBFE002115A8FEF759
:1041100009FE15A839F074FE20463DF091FB0146DA
:10412000204638F0BFFF0D4839F004FCDBF80010E2
:1041300015A839F0A5FE15A80021FEF7F3FD15A876
:1041400039F05EFEC4E71149C6E71149C4E71149D9
:10415000C2E700BF344B04004C4B0400B408FF1FFF
:10416000189E04006C4B0400B47204005C4B040005
:10417000344C0400510D000070430400310900006C
:10418000704B0400884B0400044C0400EC4B04000A
:10419000D44B0400BC4B04009007FF1FA94915A88D
:1041A00039F06EFE002115A8FEF7BCFD15A839F008
:1041B00027FEA54915A839F063FE002115A8FEF7D2
:1041C000B1FD15A839F01CFE214615A839F058FE9E
:1041D000002115A8FEF7A6FD15A839F011FE20460E
:1041E0003DF02EFB0146204638F05CFF974839F041
:1041F000A1FBDBF8001015A839F042FE002115A83C
:10420000FEF790FD15A839F0FBFD914964E7002207
:1042100010A89847149C25E58E4915A839F030FE62
:10422000002115A8FEF77EFD15A839F0E9FD8649A5
:1042300015A839F025FE002115A8FEF773FD15A875
:1042400039F0DEFD08EB480308EB830829AB9844FE
:10425000414615A839F014FE002115A8FEF762FDAD
:1042600015A839F0CDFD40463DF0EAFA014640463A
:1042700038F018FF754839F05DFBDBF8001015A821
:1042800039F0FEFD15A80021FEF74CFD15A839F008
:10429000B7FD3B693D6013B10FA8FCF77DFD07A892
:1042A00039F0AEFD03A839F0ABFD0DF2BC5DBDECFD
:1042B000028BBDE8F08F636D002B7FF419AD1BE519
:1042C000289B002B7FF49EAC8DF8443012948DF81F
:1042D0004C3010951493BFE407A915A839F0F6FEE9
:1042E0000028BFF65BAE149C7CB323685A4A5B6B14
:1042F000934249D1D4F858B0BBF1000F6ED0584664
:104300003DF09EFA5C460146204638F0CBFE4F4811
:1043100039F010FB622E02DD149C0136D6E406EB68
:10432000460B149C06EB8B0B29AB9B4454B32368C0
:10433000494A5B6B93424CD1A16D002900F09480F7
:1043400058460D223DF03AFBE7E72146434CDBE7B8
:104350004FF4807001913CF0F5F9A065D8B1019956
:104360000170236D002B51D001464FF48072184626
:1043700032F0EEFEA16D82E4504690472DE62046D5
:104380009047E8E43549DBE72046984704463DF08E
:1043900057FA0146B8E73249A16570E420469847CC
:1043A000B4E4204698470CE4DAF85420002A7FF45D
:1043B00010AE12E6636D002B7FF4C9ACCBE4636DE5
:1043C000002B7FF422AE23E6636D002B7FF4DBAC81
:1043D000DCE420469847149C0146B1E74FF4807016
:1043E0003CF0B0F90146A06558B180F800B0206DEE
:1043F000002858D04FF4807232F0AAFED4F858B09A
:104400007DE7DFF85CB0C4F858B078E7636D2BB196
:1044100001464FF48072184630F0DCFCA16D2EE4AA
:104420003C9B002B7FF49DAB0BAF4FF47A720D4D8C
:104430003B713B733B61BA603D600DF1B408FFF71F
:10444000B8BB00BF8C4B0400884B0400B408FF1FAE
:10445000A44B04001C4C04001907000020B1040008
:104460003413FF1F444304004FF4807001913CF06B
:1044700069F9A06500B301990170236D43B101464C
:104480004FF48072184632F063FEA16D149C57E71A
:10449000636DA3B101464FF48072184630F09AFC68
:1044A000A16D149C4CE7606D18B14FF4807230F030
:1044B00091FCD4F858B022E70949A16540E7A16D05
:1044C0003EE70849FFF7DBBB0268074B926B9A4255
:1044D0007FF4C2AD036D002B7FF4E7ABAAE500BF0C
:1044E0003413FF1F20B10400310900002DE9F04F03
:1044F000ABB000234FF47A72BA490290BA4E8DF8ED
:10450000343008A88DF83C3010930E920C9639F098
:10451000B7FC882039F0CEF90823102280E80C007F
:10452000C118069100F188070D460C46204600216F
:10453000103439F0A5FCBC42F8D11A21AB4838F050
:10454000B1FDAB4839F0F6F9002316A8A94AAA49EB
:1045500033F0DEF8289B002B00F04D845C2039F00E
:10456000A7F90446A54A9DF85C00189BA44922605F
:104570004FF000089DF8642020731AAFA1602361FA
:104580003946227504F11800C4F8048032F0A8FFFF
:1045900063689C49C4F8588001334FF47A728DF8EF
:1045A00048808DF8508015941196A1606360139235
:1045B000954B1693384632F0C1FF159B002B00F047
:1045C000C5835A68109901325A60002900F03B8473
:1045D00010A8FCF7E1FB159B11961093002B00F03F
:1045E000B98315A8FCF7D8FB1098002800F0B28317
:1045F00002688649136B8B4240F0EC83036D002BFD
:1046000000F0CC83926A82498A4240F00484DC69DB
:104610008048DFF81C920A2138F044FD00230A226A
:104620002146734839F09AF9714839F083F9092124
:10463000794838F037FD029C6D48214639F0CEF9B3
:104640006B4839F077F90D21744838F02BFDD9F813
:104650000010674839F0C2F9654839F06BF9002C51
:1046600040F069836423C9F800304FF0060B002442
:10467000DFF8C0A103940795CDF810A01099002988
:1046800000F06A810B68664ADB6B934240F0188346
:1046900000231A4618314FF47A785A4D8DF85C3061
:1046A00038468DF8643028932993CDF860801695AC
:1046B00032F098FF289A002A00F00C835C2039F031
:1046C000F7F880464FF0000A9DF85C0018994B4BB4
:1046D0004B4A9DF864E088F80C00C8F81010C8F840
:1046E0000030394608F11800C8F8082088F814E0AE
:1046F000C8F804A032F0F4FED8F80410C8F8085046
:1047000001314FF47A70C8F858A08DF848A08DF8A0
:1047100050A0CDF854801196C8F8041013903A4B6D
:104720001693384632F00AFF159D002D00F0C6831F
:104730002B683C4A5B6B934240F07182D5F85880FD
:10474000B8F1000F00F0E18240463DF079F80146F3
:10475000404638F0A7FC264839F0ECF8159B002BB2
:1047600000F04D821A683048916B814240F0008120
:10477000196D002900F09882097811F0700F14BFAC
:1047800001210021002900F0FD80013C002B00F0F8
:104790006C811A681D49126B8A4240F036821A6D8C
:1047A000002A00F07C821A68204DD26AAA4240F0AA
:1047B000A981986D28B101933BF0CCFF019B0022A9
:1047C0009A651A6D002A00F0808203F1180032F019
:1047D000B5FE159A5368013B5360002B00F0D2815F
:1047E0002AE000BF2CAE040044430400E44C040063
:1047F000B408FF1FFC4A0400841BFF1F7043040021
:10480000D842040020430400FC4204007504000068
:10481000E5080000644C0400704C04007C4C04006B
:104820009505000019070000310900006D05000022
:104830001407FF1F9007FF1F0134A345BFF61EAFEB
:10484000079DDDF810A001277C1E0321AF4838F03A
:1048500029FC2146AE4839F0C1F80321AD4838F0B3
:1048600021FC2946AA4839F03FF8BC1EA84839F077
:1048700061F8052C07D8DFE814F06D006B006900C3
:1048800067003900D901A44916A839F0F9FA0021C6
:1048900016A8FEF747FA16A839F0B2FA9F4916A8EB
:1048A00039F0EEFA002116A8FEF73CFA16A839F006
:1048B000A7FA294616A839F0F7FA002116A8FEF73C
:1048C00031FA16A839F09CFADAF8001016A839F077
:1048D000D7FA002116A8FEF725FA16A839F090FAA3
:1048E000072F00F0D08110350137ADE78C4916A8AD
:1048F00039F0C6FA002116A8FEF714FA16A839F006
:104900007FFA864916A839F0BBFA002116A8FEF7EF
:1049100009FA16A839F074FA294616A839F0C4FA2B
:10492000002116A8FEF7FEF916A839F069FADAF8A0
:10493000001016A839F0A4FA16A80021FEF7F2F923
:1049400016A839F05DFACEE77649D0E77649CEE78A
:104950007649CCE77649CAE74FF47A738DF8481068
:104960008DF85010119615911393DFF8E481EFE65E
:1049700018468847159B00287FF407AF002B00F0EE
:104980003E811A68526B6B498A4240F0B0819D6D3E
:10499000002D00F0DF80294616A839F071FA0F21AA
:1049A000654838F07FFB16A9594838F09DFF06216D
:1049B000624838F077FB08A916A839F087FB014652
:1049C000534839F00BF8524838F0B4FF08A916A83C
:1049D00039F07CFB00281ADB029BA34217DC069B04
:1049E000039A159D03EB0218002D00F0A2812A689E
:1049F0005049526B8A4240F0F581A96D002900F0C0
:104A00000E82404639F0BCFA039B013303930A211E
:104A10004B4838F047FB21463D4838F0DFFF032183
:104A20003C4838F03FFB159D002D00F0EA802B68D4
:104A3000404A5B6B934240F05E81D5F85880B8F1F4
:104A4000000F00F0988140463CF0FAFE01464046D7
:104A500038F028FB03212F4838F024FB16A839F042
:104A6000CFF9159B002B7FF494AE0F21354838F019
:104A700019FB2146264838F0B1FF0321254838F0BC
:104A800011FBD9F80010224838F0A8FF04F1080300
:104A900003212048C9F8003038F004FBD9F8001091
:104AA0001B4838F09BFF1A4838F044FF264916A8E7
:104AB00039F0E6F9002116A8FEF734F916A839F006
:104AC0009FF92220FEF772FB631E00EE103A0020D1
:104AD000B8EEC00AFEF70EFB049B16A8196839F061
:104AE000CFF9002116A8FEF71DF916A839F088F9AC
:104AF000159B002B3FF4A0AE1A68144DD26AAA424F
:104B00003FF457AE1846904763E600BF6C4B040075
:104B1000B408FF1FB4720400704B0400884B0400FB
:104B2000044C0400EC4B0400D44B0400BC4B0400C8
:104B30008C4B040019070000004D0400AC4C04002D
:104B4000B44C0400C04C0400D04C04006D050000BF
:104B500020B104004FF4807001933BF0F3FD019B02
:104B60009865002800F0338105701A6D002A00F066
:104B70008F81014610464FF4807232F0E9FA019BB2
:104B80009D6D08E711680193C96AA94240F0BA8097
:104B9000906D28B105923BF0DDFD059A019B936570
:104BA000136D002B00F0DB8002F1180032F0C6FC20
:104BB000159D002D3FF440AE2B68AB4A5B689342D5
:104BC00040F0C180A86DA94B2B6018B13BF0C2FD2D
:104BD0000023AB652B6D002B00F0C68005F1180398
:104BE0001846019332F0AAFC019BA14AAA6018461C
:104BF00032F0A4FC28465C2138F05EFE1CE69D499C
:104C0000CAE6DFF87082294621E718469047002857
:104C10003FF42BAF159B002B7FF46EAF0CE62846BC
:104C2000984780463CF00CFE014691E5924916A853
:104C300039F026F9002116A8FEF774F816A839F005
:104C4000DFF88E4916A839F01BF9002116A8FEF7E7
:104C500069F816A839F0D4F8294616A839F024F9CD
:104C6000002116A8FEF75EF816A839F0C9F8DAF8A0
:104C7000001016A839F004F916A80021FEF752F822
:104C800016A839F0BDF808A839F0BAF8109B0C96B0
:104C900013B110A8FCF780F82BB0BDE8F08F5A6D67
:104CA000002A7FF480ADE0E6596D00293FF46AAE3A
:104CB00091F8311011F0500F14BF0121002161E56E
:104CC000002211A89847159D2FE55A6D002A7FF400
:104CD0007CAD7EE5299A002A7FF4F0AC8DF848205F
:104CE000CDF84C808DF850201196159217E5184696
:104CF0009047014650E62846984780463CF0A0FD84
:104D00000146A4E61046884752E74FF480703BF016
:104D100019FD0146A865002868D080F80080286D3C
:104D2000002846D04FF4807232F012FAD5F858803D
:104D30000AE5504965E6029B13F1060B7FF597AC37
:104D4000DFF848A17FE52846984775E5109B002BC2
:104D50007FF43EAC0E214A4838F0A4F993E7536D36
:104D6000002B7FF421AF23E76B6D002B7FF436AF70
:104D700005F1180339E74FF480703BF0E3FC01467E
:104D8000A865F8B180F80080286D002862D04FF443
:104D9000807232F0DDF9D5F8588054E6436D002B6F
:104DA000D8D0926A374B9A4235D1436DC3B11C6952
:104DB0002EE4686D18B14FF4807230F00BF8D5F81E
:104DC0005880C1E4DFF8C080C5F858803BE62E4D1E
:104DD0009D65E0E598470028BCD01098002871D167
:104DE000002415E42846904701460AE6DFF898803B
:104DF000C5F85880A8E4299B002B7FF4AFAB4FF493
:104E00007A728DF848308DF85030119615931392C0
:104E10001AAFFFF7CDBB90470446FFF7F9BB4FF43D
:104E2000807001913BF08EFCA86580B10199017002
:104E30002A6D002A38D0014610464FF4807232F0B5
:104E400087F9A96DDDE510931196FFF7CABB0E49EE
:104E5000A965D6E5686D18B14FF480722FF0BAFFDE
:104E6000D5F85880EFE500BF510D000070430400F5
:104E7000FC42040020B104001C4C0400884B0400D8
:104E80008C4C0400E50800003413FF1F9007FF1F3F
:104E90005A6D3AB1014610464FF4807201932FF0DB
:104EA00099FF019B9D6D76E56A6D2AB1014610461A
:104EB0004FF480722FF08EFFA96DA2E5DFF82080FD
:104EC000294645E40268054B926A9A42A3D1036DD4
:104ED000002B3FF46AAFFFF79ABB00BFE508000064
:104EE00020B104002DE9F041224B1C6886B08046B9
:104EF000261D6D46204635F0D9FB0134B44205F835
:104F0000010BF7D1009E002E31DB1B4F0DF1030585
:104F100000243868204435F0C9FB05F8010F0C2146
:104F2000164838F0BFF8287838F040F901341448B2
:104F300038F000FDB442ECDD06AB1C4401A90023AF
:104F4000404604F8143C38F09BFF09210D4838F026
:104F5000A9F801A83CF074FC014601A838F0A2F8B9
:104F6000074838F0E7FC404606B0BDE8F081002471
:104F7000E2E700BF2807FF1F7007FF1F104D040066
:104F8000B408FF1F204D04002DE9F0472DED028BE2
:104F90008E4E8F49B2B00024074604A8346038F022
:104FA0006FFF214608A838F06BFF21460CA838F0A7
:104FB00067FF884B1C6801AD04F10408204635F0FA
:104FC00075FB0134A04505F8010BF7D1DDF804802D
:104FD000B8F1000FC0F2D883DFF83C920DF14F0515
:104FE0000024D9F80000204435F060FB05F8010FDB
:104FF0000C21794838F056F8287838F0D7F8013481
:10500000764838F097FCA045EBDA32AB1C44092116
:105010000025734804F8785C38F044F814A83CF094
:105020000FFC014614A838F03DF86C4838F082FCBB
:105030002B4614AA1EA86B4932F06AFB309B002B4A
:1050400000F084835C2038F033FC0446664B9DF806
:105050007C00209A6549236000259DF884302073E8
:105060000DF18808A16022614146237504F1180002
:10507000656032F035FA63685D49DFF8A0A1A56587
:1050800001334FF47A728DF868508DF870501D948A
:10509000A16063601B92CDF864A0564B1E934046FE
:1050A00032F04CFA1D98002800F0D1810368524A72
:1050B0001B6B934240F05D83036D002B00F0C381B6
:1050C0004E4A13680393039913680293029B5B1A79
:1050D000132BF9D9002832D0DFF84491DFF8EC80A7
:1050E0006FF00044002503681B694B4540F09A812E
:1050F000036D002B00F075811A78120740F177815B
:10510000DA695869101A02D4002800F070817823F7
:105110000DEB03000A2219A938F06CFD1EA904A8A2
:1051200038F026FF1EA838F06BFE3368BB4200F053
:105130005E811D980133C8F800300028D3D10021CA
:1051400004A838F09BFF2E4C03782360012204A9A9
:105150001EA838F0F1FF1EA908A838F009FF1EA804
:1051600038F04EFE04A9274838F0FAFE2D212648D3
:1051700037F098FF3168194838F030FC174838F09C
:10518000D9FB0C21214837F08DFF2168134838F0F6
:1051900025FC124838F0CEFB12211D4837F082FF63
:1051A00018490E4838F0A0FB0C4838F0C3FB082122
:1051B000184837F077FF08A9084838F095FB0748EA
:1051C00038F0B8FB23680D3B2CE000BFA81AFF1F86
:1051D00020B104002807FF1F104D0400B408FF1F72
:1051E000204D0400841BFF1F70430400D8420400BC
:1051F00020430400FC42040075040000E420FF1F6B
:105200002C1BFF1F8415FF1F3C4D04006C4D040038
:105210007C4D0400904D04007007FF1F44430400C0
:10522000710B00004D2B00F28C82DFE813F086003A
:105230008A028A028A028A028A028A028A028A020E
:105240008A028A028A028A028A028A028A028A02FE
:105250008A028A028A028A028A028A028A028A02EE
:105260008A028A028A028A028A028A028A028A02DE
:105270008A028A028A028A028A028A028A028A02CE
:105280008A028A028A028A028A02F7018A028A0252
:105290008A028A028A028600860086008A028600C6
:1052A00005022702490286004B016D018A028A022B
:1052B0008F0186008600E9018A0286008A028A023E
:1052C00020014E0086008A028600012104A838F0E1
:1052D000D5FE017810A838F019FE10A8AE4938F0B4
:1052E000B7FE002840F05282AC4910A838F0B0FE5A
:1052F00008B102232360022204A91EA838F01CFF73
:105300001EA908A838F034FE1EA838F079FD0D213A
:10531000A34837F0C7FE2168A24838F05FFB05219B
:10532000A14837F0BFFE08A99E4838F0DDFA9D4835
:1053300038F000FB10A838F063FD9C4B089C002C53
:1053400008BF1C4620463BF0A5F90B219848B0EE5B
:10535000408AF0EE608A37F0A5FE08A9914838F03F
:10536000C3FA904838F0E6FA0C21924837F09AFEDA
:1053700020463CF065FA0146204637F093FE894806
:1053800038F0D8FA07218C4837F08CFEB0EE480A86
:10539000F0EE680A0221834838F02AFB814838F091
:1053A000C9FA1A21854837F07DFE7E4838F0C2FAE6
:1053B0001D9BCDF864A013B11DA8FBF7EDFC0CA854
:1053C00038F01EFD08A838F01BFD04A838F018FDC1
:1053D000B0EE480AF0EE680A32B0BDEC028BBDE8D0
:1053E000F087416D19B191F831301B071CD41D9C19
:1053F000002C3FF4A4AE2368714ADB6A934233D198
:10540000A06D18B13BF0A6F90023A365236D002B16
:1054100000F0B58104F1180032F090F81DA8FBF7F8
:10542000BBFC8CE698476FE6D1E90423D1E9000183
:10543000101A63EB01018D4208BF8442BFF464AED1
:105440006FF0004060E6436D002B7FF439AE5D4B9A
:105450005D4801220F211A7037F024FE514838F0C0
:1054600069FA9FED4B8BA3E720469847D6E70121C9
:1054700004A838F003FE0178544838F08BFD02226E
:1054800004A91EA838F058FE1EA908A838F070FD1F
:105490001EA838F0B5FC09214D4837F003FE4B49F2
:1054A000404838F021FA3F4838F044FA4948092189
:1054B00037F0F8FD08A93B4838F016FA394838F0BB
:1054C00039FA3AE7012104A838F0D8FD01784248BA
:1054D00038F060FD022204A91EA838F02DFE1EA996
:1054E00008A838F045FD1EA838F08AFC09213B4881
:1054F00037F0D8FD3A492B4838F0F6F9294838F00A
:1055000019FA09213748D3E7012104A838F0B6FD7C
:105510000178354838F03EFD022204A91EA838F073
:105520000BFE1EA908A838F023FD1EA838F068FC61
:105530001B212E4837F0B6FD2B491A4838F0D4F914
:10554000184838F0F7F90C212948B1E7012104A8DF
:1055500038F094FD0178274838F01CFD022204A998
:105560001EA838F0E9FD1EA908A838F001FD1EA804
:1055700038F046FC0921204837F094FD1D490948C0
:1055800038F0B2F9074838F0D5F909211B488FE700
:10559000000000000000F0BFA04E0400BC4E04005C
:1055A000C04E0400B408FF1FB44E040054B70400FA
:1055B000004F04000C4F04001C4F0400244F040053
:1055C0006D050000AC15FF1F2C4D0400B41AFF1F21
:1055D000884E0400944E04004C18FF1FFC4D04003C
:1055E0000016FF1F084E0400DC17FF1F144E0400B6
:1055F000304E04003C13FF1F404E04004C4E04008C
:105600006F4C704801232D21237037F04BFD21781A
:105610006D48FBF7CDFD9FED688BC9E60B216B480C
:1056200037F040FD684838F085F908A9684838F037
:1056300097FC9FED618BBBE6012104A838F01EFDAD
:105640000178644838F0A6FC022204A91EA838F0AC
:1056500073FD1EA908A838F08BFC1EA838F0D0FBFB
:1056600009215D4837F01EFD5A49574838F03CF98A
:10567000554838F05FF90921584819E7012104A875
:1056800038F0FCFC0178564838F084FC022204A96A
:105690001EA838F051FD1EA908A838F069FC1EA804
:1056A00038F0AEFB09214F4837F0FCFC4C49464826
:1056B00038F01AF9444838F03DF909214A48F7E62C
:1056C000002314221EA908A838F0E6FC4749484DDB
:1056D000484C1EA83DF0AEFB3AF0DCFF51EC100B3D
:1056E0003AF0B6FC4449286000203DF0A3FB3AF0B4
:1056F000D1FF51EC100B3AF0ABFC062120603F4883
:1057000037F0D0FC08A9304838F0EEF809213C48C1
:1057100037F0C8FC28683AF04FF941EC100B022131
:10572000294838F065F90921364837F0BBFC206874
:105730003AF042F941EC100B02212348FBF758FDE7
:10574000FBE51F4C304801232E215DE7319B002BE8
:105750007FF478AC4FF47A72DFF8B8A08DF8683037
:105760008DF870301D931B92CDF864A00DF1880860
:1057700093E4984700283FF46AAE1D98A0E4636D57
:10578000002B7FF447AE49E600243EE401231F4985
:105790000D482360FBF7ECFC21680B4838F01EF93C
:1057A0001B490948FBF7E4FC08A9074838F09CF8B6
:1057B000054838F0BFF89EE500000000000000003A
:1057C000E814FF1F584E0400B408FF1F9C4D04004E
:1057D0007013FF1F8013FF1FA84D0400B44D040079
:1057E0000016FF1FC04D0400CC4D0400D84D04002E
:1057F000201AFF1FA815FF1F30B10400DC4D040064
:10580000E44D0400F04D0400D04E0400A44E04000A
:10581000B44E04004443040008B5084BDFED080A09
:10582000D3ED007A27EE800A38F002FF38F058FEF8
:10583000044BD3ED007A20EE270A08BD9016FF1F17
:10584000DB0FC9401C1AFF1F08B5304A304B92EDE0
:10585000010A93ED007ADFED2F6A2F4BB8EEC77A7D
:105860005B6CC6EE877A013BB8EEC00A2DED028B69
:1058700027EE800A032B45D8DFE803F03E383202DA
:10588000264B93ED018AB8EEC88AFFF7C5FF244A7C
:10589000244B92ED007A002283F8902072B6DFED5F
:1058A000227A93ED206AD3ED1F6A30EE480AB8EEF3
:1058B000C77AC0EE275AC5EE877A67EE867AF4EE8D
:1058C000E67AC3ED1E7AD3ED227AF1EE10FAD8BF54
:1058D000F1EE677AC3ED237A62B6BDEC028B08BDA8
:1058E000124B93ED018AB8EEC88ACEE7104B93EDC8
:1058F000018AB8EEC88AC8E70E4B93ED018AB8EE6C
:10590000C88AC2E79FED0C8ABFE700BF3C1BFF1FA0
:10591000301AFF1FDB0FC940381AFF1FA413FF1FE7
:105920009013FF1F8819FF1FCDCCCC3CB015FF1F73
:105930005C18FF1FA018FF1F000000002DE9F041B8
:10594000C54BBEB01D6805AC2D1B3EAE281934F00A
:10595000ADFE04F8010BA642F8D1C049C04CC14EBF
:10596000C14DC24F01A838F08BFA002101A8FDF704
:10597000D9F901A838F044FA2220FDF717FCDDED33
:10598000057A0020B8EE670AFDF7B4FB216801A88C
:1059900038F076FA002101A8FDF7C4F901A838F023
:1059A0002FFAB34901A838F06BFA002101A8FDF7DE
:1059B000B9F901A838F024FA2220FDF7F7FBDDED54
:1059C000067A0020B8EE670AFDF794FB216801A86B
:1059D00038F056FA002101A8FDF7A4F901A838F023
:1059E0000FFAA44901A838F04BFA002101A8FDF7ED
:1059F00099F901A838F004FA2220FDF7D7FB9DEDB4
:105A0000070A0420FDF776FB216801A838F038FA70
:105A1000002101A8FDF786F901A838F0F1F99649AF
:105A200001A838F02DFA002101A8FDF77BF901A8A3
:105A300038F0E6F92220FDF7B9FB9DF8B01001A877
:105A4000002914BF3146294638F01AFA002101A86E
:105A5000FDF768F901A838F0D3F9216801A838F0FA
:105A60000FFA002101A8FDF75DF901A838F0C8F987
:105A7000824901A838F004FA002101A8FDF752F983
:105A800001A838F0BDF92220FDF790FBDDED087A82
:105A90000020B8EE670AFDF72DFB216801A838F059
:105AA000EFF9002101A8FDF73DF901A838F0A8F9A8
:105AB000734901A838F0E4F9002101A8FDF732F993
:105AC00001A838F09DF92220FDF770FBDDED097A81
:105AD0000020B8EE670AFDF70DFB216801A838F039
