:1000000000000320D1010000C5E5030081E50300E5
:1000100081E5030081E5030081E5030081E503003C
:1000200081E5030081E5030081E50300C5E50300E8
:10003000C5E5030081E50300B1D20300B5D203009A
:10004000C5E50300C5E50300C5E50300C5E50300FC
:10005000C5E50300C5E50300C5E50300C5E50300EC
:10006000C5E50300C5E50300C5E50300C5E50300DC
:10007000C5E50300C5E50300C5E50300C5E50300CC
:10008000C5E50300C5E50300C5E50300C5E50300BC
:10009000C5E50300C5E50300C5E50300C5E50300AC
:1000A000C5E50300C5E50300C5E50300C5E503009C
:1000B000C5E50300C5E50300C5E5030075F20300CF
:1000C000C5E50300F5FB0300C5E503003D0304009F
:1000D000C5E50300C5E50300C5E50300C5E503006C
:1000E000C5E50300C5E50300E1CB0300C5E503005A
:1000F000C5E50300C5E50300C5E50300C5E503004C
:100100005DD8030079D8030095D80300B1D8030067
:10011000C5E5030041060400C5E50300C5E503008D
:10012000C5E50300C5E50300C5E50300C5E503001B
:10013000C5E50300C5E50300C5E50300C5E503000B
:10014000C5E50300C5E50300C5E50300C5E50300FB
:10015000C5E50300C5E50300C5E50300C5E50300EB
:10016000C5E50300C5E50300C5E50300C5E50300DB
:10017000C5E50300C5E50300C5E50300C5E50300CB
:10018000C5E50300C5E50300C5E50300C5E50300BB
:10019000C5E50300C5E50300C5E50300C5E50300AB
:1001A000C5E50300C5E50300C5E50300C5E503009B
:1001B000C5E50300C5E50300C5E50300C5E503008B
:1001C000C5E50300C5E50300C5E50300C5E503007B
:1001D0005F4B4CF2205210B5DA814DF62812DA81CD
:1001E00000BF00BF3EF0F2F95A4B4FF030621A6385
:1001F000594A9A63594ADA634FF0E0234FF4700288
:10020000C3F8882D03F5E823554A1A60554B9A78B0
:10021000110703D59A7842F008029A70524B53485E
:10022000AA221A70524BDA1C121AC11E22F00302C3
:10023000994288BF00224F493EF0CEF84E4B4F48BE
:10024000DA1C121AC11E22F00302994288BF002252
:10025000002144F0D1FE4A494A484FF4E8723EF08A
:10026000BBF8494B494A802103F8011B9342FBD15B
:100270004FF0E023434AC3F8082D454B8A221A70F9
:10028000A3F5805324225A70A0221A709A799207FB
:10029000FCD59A79D406FCD43E4A937903F00C033A
:1002A000082BFAD1304B60225A70DA78802AFCD1C0
:1002B000384B01221A715D225A719A799006FCD549
:1002C0009A795106FCD5234A33495164002191643F
:1002D000202119702F498B7903F00C030C2BFAD1D4
:1002E0002E4B53602E4A136913F4807303D153616C
:1002F0004FF4A85313614FF0E0232A4A5A610022B9
:100300009A6107221A61284AC3F8202D62B63EF08E
:1003100031FA234B5B69DA0705D524483EF01EFA13
:10032000234B244ADA61244B1B785B0609D5204C09
:10033000204BE2699A4204D11C483EF00FFA002398
:10034000E3613EF049F945F08BFA3EF03DF8FEE7F7
:100350000020054000800440823F04000100002B83
:100360000300008500D0074000E007403007FF1F72
:10037000D00FFF1FF83705003825FF1FD00FFF1FD4
:10038000000000000002FF1F00E400E064E400E061
:10039000005006400040064000000602C010070062
:1003A00000D003401FBF02000000202044AD1369AD
:1003B00000E00340A5C3945A00F00740FFFFFFFF91
:1003C000FFFFFFFFFFFFFFFFFFFFFFFFFFFFFFFF3D
:1003D000FFFFFFFFFFFFFFFFFFFFFFFFFFFFFFFF2D
:1003E000FFFFFFFFFFFFFFFFFFFFFFFFFFFFFFFF1D
:1003F000FFFFFFFFFFFFFFFFFFFFFFFFFFFFFFFF0D
:10040000FFFFFFFFFFFFFFFFFFFFFFFFDEF9FFFF23
:100410000548064B1B1AD90F01EBA301491002D066
:10042000034B03B118477047D00FFF1FD00FFF1FBA
:100430000000000008B5054B1BB105490548AFF3A6
:100440000080BDE80840FFF7E3BF00BF00000000E8
:10045000D00FFF1FF037050000207047704700BF26
:10046000036D0BB101207047406D003818BF0120AB
:10047000704700BF00690B699842D4BF002001207B
:10048000704700BF80698B690028B8BF4042002BCD
:10049000B8BF5B429842D4BF00200120704700BF24
:1004A000036818470B680360704700BF0B68036060
:1004B000704700BF704700BFC36A00F12C0233B120
:1004C0000120D96A52F8043F0860002BF9D1704727
:1004D00010B50446806D18B142F0D2FE0023A3652A
:1004E000236D2BB104F11800BDE8104039F016BBA4
:1004F000636D002BF6D110BD10B510EE100A00216F
:10050000F2EE046AF0EE407ABDEEE77AB8EEC77A12
:10051000B4EE677AF1EE10FA04D00131062967EEE5
:10052000A67AF1D1144B1B68012B03D0032B17D0F3
:100530005BB110BDCCB242F033F841EC100B214658
:100540000E48BDE810403DF08BBACCB242F028F81E
:1005500041EC100B21460A48BDE810403DF080BA3E
:10056000CCB242F01DF841EC100B21460548BDE825
:1005700010403DF075BA00BF9807FF1FE007FF1F4E
:100580006008FF1F0808FF1F084B1B68012B01466E
:1005900003D0032B07D01BB1704705483DF00EBABE
:1005A00004483DF00BBA04483DF008BA9807FF1F15
:1005B000E007FF1F6008FF1F0808FF1F10B5044673
:1005C000806D00B110BD4FF4807042F051FEA06507
:1005D000B0B1236D002202703BB101464FF480722E
:1005E000184638F011FFA06D10BD636D002BE9D0E7
:1005F00001464FF48072184636F050FCA06D10BDD5
:100600000148A06510BD00BFE80FFF1F38B5056D9C
:100610006DB10BB1002038BD1146284637F04CFCB7
:100620000028F7D02846BDE8384037F0DDBD446DDE
:10063000002CEFD0204635F0EFF80028EAD0204615
:10064000BDE8384035F00ABF8A79A2F150031B0695
:1006500020D4F0B54B79046D0D798E784F780978F8
:10066000013385B002F26C72DBB244B103918DE8C4
:10067000E0000421204637F04BFD05B0F0BD406D91
:100680000028FAD003918DE8E000042135F036FE11
:1006900005B0F0BD0020704710B5036D82B00C4668
:1006A0002BB30DF1060201A9184637F01BF838B339
:1006B000BDF80430BDF8062053EA020120D0C2F391
:1006C000451C02F01F00D20AC3F343114000A27080
:1006D0005A0A0139207003F01F0302F5EA62012073
:1006E00084F801C023716171A27102B010BD406D28
:1006F00030B10DF1060201A934F028FF0028D7D14E
:10070000002002B010BD00BF10B5036D82B00C46D2
:100710002BB30DF1060201A9184636F0D3FF38B30A
:10072000BDF80430BDF8062053EA020120D0C2F320
:10073000451C02F01F00D20AC3F343114000A2700F
:100740005A0A0139207003F01F0302F5EA62012002
:1007500084F801C023716171A27102B010BD406DB7
:1007600030B10DF1060201A934F0DEFE0028D7D128
:10077000002002B010BD00BF70B50C460D1D461A1A
:10078000A0193DF073FD04F8010BAC42F8D170BD27
:1007900010B543EC102B04469DF808103DF060F9AD
:1007A0002046BDE810403DF037B900BF10B500232A
:1007B00004460A223DF048F92046BDE810403DF0CD
:1007C0002BB900BF10B504463DF01EF92046BDE828
:1007D00010403DF021B900BF69B170B5054608462B
:1007E0000C4645F08DFA2B680246214628465B6888
:1007F000BDE8704018477047006990B10368154A1A
:100800001B69934225D1036D63B1187810F008007D
:1008100007D0D8695B69C01A48BF6FF000407047C5
:1008200018467047436D002BFAD093F8310010F052
:100830000800F6D0186919685A695B68401A62EBBB
:100840000303B0F1004F73F10003EAD36FF00040EF
:1008500070471847ED0B0000036923B310B5196802
:10086000124A8C68944282B014D1186D48B10122AA
:100870000DF1070137F00EF990B19DF8070002B0B5
:1008800010BD586D0028F8D001220DF1070134F099
:10089000D7FEF1E701220DF107011846A047EBE76B
:1008A0004FF0FF30EBE74FF0FF307047D90A000000
:1008B00000B5006983B08DF8071060B10368104A75
:1008C000DB68934215D1036D43B101220DF107019D
:1008D000184637F0C3FC03B05DF804FB406D0028F8
:1008E000F9D001220DF1070135F02AFE03B05DF8C1
:1008F00004FB01220DF10701984703B05DF804FBEA
:10090000390C0000036963B11A68074992698A4289
:1009100008D1186D08B137F0F5BB586D08B135F046
:10092000A5BB704718461047290B0000036973B137
:100930001A68084952698A4207D1186D08B137F020
:100940007FB9586D18B134F04FBF184610474FF0BB
:10095000FF307047510A0000036D13B15869002140
:100960007047436D13B1D3E900017047184619462B
:10097000704700BF036D13B1D86900217047436D04
:1009800013B1D3E90401704718461946704700BFF8
:10099000F0B595B00022234F01924FF47A741831CC
:1009A000054604A8CDE9122202948DF80C20009788
:1009B00039F020F9129B002B29D05C203DF08CFEF1
:1009C000019BC360029B03619DF80C300375164BBD
:1009D00003600026154B83600446466004A9183066
:1009E00039F06EF84FF47A73AB606368104AA76011
:1009F0000133A6656E602A602E732C6163600D4B17
:100A0000009304A839F08AF8284615B0F0BD139B6E
:100A1000002BD2D1064A6B60AC602B732A602B612D
:100A2000EDE700BF0423050054230500BC220500A8
:100A300028230500E0220500836C13B1184637F027
:100A4000FFB8C06C08B134F0CFBE4FF0FF30704734
:100A5000036D13B1184637F0F3B8406D08B134F0A8
:100A6000C3BE4FF0FF307047036D33B11B7813F0F6
:100A7000700F14BF012000207047406D30B190F816
:100A8000313013F0500F14BF01200020704700BF19
:100A900010B50446006D80B1037813F0700F00D1DB
:100AA00010BD002137F008FA606D0028F8D0BDE8CD
:100AB00010400022002334F0AFBE606D0028EFD05C
:100AC00090F8313013F0500FEAD0BDE8104000220A
:100AD000002334F0A1BE00BF036D13B1184636F0F9
:100AE000D9BF406D08B134F0ABBD4FF0FF30704757
:100AF00000B5836C83B063B101220DF10701184684
:100B000036F0C8FF01280CD19DF8070003B05DF84E
:100B100004FBC06C28B101220DF1070134F090FDF7
:100B2000F0E74FF0FF30F1E7036D13B1184637F0EF
:100B3000E9BA406D08B135F099BA7047836C13B1CA
:100B4000184637F0DFBAC06C08B135F08FBA70477D
:100B50008A79A2F150031B0620D4F0B54B79046DBD
:100B60000D798E784F780978013385B002F26C7276
:100B7000DBB244B103918DE8E0000221204637F05A
:100B8000C7FA05B0F0BD406D0028FAD003918DE89A
:100B9000E000022135F0B2FB05B0F0BD0020704747
:100BA000836C53B1187810F008000DD0D8695B69D8
:100BB000C01A48BF6FF000407047C36CA3B193F8F0
:100BC000310010F0080000D17047186919685A699F
:100BD0005B68401A62EB0303B0F1004F73F100034E
:100BE000F2D36FF0004070471846EDE7036D53B144
:100BF000187810F008000DD0D8695B69C01A48BF9A
:100C00006FF000407047436DA3B193F8310010F0CE
:100C1000080000D17047186919685A695B68401A62
:100C200062EB0303B0F1004F73F10003F2D36FF0F6
:100C3000004070471846EDE7036D13B1184637F0D2
:100C40000DBB406D08B135F07BBC7047836C13B1B0
:100C5000184637F003BBC06C08B135F071BC704763
:100C600000B5836C83B08DF8071043B101220DF1FC
:100C70000701184637F0F2FA03B05DF804FBC06CC8
:100C80000028F9D001220DF1070135F059FC03B01D
:100C90005DF804FB0369D3B110B41C680D48E46827
:100CA00084420FD1186D18B15DF8044B37F0D6BAF5
:100CB000586D18B15DF8044B35F042BC00205DF86A
:100CC000044B7047184623465DF8044B1847002034
:100CD000704700BF390C000038B50446806D0C4BDE
:100CE000236018B142F0CCFA0023A365236D04F110
:100CF00018054BB1284638F011FF064BA360284673
:100D000038F00CFF204638BD636D002BF2D1F4E7BC
:100D100054230500E022050038B50446806D0E4BD3
:100D2000236018B142F0ACFA0023A365236D04F1EF
:100D300018056BB1284638F0F1FE084BA360284631
:100D400038F0ECFE20465C213DF0CAFC204638BD60
:100D5000636D002BEED1F0E754230500E02205007F
:100D6000F0B4846DA36A01261E60626823681A4489
:100D7000036B626000F1300C93B15A69002A08DB02
:100D80009A6A166059681F6825695A69394459601A
:100D9000521B1969114459615CF8043F002BECD1D6
:100DA000436A124A816900251560DB00556803F12A
:100DB000804303F56033294419610D211160DA681D
:100DC000C16E22F080025025DA60DD6019B96268D8
:100DD000E3689A4201D0F0BC7047C36D012280F8ED
:100DE0002820002BF7D0F0BC184700BF008003403C
:100DF00030B4029C11469C4634B1012C1CD0022C0C
:100E00000ED0002030BC7047056DF5B14FF0FF33B8
:100E1000934274EB0C04F4D3284630BC37F04CB842
:100E2000026D0AB3D36959184CF10003002BE8D1C5
:100E300030BC104637F040B8026D62B153695918A2
:100E40004CF10003002BDCD1F2E7406D0028D8D034
:100E500030BC34F0E1BC406D0028D2D0D0E9002392
:100E60008A184CEB0303F3E7406D0028C9D0D0E9A2
:100E700004238A1830BC4CEB030334F0CDBC00BF14
:100E800038B5044649B108460D4644F039FF236899
:100E900002465B682946204698472046BDE8384010
:100EA0003CF0BABD826D836F10B504465068D4F82B
:100EB000AC101B1A002BB8BF5B428B4216DBD4F878
:100EC000B00083420BDBE16FCB1A5168106800FB66
:100ED0000313D360D168536899420FD010BD0B44FF
:100EE0000020E367C4F8B0000B46EEE7002158008D
:100EF000C4F8B010C4F8AC10E067E6E704F10C00E9
:100F00003CF060FC0023206AA3603BF051FE606A65
:100F1000BDE810403BF04CBE08B5374A374BD2ED28
:100F2000017AD3ED006A9FED366A364BF8EEE66A39
:100F30005B6C86EE267A013BF8EEE77A2DED028BAC
:100F400027EE277A032B53D8DFE803F04C46400204
:100F50002D4B93ED018AB8EEC88A2C4BDFED280AA1
:100F600093ED000A27EE000A40F08EFA40F0D2FA24
:100F7000274B284993ED007A274B0022F0EE487A60
:100F8000D0EE077A83F8902091ED007A72B6DFED0B
:100F9000236A93ED206AC7EEA65AB8EEC77AD3ED5E
:100FA0001F6AC5EE877A67EE867AF4EEE67AC3EDBD
:100FB0001E7AD3ED227AF1EE10FAD8BFF1EE677AFD
:100FC000C3ED237A62B6BDEC028B08BD144B93EDE2
:100FD000018AB8EEC88AC0E7124B93ED018AB8EED9
:100FE000C88ABAE7104B93ED018AB8EEC88AB4E715
:100FF0009FED0E8AB1E700BF5018FF1F9018FF1F2A
:10100000DB0FC9402413FF1F7417FF1FD816FF1FE3
:101010001C17FF1FFC16FF1FDC14FF1FCDCCCC3CA0
:101020003417FF1FB417FF1FF417FF1F0000000045
:10103000036A8B4210B5044623D0C3698B4200D0AB
:1010400010BD8369002BFBD072B6204AC369A16929
:1010500000201060DB00506803F1804303F560332B
:10106000014419610D211160DA68502122F08002DB
:10107000DA60D96062B620690368BDE810405B6839
:1010800018470069124A03689B6893421BD1C36AE0
:101090002C3033B10121DA6A50F8043F1160002B83
:1010A000F9D194F82430002BCAD004F108003CF0A8
:1010B00089FB0023E06963603BF07AFD206ABDE8AC
:1010C00010403BF075BD9847EBE700BF0080034040
:1010D000B904000070B50569234B03600446002D78
:1010E00032D06E68013E6E6076BB2B681F4ADB6AA9
:1010F00093422FD1A86D10B142F0C2F8AE652B6DAE
:1011000023B305F1180038F009FD2569E5B12B6816
:10111000174A5B68934224D1A86D164B2B6018B117
:1011200042F0AEF80023AB652B6D05F11806A3B1B4
:10113000304638F0F3FC104BAB60304638F0EEFC34
:101140005C2128463DF0CCFA204670BD6B6D002B2B
:10115000D7D1DAE728469847D7E76B6D002BE7D160
:10116000E9E728469847EFE728230500D104000067
:10117000190D000054230500E022050070B5056933
:10118000254B03600446002D32D06E68013E6E6030
:1011900076BB2B68214ADB6A934233D1A86D10B12C
:1011A00042F06EF8AE652B6D43B305F1180038F0D0
:1011B000B5FC2569E5B12B68194A5B68934228D1D3
:1011C000A86D184B2B6018B142F05AF80023AB659C
:1011D0002B6D05F11806C3B1304638F09FFC124B59
:1011E000AB60304638F09AFC5C2128463DF078FA36
:1011F000204614213DF074FA204670BD6B6D002B23
:10120000D3D1D6E728469847D3E76B6D002BE3D1BF
:10121000E5E728469847EBE728230500D1040000BE
:10122000190D000054230500E022050070B5066981
:101230007568013D0446756075BB33681F4ADB6AFB
:1012400093422CD1B06D10B142F01AF8B565336DF0
:1012500063B306F1180038F061FC2569E5B12B682D
:10126000174A5B68934225D1A86D164B2B6018B1C5
:1012700042F006F80023AB652B6D05F118068BB123
:10128000304638F04BFC104BAB60304638F046FC33
:101290005C2128463DF024FA0023236170BD3046CE
:1012A0009847DAE76B6D002BEAD1ECE7736D002B02
:1012B000CFD1D2E728469847EEE700BFD10400001F
:1012C000190D000054230500E0220500F0B5012BA4
:1012D00095B0054638D0022B40F202200CBF0346E1
:1012E00000230431684638F031FD129B002B34D0C6
:1012F0005C203DF0F1F91F4B0026C0E90036019B50
:10130000C3601D4B8360029B036104AF9DF80C30EA
:10131000037504463946183038F0D2FB174BA360EA
:101320004FF47A73AB606368154AA66501336E604B
:101330002A602E732C616360124B0093384638F09C
:10134000EDFB284615B0F0BD44F202230431684697
:1013500038F0FCFC129B002BCAD1139B002BC7D189
:10136000074A6B604FF47A71A9602B732A602B6176
:1013700004AFE1E754230500BC2205000423050067
:1013800028230500E022050070B54368044621B318
:101390009A6812F0020216D0204A18689042204A39
:1013A0002ED9B2FBF1F15A68A0EB020C61451AD3B9
:1013B0000A44121A002401209C60D86003201A609D
:1013C0009860196070BD012403209A60DC60144AA3
:1013D000B2FBF1F21A60986070BDABB19A6822F06E
:1013E00002029A6070BD20690268002501249D6098
:1013F0001268DC60032419609C60BDE870401047EF
:10140000B2FBF1F21A6070BD064A1268002AE5D0FC
:101410000221012090476368E0E700BF7FA9030035
:10142000008793038C1EFF1FD0ED1F7A90ED1E7A6C
:10143000836DF4EE477AF1EE10FA70B55A680446FF
:101440004DD0D0ED236AF5EEC06A77EEA67AF1EEC4
:1014500010FAB4EEE77A3CDDF1EE10FAD8BFF0EE08
:10146000477ABDEEE77AC4ED1F7A17EE105A94F86A
:1014700090200AB1002D37D09A68AA4228D01A6865
:10148000002DACBF01234FF0FF339A4217D0E36A1F
:1014900073B104F12C0101261A6850420132186020
:1014A0000CBF1B6B5B6B1E6051F8043F002BF3D12C
:1014B000636FC3EB03139B0001D0013BFDD185EAB1
:1014C000E571A1EBE571201DFFF75EFFA36D9D6047
:1014D00070BDF1EE10FA58BFF0EE477AC1E7FDEEAD
:1014E000C77A17EE905AC2E704F10C003CF06AF993
:1014F000206AA5603BF05CFB606A3BF059FBA26D83
:10150000E36D956084F89050002BE1D0BDE8704009
:10151000184700BF8368EBB1826D836F5168D0F8C4
:10152000AC2010B55B1A002BB8BF5B4293422DED87
:10153000028B00F104040EDBD0F8B020934236DBBE
:10154000C26F934228DB00212046FFF71DFFBDEC50
:10155000028B10BD7047D0ED2A8AD0E92401F8EE45
:10156000688A07EE903AB8EEE78A41F089FC00EE0F
:10157000100AA8EE880AB5EE400AF1EE10FA1ED461
:10158000F1EEC07A2046FDEEE77A17EE901AFFF7EB
:10159000FBFEBDEC028B10BDD0ED2A8AD21A013AB7
:1015A000D0E92601F8EE688A07EE902ADBE7D0F84A
:1015B00088102046FFF7E8FEBDEC028B10BD3FF01F
:1015C00087FFF0EE407ADDE72DE9F041C46A96B07E
:1015D0000546002C66D02368984A1B6B93425CD169
:1015E000236D002B00F0F2802368954FDB6ABB422D
:1015F00040F00C81A06D18B141F042FE0023A365BC
:10160000236D002B00F0FA8004F1180038F086FA00
:10161000EE6A7468013C7460002C40F0E880336826
:10162000DB6ABB4240F00681B06D10B141F028FE8C
:10163000B465336D002B00F0F88006F1180038F027
:101640006DFAEC6A002C00F0D28023687D4A5B685A
:10165000934240F0CA80A06D7B4B236018B141F0EB
:101660000FFE0023A365236D04F11806002B00F084
:10167000D080304638F052FA744FA760304638F0C8
:101680004DFA5C2120463DF02BF8AA7E0023012A6A
:10169000EB620BD144F202230DE02046984700286C
:1016A00040F0A780AA7E694F012AF3D0022A40F2B7
:1016B000022318BF002366492A4602A838F046FBD9
:1016C000149B002B73D05C203DF006F85E4B002687
:1016D000C0E90036039BC3605E4B8360049B0361DB
:1016E00004469DF81430037506A9183038F0E8F95F
:1016F0006368A66501336360574BA36006A8029731
:1017000038F00CFAEE6A002E4FD07368013B73601C
:101710000193002B30D132684949D26A8A4272D192
:10172000B06D18B141F0ACFD019BB365336D002B7A
:1017300057D006F1180038F0F1F9EE6AE6B13368D7
:10174000404A5B6893426DD1B06D3F4B336018B136
:1017500041F096FD0023B365336D06F11808002BA8
:101760005CD0404638F0DAF9B760404638F0D6F938
:101770005C2130463CF0B4FFEC6284B123682F4A10
:101780001B6B934207D1236DE3B100230120EB765D
:1017900016B0BDE8F081204698470028F5D1012316
:1017A0000020EB7616B0BDE8F081EC62E6E7159C10
:1017B000002C88D106A8029738F0B0F9EE6A002E06
:1017C000A3D1ECE7636D002BDFD1E8E7636D002B5D
:1017D0003FF468AF23681A4FDB6ABB423FF40AAF9D
:1017E00014E0736D002BA4D1A7E720469847174F4C
:1017F0004BE7EC6A002C3FF455AFF5E6636D002B28
:101800007FF402AF04E73046904796E720469847BA
:10181000FEE6636D002B7FF42CAF2DE7736D002B7C
:101820009FD1A1E730469847A6E7736D002B7FF460
:1018300004AF06E73046984703E700BF61040000A5
:10184000D1040000190D000054230500E02205001A
:10185000A418FF1FBC2205000423050010B5394C55
:1018600039480E213FF0C6FB542120463CF0CCF80D
:1018700020463CF0D1F80F2134483FF0BBFB50210B
:1018800020463CF0C1F820463CF0C6F81021304814
:101890003FF0B0FB4FF4847120463CF0B5F8204691
:1018A0003CF0BAF80F212B483FF0A4FB70212046F2
:1018B0003CF0AAF820463CF0AFF80F2126483FF054
:1018C00099FB602120463CF09FF820463CF0A4F8AC
:1018D000102122483FF08EFBA02120463CF094F8D6
:1018E00020463CF099F812211D483FF083FB482127
:1018F00020463CF089F820463CF08EF81321194828
:101900003FF078FB6C2120463CF07EF820463CF00E
:1019100083F8102114483FF06DFB342120463CF041
:1019200073F820463CF078F80C2110483FF062FB39
:10193000204610213CF068F82046BDE810403CF0FD
:101940006BB800BF6008FF1F78BE040088BE0400AB
:1019500098BE0400ACBE0400BCBE0400CCBE0400B3
:10196000E0BE0400F4BE040008BF04001CBF040075
:1019700007EE901AB8EEE77A07EE900AF8EEE77AEB
:1019800010B587EE270A2DED028BDFED276A84B0B4
:1019900020EE260A3FF0FAFD244BF7EE007A1B6892
:1019A000B4EEE70AF1EE10FAA3F10303B0EE408AB9
:1019B00001AC48BFB1EE408A082B10D8DFE803F035
:1019C00026280F2A2C2E30320500194920463CF0DB
:1019D00023FA2046FEF7D8FD20463CF075FAB0EE1B
:1019E000480AFEF789FD134B204619683CF014FAAB
:1019F0002046FEF7C9FD20463CF066FAFDEEC87AA7
:101A000017EE900A04B0BDEC028B10BD0A49DDE769
:101A10000A49DBE70A49D9E70A49D7E70A49D5E77E
:101A20000A49D3E70A49D1E70000C8428807FF1FE7
:101A30002CBF04008007FF1F48BF040064BF0400E0
:101A40007CBF040094BF0400ACBF0400C4BF04000A
:101A5000E0BF040010B5092121483FF0CBFA21482E
:101A60003BF0DAFF2048FE2133F0C8FAB0B11F4C3A
:101A70001F480123092123603FF0BCFA19483BF0BD
:101A8000CBFF0C211B483FF0B5FA216815483BF00D
:101A9000BBFFBDE8104013483BF0BEBF12480A210F
:101AA00033F0ACFA48B1114C13480A2121603FF0E1
:101AB000A1FA0C483BF0B0FFE3E70B48092133F0F3
:101AC0009DFA10B9094C2060DBE7084C0B4809214E
:101AD00021603FF08FFA03483BF09EFFD1E700BF43
:101AE000F8BF04006008FF1FA018FF1FF016FF1FBB
:101AF00004C0040028C0040010C004001CC004007E
:101B00002DE9F041064686B00F4690463AB1B34BF8
:101B1000D3F8E040012C00F047814FF00008B04CB2
:101B200023680193019D23680093009B5B1B092B95
:101B3000F9D9042E00F22482DFE816F05E000701D6
:101B4000A800D8000500A74DA748D5F8906014213B
:101B50003FF050FAA54806F001013BF055FFA348BD
:101B60003BF05AFF002F00F09E819C4E96F8A0108B
:101B70000F2081F001013CF079FE96F8A030002B97
:101B800000F0C9810123C5F88830994903A83CF0C9
:101B900043F903A8FEF7F8FC03A83CF095F9954932
:101BA00003A83CF039F903A8FEF7EEFC03A83CF0CB
:101BB0008BF9914816213FF01DFA8C483BF02CFF21
:101BC000884B8E48D3F8905011213FF013FA0F2123
:101BD00086483BF019FF85483BF01EFF05F00105E4
:101BE000112187483FF006FA294680483BF00CFF58
:101BF0007E483BF011FF38E0002F00F03881774B32
:101C000093F89C10042081F001013CF02FFE7D49E7
:101C100003A83CF001F903A8FEF7B6FC03A83CF0CA
:101C200053F9744903A83CF0F7F803A8FEF7ACFC9D
:101C300003A83CF049F96B4B71481D691121C5F3AC
:101C400040353FF0D7F9294668483BF0DDFE67484C
:101C50003BF0E2FE16216C483FF0CCF963480421CA
:101C60003BF0D2FE61483BF0D7FE112164483FF0C3
:101C7000C1F95E4829463BF0C7FE5C483BF0CCFE0C
:101C8000002F40F09D8006B0BDE8F081002F00F0ED
:101C9000DD80524B93F89E10162081F001013CF03C
:101CA000E5FD5A4903A83CF0B7F803A8FEF76CFC21
:101CB00003A83CF009F94F4903A83CF0ADF803A88C
:101CC000FEF762FC03A83CF0FFF8464B5048D3F8FF
:101CD000905010213FF08EF9162144483BF094FEBD
:101CE0004248C5F340053BF097FEBEE7002F00F0E9
:101CF00003813A4B93F89F10112081F001013CF0D1
:101D0000B5FD444903A83CF087F803A8FEF73CFC66
:101D100003A83CF0D9F8374903A83CF07DF803A8A4
:101D2000FEF732FC03A83CF0CFF82E4B3A481D6D6D
:101D300011213FF05FF911212C483BF065FE2B4843
:101D4000C5F340053BF068FE8FE7002F6ED0234BB4
:101D500093F89D100E2081F001013CF087FD2F4982
:101D600003A83CF059F803A8FEF70EFC03A83CF0CA
:101D7000ABF8204903A83CF04FF803A8FEF704FC99
:101D800003A83CF0A1F8174B2548D3F8D0501021F8
:101D90003FF030F90E2115483BF036FE1348C5F3ED
:101DA00040053BF039FE60E710211E483FF022F964
:101DB00021460E483BF028FE0C483BF02DFEAEE6D7
:101DC0002268194B03921968039A23680293029BB5
:101DD0009B1A9942F9D806B0BDE8F0818413FF1F21
:101DE0003C1FFF1F00F00F40B8C104006008FF1F38
:101DF000D0C104006CC00400F0C1040058C204004B
:101E000090C004004CC00400A4C0040010C1040031
:101E100050C1040064C10400A4C10400BCC004009B
:101E2000FCC0040038C004006C07FF1FB8F1000FAD
:101E3000A9D1544BD3F8E82093F89D10002A40F024
:101E40009B800E203CF012FD4F4989E7B8F1000F4E
:101E50007FF43BAF4B4BD3F8EC2093F89E10002A55
:101E600040F0868016203CF001FD48491AE7B8F1A1
:101E7000000F7FF4E0AE434BD3F8E42093F89C10BE
:101E8000002A6DD104203CF0F1FC414903A83BF04D
:101E9000C3FF03A8FEF778FB03A83CF015F83D4B01
:101EA00003A81968BFE6B8F1000F7FF489AE354B7F
:101EB000D3F8F42093F8A0108ABB0F203CF0D6FC96
:101EC000354903A83BF0A8FF03A8FEF75DFB03A874
:101ED0003BF0FAFF314903A83BF09EFF03A8FEF751
:101EE00053FB03A83BF0F0FF16212D483FF082F88A
:101EF0002C483BF091FD63E6B8F1000F7FF415AF7D
:101F0000204BD3F8F02093F89F106ABB11203CF0CF
:101F1000ADFC2549F6E60123C5F8843035E681F0AD
:101F200001010F203CF0A2FC204903A83BF074FF04
:101F300003A8FEF729FB03A83BF0C6FF174903A837
:101F40003BF06AFF03A8FEF71FFB03A83BF0BCFFB2
:101F5000162117483FF04EF812483BF05DFD2FE682
:101F600081F00101042050E681F001011120C6E654
:101F700081F00101162092E681F001010E20ECE6CD
:101F8000002572E68413FF1FDCC0040030C104008A
:101F900070C004008007FF1F08C204006CC004006A
:101FA00028C204006008FF1F84C10400D0C10400DF
:101FB00040C204002DE9F0472DED028B84B00023D0
:101FC000644EDFF8B4A1DFF8B491019304460293A4
:101FD000ADF80C30984601A843F092FE014601A8E6
:101FE0003FF008F830463BF017FD236820465B6958
:101FF00098470021074650463EF0FCFF30463BF034
:102000000BFD242148463EF0F5FF414630463BF0AB
:10201000FBFCFDB2042150483EF0ECFF28463FF0A7
:102020006FF802214D483EF0E5FF294630463BF06F
:10203000EBFC30463BF0F0FC7F2D7AD03A064ED4D4
:102040006B1E0B2B04D841F21203EB40DB077ED44E
:1020500008F110036B4401A803F80C5C43F050FE38
:10206000014601A83EF0C6FF08F1010830463BF0EA
:10207000D3FCB8F10A0FAED101A841F0F5F851EC4C
:10208000100B40F0DDFD40F08BFA02460B46344861
:10209000042143EC182B3EF0ADFF01A843F030FEC5
:1020A000014601A83EF0A6FF2A483BF0B5FC0821F6
:1020B0002C483EF09FFFB0EE480AF0EE680A04217B
:1020C00024483BF0CDFC23483BF0A6FCB0EE480A88
:1020D000F0EE680A04B0BDEC028BBDE8F087FF2D7E
:1020E000B6D114212048214F1A4E3EF083FF01A89B
:1020F00043F006FE014601A83EF07CFF15483BF088
:102100008BFC0DE023685B6998471C210546384627
:102110003EF070FFE8B23EF0F3FF30463BF07CFC4F
:10212000236820461B6998470346002B2046E9DCBC
:10213000A2E70F481B213EF05DFF414630463BF0D1
:1021400063FC30463BF068FC4FF0000843E7094869
:102150001921F0E76008FF1F94C204002CC304009B
:102160000CC3040014C30400B8C20400D0C20400AD
:10217000F0C204009CC20400E82605006CC2040002
:10218000012805D0032809D028B19FED070B70471F
:102190000748FFF70FBF0748FFF70CBF0648FFF7D8
:1021A00009BF00BFAFF30080000000000000F0BFD7
:1021B000E007FF1F6008FF1F0808FF1F70B5254CD0
:1021C0002368012B37D0032B3FD0002B38D00025BC
:1021D0002E460E2120483EF00DFF30463EF090FF87
:1021E0001E483BF019FC3CF0A1FF00280CDD2368E1
:1021F000012B1DD0032B18D0002BF4D13EF08CFE08
:102200003CF094FF0028F2DC3EF006F80028EEDCFB
:10221000042113483EF0EEFE294610483BF0F4FB43
:102220000E483BF0F9FB284670BD3EF009F8DAE7AE
:102230003CF090FFD7E73CF08DFFC6B23546C8E7CB
:102240003EF06AFEC6B23546C3E73DF0F9FFC6B2BE
:102250003546BEE79807FF1F20C304006008FF1F34
:1022600030C3040038B5434DDFED437AAA6BEB6B06
:1022700095ED107A4148424C02FB03F32DED048B9F
:1022800008EE103AB8EE488A95ED129A28EE078AC1
:102290000D2129EE279AF0EE408A3EF0ABFE18EEB3
:1022A000100A40F07DF941EC100B022120463BF072
:1022B000D7FB20463BF0B0FB112132483EF09AFE9E
:1022C000286C40F06DF941EC100B022120463BF0E8
:1022D000C7FB20463BF0A0FB0F212B483EF08AFEB7
:1022E000C8EE899A19EE100A40F05AF941EC100B29
:1022F000022120463BF0B4FB20463BF08DFB102131
:1023000022483EF077FE18EE900A40F049F941EC81
:10231000100B022120463BF0A3FB20463BF07CFB48
:1023200007211B483EF066FE19EE900A40F038F98E
:1023300041EC100B022120463BF092FB20463BF083
:102340006BFB28EE298A082112483EF053FE18EE56
:10235000100A40F025F941EC100B022120463BF019
:102360007FFB20463BF058FBB0EE480ABDEC048BE7
:1023700038BD00BF8413FF1FDB0FC94038C3040002
:102380006008FF1F48C304005CC304006CC3040062
:1023900080C3040014C3040038B5434DDFED437A15
:1023A000AA6DEB6D95ED187A4148424C02FB03F3A0
:1023B0002DED048B08EE103AB8EE488A95ED1A9A86
:1023C00028EE078A0D2129EE279AF0EE408A3EF08A
:1023D00011FE18EE100A40F0E3F841EC100B022158
:1023E00020463BF03DFB20463BF016FB13213248D4
:1023F0003EF000FE286E40F0D3F841EC100B0221B5
:1024000020463BF02DFB20463BF006FB0F212B48DE
:102410003EF0F0FDC8EE899A19EE100A40F0C0F8BF
:1024200041EC100B022120463BF01AFB20463BF00A
:10243000F3FA102122483EF0DDFD18EE900A40F03C
:10244000AFF841EC100B022120463BF009FB20467F
:102450003BF0E2FA07211B483EF0CCFD19EE900A52
:1024600040F09EF841EC100B022120463BF0F8FAB8
:1024700020463BF0D1FA28EE298A082112483EF086
:10248000B9FD18EE100A40F08BF841EC100B022158
:1024900020463BF0E5FA20463BF0BEFAB0EE480A93
:1024A000BDEC048B38BD00BF8413FF1FDB0FC94098
:1024B00038C304006008FF1F88C304005CC3040025
:1024C0006CC3040080C3040014C304001D4A1E48EA
:1024D00092ED117AD36B926BC0EE077A10B502FBC6
:1024E00003F30A21194C2DED028B08EE103AB8EED9
:1024F000488AF0EE408A28EE278A3EF07BFD18EEEF
:10250000900A40F04DF841EC100B022120463BF0C0
:10251000A7FA20463BF080FA1A210D483EF06AFDEA
:1025200018EE100A40F03CF841EC100B0221204656
:102530003BF096FA20463BF06FFAB0EE480ABDEC4D
:10254000028B10BD8413FF1F9CC304006008FF1F93
:10255000A8C304001D4A1E4892ED197AD36D926DEE
:10256000C0EE077A10B502FB03F30A21194C2DEDDA
:10257000028B08EE103AB8EE488AF0EE408A28EE58
:10258000278A3EF037FD18EE900A40F009F841EC3A
:10259000100B022120463BF063FA20463BF03CFA48
:1025A0001A210D483EF026FD18EE100A3FF0F8FF04
:1025B00041EC100B022120463BF052FA20463BF042
:1025C0002BFAB0EE480ABDEC028B10BD8413FF1F3E
:1025D0009CC304006008FF1FC4C304000138032823
:1025E00009D8DFE800F013230B02254B5B6D002BAD
:1025F00044D0012B3ED09FED230A7047204B5B6BEC
:10260000002B39D0012BF6D1FFF760BF1C4A92EDA9
:10261000057A1369D268C0EE077A02FB03F300EE75
:10262000103AB8EE400A20EE270A7047144AD2F852
:10263000CC3073B992ED0A7A536A126AC0EE077A07
:1026400002FB03F300EE103AB8EE400A20EE270A30
:10265000704792ED367AD2F8D430D2F8D020C0EE5E
:10266000077A02FB03F300EE103AB8EE400A20EEC0
:10267000270A7047FFF76EBFFFF7F4BDFFF78CBE68
:102680008413FF1F0000000038B5204C204D2DEDB5
:10269000068B94ED009AD5ED009AB5EEC09AF1EE56
:1026A00010FAF5EEC09A48BFB1EE499AF1EE10FA71
:1026B00048BFF1EE699A29EEA90A08EE100AA9EEC0
:1026C000090A08EE901AB5EE400AF1EE10FA18D495
:1026D000B1EEC0AA8AEE290AF8EEE88AB8EEC88AF6
:1026E00028EE800A3EF09AFFCAEE097A85ED000ACC
:1026F00028EE270A3EF092FFBDEC068B84ED000A1F
:1027000038BD3EF0E5FEB0EE40AAE3E7C816FF1F75
:10271000C416FF1F38B5384B1B68013B0A2B5DD828
:10272000DFE803F05D294F5C5C060606063C2900E5
:10273000324B334D1868334CFFF722FD51EC100B30
:1027400040F036FA304A3149D062034609686B617D
:102750001046502263643BF0A3FD2D4B28461968B8
:1027600070223BF09DFD2B4B204619686C22BDE882
:1027700038403BF095BD214B274C1868FFF700FD12
:1027800051EC100B40F014FA24490346A0220968CA
:1027900063612046BDE838403BF082BD174B204CBA
:1027A0001868FFF7EDFC51EC100B40F001FA1D49E1
:1027B0000346A36220460968BDE8384060223BF02A
:1027C0006FBD0E4B184C1868FFF7DAFC51EC100B7C
:1027D00040F0EEF9154903463422D8E738BD074BDF
:1027E000134C1868FFF7CCFC51EC100B40F0E0F9EB
:1027F000104903464822CAE78807FF1F9807FF1FB2
:10280000B412FF1F8810FF1F8C14FF1F6807FF1FE3
:102810006007FF1F3807FF1F1412FF1F5C07FF1F11
:102820002413FF1F6407FF1F4411FF1F5007FF1FE2
:102830007811FF1F5407FF1F38B51521A448A54C78
:102840003EF0D8FBA4483BF0E7F80E21A3483EF049
:10285000D1FB2168A0483BF0D7F89F483BF0DCF85B
:102860002368013B0A2B07D8DFE803F07A133D55B4
:10287000060707070727130038BD994C2368013B5B
:10288000032B00F28D80DFE813F0E800DA007E0011
:10289000CC00944B1868FFF773FC51EC100B40F020
:1028A00087F9914AD36E042B00F28F80DFE813F092
:1028B000E900E700E500E3008C008C4C636C012B21
:1028C00000F05E81022B00F06581032B00F06C812B
:1028D000042B00F07381864B844819686022BDE8A0
:1028E00038403BF0DDBC834C2368032B00F03E8175
:1028F000042B08D17B4B1868FFF742FC51EC100BFE
:1029000040F056F9E0617C4B7A4819683422BDE802
:1029100038403BF0C5BC794C2368013B0D2BABD84C
:1029200001A252F823F000BF492B0000252B000024
:10293000AB2A0000872A00007928000079280000CF
:102940007928000079280000792800007928000003
:10295000492B0000252B0000AB2A0000872A00002D
:10296000604B674D1868FFF70BFC51EC100B40F003
:102970001FF9EB6B013B0446032B3FF67DAFDFE80D
:1029800003F0473E352C574B1868FFF7F9FB51EC25
:10299000100B40F00DF95B4A5B4BA06310621865A9
:1029A0005A4B4F48196850223BF07AFC584B554817
:1029B000196870223BF074FC564B534819686C221E
:1029C000BDE838403BF06CBC5062534B4648196838
:1029D000A022BDE838403BF063BC504B6C621968E4
:1029E0004748BDE8384048223BF05ABC4B4B2C626C
:1029F00019684348BDE8384048223BF051BC474B7A
:102A0000EC6119683E48BDE8384048223BF048BCBC
:102A1000424BAC6119683A48BDE8384048223BF067
:102A20003FBC304B1868FFF7ABFB51EC100B40F08C
:102A3000BFF8344A344BE06350625865B0E7294B25
:102A40001868FFF79DFB51EC100B40F0B1F82D4AD0
:102A50002D4B6063D061D864A2E7224B1868FFF762
:102A60008FFB51EC100B40F0A3F8264A264B206355
:102A70009061986494E71062A7E7D061A5E7906140
:102A8000A3E75061A1E7174B1868FFF779FB51ECFA
:102A9000100B40F08DF8224A034611682363174853
:102AA000BDE8384054223BF0FBBB0E4B1868FFF7E3
:102AB00067FB51EC100B40F07BF8194A0346116894
:102AC00063620E48BDE8384054223BF0E9BB00BFCA
:102AD000E0C304008807FF1F6008FF1FF8C304005D
:102AE0008C14FF1F9807FF1F1412FF1F2413FF1FD2
:102AF0006407FF1F4411FF1F5007FF1FC011FF1F76
:102B00007811FF1FB412FF1F8810FF1F6807FF1FF7
:102B10006007FF1F3807FF1F5C07FF1F5407FF1FD9
:102B20005807FF1F2A4B1868FFF72AFB51EC100BC0
:102B300040F03EF8274A03461168A3612648BDE8E5
:102B4000384054223BF0ACBB214B1868FFF718FB10
:102B500051EC100B40F02CF81E4A03461168E3605C
:102B60001D48BDE8384054223BF09ABB184B18680A
:102B7000FFF706FB51EC100B40F01AF8A061C2E61B
:102B8000134B1868FFF7FCFA51EC100B40F010F8EB
:102B9000E062A0E60E4B1868FFF7F2FA51EC100B5A
:102BA00040F006F8206396E6094B1868FFF7E8FA4C
:102BB00051EC100B3FF0FCFF60638CE6044B18688F
:102BC000FFF7DEFA51EC100B3FF0F2FFA06382E654
:102BD0009807FF1F5807FF1FC011FF1F564A10B567
:102BE0001368516801FB03F307EE903A2DED028B59
:102BF000F8EE677AB0EE408A92ED020A27EE800A7C
:102C000004463EF00BFD601EFDEEC07A042800F283
:102C10009080DFE800F01B392A480300474B1A6810
:102C200083ED038A012A4DD0F8EEE77A87EE887AA1
:102C3000BCEEC77A424A4148116883ED027ABDEC86
:102C4000028B1022BDE810403BF02ABB3D4B1A68B6
:102C500083ED038A012A40D0F8EEE77A87EE887A7E
:102C6000BCEEC77A384A3748E6E7384B1A6883ED36
:102C7000038A012A47D0F8EEE77A87EE887ABCEE1D
:102C8000C77A334A3148D7E7324B1A6883ED038A53
:102C9000012A2DD0F8EEE77A87EE887ABCEEC77A63
:102CA0002D4A2C48C8E72D4B1A6883ED038A012A68
:102CB00034D0F8EEE77A87EE887ABCEEC77A284AF5
:102CC0002648B9E7DFED276A88EE267AF8EEE77A3C
:102CD00067EE877ABCEEE77AACE7DFED226A88EE32
:102CE000267AF8EEE77A67EE877ABCEEE77AB9E7FC
:102CF000DFED1C6A88EE267AF8EEE77A67EE877ACF
:102D0000BCEEE77ACCE7DFED176A88EE267AF8EEBC
:102D1000E77A67EE877ABCEEE77AB2E7DFED116A11
:102D200088EE267AF8EEE77A67EE877ABCEEE77AE5
:102D3000C5E7BDEC028B10BD8413FF1F3411FF1FCC
:102D40004C07FF1FF410FF1F3C07FF1F1411FF1F4C
:102D50004407FF1F0411FF1F4007FF1F2411FF1F1F
:102D60004807FF1F0000B44370B5192186B04248E0
:102D7000424D3EF03FF942483AF04EFE414B424A46
:102D8000D5F80001414900241C60414B14601C60CF
:102D9000404A414B14605C60404A414B54605C6067
:102DA000404A414B54605C60404B414A1C60414B7F
:102DB00014601C60404A414B14601C60404A414B07
:102DC00014601C60404A414B14601C70404A0C6007
:102DD000A0F10A031D2B147036D90A213D483EF09C
:102DE00009F9D5F80011264800230A223AF02CFEF2
:102DF00023483AF011FE384A136802930299136887
:102E00000193019B5B1A092BF9D9344903A83BF0C4
:102E100003F803A8FDF7B8FB03A83BF055F8304BC7
:102E200003A819683AF0F8FF03A8FDF7ADFB03A863
:102E30003BF04AF82A212B483EF0DCF8104806B057
:102E4000BDE870403AF0E8BD2146C0B23BF00EFD4F
:102E500095F800013BF040FD0A21064622483EF06D
:102E6000C9F823460A22314605483AF0EDFD0448E8
:102E70003AF0D2FDB1E700BF08C404008413FF1F7D
:102E80006008FF1F6C16FF1F6816FF1F6416FF1FE8
:102E90005C16FF1F6016FF1FF417FF1FB417FF1FFC
:102EA0003417FF1F7417FF1F5018FF1F3818FF1F1C
:102EB0003418FF1F4018FF1F3C18FF1F9C07FF1FFF
:102EC0004418FF1F3017FF1F3407FF1F4416FF1F52
:102ED000E016FF1F30C404003C1FFF1F3CC4040069
:102EE0008007FF1F58C4040024C4040008B53CF048
:102EF0001DF900280ADD234B1B68012B0CD0032B86
:102F000038D063B1204B0020187008BD3DF084F923
:102F10001C4B1B68012BF2D13CF01CF901E03DF089
:102F2000FBFFC0B2184B5328187026D10021012294
:102F30000846FEF7E5FD154B1B68013B032B1ED829
:102F4000DFE803F002070C11012200210220FEF746
:102F5000D7FD012200210220FEF7D2FD012200212F
:102F60000320FEF7CDFD012200210420FEF7C8FD5D
:102F7000012008BD3DF064F9D3E7002008BD012021
:102F800008BD00BF9807FF1FCC16FF1F8810FF1F4A
:102F9000F8B51D212DED028B734C054673483EF0AC
:102FA00029F873483AF038FDD4F80001A0F10A037B
:102FB0001D2B40F2B980626823686E4ED4ED027A10
:102FC00096ED037A6C4F02FB03F308EE103AB8EE6D
:102FD000488A6A4A28EE278A0023136088EE070A87
:102FE000674A1360674A1360674A1360674A136051
:102FF000674A1360674A07EE905A1360664AF8EE14
:10300000E77A1360654A80EE270A13603EF006FBFC
:1030100015216348BDEEC00A87ED000A3DF0EAFFC6
:1030200018EE100A3FF0BCFA41EC100B0221504898
:103030003AF016FD4E483AF0EFFC2B2159483DF08E
:10304000D9FFF0683FF0ACFA41EC100B0221484880
:103050003AF006FD46483AF0DFFC0E2152483DF0BA
:10306000C9FF294642483AF0CFFC41483AF0D4FC27
:1030700016214E483DF0BEFF39683D483AF0C4FC89
:103080003B483AF0C9FC3368013B032B1CD8DFE80E
:1030900003F0023B2D1E96ED067AD4ED057A87EEFD
:1030A000270AD4ED047AB8EE677AD4ED037AF8EE05
:1030B000677A20EE070A20EE270A3EF0AFFA3C4B73
:1030C000BDEEC00A83ED000ABDEC028BF8BD636D56
:1030D00096ED060A002B3FD0012BF5D1FFF73AFA07
:1030E000334BBDEEC00A83ED000AEDE7636B96ED4E
:1030F000060A4BB3012BE7D1FFF7E8F92C4BBDEEE5
:10310000C00A83ED000ADFE7D4F8CC3096ED067AEA
:103110007BB9D4ED0A7A87EE270AD4ED097AB8EEA6
:10312000677AD4ED087AC2E70021C0B23BF09EFB7B
:1031300041E7D4ED367A87EE270AD4ED357AB8EE3A
:10314000677AD4ED347AB2E7FFF78CF8184BBDEE0E
:10315000C00A83ED000AB7E7FFF71EF9144BBDEE76
:10316000C00A83ED000AAFE78413FF1F84C4040084
:103170006008FF1F8810FF1F2017FF1F6416FF1F26
:103180005816FF1F5C16FF1F1016FF1F0416FF1FA7
:103190000816FF1F0C16FF1F1816FF1F1416FF1F1F
:1031A000A4C40400BCC40400E8C40400F8C40400BF
:1031B0000410FF1F70B51021A848A94C84B03DF041
:1031C00019FFA84B197819B92378002B00F0F98062
:1031D000A548A64D3AF018FC0221A5483DF00AFF8B
:1031E0002178A1483AF010FC9F483AF015FC01AC58
:1031F000A049A14E20463AF00FFE2046FDF7C4F943
:1032000020463AF061FE296820463AF005FE204645
:10321000FDF7BAF920463AF057FE984920463AF0B1
:10322000FBFD2046FDF7B0F920463AF04DFE296837
:10323000934D20463AF0F0FD2046FDF7A5F92046D3
:103240003AF042FED5E900238E4C95ED027A8E4984
:1032500002FB03F307EE903A23688C4AF8EE677A94
:1032600006EE903A67EE877AF8EEE66A126886EE26
:10327000A77A013ADFED867A67EE277AC1ED007A08
:10328000032A23D8DFE802F0815F3E026A6D3368CB
:10329000012A00F2DF8007EE903AEA6DAB6D95ED02
:1032A000197AF8EEE77A03FB02F267EE877A07EE07
:1032B000102AB8EE477AC7EE876A764B01220021C2
:1032C0000420C3ED006AFEF71BFC236872483268D5
:1032D0000021016071485B420360714B71485242AA
:1032E0001A60714B1B685B42036001220846FEF7BF
:1032F00007FCD5F80001A0F10A031D2B40F29B80CA
:1033000004B070BD6A6B3368012A00F2A08007EE3A
:10331000903AEA6BAB6B95ED117AF8EEE77A03FB26
:1033200002F267EE877A07EE102AB8EE477AC7EE08
:10333000876A584B012200210320C3ED006AFEF783
:10334000DFFB2368C2E7D6ED007AD5F8CC30F8EE83
:10335000E77A002B76D0D5F8D430D5F8D02095ED8B
:10336000367A02FB03F367EE877A07EE103AB8EE7F
:10337000477A484BC7EE876A012200210220C3ED3D
:10338000006AFEF7BDFB2368A0E796ED007AEA68C5
:103390002B69D5ED057AB8EEC77A02FB03F327EE69
:1033A000277A07EE903AF8EE677A3A4BC7EE276A2B
:1033B000012200211046C3ED006AFEF7A1FB23683D
:1033C00084E719462848294D3AF01EFB0221284877
:1033D0003DF010FE2178244801AC3AF015FB22485C
:1033E0003AF01AFB314920463AF016FD2046FDF727
:1033F000CBF820463AF068FD296820463AF00CFDEB
:103400002046FDF7C1F820463AF05EFD28492046E7
:103410003AF002FD2046FDF7B7F820463AF054FD99
:10342000296820463AF0F8FC2046FDF7ADF8204622
:103430003AF04AFDDCE60121C0B204B0BDE87040BC
:103440003BF014BA6B6A2A6A95ED0A7A89E7DFEDD8
:10345000196A6EE7DFED176A2FE700BF10C5040099
:103460004416FF1FE016FF1F6008FF1F8007FF1FA5
:103470002CC304004CC504005816FF1F60C504008F
:103480008413FF1F6416FF1F3416FF1F8810FF1FD1
:103490000000B4434016FF1F3017FF1F3418FF1FF2
:1034A0003818FF1F3C18FF1F5C16FF1F24C50400BF
:1034B00038C5040000000000064B1B68012B03D038
:1034C000032B05D013B170473BF07ABD3DF018BE19
:1034D0003CF060BE9807FF1F30B50E4C0E4D83B018
:1034E0000146019020463AF069FA20463AF094FAF3
:1034F0000A4C019928463AF061FA28463AF08CFACB
:10350000019920463AF05AFA204603B0BDE830400F
:103510003AF082BA6008FF1FE007FF1F0808FF1F8C
:10352000012804D0032806D018B1002070473BF0D2
:1035300011BE3DF0F1BC3CF083BE00BF2DE9F84F59
:103540001C215748574F3DF055FD57483AF064FA53
:103550000E2156483DF04EFD396853483AF054FA72
:1035600051483AF059FA3B68092B00F097801A2B22
:1035700000F09280032B00F08880DFF85491DFF890
:103580003481494EDFF834A1002516E0002B44D0E9
:10359000072140463DF02EFD00203DF0B1FD3046B4
:1035A0003AF03AFA00243B68092B3AD01A2B59D04A
:1035B000032B54D001350D2D1FD0D9F80030012B2D
:1035C00027D0032BE2D13CF03BFEC4B2072140469A
:1035D0003DF010FD20463DF093FD30463AF01CFAD8
:1035E000FF2CE0D1032132483DF004FD2E4829464E
:1035F0003AF00AFA2C483AF00FFA07212D483DF02C
:10360000F9FC20463DF07CFDBDE8F84F26483AF035
:1036100003BA3BF09FFDC4B2D8E73DF07DFCC4B2D5
:10362000D4E71121244805F80A403DF0E3FC234883
:1036300042F066FB014621483DF0DCFC30463AF0A2
:10364000EBF91A211E483DF0D5FC00230A220D217A
:1036500030463AF0F9F930463AF0DEF9AAE7194B6C
:10366000EC54A7E7DFF864B0174805F80B400D21CC
:103670003DF0C0FC584642F043FB014658463DF041
:10368000B9FC30463AF0C8F994E70E4B00221A60B4
:103690005A609A601A7370E70C4BF7E7074BF5E72F
:1036A00074C504008807FF1F6008FF1FF8C30400EB
:1036B0009CC5040094C50400A0C504009016FF1F1B
:1036C000B4C504007016FF1FD0C504008016FF1F8C
:1036D0009807FF1FFFFFFFFF2DE9F0412DED028B43
:1036E0009EB09F499F4C054602A83AF095FB0023E7
:1036F0009D4A9E4923600AA836F028FB1C9B002B9C
:1037000000F0B4815C203AF0E7FF0B9BC3600C9B98
:1037100003619DF834300375954B0360064600271E
:10372000944B83600DF1380847604146183036F0FD
:10373000C7F97368B765013373608F4BB36009963F
:103740004FF47A738D4E06978DF820700596079387
:103750008B4F0A97404636F0E1F90998002800F0AF
:103760003E810368874A1B6B934240F03581036DAD
:10377000002B00F08B81844A136801930199136830
:103780000093009B5B1A632BF9D9002861D0036872
:10379000DFF80C821B69434540F0DD80036D002B90
:1037A00000F000811A78110700F1B680099C002C06
:1037B0004FD02368DFF8E481DB6A434540F0758130
:1037C000A06D18B13FF05CFD0023A365236D002BB5
:1037D00000F0668104F1180036F0A0F9099D6C68CC
:1037E000013C6C60002C32D12B68DB6A434540F011
:1037F0007381A86D10B13FF043FDAC652B6D002BBC
:1038000000F0628105F1180036F088F9099CF4B1E6
:1038100023685E4A5B68934240F07081A06D544B10
:10382000236018B13FF02CFD0023A365236D04F144
:103830001805002B00F05A81284636F06FF9A76072
:10384000284636F06BF95C2120463AF049FF002308
:1038500009934F4B029C4F48002C08BF1C46132174
:103860003DF0C8FB204642F04BFA014620463DF0B1
:10387000C1FB49483AF0D0F820463FF0F5FCB0EEE5
:10388000408AF0EE608A099C0596002C38D0656865
:10389000013D6560002D33D12368404ADB6A9342C5
:1038A00040F01781A06D10B13FF0EAFCA565236DD3
:1038B000002B00F0F08004F1180036F02FF9099C7D
:1038C000F4B12368314A5B68934240F01481A06DE3
:1038D000274B236018B13FF0D3FC0023A365236D71
:1038E00004F11805002B00F0FC80284636F016F98C
:1038F000A760284636F012F95C2120463AF0F0FE27
:1039000002A83AF0E1FAB0EE480AF0EE680A1EB0FA
:10391000BDEC028BBDE8F081D8695B69C01A1BD58C
:1039200000230A2205A90AA83AF09EF90AA902A8CA
:103930003AF00EFB0AA83AF0C7FA2368AB4200F04F
:103940008980099801332360002882D003681B69AD
:1039500043453FF423AF98470028E1D126E700BF55
:10396000E82605002C16FF1F7016FF1FA418FF1F66
:1039700054230500BC22050004230500282305006C
:10398000E0220500610400003C1FFF1F190D00002C
:10399000B82B050050C604006008FF1FD1040000CA
:1039A000ED0B0000436D002B3FF400AF93F8312086
:1039B00012077FF5FBAE1A681869801A5A695B68AE
:1039C00062EB0303B0F1004F73F10003C4D36FF057
:1039D00000400028A4D1E9E6984700287FD14C4B4D
:1039E0004C48012212211A703DF004FB4A483AF07B
:1039F00013F80B2149483DF0FDFA47483AF00CF81E
:103A000047490AA83AF008FA0AA8FCF7BDFD0AA837
:103A10003AF05AFA434B1B68012B49D0032B4FD085
:103A2000002B49D040490AA83AF0F6F90AA8FCF759
:103A3000ABFD0AA83AF048FA3C4B0AA819683AF0DC
:103A4000EBF90AA8FCF7A0FD0AA83AF03DFA9FEDB1
:103A50002E8B18E71D2136483DF0CCFA29462E481A
:103A600039F0D2FF2C4839F0D7FF9FE61D9B002B81
:103A70007FF448AE2F4E06938DF8203009934FF413
:103A80007A730DF138080596079361E6436D002BB4
:103A90007FF471AEA3E7636D002B7FF40CAF0EE7EC
:103AA000636D002B7FF496AE98E62046984795E626
:103AB00022203BF085FAB5E722203DF021FBB1E75B
:103AC00022203CF067FBADE76B6D002B7FF49AAED4
:103AD0009CE620469847F2E62846984796E60998DD
:103AE00049E6636D002B7FF400AF01E7636D002BA7
:103AF0007FF4A2AEA3E62046984701E72046984708
:103B0000A5E600BFAFF30080000000000000000049
:103B10001510FF1FE0C504006008FF1FF4C5040076
:103B200000C604009807FF1F1CC604008407FF1F7F
:103B300030C60400282305002DE9F04FADF29C5D4E
:103B4000AF49824602A83AF067F9AE4905A83AF0B3
:103B500063F940F21452002121A841F04DFA0023EC
:103B6000A94AAA490DA836F0F1F81F9B002B00F0D6
:103B70006F845C203AF0B0FD0E9BC3600F9B036125
:103B80009DF840300375A24B03600446A14B83604F
:103B9000002511AE45603146183035F091FF63685D
:103BA000A565013363609C4BA3609C4B0D9330462D
:103BB00035F0B4FF9A4D4FF00008002C00F0408122
:103BC0002368984ADB6B93424FF0000240F0C583B4
:103BD000DFF844B20E924FF47A7704F118013046C0
:103BE0008DF840201F922092CDF834B00F9736F018
:103BF00001F81F9B002B00F0A0835C203AF06CFDC5
:103C00000E9BC3600F9B03619DF840300375804B92
:103C1000036007464FF000097E4B8360C0F80490B4
:103C20003146183035F04CFF7B68C7F808B00133D7
:103C30007B604FF47A73C7F85890CDF824908DF8D4
:103C40002C9008950C970A93744B0D93304635F0E1
:103C500065FF0C9F002F00F09E843B68724A5B6BEF
:103C6000934240F0A883B96D002900F0B0830DA8FD
:103C70003AF0D2F80C98002800F0F28002686B4904
:103C8000136B8B4240F0CD81036D002B00F042831B
:103C9000926B67498A4240F095831B7813F0700F4E
:103CA00000F0C781012158483DF0A4F9614839F07E
:103CB000B3FE0C9F002F57D03B68DFF88091DB6A82
:103CC0004B4540F07C83B86D18B13FF0D9FA002322
:103CD000BB653B6D002B00F03B8307F1180035F00E
:103CE0001DFFDDF830B0DBF80470013FCBF8047045
:103CF000002F37D1DBF80030DB6A4B4540F0828380
:103D0000DBF8580018B13FF0BBFACBF85870DBF87D
:103D10005030002B00F070830BF1180035F0FEFEE0
:103D20000C9FFFB13B68444A5B68934240F0848338
:103D3000B86D374B3B6018B13FF0A2FA0023BB656A
:103D40003B6D07F11809002B00F06E83484635F0F3
:103D5000E5FE324BBB60484635F0E0FE38465C215C
:103D60003AF0BEFC00230C930DA83AF0ADF80C9F7E
:103D70000895002F3FF421AF7B68013B7B600193E6
:103D8000002B7FF41AAF3A682C49D26A8A4240F07D
:103D90005083B86D18B13FF073FA019BBB653B6D62
:103DA000002B00F0328307F1180035F0B7FE0C9FAE
:103DB000002F3FF402AF3B681F4A5B68934240F01C
:103DC0004383B86D124B3B6018B13FF059FA0023A2
:103DD000BB653B6D07F11809002B00F030834846A6
:103DE00035F09CFE0D4BBB60484635F097FE3846DB
:103DF0005C213AF075FC002C7FF4E2AE20E000BFBD
:103E00001CDA040064C604006CC60400A418FF1F7A
:103E100054230500BC22050004230500E022050010
:103E20002823050091090000BD0500006104000081
:103E3000690A00006008FF1F190D0000D10400008E
:103E40004FF47A73834909940DA88DF82C40089596
:103E50000C940A9339F0E0FF0C9800287FF40EAF21
:103E600013217D483DF0C6F87C4839F0D5FD0DA8FA
:103E70003AF02AF80C9E0895002E39D07568013D5D
:103E80007560002D34D13368754ADB6A934240F087
:103E90001383B06D10B13FF0F3F9B565336D002BAE
:103EA00000F0E28206F1180035F038FE0C9DFDB1FD
:103EB0002B686C4A5B68934240F03083A86D6A4B74
:103EC0002B6018B13FF0DCF90023AB652B6D05F1D9
:103ED0001806002B00F01283304635F01FFE634BAE
:103EE000AB60304635F01AFE28465C213AF0F8FB0C
:103EF0005F49604D594FDFF894910DA839F08CFF60
:103F00000DA8FCF741FB0DA839F0DEFF07EE908A03
:103F1000B8EEE70A00268DED010AFCF7EDFA2968F4
:103F20000DA839F079FF0DA8FCF72EFB0DA839F08C
:103F3000CBFF51490DA839F06FFF0DA8FCF724FB0A
:103F40000DA839F0C1FF9DED010AFCF7D5FA2968EB
:103F50000DA839F061FF0DA8FCF716FB0DA839F08C
:103F6000B3FF0C2145483DF045F841463B4839F048
:103F70004BFD3A4839F050FD21AD284641F0C0FED6
:103F8000014628463DF036F8384639F045FD0A210D
:103F900048463DF02FF80136384639F03DFDB04532
:103FA00005F10D05E9DA0AEB4A090AEB89090AF17C
:103FB000FF3321AADFF8D8B0284E019402EB09059F
:103FC00001279A467C1E032158463DF013F82146EE
:103FD000304639F019FDA5EB0908032128483DF0CA
:103FE00009F8404641F08CFE014640463DF002F89B
:103FF0000AEB0708132123483CF0FCFF41463046FA
:1040000039F002FD304639F007FD631E052B00F242
:10401000CA82DFE813F0F900F700F500F300BD00F5
:104020003F00984700283FF41BAF0C98002840F051
:10403000B98102A90DA83AF077F80028C0F24181B1
:10404000152111483CF0D6FF044839F0E5FC0C9FDF
:1040500030E600BFE826050070C604006008FF1FB8
:10406000D1040000190D000054230500E0220500D2
:1040700084C604008007FF1FA4C60400BCC6040059
:10408000B0050500E4C60400CCC604002402050007
:10409000F4C60400B349019C0DA839F0BDFE0DA87B
:1040A000FCF772FA0DA839F00FFFAF490DA839F0EF
:1040B000B3FE0DA8FCF768FA0DA839F005FF08EB70
:1040C000480308EB830021AB1D1829460DA839F0E1
:1040D000A3FE0DA8FCF758FA0DA839F0F5FE284606
:1040E00041F00EFE014628463CF084FF9F4839F01F
:1040F00093FC9F4B0DA8196839F08EFE0DA8FCF7B4
:1041000043FA0DA839F0E0FE002C37D06568013D78
:104110006560002D32D12368964ADB6A934240F0F5
:10412000CE81A06D10B13FF0ABF8A565236D002BDB
:1041300000F0958104F1180035F0F0FC23688E4AF8
:104140005B68934240F0E781A06D8C4B236018B10F
:104150003FF096F80023A365236D04F11805002BAA
:1041600000F0C781284635F0D9FC854BA36028466E
:1041700035F0D4FC5C2120463AF0B2FA05A839F0BB
:10418000A3FE02A839F0A0FE0DF29C5DBDE8F08F01
:104190007C490DA839F040FE0DA8FCF7F5F90DA8F3
:1041A00039F092FE70490DA839F036FE0DA8FCF7E3
:1041B000EBF90DA839F088FE29460DA839F02CFE40
:1041C0000DA8FCF7E1F90DA839F07EFE284641F074
:1041D00097FD014628463CF00DFF304639F01CFCA7
:1041E000634B19680DA839F017FE0DA8FCF7CCF940
:1041F0000DA839F069FE01370D35E3E66249C8E7DD
:104200006249C6E76249C4E76249594C0DA839F0D2
:1042100003FE0DA8FCF7B8F90DA839F055FE524978
:104220000DA839F0F9FD0DA8FCF7AEF90DA839F08D
:104230004BFE29460DA839F0EFFD0DA8FCF7A4F9B7
:104240000DA839F041FE284641F05AFD01462846A6
:104250003CF0D0FE304639F0DFFB21680DA839F084
:10426000DBFD0DA8FCF790F90DA839F02DFE4A49A9
:104270000DA839F0D1FD0DA8FCF786F90DA839F08D
:1042800023FE39490DA839F0C7FD0DA8FCF77CF9CC
:104290000DA839F019FE29460DA839F0BDFD0DA86D
:1042A000FCF772F90DA839F00FFE284641F028FD01
:1042B000014628463CF09EFE304639F0ADFB2168B1
:1042C00090E705A90DA839F02FFF0028BFF6B8AE7A
:1042D0000C9F002F00F0E4803B68304A5B6B9342F8
:1042E00040F0E280D7F85890B9F1000F00F0EA8072
:1042F000484641F005FD014648463CF07BFE1B4820
:1043000039F08AFBB8F1620F40F3B3800C9F08F1DB
:104310000108CFE4436D002B3FF4A2AD926B204B1C
:104320009A424FD1436D002B3FF483AE93F8313066
:1043300013F0500F7FF4B6AC7BE6209B002B7FF48C
:104340005CAC0A9709938DF82C300C9308957BE4AC
:104350007B6D002B7FF4C1ACC3E4214608A89847CD
:1043600077E400BFA4C7040010C704006008FF1F63
:104370008407FF1FD1040000190D0000542305001D
:10438000E02205008CC7040074C704005CC7040069
:1043900044C7040014C704002CC70400BD05000076
:1043A000690A000003689A6B9B4B9A420AD1036D1D
:1043B000002BB7D071E438469847014657E4384699
:1043C00098478EE4904700287FF46CAC31E64FF4B8
:1043D000807001913EF04CFFB865002800F0DE804F
:1043E000019901703B6DABB101464FF480721846E4
:1043F00035F00AF8B96D3AE4DBF85430002B7FF45D
:104400008BAC8DE4584698478AE47B6D002B7FF493
:10441000CAACCCE47B6D2BB101464FF480721846D8
:1044200032F03CFDB96D22E47B6D002B7FF48EAC45
:104430008FE438469047BAE43846984792E47B6D5B
:10444000002B7FF4CCACCDE438469847FFF7B5BBE2
:10445000209C002C7FF48DAB11AEFFF7A6BB636DE3
:10446000002B7FF467AE69E6736D002B7FF41AAD05
:104470001CE508EB48030C9F08EB830321AA02EB21
:104480000309002F3FD03B68644A5B6B934248D1DD
:10449000B96D002957D048460D2240F0EFFE36E7AF
:1044A000DFF87C91394627E7384698478146B9F1CD
:1044B000000F3FF424AF1BE730469847F6E4204650
:1044C00098473BE64FF480703EF0D2FE0146B86557
:1044D00000285CD080F80090386D38B34FF48072BB
:1044E00034F092FFD7F85890B9F1000F3FF407AFBE
:1044F000FEE6636D002B7FF435AE36E66B6D002B68
:104500007FF4EAACEBE4464948460D2208F1010885
:1045100040F0B4FE28E4204698472FE62846984706
:10452000E6E4384698470C9F0146B4E7786D18B129
:104530004FF4807232F0B2FCD7F85890B9F1000F06
:104540003FF4DDAED4E64FF4807001913EF090FE72
:104550000346B865B8B101990170386D38B1194694
:104560004FF4807234F050FFB96D0C9F93E7786D73
:1045700038B119464FF4807232F090FCB96D0C9F3F
:1045800089E7B96D87E7274BBB65194683E7254B5C
:10459000BB659946ACE62249FFF769BB214BBB6579
:1045A0001946FFF764BB20490DA839F035FC0DA86A
:1045B000FBF7EAFF0DA839F087FC1C490DA839F07C
:1045C0002BFC0DA8FBF7E0FF0DA839F07DFC294678
:1045D0000DA839F021FC0DA8FBF7D6FF0DA839F086
:1045E00073FC284641F08CFB014628463CF002FD56
:1045F000304639F011FA0E4B0DA8196839F00CFC51
:104600000DA8FBF7C1FF0DA839F05EFC072F7FF462
:10461000F2AD019C78E500BF690A0000BD0500000D
:10462000E8260500E80FFF1FF8C6040010C70400C5
:104630008407FF1F2DE9F04FA7B0034651490193AE
:1046400007A839F0E9FB50490AA839F0E5FB6820D2
:104650003AF044F80C23036008234360C3181C4657
:10466000049300F168051F46204600210C3439F000
:10467000D3FBA542F8D11A2144483CF0BBFC444886
:1046800039F0CAF90023434A434912A835F05EFBCA
:10469000249B002B00F026845C203AF01DF8139B2D
:1046A000C360149B03619DF8543003753B4B03605A
:1046B00006463B4B8360002400F1180B16A94460AA
:1046C000584635F0FDF97368DFF8F4A0B46501339E
:1046D0007360C6F808A0334B129316A835F01EFA83
:1046E000336831491A6B8A4240F08F84326D002A58
:1046F00000F064849B6A2D498B4240F09384D46916
:104700002B48DFF8C0800A213CF074FC00230A2209
:1047100021461F4839F098F91D4839F07DF90921E3
:1047200024483CF067FC019C1948214639F06CF99B
:10473000174839F071F910211F483CF05BFCD8F89C
:104740000010134839F060F9114839F065F91B4839
:104750001021002C40F0A9836423C8F800303CF0FD
:1047600049FCD8F800100A4839F04EF9084839F0E9
:1047700053F9062300240297054D039437469946C2
:10478000BAE000BF1CDA0400BCC70400C4C70400C0
:104790006008FF1F6CC60400A418FF1F5423050007
:1047A000BC220500E022050061040000750900003C
:1047B000F0C70400FCC7040008C804001CC80400BB
:1047C000042305007007FF1F3368744A5B6B934234
:1047D00040F02F83B36D002B00F040831846009308
:1047E00041F08EFA009B014618463CF003FC284637
:1047F00039F012F9119E002E00F0CA823368684920
:104800009A6B8A4240F06282326D002A00F0CE82BA
:10481000127812F0700F00F06282624811213CF0B1
:10482000E9FB2846013C39F0F7F8119B002B00F01A
:10483000D4801A685C48116B814240F0C980196DC0
:10484000002900F0A782D26A584EB24240F0AB82F3
:10485000986D28B100933EF013FD009B00229A65ED
:104860001A6D002A00F0BF8203F1180035F056F9E6
:10487000119A5368013B53600093002B38D11168A3
:10488000C96AB14240F00E83906D28B105923EF0A6
:10489000F7FC059A009B9365136D002B00F0F682E0
:1048A00002F1180035F03AF9119E0EB33368404A10
:1048B0005B68934240F05A83B06D3E4B336018B151
:1048C0003EF0DEFC0023B365336D002B00F0FE826A
:1048D00006F118031846009335F020F9009B364A7C
:1048E000B260184635F01AF930465C2139F0F8FE0E
:1048F00001344C4500F3F1823B68304ADB6B934254
:1049000040F0928200224FF47A76594616A8CDE9FB
:104910002422CDF848A013928DF85420149635F037
:1049200069F9249B002B00F052825C2039F0D4FE00
:10493000139A204B0360C260214B149A836002617A
:1049400000239DF8542043600646027516A91830CE
:1049500035F0B6F80023B3650E938DF840307368D8
:10496000C6F808A001337360164B0D934FF47A73A9
:1049700011960F93104B129316A835F0CFF82146DD
:10498000284639F041F8104802213CF033FB119ED3
:10499000002E7FF419AF0D4B314625E7BD05000011
:1049A000690A000030C8040061040000D10400005E
:1049B000190D000054230500E022050091090000B4
:1049C000BC2205002823050038C40400E8260500A1
:1049D00018468847002840F033820021A7483E4609
:1049E000029F3CF007FBA64839F016F80F21A548B6
:1049F0003CF000FB2146A24839F006F80321A2480A
:104A00003CF0F8FAD8F800109D4838F0FDFF04F1AA
:104A1000080303219C48C8F800303CF0EBFAD8F8B2
:104A20000010974838F0F0FF954838F0F5FF9749A7
:104A300012A839F0F1F912A8FBF7A6FD12A839F077
:104A400043FA934B1B68012B00F00983032B00F002
:104A50000A83002B00F0FF82631E00EE103ADFF89D
:104A60006492B8EEC00AFBF747FDD9F8001012A80F
:104A700039F0D2F912A8FBF787FD12A839F024FA11
:104A8000119C844B0D93002C39D06568013D656005
:104A9000002D34D12368804ADB6A934240F00E83B4
:104AA000A06D10B13EF0ECFBA565236D002B00F06E
:104AB000EB8204F1180035F031F8119CFCB1236849
:104AC000764A5B68934240F0EE82A06D744B23609F
:104AD00018B13EF0D5FB0023A365236D04F1180542
:104AE000002B00F0EE82284635F018F86D4BA360DD
:104AF000284635F013F820465C2139F0F1FDDFF847
:104B0000C8815F4C012505F1FF3A032140463CF086
:104B100071FA5146204638F077FF03215A483CF09D
:104B200069FA3946204638F049FFA5F1020A2046C5
:104B300038F072FFBAF1050F00F2D782DFE80AF011
:104B40009C9A98966A03584912A839F065F912A8F8
:104B5000FBF71AFD12A839F0B7F9544912A839F039
:104B60005BF912A8FBF710FD12A839F0ADF9394630
:104B700012A839F06FF912A8FBF706FD12A839F058
:104B8000A3F9D9F8001012A839F046F912A8FBF7DA
:104B9000FBFC12A839F098F90AA839F095F907A892
:104BA00039F092F97468013C7460002C2FD133689D
:104BB000394ADB6A934240F05A82B06D10B13EF040
:104BC0005FFBB465336D002B00F01A82584634F059
:104BD000A5FF3368314A5B68934240F06C82B06D48
:104BE0002F4B336018B13EF04BFB0023B365336DA0
:104BF000002B00F05B82584634F090FF294BB360E5
:104C0000584634F08BFF5C21304639F069FD27B0FF
:104C1000BDE8F08F264912A839F0FEF812A8FBF77C
:104C2000B3FC12A839F050F9204912A839F0F4F871
:104C300012A8FBF7A9FC12A839F046F9394612A8C8
:104C400039F008F912A8FBF79FFC12A839F03CF9DB
:104C5000D9F8001012A839F0DFF812A8FBF794FC7D
:104C600012A839F031F90C3701354CE71149D2E778
:104C70001149D0E71149CEE71149CCE7E8260500F4
:104C80006008FF1F74C80400B005050084C8040054
:104C90009807FF1F28230500D1040000190D00000C
:104CA00054230500E0220500A4C7040010C7040037
:104CB0008CC7040074C704005CC7040044C7040028
:104CC00014C704008407FF1FF4C604003046904751
:104CD00000287FF4A2AD119E002E59D033685B6B83
:104CE000AA4A93426FD1B16D002900F0298112A820
:104CF00039F092F80E21A6483CF07CF912A928461A
:104D000038F05CFE284638F087FE1221A1483CF0BE
:104D100071F907A912A839F007FA0146284638F0B8
:104D200073FE284638F078FE07A912A839F0FCF97E
:104D30000028C0F28B80019BA3425CDD0A219648CB
:104D40003CF058F92146284638F05EFE934803218E
:104D50003CF050F9119E002E4AD033688B4A5B6BB1
:104D6000934240F09880B36D002B00F0D18018463C
:104D7000009340F0C5FF009B014618463CF03AF90D
:104D8000032186483CF036F912A839F09DF84CE52D
:104D90008349ACE7596D00293FF41FAED26A814EBA
:104DA000B2423FF455AD1846904761E5726D002A56
:104DB00095D092F8312012F0500F7FF42EAD5B6B3E
:104DC000724A93428FD03046984701468FE7259B21
:104DD000002B7FF4AAAD0E938DF840301193724BE7
:104DE0000F960D93C6E55A6D002A7FF43DAD3FE561
:104DF0006B4B3146C1E7119E002E00F0C580336831
:104E0000624A5B6B934240F00981B16D002900F06A
:104E10000E81039E049B06EB460003EB800039F0F5
:104E2000ADF8731C039389E7002239460DA8984713
:104E3000A5E5304698470346002B3FF4D8ACCDE4B7
:104E4000119B002B3FF454AD1A68FCE40AA912A888
:104E500039F06AF90028BFF66EAF6FE74FF4807043
:104E600000933EF005FA0146B065002800F0368157
:104E7000009B0370306D00287BD04FF4807234F0BB
:104E8000C3FAB36D002B3FF4B2ACA7E4536D002B13
:104E90007FF406AD08E5304698470346002B3FF403
:104EA0006FAF64E710468847FEE43CF0A3F8D8F8FB
:104EB00000103E4838F0A8FD3C4838F0ADFD019B9D
:104EC00006337FF557ACDFF8F09018E6736D002BD2
:104ED0007FF4FEAC06F1180301E53E46DFF8D890FA
:104EE000029F0CE6259B002B7FF4D6AB304B129330
:104EF00016A834F013FE0E212E483CF07BF80AA8C9
:104F000038F0E2FF07A838F0DFFF27B0BDE8F08FE8
:104F10004FF4807000933EF0ABF90146B065002875
:104F200000F0E080009B0370306D00285DD04FF4EE
:104F3000807234F069FAB36D002B3FF421AF16E7AD
:104F40004FF4807000913EF093F9B065002800F0B6
:104F5000C18000990170336D002B3CD001464FF4A5
:104F60008072184634F050FAB16DC0E6304698476A
:104F7000BEE4706D18B14FF4807231F08FFFB36DE5
:104F8000002B3FF434AC29E4054942E7BD0500009D
:104F900044C8040054C8040068C80400B0050500F3
:104FA000E8260500D1040000282305006008FF1F43
:104FB000E0220500E0C704008407FF1F726D42B3C2
:104FC0009B6A604A93422DD1746D002C3FF498ABDC
:104FD0002469FFF795BB736D2BB101464FF48072C6
:104FE000184631F05BFFB16D81E6706D18B14FF47A
:104FF000807231F053FFB36D002B3FF4C1AEB6E6C3
:10500000736D002B7FF4E2ADE3E530469047002856
:105010003FD10E214C483BF0EDFFBDE530469847AF
:105020000146F6E6304698470446FFF769BB4FF461
:10503000807000913EF01CF9B065002846D00099C0
:105040000170336DB3B101464FF48072184634F0ED
:10505000DBF9B16DDDE622203CF052F8FCE42220C1
:1050600039F0AEFFF8E422203BF094F8F4E4304647
:105070009847AEE5736D2BB101464FF48072184628
:1050800031F00CFFB16DC4E6636D002B7FF411AD00
:1050900013E533682B4A9B6A9342C3D1326D002AD1
:1050A00092D0FFF72CBB2046984728E5736D002B64
:1050B0007FF4A1ADA2E530469847A8E52046984781
:1050C000FBE4636D002B7FF40EAD0FE51F4BB36562
:1050D00019469EE61D4BB365194608E61B4BB365A2
:1050E000FFF77CBB194BB36541E6194912A838F0AC
:1050F00093FE12A8FBF748FA12A838F0E5FE15490E
:1051000012A838F089FE12A8FBF73EFA12A838F070
:10511000DBFE394612A838F09DFE12A8FBF734FAE0
:1051200012A838F0D1FED9F8001012A838F074FE99
:1051300012A8FBF729FA12A838F0C6FE072D7FF453
:1051400092AD29E575090000E0C70400E80FFF1FD4
:10515000F8C6040010C704002DE9F0432DED028BC2
:10516000974C9849BDB0002605460BA8266038F03C
:1051700053FE31460EA838F04FFE314611A838F0E4
:105180004BFE122190483BF035FF904840F0B8FDAF
:1051900001468E483BF02EFF8D4838F03DFC3346EB
:1051A0008A4A8C4928A834F0D1FD3A9B002B00F0A4
:1051B0006C825C2039F090FA299BC3602A9B0361C2
:1051C0009DF8AC300375844B036006460027834B83
:1051D00083600DF1B00847604146183034F070FC30
:1051E0007368B765013373607D4BB36027964FF4E6
:1051F0007A737C4E24978DF89870239625937A4F76
:105200002897404634F08AFC2798002800F0308226
:105210000368764A1B6B934240F02782036D002B94
:1052200000F04382724A1368029302991368019353
:10523000019B5B1A132BF9D948B3DFF8D0810368BF
:105240001B69434540F09881036D002B00F0F48109
:105250001A78110740F19481D8695B69C01A40F14E
:105260008C8100230A2223A928A838F0FDFC28A954
:105270000BA838F06DFE28A838F026FE2368AB4254
:1052800000F07E812798013323600028D7D10021C8
:105290000BA838F021FF574D03782B6001220BA992
:1052A00028A838F053FF28A90EA838F051FE28A8E6
:1052B00038F00AFE0BA9504838F042FE2D214F4825
:1052C0003BF098FE2168424838F09EFB404838F099
:1052D000A3FB0C214A483BF08DFE29683C4838F07E
:1052E00093FB3B4838F098FB122146483BF082FE86
:1052F0004149374838F062FB354838F08DFB0821CA
:1053000041483BF077FE0EA9314838F057FB304852
:1053100038F082FB2B680D3B4D2B00F20482DFE856
:1053200013F0A100020202020202020202020202C1
:10533000020202020202020202020202020202024D
:10534000020202020202020202020202020202023D
:10535000020202020202020202020202020202022D
:10536000020202020202020202020202020202021D
:1053700002020202020202020202020202021603F8
:1053800002020202020202020202A100A100A10026
:10539000A100A10018025B02D202A100B1027700B5
:1053A000770002023A02A100A100B2049104A10018
:1053B0008703020224037C02A1000202A10000BFB5
:1053C0002C16FF1FE826050098C804009016FF1F42
:1053D0006008FF1FA418FF1F54230500BC2205000E
:1053E0000423050028230500E022050061040000D5
:1053F0003C1FFF1FF416FF1F1C16FF1FBCC8040034
:10540000ECC80400FCC8040010C90400ED0B000047
:1054100001210BA838F060FE0178AF4838F0C0FDDC
:1054200002220BA928A838F091FE28A90EA838F06E
:105430008FFD28A838F048FD1B21A8483BF0DAFD75
:10544000A549A74838F0BAFAA54838F0E5FAA548C2
:105450000C213BF0CFFDA2480EA938F0AFFAA048CE
:1054600038F0DAFAA04B0E9C002C08BF1C462046F0
:105470003DF0FAFE0B219D48B0EE408AF0EE608AC6
:105480003BF0B8FD0EA9964838F098FA944838F0E9
:10549000C3FA0C2196483BF0ADFD204640F030FCAD
:1054A000014620463BF0A6FD8D4838F0B5FA0721AD
:1054B00090483BF09FFDB0EE480AF0EE680A0221EA
:1054C000874838F0CDFA864838F0A6FA8A481A217B
:1054D0003BF090FD824838F09FFA279C2396002CE1
:1054E00038D06568013D6560002D33D12368834A5B
:1054F000DB6A934240F01481A06D10B13DF0C0FE14
:10550000A565236D002B00F0D58004F1180034F060
:1055100005FB279CF4B12368794A5B68934240F00D
:10552000DD83A06D774B236018B13DF0A9FE002309
:10553000A365236D04F11805002B00F0C5832846F0
:1055400034F0ECFAA760284634F0E8FA20465C21F3
:1055500039F0C6F811A838F0B7FC0EA838F0B4FC42
:105560000BA838F0B1FCB0EE480AF0EE680A3DB086
:10557000BDEC028BBDE8F083984700287FF471AE44
:10558000279D002D3FF483AE2B68DFF87091DB6A16
:105590004B4540F09980A86D18B13DF071FE002395
:1055A000AB652B6D002B00F08A8005F1180034F0FC
:1055B000B5FADDF89C80D8F80450013DC8F80450D5
:1055C000002D36D1D8F80030DB6A4B4540F0BC8066
:1055D000D8F8580018B13DF053FEC8F85850D8F824
:1055E0005030002B00F0968008F1180034F096FA45
:1055F000279DF5B12B68424A5B68934240F0718366
:10560000A86D404B2B6018B13DF03AFE0023AB650E
:105610002B6D05F11808002B00F05B83404634F039
:105620007DFAAF60404634F079FA28465C2139F0C3
:1056300057F8002327932AE6436D002BA0D093F858
:10564000312012079CD51A681869801A5A695B685C
:1056500062EB0303B0F1004F73F100038DD36FF0E1
:10566000004000287FF4FDAD8AE7984700286ED1FE
:10567000254B264801220F211A703BF0BBFC18482D
:1056800038F0CAF99FED128B27E73B9B002B7FF484
:1056900090AD1F4E24938DF8983027934FF47A7372
:1056A000239625930DF1B008A9E5436D002B7FF4F7
:1056B000B9ADDDE7636D002B7FF427AF29E76B6D94
:1056C000002B7FF472AF74E72846984771E700BF5C
:1056D000000000000000F0BF4C16FF1F94C904003A
:1056E0006008FF1FB0C90400B82B050038CB0400C8
:1056F00044CB040054CB04005CCB0400D104000074
:10570000190D0000542305001510FF1FACC804003C
:1057100028230500D8F85430002B7FF465AF67E7E5
:1057200020469847F5E6A44CA44801232E21237077
:105730003BF060FC2178A24838F066F9A04838F0C8
:105740006BF99FED9B8BC8E64046984750E727983A
:1057500068E501210BA838F0BFFC0178994838F0C2
:105760001FFC02220BA928A838F0F0FC28A90EA8DB
:1057700038F0EEFB28A838F0A7FB092192483BF04F
:1057800039FC90498E4838F019F98D4838F044F9C1
:105790008E4809215DE601210BA838F09DFC0178B7
:1057A0008B4838F0FDFB02220BA928A838F0CEFC6C
:1057B00028A90EA838F0CCFB28A838F085FB0921D1
:1057C00084483BF017FC82497D4838F0F7F87C4864
:1057D00038F022F98048DCE701210BA838F07CFC86
:1057E00001787E4838F0DCFB02220BA928A838F0AB
:1057F000ADFC28A90EA838F0ABFB28A838F064FB54
:10580000092177483BF0F6FB74496D4838F0D6F82B
:105810006B4838F001F97348BBE701210BA838F059
:105820005BFC20AC0178204638F030FB6E49204606
:1058300038F03CFC002800F0578201236B482B60B5
:105840000D213BF0D7FB02220BA928A838F07EFCE3
:1058500028A90EA838F07CFB28A838F035FB296869
:10586000574838F0D1F8052161483BF0C3FB0EA939
:10587000534838F0A3F8524838F0CEF8204638F0B4
:1058800023FBEFE501210BA838F026FC01785948ED
:1058900038F086FB02220BA928A838F057FC28A96B
:1058A0000EA838F055FB28A838F00EFB0921524805
:1058B0003BF0A0FB4949424838F080F8404838F0B6
:1058C000ABF84E4865E70023142228A90EA838F04B
:1058D00011FC4B494B4D4C4C28A83FF001FD3DF0CD
:1058E000C3FC51EC100B3DF0ABF948492860002097
:1058F0003FF0F6FC3DF0B8FC51EC100B3DF0A0F988
:105900000621206042483BF075FB0EA92C4838F078
:1059100055F809213F483BF06DFB28683CF040FEFC
:1059200041EC100B0221264838F09AF809213A4838
:105930003BF060FB20683CF033FE41EC100B022191
:105940001F4838F08DF81E4838F066F88AE50B21BC
:1059500032483BF04FFB1A4838F05EF830480EA949
:1059600038F0EEFA9FED128BB7E501210BA838F065
:10597000B3FB01782B4838F013FB02220BA928A8AF
:1059800038F0E4FB28A90EA838F0E2FA28A838F08D
:105990009BFA092124483BF02DFB2249084838F0A6
:1059A0000DF8074838F038F82048F2E6AFF30080E9
:1059B00000000000000000001410FF1F08CB0400CE
:1059C0006008FF1F4010FF1F28C9040034C90400ED
:1059D0001C10FF1FC0C90400CCC904007010FF1FB9
:1059E00040C904004CC9040064CA0400DCCA0400B5
:1059F00000CB04002810FF1F7CC9040088C90400E4
:105A000058C90400C416FF1FC816FF1FF82605005A
:105A10005CC9040064C9040070C904001CC9040006
:105A20007C10FF1F5810FF1FC4CA0400D0CA040016
:105A300001210BA838F050FB017814A838F026FAA1
:105A400002220BA928A838F081FB28A90EA838F05B
:105A50007FFA28A838F038FA1422002328A90EA8C3
:105A600038F048FB0621B5483BF0C4FA0EA9B4480B
:105A700037F0A4FFB24837F0CFFFB24B93E80300F2
:105A80000390ADF8101028A803A93FF097FB00225F
:105A9000034604460EA917A838F084FB22460EA937
:105AA0001AA838F053FB0821A7483BF0A3FA1AA91B
:105AB000A34837F083FFA24837F0AEFF012300224E
:105AC0001AA91DA838F06EFB08219F483BF092FAF6
:105AD0001AA99B4837F072FF20AC994837F09CFF19
