:1000000000800020BD0100009DED000055ED0000C6
:1000100055ED000055ED000055ED000055ED0000D8
:1000200055ED000055ED000055ED00009DED000080
:100030009DED000055ED0000C5070100C908010055
:100040009DED00009DED00009DED00009DED000088
:100050009DED00009DED00009DED00009DED000078
:100060009DED00009DED00009DED00009DED000068
:100070009DED00009DED00009DED00009DED000058
:100080009DED00009DED00009DED00009DED000048
:100090009DED00009DED00009DED00009DED000038
:1000A0009DED00009DED00009DED00009DED000028
:1000B0009DED00009DED00009DED00009DED000018
:1000C0009DED00009DED00009DED00009DED000008
:1000D0009DED00009DED00009DED00009DED0000F8
:1000E0009DED00009DED00009DED00009DED0000E8
:1000F0009DED00005D1401009DED000089150100DB
:100100009DED00006DF500009DED00009DED0000EF
:100110009DED00009DED00009DED00009DED0000B7
:100120009DED00009DED00009DED00009DED0000A7
:100130009DED00009DED0000C1E400009DED00007C
:100140009DED00009DED00009DED00009DED000087
:10015000010B0100150B0100290B01003D0B0100F3
:100160009DED0000F9F700009DED00009DED000001
:100170009DED00009DED00009DED00009DED000057
:100180009DED00009DED00009DED00009DED000047
:100190009DED00009DED00009DED00009DED000037
:1001A0009DED00009DED00009DED00009DED000027
:1001B0009DED00009DED00009DED0000564B4CF2C2
:1001C000205210B51A804DF628121A8000BF00BFC9
:1001D0000EF0E8FD514B4FF010621A60504A9A60E1
:1001E000504ADA60504A136813F4807304D14F49BF
:1001F0000B604FF4A85313604D4B1A78110703D5C9
:100200001A7842F008021A704A4B4B492A221A7097
:100210004A4A4B4B8B4204D252F8040F43F8040B6A
:10022000F8E7484B484900228B4202D243F8042B9E
:10023000FAE74649464A002352F8230041F82300D2
:1002400001336F2BF8D1434B434A802103F8011B44
:100250009342FBD1414B3D4A1A60414B8A221A70AE
:10026000A3F5805324225A70A0221A709A7992071B
:10027000FCD59A79D406FCD43A4A937903F00C035E
:10028000082B384BF9D103221A7140225A719A79FE
:100290009006FCD5334A9179324B4906FBD5324A58
:1002A000324911600221516020221A709A7902F0BD
:1002B0000C020C2AFAD12E4B2E4A1A602E4B2F4AD2
:1002C0001A6000225A60072243F8042C2C4AC3F813
:1002D0000C2D62B60EF09EFE144B1B68DA0705D596
:1002E00028480EF0FBFD284B284A1A60284B1B7843
:1002F0005B0609D5244C254B22689A4204D121483B
:100300000EF0ECFD0023236013F0A6FC0EF050FD70
:1003100010F01EFCFEE700BF0E20054030800440B8
:10032000823F04000100002B10D0034014D0034092
:1003300002D0074000E007404892FF1F608901009B
:100340002087FF1F4892FF1FA89DFF1F0082FF1FED
:100350000000000000E400E05FE400E008ED00E0E1
:100360000050064000400640448004400000030165
:1003700004800440C010050014E000E0FF76010096
:1003800000002020A078095D1CE00340A5C3945A1A
:1003900000F00740FFFFFFFFFFFFFFFFFFFFFFFF32
:1003A000FFFFFFFFFFFFFFFFFFFFFFFFFFFFFFFF5D
:1003B000FFFFFFFFFFFFFFFFFFFFFFFFFFFFFFFF4D
:1003C000FFFFFFFFFFFFFFFFFFFFFFFFFFFFFFFF3D
:1003D000FFFFFFFFFFFFFFFFFFFFFFFFFFFFFFFF2D
:1003E000FFFFFFFFFFFFFFFFFFFFFFFFFFFFFFFF1D
:1003F000FFFFFFFFFFFFFFFFFFFFFFFFFFFFFFFF0D
:10040000FFFFFFFFFFFFFFFFFFFFFFFFDEF9FFFF23
:1004100010B5054C237833B9044B13B10448AFF33E
:1004200000800123237010BD4892FF1F00000000D0
:1004300064890100084B10B51BB108490848AFF3A7
:1004400000800848036803B910BD074B002BFBD0A0
:10045000BDE81040184700BF000000004C92FF1F8D
:10046000648901004892FF1F0000000000690B69C9
:100470009842D4BF00200120704700BF80698B697B
:100480000028B8BF4042002BB8BF5B429842D4BF9F
:1004900000200120704700BFF0B586460120DEF83D
:1004A0005470DEF82C303A6A106079683A680A4471
:1004B0007A600EF12C0493B15A69002A08DB1A6A9B
:1004C00010605E6819683D695A6931445960521B71
:1004D00019690A445A6154F8043F002BECD1DEF844
:1004E0002430154ADEF81840DEF86400002111605F
:1004F000DB00516803F1804303F5603321440D2490
:1005000019611460DA68502122F08002DA60D96043
:1005100000B1F0BD7A68FB689A4200D0F0BDDEF809
:100520000820DEF85810936823F002039360002936
:10053000F4D0BDE8F040084700800340836A00F132
:10054000280233B10120596A52F8043F0860002B99
:10055000F9D17047F8B5274A274B5768274A1868DA
:10056000274B55681C6813F0EBF80146254813F03B
:10057000EFF90646384613F0E3F80146304613F02B
:1005800033F9214613F030F91E4911F039FA11F010
:100590009FF91D4A1D4B11681E6872B613F024F9AD
:1005A0000446284613F0CCF80146204613F012F812
:1005B0001749184C13F0CCF90546304613F0C0F833
:1005C0000146284613F0C4F9A16F13F00DF9616FCD
:1005D000206713F0C5FA38B9D4F8803003F100432E
:1005E000C4F8843062B6F8BDD4F88030C4F88430E2
:1005F00062B6F8BD7892FF1F0C98FF1F0097FF1F8F
:100600006094FF1FDB0FC940E495FF1F9C96FF1FFE
:10061000CDCCCC3C6894FF1F38B5084C216F13F04B
:10062000E3F8E36B0546E06A00FB03F013F088F89B
:100630000146284613F08CF938BD00BF5497FF1FC0
:1006400008B50EF025FF0028D4BF4FF0FF3003207F
:1006500008BD00BF036A8B4223D0C369994200D012
:1006600070478369002BFBD010B472B60F4AC36980
:10067000846900211160DB00516803F1804303F5B8
:10068000603321440D2419611460DA68502122F08E
:100690008002DA60D96062B6006910BC03685B68EA
:1006A0001847006903689B68184700BF0080034033
:1006B0002DE9F041066F476F456D044631463846D7
:1006C0006B6813F025FA002844D0304613F068FA1E
:1006D0000646AB68B3423BD0002E2B68B4BF4FF048
:1006E000FF3201229A4213D004F12401012008E0D4
:1006F00013685B42012B13600BBF926AD36A1360CD
:10070000186051F8042F002AF2D1E36E5B0140D14A
:1007100086EAE677A7EBE677002F32D0A3689A68DF
:1007200012F002084AD01A6833498A4241D95968FE
:100730003248B0FBF7F7521A974250D3BA1A002446
:10074000012003219C60D8601A6099601F60AE6030
:10075000BDE8F081D4F884803846414612F03CFF71
:1007600000210746404613F0FBF93946D0B1304628
:1007700013F0F6F9D8B93046606713F011FA06465F
:10078000A7E7A268936823F002039360AE60BDE818
:10079000F081013BFDD186EAE677A7EBE677002FF3
:1007A000EFD0BBE7304613F0BDF90028E3D0384660
:1007B000E2E7124AB2FBF7F71F60E7E760690368F8
:1007C0001B689847A368656DC3F808800122032160
:1007D000DA600A4AB2FBF7F71F609960D6E76069F2
:1007E00000210268996001250321DD6012681F6005
:1007F00099609047656DC9E7FFED0200006CDC026F
:10080000826893689B0700D47047416D036F70B591
:1008100004464868A16F1B1A002BB8BF5B428B428D
:100820003DD3E16F8B4231D3616F8B4232D24A1E8E
:100830009342D4F880003EBF0239CB1A4343D4F828
:10084000880028BF0023184412F076FF11F036F913
:1008500013F0A6F90546A268E5B1936813F0020605
:1008600029D0136822498B4220D951682148B0FB16
:10087000F5F55B1A9D422DD3EB1A002401200321CC
:100880009460D06013609160156070BDD4F884509E
:10089000002DE2D1936823F00203936070BDD4F879
:1008A0008000D4F8882000FB0320CDE7114BB3FB78
:1008B000F5F5156070BD606903681B689847A3680B
:1008C0000C4A9E6001200321D860B2FBF5F51D6043
:1008D000996070BD60690368002601240321966059
:1008E0001B68D46015609160BDE87040184700BF78
:1008F000FFED0200006CDC0270B5044608460D46B0
:1009000014F07EF823680246294620465B68BDE85D
:100910007040184738B5044608460D4614F070F884
:100920002368024629465B682046984705462046CC
:1009300010F052F9284438BD38B5054610F09CF93E
:100940000446284610F048F9204438BD032827D82B
:10095000DFE800F01D140B021C4B89B393F88810DC
:10096000042081F001010EF0CBBA184B19B393F8B3
:100970008B101A2081F001010EF0C2BA134BA9B1FD
:1009800093F88A101A2081F001010EF0B9BA0F4BCA
:1009900039B193F889100E2081F001010EF0B0BA40
:1009A00070470E2093F889100EF0AABA1A2093F817
:1009B0008A100EF0A5BA1A2093F88B100EF0A0BA88
:1009C000042093F888100EF09BBA00BF5497FF1FC5
:1009D000F8B501210D200EF0A7FA40F241300EF0DB
:1009E000DBFB0C21B548B64D0EF01EFDFF200EF0CE
:1009F00011FDFF200EF00EFDFF200EF00BFD32204A
:100A00000EF0BAFA0C21AD480EF00EFDFF200EF0EC
:100A100001FDFF200EF0FEFCFF200EF0FBFC32205B
:100A20000EF0AAFA0721A7480EF0FEFCFF200EF0F8
:100A3000F1FCFF200EF0EEFCFF200EF0EBFC32206C
:100A40000EF09AFAA04B1F682E467F1B3446B8352D
:100A500038190EF0C5F804F8010BA542F8D19B4BEC
:100A60009B4D1F682C467F1B383538190EF0B8F89F
:100A700004F8010BA542F8D1964B974D1F682C4600
:100A80007F1B183538190EF0ABF804F8010BA5429E
:100A9000F8D1924B924D1F682C467F1B18353819A0
:100AA0000EF09EF804F8010BA542F8D18D4B8E4D47
:100AB0001F682C467F1B383538190EF091F804F862
:100AC000010BA542F8D1894B894D1F682C467F1B2D
:100AD000103538190EF084F804F8010BA542F8D14E
:100AE000844B854D1C6804F10C0720460EF078F805
:100AF0000134A74205F8010BF7D1804B804D1C68EB
:100B000004F10C0720460EF06BF80134A74205F8FB
:100B1000010BF7D17B4B7C4D1C6804F10C07204680
:100B20000EF05EF80134A74205F8010BF7D1774BC0
:100B3000774D1C6804F1080720460EF051F8013487
:100B4000A74205F8010FF7D1724B734D1C6804F1F1
:100B5000080720460EF044F80134A74205F8010FBB
:100B6000F7D16E4B6E4D1F682C467F1B44353819EC
:100B70000EF036F804F8010BA542F8D1694B6A4D26
:100B80001F682C467F1B5C3538190EF029F804F8D5
:100B9000010BA542F8D1654B654D1F682C467F1BA4
:100BA000303538190EF01CF804F8010BA542F8D1C5
:100BB000604B614D1F682C467F1B183538190EF0AD
:100BC0000FF804F8010BA542F8D15C4B5C4D1F688F
:100BD0002C467F1B183538190EF002F804F8010B6B
:100BE000AC42F8D1012104200EF09EF901210E2023
:100BF0000EF09AF901211A200EF096F90021032037
:100C0000FFF7A4FE00210846FFF7A0FE0021012007
:100C1000FFF79CFE96F88C0002210EF085F94FF448
:100C2000A074022196F890000EF07EF92346013B55
:100C3000FDD1012196F88C000EF062F996F8900033
:100C400001210EF05DF9013CFDD10A213D480BF078
:100C5000ADFE04213C480DF05FFF96F888200AB3F2
:100C600000210320FFF772FE0E2138480DF054FFDB
:100C700096F88920E2B100210846FFF767FE0324B9
:100C800001210D200EF03CF932200EF075F9002103
:100C90000D200EF035F94FF496700EF06DF9013C11
:100CA000EED1F8BD0123114627480DF04BFFD7E7E1
:100CB0000123114625480DF045FFDCE7B06F010028
:100CC0005497FF1FC06F0100A093FF1F7887FF1F7D
:100CD000E092FF1F7487FF1F0096FF1F7087FF1FA2
:100CE000E895FF1F3487FF1F6493FF1F6487FF1F72
:100CF000CC95FF1F2887FF1F7896FF1F4487FF1F93
:100D00008496FF1F3087FF1F9096FF1F3C87FF1FB1
:100D1000BF96FF1F3887FF1FA796FF1F2487FF1F5F
:100D20001C93FF1F2C87FF1FF493FF1F4887FF1F93
:100D3000B092FF1F6087FF1F0C95FF1F5C87FF1F8E
:100D4000F094FF1F1098FF1FA493FF1F7895FF1FBB
:100D50002DE9F04385B00DF1040904464E46002507
:100D60004FF0FF3803E02E2808BFA846013523685E
:100D700020465B699847C0B2FF2806F8010BF2D104
:100D800002E023685B699847236820461B699847FF
:100D900000282046F5DC00260027CDB10024A04520
:100DA0004FF00002174B304639460ED012F0C6F80D
:100DB000064619F804000F46303812F059F832464A
:100DC0003B4611F009FF06460F460134A542E6D125
:100DD000B8F1FF3F10D0013DC8EB0505002D0BDD3C
:100DE0000024304639460022064B12F0D1F9013476
:100DF000A54206460F46F4D13046394605B0BDE857
:100E0000F08300BF00002440012805D0032803D050
:100E100028B10020034970470348FFF799BF0348F2
:100E2000FFF796BF0000F0BFC487FF1FE487FF1FD6
:100E300010B50EF03DFBC4B201E00EF039FB0EF030
:100E400027FB0028F9DC042105480FF055FB21465B
:100E500004480FF011FF03480FF0BEFE204610BDFE
:100E6000C86F0100E487FF1F08B50FF01BFB0028C7
:100E700025DD184B1B6853B10EF01AFB164BC0B2A0
:100E8000432818700AD0632808D0002008BD0FF04E
:100E9000CDFA114BC0B243281870F4D100210320C1
:100EA000FFF754FD0D4B196879B1012905D10021D7
:100EB0000120FFF74BFD012008BD012008BDFFF711
:100EC000BFFB0028D5DA002008BD0120FFF73EFD5A
:100ED000EDE700BF4087FF1F9C93FF1FB092FF1FED
:100EE0002DE9F041224C234AA16BA36A224F234DE6
:100EF000234E804601FB03F000233B60136012F099
:100F00001FFCA16E12F070FC11F0C4FF10F090FCF9
:100F100012F0C4FA12F014FCE96812F019FD074649
:100F2000404612F00DFC0146384612F011FD12F059
:100F300037FE2B683060012B17D8616FA869114DFF
:100F400012F006FD0646206C12F0FAFB0146304610
:100F500012F04AFC0646206B12F0F2FB01463046C6
:100F600012F042FC12F01CFE2860BDE8F08100BFC8
:100F70005497FF1F7492FF1F3C97FF1FB092FF1FF3
:100F8000DC95FF1F1893FF1F2DE9F84311214C48F2
:100F90004C4C4D4D4D4F0EF047FAFF200EF03AFAF3
:100FA000FF200EF037FAFF200EF034FA11214848E6
:100FB0000EF03AFAFF200EF02DFAFF200EF02AFA7A
:100FC000FF200EF027FA112142480EF02DFAFF20E3
:100FD0000EF020FAFF200EF01DFAFF200EF01AFA94
:100FE00011213D480EF020FAFF200EF013FAFF20E9
:100FF0000EF010FAFF200EF00DFA112137480EF016
:1010000013FAFF200EF006FAFF200EF003FAFF207D
:101010000EF000FA324B1E68304612F091FBA36AC4
:101020008046A06B00FB03F012F08AFBA16E12F069
:10103000DBFB0146404612F08BFC2A4912F0D4FB40
:101040002B6838608BB3012B274B0ED01F68274AC3
:10105000274B1760002103201E60FFF777FC2968EB
:10106000D1B101291BD0BDE8F8831F68DFF8848067
:10107000384612F065FB616F12F0B6FB236C8146B7
:10108000206B00FB03F012F05BFB0146484612F0B8
:101090005FFCC8F80000DAE70120FFF757FC0021E9
:1010A0000120BDE8F843FFF751BC0F4B1F683846DD
:1010B00012F046FBFFF7B0FA0E4B1860C7E700BF0F
:1010C000D06F01005497FF1FB092FF1F1896FF1FAB
:1010D000E46F0100F86F01000C7001002070010046
:1010E0003C97FF1F0000B4437492FF1FE095FF1F61
:1010F000C895FF1F6093FF1F2DE9F04104460F467E
:101100008E488F4E322115460FF0F6F98D480FF0BC
:1011100063FD00218C480DF07FFB01210320FFF7C8
:1011200015FC3946204612F05FFB0446284612F0B3
:1011300007FB0146204612F057FB12F031FD014635
:1011400081480DF0FBFB3368002B40F0F5807F4CAD
:10115000236820697E4D00FB03F012F0F1FA7D490F
:1011600012F042FB014678480DF094FC60687A4C1E
:1011700012F0E6FA014674480DF0BEFC002733E099
:101180000FF054F9754BC0B2632818703FD066D980
:10119000F9284CD0FE2824D10A200DF0EDFE33684A
:1011A000002B00F0AC80012B1BD12068DFF8C4813C
:1011B000FFF72AFE12F072F9D8F80030C8F81000D4
:1011C00003FB00F012F0BCFA624912F00DFB01467D
:1011D0005D480DF05FFC624B4046196818220DF027
:1011E00041FD59480DF0FCFB57480DF00FFB00285E
:1011F0003DD00FF057F9002834DD2368002BBFD015
:101200000EF056F9554BC0B263281870BFD14E4846
:101210000DF000FB2B68002103444B482B600DF0C0
:10122000FBFA00210320FFF791FB0127D9E70A20F1
:101230000DF0A2FE3368002B51D0012BD1D12068D4
:10124000DFF83081FFF7E0FD12F028F9444BC8F8D1
:1012500014001968404618220DF004FDC1E7432828
:10126000D5D0BEE7FFF7ECF90028BADBC5E70146A9
:101270000320FFF76BFB28213A480FF03DF9324875
:101280000DF0C8FA01462F480FF0F6FC2D480FF07C
:10129000A3FC142134480FF02FF9296829480FF0D6
:1012A000EBFC28480FF098FC27480DF0B3FA2B68A8
:1012B000142103442C482B600FF01EF929682148A3
:1012C0000FF0DAFC1F480FF087FC312127480FF0A0
:1012D00013F91C480FF080FC3846BDE8F081206807
:1012E000DFF86880FFF790FD12F0D8F8204BC8F8BF
:1012F00014001968404618220DF0B4FC9FE72068DE
:10130000DFF84880FFF780FD12F0C8F8D8F8003009
:10131000C8F8100003FB00F012F012FA0D4912F0A9
:1013200063FA014608480DF0B5FB114B40461968B9
:1013300018220DF097FC54E70E4C09E734700100B9
:10134000B092FF1FE487FF1FA493FF1F0C95FF1FA0
:101350003C97FF1F0AD7233C4087FF1F9C93FF1F2A
:101360005C87FF1F6870010094700100AC70010081
:101370006087FF1FF094FF1F2DE9F04707468A465C
:101380007048714D714E2C21914698460FF0B4F87B
:101390006F480FF021FC00216E480DF03DFA01214D
:1013A0000020FFF7D3FAAB68686900FB03F012F086
:1013B000C7F9694912F018FA0446E86812F0C0F952
:1013C000014664480DF098FB21466248634C0DF0DD
:1013D00061FB5146384612F007FA0746484612F0BC
:1013E000AFF90146384612F0FFF912F0D9FB014679
:1013F00058480DF0A3FA002727E00FF017F8C0B205
:10140000574B6328187032D02FD9F9283FD0FE28C7
:1014100018D10A200DF0B0FD524B1B68002B00F0D4
:101420008380012B0ED12068DFF85091FFF7ECFC90
:1014300012F034F84C4BC9F81000196848461822CD
:101440000DF010FC43480DF0CBFA42480DF0DEF9E8
:10145000014600283CD00FF025F8002833DD236832
:10146000002BCAD00EF024F8C9E74328EAD1394846
:101470000DF0D0F9336800210344364833600DF095
:10148000CBF900210846FFF761FA0127DAE70A20C5
:101490000DF072FD2068FFF7B7FC11F0FFFFAB689D
:1014A000686103FB00F012F04BF92B4912F09CF934
:1014B000014628480DF0EEFA2C4B234819681822F3
:1014C0000DF0D0FBBEE7FFF7BBF80028BADBC6E79C
:1014D000FFF73CFA132126481C4C0FF00DF8316839
:1014E0001B480FF0C9FB1A480FF076FBB8F1000F4C
:1014F00005D018480DF08EF9236818442060132198
:101500001C480EF0F9FF316811480FF0B5FB104888
:101510000FF062FB2B2118480EF0EEFF0C480FF085
:101520005BFB3846BDE8F0872068FFF76DFC11F0E3
:10153000B5FF0E4B28611968034818220DF092FB85
:1015400080E700BFE07001000C95FF1F7492FF1F41
:10155000E487FF1F7895FF1F0AD7233C4087FF1FB2
:101560009C93FF1FB092FF1F5C87FF1F6087FF1FC8
:10157000107101002471010038710100F094FF1F07
:101580002DE9F04707468A467048714D714E2C216F
:10159000914698460EF0B0FF6F480FF01DFB0021FA
:1015A0006E480DF039F901210846FFF7CFF9AB6815
:1015B000686900FB03F012F0C3F8694912F014F9EE
:1015C0000446E86812F0BCF8014664480DF094FA4D
:1015D00021466248634C0DF05DFA5146384612F0E0
:1015E00003F90746484612F0ABF80146384612F0B8
:1015F000FBF812F0D5FA014658480DF09FF9002784
:1016000024E00EF013FFC0B2574B632818702ED0A1
:101610002BD9F9283BD0FE2815D10A200DF0ACFCBF
:10162000524B1B68002B00F08180012B0BD12068EE
:10163000FFF7EAFB11F032FF4D4B2861196844486F
:1016400018220DF00FFB45480DF0CAF943480DF084
:10165000DDF800283CD00EF025FF002833DD23689C
:10166000002BCED00DF024FFCDE74328EBD13B4833
:101670000DF0D0F8336800210344384833600DF092
:10168000CBF800210120FFF761F90127DBE70A20F1
:101690000DF072FC2068FFF7B7FB11F0FFFEAB689E
:1016A000686103FB00F012F04BF82D4912F09CF832
:1016B00001462A480DF0EEF92D4B254819681822ED
:1016C0000DF0D0FABFE7FEF7BBFF0028BBDBC6E793
:1016D00001460120FFF73AF9112126481D4C0EF072
:1016E0000BFF31681C480FF0C7FA1B480FF074FA63
:1016F000B8F1000F05D019480DF08CF82368184494
:10170000206011211B480EF0F7FE316812480FF0DF
:10171000B3FA11480FF060FA2B2117480EF0ECFED7
:101720000D480FF059FA3846BDE8F0872068DFF819
:101730005090FFF769FB11F0B1FE104BC9F8100093
:101740001968484618220DF08DFA7CE76471010093
:10175000F094FF1F7492FF1FE487FF1F2895FF1F5F
:101760000AD7233C4087FF1F9C93FF1FB092FF1FA7
:101770005C87FF1F94710100A87101006087FF1F43
:101780000C95FF1FF0B5294B1C6883B005460E462B
:1017900027482F2104FB02F40EF0AEFE25480FF07F
:1017A0001BFA192124480EF0A7FE284611F072FBFF
:1017B000022702460B4600971E480FF065FA1D48A7
:1017C0000FF00AFA15211D480EF096FE304611F072
:1017D00061FB009702460B4616480FF055FA154874
:1017E0000FF0FAF9172116480EF086FE214611482F
:1017F0000FF042FA0F480FF0EFF9124B1B68224628
:10180000314628466BB10123FFF7BAFE0446172183
:101810000D480EF071FE07480FF0DEF9204603B0C8
:10182000F0BD0123FFF7A8FD0446F0E76C87FF1F1A
:10183000D4710100E487FF1F0472010020720100CF
:1018400038720100B092FF1F507201002DE9F0477D
:10185000DFF8A482D8F81430012B14BF082004202C
:10186000FFF73EFBD8F81030002B40F33B819F4C34
:101870000127D8F81460002E00F04081012E40F0BE
:101880002B819B4D286811F05BFF32469949FFF789
:1018900033FC8146FFF7E8FA002840F02381B9F1D4
:1018A000000F40F01F812068DFF8409211F048FFE0
:1018B0004FF0FF324FF08041FFF764FF8246FFF7A1
:1018C000D3FA002840F00E81BAF1000F40F00A81EF
:1018D000286811F035FF4FF0FF324FF07E51FFF7CF
:1018E0000BFC8246FFF7C0FA002840F0FB80BAF1FB
:1018F000000F40F0F780D9F8000011F021FF3246C8
:101900004FF07E51FFF73EFF0646FFF7ADFA002885
:1019100040F0E880002E40F0E5802868744E11F019
:101920000FFF4FF0FF324FF07E51FFF7E5FB81468E
:10193000FFF79AFA002840F0D580B9F1000F40F087
:10194000D180206811F0FCFE4FF0FF324FF0804153
:10195000FFF718FF8146FFF787FA002840F0C280A2
:10196000B9F1000F40F0BE80306811F0E9FE0122AD
:101970006049FFF7C1FB0646FFF776FA002840F002
:10198000B180002E40F0AE80206811F0D9FE012217
:101990004FF08141FFF7F6FE0646FFF765FA002893
:1019A00040F0A080002E40F09D80206811F0C8FE1D
:1019B0004FF0FF324FF08241FFF7E4FE0646FFF79B
:1019C00053FA002840F08E80002E40F08B8028686B
:1019D000474E11F0B5FE4FF0FF324649FFF78CFB42
:1019E0008146FFF741FA00287CD1B9F1000F79D187
:1019F000206811F0A5FE01224FF08041FFF7C2FEE2
:101A00008146FFF731FA00286CD1B9F1000F69D196
:101A1000306811F095FE01224FF07E51FFF76CFB0C
:101A20008146FFF721FA00285CD1B9F1000F59D1A6
:101A3000206811F085FE4FF0FF324FF07E51FFF726
:101A4000A1FE8146FFF710FA00284BD1B9F1000F33
:101A500048D1306811F074FE01224FF07E51FFF73B
:101A60004BFB0646FFF700FA00283BD1D6BB2068A7
:101A700011F066FE01224FF08041FFF783FE06461B
:101A8000FFF7F2F970BB6EBB286811F059FE4FF0FA
:101A9000FF321849FFF730FB0546FFF7E5F908BBB1
:101AA00005BB206811F04CFE01224FF08141FFF789
:101AB00069FE0546FFF7D8F9A0B99DB9206811F075
:101AC0003FFE4FF0FF324FF08241FFF75BFE0546CD
:101AD000FFF7CAF930B92DB9D8F810300137BB4239
:101AE000BFF6C7AEBDE8F047FFF74EBA1893FF1F29
:101AF000DC95FF1F00004040B092FF1F20689A4E07
:101B000011F01EFE01229949FFF73CFE0546FFF742
:101B1000ABF90028E6D1002DE4D1954D286811F0ED
:101B20000FFE4FF0FF324FF08041FFF7E5FA81469C
:101B3000FFF79AF90028D5D1B9F1000FD2D130685A
:101B400011F0FEFD4FF0FF324FF07E51FFF71AFE0D
:101B50008146FFF789F90028C4D1B9F1000FC1D13E
:101B6000286811F0EDFD01224FF07E51FFF7C4FA15
:101B70008146FFF779F90028B4D1B9F1000FB1D14E
:101B8000306811F0DDFD4FF0FF324FF07E51FFF76E
:101B9000F9FD0646FFF768F90028A3D1002EA1D170
:101BA0002868734E11F0CCFD4FF0FF324FF08041AA
:101BB000FFF7A2FA8146FFF757F9002892D1B9F151
:101BC000000F8FD1206811F0BBFD01226749FFF79C
:101BD000D9FD8146FFF748F9002883D1B9F1000FFC
:101BE00080D1306811F0ACFD01224FF08141FFF748
:101BF00083FA8146FFF738F900287FF473AFB9F113
:101C0000000F7FF46FAF306811F09AFD4FF0FF3294
:101C10004FF08241FFF770FA0646FFF725F90028DA
:101C20007FF460AF002E7FF45DAF206811F088FD77
:101C30004FF0FF324D49FFF7A5FD0646FFF714F9B7
:101C400000287FF44FAF002E7FF44CAF2868484E39
:101C500011F076FD01224FF08041FFF74DFA8146E9
:101C6000FFF702F900287FF43DAFB9F1000F7FF4D0
:101C700039AF206811F064FD01224FF07E51FFF76B
:101C800081FD8146FFF7F0F800287FF42BAFB9F112
:101C9000000F7FF427AF306811F052FD4FF0FF3294
:101CA0004FF07E51FFF728FA8146FFF7DDF8002854
:101CB0007FF418AFB9F1000F7FF414AF206811F072
:101CC0003FFD01224FF07E51FFF75CFD8146FFF79B
:101CD000CBF800287FF406AFB9F1000F7FF402AF14
:101CE000306811F02DFD01224FF08041FFF704FA1A
:101CF0000646FFF7B9F800287FF4F4AE002E7FF413
:101D0000F1AE206811F01CFD4FF0FF321749FFF7CC
:101D100039FD0646FFF7A8F800287FF4E3AE002E51
:101D20007FF4E0AE2868124D11F00AFD01224FF059
:101D30008141FFF7E1F90646FFF796F800287FF4A6
:101D4000D1AE002E7FF4CEAE286811F0F9FC4FF032
:101D5000FF324FF08241FFF7CFF90546FFF784F8D5
:101D600000283FF4B8AEBDE61893FF1F00004040C6
:101D7000DC95FF1F2DE9F047D84F7B69012B14BF7D
:101D80000D200420FFF7ACF83B69002BC8BF4FF0D3
:101D9000010840F33C827E69002E00F04982012E4A
:101DA00040F02F82CE4D286811F0CAFC4FF0FF3270
:101DB0004FF07E51FFF7E6FC0446FFF755F8002888
:101DC00040F02582002C40F02282C64C206811F0A1
:101DD000B7FC3246C449FFF78FF90646FFF744F8CF
:101DE000002840F01482002E40F01182286811F083
:101DF000A7FC4FF0FF324FF08041FFF7C3FC0646CF
:101E0000FFF732F8002840F00282002E40F0FF81F8
:101E1000206811F095FC4FF0FF324FF07E51FFF734
:101E20006BF90646FFF720F8002840F0F081002EFD
:101E300040F0ED812868AA4E11F082FC01224FF09B
:101E40007E51FFF79FFC8146FFF70EF8002840F017
:101E5000DE81B9F1000F40F0DA812068DFF884926A
:101E600011F06EFC4FF0FF324FF07E51FFF744F956
:101E70008246FEF7F9FF002840F0C981BAF1000F51
:101E800040F0C581306811F05BFC4FF0FF3296499D
:101E9000FFF778FC8246FEF7E7FF002840F0B781A5
:101EA000BAF1000F40F0B381D9F8000011F048FCFE
:101EB00001224FF07E51FFF71FF98146FEF7D4FF54
:101EC000002840F0A481B9F1000F40F0A0813068F3
:101ED00011F036FC01224FF07E51FFF753FC06460D
:101EE000FEF7C2FF002840F09281002E40F08F8163
:101EF00020687C4E11F024FC01224FF07E51FFF748
:101F0000FBF88146FEF7B0FF002840F08081B9F170
:101F1000000F40F07C812868DFF8C49111F010FCBC
:101F20004FF0FF324FF08041FFF72CFC8246FEF766
:101F30009BFF002840F06B81BAF1000F40F06781F1
:101F4000306811F0FDFB4FF0FF326749FFF7D4F81E
:101F50008246FEF789FF002840F05981BAF1000F50
:101F600040F05581D9F8000011F0EAFB01225F49E9
:101F7000FFF708FC8146FEF777FF002840F0478115
:101F8000B9F1000F40F04381306811F0D9FB012214
:101F90004FF08141FFF7B0F80646FEF765FF0028D5
:101FA00040F03581002E40F0328128684C4E11F00F
:101FB000C7FB4FF0FF324E49FFF7E4FB8146FEF7C7
:101FC00053FF002840F02381B9F1000F40F01F813A
:101FD0002068DFF8109111F0B3FB4FF0FF32424957
:101FE000FFF78AF88246FEF73FFF002840F00F8196
:101FF000BAF1000F40F00B81306811F0A1FB4FF0F7
:10200000FF324FF08041FFF7BDFB8246FEF72CFF09
:10201000002840F0FC80BAF1000F40F0F880D9F8B9
:10202000000011F08DFB01224FF07E51FFF764F8A4
:102030008146FEF719FF002840F0E980B9F1000F52
:1020400040F0E580306811F07BFB01224FF07E51BB
:10205000FFF798FB0646FEF707FF002840F0D78001
:10206000002E40F0D48020681E4E11F069FB012242
:102070004FF07E51FFF740F88146FEF7F5FE00284D
:1020800040F0C580B9F1000F40F0C1802868DFF84A
:10209000509011F055FB4FF0FF321349FFF772FBE0
:1020A0008246FEF7E1FE002840F0B180BAF1000F51
:1020B00040F0AD80306811F043FB4FF0FF324FF03D
:1020C0007E51FFF719F88246FEF7CEFE002840F059
:1020D0009E80BAF1000F40F09A800BE0B092FF1F93
:1020E0001893FF1FDC95FF1F000040400000C04018
:1020F0000000E040D9F8000011F022FB01224FF06F
:102100007E51FFF73FFB8146FEF7AEFE00287ED1F1
:10211000B9F1000F7BD1306811F012FB4FF0FF32A4
:102120004FF07E51FEF7E8FF0646FEF79DFE0028C1
:102130006DD1002E6BD12868374E11F001FB4FF0A6
:10214000FF324FF08041FFF71DFB8146FEF78CFE0A
:1021500000285CD1B9F1000F59D120682F4C11F043
:10216000EFFA01222E49FEF7C7FF8146FEF77CFEFB
:1021700000284CD1B9F1000F49D1306811F0E0FAD4
:1021800001222849FFF7FEFA8146FEF76DFE00287E
:102190003DD1B9F1000F3AD1306811F0D1FA4FF0CA
:1021A000FF322149FFF7EEFA0646FEF75DFE70BBEF
:1021B0006EBB206811F0C4FA4FF0FF324FF081413E
:1021C000FEF79AFF0446FEF74FFE00BBFCB92868F5
:1021D000114C11F0B5FA01221449FFF7D3FA054664
:1021E000FEF742FE98B995B9206811F0A9FA4FF0B0
:1021F000FF320E49FFF7C6FA0446FEF735FE30B946
:102200002CB93B6908F101084345BFF6C4ADBDE8F0
:10221000F047FEF7B9BE00BF1893FF1FDC95FF1F04
:10222000000040400000A0400000C0400000E0402E
:10223000D04C206811F084FA4FF0FF324FF07E51FD
:10224000FEF75AFF0546FEF70FFE0028DFD1002DEE
:10225000DDD1C94D286811F073FA0122C749FFF793
:1022600091FA0646FEF700FE0028D0D1002ECED10E
:10227000206811F065FA4FF0FF324FF08041FEF711
:102280003BFF0646FEF7F0FD0028C0D1002EBED170
:10229000286811F055FA4FF0FF324FF07E51FFF7EA
:1022A00071FA0646FEF7E0FD0028B0D1002EAED14F
:1022B000206811F045FA01224FF07E51FEF71CFF15
:1022C0000646FEF7D1FD0028A1D1002E9FD1286837
:1022D000A94E11F035FA4FF0FF324FF07E51FFF763
:1022E00051FA8146FEF7C0FD002890D1B9F1000FE8
:1022F0008DD12068DFF87C9211F022FA4FF0FF3286
:102300009E49FEF7F9FE8246FEF7AEFD00287FF4F7
:102310007EAFBAF1000F7FF47AAF306811F010FA97
:1023200001224FF07E51FFF72DFA8246FEF79CFD09
:1023300000287FF46CAFBAF1000F7FF468AFD9F8D2
:10234000000011F0FDF901224FF07E51FEF7D4FE9E
:102350008146FEF789FD00287FF459AFB9F1000FDF
:102360007FF455AF306811F0EBF901224FF07E5148
:10237000FFF708FA0646FEF777FD00287FF447AF1F
:10238000002E7FF444AF20687A4E11F0D9F94FF057
:10239000FF324FF08041FEF7AFFE8146FEF764FD4D
:1023A00000287FF434AFB9F1000F7FF430AF286814
:1023B000DFF8C49111F0C4F94FF0FF326F49FFF715
:1023C000E1F98246FEF750FD00287FF420AFBAF114
:1023D000000F7FF41CAF306811F0B2F90122684998
:1023E000FEF78AFE8246FEF73FFD00287FF40FAF1E
:1023F000BAF1000F7FF40BAFD9F8000011F0A0F98B
:1024000001224FF08141FFF7BDF98146FEF72CFD17
:1024100000287FF4FCAEB9F1000F7FF4F8AE30680D
:1024200011F08EF94FF0FF325649FEF765FE064671
:10243000FEF71AFD00287FF4EAAE002E7FF4E7AE27
:1024400028684D4E11F07CF94FF0FF324B49FFF7F1
:1024500099F98146FEF708FD00287FF4D8AEB9F15E
:10246000000F7FF4D4AE2068DFF8089111F068F90E
:102470004FF0FF324FF08041FEF73EFE8246FEF7FE
:10248000F3FC00287FF4C3AEBAF1000F7FF4BFAEB7
:10249000306811F055F901224FF07E51FFF772F9C3
:1024A0008246FEF7E1FC00287FF4B1AEBAF1000FDE
:1024B0007FF4ADAED9F8000011F042F901224FF0DF
:1024C0007E51FEF719FE8146FEF7CEFC00287FF410
:1024D0009EAEB9F1000F7FF49AAE306811F030F97A
:1024E00001224FF07E51FFF74DF90646FEF7BCFC86
:1024F00000287FF48CAE002E7FF489AE20681D4E3C
:1025000011F01EF94FF0FF321C49FEF7F5FD814630
:10251000FEF7AAFC00287FF47AAEB9F1000F7FF431
:1025200076AE2868DFF8509011F00AF94FF0FF32CC
:102530004FF07E51FFF726F98246FEF795FC002802
:102540007FF465AEBAF1000F7FF461AE306811F030
:10255000F7F801224FF07E51FEF7CEFD8246FEF7DE
:1025600083FC00287FF453AEBAF1000F7FF44FAE26
:102570000AE000BFDC95FF1F1893FF1F00004040DA
:102580000000C0400000E040D9F8000011F0D8F889
:102590004FF0FF324FF07E51FFF7F4F88146FEF71F
:1025A00063FC00287FF433AEB9F1000F7FF42FAE47
:1025B000306811F0C5F84FF0FF324FF08041FEF760
:1025C0009BFD0646FEF750FC00287FF420AE002E4F
:1025D0007FF41DAE2868324E11F0B2F80122314965
:1025E000FFF7D0F80546FEF73FFC00287FF40FAE5A
:1025F000002D7FF40CAE20682B4D11F0A1F80122C4
:102600002A49FEF779FD8146FEF72EFC00287FF46B
:10261000FEADB9F1000F7FF4FAAD286811F090F823
:102620004FF0FF322249FEF767FD8146FEF71CFCA2
:1026300000287FF4ECADB9F1000F7FF4E8AD30680D
:1026400011F07EF84FF0FF324FF08141FFF79AF81A
:102650000646FEF709FC00287FF4D9AD002E7FF472
:10266000D6AD286811F06CF801221249FEF744FD3E
:102670000546FEF7F9FB00287FF4C9AD002D7FF475
:10268000C6AD206811F05CF84FF0FF320949FEF743
:1026900033FD0446FEF7E8FB00283FF4B1ADB6E594
:1026A0001893FF1F00004040DC95FF1F0000A04072
:1026B0000000C0400000E0402DE9F84F8E4E7369E5
:1026C000012B14BF04200320FEF70AFC3369002B02
:1026D00040F38A80DFF82C82884FC1460125746957
:1026E000002C00F08580012C79D13868DFF80CA22D
:1026F00011F026F822468249FEF7FEFC8346FEF7DB
:10270000B3FB002870D1BBF1000F6DD1D8F80000E9
:1027100011F016F84FF0FF327949FFF733F883468E
:10272000FEF7A2FB00285FD1BBF1000F5CD1DAF805
:10273000000011F005F84FF0FF324FF08041FEF736
:10274000DBFC8246FEF790FB00284DD1BAF1000F6A
:102750004AD1D9F8000010F0F3FF22464FF07E5125
:10276000FFF710F80446FEF77FFB00283CD1DCBBE6
:10277000386810F0E5FF01224FF07E51FEF7BCFCF7
:102780000446FEF771FB78BB74BBD8F8000010F06C
:10279000D7FF01224FF07E51FEF7F4FF0446FEF70B
:1027A00063FB08BB04BB386810F0CAFF4FF0FF3270
:1027B0004FF08041FEF7A0FC0446FEF755FB98B9A8
:1027C00094B9D8F8000010F0BBFF4FF0FF324C492D
:1027D000FEF7D8FF0446FEF747FB28B924B9336952
:1027E0000135AB42BFF67BAFBDE8F84FFEF7CCBB7F
:1027F000D8F8000010F0A4FF01224149FEF7C2FF03
:102800000446FEF731FB0028EED1002CECD13868ED
:102810003A4C10F095FF4FF0FF323949FEF76CFC4F
:102820008246FEF721FB0028DED1BAF1000FDBD192
:10283000D9F8000010F084FF4FF0FF324FF08041D4
:10284000FEF7A0FF8246FEF70FFB0028CCD1BAF1BD
:10285000000FC9D1206810F073FF01224FF07E51A4
:10286000FEF74AFC0446FEF7FFFA0028BCD1002C14
:10287000BAD1D9F8000010F063FF01224FF07E5169
:10288000FEF780FF0446FEF7EFFA0028ACD1002CDB
:10289000AAD1386810F054FF01224FF07E51FEF7A4
:1028A0002BFC0446FEF7E0FA00289DD1002C9BD1BA
:1028B000D8F8000010F044FF4FF0FF324FF0804195
:1028C000FEF760FF0446FEF7CFFA00288CD1002CFB
:1028D0008AD1386810F034FF4FF0FF320849FEF714
:1028E0000BFC0446FEF7C0FA00283FF477AFBDE8C2
:1028F000F84FFEF749BB00BFB092FF1FDC95FF1FEA
:10290000000040401893FF1F2DE9F047DFF8608278
:10291000D8F81430012B14BF08200320FEF7E0FA8A
:10292000D8F81030002B40F317818D4C0127A146B9
:10293000D8F81460002E00F01D81012E40F00681B1
:10294000884D286810F0FCFE32468749FEF7D4FB1C
:102950008246FEF789FA002840F0FE80BAF1000FA7
:1029600040F0FA80206810F0EBFE4FF0FF327E4915
:10297000FEF708FF8246FEF777FA002840F0EC8069
:10298000BAF1000F40F0E880286810F0D9FE4FF04F
:10299000FF324FF08041FEF7AFFB8246FEF764FA4C
:1029A000002840F0D980BAF1000F40F0D580D9F866
:1029B000000010F0C5FE32464FF07E51FEF7E2FEF9
:1029C0000646FEF751FA002840F0C680002E40F07F
:1029D000C3802868634E10F0B3FE01224FF07E5191
:1029E000FEF78AFB8246FEF73FFA002840F0B480EB
:1029F000BAF1000F40F0B080206810F0A1FE012273
:102A00004FF07E51FEF7BEFE8246FEF72DFA0028FB
:102A100040F0A280BAF1000F40F09E80306810F0C4
:102A20008FFE4FF0FF324FF08041FEF765FB82468C
:102A3000FEF71AFA002840F08F80BAF1000F40F03C
:102A40008B80206810F07CFE4FF0FF324749FEF784
:102A500099FE8246FEF708FA00287DD1BAF1000FF0
:102A60007AD1306810F06CFE01224FF08041FEF701
:102A700043FB0646FEF7F8F900286DD1002E6BD116
:102A8000206810F05DFE01224FF07E51FEF77AFEC5
:102A90000646FEF7E9F900285ED1002E5CD12868D1
:102AA000304E10F04DFE4FF0FF324FF07E51FEF7EA
:102AB00023FB8246FEF7D8F900284DD1BAF1000F6A
:102AC0004AD1206810F03CFE01224FF07E51FEF703
:102AD00059FE8246FEF7C8F900283DD1BAF1000F31
:102AE0003AD1306810F02CFE01224FF08041FEF701
:102AF00003FB0646FEF7B8F970BB6EBB206810F00A
:102B00001FFE4FF0FF321849FEF73CFE0646FEF767
:102B1000ABF908BB06BB286810F012FE4FF0FF327D
:102B20001149FEF7E9FA0546FEF79EF9A0B99DB9ED
:102B3000206810F005FE4FF0FF324FF07E51FEF797
:102B400021FE0546FEF790F930B92DB9D8F81030BE
:102B50000137BB42BFF6ECAEBDE8F047FEF714BA52
:102B60001893FF1FDC95FF1F000040400000A040AD
:102B7000B092FF1F206810F0E3FD01228649FEF7A6
:102B800001FE0546FEF770F90028E5D1002DE3D1DE
:102B9000824D286810F0D4FD4FF0FF327E49FEF7D9
:102BA000ABFA0646FEF760F90028D5D1002ED3D146
:102BB000D9F8000010F0C4FD4FF0FF324FF0804113
:102BC000FEF7E0FD0646FEF74FF90028C4D1002EBF
:102BD000C2D1286810F0B4FD01224FF07E51FEF7FB
:102BE0008BFA0646FEF740F90028B5D1002EB3D186
:102BF000D9F8000010F0A4FD01224FF07E51FEF73D
:102C0000C1FD0646FEF730F90028A5D1002EA3D15C
:102C10002868624E10F094FD01224FF07E51FEF7BD
:102C20006BFA8246FEF720F9002895D1BAF1000F21
:102C300092D1206810F084FD4FF0FF324FF08041B8
:102C4000FEF7A0FD8246FEF70FF9002884D1BAF105
:102C5000000F81D1306810F073FD4FF0FF32504902
:102C6000FEF74AFA8246FEF7FFF800287FF474AFB9
:102C7000BAF1000F7FF470AF206810F061FD0122FF
:102C80004FF08041FEF77EFD8246FEF7EDF800280A
:102C90007FF462AFBAF1000F7FF45EAF306810F0DE
:102CA0004FFD01224FF07E51FEF726FA0646FEF751
:102CB000DBF800287FF450AF002E7FF44DAF206882
:102CC00010F03EFD4FF0FF324FF07E51FEF75AFDFF
:102CD0000646FEF7C9F800287FF43EAF002E7FF4C9
:102CE0003BAF28682D4E10F02BFD01224FF07E5196
:102CF000FEF702FA8246FEF7B7F800287FF42CAF01
:102D0000BAF1000F7FF428AF206810F019FD0122FE
:102D10004FF08041FEF736FD8246FEF7A5F8002809
:102D20007FF41AAFBAF1000F7FF416AF306810F0DD
:102D300007FD4FF0FF321849FEF7DEF90646FEF7B1
:102D400093F800287FF408AF002E7FF405AF2068C9
:102D500010F0F6FC4FF0FF320F49FEF713FD064668
:102D6000FEF782F800287FF4F7AE002E7FF4F4AE71
:102D7000286810F0E5FC4FF0FF324FF07E51FEF76F
:102D8000BBF90546FEF770F800283FF4DEAEBDE85B
:102D9000F047FEF7F9B800BF00004040DC95FF1F88
:102DA0000000A0402DE9F84F914E7369012B14BF2C
:102DB00003200220FEF794F83369002B40F38E8045
:102DC0008C4FDFF83482BA46C14601257469002C65
:102DD00000F08880012C7CD1D8F8000010F0B0FC05
:102DE00022464FF08041FEF7CDFC8346FEF73CF8CB
:102DF000002873D1BBF1000F70D1D9F8000010F09A
:102E00009FFC4FF0FF324FF08041FEF7BBFC834642
:102E1000FEF72AF8002861D1BBF1000F5ED13868B7
:102E200010F08EFC22464FF08041FEF765F9044613
:102E3000FEF71AF8002851D1002C4FD1D9F8000024
:102E400010F07EFC4FF0FF324FF08041FEF79AFC0D
:102E50000446FEF709F8002840D1002C3ED138681E
:102E600010F06EFC4FF0FF324FF07E51FEF744F948
:102E70000446FDF7F9FF88BB84BBD8F8000010F0CA
:102E80005FFC4FF0FF324FF07E51FEF77BFC0446B3
:102E9000FDF7EAFF10BB0CBB386810F051FC4FF097
:102EA000FF324FF07E51FEF727F90446FDF7DCFFB5
:102EB000A0B99CB9D8F8000010F042FC4FF0FF32E6
:102EC0004FF08041FEF75EFC0446FDF7CDFF28B9C8
:102ED00024B933690135AB42BFF678AFBDE8F84F8E
:102EE000FEF752B8386810F02BFC01224FF08041F9
:102EF000FEF702F90446FDF7B7FF0028EED1002CDB
:102F0000ECD1DAF8000010F01BFC4FF0FF324FF06C
:102F10008041FEF7F1F80446FDF7A6FF0028DDD159
:102F2000002CDBD1D8F8000010F00AFC01224FF091
:102F30008041FEF727FC0446FDF796FF0028CDD11F
:102F4000002CCBD1DAF8000010F0FAFB4FF0FF3282
:102F50004FF08041FEF7D0F80446FDF785FF0028CA
:102F6000BCD1002CBAD1D9F8000010F0E9FB4FF029
:102F7000FF324FF07E51FEF705FC0446FDF774FF6B
:102F80000028ABD1002CA9D1386810F0D9FB012260
:102F90004FF07E51FEF7B0F80446FDF765FF0028BC
:102FA0009CD1002C9AD1D8F8000010F0C9FB4FF04A
:102FB000FF324FF07E51FEF7E5FB0446FDF754FF6C
:102FC00000288BD1002C89D1386810F0B9FB4FF064
:102FD000FF324FF08041FEF78FF80446FDF744FFC3
:102FE00000283FF475AFBDE8F84FFDF7CDBF00BF37
:102FF000B092FF1FDC95FF1F1893FF1F2DE9F047CC
:10300000DFF81482D8F81430012B14BF06200220F8
:10301000FDF766FFD8F81030002B40F3F2807B4CB0
:103020007B4DA2460127D8F81460002E00F0F680F0
:10303000012E40F0E0802868DFF8D49110F080FB8A
:1030400032464FF07E51FEF79DFB0646FDF70CFF22
:10305000002840F0D680002E40F0D380D9F8000040
:1030600010F06EFB4FF0FF324FF07E51FEF78AFBFF
:103070000646FDF7F9FE002840F0C380002E40F020
:10308000C080206810F05CFB4FF0FF324FF08041B1
:10309000FEF732F80646FDF7E7FE002840F0B18063
:1030A000002E40F0AE80D9F8000010F049FB4FF040
:1030B000FF324FF08041FEF765FB0646FDF7D4FE78
:1030C000002840F09E80002E40F09B80206810F089
:1030D00037FB4FF0FF324FF08041FEF70DF8064608
:1030E000FDF7C2FE002840F08C80002E40F0898061
:1030F000286810F025FB01224FF07E51FEF742FBBD
:103100000646FDF7B1FE00287BD1002E79D120685C
:1031100010F016FB4FF0FF324FF07E51FDF7ECFF41
:103120000646FDF7A1FE00286BD1002E69D1286864
:1031300010F006FB4FF0FF323649FEF723FB064640
:10314000FDF792FE00285CD1002E5AD1206810F0C5
:10315000F7FA01224FF07E51FDF7CEFF0646FDF74C
:1031600083FE00284DD1002E4BD1286810F0E8FADC
:1031700001224FF07E51FEF705FB0646FDF774FE77
:1031800000283ED1002E3CD1206810F0D9FA01224F
:103190004FF07E51FDF7B0FF0646FDF765FE80BBA0
:1031A0007EBB286810F0CCFA4FF0FF324FF0804120
:1031B000FEF7E8FA0646FDF757FE10BB0EBB206887
:1031C00010F0BEFA4FF0FF324FF08041FDF794FF50
:1031D0000646FDF749FEA0B99EB9286810F0B0FA7E
:1031E0004FF0FF324FF07E51FEF7CCFA0646FDF766
:1031F0003BFE30B92EB9D8F810300137BB42BFF6CC
:1032000012AFBDE8F047FDF7BFBE00BFDC95FF1F62
:103210001893FF1F00004040B092FF1F206810F07D
:103220008FFA01224FF07E51FDF766FF0646FDF74B
:103230001BFE0028E5D1002EE3D1DAF8000010F0E3
:103240007FFA4FF0FF324FF07E51FDF755FF0646F3
:10325000FDF70AFE0028D4D1002ED2D12868664E90
:1032600010F06EFA01224FF08041FEF78BFA814692
:10327000FDF7FAFD0028C4D1B9F1000FC1D1DAF889
:10328000000010F05DFA4FF0FF324FF08041FDF783
:1032900033FF8146FDF7E8FD0028B2D1B9F1000FF8
:1032A000AFD1306810F04CFA4FF0FF324FF07E5142
:1032B000FEF768FA0646FDF7D7FD0028A1D1002EDB
:1032C0009FD1206810F03CFA01224FF07E51FDF7AB
:1032D00013FF0646FDF7C8FD002892D1002E90D1BD
:1032E000286810F02DFA4FF0FF324FF07E51FEF7B4
:1032F00049FA0646FDF7B8FD002882D1002E80D19C
:10330000206810F01DFA4FF0FF323C49FDF7F4FE43
:103310000646FDF7A9FD00287FF473AF002E7FF469
:1033200070AF286810F00CFA01224FF07E51FEF7C2
:1033300029FA0646FDF798FD00287FF462AF002EBB
:103340007FF45FAF206810F0FBF901224FF07E514F
:10335000FDF7D2FE0646FDF787FD00287FF451AF4A
:10336000002E7FF44EAF286810F0EAF901224FF0EA
:103370007E51FEF707FA0646FDF776FD00287FF43A
:1033800040AF002E7FF43DAF206810F0D9F94FF028
:10339000FF324FF08041FDF7AFFE0646FDF764FDBA
:1033A00000287FF42EAF002E7FF42BAF286810F09A
:1033B000C7F94FF0FF324FF08041FEF7E3F90646C0
:1033C000FDF752FD00287FF41CAF002E7FF419AFEB
:1033D000206810F0B5F94FF0FF324FF07E51FDF745
:1033E0008BFE0646FDF740FD00283FF403AFBDE825
:1033F000F047FDF7C9BD00BF1893FF1F0000404014
:1034000038B50F4B1C68012C4FF000030FD0FEF7AE
:10341000B7F8002105460120FDF798FA1B2109485D
:103420000DF06AF808480DF0D7FB284638BDFDF7C7
:10343000A3FF002105462046FDF788FAEEE700BF0E
:10344000B092FF1F68720100E487FF1F70B582B061
:1034500000231D4C1D4D1E4E019309E0019B286861
:1034600018440BF0D7FB019B0133142B019313DCA1
:103470000CF01EF8C0B2FF282368014619D0082BB3
:10348000ECD1019B32680146D0180BF0C3FB019BC5
:103490000133142B0193EBDD2368082B0CBF0D4B7C
:1034A0000D4B042219680DEB02000BF0DBFB02B0A0
:1034B00070BD082B0CBF064A044A019B106800210E
:1034C00018440BF0A7FBE7E76887FF1F5487FF1F2F
:1034D0005887FF1F4C87FF1F5087FF1F08B5084BF9
:1034E0001B680146184610F07FF906490EF088FA6D
:1034F0000EF0EEF9044B196810F076F908BD00BF24
:103500006094FF1FDB0FC940E495FF1F214A224B47
:1035100070B556681868214B5D6810F011F90146C6
:103520001F4810F015FA0446304610F009F901461C
:10353000204610F059F9FFF7D1FF1A4B04461E68D8
:1035400072B6284610F0FCF80146204610F042F80A
:103550001549164C10F0FCF90546304610F0F0F80D
:103560000146284610F0F4F9A16F10F03DF9616FA3
:10357000206710F0F5FA38B9D4F8803003F1004331
:10358000C4F8843062B670BDD4F88030C4F884309A
:1035900062B670BD7892FF1F0C98FF1FC896FF1F80
:1035A000DB0FC9409C96FF1FCDCCCC3C6894FF1F1D
:1035B00070B598B0B149B24C01A80DF0D5FC01A985
:1035C000B0480DF0E3FA01A9AF480DF0DFFA01A809
:1035D0000DF08AFC22200DF013F822200BF01AFFC8
:1035E000AA4901A80DF0C0FC01A9A6480DF0CEFA29
:1035F00001A9A5480DF0CAFA01A80DF075FC22201A
:103600000CF0FEFF22200BF005FFFF200CF0F8FF6E
:10361000FF200BF0FFFEFF200CF0F2FFFF200BF06D
:10362000F9FEFF200CF0ECFFFF200BF0F3FE4FF44F
:10363000FA600BF0A1FC0BF03BFFC0B2206001E090
:103640000BF036FF0BF024FF0028F9DC13218B4828
:103650000BF0EAFE22200BF0DDFE05218C480BF07A
:10366000E3FE216888480DF007FB22200BF0D2FE14
:10367000FF200BF0CFFEFF200BF0CCFEFF200BF065
:10368000C9FE4FF4FA600BF077FC2368102B00F2B0
:10369000D980DFE813F08901D700D7000902900331
:1036A000DB02D7003D047C02D7000304560311005F
:1036B000D700D70011011101764B1D6801AC2D1BFD
:1036C00012AE28190BF08CFA04F8010BB442F8D1B1
:1036D00013216A480BF0A8FE22200BF09BFE162156
:1036E0006D480BF0A1FE019967480DF0C5FA222044
:1036F0000BF090FEFF200BF08DFEFF200BF08AFEFA
:10370000FF200BF087FE4FF4FA600BF035FC13211D
:103710005A480BF089FE22200BF07CFE13215F48F3
:103720000BF082FE029958480DF0A6FA22200BF009
:1037300071FEFF200BF06EFEFF200BF06BFEFF20F2
:103740000BF068FE4FF4FA600BF016FC13214B48A7
:103750000BF06AFE22200BF05DFE142150480BF0A6
:1037600063FE039948480DF087FA22200BF052FEC1
:10377000FF200BF04FFEFF200BF04CFEFF200BF064
:1037800049FE4FF4FA600BF0F7FB13213B480BF0B6
:103790004BFE22200BF03EFE112142480BF044FE6E
:1037A000049939480DF068FA22200BF033FEFF200F
:1037B0000BF030FEFF200BF02DFEFF200BF02AFE59
:1037C0004FF4FA600BF0D8FB13212C480BF02CFEC1
:1037D00022200BF01FFE142133480BF025FE059923
:1037E00029480DF049FA22200BF014FEFF200BF0BF
:1037F00011FEFF200BF00EFEFF200BF00BFE4FF42E
:10380000FA600BF0B9FB13211C480BF00DFE2220CF
:103810000BF000FE112125480BF006FE06991A4810
:103820000DF02AFA22200BF0F5FDFF200BF0F2FD3F
:10383000FF200BF0EFFDFF200BF0ECFD4FF4FA60E2
:103840000BF09AFB17211A480BF0EEFDFF200BF04E
:10385000E1FDFF200BF0DEFDFF200BF0DBFD14216E
:1038600014480BF0E1FDFF200BF0D4FDFF200BF01E
:10387000D1FDFF200BF0CEFD18B070BD84720100A9
:103880006887FF1FE487FF1FC487FF1F987201002E
:10389000A07201002487FF1F94740100AC74010022
:1038A000C0740100D8740100EC74010004750100BB
:1038B00094750100AC750100D14B1B68002B40F0E2
:1038C0008F83D04B1D6801AC2D1B07AE28190BF060
:1038D00087F904F8010BA642F8D11321CA480BF06E
:1038E000A3FD22200BF096FD1521C8480BF09CFD8E
:1038F0000199C7480DF0C0F922200BF08BFDFF2085
:103900000BF088FDFF200BF085FDFF200BF082FD02
:103910004FF4FA600BF030FB1321BB480BF084FD31
:1039200022200BF077FD1221BA480BF07DFD0299A1
:10393000B7480DF0A1F922200BF06CFDFF200BF031
:1039400069FDFF200BF066FDFF200BF063FD4FF4D7
:10395000FA600BF011FB1321AB480BF065FD222040
:103960000BF058FD1321AC480BF05EFD0399A848FD
:103970000DF082F922200BF04DFDFF200BF04AFDE7
:10398000FF200BF047FDFF200BF044FD4FF4FA60E1
:103990000BF0F2FA13219C480BF046FD22200BF0AD
:1039A00039FD10219D4826E19D4B1D6801AC2D1B62
:1039B0000FAE28190BF014F904F8010BA642F8D148
:1039C000132191480BF030FD22200BF023FD0E2136
:1039D00094480BF029FD02998D480DF04DF92220F5
:1039E0000BF018FDFF200BF015FDFF200BF012FD72
:1039F000FF200BF00FFD4FF4FA600BF0BDFA13211E
:103A000081480BF011FD22200BF004FD0B218648AC
:103A10000BF00AFD0A997E480DF02EF922200BF0DA
:103A2000F9FCFF200BF0F6FCFF200BF0F3FCFF206D
:103A30000BF0F0FC4FF4FA600BF09EFA0E9B012B9A
:103A400000F04384022B00F03E83002B7FF4FAAE9B
:103A500013216D480BF0E8FC22200BF0DBFC102159
:103A600072480BF0E1FC039969480DF005F922203A
:103A70000BF0D0FCFF200BF0CDFCFF200BF0CAFCBC
:103A8000FF200BF0C7FC4FF4FA600BF075FA13211E
:103A90005D480BF0C9FC22200BF0BCFC0D216448F2
:103AA0000BF0C2FC0B99BAE6624B1D6801AC2D1BF2
:103AB00007AE28190BF094F804F8010BA642F8D1D0
:103AC000132151480BF0B0FC22200BF0A3FC0F2176
:103AD00059480BF0A9FC01994D480DF0CDF8222072
:103AE0000BF098FCFF200BF095FCFF200BF092FCF4
:103AF000FF200BF08FFC4FF4FA600BF03DFA13211E
:103B000041480BF091FC22200BF084FC0C214B4827
:103B10000BF08AFC02993E480DF0AEF822200BF023
:103B200079FCFF200BF076FCFF200BF073FCFF20EC
:103B30000BF070FC4FF4FA600BF01EFA13213248C0
:103B40000BF072FC22200BF065FC102137480BF0C3
:103B50006BFC03992E480DF08FF822200BF05AFCD5
:103B6000FF200BF057FCFF200BF054FCFF200BF064
:103B700051FC4FF4FA600BF0FFF9132122480BF0CF
:103B800053FC22200BF046FC0D21294833E02C4B3E
:103B90001D6801AC2D1B05AE28190BF021F804F8A7
:103BA000010BA642F8D1132117480BF03DFC22204F
:103BB0000BF030FC102123480BF036FC029914481E
:103BC0000DF05AF822200BF025FCFF200BF022FC10
:103BD000FF200BF01FFCFF200BF01CFC4FF4FA60E1
:103BE0000BF0CAF9132108480BF01EFC22200BF041
:103BF00011FC15480D210BF017FC04990FE600BFCE
:103C0000B092FF1F6087FF1F8472010018750100CA
:103C1000C487FF1F3075010044750100587501000D
:103C20007887FF1FA8720100B8720100C4720100FA
:103C3000D87201007487FF1F3073010040730100C8
:103C40006487FF1F3074010044740100D04B1D686D
:103C500001AC2D1B18AE28190AF0C2FF04F8010BA5
:103C6000A642F8D11321CB480BF0DEFB22200BF04B
:103C7000D1FB1621C8480BF0D7FB0199C7480CF0BF
:103C8000FBFF22200BF0C6FBFF200BF0C3FBFF2045
:103C90000BF0C0FBFF200BF0BDFB4FF4FA600BF004
:103CA0006BF91321BB480BF0BFFB22200BF0B2FBDA
:103CB0001321BB480BF0B8FB0299B8480CF0DCFFAD
:103CC00022200BF0A7FBFF200BF0A4FBFF200BF042
:103CD000A1FBFF200BF09EFB4FF4FA600BF04CF9B8
:103CE000B04BAC485B6D1321002B40F027810BF0EB
:103CF0009BFB22200BF08EFB1021AB480BF094FBBA
:103D00000399A6480CF0B8FF22200BF083FBFF209C
:103D10000BF080FBFF200BF07DFBFF200BF07AFB0C
:103D20004FF4FA600BF028F913219A480BF07CFB52
:103D300022200BF06FFB0D219C480BF075FB0899BE
:103D40006DE59B4B1C680DF1030504F10806204648
:103D50000AF046FF0134A64205F8010FF7D11321FE
:103D60008C480BF061FB22200BF054FB0F21914893
:103D70000BF05AFB019989480CF07EFF22200BF0D2
:103D800049FBFF200BF046FBFF200BF043FBFF201D
:103D90000BF040FB4FF4FA600BF0EEF813217D4876
:103DA0000BF042FB22200BF035FB0C2182480BF07C
:103DB0003BFB029933E5814B1D6801AC2D1B07AE1F
:103DC00028190AF00DFF04F8010BA642F8D11321BF
:103DD00070480BF029FB22200BF01CFB0F217848C8
:103DE0000BF022FB01996D480CF046FF22200BF0EE
:103DF00011FBFF200BF00EFBFF200BF00BFBFF2055
:103E00000BF008FB4FF4FA600BF0B6F81321614891
:103E10000BF00AFB22200BF0FDFA0C2169480BF095
:103E200003FB02995D480CF027FF22200BF0F2FA09
:103E3000FF200BF0EFFAFF200BF0ECFAFF200BF065
:103E4000E9FA4FF4FA600BF097F8132151480BF0A0
:103E5000EBFA22200BF0DEFA10215B480BF0E4FABB
:103E600003994E480CF008FF22200BF0D3FAFF20F4
:103E70000BF0D0FAFF200BF0CDFAFF200BF0CAFABE
:103E80004FF4FA600BF078F8132142480BF0CCFAAB
:103E900022200BF0BFFA0D214C48ACE64C4B1C68BD
:103EA0000DF1030504F1080620460AF099FE0134DD
:103EB000A64205F8010FF7D1132136480BF0B4FAEA
:103EC00022200BF0A7FA0F2142480BF0ADFA01991E
:103ED00032480CF0D1FE22200BF09CFAFF200BF0B0
:103EE00099FAFF200BF096FAFF200BF093FA4FF4AB
:103EF000FA600BF041F8132126480BF095FA2220C6
:103F00000BF088FA0C2134480BF08EFA029986E403
:103F1000324B1D6801AC2D1B0FAE28190AF060FE54
:103F200004F8010BA642F8D1019B032B3FF68AACA3
:103F3000DFE813F09E0171014401F6000BF074FA02
:103F400022200BF067FA10211F480BF06DFA04993C
:103F500012480CF091FE22200BF05CFAFF200BF0CF
:103F600059FAFF200BF056FAFF200BF053FA4FF4EA
:103F7000FA600BF001F8132106480BF055FA2220E5
:103F80000BF048FA0D2111480BF04EFA099946E45E
:103F90002C87FF1F8472010070730100C487FF1F0C
:103FA00088730100F493FF1FC4720100D8720100EE
:103FB0003887FF1F74740100847401007087FF1F2D
:103FC0005073010060730100E8720100FC7201008F
:103FD0003C87FF1F54740100647401003487FF1F85
:103FE000D04B1D6801AC2D1B07AE28190AF0F8FD57
:103FF00004F8010BA642F8D11321CB480BF014FAB8
:1040000022200BF007FA1521C8480BF00DFA019990
:10401000C7480CF031FE22200BF0FCF9FF200BF01A
:10402000F9F9FF200BF0F6F9FF200BF0F3F94FF44C
:10403000FA600AF0A1FF1321BB480BF0F5F922202A
:104040000BF0E8F91221BB480BF0EEF90299B848E1
:104050000CF012FE22200BF0DDF9FF200BF0DAF954
:10406000FF200BF0D7F9FF200BF0D4F94FF4FA60E2
:104070000AF082FF1321AC480BF0D6F922200BF096
:10408000C9F91321AC480BF0CFF90399A8480CF0FB
:10409000F3FD22200BF0BEF9FF200BF0BBF9FF204F
:1040A0000BF0B8F9FF200BF0B5F94FF4FA600AF005
:1040B00063FF13219C480BF0B7F922200BF0AAF9FB
:1040C00010219E4897E5132197480BF0ADF9222067
:1040D0000BF0A0F910219A480BF0A6F90599944825
:1040E0000CF0CAFD22200BF095F9FF200BF092F99D
:1040F000FF200BF08FF9FF200BF08CF94FF4FA60E2
:104100000AF03AFF132188480BF08EF922200BF0B9
:1041100081F90D218B480BF087F90D99FFF77FBBD3
:10412000132181480BF080F922200BF073F9112143
:1041300085480BF079F902997D480CF09DFD22200D
:104140000BF068F9FF200BF065F9FF200BF062F926
:10415000FF200BF05FF94FF4FA600AF00DFF132116
:1041600071480BF061F922200BF054F90E217748C9
:104170000BF05AF90A996E480CF07EFD22200BF0E4
:1041800049F9FF200BF046F9FF200BF043F9FF201F
:104190000BF040F94FF4FA600AF0EEFE132162488A
:1041A0000BF042F922200BF035F90F2168480BF093
:1041B0003BF9684B5E48596AFFF732BB13215A48F6
:1041C0000BF032F922200BF025F90E2162480BF09A
:1041D0002BF9059956480CF04FFD22200BF01AF9E7
:1041E000FF200BF017F9FF200BF014F9FF200BF064
:1041F00011F94FF4FA600AF0BFFE13214A480BF0A0
:1042000013F922200BF006F90D2154480BF00CF99C
:104210000D99FFF704BB132143480BF005F9222049
:104220000BF0F8F80E214E480BF0FEF804994048C8
:104230000CF022FD22200BF0EDF8FF200BF0EAF845
:10424000FF200BF0E7F8FF200BF0E4F84FF4FA60E2
:104250000AF092FE132134480BF0E6F822200BF00E
:10426000D9F80D213F480BF0DFF80C99FFF7D7BACA
:1042700013212D480BF0D8F822200BF0CBF80E219B
:1042800039480BF0D1F8039929480CF0F5FC2220AD
:104290000BF0C0F8FF200BF0BDF8FF200BF0BAF8D0
:1042A000FF200BF0B7F84FF4FA600AF065FE132117
:1042B0001D480BF0B9F822200BF0ACF80D212B486B
:1042C0000BF0B2F80B99FFF7AABA132116480BF0BE
:1042D000ABF822200BF09EF8102125480BF0A4F833
:1042E000049913480CF0C8FC22200BF093F8FF202F
:1042F0000BF090F8FF200BF08DF8FF200BF08AF800
:104300004FF4FA600AF038FE132107480BF08CF8DE
:1043100022200BF07FF80D2116480BF085F80C9940
:10432000FFF77DBA5C87FF1F8472010018750100DA
:10433000C487FF1F307501006C7501008075010096
:104340000C730100207301009C730100B073010025
:10435000C07301006493FF1F1074010020740100FA
:10436000F073010000740100D0730100E0730100DC
:10437000E8720100FC720100F0B5E44BB1B01D68B9
:1043800002AC2D1B30AE28190AF02AFC04F8010BF0
:10439000A642F8D14FF4FA600AF0EEFD1221DC4893
:1043A000DC4EDD4DDD4C0BF03FF822200BF032F8F7
:1043B0000621DB480BF038F822200BF02BF8FF2009
:1043C0000BF028F8FF200BF025F8FF200BF022F867
:1043D0004FF47A700AF0D0FD1221CD480BF024F88A
:1043E00022200BF017F81321CE480BF01DF82220E5
:1043F0000BF010F8FF200BF00DF8FF200BF00AF87F
:10440000FF200BF007F80F200AF0B6FD1221C64876
:104410000BF00AF822200AF0FDFF0C99C3480CF0BB
:104420002BFC22200AF0F6FFFF200AF0F3FFFF200A
:104430000AF0F0FFFF200AF0EDFF40F2A4600AF05E
:104440009BFD1221B2480AF0EFFF22200AF0E2FFA2
:104450001121B7480AF0E8FF22200AF0DBFFFF2015
:104460000AF0D8FFFF200AF0D5FFFF200AF0D2FFA4
:104470000F200AF081FD1221AB480AF0D5FF22205F
:104480000AF0C8FF1099A9480CF0F6FB22200AF0A8
:10449000C1FFFF200AF0BEFFFF200AF0BBFFFF2094
:1044A0000AF0B8FF40F2A4600AF066FD12219848B5
:1044B0000AF0BAFF22200AF0ADFF13219D480AF04E
:1044C000B3FF22200AF0A6FFFF200AF0A3FFFF207F
:1044D0000AF0A0FFFF200AF09DFF0F200AF04CFD1C
:1044E000122191480AF0A0FF22200AF093FF1C98A5
:1044F0000EF0D0FC022702460B4600978B480CF0CA
:10450000C3FB22200AF086FFFF200AF083FFFF2072
:104510000AF080FFFF200AF07DFF40F2A4600AF05D
:104520002BFD12217A480AF07FFF22200AF072FF49
:104530000F2181480AF078FF22200AF06BFFFF204C
:104540000AF068FFFF200AF065FFFF200AF062FF13
:104550000F200AF011FD122173480AF065FF222096
:104560000AF058FF9DF89030002B0BBF30462846CC
:10457000042103210AF058FF22200AF04BFFFF20FC
:104580000AF048FFFF200AF045FFFF200AF042FF33
:1045900040F2A4600AF0F0FC12215D480AF044FFEA
:1045A00022200AF037FF122164480AF03DFF222042
:1045B0000AF030FFFF200AF02DFFFF200AF02AFF4B
:1045C000FF200AF027FF0F200AF0D6FC12215648E0
:1045D0000AF02AFF22200AF01DFF0D9953480CF023
:1045E0004BFB22200AF016FFFF200AF013FFFF20EA
:1045F0000AF010FFFF200AF00DFF40F2A4600AF05D
:10460000BBFC122142480AF00FFF22200AF002FFF1
:1046100011214B480AF008FF22200AF0FBFEFF2080
:104620000AF0F8FEFF200AF0F5FEFF200AF0F2FE85
:104630000F200AF0A1FC12213B480AF0F5FE2220CF
:104640000AF0E8FE119939480CF016FB22200AF016
:10465000E1FEFF200AF0DEFEFF200AF0DBFEFF2075
:104660000AF0D8FE40F2A4600AF086FC1221284825
:104670000AF0DAFE22200AF0CDFE102131480AF0BD
:10468000D3FE22200AF0C6FEFF200AF0C3FEFF2060
:104690000AF0C0FEFF200AF0BDFE0F200AF06CFCFD
:1046A000122121480AF0C0FE22200AF0B3FE1E9813
:1046B0000EF0F0FB009702460B461C480CF0E4FAA3
:1046C00022200AF0A7FEFF200AF0A4FEFF200AF035
:1046D000A1FEFF200AF09EFE40F2A4600AF04CFC0E
:1046E00012210B480AF0A0FE22200AF093FE0E21B0
:1046F00015480AF099FE22200AF08CFEFF200AF0ED
:1047000089FEFF200AF086FE20E000BFA093FF1F75
:10471000D0750100C8750100C47501005497FF1FD2
:10472000E4750100EC75010000760100C487FF1FED
:1047300014760100287601003C7601004C760100D9
:10474000607601007476010088760100FF200AF08F
:1047500061FE0F200AF010FC122147480AF064FEA7
:1047600022200AF057FE9DF89130002B0BBF3046F7
:104770002846042103210AF057FE22200AF04AFEAF
:10478000FF200AF047FEFF200AF044FEFF200AF057
:1047900041FE40F2A4600AF0EFFB122137480AF014
:1047A00043FE22200AF036FE0C2135480AF03CFE7A
:1047B00022200AF02FFEFF200AF02CFEFF200AF034
:1047C00029FEFF200AF026FE0F200AF0D5FB122159
:1047D00029480AF029FE22200AF01CFED4F88C1089
:1047E00028480CF049FA22200AF014FEFF200AF0B3
:1047F00011FEFF200AF00EFEFF200AF00BFE40F231
:10480000A4600AF0B9FB12211C480AF00DFE222018
:104810000AF000FE0C211C480AF006FE22200AF0D5
:10482000F9FDFF200AF0F6FDFF200AF0F3FDFF205E
:104830000AF0F0FD0F200AF09FFB12210E480AF04B
:10484000F3FD22200AF0E6FDD4F890100D480CF09C
:1048500013FA22200AF0DEFDFF200AF0DBFDFF2024
:104860000AF0D8FDFF200AF0D5FD40F2A46031B077
:10487000BDE8F0400AF080BB00760100D075010071
:1048800098760100C487FF1FA8760100436D10B51C
:104890005B68044672B60021806F0EF0A5FF616F61
:1048A00020670FF05DF980B1D4F88030C4F884300F
:1048B00062B6A3689B689A0706D501200AF05CFBE4
:1048C000A3689B689B07F8D410BDD4F8803003F12F
:1048D0000043EBE7416D036F826F10B44C681B1B04
:1048E000002BB8BF5B42934210D3C46FA34208D3DE
:1048F000426FD21A4B68086810BC00FB0232CA60D3
:104900007047134400244367C467F3E700225C0048
:10491000C267826744671A46ECE700BF10B50446D9
:10492000FFF7D8FFA3689B689A0706D501200AF015
:1049300023FBA3689B689B07F8D410BD2DE9F041C9
:10494000044600258023261D274F2848237427600E
:10495000606064613046A560E56090460F4609F0EE
:1049600085FD2062304609F081FD012363666062A7
:10497000A56584F85C50256609F04CFD616904F179
:10498000080009F00DFD84F85C0038460EF0D4FEF6
:1049900017490EF029FF17490EF026FF4FF074510A
:1049A0000EF022FF4FF07C510EF016FE0FF0F8F8DB
:1049B000A06140460EF0C0FE0D490EF015FF0D49F6
:1049C0000EF012FF4FF074510EF00EFF4FF07C51BD
:1049D0000EF002FE0FF0E4F8C4F86880E061E766CC
:1049E0002046BDE8F08100BF646F0100586F0100F0
:1049F000BD378635001B374C38B590F85C300D4A12
:104A00000260044623B18268936823F00203936036
:104A1000094B636004F10C0528460CF04FF8206A3E
:104A200009F038FD606A09F035FD28460CF046F8BB
:104A3000204638BD646F0100586F010010B5034B6C
:104A400003600446FFF7D8FF204610BD9C6F0100AD
:104A500010B5054B03600446FFF7CEFF20468C21BE
:104A60000CF07EF8204610BD9C6F010010B5034B82
:104A700003600446FFF7C0FF204610BD806F0100B1
:104A800010B5054B03600446FFF7B6FF20468821AA
:104A90000CF066F8204610BD806F010010B504468A
:104AA000FFF7AAFF204670210CF05AF8204610BDEF
:104AB000884231D02DE9F04700F1040841451646FF
:104AC0008A46814617D0D9F80010D8F80000B047C0
:104AD00098B9D8F80050444601E02368636027463F
:104AE000284654F8041DB0470028F6D13D6008F16F
:104AF0000408C245E7D1BDE8F087C9EB0802930876
:104B0000D8F8004005D0C2F10400404449460FF0F7
:104B1000DBFBC9F80040EAE7704700BF2DE9F84326
:104B20000B1A432B1CDD00F140088946414617460D
:104B3000FFF7BEFFC14515D0D8F80050444601E04C
:104B4000236863602646284654F8041DB8470028A9
:104B5000F6D108F10408C1453560EDD1BDE8F88310
:104B6000FFF7A6FFBDE8F8832DE9F04F561E06EBD0
:104B7000D67683B07610B1420192884605469946B2
:104B80000C9F5CDA8A4600E0DA460AF101034FEA3C
:104B9000430B0BF18041013955F8330055F82110D2
:104BA00005EBC304B84718B10BF1FF3B05EB8B04D1
:104BB000236845F82A30B345E6DB019BDA0707D4C2
:104BC000019BA3F1020A0AEBDA7ABBEB6A0F06D06B
:104BD000C34514DCC4F8009003B0BDE8F08F0BF1BE
:104BE000010B4FEA4B0B0BF18043013B0BF1FF3BF9
:104BF00055F823302360C34505EB8B04EADD0BF148
:104C0000FF3606EBD6767610494655F82600B847AB
:104C1000731E03EBD37305EB86045B1030B905EB11
:104C20008B04C4F8009003B0BDE8F08F55F826203F
:104C300045F82B20B045CDDAB3461E46E4E7019B8C
:104C4000DB0700EB8104C5D48B46B9E72DE9F04FB3
:104C50000C1A432C85B040F389800546894692465C
:104C60001E46002A61D0031D0393E410686855F8BE
:104C70002410B0470AF1FF3A59F8041C002834D038
:104C800055F82400B047002837D02B6855F8242069
:104C90002A6045F8243068682968039FCB46B846E7
:104CA000B04780B9ABF1040421682868A346043CEE
:104CB000B0470028F8D15F4509D23A68DBF8001008
:104CC0003960CBF8002057F8040F2968E7E7494618
:104CD0003346524638467C1BFFF7B8FF432C45DD70
:104CE000BAF1000F22D0B946BFE76868B04798B163
:104CF00095E8030029606860CFE759F8041C6868EC
:104D0000B0470028F4D02B6859F8042C2A6049F8E1
:104D1000043C68682968C0E759F8041C55F8240069
:104D2000B0472B680028B1D0EEE78846A410A71E34
:104D30007F1005EB870900E0013F59F80439009620
:104D4000224639462846FFF70FFF002FF4D158F8C6
:104D5000043D2A680096C5EB0804C8F8002000212D
:104D6000A2102846FFF700FF072CF0DC05B0BDE8D5
:104D7000F08F00BF2DE9F04700F128064FEA8108C7
:104D800006EB0805AE4204468946174610D04FEAA6
:104D9000A802B2FA82F2C2F11F025200294630463E
:104DA000504BFFF753FF4F4A29463046FFF7B6FEF8
:104DB000D4F828C0C4F854C0DCF81800002866D025
:104DC00080EAE0730022A3EBE073B9F1010FCCF8A5
:104DD0000820CCF8103011DD08F12408A044B646B4
:104DE0005EF8042F9369002BB8BF5B421361DCF8B7
:104DF0001010C645C1EB43035361F1D1AE4268D0F8
:104E0000DCF81C2004F12C0306E01968C9698A4209
:104E100003F1040328BF0A469D42F6D11546DCF88B
:104E20000430A66E0EF08CFCA06728460EF084FCC1
:104E3000054630460EF080FC014628460EF0D4FCB4
:104E400029490EF085FD0023E067636772B6E36FC2
:104E5000C4F8803062B672B6A16F38460EF0C4FC5A
:104E6000616F20670EF07CFE98B9D4F8803003F1B2
:104E70000043C4F8843062B6A268206A9368616A0D
:104E800023F002038842936026D0E36923B9BDE88A
:104E9000F087D4F88030ECE772B6144A236AE069F0
:104EA00000211160DB00516803F1804303F560339A
:104EB00001440D2019611060DA68502122F080024F
:104EC000DA60D96062B660690368BDE8F0475B6884
:104ED0001847A36ADD69A2E760690368BDE8F04787
:104EE0009B6818477D04000000247449008003403B
:104EF0002DE9F04FAE4CAF4DDFF8F092B7B041F274
:104F000088328246052114A8FFF718FD2368D5F8DA
:104F10009060D5F88C70CDF8509001222D92032B23
:104F200000F2D181DFE813F0F2000801D80004009C
:104F30006368606900930EF003FC9F490EF054FC17
:104F4000054650460EF0FCFB014628460EF04CFC90
:104F5000636A01938046022203210DF1180B584623
:104F600009F03EF90025052007950AF005F800999B
:104F7000584609F075F9019909F066F98F4909F069
:104F800093F920680121FBF7E1FC2C992C9536ABB5
:104F900001F10B0C03EB810E03EB8C0C4EF860BCA3
:104FA0004FF07E52012114A84CF8885CFFF7E2FE16
:104FB00072B6329940460EF017FC319930900EF0DF
:104FC000CFFD002800F0D280349B359362B6169B4B
:104FD0009B689A071AD57A4DDFF814B20BF062FA83
:104FE000002840F3C780F0B209F090FF002800F0DD
:104FF0005581F8B209F08AFF002800F04F810A209D
:1050000009F0BAFF169B9B689B07E7D4206803282A
:1050100000F00F816B496C4C6C4A079B0B600021C0
:10502000236011600021FBF791FC172168480AF00A
:10503000FBF9FF200AF0EEF9FF200AF0EBF9FF2060
:105040000AF0E8F91A2163480AF0EEF9FF200AF0A5
:10505000E1F9FF200AF0DEF9FF200AF0DBF9122166
:105060005D480AF0E1F9FF200AF0D4F9FF200AF0C8
:10507000D1F9FF200AF0CEF9112158480AF0D4F9ED
:1050800022200BF0BDFA22200AF0C4F902A85449EC
:105090000BF06AFF02A953480BF078FD02A95248B1
:1050A0000BF074FD02A80BF01FFF22200BF0A8FAF2
:1050B00022200AF0AFF9FF200AF0ACF9FF200AF035
:1050C000A9F9FF200AF0A6F914A8CDF85090FFF72F
:1050D00093FC37B0BDE8F08F2369206A00930EF08F
:1050E0002FFB35490EF080FB064650460EF028FB9C
:1050F000014630460EF078FB236BD5F8A060D5F85A
:105100009C70019380461822192126E7A368A069A4
:1051100000930EF015FB28490EF066FB054650463D
:105120000EF00EFB014628460EF05EFBA36A0193CB
:1051300080460522062110E7E368E06900930EF03F
:10514000FFFA1D490EF050FB064650460EF0F8FAE5
:10515000014630460EF048FBE36AD5F89860D5F872
:1051600094700193804618221921F6E6349B03F1CE
:1051700000432AE7FBF764FA00287FF734AF2B6877
:10518000002B37D10BF052F9C0B243288BF8000046
:1051900037D066287FF427AF2868FBF735FE0EF07E
:1051A0007DF92368032B57D8DFE803F07674724744
:1051B0006493FF1F5497FF1F0AD7233C0094357751
:1051C0004087FF1F7492FF1FE095FF1FC895FF1FC8
:1051D000B8760100D0760100EC760100007701007E
:1051E00014770100E487FF1FC487FF1F806F010051
:1051F0009C93FF1F0AF05CF9C0B243288BF80000B3
:10520000C7D172B6002132980EF0EEFA3199309083
:105210000EF0A6FC002837D0349B359362B60520EB
:1052200009F0AAFE14A8FFF731FB206803287FF4D9
:10523000F1AE2949294C2A4AEFE660610EF080FA66
:1052400028490EF0D1FA804650460EF079FA014610
:1052500040460EF0C9FA8046234B2448196838228C
:1052600009F000FD72B6329940460EF0BDFA319950
:1052700030900EF075FC18B1349B359362B6B2E6EF
:10528000349B03F10043F8E7349B03F10043C4E788
:105290002062D3E7E061D1E7A061CFE772B60021D9
:1052A00032980EF0A1FA319930900EF059FC40B9C5
:1052B000349B03F10043359362B614A8FFF7E6FA76
:1052C000A4E6349BF7E7002301934FF00008009316
:1052D0000522062141E600BF3C97FF1FC895FF1F2E
:1052E000E095FF1F0AD7233C3487FF1F6493FF1FFD
:1052F0002DE9F04FDFB01446064641F288320D46E4
:105300003CA80521FFF71AFBDFF890929B4B3C93DA
:1053100002220123032104A8559308F061FF022C07
:10532000D9F8903001934FF005024FF0060112A812
:10533000CBBF0127002700240124D9F88CA0DFF877
:10534000448208F04DFF1822192120A808F048FFD8
:105350002EA81822192108F043FFD8F834B0BBF169
:10536000010F00F0DE83BBF1020F00F0B583BBF14B
:10537000000F00F0F882002303930093D8F8043064
:10538000029305204FF0000BD8F82460CDF814B03C
:1053900009F0F2FD029B04A805FB03F108F060FF91
:1053A000314608F051FF764908F07EFF54B1754B45
:1053B0005D6B012D00F08B84022D00F04484002DE4
:1053C00000F0F083002F40F046836F4EDDF804B00C
:1053D00014B9002F00F0FF82052009F0CDFD0BF07D
:1053E00061F8002840F3ED823368002B40F0E18241
:1053F0000BF01CF80346654D65482B700D210BF032
:105400007BF80023297863480A220BF0F5FB6148FA
:105410000BF0E2FB2B78433B822B00F28F80DFE81E
:1054200013F0F8018D008D008D008D008D008D0032
:105430008D008D008D008D008D008D008D008D0004
:105440008D008D008D008D008D008D008D008D00F4
:10545000E301BE018D008D008D008D008D00A10146
:105460008D0075028D008D008D008D008D008D00EA
:105470008D001A02E7008D00BF008D008D008D00A9
:105480008D008D008D008D008D008D008D008D00B4
:105490008D008D008D008D008D008D008D008D00A4
:1054A0008D008D008D008D008D008D008D008D0094
:1054B0008D008D008D008D008D008D008D008D0084
:1054C0008D008D008D008D008D008D008D008D0074
:1054D0008D008D008D008D008D008D008D00BF0032
:1054E000A101E7001A025F023B02BF00A101E70031
:1054F0001A028B013E018D008D008D008D008D0004
:105500008D008D008D008D008D008D008D008D0033
:105510008D008D008D008D008D008D008D008D0023
:105520008D008D008D008300FBF782FC1A4BC8F8BC
:10553000340019681348382209F094FB002C00F05D
:1055400009825FFA8BF009F0E1FC90B972B6002194
:105550005A980EF049F9599958900EF001FB00281D
:1055600000F02B825C9B5D9362B63CA8FFF78EF93E
:105570000024052009F000FD2AE700BF806F01002C
:1055800000943577E092FF1F4087FF1F9C93FF1F19
:1055900020770100E487FF1F7887FF1F5497FF1FC4
:1055A0003068FBF731FC0DF079FFB44A034611680F
:1055B000B348C9F80030B822019309F053FB72B622
:1055C000019BB04D18460EF0BBF8AF490EF00CF938
:1055D000A96F0EF009F9696F28670EF0C1FA00286B
:1055E00000F02B82D5F88030C5F8843062B6A5E78C
:1055F000A44DAB689B6813F002039FD1D9F800005B
:1056000001930EF09DF8A0490EF0EEF8029B0746BC
:10561000594204A808F024FE9C4908F045FE0121E7
:105620000320FBF793F92A6E019B2B6602F10B0E08
:1056300002F10A0104A845F821004FF07E52012131
:1056400045F82E302846FFF795FB72B60021A86F6B
:105650000EF0CAF8696F28670EF082FA002800F091
:105660008A82D5F88030C5F88430864B019362B6C3
:10567000052009F081FC72B6A96F38460EF0B4F827
:10568000696F28670EF06CFA019B002800F06E82AB
:10569000D3F88030C5F8843062B601274EE73E9BD0
:1056A0009B6813F002057FF449AFD9F81C000EF097
:1056B00047F875490EF098F8D8F8101000902EA809
:1056C00008F0CEFD714908F0EFFD01210220FBF743
:1056D0003DF9549B54955EAA02EB83010B464FF0B3
:1056E0007E522EA841F8600C012143F85C5C3CA876
:1056F000FFF740FB72B600215A980EF075F85999E1
:1057000058900EF02DFA002800F08F815C9B5D937D
:1057100062B6052009F030FC72B65A9900980EF076
:1057200063F8599958900EF01BFA002800F04F8149
:105730005C9B5D9362B601E73E9B9B6813F002059C
:105740007FF4FCAED9F81C000DF0FAFF4E490EF0C4
:105750004BF8D8F81010009049422EA808F080FDB0
:105760004B49B0E73068FBF74FFB0DF097FED8F8D8
:105770003430012B00F05582022B00F05B823BB9E4
:10578000C9F814000DF0DCFF3F490EF02DF8009031
:105790003A4B3B481968B82209F064FABCE73E9BD3
:1057A0009B6813F002057FF4C9AED9F814000DF020
:1057B000C7FF35490EF018F8D8F808100090494294
:1057C00012A808F04DFD324908F06EFD012128466F
:1057D000FBF7BCF8549B54955EAA02EB83010B4681
:1057E0004FF07E5212A87DE73E9B9B6813F00205A6
:1057F0007FF4A4AED9F814000DF0A2FF22490DF0F9
:10580000F3FFD8F80810009012A808F029FD1F49EE
:10581000DAE70D211F480AF06FFE72B6194D00211C
:10582000A86F0DF0E1FF696F28670EF099F9002865
:1058300000F00C81D5F88030C5F8843062B60520C0
:1058400009F09AFB0F48FFF721F800210320FBF72E
:105850007DF8002772E60B4DAB689B6813F00203DE
:105860007FF46CAED9F8000001930DF069FF064992
:105870000DF0BAFF02990746CBE600BFA093FF1FC9
:105880005497FF1F6894FF1F0AD7233C0094357775
:10589000006CCA88307701003E9B9B6813F00205BC
:1058A0007FF44CAED9F818000DF04AFFB6490DF060
:1058B0009BFFD8F80C10009020A808F0D1FCB34949
:1058C00008F0F2FC01210846FBF740F8549B549580
:1058D0005EAA02EB83010B464FF07E5220A801E73F
:1058E0003E9B9B6813F002057FF428AED9F81800A0
:1058F0000DF026FFA4490DF077FFD8F80C100090AA
:10590000494220A808F0ACFCA149D9E772B60021B1
:105910005A980DF069FF599958900EF021F9002816
:1059200000F087805C9B5D9362B6052009F024FB44
:105930003CA8FEF7ABFFD8F83400012800F08280C5
:1059400002287FD010B90146FBF700F84FF47A70B7
:1059500009F012FB5FFA8AF009F0D8FA00283FF448
:10596000F5AD002405E6D9F814000DF0E9FE00902D
:10597000D9F800000DF0E4FED8F80810D9F89030FE
:10598000029001FB06F112A80193CDF84CB0D9F8B2
:105990008CA008F065FCD8F8281008F055FC7B496D
:1059A00008F082FC029B784918460DF01DFF039019
:1059B000E4E409F07DFD03461DE55C9B03F1004333
:1059C000D1E5FAF73DFE0028FFF6B8AD0CE55C9B8B
:1059D00003F10043ADE6D8F83430012B00F0C1806C
:1059E000022B00F0B9801BB96A4B139A1A60139707
:1059F0000024694B059A1A60214603200594FAF7A2
:105A0000A5FF21462046FAF7A1FF21460120FAF71B
:105A10009DFF21460220FAF799FF604B3C933CA87A
:105A2000FEF7EAFF5FB0BDE8F08F5C9B03F1004337
:105A30006DE65C9B03F1004375E7D5F8803003F118
:105A40000043D1E50021FAF781FF7FE7D5F88030E8
:105A500003F10043F0E6524D01210320FAF776FFEF
:105A6000052009F089FA2B6E03F10A010B33002699
:105A700004A845F821004FF07E52284645F82360DF
:105A800001212E66FFF776F972B60021A86F0DF09E
:105A9000ABFE696F28670EF063F8002870D1D5F867
:105AA000803003F10043C5F884303D4E62B6642077
:105AB00009F062FA72B6A96F03980DF095FE696F4E
:105AC00028670EF04DF8002800F0FC80D6F88030F2
:105AD000C5F8843062B678E4D9F81C000DF030FEC9
