:1000000000800020BD010000D1B1000089B10000D6
:1000100089B1000089B1000089B1000089B10000F8
:1000200089B1000089B1000089B10000D1B10000A0
:10003000D1B1000089B1000001CC000005CD000065
:10004000D1B10000D1B10000D1B10000D1B10000A8
:10005000D1B10000D1B10000D1B10000D1B1000098
:10006000D1B10000D1B10000D1B10000D1B1000088
:10007000D1B10000D1B10000D1B10000D1B1000078
:10008000D1B10000D1B10000D1B10000D1B1000068
:10009000D1B10000D1B10000D1B10000D1B1000058
:1000A000D1B10000D1B10000D1B10000D1B1000048
:1000B000D1B10000D1B10000D1B10000D1B1000038
:1000C000D1B10000D1B10000D1B10000D1B1000028
:1000D000D1B10000D1B10000D1B10000D1B1000018
:1000E000D1B10000D1B10000D1B10000D1B1000008
:1000F000D1B10000F5D70000D1B1000021D9000036
:10010000D1B10000A9B90000D1B10000D1B1000007
:10011000D1B10000D1B10000D1B10000D1B10000D7
:10012000D1B10000D1B10000D1B10000D1B10000C7
:10013000D1B10000D1B1000041AF0000D1B1000049
:10014000D1B10000D1B10000D1B10000D1B10000A7
:100150003DCF000051CF000065CF000079CF0000F7
:10016000D1B1000035BC0000D1B10000D1B1000018
:10017000D1B10000D1B10000D1B10000D1B1000077
:10018000D1B10000D1B10000D1B10000D1B1000067
:10019000D1B10000D1B10000D1B10000D1B1000057
:1001A000D1B10000D1B10000D1B10000D1B1000047
:1001B000D1B10000D1B10000D1B10000564B4CF2DA
:1001C000205210B51A804DF628121A8000BF00BFC9
:1001D0000BF002F8514B4FF010621A60504A9A60CF
:1001E000504ADA60504A136813F4807304D14F49BF
:1001F0000B604FF4A85313604D4B1A78110703D5C9
:100200001A7842F008021A704A4B4B492A221A7097
:100210004A4A4B4B8B4204D252F8040F43F8040B6A
:10022000F8E7484B484900228B4202D243F8042B9E
:10023000FAE74649464A002352F8230041F82300D2
:1002400001336F2BF8D1434B434A802103F8011B44
:100250009342FBD1414B3D4A1A60414B8A221A70AE
:10026000A3F5805324225A70A0221A709A7992071B
:10027000FCD59A79D406FCD43A4A937903F00C035E
:10028000082B384BF9D105221A7143225A719A79F9
:100290009006FCD5334A9179324B4906FBD5324A58
:1002A0004FF0817111600521516020221A709A79F6
:1002B00002F00C020C2AFAD12C4B2D4A1A602D4B5D
:1002C0002D4A1A6000225A60072243F8042C2B4A58
:1002D000C3F80C2D62B60BF0BBF8144B1B68DA07A1
:1002E00005D527480BF014F8264B274A1A60274BF0
:1002F0001B785B0609D5234C234B22689A4204D114
:100300001F480BF005F8002323600FF0E9FD0AF009
:1003100069FF0CF03BFEFEE70E20054030800440F4
:10032000823F04000100002B10D0034014D0034092
:1003300002D0074000E007403092FF1FD84901007B
:100340002087FF1F3092FF1F5C9CFF1F0082FF1F52
:100350000000000000E400E05FE400E008ED00E0E1
:1003600000500640004006404480044004800440A1
:10037000C010050014E000E03F190100000020203B
:100380002B69A75C1CE00340A5C3945A00F007400A
:10039000FFFFFFFFFFFFFFFFFFFFFFFFFFFFFFFF6D
:1003A000FFFFFFFFFFFFFFFFFFFFFFFFFFFFFFFF5D
:1003B000FFFFFFFFFFFFFFFFFFFFFFFFFFFFFFFF4D
:1003C000FFFFFFFFFFFFFFFFFFFFFFFFFFFFFFFF3D
:1003D000FFFFFFFFFFFFFFFFFFFFFFFFFFFFFFFF2D
:1003E000FFFFFFFFFFFFFFFFFFFFFFFFFFFFFFFF1D
:1003F000FFFFFFFFFFFFFFFFFFFFFFFFFFFFFFFF0D
:10040000FFFFFFFFFFFFFFFFFFFFFFFFDEF9FFFF23
:1004100010B5054C237833B9044B13B10448AFF33E
:1004200000800123237010BD3092FF1F00000000E8
:10043000DC490100084B10B51BB108490848AFF36F
:1004400000800848036803B910BD074B002BFBD0A0
:10045000BDE81040184700BF000000003492FF1FA5
:10046000DC4901003092FF1F0000000000690B69A9
:100470009842D4BF00200120704700BF80698B697B
:100480000028B8BF4042002BB8BF5B429842D4BF9F
:1004900000200120704700BFF0B586460120DEF83D
:1004A0005470DEF82C303A6A106079683A680A4471
:1004B0007A600EF12C0493B15A69002A08DB1A6A9B
:1004C00010605E6819683D695A6931445960521B71
:1004D00019690A445A6154F8043F002BECD1DEF844
:1004E0002430154ADEF81840DEF86400002111605F
:1004F000DB00516803F1804303F5603321440D2490
:1005000019611460DA68502122F08002DA60D96043
:1005100000B1F0BD7A68FB689A4200D0F0BDDEF809
:100520000820DEF85810936823F002039360002936
:10053000F4D0BDE8F040084700800340836A00F132
:10054000280233B10120596A52F8043F0860002B99
:10055000F9D17047294A2A4B2DE9F041D2F804809D
:10056000284A1868284B57681D68284C0FF02CFA49
:10057000014627480FF030FB064640460FF024FAAC
:10058000014630460FF074FA29460FF071FA2049FF
:100590000DF07AFB0DF0E0FA636D1E4A1E49096802
:1005A00016685B6872B60FF063FA054638460FF0BE
:1005B0000BFA014628460FF051F918490FF00CFBD1
:1005C000054630460FF000FA014628460FF004FBBE
:1005D0000546A06F0FF0F8F9014628460FF048FADB
:1005E0000FF022FC636F20679842E36FD8BF5B4235
:1005F000C4F8803062B6BDE8F08100BF5092FF1FA2
:10060000C096FF1F5495FF1F8893FF1F9C93FF1FE9
:10061000DB0FC9400895FF1FA094FF1FCDCCCC3C39
:1006200008B50BF053F90028D4BF4FF0FF3003207A
:1006300008BD00BF036A8B4223D0C369994200D032
:1006400070478369002BFBD010B472B60F4AC369A0
:10065000846900211160DB00516803F1804303F5D8
:10066000603321440D2419611460DA68502122F0AE
:100670008002DA60D96062B6006910BC03685B680A
:100680001847006903689B68184700BF0080034053
:100690002DE9F041436F046F456DA3426A6808D0AD
:1006A000D0F88020002A134461DD9C42A8BF1C467C
:1006B0004467AB68A3423DD0002C2B68B4BF4FF019
:1006C000FF3201229A4215D000F12401012608E0F0
:1006D00013685B42012B13600BBF926AD36A1360ED
:1006E0001E6051F8042F002AF2D1C36E03EB4303BE
:1006F000DB002ED184EAE476A6EBE476E6B18368EB
:100700009A6812F00207804635D01A682A498A4250
:1007100028D959682948B0FBF6F6521A96423CD3BC
:10072000B21A0027012003219F60D8601A609960E7
:100730001E60AC60BDE8F081214B816821488022B9
:100740001A608B6823F002038B600260AC60BDE826
:10075000F081013BFDD184EAE476A6EBE476002E3D
:10076000EAD0CCE7154AB2FBF6F61E60EEE79C42F3
:10077000B8BF1C469CE7406903681B689847D8F8D7
:100780000830D8F854509F6001220321DA600B4AE8
:10079000B2FBF6F61E609960D8E7D8F81400002185
:1007A0000268996001250321DD6012681E6099606E
:1007B0009047D8F85450C9E77F3202000051250213
:1007C000C4F00F40C8F00F4083689A68920700D4C5
:1007D0007047416D426F70B504464868E16F121A68
:1007E000002AB8BF52428A4241D3D4F880108A42CC
:1007F0002FD3A36FD4F88400591E8A423EBF023B18
:100800009A1A4243D4F88C0028BF002210440FF0FB
:10081000D7F80DF097FA0FF007FB0546A368E5B18E
:100820009A6812F002062ED01A6825498A4225D904
:1008300059682448B0FBF5F5521A954232D3AA1AEA
:100840000024012003219C60D8601A6099601D601B
:1008500070BDD4F88850002DE2D11B4A1B4880217E
:1008600011609A6822F002029A60016070BDD4F8AB
:100870008400D4F88C3000FB0230C8E7114AB2FB88
:10088000F5F51D6070BD606903681B689847A36833
:100890000C4A9E6001200321D860B2FBF5F51D6073
:1008A000996070BD606902680026012403219E6082
:1008B0001268DC601D609960BDE87040104700BFA1
:1008C0007F32020000512502C4F00F40C8F00F40F3
:1008D00070B5044608460D4610F0D2F9236802466A
:1008E000294620465B68BDE87040184738B5054684
:1008F0000CF0DEFB044628460CF08AFB204438BD91
:100900002DE9F04385B00DF104094C4600254FF068
:10091000FF3803E02E2808BFA84601350AF0E6FF9D
:10092000C0B2FF2804F8010BF4D10AF0CFFF002871
:1009300005DD0AF0DBFF0AF0C9FF0028F9DC00261C
:100940000027CDB10024A0454FF00002174B3046E0
:1009500039460ED00EF036FC064619F804000F4654
:1009600030380EF0C9FB32463B460EF079FA0646A7
:100970000F460134A542E6D1B8F1FF3F10D0013D4A
:10098000C8EB0505002D0BDD00243046394600225A
:10099000064B0EF041FD0134A54206460F46F4D148
:1009A0003046394605B0BDE8F08300BF0000244062
:1009B0002DE9F04385B00DF1040904464E460025AB
:1009C0004FF0FF3803E02E2808BFA8460135236802
:1009D00020465B699847C0B2FF2806F8010BF2D1A8
:1009E00002E023685B699847236820461B699847A3
:1009F00000282046F5DC00260027CDB10024A045C4
:100A00004FF00002174B304639460ED00EF0DAFB9D
:100A1000064619F804000F4630380EF06DFB3246DA
:100A20003B460EF01DFA06460F460134A542E6D1BC
:100A3000B8F1FF3F10D0013DC8EB0505002D0BDDDF
:100A40000024304639460022064B0EF0E5FC013406
:100A5000A54206460F46F4D13046394605B0BDE8FA
:100A6000F08300BF00002440012805D0032803D0F4
:100A700028B10020034970470348FFF799BF034896
:100A8000FFF796BF0000F0BFAC87FF1FCC87FF1FAA
:100A900010B50AF02BFFC4B201E00AF027FF0AF0FC
:100AA00015FF0028F9DC042105480BF043FF21461F
:100AB00004480CF0FDFA03480CF0AAFA204610BDD9
:100AC000AC310100CC87FF1F10B582B00023104C61
:100AD000019307E018440AF0B7FA019B0133142B85
:100AE00001930BDC0AF002FFC0B2FF280146019B14
:100AF0002068EFD1002118440AF0A6FA054B042221
:100B000019680DEB02000AF0C7FA02B010BD00BF71
:100B10002887FF1F2C87FF1F08B5084B1B6801465D
:100B200018460EF0A5FF06490DF0AEF80DF014F8CA
:100B3000044B19680EF09CFF08BD00BF8893FF1F8F
:100B4000DB0FC940A094FF1FF8B5214A214B56681E
:100B50001868214B214C5F680EF036FF0146204893
:100B60000FF03AF8054630460EF02EFF01462846B3
:100B70000EF07EFFFFF7D0FF636D1A4A0546166838
:100B80005B6872B638460EF01FFF014628460EF02D
:100B900065FE15490FF020F8054630460EF014FFAB
:100BA000014628460FF018F80546A06F0EF00CFF1E
:100BB000014628460EF05CFF0FF036F9636F2067A0
:100BC0009842E36FD8BF5B42C4F8803062B6F8BD8C
:100BD0005092FF1FC096FF1F1C95FF1F9C93FF1F85
:100BE000DB0FC9400895FF1FCDCCCC3C70B596B04B
:100BF000CD49CE4C01A80CF0D3FB01A9CC480CF098
:100C0000E1F901A9CB480CF0DDF901A80CF088FB53
:100C100022200BF013FF22200AF01AFEC64901A879
:100C20000CF0BEFB01A9C2480CF0CCF901A9C148E7
:100C30000CF0C8F901A80CF073FB22200BF0FEFEAB
:100C400022200AF005FEFF200BF0F8FEFF200AF03C
:100C5000FFFDFF200BF0F2FEFF200AF0F9FDFF2060
:100C60000BF0ECFEFF200AF0F3FD4FF4FA600AF0FF
:100C70009FFB0AF03BFEC0B2206001E00AF036FEA6
:100C80000AF024FE0028F9DC1321A7480AF0EAFD47
:100C900022200AF0DDFD0521A8480AF0E3FD2168C5
:100CA000A4480CF005FA22200AF0D2FDFF200AF039
:100CB000CFFDFF200AF0CCFDFF200AF0C9FD4FF464
:100CC000FA600AF075FB23680E2B5CD8DFE813F09E
:100CD0005001C6013C02B202300442034203CA047E
:100CE00008036504F6030F00770042034203944BA8
:100CF0001C680DF1030504F1080620460AF08AF984
:100D00000134B44205F8010FF7D1132186480AF0E7
:100D1000A9FD22200AF09CFD0F218A480AF0A2FDBD
:100D2000019984480CF0C4F922200AF091FDFF20BB
:100D30000AF08EFDFF200AF08BFDFF200AF088FDEF
:100D40004FF4FA600AF034FB132177480AF08AFD69
:100D500022200AF07DFD0C217B480AF083FD0299D8
:100D600074480CF0A5F922200AF072FDFF200AF069
:100D70006FFDFF200AF06CFDFF200AF069FD4FF4C3
:100D8000FA600AF015FB172170480AF06BFDFF208E
:100D90000AF05EFDFF200AF05BFDFF200AF058FD1F
:100DA00014216B480AF05EFDFF200AF051FDFF2080
:100DB0000AF04EFDFF200AF04BFD16B070BD654BEA
:100DC0001D6801AC2D1B0EAE28190AF023F904F89A
:100DD000010BB442F8D1132153480AF043FD2220FD
:100DE0000AF036FD16215C480AF03CFD0199514895
:100DF0000CF05EF922200AF02BFDFF200AF028FDFE
:100E0000FF200AF025FDFF200AF022FD4FF4FA60D2
:100E10000AF0CEFA132144480AF024FD22200AF0F9
:100E200017FD13214D480AF01DFD029941480CF0B1
:100E30003FF922200AF00CFDFF200AF009FDFF20F7
:100E40000AF006FDFF200AF003FD4FF4FA600AF0F5
:100E5000AFFA132134480AF005FD22200AF0F8FC0D
:100E600014213F480AF0FEFC039932480CF020F9A7
:100E700022200AF0EDFCFF200AF0EAFCFF200AF035
:100E8000E7FCFF200AF0E4FC4FF4FA600AF090FA65
:100E9000132125480AF0E6FC22200AF0D9FC112192
:100EA00030480AF0DFFC049922480CF001F92220B6
:100EB0000AF0CEFCFF200AF0CBFCFF200AF0C8FCB1
:100EC000FF200AF0C5FC4FF4FA600AF071FA132112
:100ED00015480AF0C7FC22200AF0BAFC1421224867
:100EE0000AF0C0FC059913480CF0E2F822200AF041
:100EF000AFFCFF200AF0ACFCFF200AF0A9FCFF20A9
:100F00000AF0A6FC4FF4FA600AF052FA13210648E0
:100F10000AF0A8FC22200AF09BFC112113480AF0D9
:100F2000A1FC06991CE700BFB43101005487FF1FE4
:100F3000CC87FF1FAC87FF1FC8310100D0310100F3
:100F40003887FF1FC8330100D83301006C3401001B
:100F5000843401002487FF1FE833010000340100BE
:100F6000143401002C3401004034010058340100D5
:100F7000CB4B1D6801AC2D1B05AE28190AF04AF8B1
:100F800004F8010BA642F8D11321C6480AF06AFC06
:100F900022200AF05DFC0E21C3480AF063FC01998F
:100FA000C2480CF085F822200AF052FCFF200AF01B
:100FB0004FFCFF200AF04CFCFF200AF049FC4FF4E4
:100FC000FA600AF0F5F91321B6480AF04BFC22202A
:100FD0000AF03EFCB6480B210AF044FC0299B348E3
:100FE0000CF066F822200AF033FCFF200AF030FCF7
:100FF000FF200AF02DFCFF200AF02AFC4FF4FA60D3
:101000000AF0D6F91321A7480AF02CFC22200AF096
:101010001FFC1021A7480AF025FC0399A3480CF0F7
:1010200047F822200AF014FCFF200AF011FCFF20F0
:101030000AF00EFCFF200AF00BFC4FF4FA600AF0F5
:10104000B7F9132197480AF00DFC22200AF000FCA2
:101050000D2199480AF006FC049981E6974B1D681A
:1010600001AC2D1B05AE281909F0D4FF04F8010BC3
:10107000A642F8D113218B480AF0F4FB22200AF093
:10108000E7FB0E2188480AF0EDFB019987480CF038
:101090000FF822200AF0DCFBFF200AF0D9FBFF202A
:1010A0000AF0D6FBFF200AF0D3FB4FF4FA600AF0F7
:1010B0007FF913217B480AF0D5FB22200AF0C8FBF8
:1010C0007B480B210AF0CEFB029978480BF0F0FF29
:1010D00022200AF0BDFBFF200AF0BAFBFF200AF035
:1010E000B7FBFF200AF0B4FB4FF4FA600AF060F996
:1010F00013216C480AF0B6FB22200AF0A9FB10214C
:101100006F480AF0AFFB039968480BF0D1FF22202B
:101110000AF09EFBFF200AF09BFBFF200AF098FBE1
:10112000FF200AF095FB4FF4FA600AF041F9132111
:101130005C480AF097FB22200AF08AFB0D216148E7
:101140000AF090FB04990BE65F4B1D6801AC2D1B68
:1011500005AE281909F05EFF04F8010BA642F8D18C
:10116000132150480AF07EFB22200AF071FB0E2169
:101170004D480AF077FB01994C480BF099FF22206B
:101180000AF066FBFF200AF063FBFF200AF060FB19
:10119000FF200AF05DFB4FF4FA600AF009F9132111
:1011A00040480AF05FFB22200AF052FB0B21404826
:1011B0000AF058FB02993D480BF07AFF22200AF012
:1011C00047FBFF200AF044FBFF200AF041FBFF2011
:1011D0000AF03EFB4FF4FA600AF0EAF813213148B6
:1011E0000AF040FB22200AF033FB102137480AF0B6
:1011F00039FB03992D480BF05BFF22200AF028FBF6
:10120000FF200AF025FBFF200AF022FBFF200AF056
:101210001FFB4FF4FA600AF0CBF8132121480AF0C3
:1012200021FB22200AF014FB0D2129480AF01AFBA9
:10123000049995E5274B1D6801AC2D1B05AE2819B7
:1012400009F0E8FE04F8010BA642F8D11321154875
:101250000AF008FB22200AF0FBFA0F211E480AF0D0
:1012600001FB019911480BF023FF22200AF0F0FA4C
:10127000FF200AF0EDFAFF200AF0EAFAFF200AF058
:10128000E7FA4FF4FA600AF093F8132105480AF0E0
:10129000E9FA22200AF0DCFA0C2110489CE600BF93
:1012A0005087FF1FB4310100D8310100AC87FF1F08
:1012B000E8310100F4310100083201004C87FF1FC2
:1012C000183201002C3201006087FF1F3C32010000
:1012D000503201005C87FF1F603201007032010054
:1012E000CB4B1C680DF1030504F10806204609F0FC
:1012F00091FE0134A64205F8010FF7D11321C5482C
:101300000AF0B0FA22200AF0A3FA1021C2480AF02B
:10131000A9FA0199C1480BF0CBFE22200AF098FAF5
:10132000FF200AF095FAFF200AF092FAFF200AF057
:101330008FFA4FF4FA600AF03BF81321B5480AF02F
:1013400091FA22200AF084FA0D21B5480AF08AFAAF
:10135000029905E5B34B1D6801AC2D1B16AE28198B
:1013600009F058FE04F8010BA642F8D11321A94850
:101370000AF078FA22200AF06BFA1621AA480AF03D
:1013800071FA0199A5480BF093FE22200AF060FA49
:10139000FF200AF05DFAFF200AF05AFAFF200AF057
:1013A00057FA4FF4FA600AF003F8132199480AF04B
:1013B00059FA22200AF04CFA13219C480AF052FAFA
:1013C000029996480BF074FE22200AF041FAFF20A1
:1013D0000AF03EFAFF200AF03BFAFF200AF038FA42
:1013E0004FF4FA6009F0E4FF13218A480AF03AFA50
:1013F00022200AF02DFA10218D480AF033FA0399C1
:1014000086480BF055FE22200AF022FAFF200AF04F
:101410001FFAFF200AF01CFAFF200AF019FA4FF415
:10142000FA6009F0C5FF13217A480AF01BFA22205E
:101430000AF00EFA0D217F480AF014FA089977484D
:101440000BF036FE22200AF003FAFF200AF000FA21
:10145000FF200AF0FDF9FF200AF0FAF94FF4FA60D4
:1014600009F0A6FF13216B480AF0FCF922200AF0CC
:10147000EFF9102170480AF0F5F9049967480BF06C
:1014800017FE22200AF0E4F9FF200AF0E1F9FF201C
:101490000AF0DEF9FF200AF0DBF94FF4FA6009F0F8
:1014A00087FF13215B480AF0DDF922200AF0D0F90A
:1014B0000D2162480AF0D6F9099951E4604B1C6885
:1014C0000DF1030504F10806204609F0A3FD0134DF
:1014D000B44205F8010FF7D113214E480AF0C2F9C2
:1014E00022200AF0B5F90F2156480AF0BBF90199FC
:1014F0004A480BF0DDFD22200AF0AAF9FF200AF08D
:10150000A7F9FF200AF0A4F9FF200AF0A1F94FF48F
:10151000FA6009F04DFF13213E480AF0A3F922209A
:101520000AF096F90C2148480AF09CF9029917E450
:10153000464B1D6801AC2D1B05AE281909F06AFD4C
:1015400004F8010BA642F8D1132132480AF08AF9B7
:1015500022200AF07DF90F213D480AF083F9019914
:101560002E480BF0A5FD22200AF072F9FF200AF0A8
:101570006FF9FF200AF06CF9FF200AF069F94FF4C7
:10158000FA6009F015FF132122480AF06BF92220B6
:101590000AF05EF90C212F4894E52F4B1C680DF1E1
:1015A000030504F10806204609F034FD0134A64283
:1015B00005F8010FF7D1132116480AF053F922203C
:1015C0000AF046F9102125480AF04CF90199134810
:1015D0000BF06EFD22200AF03BF9FF200AF038F9EB
:1015E000FF200AF035F9FF200AF032F94FF4FA60D3
:1015F00009F0DEFE132107480AF034F922200AF030
:1016000027F90D2116480AF02DF90299FFF7A8BB1A
:101610003087FF1FB431010060330100AC87FF1F2A
:10162000743301004487FF1FA0320100B83201006B
:10163000F431010008320100183201002C3201009F
:101640003C87FF1FA8330100B83301005887FF1FF4
:1016500080320100903201003487FF1F8433010083
:1016600098330100744B1D6801AC2D1B0EAE281978
:1016700009F0D0FC04F8010BA642F8D1019B032B22
:101680003FF681ABDFE803F0AA7D500213216B48DF
:101690000AF0E8F822200AF0DBF8112168480AF085
:1016A000E1F8029967480BF003FD22200AF0D0F818
:1016B000FF200AF0CDF8FF200AF0CAF8FF200AF058
:1016C000C7F84FF4FA6009F073FE13215B480AF083
:1016D000C9F822200AF0BCF80E215B480AF0C2F8D3
:1016E0000A9958480BF0E4FC22200AF0B1F8FF20D8
:1016F0000AF0AEF8FF200AF0ABF8FF200AF0A8F8D5
:101700004FF4FA6009F054FE13214C480AF0AAF88D
:1017100022200AF09DF80F214C480AF0A3F84C4B08
:101720004848596AFFF71DBB132144480AF09AF84C
:1017300022200AF08DF80E2146480AF093F8059908
:1017400040480BF0B5FC22200AF082F8FF200AF096
:101750007FF8FF200AF07CF8FF200AF079F84FF4B8
:10176000FA6009F025FE132134480AF07BF82220A4
:101770000AF06EF80D2138480AF074F80D99FFF759
:10178000EFBA13212D480AF06DF822200AF060F814
:101790000E2132480AF066F804992A480BF088FCBA
:1017A00022200AF055F8FF200AF052F8FF200AF034
:1017B0004FF8FF200AF04CF84FF4FA6009F0F8FDFA
:1017C00013211E480AF04EF822200AF041F80D219C
:1017D00023480AF047F80C99FFF7C2BA13211748BB
:1017E0000AF040F822200AF033F80E211D480AF0D2
:1017F00039F8039913480BF05BFC22200AF028F813
:10180000FF200AF025F8FF200AF022F8FF200AF056
:101810001FF84FF4FA6009F0CBFD132107480AF0D6
:1018200021F822200AF014F80D210F480AF01AF8C6
:101830000B99FFF795BA00BF4887FF1FB43101002D
:10184000CC320100AC87FF1FE0320100F032010012
:101850009095FF1F403301005033010020330100F9
:10186000303301000033010010330100F0B5DB4BD1
:10187000BFB01D6802AC2D1B3EAE281909F0CAFB93
:1018800004F8010BA642F8D14FF4FA6009F090FD7C
:101890001221D348D34ED44DD44C09F0E3FF22207B
:1018A00009F0D6FF0621D24809F0DCFF222009F01A
:1018B000CFFFFF2009F0CCFFFF2009F0C9FFFF2078
:1018C00009F0C6FF4FF4FA6009F072FD1221C44816
:1018D00009F0C8FF222009F0BBFF1321C54809F019
:1018E000C1FF1199C4480BF0E3FB222009F0B0FFBF
:1018F000FF2009F0ADFFFF2009F0AAFFFF2009F04B
:10190000A7FF4FF4FA6009F053FD1221B44809F023
:10191000A9FF222009F09CFF1121B84809F0A2FF7D
:101920001599B5480BF0C4FB222009F091FFFF2068
:1019300009F08EFFFF2009F08BFFFF2009F088FFE0
:101940004FF4FA6009F034FD1221A54809F08AFF2E
:10195000222009F07DFF1321A94809F083FF2A986E
:101960000DF0DCFB022702460B460097A2480BF065
:10197000A7FB222009F06CFFFF2009F069FFFF2080
:1019800009F066FFFF2009F063FF4FF4FA6009F0E9
:101990000FFD1221924809F065FF222009F058FF3F
:1019A0000F21984809F05EFF9DF8C830002B0BBF4F
:1019B000304628460421032109F054FF222009F073
:1019C00047FFFF2009F044FFFF2009F041FFFF20FF
:1019D00009F03EFF4FF4FA6009F0EAFC122180485A
:1019E00009F040FF222009F033FF1221864809F058
:1019F00039FF129980480BF05BFB222009F028FF89
:101A0000FF2009F025FFFF2009F022FFFF2009F049
:101A10001FFF4FF4FA6009F0CBFC1221704809F067
:101A200021FF222009F014FF1121784809F01AFF44
:101A3000169971480BF03CFB222009F009FFFF20AA
:101A400009F006FFFF2009F003FFFF2009F000FF67
:101A50004FF4FA6009F0ACFC1221614809F002FF72
:101A6000222009F0F5FE1021694809F0FBFE2C98B0
:101A70000DF054FB009702460B465F480BF020FB2D
:101A8000222009F0E5FEFF2009F0E2FEFF2009F028
:101A9000DFFEFF2009F0DCFE4FF4FA6009F088FC5D
:101AA00012214F4809F0DEFE222009F0D1FE0E215E
:101AB000584809F0D7FE9DF8C930002B0BBF3046BF
:101AC00028460421032109F0CDFE222009F0C0FEA2
:101AD000FF2009F0BDFEFF2009F0BAFEFF2009F04B
:101AE000B7FE4FF4FA6009F063FC12213C4809F09C
:101AF000B9FE222009F0ACFE1221474809F0B2FEDF
:101B000013993D480BF0D4FA222009F0A1FEFF20E2
:101B100009F09EFEFF2009F09BFEFF2009F098FED1
:101B20004FF4FA6009F044FC12212D4809F09AFEA6
:101B3000222009F08DFE1121384809F093FE1799F3
:101B40002D480BF0B5FA222009F082FEFF2009F0A3
:101B50007FFEFF2009F07CFEFF2009F079FE4FF4A4
:101B6000FA6009F025FC12211D4809F07BFE2220B5
:101B700009F06EFE10212A4809F074FE2D980DF030
:101B8000CDFA009702460B461B480BF099FA22202B
:101B900009F05EFEFF2009F05BFEFF2009F058FE11
:101BA000FF2009F055FE4FF4FA6009F001FC122104
:101BB0000B4809F057FE222009F04AFE0E21194871
:101BC00009F050FE9DF8CA30002B0BBF3046284666
:101BD0000421032109F046FE26E000BF2494FF1FE4
:101BE000A8340100A03401009C340100D095FF1FEF
:101BF000BC340100C4340100AC87FF1FD83401009D
:101C0000EC340100003501001035010024350100DD
:101C1000383501004C3501005C350100703501009C
:101C20008435010098350100222009F011FEFF20C3
:101C300009F00EFEFF2009F00BFEFF2009F008FE60
:101C40004FF4FA6009F0B4FB12219F4809F00AFE34
:101C5000222009F0FDFD12219C4809F003FE149991
:101C60009B480BF025FA222009F0F2FDFF2009F035
:101C7000EFFDFF2009F0ECFDFF2009F0E9FD4FF436
:101C8000FA6009F095FB12218F4809F0EBFD222044
:101C900009F0DEFD10218F4809F0E4FD18998C4809
:101CA0000BF006FA222009F0D3FDFF2009F0D0FD49
:101CB000FF2009F0CDFDFF2009F0CAFD4FF4FA60C6
:101CC00009F076FB1221804809F0CCFD222009F0B2
:101CD000BFFD0E21804809F0C5FD9DF8CB30002BDB
:101CE0000BBF304628460421032109F0BBFD22200A
:101CF00009F0AEFDFF2009F0ABFDFF2009F0A8FDC3
:101D0000FF2009F0A5FD4FF4FA6009F051FB122104
:101D10006D4809F0A7FD222009F09AFD0C216F48BB
:101D200009F0A0FDD4F8C41069480BF0C1F92220D5
:101D300009F08EFDFF2009F08BFDFF2009F088FDE2
:101D4000FF2009F085FD4FF4FA6009F031FB122104
:101D50005D4809F087FD222009F07AFD0C216048DA
:101D600009F080FDD4F8C81059480BF0A1F92220E1
:101D700009F06EFDFF2009F06BFDFF2009F068FD02
:101D8000FF2009F065FD4FF4FA6009F011FB122104
:101D90004D4809F067FD222009F05AFD0C215148F9
:101DA00009F060FDD4F8CC1049480BF081F92220ED
:101DB00009F04EFDFF2009F04BFDFF2009F048FD22
:101DC000FF2009F045FD4FF4FA6009F0F1FA122105
:101DD0003D4809F047FD222009F03AFD0C21424818
:101DE00009F040FDD4F8D01039480BF061F92220F9
:101DF00009F02EFDFF2009F02BFDFF2009F028FD42
:101E0000FF2009F025FD4FF4FA6009F0D1FA122104
:101E10002D4809F027FD222009F01AFD0C21334836
:101E200009F020FDD4F8D41029480BF041F9222004
:101E300009F00EFDFF2009F00BFDFF2009F008FD61
:101E4000FF2009F005FD4FF4FA6009F0B1FA122104
:101E50001D4809F007FD222009F0FAFC0C21244856
:101E600009F000FDD4F8D81019480BF021F9222010
:101E700009F0EEFCFF2009F0EBFCFF2009F0E8FC84
:101E8000FF2009F0E5FC4FF4FA6009F091FA172100
:101E9000184809F0E7FCFF2009F0DAFCFF2009F000
:101EA000D7FCFF2009F0D4FC1321134809F0DAFC19
:101EB000FF2009F0CDFCFF2009F0CAFCFF203FB055
:101EC000BDE8F04009F0C4BCA8340100A835010009
:101ED000AC87FF1FBC350100D0350100E0350100A3
:101EE000F0350100003601001036010020360100F7
:101EF000303601004036010058360100082838B558
:101F000015461C4647D014DD20283DD029DD402849
:101F100024D0802846D1C8B2012109F00BFAE8B2DA
:101F2000012109F007FAE0B20121BDE8384009F0CB
:101F300001BA02281ED0042802D0012821D038BDC1
:101F4000C8B2002109F0F6F9E8B2012109F0F2F96E
:101F5000E0B20021BDE8384009F0ECB9C8B2002178
:101F6000DBE710281FD1C8B2002109F0E3F9E8B27D
:101F70000021D6E7C8B2012109F0DCF9E8B200215E
:101F8000E4E7C8B20021F7E7C8B2012109F0D2F9AD
:101F9000E8B20021C5E7C8B2012109F0CBF9E8B2E7
:101FA0000121D3E738BD38BD38B504460C49A268D5
:101FB0000C489368206023F0020304F10C05936041
:101FC000284661600AF098FF206A08F0A3FF606A63
:101FD00008F0A0FF28460AF08FFF204638BD00BF5A
:101FE000643101007031010010B5034B03600446F9
:101FF000FFF7DAFF204610BD8431010070B50446BA
:102000000020616D636F4E68E26F4D68C4F8800018
:102010009B1B002BB8BF5B429A420E68E06728BF4B
:102020001A461344A068A36706FB0252CA6083687D
:102030009A0706D5012009F0BBF9A3689B689B07A6
:10204000F8D470BD436D10B55B68044672B6806FFE
:102050000DF0BAFC00210DF00BFD0DF0E5FE636FF5
:1020600020679842E36FD8BF5B42C4F8803062B605
:10207000A3689B689A0706D5012009F099F9A3681F
:102080009B689B07F8D410BD2DE9F041044600255C
:102090008023261D274F28482374276060606461D1
:1020A0003046A560E56090460F4608F01FFF2062AD
:1020B000304608F01BFF012363666062A56584F863
:1020C0005C50256608F0E6FE616904F1080008F03E
:1020D000A7FE84F85C0038460DF072FC17490DF03D
:1020E000C7FC17490DF0C4FC4FF074510DF0C0FC53
:1020F0004FF07C510DF0B4FB0DF096FEA061404610
:102100000DF05EFC0D490DF0B3FC0D490DF0B0FC77
:102110004FF074510DF0ACFC4FF07C510DF0A0FB72
:102120000DF082FEC4F86880E061E7662046BDE8F5
:10213000F08100BF7031010064310100BD37863588
:102140004054094C884231D02DE9F04700F1040891
:10215000414516468A46814617D0D9F80010D8F86E
:102160000000B04798B9D8F80050444601E0236811
:1021700063602746284654F8041DB0470028F6D16E
:102180003D6008F10408C245E7D1BDE8F087C9EB1E
:1021900008029308D8F8004005D0C2F1040040447A
:1021A00049460EF0D5F9C9F80040EAE7704700BF8C
:1021B0002DE9F8430B1A432B1CDD00F1400889463A
:1021C00041461746FFF7BEFFC14515D0D8F800506D
:1021D000444601E0236863602646284654F8041DFF
:1021E000B8470028F6D108F10408C1453560EDD1A3
:1021F000BDE8F883FFF7A6FFBDE8F8832DE9F04FAF
:10220000561E06EBD67683B07610B1420192884610
:10221000054699460C9F5CDA8A4600E0DA460AF1E8
:1022200001034FEA430B0BF18041013955F83300AC
:1022300055F8211005EBC304B84718B10BF1FF3B6B
:1022400005EB8B04236845F82A30B345E6DB019B98
:10225000DA0707D4019BA3F1020A0AEBDA7ABBEB97
:102260006A0F06D0C34514DCC4F8009003B0BDE883
:10227000F08F0BF1010B4FEA4B0B0BF18043013B4D
:102280000BF1FF3B55F823302360C34505EB8B046E
:10229000EADD0BF1FF3606EBD6767610494655F8A7
:1022A0002600B847731E03EBD37305EB86045B105F
:1022B00030B905EB8B04C4F8009003B0BDE8F08F93
:1022C00055F8262045F82B20B045CDDAB3461E46FA
:1022D000E4E7019BDB0700EB8104C5D48B46B9E73B
:1022E0002DE9F04F0C1A432C85B040F38980054648
:1022F000894692461E46002A61D0031D0393E410CE
:10230000686855F82410B0470AF1FF3A59F8041CE0
:10231000002834D055F82400B047002837D02B6867
:1023200055F824202A6045F8243068682968039FFE
:10233000CB46B846B04780B9ABF1040421682868A1
:10234000A346043CB0470028F8D15F4509D23A685B
:10235000DBF800103960CBF8002057F8040F29682B
:10236000E7E749463346524638467C1BFFF7B8FF3D
:10237000432C45DDBAF1000F22D0B946BFE76868AB
:10238000B04798B195E8030029606860CFE759F835
:10239000041C6868B0470028F4D02B6859F8042C56
:1023A0002A6049F8043C68682968C0E759F8041CA9
:1023B00055F82400B0472B680028B1D0EEE78846D6
:1023C000A410A71E7F1005EB870900E0013F59F814
:1023D00004390096224639462846FFF70FFF002FA2
:1023E000F4D158F8043D2A680096C5EB0804C8F8F3
:1023F00000200021A2102846FFF700FF072CF0DC88
:1024000005B0BDE8F08F00BF2DE9F0478B0000F16B
:102410002807FC18A74205460E4600F0A2809A1035
:10242000B2FA82F2C2F11F028A4B520021463846AC
:10243000FFF756FF874A21463846FFF7B9FEAB6AD9
:102440006B65012E40F30281D3F810E0384601227B
:1024500050F8041F0B690132CEEB430396424B61E7
:10246000F6DCA74200F0C980D5F828C005F12C039E
:10247000DCF818101A460DE01068806981EAE176F0
:1024800080EAE077A6EBE176A7EBE0770432B7428B
:10249000B8BF01469442EFD181EAE176A6EBE1763E
:1024A000DCF81C0006E01A68D269904203F10403CC
:1024B00028BF10469C42F6D10446BEF1000F00D062
:1024C0000EB9BDE8F0872B6828461B6898476B6DEE
:1024D0005F68DB686F67DF1B002FB8BF7F424FEA82
:1024E0004408AF67C5F88860C5F88C40C5F884809B
:1024F00030460DF065FA01460DF0BAFA81464046C5
:102500000DF05EFA014648460DF066FB4FF07C5137
:102510000DF0A4F90DF0AEFC7B08984228BF1846D8
:102520003F1AC5F88070E86700285BD13EB3AB68FE
:102530009A6812F0020474D01A6847498A426BD92B
:1025400058684649B1FBF6F1121A914257D38A1ADC
:102550000026012403209E60DC601A6098601960E8
:1025600017E0836A436501293FF76EAFD3F810E0A7
:102570009969DC6981EAE176A6EBE1769DE7384A64
:10258000AB683848802111609A6822F002029A6094
:102590000160286A696A0126002203248842DE60FD
:1025A0009A609C604CD0EB69002B8AD072B62E49A1
:1025B0002B6AE8690A60DB004A6803F1804303F58F
:1025C000603302440D201A610860DA68502122F05D
:1025D0008002DA60D96062B668690368BDE8F047D6
:1025E0005B68184720460DF0EBF90BF0ABFB0DF0E4
:1025F0001BFC0646002EC2D099E7AB6AB8E76869B3
:1026000002680027012603249F601268DE601960BB
:102610009C609047AB68BCE71049B1FBF6F11960CC
:10262000B7E7686903681B689847AB680B499C600B
:1026300001200322D860B1FBF6F119609A60A8E787
:1026400068690368BDE8F0479B681847D3F810E055
:102650000AE700BF6D0400007F320200005125022E
:10266000C4F00F40C8F00F40008003402DE9F04F48
:10267000C3B0064641F288320F461EA80521FFF777
:1026800003FD002414221521DFF89482CDF8788010
:1026900002A83A94379408F0D1FA10A8052206212E
:1026A00008F0CCFA002E00F03F81012E2BD0209BA9
:1026B0009B689A0740F10881874C884D012717E0F5
:1026C0000AF0D2F8C0B2A0F15D03DBB2102B287083
:1026D00006D8834A07FA03F31A40002A40F0F08034
:1026E0000A2008F065FE209B9B689B0740F1EC8068
:1026F0000AF0F6F8002840F3DD802368002BDFD0D5
:1027000009F0F4F8DEE7774DDFF818926B6D686C2E
:1027100000FB03F00DF058F9D5F8AC108246D5F85F
:102720009C000DF059FA014650460DF0A1F90CF04D
:10273000F5FCAB6B03948246D9F8000000FB03F074
:102740008B460DF041F968490DF092F90DF06CFBE4
:10275000014602A808F0C4FAD9F8041008F0B4FA47
:10276000054638460CF0C8FC52465B460CF02AFD84
:102770000CF0D8FF0146284608F0F0FA2146162052
:1027800008F0D8FD369B369442AA03F10B0502EB04
:10279000850502EB830302AF43F8687C314632467D
:1027A0001EA845F8904CFFF72FFE209B9B689907C9
:1027B00082D417214D484E4C09F054F8FF2009F0FF
:1027C00047F8FF2009F044F8FF2009F041F81321F1
:1027D000484809F047F8FF2009F03AF8FF2009F0CF
:1027E00037F8FF2009F034F81321434809F03AF88C
:1027F000FF2009F02DF8FF2009F02AF8FF2009F04A
:1028000027F813213D4809F02DF8FF2009F020F8A2
:10281000FF2009F01DF8FF2009F01AF813213848AD
:1028200009F020F8FF2009F013F8FF2009F010F854
:10283000FF2009F00DF81121324809F013F8222089
:1028400009F006F8304B18680CF068FC02250246C7
:102850000B4600952D480AF033FC222008F0F8FFC3
:10286000FF2008F0F5FFFF2008F0F2FFFF2008F03E
:10287000EFFF039B264823600B210AF05BF82168D9
:1028800024480AF015FC23480AF0C2FB224B002220
:10289000012116201A6008F04DFD204A2168CDF86C
:1028A000788000231EA811602360FFF77DFB43B0F2
:1028B000BDE8F08FFDF7B4FE0028FFF611AF1CE76E
:1028C0001EA8FFF79BFB0BE7002E00F08480012E73
:1028D0003FF46FAF064CE0E74087FF1FE092FF1F19
:1028E00041000100D095FF1F0AD7233CE8360100C4
:1028F0004C92FF1F003701001437010028370100F8
:102900003C37010050370100CC95FF1FAC87FF1FFB
:1029100064370100CC87FF1F8C95FF1FA892FF1F13
:10292000983101000C95FF1FDFF8AC911196D9F892
:102930005030D9F84000DFF8A4A100FB03F00DF0FF
:1029400043F8D9F8A8100446D9F898000DF044F9D6
:10295000014620460DF08CF80CF0E0FBD9F834303D
:102960000446DAF8000000FB03F00D460DF02CF8E9
:102970004E490DF07DF80DF057FA014610A808F009
:10298000AFF9DAF8041008F09FF9814638460CF0E8
:10299000B3FB22462B460CF015FC0CF0C3FE01469F
:1029A000484608F0DBF931460E2008F0C3FC369BA0
:1029B000369642AA02EB830410AD01221EA81146EE
:1029C00044F8685C44F8646CFFF71EFD209B9B682C
:1029D00098073FF571AE17213548364C08F042FF95
:1029E000FF2008F035FFFF2008F032FFFF2008F03D
:1029F0002FFF1321304808F035FFFF2008F028FF93
:102A0000FF2008F025FFFF2008F022FF13212B48AC
:102A100008F028FFFF2008F01BFFFF2008F018FF38
:102A2000FF2008F015FF1321254808F01BFFFF20A9
:102A300008F00EFFFF2008F00BFFFF2008F008FF52
:102A40001321204808F00EFFFF2008F001FFFF20AF
:102A500008F0FEFEFF2008F0FBFE11211A4808F0E6
:102A600001FF222008F0F4FE184B18680CF056FB0A
:102A7000022502460B46009515480AF021FB22204C
:102A800008F0E6FEFF2008F0E3FEFF2008F0E0FE7D
:102A9000FF2008F0DDFE119A0E4B2260012100227A
:102AA0000E201A6008F046FCF7E600BF0AD7233C68
:102AB0006C3601004C92FF1F8436010098360100ED
:102AC000AC360100C0360100D4360100CC95FF1FA2
:102AD000AC87FF1F8C95FF1FD095FF1F1495FF1F1C
:102AE0002DE9F04DB2B0074641F288320D460EA8EE
:102AF0000521FFF7C9FA0024DFF85883CDF83880A4
:102B00006846022203212A94279408F097F8012F9F
:102B1000019400F03D81022F3ED02146042008F0B0
:102B200009FC269B269432AA03F10B0502EB8505CE
:102B300002EB8303012243F868DC11460EA845F836
:102B4000904CFFF761FC109B9B689A0740F19780BF
:102B5000AA4CAB4D012615E009F086FEC0B2A0F1EB
:102B60005D03DBB2102B287005D8A64A06FA03F3E2
:102B70001A40002A7FD10A2008F01AFC109B9B689B
:102B80009B077CD509F0ACFE00286FDD2368002B85
:102B9000E2D008F0ABFEE1E79B4E9C4B3168684603
:102BA000D3E924AB08F09CF8716808F08DF806466C
:102BB00028460CF0A1FA52465B460CF003FB0CF0E1
:102BC000B1FD0146304608F0C9F82146042008F05E
:102BD000B1FB269B269432AA03F10B0502EB850577
:102BE00002EB8303012243F868DC11460EA845F886
:102BF000904CFFF709FC109B9B689907A8D41821FB
:102C0000834808F02FFEFF2008F022FEFF2008F086
:102C10001FFEFF2008F01CFE14217E4808F022FE53
:102C2000FF2008F015FEFF2008F012FEFF2008F03C
:102C30000FFE1421784808F015FEFF2008F008FE6A
:102C4000FF2008F005FEFF2008F002FE1421734863
:102C500008F008FEFF2008F0FBFDFF2008F0F8FD5B
:102C6000FF2008F0F5FD14216D4874E0FDF7D8FC55
:102C7000002880DB8AE70EA8FFF7C0F97BE7022F68
:102C8000BDD01821674808F0EDFDFF2008F0E0FDF9
:102C9000FF2008F0DDFDFF2008F0DAFD1421624876
:102CA00008F0E0FDFF2008F0D3FDFF2008F0D0FD84
:102CB000FF2008F0CDFD14215C4808F0D3FDFF2073
:102CC00008F0C6FDFF2008F0C3FDFF2008F0C0FD9E
:102CD0001421574808F0C6FDFF2008F0B9FDFF2079
:102CE00008F0B6FDFF2008F0B3FD1421514808F0AC
:102CF000B9FDFF2008F0ACFDFF2008F0A9FDFF2082
:102D000008F0A6FD11214C4808F0ACFDFF2008F0AA
:102D10009FFDFF2008F09CFDFF2008F099FD112188
:102D2000464808F09FFDFF2008F092FDFF2008F0C4
:102D30008FFDFF2008F08CFD1221414808F092FD24
:102D4000FF2008F085FDFF2008F082FDFF2008F03D
:102D50007FFD3C48122108F085FDFF2008F078FD3A
:102D6000FF2008F075FDFF2008F072FD364A374B52
:102D7000019911600420002201211A6008F0DAFA9A
:102D80000EA8CDF83880FFF70FF932B0BDE8F08D0E
:102D90002F4E1E4B31686846D3E922AB07F0A0FFE7
:102DA000716807F091FF064628460CF0A5F95246D7
:102DB0005B460CF007FA0CF0B5FC0146304607F014
:102DC000CDFF2146042008F0B5FA269B269432AAAE
:102DD00003F10B0502EB850502EB83030EA843F814
:102DE00068DC3A46394645F8904CFFF70DFB109BDE
:102DF0009B6898077FF545AFAAE600BF4087FF1F95
:102E0000E092FF1F41000100C494FF1FD095FF1FF7
:102E1000703701008C370100A4370100BC37010076
:102E2000D4370100EC3701000838010020380100D8
:102E30003838010050380100683801007C38010042
:102E400090380100A43801002C94FF1FA892FF1FA6
:102E5000C495FF1F983101002DE9F04FD1B0834692
:102E60008A461646052141F288322CA8FFF70CF954
:102E70004FF0000902220321DFF8C882CDF8B080AC
:102E800002A8CDF82091CDF8149107F0D7FE1422B6
:102E9000152110A807F0D2FE1EA80522062107F072
:102EA000CDFE9E4C002E00F04F81012E9C4F00F075
:102EB000CE809C4D50460CF087FDD4F8A81081467A
:102EC000D4F8B0000CF088FE8246206C0CF07CFD3B
:102ED000014650460CF0CCFD8246206D0CF074FD8E
:102EE000014650460CF0C4FD49460CF0C1FD0CF003
:102EF0009BFFAB688246606900FB03F00CF064FD49
:102F000089490CF0B5FD0CF08FFF01461EA807F0B3
:102F1000E7FEE96807F0D8FE514607F01FFF0025DD
:102F2000D4F8AC10D4F8B4001F950CF055FE8246CE
:102F3000606C0CF049FD014650460CF099FD82464C
:102F4000606D0CF041FD014650460CF091FD494684
:102F50000CF08EFD0CF068FFBB688146A06900FB99
:102F600003F00CF031FD70490CF082FD0CF05CFFB9
:102F7000014610A807F0B4FEF96807F0A5FE49461F
:102F800007F0ECFE1195002E00F06781012E40F055
:102F9000A4802946042008F0CDF92946162008F01F
:102FA000C9F9449B449550AA02EB830203F10C003B
:102FB00050A9134601EB800002A942F8681C10A931
:102FC00043F8641C324640F8905C02212CA8FFF7BD
:102FD0001BFA2E9B9B68980740F1F380534C544D8D
:102FE00001272AE009F040FCC0B2A0F15D03DBB28A
:102FF000102B28701AD84F4A07FA03F31A40AAB1C7
:103000004198499B41684B9AD0F804E05B1A002B29
:10301000B8BF5B4201689A4228BF1A46134401FBBD
:1030200002E200214A934C914B91C2600A2008F0C1
:10303000BFF92E9B9B689B0754D509F051FC0028D3
:1030400046DD2368002BCDD008F050FCCCE7D4F847
:10305000A010D4F8BC00334D0CF00AFD0190E06BD9
:103060000CF0B2FC019B014618460CF001FD0190EA
:10307000E06C0CF0A9FC019B014618460CF0F8FC32
:10308000019058460CF0A0FC019B014618460CF03C
:10309000EFFC3A680190206900FB02F00CF094FC10
:1030A00021490CF0E5FC0CF0BFFE014602A807F038
:1030B00017FE796807F008FE019B834618460CF05E
:1030C000B3FE0146584607F049FECDF80C90F1E6F4
:1030D000FDF7A6FA0028A9DBB3E72E9B9B689A07A9
:1030E0003FF57CAF144B039A1A60002E00F0D98094
:1030F000012E69D0114C124B22681A600121002365
:103100000420039311931F9308F014F92CA8CDF811
:10311000B080FEF749FF51B0BDE8F08FD095FF1F9A
:10312000A494FF1FB494FF1F0AD7233C4087FF1FBE
:10313000E092FF1F410001002C94FF1F4C92FF1FE3
:10314000A892FF1F98310100D4F8A010D4F8B8005D
:10315000784D794F0CF08CFC8146E06B0CF034FC20
:10316000014648460CF084FC8146E06C0CF02CFCD7
:10317000014648460CF07CFC814658460CF024FC85
:10318000014648460CF074FC2B688346E06800FB5F
:1031900003F00CF019FC69490CF06AFC0CF044FED9
:1031A000014602A807F09CFD696807F08DFD814685
:1031B00058460CF039FE0146484607F0CFFD03960D
:1031C00078E65F4B039A1A605E4C119B5E48236061
:1031D000132108F047FBFF2008F03AFBFF2008F01E
:1031E00037FBFF2008F034FB1321584808F03AFB66
:1031F000FF2008F02DFBFF2008F02AFBFF2008F03D
:1032000027FB1321524808F02DFBFF2008F020FB7C
:10321000FF2008F01DFBFF2008F01AFB13214D488A
:1032200008F020FBFF2008F013FBFF2008F010FB44
:10323000FF2008F00DFB1321474808F013FBFF2087
:1032400008F006FBFF2008F003FBFF2008F000FB5E
:103250000121162008F06EF84DE73146042008F0F1
:1032600069F831460E2008F065F8449B449650AA50
:1032700002EB83021346114602A842F8680C1EA80E
:1032800041F8640C0122022143F8606C2CA8FFF77E
:10329000BBF82E9B9B6899073FF5A0AE284B039A7D
:1032A0001A60284C1F9B2D482360122108F0DAFA7F
:1032B000FF2008F0CDFAFF2008F0CAFAFF2008F03E
:1032C000C7FA1221264808F0CDFAFF2008F0C0FA0C
:1032D000FF2008F0BDFAFF2008F0BAFA12212148B9
:1032E00008F0C0FAFF2008F0B3FAFF2008F0B0FAA7
:1032F000FF2008F0ADFA12211B4808F0B3FAFF20B6
:1033000008F0A6FAFF2008F0A3FAFF2008F0A0FAC0
:103310001221164808F0A6FAFF2008F099FAFF20BB
:1033200008F096FAFF2008F093FA01210E2008F029
:1033300001F8E0E6B494FF1FA494FF1F0AD7233CD2
:103340002C94FF1F4C92FF1FB8380100CC380100AD
:10335000E0380100F4380100083901001C3901008F
:103360003039010044390100583901006C3901003D
:103370002DE9F04FC1B0054641F2883205211CA865
:10338000DFF8E482A84CFEF77FFE0027A74B1C93D2
:10339000022203210DF1380A68463897359707F065
:1033A0004DFC05220621504607F048FCD8F80030B5
:1033B000D8F8100000FB03F00CF006FB9C490CF061
:1033C00057FB0CF031FD0146684607F089FCD8F840
:1033D000041007F079FC284601970CF0F5FAE36B2E
:1033E000D8F82C500646E06C00FB03F00CF0ECFA29
:1033F000D4F8A0100CF03CFB814668000CF0E4FA15
:103400000146D8F84C000CF0E7FB8A490CF0E4FBCD
:10341000014648460CF02CFB31460CF029FB0BF022
:103420007DFE0AF049FB0CF07DF9D8F808308346A0
:10343000D8F814000BFB05F500FB03F07E4B6D0084
:103440001D600CF0C1FA7A490CF012FB0CF0ECFC98
:103450000146504607F044FCD8F81C1007F034FC35
:10346000D4F8A810D8F844000F970CF0B5FB054627
:10347000206C0CF0A9FA014628460CF0F9FA054632
:10348000206D0CF0A1FA014628460CF0F1FA314605
:103490000CF0EEFA0BF042FE0AF00EFB0CF042F9D3
:1034A00039468146042007F045FF39460E2007F0D3
:1034B00041FFD8F82C30BB424EDD604E604D59467E
:1034C0006846C9F1000907F049FC4946504607F033
:1034D00045FC349B40AA02EB830203F10C0040A997
:1034E000134601EB8000002442F868DC022143F817
:1034F00064AC012240F8904C1CA83494FEF784FF81
:103500001E9B9B689A0748BF012407D484E00A20C9
:1035100007F04EFF1E9B9B689B077DD509F0E0F9E5
:103520000028F4DCFDF77CF80028F0DD3368002B80
:103530006FD109F099F9C0B2A0F15D03DBB2414A45
:10354000287004FA03F1102B02EA0102DFD8002AE6
:10355000DDD01CA8FEF752FD3B4D3C4C0F9A3C4879
:10356000019B2A601821236008F07CF9FF2008F0F5
:103570006FF9FF2008F06CF9FF2008F069F91821B5
:10358000344808F06FF9FF2008F062F9FF2008F0D6
:103590005FF9FF2008F05CF918212F4808F062F964
:1035A000FF2008F055F9FF2008F052F9FF2008F03D
:1035B0004FF91821294808F055F9FF2008F048F97B
:1035C000FF2008F045F9FF2008F042F918212448AF
:1035D00008F048F9FF2008F03BF9FF2008F038F91F
:1035E000FF2008F035F914481E4B21682A68016055
:1035F000012104201A6007F09DFE01210E2007F032
:1036000099FE0A4B1C931CA8FEF7CEFC41B0BDE806
:10361000F08F08F06BF98EE7D8F82C300137B7EB54
:10362000430FFFF64CAF97E7D095FF1F983101008D
:103630000AD7233C0000B4432C94FF1F4087FF1F90
:10364000E092FF1F410001004C92FF1F8C95FF1F6D
:10365000803901009C390100B8390100D4390100DA
:10366000F0390100A892FF1F3493FF1F2DE9F04F9E
:10367000C1B0054641F2883205211CA8DFF8E4827A
:10368000A84CFEF701FD0027A74B1C930222032143
:103690000DF1380A68463897359707F0CFFA1422AB
:1036A0001521504607F0CAFAD8F80030D8F81000B3
:1036B00000FB03F00CF088F99C490CF0D9F90CF0F0
:1036C000B3FB0146684607F00BFBD8F8041007F07F
:1036D000FBFA284601970CF077F9E36BD8F83050E5
:1036E0000646E06C00FB03F00CF06EF9D4F8A01075
:1036F0000CF0BEF9814668000CF066F90146D8F876
:1037000050000CF069FA8A490CF066FA0146484606
:103710000CF0AEF931460CF0ABF90BF0FFFC0AF0FF
:10372000CBF90BF0FFFFD8F80C308346D8F818001F
:103730000BFB05F500FB03F07E4B6D001D600CF0EC
:1037400043F97A490CF094F90CF06EFB01465046AF
:1037500007F0C6FAD8F8201007F0B6FAD4F8AC1083
:10376000D8F848000F970CF037FA0546606C0CF05B
:103770002BF9014628460CF07BF90546606D0CF0EC
:1037800023F9014628460CF073F931460CF070F924
:103790000BF0C4FC0AF090F90BF0C4FF39468146E7
:1037A000042007F0C7FD3946162007F0C3FDD8F8FE
:1037B0003030BB424EDD604E604D59466846C9F11F
:1037C000000907F0CBFA4946504607F0C7FA349B88
:1037D00040AA02EB830203F10C0040A9134601EB5F
:1037E0008000002442F868DC022143F864AC012226
:1037F00040F8904C1CA83494FEF706FE1E9B9B6874
:103800009A0748BF012407D484E00A2007F0D0FDBE
:103810001E9B9B689B077DD509F062F80028F4DCAD
:10382000FCF7FEFE0028F0DD3368002B6FD109F0B5
:103830001BF8C0B2A0F15D03DBB2414A287004FA64
:1038400003F1102B02EA0102DFD8002ADDD01CA808
:10385000FEF7D4FB3B4D3C4C0F9A3C48019B2A6041
:103860001821236007F0FEFFFF2007F0F1FFFF2083
:1038700007F0EEFFFF2007F0EBFF1821344807F0B8
:10388000F1FFFF2007F0E4FFFF2007F0E1FFFF203A
:1038900007F0DEFF18212F4807F0E4FFFF2007F0B4
:1038A000D7FFFF2007F0D4FFFF2007F0D1FF18213A
:1038B000294807F0D7FFFF2007F0CAFFFF2007F0D5
:1038C000C7FFFF2007F0C4FF1821244807F0CAFFF4
:1038D000FF2007F0BDFFFF2007F0BAFFFF2007F031
:1038E000B7FF14481E4B21682A680160012104209B
:1038F0001A6007F01FFD0121162007F01BFD0A4B7F
:103900001C931CA8FEF750FB41B0BDE8F08F07F0F8
:10391000EDFF8EE7D8F830300137B7EB430FFFF6F5
:103920004CAF97E7D095FF1F983101000AD7233C91
:103930000000B4432C94FF1F4087FF1FE092FF1F3D
:10394000410001004C92FF1F8C95FF1F0C3A0100B3
:10395000283A0100443A0100603A01007C3A010033
:10396000A892FF1F3493FF1F2DE9F04FC1B0074607
:1039700041F2883205211CA8DFF8C482A14CFEF771
:1039800083FB0025A04B1C93022203210EAE684648
:103990003895359507F052F905220621304607F093
:1039A0004DF9D8F80030D8F8100000FB03F00CF007
:1039B0000BF896490CF05CF80CF036FA01466846B4
:1039C00007F08EF9D8F8041007F07EF9E36BE06C8D
:1039D000019500FB03F00BF0F7FFD4F8A0100CF0FA
:1039E00047F88B490546D8F83C000CF0F5F801463D
:1039F00028460CF03DF8054638460BF0E5FF014639
:103A000028460CF035F80CF00FFA236D0546206CB3
:103A100000FB03F00BF0D8FFD4F8A8108146D8F8CB
:103A200034000CF0D9F8014648460CF021F8044661
:103A3000D8F8240040000BF0C7FF014620460CF0E8
:103A4000CBF80CF0F1F9814620460CF0EDF9714B02
:103A50001860D8F80830D8F81400012F00FB03F0E4
:103A600008BFC9F100090BF0AFFF68490CF000F87E
:103A70000CF0DAF90146304607F032F90024D8F8A4
:103A80001C1007F021F9214604200F9407F052FC86
:103A900021460E2007F04EFCD8F82430A34249DD21
:103AA000DFF8A0B127464FF0010A6D42294668466B
:103AB00007F054F94946304607F050F9349B3497E3
:103AC00040AA02EB830103F10C0E02EB8E0E0B46B3
:103AD00041F868DC1CA843F8646C012202214EF80E
:103AE000907CFEF791FC0A2007F062FC1E9B9B680D
:103AF0009B077CD508F0F4FE0028F7DCFCF790FD6E
:103B00000028F3DDDBF80030002B78D108F0ACFEA4
:103B1000C0B2A0F15D03DBB23F4A40490AFA03FE9E
:103B2000102B087002EA0E02E0D8002ADED01CA892
:103B3000FEF764FA3A4D3B4C0F9A3B48019B2A60D2
:103B40001B21236007F08EFEFF2007F081FEFF207F
:103B500007F07EFEFF2007F07BFE1721334807F0B9
:103B600081FEFF2007F074FEFF2007F071FEFF20AA
:103B700007F06EFE17212E4807F074FEFF2007F0B5
:103B800067FEFF2007F064FEFF2007F061FE1721AB
:103B9000284807F067FEFF2007F05AFEFF2007F0D5
:103BA00057FEFF2007F054FE1721234807F05AFE66
:103BB000FF2007F04DFEFF2007F04AFEFF2007F030
:103BC00047FE14481D4B296822680160012104202A
:103BD0001A6007F0AFFB01210E2007F0ABFB0A4B88
:103BE0001C931CA8FEF7E0F941B0BDE8F08FD8F8AF
:103BF00024300134B4EB430FFFF657AF9AE707F0D8
:103C000075FE85E7D095FF1F983101000AD7233C48
:103C10000000B443A892FF1F41000100E092FF1F83
:103C20004C92FF1F8C95FF1F983A0100B43A010097
:103C3000CC3A0100E43A0100FC3A01002C94FF1F49
:103C40003493FF1F4087FF1F2DE9F04FC1B0054699
:103C500041F2883205211CA8DFF8C082A04FFEF790
:103C600013FA00249F4B1C93022203210EAE6846D8
:103C70003894359406F0E2FF14221521304606F000
:103C8000DDFFD8F80030D8F8100000FB03F00BF08F
:103C90009BFE95490BF0ECFE0CF0C6F80146684619
:103CA00007F01EF8D8F8041007F00EF82846019423
:103CB0000BF08AFEFB6B8146F86C00FB03F00BF007
:103CC00083FED7F8A0100BF0D3FE88490546D8F83C
:103CD00040000BF081FF014628460BF0C9FE494623
:103CE0000BF0C6FE0CF0A0F87B6D0546786C00FB6F
:103CF00003F00BF069FED7F8AC108246D8F8380014
:103D00000BF06AFF014650460BF0B2FE0746D8F8AA
:103D1000280040000BF058FE014638460BF05CFFCF
:103D200049460BF0A5FE0CF07FF8814638460CF0B2
:103D30007BF8D8F80C30D8F818206D49086002FBE1
:103D400003F00BF041FE68490BF092FE0CF06CF8AA
:103D50000146304606F0C4FFD8F8201006F0B4FF44
:103D6000214604200F9407F0E5FA2146162007F0BB
:103D7000E1FAD8F82830A34249DDDFF8A4B127469C
:103D80004FF0010A6D422946684606F0E7FF4946B2
:103D9000304606F0E3FF349B349740AA02EB8301E0
:103DA00003F10C0E02EB8E0E0B4641F868DC1CA8EA
:103DB00043F8646C012202214EF8907CFEF724FB4C
:103DC0000A2007F0F5FA1E9B9B689B077CD508F03C
:103DD00087FD0028F7DCFCF723FC0028F3DDDBF887
:103DE0000030002B78D108F03FFDC0B2A0F15D0398
:103DF000DBB2404A40490AFA03FE102B087002EA7F
:103E00000E02E0D8002ADED01CA8FEF7F7F83B4DE2
:103E10003B4C0F9A3B48019B2A601B21236007F013
:103E200021FDFF2007F014FDFF2007F011FDFF200A
:103E300007F00EFD1721344807F014FDFF2007F0AE
:103E400007FDFF2007F004FDFF2007F001FD17210B
:103E50002E4807F007FDFF2007F0FAFCFF2007F0CF
:103E6000F7FCFF2007F0F4FC1721294807F0FAFCC3
:103E7000FF2007F0EDFCFF2007F0EAFCFF2007F031
:103E8000E7FC1721234807F0EDFCFF2007F0E0FCDA
:103E9000FF2007F0DDFCFF2007F0DAFC14481E4B82
:103EA000296822680160012104201A6007F042FAA3
:103EB0000121162007F03EFA0A4B1C931CA8FEF7BE
:103EC00073F841B0BDE8F08FD8F828300134B4EB76
:103ED000430FFFF657AF9AE707F008FD85E700BFED
:103EE000D095FF1F983101000AD7233C0000B4434E
:103EF000A892FF1F41000100E092FF1F4C92FF1F9C
:103F00008C95FF1F143B0100303B0100483B010032
:103F1000603B0100783B01002C94FF1F3493FF1F8E
:103F20004087FF1F2DE9F04FBF4BDFF83CA31B6814
:103F3000DAF80010DFF834B391FBF3F2D1B003FBF1
:103F400012135B42064641F2883205212CA84FF03D
:103F50000008DBF800500193FEF796F8B34B2C9362
:103F60000222032102A8CDF82081CDF8148106F0A9
:103F700065FE0522062110A8AD4CDFF8F492AD4F86
:103F800006F05CFE142215211EA806F057FE0F2035
:103F9000CDF80C80C9F80080CDF87C80C7F800808F
:103FA000CDF8448007F004FAD4F8DC1002A806F03B
:103FB00097FED4F8E01006F087FE019B194606F044
:103FC000CDFED4F8E41010A86D4206F089FED4F8B6
:103FD000E81006F079FE294606F0A6FED4F8E410B3
:103FE0001EA806F07DFED4F8E81006F06DFE294606
:103FF00006F09AFE0420414607F09CF9142007F0D1
:10400000D7F9032E22D8DFE816F035010400350178
:1040100004000021162007F08DF9449B50AA03F1FB
:104020000C0002EB830250A901EB80001EA913468D
:1040300042F8681C002402A943F8641C012240F8DD
:10404000904C02212CA84494FEF7DEF92E9B9B682D
:104050009A073BD5784C794D4FF0010814E008F0F1
:1040600003FCC0B2A0F15D03DBB2102B287004D8B2
:10407000734A08FA03F31A40AAB90A2007F098F91C
:104080002E9B9B689B0721D508F02AFC002805DDA4
:104090002368002BE3D007F029FCE2E7FCF7C0FA25
:1040A0000028EADBF4E72CA8FDF7A8FF0121042093
:1040B00007F040F901210E2007F03CF901211620FC
:1040C00007F038F900231F931193D6E7039B3B6059
:1040D000032E06D8DFE806F0A402A4021F9BC9F84D
:1040E0000030584B1B68033B0B2B73D8DFE813F0F1
:1040F000D50026017701C801720019025602CE02CE
:1041000005033C0370030C0018214F4807F0AAFB7D
:10411000FF2007F09DFBFF2007F09AFBFF2007F030
:1041200097FB1821484807F09DFBFF2007F090FB04
:10413000FF2007F08DFBFF2007F08AFB1821434882
:1041400007F090FBFF2007F083FBFF2007F080FBC8
:10415000FF2007F07DFB18213D4807F083FBFF207F
:1041600007F076FBFF2007F073FBFF2007F070FBE2
:104170001621384807F076FB222007F069FB3968E2
:10418000354808F095FF222007F062FBFF2007F07A
:104190005FFBFF2007F05CFBFF2007F059FB0A20C4
:1041A00007F006F92D48162107F05CFB222007F0E6
:1041B0004FFBD9F80010284808F07AFF222007F0BA
:1041C00047FBFF2007F044FBFF2007F041FBFF20E7
:1041D00007F03EFB0023012104200393C9F80030BF
:1041E0001F933B601193CBF80030CAF8003007F002
:1041F000A1F801210E2007F09DF80121162007F0FB
:1042000099F81B21164808F095FB164808F000FFA6
:10421000064B2C932CA8FDF7C7FE51B0BDE8F08FDC
:10422000119BC9F800305CE7C096FF1F9831010070
:10423000D095FF1F8C95FF1F4087FF1FE092FF1F47
:10424000410001005487FF1F7C3A0100283A010019
:10425000E43C0100003D0100AC87FF1F183D010058
:10426000003E0100CC87FF1F2C94FF1FA892FF1F68
:104270004C92FF1F00210E2007F05CF8449B50AACF
:1042800003F10C0002EB830250A901EB800010A99E
:104290001346002442F8681CCDE61221DE4807F0E0
:1042A000E1FAFF2007F0D4FAFF2007F0D1FAFF204F
:1042B00007F0CEFA1221D84807F0D4FAFF2007F011
:1042C000C7FAFF2007F0C4FAFF2007F0C1FA122155
:1042D000D24807F0C7FAFF2007F0BAFAFF2007F02C
:1042E000B7FAFF2007F0B4FA1221CD4807F0BAFA66
:1042F000FF2007F0ADFAFF2007F0AAFAFF2007F031
:10430000A7FA1021C74807F0ADFA222007F0A0FA5B
:104310003968C54808F0CCFE222007F099FAFF2042
:1043200007F096FAFF2007F093FAFF2007F090FAC3
:104330000A2007F03DF81021BC4835E71321BC489E
:1043400007F090FAFF2007F083FAFF2007F080FAC9
:10435000FF2007F07DFA1321B54807F083FAFF200C
:1043600007F076FAFF2007F073FAFF2007F070FAE3
:104370001321B04807F076FAFF2007F069FAFF2012
:1043800007F066FAFF2007F063FA1321AA4807F046
:1043900069FAFF2007F05CFAFF2007F059FAFF20C6
:1043A00007F056FA1121A54807F05CFA222007F021
:1043B0004FFA39689C4808F07BFE222007F048FA43
:1043C000FF2007F045FAFF2007F042FAFF2007F030
:1043D0003FFA0A2006F0ECFF11219948E4E6172184
:1043E000984807F03FFAFF2007F032FAFF2007F065
:1043F0002FFAFF2007F02CFA1721924807F032FA23
:10440000FF2007F025FAFF2007F022FAFF2007F02F
:104410001FFA17218C4807F025FAFF2007F018FA39
:10442000FF2007F015FAFF2007F012FA172187483E
:1044300007F018FAFF2007F00BFAFF2007F008FA40
:10444000FF2007F005FA1521814807F00BFA22201A
:1044500007F0FEF93968744808F02AFE222007F0B8
:10446000F7F9FF2007F0F4F9FF2007F0F1F9FF203A
:1044700007F0EEF90A2006F09BFF1521754893E638
:104480001821754807F0EEF9FF2007F0E1F9FF2049
:1044900007F0DEF9FF2007F0DBF918216E4807F07E
:1044A000E1F9FF2007F0D4F9FF2007F0D1F9FF2050
:1044B00007F0CEF91821694807F0D4F9FF2007F07A
:1044C000C7F9FF2007F0C4F9FF2007F0C1F9182150
:1044D000634807F0C7F9FF2007F0BAF9FF2007F09B
:1044E000B7F9FF2007F0B4F916215E4807F0BAF9D2
:1044F000222007F0ADF939684B4808F0D9FD222099
:1045000007F0A6F9FF2007F0A3F9FF2007F0A0F9B4
:10451000FF2007F09DF90A2006F04AFF16215248B5
:1045200042E61421514807F09DF9FF2007F090F969
:10453000FF2007F08DF9FF2007F08AF914214B487E
:1045400007F090F9FF2007F083F9FF2007F080F9CA
:10455000FF2007F07DF91421454807F083F9FF207B
:1045600007F076F9FF2007F073F9FF2007F070F9E4
:104570001421404807F076F9FF2007F069F9FF2081
:1045800007F066F9FF2007F063F912213A4807F0B7
:1045900069F9222007F05CF939680CE614213748E4
:1045A00007F060F9FF2007F053F9FF2007F050F9FA
:1045B000FF2007F04DF91421304807F053F9FF2090
:1045C00007F046F9FF2007F043F9FF2007F040F914
:1045D00014212B4807F046F9FF2007F039F9FF2096
:1045E00007F036F9FF2007F033F91421254807F0CA
:1045F00039F9FF2007F02CF9FF2007F029F9FF20F7
:1046000007F026F91221204807F02CF9222007F0A4
:104610001FF93968CFE500BF6C390100303901005E
:10462000903B0100A43B0100AC87FF1FB83B010099
:1046300008390100CC380100CC3B0100E03B01000F
:10464000F43B0100FC3A0100B43A0100083C0100CF
:10465000203C0100383C0100F03901009C39010088
:10466000503C01006C3C0100843C010050380100CA
:1046700008380100303D0100483D0100D4370100F9
:104680008C3701005C3D0100743D01001321794825
:1046900007F0E8F8FF2007F0DBF8FF2007F0D8F874
:1046A000FF2007F0D5F81321724807F0DBF8FF2050
:1046B00007F0CEF8FF2007F0CBF8FF2007F0C8F88E
:1046C00013216D4807F0CEF8FF2007F0C1F8FF2056
:1046D00007F0BEF8FF2007F0BBF81321674807F08A
:1046E000C1F8FF2007F0B4F8FF2007F0B1F8FF2071
:1046F00007F0AEF81121624856E51321614807F032
:10470000B1F8FF2007F0A4F8FF2007F0A1F8FF2080
:1047100007F09EF813215B4807F0A4F8FF2007F08C
:1047200097F8FF2007F094F8FF2007F091F8132185
:10473000554807F097F8FF2007F08AF8FF2007F0A8
:1047400087F8FF2007F084F81321504807F08AF813
:10475000FF2007F07DF8FF2007F07AF8FF2007F030
:1047600077F811214A481FE512214A4807F07AF8E4
:10477000FF2007F06DF8FF2007F06AF8FF2007F030
:1047800067F8322006F014FE1221424807F06AF85A
:10479000FF2007F05DF8FF2007F05AF8FF2007F030
:1047A00057F8322006F004FE12213B4807F05AF871
:1047B000FF2007F04DF8FF2007F04AF8FF2007F030
:1047C00047F8322006F0F4FD344B00221A6001E570
:1047D0001721334807F046F8FF2007F039F8FF208B
:1047E00007F036F8FF2007F033F817212C4807F0C0
:1047F00039F8FF2007F02CF8FF2007F029F8FF20F8
:1048000007F026F81721274807F02CF8FF2007F0BB
:104810001FF8FF2007F01CF8FF2007F019F81721F8
:10482000214807F01FF8FF2007F012F8FF2007F0DB
:104830000FF8FF2007F00CF815211C4807F012F8BC
:10484000222007F005F83968194808F031FC2220C9
:1048500006F0FEFFFF2006F0FBFFFF2006F0F8FF4A
:10486000FF2006F0F5FF0A2006F0A2FD15211148F1
:104870009AE400BF9836010084360100883D0100AB
:104880009C3D01001437010000370100B03D0100DC
:10489000C43D0100D83D0100EC3D01000495FF1F1F
:1048A000783B0100303B01009C3C0100B43C01001E
:1048B000AC87FF1FCC3C01002DE9F04700F1280632
:1048C0004FEA810806EB0805AE42044689461746C2
:1048D00010D04FEAA802B2FA82F2C2F11F025200CF
:1048E000294630464C4BFDF7FBFC4B4A29463046E7
:1048F000FDF75EFCD4F828E0C4F854E0DEF818C0F8
:10490000BCF1000F60D08CEAEC730022A3EBEC73D7
:10491000B9F1010FCEF80820CEF8103011DD08F102
:104920002408A044304650F8042F9369002BB8BFE8
:104930005B421361DEF810104045C1EB4303536145
:10494000F1D1AE425FD0DEF81C2004F12C0306E06A
:104950001968C9698A4203F1040328BF0A469D42C7
:10496000F6D12E49A36EDEF80400C4F878C0A1FB8E
:104970000303A1FB02129B09920903FB02F200232D
:10498000E267636772B6A06F0BF01EF839460BF052
:104990006FF80BF049FA636F20679842E36FD8BF56
:1049A0005B42C4F8803062B61D4BA168256A606A1C
:1049B0001C4E80221A608B68854223F002038B60B4
:1049C000326023D0E3690BB9BDE8F08772B6164AAE
:1049D000236AE06900211160DB00516803F1804324
:1049E00003F5603301440D2019611060DA6850212D
:1049F00022F08002DA60D96062B660690368BDE8BF
:104A0000F0475B681847A36ADA69AAE76069036838
:104A1000BDE8F0479B6818477D040000D34D621045
:104A2000C4F00F40C8F00F40008003402DE9F04F64
:104A3000B9B0814641F288320521B34CB34D17A875
:104A4000FDF722FBB249B34A2368179201FB09F133
:104A50000122D5F8C860D5F8C47000913092032BBC
:104A600000F2DB81DFE813F01D01FC00DB00040035
:104A700095F8C0B06368029360698BF001030193FD
:104A80000AF0A2FFA4490AF0F3FF054648460AF0DF
:104A90009BFF014628460AF0EBFF636A03938046BA
:104AA0004FF0040A022203210DF1240B584606F0B0
:104AB000C5F8002505200A9506F07AFC01995846AC
:104AC00006F0ECF8029906F00BF9039906F0FCF8F1
:104AD000009906F029F92946504606F02BFC2F993B
:104AE0002F9538AB01F10B0C03EB810E03EB8C0C13
:104AF0004EF85CBC4FF07E52012117A84CF8845C44
:104B0000FFF7DAFE2C9B5B6872B635980AF05CFF03
:104B100041460AF0ADFF0BF087F9349B3390984281
:104B2000369BD8BF5B42379362B6199B9B689A0746
:104B30001AD57A4DDFF804B207F0D2FE002840F310
:104B4000C580F0B206F0FCFB002800F04F81F8B2FF
:104B500006F0F6FB002800F049810A2006F028FC48
:104B6000199B9B689B07E7D45046012106F0E2FBA6
:104B70001C216B4806F076FEFF2006F069FEFF2040
:104B800006F066FEFF2006F063FE1921654806F078
:104B900069FEFF2006F05CFEFF2006F059FEFF20B4
:104BA00006F056FE1721604806F05CFEFF2006F076
:104BB0004FFEFF2006F04CFEFF2006F049FE1621B6
:104BC0005A4806F04FFE222007F038FF222006F058
:104BD0003FFE05A8564908F0E3FB05A9554808F033
:104BE000F1F905A9544808F0EDF905A808F098FB7B
:104BF000222007F023FF222006F02AFEFF2006F0E5
:104C000027FEFF2006F024FEFF2006F021FE414B88
:104C1000179317A8FDF7C8F939B0BDE8F08F95F8DC
:104C2000C3B023690293206A8BF0010301930AF059
:104C3000CBFE39490AF01CFF064648460AF0C4FE7E
:104C4000014630460AF014FF236BD5F8D860D5F83A
:104C5000D470039380464FF0110A1722102123E7E6
:104C600095F8C2B0E3680293E0698BF00103019309
:104C70000AF0AAFE28490AF0FBFE064648460AF05A
:104C8000A3FE014630460AF0F3FEE36AD5F8D06091
:104C9000D5F8CC70039380464FF0160A14221521E4
:104CA00002E795F8C1B0A3680293A0698BF00103F5
:104CB00001930AF089FE18490AF0DAFEA36A039309
:104CC00080464FF00E0A05220621EDE6FBF7A8FC10
:104CD00000287FF736AF2B6893BB07F0C5FDC0B245
:104CE00043288BF8000032D066287FF42AAF28686A
:104CF000FBF7BAFE0AF016FD2368032B50D8DFE855
:104D000003F06D6B694000BF9095FF1FD095FF1FAA
:104D100000943577843101000AD7233C4087FF1F78
:104D20001C3E01003C3E0100583E0100703E010067
:104D3000883E0100CC87FF1FAC87FF1FE092FF1F5A
:104D400006F0D4FDC0B243288BF80000CCD12C9BD8
:104D50005B6872B635980AF037FE00210AF088FECB
:104D60000BF062F8349B33909842369BD8BF5B427D
:104D7000379362B6052006F01BFB17A8FDF762F912
:104D8000F2E660610AF020FE29490AF071FE8046D1
:104D900048460AF019FE014640460AF069FE804680
:104DA000244B25481968342206F076F92C9B5B6861
:104DB00072B635980AF008FE41460AF059FE0BF02B
:104DC00033F8349B33909842369BD8BF5B4237937D
:104DD00062B6B6E62062D5E7E061D3E7A0610AF0EB
:104DE000F3FD13490AF044FE8046D9E72C9B5B682B
:104DF00072B635980AF0E8FD00210AF039FE0BF092
:104E000013F8349B33909842369BD8BF5B4237935C
:104E100062B617A8FDF716F9A6E6002303934FF034
:104E20000008029301934FF00E0A052206213BE68B
:104E30000AD7233C2494FF1F9095FF1F2DE9F04FC4
:104E4000EFB02CAC154603908846049141F28832AD
:104E5000052120469946FDF717F94DABDFF8A0A2D2
:104E60000126184641F288329F4B23600521666671
:104E7000FDF70AF99C4B6696022210A803214D9378
:104E800005F0DCFE9AF8C070DAF8C820009287F0CE
:104E90000102964B0B92039ADAF8C4B0022D4046F9
:104EA00003FB02F2D6BF00260025012503FB00F319
:104EB000B9F1010F09920A9300F0BB84B9F1020F16
:104EC00000F08084B9F1000F00F0DE8300239846E3
:104ED0000F930AF079FD00270E2205920E90CDF86F
:104EE0003480CDF80880CDF804803B4607970697BC
:104EF0000897052206211EA80C934FF0000805F024
:104F00009DFE0520CDF87C80CDF8448006F050FA57
:104F100008991EA805F0C2FE069905F0E1FE0C9B5B
:104F2000194605F0D1FE099905F0FEFE0B9910A86F
:104F300005F0B4FE079905F0D3FE394605F0C4FE2E
:104F40000A9905F0F1FE002D40F0FB82002E40F0A2
:104F50004383DFF8B08115B9002E00F0C983052026
:104F600006F026FA07F0BCFC002840F3BB83D8F813
:104F70000030002B40F0B28307F076FC03465C4F14
:104F80005C483B700D2107F0D5FC002339785A4866
:104F90000A2208F04DF8584808F03AF83B78433BAD
:104FA000692B00F29180DFE813F0E5018F008F009C
:104FB0008F008F008F008F008F008F008F008F0079
:104FC0008F008F008F008F008F008F008F008F0069
:104FD0008F008F008F008F000F026A018F008F00FB
:104FE0008F008F008F0098028F0071028F008F005A
:104FF0008F008F008F008F008F000D01AF008F009A
:105000006A008F008F008F008F008F008F008F004D
:105010008F008F008F008F008F008F008F008F0018
:105020008F008F008F008F008F008F008F008F0008
:105030008F008F008F008F008F008F008F008F00F8
:105040008F008F008F008F008F008F008F008F00E8
:105050008F008F008F008F008F008F008F008F00D8
:105060008F008F008F006A009802AF000D016A0167
:105070000F026A009802AF000D016A010F02B9F138
:10508000010F00F08283B9F1020F00F07583B9F1CE
:10509000000F00F05A83194B19481968F02205F0E7
:1050A000FBFF629B5B6872B66B980AF08DFC0299FD
:1050B0000AF0DEFC0AF0B8FE6A9B699098426C9B8D
:1050C000D8BF5B426D9362B6002D00F0FD819DF864
:1050D000000006F035F9002800F033810125052095
:1050E00006F066F937E700BF843101000094357798
:1050F000E092FF1F943E0100CC87FF1F2494FF1F06
:10510000D095FF1F4087FF1F4F9B9B689B07DBD4F9
:10511000B9F1010F00F0F883B9F1020F00F0F1834B
:10512000B9F1000F00F0D083079910A805F0D8FD61
:10513000A24905F0F9FD0021042006F0FBF8659B6B
:105140006EA903F10B0001EB800001EB8303002645
:1051500010A943F85C1C4FF07E5240F8846C01218A
:105160004DA86596FFF7A8FB629B5B6872B66B98CB
:105170000AF02AFC00210AF07BFC0AF055FE6A9B2B
:10518000699098426C9BD8BF5B426D9362B60520D4
:1051900006F00EF9629B5B6872B66B980AF014FC1D
:1051A00002990AF065FC0AF03FFE6A9B69909842FA
:1051B0006C9BD8BF5B426D9362B64FF0FF33012604
:1051C000049381E74F9B9B689A073FF57DAFB9F148
:1051D000010F00F08D83B9F1020F00F08083B9F167
:1051E000000F00F06883079910A805F079FD744955
:1051F00005F09AFD0021042006F09CF8659B6EA93D
:1052000003F10B0001EB800001EB8303002610A9E2
:1052100043F85C1C4FF07E5240F8846C01214DA88D
:105220006596FFF749FB629B5B6872B66B980AF064
:10523000CBFB00210AF01CFC0AF0F6FD6A9B69908A
:1052400098426C9BD8BF5B426D9362B6052006F016
:10525000AFF8629B5B6872B66B980AF0B5FB029977
:105260000AF006FC0AF0E0FD6A9B699098426C9B8C
:10527000D8BF5B426D9362B60126049624E7A3680B
:105280009B6899073FF520AFB9F1010F00F05C83EF
:10529000B9F1020F00F04D83B9F1000F00F0028365
:1052A00006991EA805F01CFD444905F03DFD059832
:1052B000002106F03FF8236E03F10A011EA80B330C
:1052C00044F8210000254FF07E520121204644F889
:1052D00023502566FFF7F0FA636D5B6872B6A06F26
:1052E0000AF072FB00210AF0C3FB0AF09DFD636F18
:1052F00020679842E36FD8BF5B42C4F8803062B643
:10530000052006F055F8636D5B6872B6A06F0AF071
:105310005BFB01990AF0ACFB0AF086FD636F206726
:105320009842E36FD8BF5B42C4F8803062B64FF05A
:10533000FF339DF80000039306F002F800287FF485
:10534000CDAE636D5B6872B6A06F0AF03DFB0021C5
:105350000AF08EFB0AF068FD636F20679842E36FE6
:10536000D8BF5B42C4F8803062B62046FCF76AFEC4
:105370000025B4E60D21134807F0DCFA629B5B6858
:1053800072B66B980AF020FB00210AF071FB0AF05C
:105390004BFD6A9B699098426C9BD8BF5B426D93B2
:1053A00062B6052006F004F84DA8FCF74BFE01217B
:1053B000042005F0BFFF002686E600BF006CCA8807
:1053C00000943577D03E0100A3689B68980700F1F0
:1053D000B4811421A64807F0ADFAA64807F018FEDC
:1053E000B9F1010F00F09C82B9F1020F00F08F8239
:1053F000B9F1000F00F04D8206991EA805F070FC6F
:105400009D4905F091FC0598002105F093FF236E5E
:1054100003F10A011EA80B3344F8210000254FF0C8
:105420007E520121204644F823502566FFF744FAB6
:10543000636D5B6872B6A06F0AF0C6FA00210AF0CD
:1054400017FB0AF0F1FC636F20679842E36FD8BF47
:105450005B42C4F8803062B6052005F0A9FF636D99
:105460005B6872B6A06F0AF0AFFA01990AF000FB10
:105470000AF0DAFC636F20679842E36FD8BF5B42A3
:10548000C4F8803062B60123039320E6636D5B6845
:1054900072B6A06F0AF098FA00210AF0E9FA0AF051
:1054A000C3FC636F20679842E36FD8BF5B42C4F8C8
:1054B000803062B6052005F07BFF2046FCF7C2FD78
:1054C0000598012105F036FF5FFA8BF005F038FFF3
:1054D00000283FF436AF002501E6D8F80000FBF7BE
:1054E000C3FA0AF01FF9B9F1010F00F06881B9F1B0
:1054F000020F00F05381B9F1000F07D1CAF828005C
:105500000AF062FA5D490AF0B3FA01905C4B5D481B
:105510001968F02205F0C0FD636D5B6872B6A06F7C
:105520000AF052FA01990AF0A3FA0AF07DFC636FBF
:1055300020679842E36FD8BF5B42C4F8803062B600
:10554000C2E54146059805F0F5FE236EC4F860807B
:1055500003F10A011EA80B3344F821004FF07E52DC
:105560000121204644F82380FFF7A6F9636D5B68AC
:1055700072B6A06F0AF028FA00210AF079FA0AF050
:1055800053FC636F20679842E36FD8BF5B42C4F857
:10559000803062B6642005F00BFF636D5B6872B605
:1055A00003980AF011FA0D990AF062FA0746A06F03
:1055B0000AF00AFA014638460AF05AFA0AF034FCB0
:1055C000636F20679842E36FD8BF5B42C4F88030B6
:1055D00062B6002E3FF4BDAC0021042005F0AAFE07
:1055E000052005F0E5FE659B6EA903F10B0001EBBC
:1055F000800001EB8303002710A943F85C1C4FF0E7
:105600007E5240F8847C01214DA86597FFF754F93C
:10561000629B5B6872B66B980AF0D6F900210AF0BB
:1056200027FA0AF001FC6A9B699098426C9BD8BFEC
:105630005B426D9362B6642005F0BAFE629B5B68C4
:1056400072B66B980AF0C0F90F9907460E980AF0E7
:105650000FFA014638460AF00BFA0AF0E5FB6A9B9E
:10566000699098426C9BD8BF5B426D9362B670E4C0
:10567000A43E0100CC87FF1F009435770AD7233C56
:105680002494FF1FD095FF1F9AF8C130DAF8280044
:10569000AF4F83F0010308930AF096F9BB680190BD
:1056A0000693DAF800003B6807930AF08DF980460C
:1056B000029004980AF088F9A6490E9001980AF021
:1056C000D7F9A4490D9040460AF0D2F90E22FB68A2
:1056D00005920F907F68052206210CE406F006F97A
:1056E00003464CE4FAF79CFF0028FFF6EDAC3EE4DD
:1056F000994A1F99994B11600420119A1A6001214F
:105700001F96119605F016FE01210E2005F012FEDF
:105710000121162005F00EFE0121112005F00AFEE0
:105720008F4B4D934DA8FCF73FFC8D4B23602046DB
:10573000FCF73AFC6FB0BDE8F08F1021894807F004
:10574000F9F8894807F064FCBEE4D8F80000FBF7DC
:105750008BF909F0E7FFCAF800000AF035F97D4936
:105760000AF086F9074604980AF02EF901463846F1
:105770000AF07EF902908EE4D8F80000FBF774F985
:1057800009F0D0FFCAF80800E7E7D8F80000FBF7F7
:105790006BF909F0C7FFCAF80400DEE7CAF8300069
:1057A0000AF012F96B490AF063F9074603980AF008
:1057B0000BF9014638460AF05BF90190A6E6CAF8F3
:1057C0002C00EDE79AF8C330DAF83000674F83F029
:1057D000010308930AF0F8F8019004980AF0F4F82D
:1057E000BB680E9080460693DAF808003B68079382
:1057F0000AF0EAF857490AF03BF941460AF038F94D
:10580000DAF8D830029080465249019800930AF0A5
:105810002FF950490D9040460AF02AF91122FB68F1
:105820000592DAF8D4B00F907F6817221021FFF7A5
:1058300062BB9AF8C230DAF82C004D4F83F00103B6
:1058400008930AF0C1F8BB6801900693DAF80400E7
:105850003B6807930AF0B8F88046029004980AF073
:10586000B3F8DAF8D0300E903A49019800930AF074
:10587000FFF838490D9040460AF0FAF81622FB6806
:105880000592DAF8CCB00F907F6814221521FFF74B
:1058900032BBDAF828000AF097F82E490AF0E8F847
:1058A0000190A9E5DAF828000AF08EF829490AF0F3
:1058B000DFF80190F4E4DAF800000AF085F82549F1
:1058C0000AF0D6F802908EE4DAF800000AF07CF8CC
:1058D00020490AF0CDF800F10043029324E4DAF8FD
:1058E00008000AF071F81B490AF0C2F802907AE445
:1058F000DAF804000AF068F816490AF0B9F80290DC
:1059000071E4DAF80800E1E7DAF80400DEE7DAF833
:1059100030000AF059F80F490AF0AAF801906BE537
:10592000DAF82C000AF050F80A490AF0A1F80190C0
:1059300062E5DAF830000AF047F806490AF098F80C
:1059400000F100430193ABE4DAF82C00F3E700BF69
:105950003094FF1F0AD7233CA892FF1F2C94FF1FEF
:1059600084310100BC3E0100CC87FF1F8C93FF1FD8
:105970009094FF1F2DE9F04FA7B005ABBC4C0090F1
:105980000025184641F28832052180270126DFF8DC
:105990003CB303958DF81070FCF776FBE069CDF809
:1059A00014B01E960AF010F88146206ADFF82083B2
:1059B000DFF820A30AF008F8014648460AF00CF97F
:1059C000AC4A01461160D8F83C0009F0FDFFD8F858
:1059D000A0100AF04DF88146D8F84C0009F0F4FF09
:1059E000014648460AF044F80AF01EFAA24A014667
:1059F00011601268206BA14901920AF0EDF8019A3A
:105A00008146104609F0E0FF014648460AF030F8AA
:105A1000D8F850209A4BD8F84010186001FB02F0DB
:105A200009F0D2FFD8F8A8100190A06ADFF8A89278
:105A3000DFF884820AF0D0F8019A014610460AF095
:105A400017F8904B2268A169186001FB02F009F079
:105A5000BBFF8D490AF00CF80AF0E6F98B4A10609A
:105A60001168504605F03CF9616805F02DF9A2680F
:105A70004560606A00FB02F009F0A6FF824909F068
:105A8000F7FF0190009809F09FFF019A0146104628
:105A900009F0EEFF0AF0C8F97D4B18601968484616
:105AA00005F01EF9E16805F00FF92946456004206C
:105AB00005F040FC29460E2005F03CFCD8F860308B
:105AC000C8F8605003F10A000B3348F820904FF0FB
:105AD0007E523146404648F82350FEF7EDFE1D9BAE
