:1000000000800020BD010000B5BB02006DBB0200F6
:100010006DBB02006DBB02006DBB02006DBB020038
:100020006DBB02006DBB02006DBB0200B5BB0200E0
:10003000B5BB02006DBB0200EDDD0200F1DD020088
:10004000B5BB0200B5BB0200B5BB0200B5BB0200E8
:10005000B5BB0200B5BB0200B5BB0200B5BB0200D8
:10006000B5BB0200B5BB0200B5BB0200B5BB0200C8
:10007000B5BB0200B5BB0200B5BB0200B5BB0200B8
:10008000B5BB0200B5BB0200B5BB0200B5BB0200A8
:10009000B5BB0200B5BB0200B5BB0200B5BB020098
:1000A000B5BB0200B5BB0200B5BB0200B5BB020088
:1000B000B5BB0200B5BB0200B5BB0200B5BB020078
:1000C000B5BB0200B5BB0200B5BB0200B5BB020068
:1000D000B5BB0200B5BB0200B5BB0200B5BB020058
:1000E000B5BB0200B5BB0200B5BB0200B5BB020048
:1000F000B5BB02009DC60200B5BB0200B5BB020045
:10010000B5BB0200B1CD0200B5BB0200B5BB020019
:10011000B5BB0200B5BB0200B5BB0200B5BB020017
:10012000B5BB0200B5BB0200B5BB0200B5BB020007
:10013000B5BB0200B5BB0200D9B10200B5BB0200DD
:10014000B5BB0200B5BB0200B5BB0200B5BB0200E7
:100150005DE1020071E1020085E1020099E1020027
:10016000B5BB0200A1D00200B5BB0200B5BB0200C6
:10017000B5BB0200B5BB0200B5BB0200B5BB0200B7
:10018000B5BB0200B5BB0200B5BB0200B5BB0200A7
:10019000B5BB0200B5BB0200B5BB0200B5BB020097
:1001A000B5BB0200B5BB0200B5BB0200B5BB020087
:1001B000B5BB0200B5BB0200B5BB0200564B4CF20A
:1001C000205210B51A804DF628121A8000BF00BFC9
:1001D0002BF0F4FC514B4FF010621A60504A9A60B9
:1001E000504ADA60504A136813F4807304D14F49BF
:1001F0000B604FF4A85313604D4B1A78110703D5C9
:100200001A7842F008021A704A4B4B492A221A7097
:100210004A4A4B4B8B4204D252F8040F43F8040B6A
:10022000F8E7484B484900228B4202D243F8042B9E
:10023000FAE74649464A002352F8230041F82300D2
:1002400001336F2BF8D1434B434A802103F8011B44
:100250009342FBD1414B3D4A1A60414B8A221A70AE
:10026000A3F5805324225A70A0221A709A7992071B
:10027000FCD59A79D406FCD43A4A937903F00C035E
:10028000082B384BF9D103221A7140225A719A79FE
:100290009006FCD5334A9179324B4906FBD5324A58
:1002A000324911600221516020221A709A7902F0BD
:1002B0000C020C2AFAD12E4B2E4A1A602E4B2F4AD2
:1002C0001A6000225A60072243F8042C2C4AC3F813
:1002D0000C2D62B62BF0B2FD144B1B68DA0705D566
:1002E00028482BF00DFD284B284A1A60284B1B7814
:1002F0005B0609D5244C254B22689A4204D121483B
:100300002BF0FEFC002323602BF05EFC31F0D6F8CE
:100310002DF04CFFFEE700BF0E200540308004406A
:10032000823F04000100002B10D0034014D0034092
:1003300002D0074000E00740C092FF1FF88D030085
:100340002087FF1FC092FF1FE0A2FF1F0082FF1F38
:100350000000000000E400E05FE400E008ED00E0E1
:100360000050064000400640448004400000030165
:1003700004800440C010050014E000E0FF76010096
:10038000000020207E4BB7621CE00340A5C3945AB6
:1003900000F00740FFFFFFFFFFFFFFFFFFFFFFFF32
:1003A000FFFFFFFFFFFFFFFFFFFFFFFFFFFFFFFF5D
:1003B000FFFFFFFFFFFFFFFFFFFFFFFFFFFFFFFF4D
:1003C000FFFFFFFFFFFFFFFFFFFFFFFFFFFFFFFF3D
:1003D000FFFFFFFFFFFFFFFFFFFFFFFFFFFFFFFF2D
:1003E000FFFFFFFFFFFFFFFFFFFFFFFFFFFFFFFF1D
:1003F000FFFFFFFFFFFFFFFFFFFFFFFFFFFFFFFF0D
:10040000FFFFFFFFFFFFFFFFFFFFFFFFDEF9FFFF23
:1004100010B5054C237833B9044B13B10448AFF33E
:1004200000800123237010BDC092FF1F0000000058
:10043000F48D0300084B10B51BB108490848AFF311
:1004400000800848036803B910BD074B002BFBD0A0
:10045000BDE81040184700BF00000000C492FF1F15
:10046000F48D0300C092FF1F0000000000207047C1
:10047000704700BF036D0BB101207047406D003025
:1004800018BF0120704700BF00690B699842D4BFB4
:1004900000200120704700BF80698B690028B8BF29
:1004A0004042002BB8BF5B429842D4BF00200120DD
:1004B000704700BFF0B586460120DEF85870DEF8C0
:1004C0003030BA6A106079683A680A447A600EF18E
:1004D000300493B15A69002A08DB9A6A10605E689A
:1004E00019683D695A6931445960521B19690A44B7
:1004F0005A6154F8043F002BECD1DEF82430144A42
:10050000DEF81840DEF86C0000211160DB00516855
:1005100003F1804303F5603321440D241961146015
:10052000DA68502122F08002DA60D96000B1F0BDB3
:100530007A68FB689A4200D0F0BDDEF85C30012298
:100540008EF82820002BF7D0BDE8F040184700BFF8
:1005500000800340C36A00F12C0233B10120D96A44
:1005600052F8043F0860002BF9D1704710B50446DB
:10057000806D18B130F0F2FF0023A365236D2BB11D
:1005800004F11800BDE8104029F0AEBC636D002BEB
:10059000F6D110BDF0B5002395B01A4605461831C6
:1005A00004A84FF47A74224F8DF804308DF80C3083
:1005B000129313930294009729F0EAFC129B002BEC
:1005C0002BD05C202DF0FAFD04461A4B9DF8040058
:1005D000029A1949236000269DF80C302073A1600F
:1005E000226104A9237504F11800666029F04EFC0D
:1005F0006368124AA76001334FF47A71A6652E71C1
:100600002E732C616360A9602A600D4B009304A8CF
:1006100029F06AFC284615B0F0BD139B002BD0D101
:10062000064A2B71AC602B732B612A60EDE700BF8B
:10063000F850030048510300B05003001C51030060
:10064000D4500300836C13B1184627F0C9BEC06CA8
:1006500008B125F00FBD4FF0FF30704700B5836C37
:1006600083B063B1184601220DF1070127F0E8FDC0
:1006700001280CD19DF8070003B05DF804FBC06CA5
:1006800028B101220DF1070125F020FCF0E74FF021
:10069000FF30F1E708B52CF0FFFA0028CCBF0320AB
:1006A000002008BD836D012210B55B6880F89020A2
:1006B000044672B60021D0F8800030F009FBE16FEB
:1006C000A06730F0C1FC28B1D4F88830C4F88C3071
:1006D00062B610BDD4F8883003F10043C4F88C3002
:1006E00062B610BD036D9BB11A7812F0700F00D185
:1006F000704710B504460021184627F093FF606D3F
:1007000028B100220023BDE8104025F0CBBC10BD6D
:10071000406D0028ECD090F8313013F0500FE7D046
:100720000022002325F0BEBC38B5846D0CB12046F4
:1007300038BD05464FF4807030F008FF0146A865CB
:1007400080B1286D0C7028B14FF4807229F0D6F971
:10075000AC6DECE7686D40B14FF4807227F012F891
:10076000AC6DE4E7024CAC65E1E70C46DFE700BFA7
:10077000DC92FF1F8A79A2F150031B0620D4F0B54A
:100780004B79046D0D798E784F780978013385B0F7
:1007900002F26C72DBB244B103918DE8E0002046B6
:1007A000022128F057F805B0F0BD406D0028FAD0BE
:1007B00003918DE8E000022126F02EFA05B0F0BD8D
:1007C00000207047D0B5046D8CB1012B08BF002A02
:1007D00001D30020D0BD1146204627F023FF00287A
:1007E000F7D0204628F09EF80028F2D0D0BD446D06
:1007F000002CEED0204625F055FC0028E9D02046FC
:10080000BDE8D04026F0B6BAF0B5036D83B00C4613
:100810002BB318460DF1060201A927F085FBD8B1CC
:10082000BDF80430BDF8062003B9AAB102F01F06D6
:10083000C3F343155912C2F345177600013D01F584
:10084000EA6103F01F03D21226706571A171237152
:100850006770A27003B0F0BD002003B0F0BD406D22
:100860000028F9D00DF1060201A925F0CFFAD6E74C
:10087000F0B5036D83B00C462BB318460DF106029C
:1008800001A927F041FBD8B1BDF80430BDF806201E
:1008900003B9AAB102F01F06C3F343155912C2F3FC
:1008A00045177600013D01F5EA6103F01F03D212FE
:1008B00026706571A17123716770A27003B0F0BDDD
:1008C000002003B0F0BD406D0028F9D00DF1060204
:1008D00001A925F08BFAD6E7036D13B15869002101
:1008E0007047436D13B193E80300704718461946EB
:1008F000704700BF036D13B1D86900217047436D85
:1009000013B118695969704718461946704700BFF6
:10091000036D13B1184627F093BC406D08B125F064
:10092000D5BA4FF0FF307047036D13B1184627F06A
:1009300057BD406D08B125F09DBB4FF0FF307047AB
:10094000036D33B11B7813F0700F14BF012000202A
:100950007047406D30B190F8313013F0500F14BF34
:1009600001200020704700BF8A79A2F150031B06C6
:1009700020D4F0B54B79046D0D798E784F780978D5
:10098000013385B002F26C72DBB244B103918DE8A1
:10099000E0002046042127F05DFF05B0F0BD406D6A
:1009A0000028FAD003918DE8E000042126F034F904
:1009B00005B0F0BD00207047036963B11A680749AC
:1009C00092698A4208D1186D08B127F03DBF586D71
:1009D00008B125F0B5BF704718461047F50900006B
:1009E000836C13B1184627F02FBFC06C08B125F0F7
:1009F000A7BF7047036D13B1184627F025BF406DA0
:100A000008B125F09DBF704710B5036982B08DF81D
:100A10000710BBB11968104ACC68944215D1186D03
:100A200030B101220DF1070127F0B8FF02B010BD6F
:100A3000586D0028FAD001220DF1070126F00AFABC
:100A400002B010BD184602B010BD184601220DF1CB
:100A50000701A04702B010BDF50A0000036973B199
:100A60001A68084952698A4207D1186D08B127F0FF
:100A7000B7BC586D18B125F0FDBA184610474FF0B5
:100A8000FF30704729090000036923B310B51968C6
:100A9000124A8C68944282B014D1186D48B1012278
:100AA0000DF1070127F0CCFB90B19DF8070002B0D3
:100AB00010BD586D0028F8D001220DF1070125F076
:100AC00005FAF1E7184601220DF10701A047EBE70F
:100AD0004FF0FF30EBE74FF0FF3070471109000097
:100AE000836C13B1184627F059BFC06C08B126F0CB
:100AF000B1B97047036D13B1184627F04FBF406D71
:100B000008B126F0A7B9704700B5836C83B08DF8A3
:100B1000071043B1184601220DF1070127F03EFFEF
:100B200003B05DF804FBC06C0028F9D001220DF180
:100B3000070126F08FF903B05DF804FB03697BB170
:100B400010B41C680B48E46884420ED1186D10B1D3
:100B500010BC27F023BF586D20B110BC26F07AB925
:100B600000207047002010BC70471846234610BC78
:100B7000184700BFF50A0000026D62B1137803F058
:100B8000080303F0FF0003B3D3695069181A48BF84
:100B90006FF000407047416DC1B191F8313003F002
:100BA000080303F0FF0083B1D1E90423D1E9000178
:100BB000101A30B463EB010100256FF000448D4240
:100BC00008BF844200D2204630BC704708467047B8
:100BD000826C62B1137803F0080303F0FF0003B3E3
:100BE000D3695069181A48BF6FF000407047C16C54
:100BF000C1B191F8313003F0080303F0FF0083B175
:100C0000D1E90423D1E90001101A30B463EB0101EA
:100C100000256FF000448D4208BF844200D2204678
:100C200030BC704708467047006970B30368184AC3
:100C30001B6993420ED1026D6AB1137803F0080369
:100C400003F0FF000BB3D3695069181A48BF6FF067
:100C5000004070471847416DC1B191F8313003F041
:100C6000080303F0FF0083B1D1E90423D1E90001B7
:100C7000101A30B463EB010100256FF000448D427F
:100C800008BF844200D2204630BC704708467047F7
:100C9000790B0000D0B4039C16461F4634B1012CDA
:100CA0001ED0022C0DD00020D0BC7047046DDCB1EA
:100CB000012B08BF002AF6D220461146D0BC27F0EF
:100CC000B1BC036DB3B1DA69B61847F10007012F63
:100CD00008BF002EE7D231461846D0BC27F0A2BC90
:100CE000036D8BB15A69EFE7406D0028DBD0D0BCB3
:100CF00025F0D8B9406D0028D5D0D0E90423921949
:100D00007B41D0BC25F0CEB9406D0028CBD0D0E9D6
:100D1000002392197B41EAE738B50446806D0C4BFD
:100D2000236018B130F01AFC0023A365236D04F191
:100D300018054BB1284629F0D7F8064BA360284682
:100D400029F0D2F8204638BD636D002BF2D1F4E7CC
:100D500048510300D450030038B50446806D0E4B53
:100D6000236018B130F0FAFB0023A365236D04F172
:100D700018056BB1284629F0B7F8084BA360284640
:100D800029F0B2F820465C212DF01CFA204638BD2F
:100D9000636D002BEED1F0E748510300D4500300FF
:100DA00070B50469244B036005461CB16668013EBA
:100DB00066600EB1284670BD2368204ADB6A934204
:100DC0002CD1A06D10B130F0C9FBA665236D5BB3CB
:100DD00004F1180029F088F82C69002CEAD0236867
:100DE000174A5B6893421CD1A06D164B236018B163
:100DF00030F0B4FB0023A365236D04F11806BBB1EA
:100E0000304629F071F8104BA360304629F06CF899
:100E100020465C212DF0D6F9284670BD2046984723
:100E2000DAE720469847C5E7636D002BD0D1D3E7BA
:100E3000636D002BE4D1E6E71C5103006D05000053
:100E4000590D000048510300D450030070B50569E6
:100E5000284B036004461DB16E68013E6E602EB1E2
:100E6000204614212DF0AEF9204670BD2B68224A91
:100E7000DB6A934230D1A86D10B130F06FFBAE65E4
:100E80002B6D7BB305F1180029F02EF82569002D94
:100E9000E6D02B68194A5B68934220D1A86D184BA5
:100EA0002B6018B130F05AFB0023AB652B6D05F1B8
:100EB0001806DBB1304629F017F8124BAB6030460C
:100EC00029F012F828465C212DF07CF920461421E7
:100ED0002DF078F9204670BD28469847D6E7284679
:100EE0009847BDE76B6D002BCCD1CFE76B6D002B26
:100EF000E0D1E2E71C5103006D050000590D000030
:100F000048510300D4500300036A8B4210B523D02C
:100F1000C369994200D010BD8369002BFBD072B623
:100F2000194AC369846900211160DB00516803F12B
:100F3000804303F5603321440D2419611460DA689D
:100F4000502122F08002DA60D96062B6006903683D
:100F5000BDE810405B6818470446006903689B6859
:100F6000984794F82430002BD5D004F108002DF0D8
:100F7000D3F80023E06963602AF018F9206ABDE81D
:100F800010402AF013B900BF008003408268002A95
:100F900036D0816D836F2DE9F04104464868D4F85E
:100FA000AC101B1A002BB8BF5B428B423ADBD4F863
:100FB000B0108B4208DBE06F83425CDB936823F068
:100FC00002039360BDE8F081D4F88830002BF5D09F
:100FD0001168324881421FD95068314DB5FBF3F397
:100FE000091A8B420DD2606901680026012503248D
:100FF00096600968D56013609460BDE8F0410847C9
:101000007047591A0025012403209560D4601160AF
:1010100090601360BDE8F0812149B1FBF3F31360E8
:10102000BDE8F081D4E92467D4F8A80000FB03F000
:10103000321847F10003104619462FF00BFE2DF031
:10104000ABFF30F021F8A2680346D8B1002ABFD127
:10105000144B134D1B68B5FBF0F51BB102210120A9
:101060009847A2680020012103239060D160156099
:101070009360BDE8F081C31AD4E92667D4F8A800CC
:10108000013BD3E7002A99D1064B1B68002B95D072
:10109000022101209847A26890E700BFFFED0200FF
:1010A000006CDC0210A0FF1F2DE9F041856FC76FB7
:1010B000866D04462946384673682FF09DFF002848
:1010C00039D028462FF0E0FF054694F890300BB158
:1010D000002D7BD0B368AB422BD0002D3368B4BF5A
:1010E0004FF0FF3201229A4213D004F1280101206F
:1010F00008E013685B42012B13600BBF126B536B4C
:101100001360186051F8042F002AF2D1636F5B015D
:1011100044D185EAE572A2EBE572A36822BB002BFD
:1011200000F085809A6822F002029A60B560BDE8FE
:10113000F081BDE8F081D4F88C80384641462FF02C
:10114000BFFC0021074640462FF07EFF39460028AD
:101150002ED028462FF078FF00282ED12846E067B1
:101160002FF092FF0546B0E7002B4AD019683548AA
:10117000814224D95868344FB7FBF2F2091A8A42E7
:1011800035D26069002601689E6001270326DF6072
:1011900009681A609E608847A66DC7E7013BFDD1CC
:1011A00085EAE572A2EBE572A368002AB7D0DBE717
:1011B00028462FF02BFF0028D0D03846CFE7224911
:1011C000B1FBF2F21A60B560BDE8F08104F10C00E9
:1011D0002CF0A2FF206AA56029F0E8FF606A29F0E0
:1011E000E5FFA36D9D6084F89050BDE8F081511A31
:1011F0000027012403209F60DC60196098601A605A
:1012000094E71249104FD1F80080B7FBF2F7B8F11C
:10121000000F04D002210120C047A368A66D002062
:10122000012103229860D9601F609A607EE7074B16
:101230001B68002B3FF476AF022101209847A3687A
:10124000A66D6FE7FFED0200006CDC0210A0FF1F2F
:1012500070B5044608460D4631F012FA236802467E
:10126000294620465B68BDE87040184738B50A2219
:10127000002305462CF0F8FF044628462CF0E0FF3A
:10128000204438BD08B5FE210D4824F067FA18B196
:101290000C4B01221A6008BD0A21094824F05EFAAD
:1012A00018B1084B0A221A6008BD0921044824F02D
:1012B00055FA044B08B9186008BD09221A6008BD28
:1012C0003C9BFF1F049AFF1F70B584B0044601AD1C
:1012D0000DF10F06236820465B699847C3B2042BC3
:1012E00002D0FF2B0BD028700135B542F2D101A8F6
:1012F00030F0D4F804B070BD23685B699847236868
:1013000020461B69984700282046F5DC01A830F0EC
:10131000C5F801A830F0C2F804B070BD01280BD0A8
:10132000032806D010B10020054970470548FFF793
:10133000CBBF0548FFF7C8BF0448FFF7C5BF00BFD4
:101340000000F0BF5C88FF1F3488FF1F2088FF1F4C
:10135000013970B5044603296BD8DFE801F02D2070
:101360001102354D6B6D002B53D0012B61D1EB6D0C
:10137000A86D00FB03F02FF053FC696E064624E0D5
:101380002D4D6B6B002B34D0012B52D1EB6BA86B26
:1013900000FB03F02FF044FC696C064615E0264D77
:1013A000D5F8B830CBB96B6A286A00FB03F02FF090
:1013B00037FCA96A064608E01F4D2B69E86800FB68
:1013C00003F02FF02DFC6969064620462FF034FD0E
:1013D000014630462FF07CFC70BDD5F8C030D5F802
:1013E000BC0000FB03F02FF01BFCD5F8C410064630
:1013F000EBE7AB6BE86B00FB03F02FF011FC296C03
:101400002FF066FC0D490646A86C2FF061FC0146E2
:10141000DBE7EB6DA86D00FB03F02FF001FC296EFC
:101420002FF056FC05490646A86E2FF051FC0146E8
:10143000CBE7002070BD00BFCC96FF1FDB0FC9407B
:101440002DE9F843284F3E68804689463046002102
:101450002FF0DCFD002843D1244D2C6800212046CC
:101460002FF0D4FD10B104F100442C603146304619
:101470002FF02EFC2146064620462FF029FC01467F
:1014800030462FF01DFB2EF079FF2DF0CBFC2FF016
:10149000C1FA396806462FF0CFFC29680446304669
:1014A0002FF0CAFC064648462FF0BEFB01463046E8
:1014B0002FF00EFC2EF062FF2DF028FC2FF0AAFA80
:1014C000286040462FF0B0FB21462FF001FC2EF0A3
:1014D00055FF2DF01BFC2FF09DFA3860BDE8F88316
:1014E00006F100463E60B7E79095FF1FE89AFF1FA0
:1014F00038B5334B1B68013B0A2B60D8DFE803F09B
:1015000026363F5F5F060606064F36002D4B2E4DF2
:1015100018682E4CFFF702FF2FF034FA2C4A0346CE
:101520002C481168C3624C226B6163642AF09AFAFA
:10153000294B2846196860222AF094FA274B204646
:1015400019686C22BDE838402AF08CBA1D4B244C37
:101550001868FFF7E3FE2FF015FA224B6061196857
:1015600020467822BDE838402AF07CBA154B1E4C44
:101570001868FFF7D3FE2FF005FA1C4BEEE7114B6E
:101580001B4C1868FFF7CAFE2FF0FCF9194B60617D
:10159000196820463422BDE838402AF063BA094B66
:1015A000154C1868FFF7BAFE2FF0ECF9134BA06248
:1015B000196820467022BDE838402AF053BA38BD79
:1015C0006C87FF1F8087FF1F6C96FF1FF498FF1F1B
:1015D0007087FF1FCC97FF1F9C87FF1F8487FF1F0B
:1015E000F095FF1F8C87FF1FD094FF1F6087FF1FA0
:1015F000C098FF1F6887FF1F149AFF1F9087FF1F67
:10160000934B1B68013B10B50A2B6DD8DFE803F044
:10161000112132486C060606065621008D4C2368BF
:10162000013B032B6CD8DFE813F0C400B800AC001A
:101630006000894B1868FFF771FE2FF0A3F9874A05
:10164000936D013B0446032B4ED8DFE803F09188ED
:101650007F76814B1868FFF761FE2FF093F9804A7F
:10166000936D042B61D8DFE813F05F00E000DE002B
:10167000DC00DA007B4C2368032B00F0D880042BBD
:1016800006D1754B1868FFF749FE2FF07BF9E06132
:10169000754B744819683422BDE810402AF0E2B94D
:1016A000724C2368013B0D2B1ED8DFE803F0AFA678
:1016B0009D8E1D1D1D1D1D1DAFA69D8E6C4C636C4A
:1016C000012B00F0BC80022B00F0E680032B00F021
:1016D000EB80042B00F0F080664B6548196870229F
:1016E000BDE810402AF0BEB910BD5B4B1868FFF78B
:1016F00015FE2FF047F9604A604BE0635062586571
:101700005F4B544819684C222AF0ACF95D4B5A489B
:10171000196860222AF0A6F95B4B584819686C22B8
:10172000BDE810402AF09EB95061584B4C481968EA
:101730007822BDE810402AF095B9554B54624748CD
:1017400019687822BDE810402AF08CB9504B146219
:10175000424819687822BDE810402AF083B94C4B02
:10176000D4613E4819687822BDE810402AF07AB961
:10177000474B9461394819687822BDE810402AF037
:1017800071B9354B1868FFF7C9FD2FF0FBF83A4ADD
:101790003A4BA06310621865B2E72F4B1868FFF749
:1017A000BDFD2FF0EFF8344A344B6063D061D8644C
:1017B000A6E7294B1868FFF7B1FD2FF0E3F82E4A92
:1017C0002E4B2063906198649AE7234B1868FFF7CB
:1017D000A5FD2FF0D7F82F4B20631968234854221A
:1017E000BDE810402AF03EB91B4B1868FFF796FD84
:1017F0002FF0C8F8274B6062EFE7174B1868FFF728
:101800008DFD2FF0BFF8234BA061E6E7124B18685F
:10181000FFF784FD2FF0B6F81E4BE060DDE7506265
:1018200083E7106281E7D0617FE790617DE70A4B33
:101830001868FFF773FD2FF0A5F8A06128E7064BA5
:101840001868FFF76BFD2FF09DF8E06244E700BFDA
:101850006C87FF1FCC97FF1F8087FF1FF095FF1F2E
:10186000D094FF1FC098FF1F6887FF1F6C94FF1F55
:10187000149AFF1F9087FF1F6C96FF1FF498FF1F9D
:101880007087FF1F9C87FF1F8487FF1F6087FF1FD4
:101890008C87FF1F2487FF1F0B4B1868FFF73EFD47
:1018A0002FF070F8206317E7074B1868FFF736FD35
:1018B0002FF068F860630FE7034B1868FFF72EFD01
:1018C0002FF060F8A06307E78087FF1F70B5684DB1
:1018D0002B686A68064602FB03F00C462FF0A0F95D
:1018E000A9682FF0F5F92EF049FD2DF00FFA2FF031
:1018F00049F8611E04296ED8DFE801F0182E43581C
:1019000003005C4C2368E660012B65D02FF08CF956
:1019100031462FF091FA2FF0DDFBA060564B554871
:1019200019681022BDE870402AF09CB8534C236817
:10193000E660012B00F08C802FF076F931462FF015
:101940007BFA2FF0C7FBA0604D4B4C481968102262
:10195000BDE870402AF086B84A4C2368E660012B47
:1019600067D02FF061F931462FF066FA2FF0B2FB05
:10197000A060454B434819681022BDE870402AF02A
:1019800071B8424C2368E660012B43D02FF04CF92C
:1019900031462FF051FA2FF09DFBA0603C4B3B48A5
:1019A00019681022BDE870402AF05CB8394C2368F1
:1019B000E660012B1FD02FF037F931462FF03CFAAB
:1019C0002FF088FBA060344B324819681022BDE824
:1019D00070402AF047B870BD2FF026F92F49054610
:1019E00030462FF029FA014628462FF071F92FF0E2
:1019F00071FBA06092E72FF017F9284905463046A1
:101A00002FF01AFA014628462FF062F92FF062FBF8
:101A1000A060D8E72FF008F92049054630462FF09E
:101A20000BFA014628462FF053F92FF053FBA06024
:101A3000B4E72FF0F9F81949054630462FF0FCF9C4
:101A4000014628462FF044F92FF044FBA06090E7B0
:101A50002FF0EAF81149054630462FF0EDF901461E
:101A600028462FF035F92FF035FBA0606CE700BF5A
:101A7000CC96FF1F2893FF1F5087FF1FE092FF1F88
:101A80004087FF1FF492FF1F4487FF1F1493FF1F1F
:101A90004887FF1FAC9AFF1F4C87FF1F0000B4430D
:101AA0002DE9F041684CD4F8D830A3F10A021D2A80
:101AB000804640F2898023686068644A6449654EC4
:101AC000654D00FB03F0002333600B6013602FF0C3
:101AD000A7F8A168614E2FF0FBF8E9682FF0ACF988
:101AE000074640462FF0A0F8014638462FF0A4F9EB
:101AF0002EF044FC2DF00AF92EF044FF2B683060E4
:101B0000013B032B22D8DFE803F0412C0223636B57
:101B1000AD694D4C002B5CD1A36BE06B504E00FBCC
:101B200003F02FF07DF8216C2FF0D2F84D490746D5
:101B3000A06C2FF0CDF8014628462FF07DF9014624
:101B400038462FF0C5F82FF09FFA3060BDE8F081DD
:101B5000636DAD693C4C002B51D0012B60D0BDE8CA
:101B6000F081D4F8B830A869374C002B35D1A16A80
:101B70003B4D2FF061F90646606A2FF051F801469F
:101B800030462FF0A5F80646206A0EE06169A86984
:101B9000334D2FF051F9064620692FF041F80146E8
:101BA00030462FF095F80646E0682FF039F80146E8
:101BB00030462FF08DF82EF0E1FB2DF0A7F82EF037
:101BC000E1FE2860BDE8F081D8B200212AF0ACF82F
:101BD00071E7012B2ED0BDE8F081D4F8C410204D60
:101BE0002FF02AF90646D4F8C0002FF019F8014664
:101BF00030462FF06DF80646D4F8BC00D5E7E36D0B
:101C0000A06D174E00FB03F02FF00AF8216E2FF0A5
:101C10005FF814490746A06E2FF05AF801468BE78B
:101C2000E36DA06D0E4E00FB03F02EF0F9FF616E28
:101C3000074681E7E36BA06B094E00FB03F02EF033
:101C4000EFFF616C074677E7CC96FF1FC493FF1F39
:101C50006099FF1F2493FF1FF498FF1FCC9AFF1F6A
:101C6000C494FF1FDB0FC940094B1B68012B0BD02D
:101C7000032B05D003B17047014606482CF0BABAD1
:101C8000014605482CF0B6BA014604482CF0B2BA19
:101C90008087FF1F5C88FF1F3488FF1F2088FF1F7D
:101CA00070B5064688B00D4632B1AC4BD3F8CC4087
:101CB000012C00F0BB800022A94C236802930299FA
:101CC00023680193019B5B1A092BF9D9042E27D8AD
:101CD000DFE806F03466588A0300002D00F0D28059
:101CE0009E4B93F8A0100F2081F001012AF01CF800
:101CF0009C4904A82CF042FD002104A8FFF7B4FF82
:101D000004A82CF0FBFC984904A82CF037FD04A88B
:101D10000021FFF7A9FF04A82CF0F0FC934B1B68EF
:101D200055B12268924B049204991A682368039370
:101D3000039B5B1A9A42F9D808B070BD002D00F0E1
:101D4000CD80864B93F89C10042081F0010129F08E
:101D5000EBFF884904A82CF011FD002104A8FFF72F
:101D600083FF04A82CF0CAFC7F4904A82CF006FDD0
:101D700004A80021FFF778FF04A82CF0BFFC7E4BDD
:101D80001B68CDE7002D00F08980744B93F89E10FE
:101D9000162081F0010129F0C7FF04A87749A9E7BF
:101DA000002D00F0BB806D4B93F89D100E2081F04C
:101DB000010129F0B9FF724904A82CF0DFFC0021D1
:101DC00004A8FFF751FF04A82CF098FC664904A86A
:101DD0002CF0D4FC04A80021FFF746FF04A82CF047
:101DE0008DFC684B1B689BE76DB35C4B93F89F10B1
:101DF000112081F0010129F097FF634904A82CF01C
:101E0000BDFC002104A8FFF72FFF04A82CF076FCEE
:101E1000554904A82CF0B2FC04A80021FFF724FFC8
:101E200004A82CF06BFC594B1B6879E7102158482B
:101E30002BF076FE214657482CF056FA55482CF0E8
:101E4000FFF9224638E7002AEDD1444B112093F8E0
:101E50009F1029F069FF04A84F492CF08FFC2946F8
:101E600004A8FFF701FF04A82CF048FC04A83E4991
:101E70002CF084FC04A82946FFF7F6FE04A82CF0F9
:101E80003DFCD0E7002A7FF449AF344B0F2093F894
:101E9000A01029F049FF04A840490AE0002A7FF475
:101EA0003DAF2E4B162093F89E1029F03DFF3C4984
:101EB00004A82CF063FC294604A8FFF7D5FE04A86B
:101EC0002CF01CFC04A828492CF058FC04A8294636
:101ED000FFF7CAFE04A82CF011FC1FE7002A7FF4CC
:101EE0004EAF1E4B042093F89C1029F01DFF04A850
:101EF0002C492CF043FC294604A8FFF7B5FE04A8A2
:101F00002CF0FCFB04A818492CF038FC04A8294646
:101F1000FFF7AAFE04A82CF0F1FB30E7002A7FF4BB
:101F200060AF0E4B0E2093F89D1029F0FDFE04A823
:101F30001D492CF023FC294604A8FFF795FE04A8B0
:101F40002CF0DCFB04A808492CF018FC04A8294656
:101F5000FFF78AFE04A82CF0D1FB42E7CC96FF1FC6
:101F600048A0FF1F145303003052030090F00F40AD
:101F70005487FF1F1052030010F00F4094520300CB
:101F800054520300D0F00F40D452030050F00F40E1
:101F9000FC5103005C88FF1FF4520300345303001C
:101FA000B452030034520300745203002DE9F0418F
:101FB000A04B1B7884B0002B52D09F4E6C469F499B
:101FC0009F4FA04DDFF8B08220462CF0D7FB0021B8
:101FD0002046FFF749FE20462CF090FB3168204652
:101FE0002CF0CCFB00212046FFF73EFE20462CF0D3
:101FF00085FB954920462CF0C1FB00212046FFF7C8
:1020000033FE20462CF07AFB316820462CF0B6FBDC
:1020100000212046FFF728FE20462CF06FFB3C688D
:1020200020462EF001FE2B680646686800FB03F090
:102030002EF0F6FDA9682EF04BFE014630462EF03C
:10204000FBFE82492EF044FE814BC8F800001B685D
:10205000013B032B00F2EB80DFE803F0714C2B0A0D
:102060007C4B1D786C46002D00F0A680724EA6E7D2
:102070006B6D744C012B00F2D780774E30682EF0D8
:10208000D3FD616E2EF024FEE36D8046A06D00FB53
:1020900003F02EF0C5FD014640462EF0CDFE04466D
:1020A0006E4B0122002104201C60FFF7F9FD3C6803
:1020B0005FE06B6B634C012B00F2B380664E3068BF
:1020C0002EF0B2FD616C2EF003FEE36B8046A06B38
:1020D00000FB03F02EF0A4FD014640462EF0ACFEBE
:1020E00004465E4B0122002103201C60FFF7D8FD4F
:1020F0003C683EE0584E534C30682EF095FDD5F8C4
:10210000B830002B00F08680D4F8C4102EF0E0FD2B
:10211000D4F8C0308046D4F8BC0000FB03F02EF0A9
:102120007FFD014640462EF087FE4C4B04460122BF
:10213000002102201C60FFF7B3FD3C6819E0464E09
:10214000464C30682EF070FD69692EF0C1FD2B6998
:102150008046E86800FB03F02EF062FD0146404631
:102160002EF06AFE0122206000211046FFF798FD44
:102170003C683B4B32681B683A493B48DFF8FCE05F
:102180003A4F0026524264425B420A600460314684
:1021900030460122CEF800303E60FFF781FDD5F8D1
:1021A000D800A0F10A031D2B03D8C0B2012129F0E9
:1021B000BBFD04B0BDE8F08168462D491E4E2CF0F1
:1021C000DDFA29466846FFF74FFD68462CF096FA7F
:1021D000316868462CF0D2FA29466846FFF744FD7C
:1021E00068462CF08BFA684622492CF0C7FA29463B
:1021F0006846FFF739FD68462CF080FA316868467A
:102200002CF0BCFA68462946FFF72EFD68462CF0F4
:1022100075FAD4E6A16A2EF05BFD636A8046206AF7
:102220007BE700240C4E5CE700240B4E38E70A4E97
:102230009FE700BF389BFF1FAC87FF1F7C53030045
:102240002493FF1FCC96FF1F905303000000B4435C
:10225000F498FF1F6994FF1F6099FF1F009AFF1FEA
:10226000C493FF1FC093FF1FBC93FF1FEC95FF1F7C
:102270005453030068530300FC99FF1FC49AFF1FC7
:1022800070B5064682B00446002520462EF0FCFEBE
:102290002EF0CAFC21462EF0AFFE1B4930B9204675
:1022A0002EF016FD0135062D0446EED1174B1B68A6
:1022B000012B1CD0032B0ED00BB102B070BD3046E9
:1022C0002EF05CF8EDB202460B46009510482CF05B
:1022D00013F802B070BD30462EF050F8EDB2024651
:1022E0000B4600950B482CF007F802B070BD304645
:1022F0002EF044F8EDB202460B46009506482BF04E
:10230000FBFF02B070BD00BF000020418087FF1FAF
:102310005C88FF1F3488FF1F2088FF1F064B1B6847
:10232000012B07D0032B03D003B170472BF07CBCEB
:102330002AF06EBC2AF054B88087FF1FF8B50D4F05
:102340000D4E0E4D0446014638462BF053FF3846DD
:102350002BF076FF214630462BF04CFF30462BF019
:102360006FFF214628462BF045FF2846BDE8F84080
:102370002BF066BF5C88FF1F2088FF1F3488FF1F7B
:10238000012808D0032804D008B1002070472BF0A2
:1023900061BB2AF095BC2AF0F5B800BF38B5094CEE
:1023A0002068FFF7EDFFC5B202E02068FFF7E8FF05
:1023B0002AF0D4F80028F8DCFEF76CF90028F4DCE9
:1023C000284638BD8087FF1F08B52AF0C7F80028C7
:1023D0002EDD1B4B1868FFF7D3FF1A4BC0B25328F2
:1023E000187001D0002008BD002108460122FFF727
:1023F00057FC154B1B68013B032B1FD8DFE803F08C
:1024000002070C11012200210220FFF749FC0122E2
:1024100000210220FFF744FC012200210320FFF7E6
:102420003FFC012200210420FFF73AFC012008BDF7
:10243000FEF730F90028CCDA002008BD012008BDE5
:102440008087FF1F9595FF1FF498FF1F2DE9F84324
:102450001E4D2B68092B32D0192B2AD0032B22D0EA
:102460001B4EDFF87890DFF870801A4F002407E0E9
:10247000192B15D0032B00D1E05501340D2C0DD0B4
:102480003068FFF77DFFC0B2FF2807D02B68092B0B
:10249000EED104F8090001340D2CF1D1BDE8F88328
:1024A00004F80800E9E70B4B00221A605A609A60B2
:1024B000D6E7094B00221A605A609A60D0E7074BB2
:1024C00000221A605A609A60CAE700BF6C87FF1F3B
:1024D0008087FF1F089AFF1F3893FF1FB498FF1FC4
:1024E0002DE9F04FA1B0A049A04C0026054603A855
:1024F0002CF044F933460CA89D4A9E49266027F0EB
:10250000DDFD1E9B002B00F08B815C202BF056FE26
:102510000646994B9DF834000E9A9849336000277F
:102520009DF83C3030730DF14008B1603261414696
:10253000337506F11800776027F0A8FC736890499E
:10254000DFF868A2B76501334FF47A728DF8207016
:102550008DF828700B96B16073600992CDF81CA0BD
:102560004046DFF84CB2CDF830B027F0BDFC0B98F8
:10257000002800F0CD800368824A1B6B934240F034
:102580006281036D002B00F0BF807F4A13680293C5
:10259000029913680193019B5B1A632BF9D90028F8
:1025A0002AD07A4F714E6FF000484FF0000903684F
:1025B0001B69BB4261D1036D002B37D01A7812071B
:1025C0003AD5DA695869101A01D4002834D0782332
:1025D0000A2207A90CA82BF08BFF0CA903A82CF04A
:1025E00031F90CA82CF08AF82368AB4224D00B9860
:1025F000013333600028DAD10398654B002808BF07
:1026000018462EF04BFF06460F460B9CCDF81CA03B
:1026100024B16568013D6560002D3ED003A82CF013
:102620006DF83046394621B0BDE8F08F416D19B1E3
:1026300091F831301B0722D40B9C002CDCD023688E
:10264000544EDB6AB34240F0E880A06D18B12EF022
:1026500085FF0023A365236D002B00F0FA8004F1B1
:10266000180027F041FC0B9D6C68013C6C60002C4D
:1026700000F0A08000230B93BEE79847A5E7D1E9BF
:102680000423D1E90001101A63EB0101894508BF59
:1026900080459AD26FF0004097E723683D4ADB6A95
:1026A000934240F0DB80A06D10B12EF057FFA5657E
:1026B000236D002B00F0DB8004F1180027F014FCE0
:1026C0000B9C002CAAD02368334A5B68934240F0ED
:1026D000C880A06D284B236018B12EF03FFF002367
:1026E000A365236D04F11805002B00F0C88028466F
:1026F00027F0FAFBC4F808B0284627F0F5FB20467F
:102700005C212BF05FFD89E7436D002B7FF43DAF2B
:10271000224B234901220CA81A702CF02FF800211B
:102720000CA8FFF7A1FA0CA82BF0E8FF2220FFF776
:10273000F5FD1C490CA82CF021F800210CA8FFF78E
:1027400093FA0CA82BF0DAFF174B0CA819682CF0A1
:1027500015F800210CA8FFF787FA0CA82BF0CEFF84
:102760000026002751E700BF70820300849AFF1FF4
:10277000089AFF1F409BFF1F48510300B050030001
:10278000F85003007504000048A0FF1F790B0000FB
:10279000108603006D050000590D00009495FF1F81
:1027A000A4530300C0530300A887FF1F1C5103005C
:1027B000D45003002B68DB6AB34255D1A86D10B129
:1027C0002EF0CCFEAC652B6D002B5DD005F1180012
:1027D00027F08AFB0B9C002C3FF44CAF23682E4A59
:1027E0005B68934248D1A06D2C4B236018B12EF04A
:1027F000B5FE0023A365236D04F11805002B47D017
:10280000284627F071FBC4F808B0284627F06CFB77
:1028100020465C212BF0D6FC2CE72046984722E787
:102820001F9B002B7FF471AE4FF47A72DFF870A01B
:102830008DF820308DF828300B930992CDF81CA02C
:102840000DF140088CE6984700283FF461AF0B98E3
:102850009BE6636D002B7FF402AF04E720469847A8
:102860002EE720469847D9E628469847B2E7636D99
:10287000002B7FF421AF23E720469847FAE6636DEB
:10288000002B7FF434AF35E76B6D002B9ED1A1E7B1
:10289000636D002BB4D1B6E7590D00004851030019
:1028A0001C5103002DE9F04FADF2A45DB449074679
:1028B00002A82BF063FFB34906A82BF05FFF0023AB
:1028C00023A8B14AB14927F0F9FB359B002B00F052
:1028D0000F845C202BF072FC0546AD4C9DF89000F7
:1028E000259A9DF89830AB492C60002627AC2873B8
:1028F000A9602A612B756E6005F11800214627F04A
:10290000C5FA6B68A44AAE650133AA606B602046C5
:10291000DFF8B882CDF88C8027F0E6FA9F4E4FF0B2
:102920000009002D00F0E7802B689D4ADB6B934285
:1029300040F09C8200231A4613A84FF47A74DFF803
:1029400058B28DF8403005F118018DF848302193C8
:1029500022931194CDF83CB027F01AFB219B002B59
:1029600000F0DB825C202BF029FC04464FF0000ACB
:102970009DF84010119A8648864B9DF848E02060EB
:102980002173226113A904F11800A36084F814E0F4
:10299000C4F804A027F07AFA6268C4F808B00132DB
:1029A0004FF47A71C4F858A08DF82CA08DF834A09B
:1029B0000E940A9662600C9113A8CDF83C8027F023
:1029C00093FA0E9C002C00F0EC832368754A5B6B35
:1029D000934240F09381A16D002900F0C5820FA8B9
:1029E0002BF0CCFE0E98002800F0968002686E490D
:1029F000136B8B4240F04E81036D002B00F0688119
:102A0000926B6A498A4240F07D811B7813F0700F07
:102A100014BF01200020002800F044810E9C04B364
:102A20002368DFF88CB1DB6A5B4540F06481A06D00
:102A300018B12EF093FD0023A365236D002B00F049
:102A4000678204F1180027F04FFADDF838A0DAF8B1
:102A50000440013CCAF80440002C00F0E080002350
:102A60000E930FA82BF04AFE0E9C0A96002C3FF402
:102A700058AF6368013B6360002B7FF452AF22685C
:102A80004B49D26A01938A4240F08782A06D18B107
:102A90002EF064FD019BA365236D002B00F00D83D8
:102AA00004F1180027F020FA0E9C002C3FF439AFF7
:102AB0002368404A5B68934240F0F682A06D344B35
:102AC000236018B12EF04AFD0023A365236D04F1A5
:102AD000180B002B00F0FB82584627F005FAC4F8CB
:102AE0000880584627F000FA20465C212BF06AFB4C
:102AF000002D7FF419AF4FF47A732F498DF82C50C5
:102B00000FA88DF834500A960E950C932BF036FED4
:102B10000E9800287FF46AAF0FA82BF0EFFD0E9CF3
:102B20000A962CB16668013E6660002E00F06C8249
:102B30002249234C234E0FA82BF020FE00210FA882
:102B4000FFF792F80FA82BF0D9FD48462EF06CF84D
:102B500000218146FFF794FB21680FA82BF00EFEA1
:102B600000210FA8FFF780F80FA82BF0C7FD16492A
:102B70000FA82BF003FE00210FA8FFF775F827E040
:102B8000D4530300DC530300E4530300409BFF1FB6
:102B900048510300B0500300F85003001C510300DB
:102BA0009505000029070000750400004109000098
:102BB0006D050000590D000070820300E85303000A
:102BC000AC87FF1FA887FF1F08540300D4500300E1
:102BD0000FA82BF093FD48460021FFF751FB216819
:102BE0000FA82BF0CBFD00210FA8FFF73DF807EB56
:102BF00047090FA807EB89092BF080FD23AB994407
:102C0000013F0124A31E07EB040A052B7CD8DFE853
:102C100013F0F500F300F100EF00B8003301DAF82B
:102C20000020D26A5A4540F0B581DAF8580018B150
:102C30002EF094FCCAF85840DAF85020002A00F030
:102C400036820AF1180027F04FF90E9C002C3FF451
:102C500006AF2368B74A5B68934240F02282A06DBA
:102C6000B54B236018B12EF079FC0023A365236DCA
:102C700004F1180B002B00F02582584627F034F998
:102C8000C4F80880584627F02FF920465C212BF025
:102C900099FAE4E6984700283FF43EAF0E980028E2
:102CA00040F0748202A90FA82BF07AFE0028BFF62C
:102CB000B5AE06A90FA82BF073FE0028BFF6AEAE86
:102CC000B9F1620F40F3D8810E9C09F10109A6E623
:102CD000436D002B3FF420AF926B984B9A4211D179
:102CE000436D002BDED093F8313013F0500F14BF3A
:102CF000012000208FE620469847A6E62046984708
:102D000001466CE6904786E68D490FA82BF036FD0C
:102D100000210FA8FEF7A8FF0FA82BF0EFFC8949B0
:102D20000FA82BF02BFD00210FA8FEF79DFF0FA889
:102D30002BF0E4FC49460FA82BF020FD00210FA842
:102D4000FEF792FF0FA82BF0D9FC48462FF098FC15
:102D5000014648462AF0E4FE7B482BF071FA3168C0
:102D60000FA82BF00BFD00210FA8FEF77DFF0FA889
:102D70002BF0C4FC072C00F0BB80013409F10D09D5
:102D800040E772490FA82BF0F9FC00210FA8FEF7CD
:102D90006BFF0FA82BF0B2FC6A490FA82BF0EEFCDA
:102DA00000210FA8FEF760FF0FA82BF0A7FC4946F3
:102DB0000FA82BF0E3FC00210FA8FEF755FF0FA88A
:102DC0002BF09CFC48462FF05BFC014648462AF05D
:102DD000A7FE5D482BF034FA31680FA82BF0CEFC2B
:102DE0000FA80021FEF740FF0FA82BF087FCC4E7D7
:102DF0005749C7E75749C5E75749C3E757490FA898
:102E00002BF0BCFC00210FA8FEF72EFF0FA82BF023
:102E100075FC4C490FA82BF0B1FC00210FA8FEF760
:102E200023FF0FA82BF06AFC49460FA82BF0A6FC45
:102E300000210FA8FEF718FF0FA82BF05FFC4846F3
:102E40002FF01EFC014648462AF06AFE3E482BF051
:102E5000F7F931680FA82BF091FC00210FA8FEF7BD
:102E600003FF0FA82BF04AFC3D498BE700222946BF
:102E70000AA898470E9CA5E53A490FA82BF07EFCBE
:102E800000210FA8FEF7F0FE0FA82BF037FC2D490C
:102E90000FA82BF073FC00210FA8FEF7E5FE0FA88A
:102EA0002BF02CFC0AEB4A030AEB830A23AB9A446F
:102EB00051460FA82BF062FC00210FA8FEF7D4FEAC
:102EC0000FA82BF01BFC50462FF0DAFB01465046B2
:102ED0002AF026FE1C482BF0B3F931680FA82BF01E
:102EE0004DFC0FA80021FEF7BFFE0FA82BF006FC3B
:102EF00025B16C68013C6C60002C51D006A82BF009
:102F0000FDFB02A82BF0FAFB0DF2A45DBDE8F08FEB
:102F1000636D002B7FF495AD97E5229B002B7FF42A
:102F200021AD8DF82C300C948DF834300A960E9328
:102F300042E500BF590D000048510300410900005F
:102F400020540300385403005C88FF1FB45403006E
:102F50009C540300845403006C5403003C5403004D
:102F600054540300CC5403004FF4807001912EF0B0
:102F7000EDFAA06500287CD001990170236D002B2B
:102F800000F0AC8001464FF48072184626F0B6FD82
:102F9000A16D24E55046904757E62046904783E5CB
:102FA0002B68814ADB6A934240F0AD80A86D10B176
:102FB0002EF0D4FAAC652B6D002B00F0C88005F123
:102FC000180026F091FF2B68784A5B68934240F026
:102FD000A780A86D764B2B6018B12EF0BFFA0023A6
:102FE000AB652B6D05F11804002B00F0B580204671
:102FF00026F07AFFC5F80880204626F075FF28469F
:103000005C212BF0DFF879E72368674ADB6A93429B
:103010007CD1A06D10B12EF0A1FAA665236D002B16
:103020007AD004F1180026F05FFF0E9C002C3FF4CC
:103030007FAD23685D4A5B6893426AD1A06D5C4BAB
:10304000236018B12EF08AFA0023A365236D04F1E2
:103050001806002B00F08580304626F045FFC4F8A6
:103060000880304626F040FF20465C212BF0AAF86D
:103070005EE55049A165B2E409EB490B0E9C09EBF2
:103080008B0B23AB9B443CB323684B4A5B6B934253
:1030900034D1A16D002946D058460D222FF0AEFB49
:1030A00013E620469847DAE42046984739E4DAF8F0
:1030B0005420002A7FF4C5ADC7E5636D002B7FF473
:1030C000EFACF1E4636D002B7FF4D7ADD8E5636D11
:1030D000002B7FF401AD02E53849DDE7636D2BB1CC
:1030E00001464FF48072184624F04CFBA16D76E443
:1030F000369D002D7FF4EDAB27AC08E420469847C1
:103100000E9C0146C8E7284698475CE7204698474A
:103110008BE7204698470BE5636D002B81D184E750
:1031200028469847EAE64FF4807001912EF00EFA97
:10313000A065D8B101990170236DD3B101464FF458
:103140008072184626F0DAFCA16D0E9CA4E76B6D28
:10315000002B7FF434AF36E76B6D002B7FF447AF65
:1031600048E7636D002B7FF477AF78E71149A165DD
:1031700092E7636D43B101464FF48072184624F024
:1031800001FBA16D0E9C87E7A16D85E702680C4BE2
:10319000926B9A427FF4B6AD036D002B7FF435AC91
:1031A0009EE506491BE400BF6D050000590D0000B7
:1031B00048510300DC92FF1F2907000070820300C2
:1031C000410900002DE9F04FA5B0A549019007A8DD
:1031D0002BF0D4FA88202AF0F3FF0823102280E88D
:1031E0000C00C118074603910C4600F188052046E3
:1031F000002110342BF0C2FAA542F8D1002310A808
:10320000984A994926F05AFF229B002B00F0D78359
:103210005C202AF0D3FF05469DF844109DF84C3001
:1032200001732B75914B129A2B600024904B2A61ED
:1032300000F1180B14A96C60AB60584626F026FE0E
:103240006B68AC6501336B608A4BAB6014A88A4B2A
:10325000109326F049FE6C68002C00F04D832B681B
:1032600086491A6B8A4240F07D832A6D002A00F05D
:1032700096839B6A824A934240F09983019B002B7C
:1032800000F0A581019B13F1060800F1F4830024EE
:10329000DFF80C92DFF80CA2029405972B68DB6B29
:1032A0004B4540F0C38200231A464FF47A765946C4
:1032B00014A8704F8DF844308DF84C30229323932E
:1032C0001097129626F064FE229B002B00F0B88225
:1032D0005C202AF073FF65490160064600279DF8CF
:1032E0004430129A9DF84CE06149B1603373326109
:1032F00014A9183086F814E0776026F0C7FD7268CC
:103300005C4BB36001324FF47A715E4BB7658DF858
:1033100030708DF838700F960B9372600D91564B8C
:10332000109314A826F0E0FD0F9E002E00F00182FD
:103330003368554A5B6B934240F00682B76D002FAD
:1033400000F0C58238462FF09BF9014638462AF036
:10335000E7FB4E482AF074FF0F9F002F00F0E78133
:103360003A684B48916B814240F03781396D0029B2
:1033700000F05082097811F0700F14BF0121002174
:10338000002900F03481013C002F00F066813A688A
:103390003A4B126B9A4240F0CF813A6D002A00F00E
:1033A00034823A683B4ED26AB24240F08481B86DB2
:1033B00018B12EF0D3F80022BA653A6D002A00F059
:1033C0003A8207F1180026F08FFD0F9F7B68013BC2
:1033D0007B60002B00F07281013444457FF75EAFC3
:1033E000059F039E0124A31E052B07D8DFE813F0D9
:1033F000D600BD00A4008B005C00D401264910A8B3
:103400002BF0BCF9002110A8FEF72EFC10A82BF021
:1034100075F9224910A82BF0B1F9002110A8FEF788
:1034200023FC10A82BF06AF9314610A82BF0BAF94A
:10343000002110A8FEF718FC10A82BF05FF9DAF8AD
:10344000001010A82BF09AF9002110A8FEF70CFC30
:1034500010A82BF053F9072C00F0CC810134C2E7FF
:10346000D4530300E4530300409BFF1F4851030063
:10347000B0500300F8500300D4500300750400005E
:10348000F50800001C510300290700005C88FF1F9D
:10349000410900006D05000020540300385403006A
:1034A00095050000A887FF1FAD4910A82BF066F90D
:1034B000002110A8FEF7D8FB10A82BF01FF9A9498E
:1034C00010A82BF05BF9002110A8FEF7CDFB10A887
:1034D0002BF014F907F1580110A82BF063F9002123
:1034E00010A8FEF7C1FB10A82BF008F9DAF80010BD
:1034F00010A82BF043F910A80021FEF7B5FB10A887
:103500002BF0FCF8AAE7984910A82BF037F9002116
:1035100010A8FEF7A9FB10A82BF0F0F8914910A80D
:103520002BF02CF9002110A8FEF79EFB10A82BF021
:10353000E5F807F14801CFE78C4910A82BF01EF9F8
:10354000002110A8FEF790FB10A82BF0D7F88549B2
:1035500010A82BF013F9002110A8FEF785FB10A886
:103560002BF0CCF807F13801B6E7814910A82BF011
:1035700005F9002110A8FEF777FB10A82BF0BEF884
:10358000784910A82BF0FAF8002110A8FEF76CFB80
:1035900010A82BF0B3F807F128019DE7754910A892
:1035A0002BF0ECF8002110A8FEF75EFB10A82BF022
:1035B000A5F86C4910A82BF0E1F8002110A8FEF73F
:1035C00053FB10A82BF09AF807F1180184E76A4B17
:1035D00064221A604FF0060859E6384688470F9F64
:1035E00000287FF4D0AE002F00F0A1803A68526B23
:1035F00062498A4240F03181BE6D002E00F0BC81EC
:10360000314610A82BF0BAF807A910A82BF0C8F97A
:103610000028C0F2A080019BA34217DC039B029A02
:103620000F9E03EB0217002E00F0648132685349AD
:10363000526B8A4240F0D781B16D002900F0E881D9
:1036400038462BF007F9029B0133029310A82BF0A8
:1036500055F80F9F002F7FF49AAE474B484904F16D
:10366000080210A81A602BF089F8002110A8FEF7B4
:10367000FBFA10A82BF042F82220FEF74FFE601E46
:103680002DF0D2FA0021FEF7FBFDDAF8001010A8A9
:103690002BF074F8002110A8FEF7E6FA10A82BF022
:1036A0002DF80F9F002F3FF497AE3A68354ED26A3F
:1036B000B2423FF47CAE3846904786E639680493C0
:1036C000C96AB14240F0CD80B86D18B12DF046FF07
:1036D000049BBB653B6D002B00F06C8107F118006B
:1036E00026F002FC0F9E002E3FF476AE3368264A89
:1036F0005B68934240F03D81B06D244B336018B15C
:103700002DF02CFF0023B365336D06F11807002B55
:1037100000F06481384626F0E7FB1D4BB360384665
:1037200026F0E2FB30465C212AF04CFD54E61949B4
:1037300067E7184F314609E63846904700288CD095
:103740000F9F002FB1D147E63046984707462EF02D
:1037500097FF0146FAE5012CC8BF04F1FF3475E775
:10376000B4540300385403009C54030084540300F1
:103770006C5403003C5403002C87FF1F29070000F2
:10378000E45403006D050000590D0000485103008A
:10379000D450030070820300A74910A82AF0EEFF5E
:1037A000002110A8FEF760FA10A82AF0A7FFA3498D
:1037B00010A82AF0E3FF002110A8FEF755FA10A880
:1037C0002AF09CFF07F1680110A82AF0EBFF002106
:1037D00010A8FEF749FA10A82AF090FFDAF80010B6
:1037E00010A82AF0CBFF10A80021FEF73DFA10A880
:1037F0002AF084FF07A82AF081FF6C68013C6C6006
:10380000002C31D025B0BDE8F08F7A6D002A7FF40E
:10381000C8AD22E7796D00293FF4E9AE91F8311087
:1038200011F0500F14BF01210021A9E50022294603
:103830000BA8984778E57A6D002A7FF4C2ADC4E5FD
:10384000239B002B7FF444AD7D4A8DF830300D96DC
:103850008DF838300B920F9361E53846904701465A
:10386000CFE6384688473DE72B68764ADB6A9342C5
:1038700040F0C580A86D10B12DF070FEAC652B6DC9
:10388000002B00F0FF80584626F02EFB2B686E4A76
:103890005B68934240F0EC80A86D6C4B2B6018B1D4
:1038A0002DF05CFE0023AB652B6D002B00F0F98042
:1038B000584626F019FB664BAB60584626F014FBC1
:1038C00028465C212AF07EFC25B0BDE8F08F4FF43D
:1038D00080702DF03BFE0146B065002864D0077073
:1038E000306D002800F083804FF4807226F006F9D6
:1038F000B76D27E55749A3E62B68524ADB6A934226
:1039000040F08380A86D10B12DF028FEAC652B6DC2
:10391000002B00F0A580584626F0E6FA2B684A4AAC
:103920005B68934240F0AA80A86D484B2B6018B1A9
:103930002DF014FE0023AB652B6D002B00F0B6803C
:10394000584626F0D1FA424BAB60584626F0CCFAE6
:103950005C2128462AF036FC2B683F491A6B8A42C4
:103960003FF483AC2846904700283FF443AF2B68D0
:103970007FE4304698472FE54FF480702DF0E6FD48
:10398000B86500283ED006703A6D002A7FD0014607
:1039900010464FF4807226F0B1F8BE6D30E66A6DC5
:1039A000002A7FF466AC25E72C4FB765CAE42846A9
:1039B000984763E47B6D002B7FF490AE92E6239BE7
:1039C000002B7FF425AC224B109314A826F08CFA20
:1039D00007A82AF093FE25B0BDE8F08F736D002B89
:1039E0007FF498AE99E630469047014628E6706D20
:1039F00018B14FF4807223F0C5FEB76DA2E42846DB
:103A0000984743E7154EBE65FAE52846984785E78F
:103A10004FF4807004912DF099FDB06528B304999E
:103A20000170326D002A46D0014610464FF4807274
:103A300026F064F8B16D03E6CC540300385403005B
:103A40001C5103006D050000590D00004851030092
:103A5000D45003007082030075040000DC92FF1F45
:103A60006B6D002B7FF457AF58E71849B165E7E558
:103A700028469847C6E6DFF858A0B2E4284698479B
:103A8000FFF7EDBB6B6D002B7FF4FDAEFEE67A6DAC
:103A90002AB1014610464FF4807223F073FEBE6DCA
:103AA000AEE56B6D002B7FF403AF04E76B6D002B6D
:103AB0007FF446AF47E7726D2AB1014610464FF4D6
:103AC000807223F05FFEB16DBAE500BFDC92FF1F8C
:103AD000A887FF1F2DE9F04F914C9249AFB0002607
:103AE000054605A826602AF049FE314609A82AF0B5
:103AF00045FE31460DA82AF041FE33461AA88A4AEF
:103B00008A4926F0DBFA2C9B002B00F000825C2017
:103B10002AF054FB0646864B9DF86C001C9A85499A
:103B2000336000279DF8743030730DF17808B16070
:103B300032614146337506F11800776026F0A6F928
:103B400073687D49DFF810A2B76501334FF47A72CC
:103B50008DF858708DF860701996B1607360179287
:103B6000CDF854A04046DFF8F4B1CDF868B026F0A7
:103B7000BBF9199B002B00F0B8801A686F49126BD3
:103B80008A4240F0AC801A6D002A00F085816C49B1
:103B90000A68049204980A680392039A121A132A74
:103BA000F9D9002B2FD0674F5D4E6FF000484FF0D2
:103BB00000091A681269BA4240F055811A6D002A4C
:103BC00000F054811378190740F12E81D3695069B0
:103BD000181A02D4002800F027810A22782315A998
:103BE0001AA82AF085FC1AA905A82AF02BFE1AA803
:103BF0002AF084FD2268AA4200F01681199B013246
:103C00003260002BD5D1002105A82AF0A1FE4E4C30
:103C100003782360012205A91AA82AF0F7FE1AA941
:103C200009A82AF00FFE1AA82AF068FD05A947483E
:103C30002AF000FE23680D3B4D2B00F21582DFE8D1
:103C400013F0E8001302130213021302130213020B
:103C500013021302130213021302130213021302BC
:103C600013021302130213021302130213021302AC
:103C7000130213021302130213021302130213029C
:103C8000130213021302130213021302130213028C
:103C90001302130213021302130213021302D901B7
:103CA00013021302130213021302E800E800E800F3
:103CB0001302E8000C02D201B701E800B0010502CE
:103CC00013021302A901E800E80097011302E800BB
:103CD000130213028201C800E8001302E80018462C
:103CE0009047199B00287FF452AF194A194D0121C2
:103CF00011700024CDF854A01BB15E68013E5E60D7
:103D000076B30DA82AF0FAFC09A82AF0F7FC05A85A
:103D10002AF0F4FC204629462FB0BDE8F08F00BF02
:103D2000849AFF1F70820300B498FF1F409BFF1FFF
:103D300048510300B0500300F85003007504000020
:103D400048A0FF1F790B0000E09AFF1F7095FF1F2E
:103D50009495FF1F0000F0BF1C510300D4500300D6
:103D60001A68A849D26A8A4240F0E780986D20B16B
:103D700001932DF0F3FB019B9E651A6D002A00F064
:103D80007D8103F1180026F0AFF8199E002EB8D0FF
:103D900033689D4A5B68934240F0D280B06D9B4B84
:103DA000336018B12DF0DAFB0023B365336D06F1F3
:103DB0001807002B00F06A81384626F095F8C6F8FF
:103DC00008B0384626F090F830465C212AF0FAF91F
:103DD00097E7012105A82AF0BBFD017811A82AF078
:103DE000FFFC11A88A492AF09DFD002800F060819F
:103DF00001232360022205A91AA82AF007FE1AA9A6
:103E000009A82AF01FFD1AA82AF078FC11A82AF0A8
:103E100075FC804B0998002808BF18462DF03EFB22
:103E2000199B04460D4665E7199C002C3FF4EBAE48
:103E30002368744EDB6AB3427CD1A06D18B12DF0BB
:103E40008DFB0023A365236D002B00F0128104F18C
:103E5000180026F049F8199D6C68013C6C6004B3A9
:103E600000231993CFE618469047B3E6596D002911
:103E7000DAD091F831301B07D6D5D1E90423D1E946
:103E80000001101A63EB0101894508BF8045BFF4AA
:103E9000A1AE6FF000409DE65A6D002A7FF477AE28
:103EA00023E72B68DB6AB34240F0ED80A86D10B1C8
:103EB0002DF054FBAC652B6D002B00F0EF8005F16D
:103EC000180026F011F8199C002CC9D023684E4A1E
:103ED0005B68934240F0DF80A06D4C4B236018B1CB
:103EE0002DF03CFB0023A365236D04F11805002B86
:103EF00000F0D980284625F0F7FFC4F808B028461E
:103F000025F0F2FF20465C212AF05CF9A8E72D9B02
:103F1000002B7FF4FCAD4FF47A72DFF82CA18DF802
:103F200058308DF8603019931792CDF854A00DF1E8
:103F3000780817E6204698478DE71846904724E70B
:103F400030469847DDE6012105A82AF001FD0178F9
:103F500031482AF089FC022205A91AA82AF056FD48
:103F60001AA909A82AF06EFC1AA82AF0C7FB50E784
:103F70002A4C2B4801232921237029F0D1FD2178D7
:103F800028482AF0B1F927482AF05AF900240025D8
:103F9000199BAFE6012105A82AF0DAFC0178224836
:103FA000D7E7012105A82AF0D3FC01781F48D0E704
:103FB000002314221AA909A82AF0D8FC1C491D4D77
:103FC0001D4C1AA82FF034FE2DF068FA2CF022FDBB
:103FD0001A49286000202FF02BFE2DF05FFA2CF0FC
:103FE00019FD206015E7012105A82AF0B1FC017830
:103FF0001348AEE709A913482AF01CFC0024002549
:10400000199B77E66D050000590D0000485103002B
:104010002855030010860300949AFF1FC094FF1FC9
:10402000FC5403005C88FF1F0493FF1F2098FF1FB0
:10403000F8540300E89AFF1F9095FF1F8082030049
:104040006095FF1F4893FF1F1C510300012105A825
:104050002AF07EFC01781B487BE7012105A82AF0A5
:1040600077FC0178184874E7184C194801232E2171
:1040700082E7636D002B7FF4EAAEECE65A6D002A0E
:104080007FF47FAE81E6284698471CE7736D002BCE
:104090007FF492AE93E620469847E1E66B6D002BE5
:1040A0007FF40DAF0FE7636D002B7FF423AF24E7A0
:1040B000084911A82AF036FC00283FF49BAE0223E1
:1040C000236097E6B497FF1F5893FF1FC094FF1F0C
:1040D000305503002C55030008B5084B1B680146FA
:1040E00018462CF0F5FD06492AF0F8FE2AF05EFE8F
:1040F000044B19682CF0ECFD08BD00BF6896FF1F4B
:10410000DB0FC940F899FF1FF8B5324A324B5568AA
:1041100018682CF089FD014630482CF08DFE0446CD
:1041200028462CF081FD014620462CF0D1FD2C4B79
:104130005B6C013B0546032B49D8DFE803F0363CB6
:104140003002284B58682CF06FFD07462846FFF7D1
:10415000C3FF254C254A0023166884F8903072B6B8
:1041600039462CF0ABFC22492CF066FE0546304661
:104170002CF05AFD014628462CF05EFED4F8801043
:104180002CF0A6FDE16FA0672CF05EFFC8B9D4F853
:10419000883003F10043C4F88C3062B6F8BD154B8B
:1041A00058682CF041FD0746D0E7134B58682CF0B7
:1041B0003BFD0746CAE7114B58682CF035FD074612
:1041C000C4E7D4F88830C4F88C3062B6F8BD002754
:1041D000BCE700BFF89AFF1FF09AFF1FDB0FC94032
:1041E000149AFF1F7C93FF1F6499FF1F6893FF1FA2
:1041F000CDCCCC3C9895FF1F7498FF1F3098FF1FC3
:104200002DE9F041C04BC0B01D6807AC2D1B40AE7E
:10421000281927F00DFC04F8010BA642F8D1BB4980
:10422000BB4CBC4EBC4D03A82AF0A8FA002103A841
:10423000FDF71AFD03A82AF061FA2220FEF76EF8B6
:1042400007982CF0EDFC0021FEF71AF8216803A86E
:104250002AF094FA002103A8FDF706FD03A82AF02E
:104260004DFAAE4903A82AF089FA002103A8FDF708
:10427000FBFC03A82AF042FA2220FEF74FF8089828
:104280002CF0CEFC0021FDF7FBFF216803A82AF0EB
:1042900075FA002103A8FDF7E7FC03A82AF02EFA1F
:1042A0009F4903A82AF06AFA002103A8FDF7DCFC65
:1042B00003A82AF023FA2220FEF730F804210998F7
:1042C000FDF7DEFF216803A82AF058FA002103A8B1
:1042D000FDF7CAFC03A82AF011FA924903A82AF0B4
:1042E0004DFA002103A8FDF7BFFC03A82AF006FA47
:1042F0002220FEF713F89DF8B81003A8002914BF78
:10430000314629462AF03AFA002103A8FDF7ACFC11
:1043100003A82AF0F3F9216803A82AF02FFA002154
:1043200003A8FDF7A1FC03A82AF0E8F97E4903A839
:104330002AF024FA002103A8FDF796FC03A82AF02E
:10434000DDF92220FDF7EAFF0A982CF069FC002134
:10435000FDF796FF216803A82AF010FA002103A8B0
:10436000FDF782FC03A82AF0C9F9704903A82AF0D6
:1043700005FA002103A8FDF777FC03A82AF0BEF98F
:104380002220FDF7CBFF0B982CF04AFC0021FDF713
:1043900077FF216803A82AF0F1F9002103A8FDF7AF
:1043A00063FC03A82AF0AAF9614903A82AF0E6F9F8
:1043B000002103A8FDF758FC03A82AF09FF922204A
:1043C000FDF7ACFFDDF8308006214046FDF758FFD1
:1043D000216803A82AF0D2F9002103A8FDF744FCC4
:1043E00003A82AF08BF92321524829F099FB524B5C
:1043F00058692BF0C3FF082702460B4600974F4829
:1044000029F07AFF4D4829F01BFF27214C4829F05D
:1044100087FB40462BF0B2FF009702460B46474809
:1044200029F06AFF454829F00BFF464903A82AF006
:10443000A5F9002103A8FDF717FC03A82AF05EF9EF
:104440002220FDF76BFF9DF8B91003A8002914BFC7
:10445000314629462AF092F9002103A8FDF704FC11
:1044600003A82AF04BF9216803A82AF087F9002154
:1044700003A8FDF7F9FB03A82AF040F9324903A885
:104480002AF07CF9002103A8FDF7EEFB03A82AF02F
:1044900035F92220FDF742FF0F982CF0C1FB0021D7
:1044A000FDF7EEFE216803A82AF068F9002103A8B1
:1044B000FDF7DAFB03A82AF021F9244903A82AF022
:1044C0005DF9002103A8FDF7CFFB03A82AF016F938
:1044D0002220FDF723FF10982CF0A2FB0021FDF70E
:1044E000CFFE216803A82AF049F9002103A8FDF7AF
:1044F000BBFB03A82AF002F9154903A82AF03EF9EC
:10450000002103A826E000BFE895FF1F6C550300BB
:10451000A887FF1F605503006455030084550300FE
:104520009C550300B4550300CC550300DC55030033
:10453000EC550300FC550300CC96FF1F5C88FF1F61
:1045400020560300485603005856030068560300DF
:1045500078560300FDF788FB03A82AF0CFF8222045
:10456000FDF7DCFE05211198FDF78AFE216803A8FE
:104570002AF004F9002103A8FDF776FB03A82AF02E
:10458000BDF8BF4903A82AF0F9F8002103A8FDF7F8
:104590006BFB03A82AF0B2F82220FDF7BFFE9DF8BE
:1045A000BA1003A8002914BF314629462AF0E6F8BC
:1045B000002103A8FDF758FB03A82AF09FF8216803
:1045C00003A82AF0DBF8002103A8FDF74DFB03A8A0
:1045D0002AF094F8AB4903A82AF0D0F8002103A8E8
:1045E000FDF742FB03A82AF089F82220FDF796FE8A
:1045F00036982CF015FB0021FDF742FE216803A838
:104600002AF0BCF8002103A8FDF72EFB03A82AF02E
:1046100075F89D4903A82AF0B1F8002103A8FDF719
:1046200023FB03A82AF06AF82220FDF777FE3798CB
:104630002CF0F6FA0021FDF723FE216803A82AF0EA
:104640009DF8002103A8FDF70FFB03A82AF056F8F8
:104650008E4903A82AF092F8002103A8FDF704FB75
:1046600003A82AF04BF82220FDF758FE05213898C0
:10467000FDF706FE216803A82AF080F8002103A8B0
:10468000FDF7F2FA03A82AF039F8814903A82AF0C5
:1046900075F8002103A8FDF7E7FA03A82AF02EF821
:1046A0002220FDF73BFE9DF8E41003A8002914BF6B
:1046B000314629462AF062F8002103A8FDF7D4FA12
:1046C00003A82AF01BF8216803A82AF057F803A8CA
:1046D0000021FDF7C9FA03A82AF010F8359B012B39
:1046E00000F035836B496C4D03A82AF047F8002190
:1046F00003A8FDF7B9FA03A82AF000F8296803A86F
:104700002AF03CF8002103A8FDF7AEFA03A829F02F
:10471000F5FF624903A82AF031F8002103A8FDF74C
:10472000A3FA03A829F0EAFF296803A82AF026F8CB
:10473000002103A8FDF798FA03A829F0DFFF5849E4
:1047400003A82AF01BF8002103A8FDF78DFA03A89F
:1047500029F0D4FF296803A82AF010F8002103A843
:10476000FDF782FA03A829F0C9FF4E4903A82AF0F1
:1047700005F8002103A8FDF777FA03A829F0BEFF8A
:10478000296803A829F0FAFF002103A8FDF76CFAB5
:1047900003A829F0B3FF444903A829F0EFFF002143
:1047A00003A8FDF761FA03A829F0A8FF2220FDF76E
:1047B000B5FD15982CF034FA0021FDF761FD216854
:1047C00003A829F0DBFF002103A8FDF74DFA03A899
:1047D00029F094FF354903A829F0D0FF002103A850
:1047E000FDF742FA03A829F089FF2220FDF796FD84
:1047F00016982CF015FA0021FDF742FD216803A858
:1048000029F0BCFF002103A8FDF72EFA03A829F028
:1048100075FF274903A829F0B1FF002103A8FDF780
:1048200023FA03A829F06AFF2220FDF777FD04216F
:104830001798FDF725FD216803A829F09FFF0021A7
:1048400003A8FDF711FA03A829F058FF194903A896
:1048500029F094FF002103A8FDF706FA03A829F028
:104860004DFF2220FDF75AFD134A144B9DF8BB1053
:1048700003A8002914BF1146194629F07FFF1FE045
:104880008856030098560300B0560300C85603002C
:10489000E056030048570300AC87FF1F585703003A
:1048A000685703008057030098570300B057030070
:1048B000C8570300E0570300605503006455030028
:1048C000002103A8FDF7D0F903A829F017FF2168FC
:1048D00003A829F053FF002103A8FDF7C5F903A899
:1048E00029F00CFF149E002E00F0C081BD4903A8E2
:1048F00029F044FF002103A8FDF7B6F903A829F029
:10490000FDFE296803A829F039FF002103A8FDF75F
:10491000ABF903A829F0F2FEB34903A829F02EFF52
:10492000002103A8FDF7A0F903A829F0E7FE2968F4
:1049300003A829F023FF03A80021FDF795F903A898
:1049400029F0DCFEA94903A829F018FF002103A8DB
:10495000FDF78AF903A829F0D1FE2220FDF7DEFC3D
:1049600004211898FDF78CFC216803A829F006FFA4
:10497000002103A8FDF778F903A829F0BFFE9C49A0
:1049800003A829F0FBFE002103A8FDF76DF903A899
:1049900029F0B4FE2220FDF7C1FC1D982CF040F94F
:1049A0000021FDF76DFC216803A829F0E7FE002136
:1049B00003A8FDF759F903A829F0A0FE8D4903A823
:1049C00029F0DCFE002103A8FDF74EF903A829F029
:1049D00095FE2220FDF7A2FC1E982CF021F9002163
:1049E000FDF74EFC216803A829F0C8FE002103A8AA
:1049F000FDF73AF903A829F081FE7F4903A829F0C1
:104A0000BDFE002103A8FDF72FF903A829F076FECB
:104A10002220FDF783FC1F9E05213046FDF730FC68
:104A2000216803A829F0AAFE002103A8FDF71CF9BC
:104A300003A829F063FE14216F4829F071F86F482C
:104A400029F0FEFB28216E4829F06AF830462BF049
:104A500095FC022602460B460096684829F04CFC5D
:104A6000664829F0EDFB674903A829F087FE00217D
:104A700003A8FDF7F9F803A829F040FE2220FDF76E
:104A80004DFC614A614B9DF8BC1003A8002914BF7E
:104A90001146194629F072FE002103A8FDF7E4F83B
:104AA00003A829F02BFE216803A829F067FE002146
:104AB00003A8FDF7D9F803A829F020FE1C9E002EBC
:104AC00000F00181524903A829F058FE002103A8F3
:104AD000FDF7CAF803A829F011FE296803A829F0F8
:104AE0004DFE002103A8FDF7BFF803A829F006FE3C
:104AF000484903A829F042FE002103A8FDF7B4F8B5
:104B000003A829F0FBFD296803A829F037FE03A8B4
:104B10000021FDF7A9F803A829F0F0FD3E4903A8FC
:104B200029F02CFE002103A8FDF79EF803A829F028
:104B3000E5FD2220FDF7F2FB04212098FDF7A0FB04
:104B4000216803A829F01AFE002103A8FDF78CF8BC
:104B500003A829F0D3FD314903A829F00FFE002155
:104B600003A8FDF781F803A829F0C8FD2220FDF76E
:104B7000D5FB3D982CF054F80021FDF781FB21680E
:104B800003A829F0FBFD002103A8FDF76DF803A899
:104B900029F0B4FD3A9C002C00F0C280204903A803
:104BA00029F0ECFD002103A8FDF75EF803A829F029
:104BB000A5FD296803A829F0E1FD03A80021FDF760
:104BC00053F803A829F09AFD164903A829F0D6FD49
:104BD000002103A8FDF748F803A829F08FFD2968F4
:104BE00003A821E0F85703001058030058580300A9
:104BF0007058030088580300A05803005C88FF1F0A
:104C0000B8580300E45803006055030064550300DE
:104C1000FC580300145903005C5903007459030045
:104C20009C590300B059030029F0A8FD002103A8F6
:104C3000FDF71AF803A829F061FD674903A829F0D8
:104C40009DFD002103A8FDF70FF803A829F056FDEC
:104C5000296803A829F092FD002103A8FDF704F8B4
:104C600003A829F04BFD40B0BDE8F0815B4903A8E3
:104C700029F084FD314603A8FCF7F6FF03A829F0CC
:104C80003DFD296803A829F079FD314603A8FCF70A
:104C9000EBFF03A829F032FD514903A829F06EFD6E
:104CA000314603A8FCF7E0FF03A829F027FD296897
:104CB00003A829F063FD03A83146FCF7D5FF03A83C
:104CC00029F01CFD3EE6474903A829F057FD31466F
:104CD00003A8FCF7C9FF03A829F010FD296803A861
:104CE00029F04CFD314603A8FCF7BEFF03A829F0CC
:104CF00005FD3D4903A829F041FD314603A8FCF715
:104D0000B3FF03A829F0FAFC296803A829F036FDAF
:104D100003A83146FCF7A8FF03A829F0EFFCFDE645
:104D2000324903A829F02AFD214603A8FCF79CFF7D
:104D300003A829F0E3FC296803A829F01FFD03A8B4
:104D40002146FCF791FF03A829F0D8FC3CE728494D
:104D5000284D03A829F012FD002103A8FCF784FFC9
:104D600003A829F0CBFC296803A829F007FD00213E
:104D700003A8FCF779FF03A829F0C0FC1E4903A88B
:104D800029F0FCFC002103A8FCF76EFF03A829F022
:104D9000B5FC296803A829F0F1FC002103A8FCF761
:104DA00063FF03A829F0AAFC144903A829F0E6FC34
:104DB000002103A8FCF758FF03A829F09FFC2968ED
:104DC00003A829F0DBFC002103A8FCF74DFF03A892
:104DD00029F094FC0A49C9E4C85903002858030083
:104DE000405803002C59030044590300885903001C
:104DF000F8560300AC87FF1F08570300185703003D
:104E00003057030070B5C14BC0B01D6807AC2D1BF7
:104E100040AE281926F00CFE04F8010BA642F8D18A
:104E2000BB4A13680293029913680193019B5B1AB2
:104E3000C72BF9D9B749B84CB84D03A829F09EFC47
:104E4000002103A8FCF710FF03A829F057FC22203B
:104E5000FDF764FAA0692BF0E3FE0021FDF710FADC
:104E6000296803A829F08AFC002103A8FCF7FCFEAE
:104E700003A829F043FCAA4903A829F07FFC0021DC
:104E800003A8FCF7F1FE03A829F038FC2220FDF767
:104E900045FAE0692BF0C4FE0021FDF7F1F929681D
:104EA00003A829F06BFC002103A8FCF7DDFE03A892
:104EB00029F024FC9B4903A829F060FC002103A8E9
:104EC000FCF7D2FE03A829F019FC2220FDF726FAF0
:104ED000E06A2BF0A5FE0021FDF7D2F9296803A8AE
:104EE00029F04CFC002103A8FCF7BEFE03A829F022
:104EF00005FC8D4903A829F041FC002103A8FCF71B
:104F0000B3FE03A829F0FAFB2220FDF707FA206B75
:104F10002BF086FE0021FDF7B3F9296803A829F0DC
:104F20002DFC002103A8FCF79FFE03A829F0E6FB57
:104F30007E4903A829F022FC002103A8FCF794FE77
:104F400003A829F0DBFB2220FDF7E8F9E06C2BF049
:104F500067FE0021FDF794F9296803A829F00EFCEB
:104F6000002103A8FCF780FE03A829F0C7FB7049C5
:104F700003A829F003FC002103A8FCF775FE03A891
:104F800029F0BCFB2220FDF7C9F9206D2BF048FE6B
:104F90000021FDF775F9296803A829F0EFFB00212E
:104FA00003A8FCF761FE03A829F0A8FB614903A848
:104FB00029F0E4FB002103A8FCF756FE03A829F022
:104FC0009DFB2220FDF7AAF9E06E2BF029FE0021BF
:104FD000FDF756F9296803A829F0D0FB002103A8A2
:104FE000FCF742FE03A829F089FB0921524828F06A
:104FF00097FD00230A22E16E504829F035F94F4809
:1050000029F01EF94E4903A829F0B8FB002103A896
:10501000FCF72AFE03A829F071FB2220FDF77EF998
:10502000206F2BF0FDFD0021FDF72AF9296803A868
:1050300029F0A4FB002103A8FCF716FE03A829F021
:105040005DFB09213F4828F06BFD00230A22216FF8
:105050003A4829F009F9394829F0F2F83A4903A801
:1050600029F08CFB002103A8FCF7FEFD03A829F022
:1050700045FB2220FDF752F9D4F8D0002BF0D0FDEB
:105080000021FDF7FDF8296803A829F077FB00212E
:1050900003A8FCF7E9FD03A829F030FB0D212B48FC
:1050A00028F03EFDD4F8B410244800230A2229F049
:1050B000DBF8224829F0C4F8D4F8B450002D00F0F1
:1050C0009F80234903A829F059FB03A80021FCF77E
:1050D000CBFD03A829F012FB1E4D03A8296829F077
:1050E0004DFB002103A8FCF7BFFD03A829F006FB38
:1050F000D4F8D440002C00F08F80174903A829F081
:105100003DFB002103A8FCF7AFFD27E0E895FF1F5A
:1051100048A0FF1FDC590300CC96FF1FA887FF1F84
:10512000F0590300045A0300185A03002C5A0300D4
:10513000405A0300545A0300685A03005C88FF1F5A
:10514000745A0300885A0300945A0300A85A0300B3
:10515000B85A0300AC87FF1F085B030003A829F0BF
:10516000CDFA296803A829F009FB002103A8FCF760
:105170007BFD03A829F0C2FA3E4903A829F0FEFAF4
:10518000002103A8FCF770FD03A829F0B7FA2968ED
:1051900003A829F0F3FA03A80021FCF765FD03A892
:1051A00029F0ACFA344903A829F0E8FA002103A851
:1051B000FCF75AFD03A829F0A1FA296803A829F0F1
:1051C000DDFA002103A8FCF74FFD03A829F096FAA9
:1051D0002A4903A829F0D2FA002103A8FCF744FDCC
:1051E00003A829F08BFA296803A829F0C7FA00213F
:1051F00003A8FCF739FD03A829F080FA40B070BD80
:105200001F4903A829F0BAFA03A82946FCF72CFD88
:1052100003A829F073FA5FE71A4903A829F0AEFA48
:10522000214603A8FCF720FD03A829F067FA2968A6
:1052300003A829F0A3FA214603A8FCF715FD03A84B
:1052400029F05CFA104903A829F098FA214603A82E
:10525000FCF70AFD03A829F051FA296803A829F0F0
:105260008DFA03A82146FCF7FFFC03A829F046FAB3
:1052700098E700BF1C5B0300305B03004C5B03003E
:10528000CC5A0300E05A0300F45A030070B5B94B3E
:10529000BEB01D6805AC2D1B3EAE281926F0C8FB1C
:1052A00004F8010BB442F8D101A8B349B34CB44D92
:1052B00029F064FA002101A8FCF7D6FC01A829F026
:1052C0001DFA2220FDF72AF822982BF0A9FC0021D4
:1052D000FCF7D6FF216801A829F050FA01A80021A7
:1052E000FCF7C2FC01A829F009FA01A8A54929F098
:1052F00045FA002101A8FCF7B7FC01A829F0FEF946
:105300002220FDF70BF823982BF08AFC0021FCF7F4
:10531000B7FF216801A829F031FA01A80021FCF7A4
:10532000A3FC01A829F0EAF901A8974929F026FA77
:10533000002101A8FCF798FC01A829F0DFF9222040
:10534000FCF7ECFF24982BF06BFC0021FCF798FF96
:10535000216801A829F012FA01A80021FCF784FCB9
:1053600001A829F0CBF901A8884929F007FA002102
:1053700001A8FCF779FC01A829F0C0F92220FCF76C
:10538000CDFF25982BF04CFC0021FCF779FF21681C
:1053900001A829F0F3F901A80021FCF765FC01A898
:1053A00029F0ACF901A87A4929F0E8F9002101A80F
:1053B000FCF75AFC01A829F0A1F92220FCF7AEFF66
:1053C00026982BF02DFC0021FCF75AFF216801A83C
:1053D00029F0D4F901A80021FCF746FC01A829F026
:1053E0008DF901A86B4929F0C9F9002101A8FCF742
:1053F0003BFC01A829F082F92220FCF78FFF2798B7
:105400002BF00EFC0021FCF73BFF216801A829F0DE
:10541000B5F901A80021FCF727FC01A829F06EF9D5
:1054200001A85D4929F0AAF9002101A8FCF71CFC9C
:1054300001A829F063F92220FCF770FF28982BF0CF
:10544000EFFB0021FCF71CFF216801A829F096F969
:1054500001A80021FCF708FC01A829F04FF901A8D8
:105460004E4929F08BF9002101A8FCF7FDFB01A8AA
:1054700029F044F92220FCF751FF29982BF0D0FBAA
:105480000021FCF7FDFE216801A829F077F901A8A9
:105490000021FCF7E9FB01A829F030F901A84049F7
:1054A00029F06CF9002101A8FCF7DEFB01A829F026
:1054B00025F92220FCF732FF2A982BF0B1FB0021BE
:1054C000FCF7DEFE216801A829F058F901A80021A7
:1054D000FCF7CAFB01A829F011F901A8314929F00C
:1054E0004DF9002101A8FCF7BFFB01A829F006F93E
:1054F0002220FCF713FF2B982BF092FB0021FCF7E6
:10550000BFFE216801A829F039F901A80021FCF7A4
:10551000ABFB01A829F0F2F801A8234929F02EF9E4
:1055200001A80021FCF7A0FB01A829F0E7F82968F1
:1055300001A829F023F901A80021FCF795FB01A897
:1055400029F0DCF801A8194929F018F901A800216F
:10555000FCF78AFB01A829F0D1F8296801A829F0F5
:105560000DF901A80021FCF77FFB01A829F0C6F87E
:105570003EB070BDE895FF1F645B0300A887FF1F66
:10558000AC87FF1F785B03008C5B0300A05B03000C
:10559000B45B0300C85B0300DC5B0300F05B03004B
:1055A000085C0300205C0300385C0300545C0300CB
:1055B0002DE9F047094B1B68013BA0B00A2B00F214
:1055C0006985DFE813F091051A0626065906670576
:1055D000A10661078F089309E70A0D006C87FF1F7A
:1055E000E24EE349736DE34D05AC204603F010072E
:1055F00029F0C4F800212046FCF736FB204629F0AC
:105600007DF82220FCF78AFEDB49204629F0B6F817
:1056100000212046FCF728FB204629F06FF8296876
:10562000204629F0ABF800212046FCF71DFB204660
:1056300029F064F8D149204629F0A0F8002120463D
:10564000FCF712FB204629F059F82220FCF766FEF1
:10565000336C012B0CBFCA49CA49204629F08EF889
:1056600000212046FCF700FB204629F047F8296876
:10567000204629F083F800212046FCF7F5FA204661
:1056800029F03CF8C049204629F078F8002120464E
:10569000FCF7EAFA204629F031F82220FCF73EFE1A
:1056A0000021F06DFCF7ECFD2968204629F066F832
:1056B00000212046FCF7D8FA204629F01FF8B3490C
:1056C000204629F05BF800212046FCF7CDFA204661
:1056D00029F014F82220FCF721FE002F44F08582E7
:1056E000AB49204629F04AF800212046FCF7BCFAD5
:1056F000204629F003F82968204629F03FF80021C8
:105700002046FCF7B1FA204628F0F8FFA1492046D0
:1057100029F034F800212046FCF7A6FA204628F0AC
:10572000EDFF2220FCF7FAFDB06A2BF07DFA002194
:10573000FCF7A6FD2968204629F020F80021204624
:10574000FCF792FA204628F0D9FF9349204629F029
:1057500015F800212046FCF787FA204628F0CEFFF6
:105760002220FCF7DBFD30682BF05EFA0021FCF70D
:1057700087FD2968204629F001F800212046FCF722
:1057800073FA204628F0BAFF8449204628F0F6FF35
:1057900000212046FCF768FA204628F0AFFF2220BF
:1057A000FCF7BCFD70692BF03FFA0021FCF768FDA7
:1057B0002968204628F0E2FF00212046FCF754FA31
:1057C000204628F09BFF1521754828F0A9F9F16BB8
:1057D000744828F089FD734828F032FD644920465A
:1057E00028F0CCFF00212046FCF73EFA204628F0A6
:1057F00085FF2220FCF792FD6B49204628F0BEFF72
:1058000000212046FCF730FA204628F077FF29686F
:10581000204628F0B3FF00212046FCF725FA204659
:1058200028F06CFF6149204628F0A8FF002120469F
:10583000FCF71AFA204628F061FF2220FCF76EFDE3
:10584000B0692BF0F1F90021FCF71AFD2968204618
:1058500028F094FF00212046FCF706FA204628F0A5
:105860004DFF5349204628F089FF00212046FCF7D0
:10587000FBF9204628F042FF2220FCF74FFD70681C
:105880002BF0D2F90021FCF7FBFC2968204628F018
:1058900075FF00212046FCF7E7F9204628F02EFF8F
:1058A0004449204628F06AFF00212046FCF7DCF935
:1058B000204628F023FF2220FCF730FDF06A2BF071
:1058C000B3F90021FCF7DCFC2968204628F056FFDC
:1058D00000212046FCF7C8F9204628F00FFF364982
:1058E000204628F04BFF00212046FCF7BDF920465A
:1058F00028F004FF2220FCF711FD736DDB074CBF7D
:105900002E492349204628F039FF00212046FCF784
:10591000ABF9204628F0F2FE2968204628F02EFF39
:1059200000212046FCF7A0F9204628F0E7FE244994
:10593000204628F023FF00212046FCF795F9204659
:1059400028F0DCFE2220FCF7E9FC0021306EFCF799
:1059500097FC2968204628F011FF00212046FCF71B
:1059600083F9204628F0CAFE2CE000BFD094FF1F28
:10597000085D0300A887FF1F046A0300F05C0300B2
:10598000885D03008C5D0300D85C0300C05C0300ED
:10599000385D0300845C03006C5C03009C5C0300C6
:1059A000905D03005C88FF1F3C6A0300205D0300DC
:1059B000405D0300A85D0300C05D03003C5D030083
:1059C000585D0300E449204628F0D8FE0021204617
:1059D000FCF74AF9204628F091FE2220FCF79EFCB5
:1059E000736C012B0CBFDD49DD49204628F0C6FE53
:1059F00000212046FCF738F9204628F07FFE296870
:105A0000204628F0BBFE00212046FCF72DF9204659
:105A100028F074FED349204628F0B0FE002120462D
:105A2000FCF722F9204628F069FE2220FCF776FCDC
:105A3000CD49204628F0A2FE00212046FCF714F9AB
:105A4000204628F05BFE2968204628F097FE0021BA
:105A50002046FCF709F9204628F050FEC3492046AD
:105A600028F08CFE00212046FCF7FEF8204628F0A6
:105A700045FE2220FCF752FCF0692BF0D5F80021FE
:105A8000FCF7FEFB2968204628F078FE002120461E
:105A9000FCF7EAF8204628F031FEB549204628F008
:105AA0006DFE00212046FCF7DFF8204628F026FE98
:105AB0002220FCF733FCB0682BF0B6F80021FCF78D
:105AC000DFFB2968204628F059FE00212046FCF71C
:105AD000CBF8204628F012FEA649204628F04EFEBC
