:10000000F8FF0220990100005D5B0100155B010013
:10001000155B0100155B0100155B0100155B01001C
:10002000155B0100155B0100155B01005D5B0100C4
:100030005D5B0100155B0100318501003586010023
:100040005D5B01005D5B01005D5B01005D5B0100CC
:100050005D5B01005D5B01005D5B01005D5B0100BC
:100060005D5B01005D5B01005D5B01005D5B0100AC
:100070005D5B01005D5B01005D5B01005D5B01009C
:100080005D5B01005D5B01005D5B01005D5B01008C
:100090005D5B01005D5B01005D5B01005D5B01007C
:1000A0005D5B01005D5B01005D5B01005D5B01006C
:1000B0005D5B01005D5B01005D5B0100B9650100F6
:1000C0005D5B0100296D01005D5B0100BD720100F7
:1000D0005D5B0100659301005D5B01005D5B0100FC
:1000E0005D5B01005D5B0100815301005D5B010010
:1000F0005D5B01005D5B01005D5B01005D5B01001C
:10010000A58A0100B98A0100CD8A0100E18A0100B7
:100110005D5B0100497501005D5B01005D5B0100F5
:100120005D5B01005D5B01005D5B01005D5B0100EB
:100130005D5B01005D5B01005D5B01005D5B0100DB
:100140005D5B01005D5B01005D9401005D5B010092
:10015000559501005D5B01005D5B01005D5B010089
:100160005D5B01005D5B01005D5B01005D5B0100AB
:100170005D5B01005D5B01005D5B01005D5B01009B
:100180005D5B01005D5B01005D5B01005D5B01008B
:100190005D5B01005D5B0100584B4CF2205210B5D5
:1001A0001A804DF628121A8000BF00BF15F0DAFC45
:1001B000534B4FF030621A60524A9A60524ADA60EA
:1001C000524B4FF470021A60514A136813F4807353
:1001D00004D150490B604FF4A85313604E4B1A786A
:1001E000110703D51A7842F008021A704B4B4C499C
:1001F0002A221A704B4A4C4B8B4204D252F8040FFD
:1002000043F8040BF8E7494B494900228B4202D2DC
:1002100043F8042BFAE74749474A002352F82300E2
:1002200041F823000133662BF8D1444B444A802126
:1002300003F8011B9342FBD1424B3E4A1A60424BEA
:100240008A221A70A3F5805324225A70A0221A70B1
:100250009A799207FCD59A79D406FCD43B4A9379D3
:1002600003F00C03082B394BF9D103221A714622F3
:100270005A719A799006FCD5344A9179334B4906E4
:10028000FBD5334A4FF08271116009215160202261
:100290001A709A7902F00C020C2AFAD12D4B2E4AD0
:1002A0001A602E4B2E4A1A6000225A60072243F829
:1002B000042C2C4AC3F80C2D62B615F06DFD154BBD
:1002C0001B68DA0705D5284815F0ECFC274B284AAF
:1002D0001A60284B1B785B0609D5244C244B2268F6
:1002E0009A4204D1204815F0DDFC002323601BF066
:1002F000E3F815F03DFC18F0FDFBFEE70E2005408D
:1003000030800440823F04000100002B88ED00E0B3
:1003100010D0034014D0034002D0074000E0074053
:100320003812FF1F3C1B0200F806FF1F3812FF1F88
:10033000341EFF1F0002FF1F0000000000E400E069
:1003400056E400E008ED00E00050064000400640A2
:100350004480044004800440C010050014E000E024
:10036000BFD4010000002020C078485E1CE003409C
:10037000A5C3945A00F00740FFFFFFFFFFFFFFFFF8
:10038000FFFFFFFFFFFFFFFFFFFFFFFFFFFFFFFF7D
:10039000FFFFFFFFFFFFFFFFFFFFFFFFFFFFFFFF6D
:1003A000FFFFFFFFFFFFFFFFFFFFFFFFFFFFFFFF5D
:1003B000FFFFFFFFFFFFFFFFFFFFFFFFFFFFFFFF4D
:1003C000FFFFFFFFFFFFFFFFFFFFFFFFFFFFFFFF3D
:1003D000FFFFFFFFFFFFFFFFFFFFFFFFFFFFFFFF2D
:1003E000FFFFFFFFFFFFFFFFFFFFFFFFFFFFFFFF1D
:1003F000FFFFFFFFFFFFFFFFFFFFFFFFFFFFFFFF0D
:10040000FFFFFFFFFFFFFFFFFFFFFFFFDEF9FFFF23
:1004100010B5054C237833B9044B13B10448AFF33E
:1004200000800123237010BD3812FF1F0000000060
:10043000401B0200084B10B51BB108490848AFF338
:1004400000800848036803B910BD074B002BFBD0A0
:10045000BDE81040184700BF000000003C12FF1F1D
:10046000401B02003812FF1F0000000000690B69EA
:100470009842D4BF00200120704700BF80698B697B
:100480000028B8BF4042002BB8BF5B429842D4BF9F
:1004900000200120704700BFF0B586460120DEF83D
:1004A0005470DEF82C303A6A106079683A680A4471
:1004B0007A600EF12C0493B15A69002A08DB1A6A9B
:1004C00010605E6819683D695A6931445960521B71
:1004D00019690A445A6154F8043F002BECD1DEF844
:1004E0002430154ADEF81840DEF86400002111605F
:1004F000DB00516803F1804303F5603321440D2490
:1005000019611460DA68502122F08002DA60D96043
:1005100000B1F0BD7A68FB689A4200D0F0BDDEF809
:100520000820DEF85810936823F002039360002936
:10053000F4D0BDE8F040084700800340836A00F132
:10054000280233B10120596A52F8043F0860002B99
:10055000F9D17047234A244BD2ED017AD3ED006ADA
:10056000DFED220A224A234BF8EEE66AF8EEE77A3C
:1005700080EEA67A10B5546893ED000A67EE277AEC
:1005800027EE800A19F028FA19F07EF91A4A1B4B57
:1005900092ED006A93ED007A72B607EE904AF8EE9B
:1005A000E77ADFED176A174BD0EE067AB8EEC77A16
:1005B000C7EEA65A93ED1E6AD3ED1D6AC5EE877A83
:1005C00067EE867AF4EEE67AC3ED1C7AD3ED207AF4
:1005D000F1EE10FAD8BFF1EE677AC3ED217A62B678
:1005E00010BD00BF6812FF1F1017FF1FDB0FC940AF
:1005F0008416FF1F9C13FF1FF814FF1FB815FF1F61
:10060000CDCCCC3C0014FF1F094A9FED0A7AD16B78
:10061000936BD2ED106A03FB01F307EE903AF8EE0C
:10062000677A67EEA67A80EE270A20EE070A7047FF
:10063000F815FF1F0000B443036A8B4224D0C3693E
:10064000994200D070478369002BFBD010B472B67A
:100650000F4AC369846900211160DB00516803F10E
:10066000804303F5603321440D2419611460DA6876
:10067000502122F08002DA60D96062B600695DF82C
:10068000044B03685B681847006903689B68184758
:1006900000800340D0ED1D7A90ED1C7A2DE9F041E9
:1006A000F4EE477A466DF1EE10FA736846D1FDEE2E
:1006B000C77A17EE904AB368A3423DD0002C336846
:1006C000B4BF4FF0FF3201229A4215D000F124014D
:1006D000012508E013685B42012B13600BBF926A8F
:1006E000D36A13601D6051F8042F002AF2D1C36E43
:1006F00003EB8303DB0040D184EAE475A5EBE475EA
:100700009DB383689A6812F00207804649D01A6840
:1007100034498A4240D959683348B0FBF5F5521A3A
:10072000954250D3AA1A0027012003219F60D86068
:100730001A6099601D60B460BDE8F081D0ED216A57
:10074000F5EEC06A77EEA67AF1EE10FAB4EEE77A2B
:100750001CDDF1EE10FAD8BFF0EE477ABDEEE77A75
:10076000C0ED1D7A17EE104AA5E78268936823F062
:1007700002039360B460BDE8F081013BFDD184EADF
:10078000E475A5EBE475002DEFD0BAE7F1EE10FAB1
:1007900058BFF0EE477AE1E7134AB2FBF5F51D606A
:1007A000E8E7406903681B689847D8F80830D8F82C
:1007B00054609F6001220321DA600B4AB2FBF5F519
:1007C0001D609960D6E7D8F814000021026899608E
:1007D00001260321DE6012681D6099609047D8F8F9
:1007E0005460C7E77FA9030000879303826893687A
:1007F0009B0700D47047416D036F70B5044648688D
:10080000A16F1B1A002BB8BF5B428B4244D3E16F30
:100810008B4238D3616F8B4239D24D1EAB42D4F834
:1008200080003EBF0239CB1A4343D4F8880028BF6A
:100830000023184407EE900AF8EE677AB1EEE70A53
:10084000B4EE400AF1EE10FA50D1FDEEC07A17EE88
:10085000905AE5B1936813F002062BD0136826492D
:100860008B4222D951682548B0FBF5F55B1A9D42B1
:100870002FD3EB1A0024012003219460D060136071
:100880009160156070BDD4F88450002DE2D193685A
:1008900023F00203936070BDD4F88000D4F8881070
:1008A00000FB031307EE903AC6E7144BB3FBF5F5D4
:1008B000156070BD606903681B689847A3680F4A9C
:1008C0009E6001200321D860B2FBF5F51D609960A0
:1008D00070BD6069036800260124032196601B68CF
:1008E000D46015609160BDE870401847B0EE670AAB
:1008F00019F0D2F8A268A8E77FA903000087930344
:1009000070B5044608460D461BF05AFE23680246A1
:10091000294620465B68BDE87040184738B5044654
:1009200008460D461BF04CFE2368024629465B68CC
:10093000204698470546204618F024F9284438BD3B
:1009400038B5054618F06EF90446284618F01AF92D
:10095000204438BD38B5054618F064F904462846E9
:1009600018F010F9204438BD38B50A220023054696
:1009700018F018F90446284618F004F9204438BD48
:1009800038B5C9B2054618F057F90446284618F09C
:10099000F9F8204438BD00BF10B509212C4817F0E4
:1009A00061FC2C4818F0EEF8FE212B4812F0F0FA0A
:1009B00000282FD10A21284812F0EAFA98B9182104
:1009C000254812F0E5FA00283AD10F21224812F00A
:1009D000DFFA50BB09212048204C12F0D9FA002838
:1009E00032D1206009E01D4C1D480A2319462360BE
:1009F00017F038FC174818F0C5F80C21194817F003
:100A000031FC2168134818F00DF91248BDE8104078
:100A100018F0B8B8114C144801230921236017F0CD
:100A200021FC0C4818F0AEF8E7E70C4C0F480F23F8
:100A30000A21236017F016FC064818F0A3F8DCE73B
:100A4000064C0B481823F3E70A480923CEE700BFFA
:100A500088EC0100D807FF1F1417FF1FBC15FF1FEC
:100A6000A0EC0100D0EC010094EC0100B8EC010016
:100A7000ACEC0100C4EC0100032827D8DFE800F04B
:100A80001D140B021C4B89B393F87410042081F0E1
:100A9000010115F019B9184B19B393F8771011200B
:100AA00081F0010115F010B9134BA9B193F876103C
:100AB000162081F0010115F007B90F4B39B193F8F9
:100AC00075100E2081F0010115F0FEB870470E2060
:100AD00093F8751015F0F8B8162093F8761015F005
:100AE000F3B8112093F8771015F0EEB8042093F8BE
:100AF000741015F0E9B800BFF815FF1F70B52DEDA3
:100B0000028B84B0054601AE01E006F8014B2B686C
:100B100028465B6998470021C4B2214817F0A2FB20
:100B2000204818F02FF831211F4817F09BFB204672
:100B300017F01CFC02211D4817F094FB21461948B0
:100B400018F070F8174818F01DF8FF2CDDD102E0FE
:100B50002B685B6998472B6828461B6998470028D3
:100B60002846F5DC01A81AF097FC07211048B0EEE2
:100B7000408AF0EE608A17F075FBB0EE480AF0EE9E
:100B8000680A0421074818F057F8064817F0FAFFDA
:100B9000B0EE480AF0EE680A04B0BDEC028B70BDFE
:100BA00004EE0100D807FF1FE0EC010014ED010086
:100BB00018ED0100FFFFFFFF03280FD8DFE800F06A
:100BC0000B0805020A48FFF799BF0A48FFF796BFCE
:100BD0000948FFF793BF0948FFF790BF9FED020B4D
:100BE000704700BFAFF30080000000000000F0BFBE
:100BF000B807FF1FA807FF1F9807FF1FD807FF1F91
:100C00000128F0EE407A17D0022813D010B19FEDE2
:100C10000D0A70470C4A1169D368D2ED056A03FBCF
:100C200001F307EE103A67EEA67AB8EE477A87EE40
:100C3000870A7047FFF7E8BC034A516A136AD2ED8E
:100C40000A6AECE700000000F815FF1F38B5434DB5
:100C50004348EA6BAB6B95ED107AD5ED127A414CB7
:100C600003FB02F32DED048B08EE103AB8EE488A30
:100C7000DFED3D8A28EE078A0D2167EEA88AF0EEA7
:100C8000409A17F0EFFA18EE100A1AF063F841ECE8
:100C9000100B0221204617F0CFFF204617F072FFFD
:100CA0001121324817F0DEFA286C1AF053F841ECA3
:100CB000100B0221204617F0BFFF204617F062FFFD
:100CC0000F212B4817F0CEFA89EEA89A18EE900A59
:100CD0001AF040F841EC100B0221204617F0ACFF4F
:100CE000204617F04FFF0A21224817F0BBFA19EEF1
:100CF000900A1AF02FF841EC100B0221204617F051
:100D00009BFF204617F03EFF07211B4817F0AAFA69
:100D100019EE100A1AF01EF841EC100B02212046C1
:100D200017F08AFF28EE098A204617F02BFF0821CA
:100D3000124817F097FA18EE100A1AF00BF841EC67
:100D4000100B0221204617F077FF204617F01AFFFC
:100D5000B0EE480ABDEC048B38BD00BFF815FF1F8C
:100D600050ED0100D807FF1FDB0FC94060ED010007
:100D700074ED010084ED010090ED010098ED01009B
:100D80000128F0EE407A2CD0022813D010B19FED4C
:100D9000190A7047184AD2ED056A1169D36887EEBF
:100DA000A67A03FB01F300EE103AB8EE400A20EEFB
:100DB000070A7047104A536BCBB1012BE7D10F4B99
:100DC000D2ED117AD3ED0C6AD16B936B86EEA77AD4
:100DD00003FB01F300EE103AF8EE407A27EE870AA3
:100DE0007047054AD2ED0A6A516A136AD7E7FFF7DE
:100DF0002DBF00BF00000000F815FF1F0415FF1FE6
:100E000038B52F4D2F4C95ED007AD4ED007AB5EE24
:100E1000C07AF1EE10FA48BFB1EE477AF5EEC07A2B
:100E200048BF85ED007AF1EE10FA44BFF1EE677A23
:100E3000C4ED007A67EEA77A2DED048BE7EE077A12
:100E400008EE100A17EE900A08EE901A19F082FFC9
:100E500041EC100B18F060FD51EC100B1AF0C6FAC3
:100E600094ED006AD5ED006A07EE900A87EE867A67
:100E700087EEA69AF8EEE88AB8EEC88A67EE287A76
:100E800017EE900A19F066FF41EC100B18F0A4FC65
:100E900051EC100B1AF0AAFA68EE097A206017EEEE
:100EA000900A19F057FF41EC100B18F095FC51EC2B
:100EB000100B1AF09BFABDEC048B286038BD00BF04
:100EC0008413FF1F8815FF1FF8B51D212DED028B20
:100ED000924D934C934E08EE100A934817F0C2F9C6
:100EE000924817F04FFE95E8090003FB00F307EE68
:100EF000903A95ED027AD4ED036A8D4A8D49F8EE69
:100F0000677AB8EEC88A67EE877A002387EEA67AFA
:100F10000B601360C7EE087A17EE900A19F01AFFFB
:100F200041EC100B18F058FC51EC100B1AF016FAAB
:100F300027683060012F00F0C68072D3022F41D0A5
:100F40007D4F7E48152117F08DF93168774817F0ED
:100F500069FE764817F016FE2421794817F082F9C9
:100F6000E06819F0F7FE41EC100B02216F4817F012
:100F700063FE6E4817F006FE2921724817F072F9D9
:100F8000A06919F0E7FE41EC100B0221674817F049
:100F900053FE664817F0F6FD14216B4817F062F90E
:100FA0003968624817F03EFE604817F0EBFD1421E7
:100FB000664817F057F9BDEC028B5C48BDE8F84075
:100FC00017F0E0BD2B21624894ED068A17F04AF92C
:100FD000A06919F0BFFE41EC100B3946534817F0D9
:100FE0002BFE524817F0CEFD6B6B002B00F08C806F
:100FF000012BA5D1574BD5ED117AD3ED0C6AEA6BD5
:10100000AB6B4D4F86EEA77A03FB02F307EE903AE7
:10101000F8EE677A67EE877AFDEEE77AC7ED007A39
:101020008FE794ED067AD5ED057A434F87EE278A50
:10103000D5ED047A95ED037AF8EE677AB8EE477A43
:1010400067EE887A67EE877A17EE900A19F082FECB
:1010500041EC100B18F0C0FB51EC100B1AF07EF9AC
:10106000182138603C4817F0FDF8A06919F072FEAD
:1010700041EC100B02212D4817F0DEFD2B4817F034
:1010800081FD2421354817F0EDF8686919F062FEFA
:1010900041EC100B0221254817F0CEFD234817F034
:1010A00071FD11212E4817F0DDF818EE100A19F025
:1010B00051FE41EC100B02211C4817F0BDFD1B48EE
:1010C00017F060FD3DE7D4ED065A95ED0A6A95EDFF
:1010D000097AD5ED087A184FC5EE866AB8EE477AD8
:1010E000F8EE677A26EE877A67EE277A17EE900A8F
:1010F00019F030FE41EC100B18F06EFB51EC100BA8
:101100001AF02CF938601CE7B0EE480AFFF79EFD94
:10111000094FBDEEC00A87ED000A12E7F815FF1F60
:10112000A013FF1F9014FF1FA4ED0100D807FF1F9D
:101130008814FF1FBC16FF1FB012FF1F48EE0100EE
:1011400060EE010088EE0100B4EE0100EC0A02003E
:101150001CEE01000415FF1FC4ED0100E0ED0100CD
:1011600008EE01000C4B1B68032B13D8DFE803F0DB
:101170000E0A06020146094817F0DEBC014608487F
:1011800017F0DABC0146074817F0D6BC01460648FE
:1011900017F0D2BC704700BF1007FF1FB807FF1F32
:1011A000A807FF1F9807FF1FD807FF1FF0B585B0DE
:1011B0006249634D634C684617F0B2FE00216846F1
:1011C000FFF7D0FF684617F06BFE5F49684617F0DF
:1011D000A7FE00216846FFF7C5FF684617F060FECE
:1011E0005A49684617F09CFE00216846FFF7BAFF8F
:1011F000684617F055FE5449684617F091FE0021E5
:101200006846FFF7AFFF684617F04AFE5049684648
:1012100017F086FE00216846FFF7A4FF684617F026
:101220003FFE4949684617F07BFE00216846FFF7FC
:1012300099FF684617F034FE4649684617F070FE7D
:1012400000216846FFF78EFF684617F029FE3E49E9
:10125000684617F065FE00216846FFF783FF684681
:1012600017F01EFE3C4A2E681768536892ED027A0A
:10127000DFED3A6A3A48216803FB07F307EE903A3C
:1012800006EE106AF8EE677AB8EEC66A67EE877AFD
:10129000344F86EE277A67EE267AC0ED007A002971
:1012A00045D0012928D03B682F49304A0B6030488F
:1012B0001660082116F0D6FF29682E4817F0B2FCF8
:1012C0002C4817F05FFC05212B4816F0CBFF39683E
:1012D000284817F0A7FC274817F054FC00210320EA
:1012E000FFF7CAFB2168F1B1012903D100210120D8
:1012F000FFF7C2FB05B0F0BD506A3B68116A92ED82
:101300000A7A1E4A07EE903AF8EEE77A01FB00F1FE
:1013100027EE877A07EE901AF8EE677AC7EE276A0B
:10132000C2ED006AC0E70120FFF7A6FBDEE7106907
:101330003B68D16892ED057AE3E700BFCCEE01008F
:10134000BC16FF1FA013FF1FE0EE0100E4EE01003A
:10135000F8EE01000CEF0100F815FF1F0000B44388
:101360003815FF1F8814FF1FB412FF1FF414FF1F4E
:1013700070000200D807FF1FBCFF01000015FF1F0F
:101380001E4B1B6810B5032B37D8DFE803F0291C70
:101390000F02C4B210EE100A19F0DCFC41EC100B85
:1013A00021461748BDE8104017F046BCC4B210EE05
:1013B000100A19F0CFFC41EC100B21461148BDE892
:1013C000104017F039BCC4B210EE100A19F0C2FC7C
:1013D00041EC100B21460C48BDE8104017F02CBC26
:1013E000C4B210EE100A19F0B5FC41EC100B214606
:1013F0000648BDE8104017F01FBC10BD1007FF1FC6
:10140000B807FF1FA807FF1F9807FF1FD807FF1F78
:10141000084B1B68032B0BD8DFE803F00806040217
:1014200015F0A0BE15F024BB14F0B8BF16F09EBF97
:10143000704700BF1007FF1F2DE9F041DFF8508013
:10144000104F114E114D04460146404617F074FBF3
:10145000404617F097FB2146384617F06DFB38469B
:1014600017F090FB2146304617F066FB304617F028
:1014700089FB2146284617F05FFB2846BDE8F0416E
:1014800017F080BB9807FF1FA807FF1FB807FF1FB3
:10149000D807FF1F2DE9F041B14DA2B001210D2069
:1014A00014F026FC2B680893089A2B680793079B77
:1014B000AB4C9B1A0E2BF8D9AA4BAB491E681EA841
:1014C00017F02EFD00211EA8FFF74CFE1EA817F0F6
:1014D000E7FC0A2231461EA817F054FD1EA8FFF7AC
:1014E000ABFF1EA817F0DCFC40F6230014F03AFD19
:1014F0000C219E4814F05CFF03219D4814F058FF16
:1015000023680693069A2B680593059B944C9B1AB7
:10151000312BF8D90C21954814F04AFF0321944847
:1015200014F046FF23680493049A2B680393039BEB
:101530008B4C9B1A312BF8D907218E4814F038FFB9
:1015400003218B4814F034FF23680293029A2B681E
:101550000193019B9B1A312BF9D914F0ABFF0028A2
:10156000854C0CDD01230C218448236016F07AFEA3
:101570002168834817F056FB814817F003FB40F6BB
:10158000230015F09FF80C21784815F0C9FA0321C3
:10159000774815F0C5FA2B680E930E9A2B680D93B9
:1015A0000D9B6F4E9B1A312BF8D90C216F4815F00B
:1015B000B7FA03216E4815F0B3FA33680C930C9A0E
:1015C0002B680B930B9B664E9B1A312BF8D9072186
:1015D000684815F0A5FA0321654815F0A1FA3368AB
:1015E0000A930A9A2B680993099B9B1A312BF9D904
:1015F00015F018FB00280CDD02230C216148236044
:1016000016F030FE21685E4817F00CFB5C4817F0BE
:10161000B9FA40F2124015F05FFC0C21534815F066
:10162000ABFD0321524815F0A7FD2B681493149AC3
:101630002B681393139B4A4E9B1A312BF8D90C211C
:101640004A4815F099FD0321494815F095FD336886
:101650001293129A2B681193119B414E9B1A312BB6
:10166000F8D90721434815F087FD0321404815F0BC
:1016700083FD33681093109A2B680F930F9B9B1A6E
:10168000312BF9D915F0ACFD00280CDD03230C211A
:101690003D48236016F0E6FD2168394817F0C2FA8C
:1016A000374817F06FFA0A213848394F16F0DAFD3B
:1016B0002168334817F0B6FA314817F063FA354B12
:1016C0001B683E46C7EB03083446783708EB040036
:1016D00014F066F904F8010BA742F7D12E4B2F4FF7
:1016E0001B683C46C7EB0308343708EB040014F0D2
:1016F00057F904F8010BBC42F7D1294B294F1B685D
:101700003C46C7EB0308403708EB040014F048F9E7
:1017100004F8010BA742F7D1234B244F1B683C462A
:10172000C7EB0308343708EB040014F039F904F868
:10173000010BBC42F7D11E4B1E4F1B683C46C7EB4A
:101740000308103708EB040014F02AF904F8010B21
:10175000A742F7D1184B194F1C6804F10C082FE071
:10176000C419FF1F241EFF1F20EF010028EF0100F6
:10177000E0EE010038EF01001007FF1F40EF01000D
:10178000D807FF1F50EF010060EF010070EF01006C
:10179000F815FF1F8813FF1F4C07FF1FDC16FF1FE4
:1017A0000407FF1F1013FF1F3C07FF1F5013FF1FED
:1017B0004807FF1FA415FF1F1807FF1F8C15FF1FE9
:1017C000204614F0EDF80134A04507F8010BF7D1DD
:1017D0008C4B8D4F1C6804F10C08204614F0E0F887
:1017E0000134A04507F8010BF7D1884B884F1C68DE
:1017F00004F10C08204614F0D3F80134A04507F892
:10180000010BF7D1834B844F1B683C46C7EB0308A1
:10181000343708EB040014F0C3F804F8010BA742B6
:10182000F7D17E4B7E4F1B683C46C7EB0308583709
:1018300008EB040014F0B4F804F8010BA742F7D148
:10184000784B794F1B683C46C7EB0308503708EBD1
:10185000040014F0A5F804F8010BA742F7D1734B6C
:10186000734F1B683C46C7EB0308603708EB040066
:1018700014F096F804F8010BBC42F7D101210420C2
:1018800014F036FA01210E2014F032FA012116204C
:1018900014F02EFA0121112014F02AFA002103205D
:1018A000FFF7EAF800210846FFF7E6F800210120DB
:1018B000FFF7E2F800210220FFF7DEF80221307E78
:1018C00014F016FA0221307F14F012FA2B681A93E2
:1018D0001A9A2B681993199B564C9B1A092BF8D905
:1018E0000121307E14F0F0F90121307F14F0ECF981
:1018F000022196F82C0014F0FBF9022196F8300032
:1019000014F0F6F923681893189A2B681793179B0D
:10191000484C9B1A092BF8D9012196F82C0014F099
:10192000D3F9012196F8300014F0CEF9022196F88F
:101930004C0014F0DDF9022196F8500014F0D8F9AB
:10194000012196F84C0014F0BFF996F850000121DF
:1019500014F0BAF923681693169A2B681593159B01
:101960009B1A092BF9D90121182014F0C1F9012182
:10197000182014F0A9F901210F2014F0B9F9012160
:101980000F2014F0A1F901210A2014F0B1F901216E
:101990000A2014F099F90121092014F0A9F9012174
:1019A000092014F091F9FEF7F7FF00210320FFF75B
:1019B00063F8204E032401210D2014F085F92B68D3
:1019C0001E931E9A2B681D931D9B9B1A312BF9D9D0
:1019D00000210D2014F078F933681C931C9A2B68B1
:1019E0001B931B9B9B1AB3F5967FF8D3013CE2D166
:1019F0000E21114816F036FC104817F0C3F822B03B
:101A0000BDE8F0812407FF1F9815FF1F1C07FF1F6B
:101A1000E814FF1F2807FF1F0415FF1FFC06FF1F08
:101A2000B812FF1F0007FF1F9414FF1F1407FF1FAA
:101A3000A013FF1FC419FF1F7CEF0100D807FF1F71
:101A400003280BD8DFE800F00806040215F0D8BB25
:101A500015F0F8B814F03EBD16F09EBB002070479C
:101A600008B514F027FD002801DD012008BD15F0A0
:101A7000D9F8002801DD022008BD15F0B1FB0028CF
:101A8000D4BF0020032008BD38B50D4C2068FFF7F7
:101A9000D7FFC5B202E02068FFF7D2FFFFF7E0FFF3
:101AA0000028F8DC0421074816F0DCFB294606482C
:101AB00017F0B8F8044817F065F8284638BD00BF9D
:101AC0001007FF1F8CEF0100D807FF1F08B5FFF7B5
:101AD000C7FF00280ADB144B1868FFF7B1FF134B50
:101AE000C0B24328187003D0632801D0002008BD7D
:101AF00000210320FEF7C0FF0D4B1B68012B08D00F
:101B000003D3022B09D0012008BD00210120FEF7DC
:101B1000B3FF00210120FEF7AFFF00210220FEF7F6
:101B2000ABFF012008BD00BF1007FF1F6412FF1F9D
:101B3000A013FF1FF0B51C2183B02748274C284D68
:101B4000284E294F16F08EFB284817F01BF80E215F
:101B5000274816F087FB2168244817F063F82348CC
:101B600017F010F80023019309E0019B3068184436
:101B700013F030FF019B0133142B019314DC286810
:101B8000FFF75EFFC0B2FF282368014619D0032B80
:101B9000EBD1019B3A680146D01813F01BFF019B63
:101BA0000133142B0193EADD2368032B0CBF114B87
:101BB000114B042219680DEB020013F033FF03B040
:101BC000F0BD032B0CBF084A064A019B1068002198
:101BD000184413F0FFFEE7E794EF01000C07FF1F26
:101BE0001007FF1F3807FF1F0807FF1FD807FF1F39
:101BF000B4EF01004007FF1F3007FF1F2DE9F04F32
:101C000095B0074604A811F07FF9882016F07AFFF6
:101C10000823102280E80C00C61800F18808354619
:101C2000344620460021103417F07AF9A045F8D147
:101C30001721BF4816F016FBBE4816F0A3FF0CA8EC
:101C40000123BD4ABD4911F04FFA0E9A9DF83C3070
:101C50009DF8341006928DF81C308DF814100FAAE0
:101C60000DF11D030DF12A0012F8011F03F8011BED
:101C70008342F9D1139B0B930CA811F053F904A8DC
:101C800011F07EF9002800F0AF8104A811F066F988
:101C90000A210446AA4816F0E5FA214600230A2242
:101CA000A44816F07FFFA34816F06CFF002F4AD01F
:101CB00017F1060900F1B7800024A24610E0013CAC
:101CC0000CA811F05DF98046002842D00CA811F054
:101CD00049F901340CA811F025F94C4500F3A38013
:101CE000012204A90CA811F073FA0CA811F01CF938
:101CF00080461AF065FC0146404616F0B3FA8D485E
:101D000016F040FF0CA811F011F90028D7D10CA84B
:101D100011F00AF901468B481AF076FA0A210028D8
:101D20005CD1894816F09EFA0CA811F0FDF88046A7
:101D30001AF046FC0146404616F094FA7D48013CF4
:101D400016F020FFC2E7814B64221A604FF00609AB
:101D5000B2E70F217E48DFF8F4B116F083FA21468E
:101D6000744816F05FFF03217A4816F07BFADBF81F
:101D70000010704816F056FF04F10803032175485F
:101D8000CBF8003016F06EFADBF80010694816F058
:101D900049FF684816F0F6FE68466F4917F0C0F82C
:101DA00041466846FFF7DEF9684617F079F82220C9
:101DB000FFF72EFB631E00EE103A4046B8EEC00A55
:101DC000FFF7DEFA6846654917F0AAF8684641460B
:101DD000FFF7C8F9684617F063F877E7604816F030
:101DE00041FA2146534816F01DFF0321594816F0C9
:101DF00039FA0CA811F098F880461AF0E1FB014678
:101E0000404616F02FFA0321524816F02BFAA7424B
:101E100040F3F48006EB0A11464816F08DFE454863
:101E200016F0B0FE4CE70126741E03214D4816F053
:101E300019FA21463F4816F0F5FE0321454816F0F1
:101E400011FA29463B4816F077FEB41E394816F0C1
:101E500099FE052C04D8DFE804F0686664623595C5
:101E600041490CA817F05CF800210CA8FFF77AF99B
:101E70000CA817F015F83D490CA817F051F80021EF
:101E80000CA8FFF76FF90CA817F00AF829460CA860
:101E900017F05AF800210CA8FFF764F90CA816F007
:101EA000FFFF2E490CA817F03BF800210CA8FFF704
:101EB00059F90CA816F0F4FF072E00F08F801035AA
:101EC0000136B1E72A490CA817F02AF800210CA81E
:101ED000FFF748F90CA816F0E3FF24490CA817F007
:101EE0001FF800210CA8FFF73DF90CA816F0D8FF49
:101EF00029460CA817F028F800210CA8FFF732F9A2
:101F00000CA816F0CDFF15490CA817F009F80CA87D
:101F10000021FFF727F90CA816F0C2FFCFE71549FB
:101F2000D1E71549CFE71549CDE71549CBE700BF04
:101F3000C4EF0100D807FF1FDCEF01001417FF1FDB
:101F4000E0EF0100FCEF010008F001002C07FF1F8B
:101F500024F0010020F0010034F0010048F00100FD
:101F600014F0010050F0010054F001006CF0010089
:101F7000D0F00100B8F00100A0F0010088F00100ED
:101F800070F0010023490CA816F0CAFF00210CA82C
:101F9000FFF7E8F80CA816F083FF1F490CA816F00D
:101FA000BFFF00210CA8FFF7DDF80CA816F078FFA2
:101FB00029460CA816F0C8FF00210CA8FFF7D2F89C
:101FC0000CA816F06DFF15490CA816F0A9FF0CA877
:101FD0000021FFF7C7F80CA816F062FF04A810F064
:101FE000A1FF15B0BDE8F08F0E210D4816F03AF9AB
:101FF00004A810F097FF15B0BDE8F08F0CA810F002
:1020000093FF06EB0A180146404616F0FDFF0AF161
:10201000010AFFE6E8F001006CF0010048F0010061
:10202000ECEF010008B5084BDFED080AD3ED007AAC
:1020300027EE800A17F0D0FC17F026FC044BD3EDF6
:10204000007A20EE270A08BD9C13FF1FDB0FC94052
:10205000F814FF1F1E4A1F4B92ED010AD3ED007AC0
:10206000DFED1D6A1D4BF8EEE77AB8EEC00A86EE8A
:10207000A77A10B55C6827EE000AFFF7D3FF184B6C
:1020800093ED007A72B607EE904AF8EEE77ADFED4C
:10209000156A154B30EE670AB8EEC77AC0EE265ABD
:1020A00093ED1E6AD3ED1D6AC5EE877A67EE867AD8
:1020B000F4EEE67AC3ED1C7AD3ED207AF1EE10FA55
:1020C000D8BFF1EE677AC3ED217A62B610BD00BFCA
:1020D0006812FF1F1017FF1FDB0FC9403C15FF1FC1
:1020E000B815FF1FCDCCCC3C0014FF1F1E4A1F4B60
:1020F00092ED010AD3ED007ADFED1D6A1D4BF8EE7B
:10210000E77AB8EEC00A86EEA77A10B55C6827EECB
:10211000000AFFF787FF184B93ED007A72B607EEBF
:10212000904AF8EEE77ADFED156A154B30EE670A54
:10213000B8EEC77AC0EE265A93ED1E6AD3ED1D6A3B
:10214000C5EE877A67EE867AF4EEE67AC3ED1C7AFE
:10215000D3ED207AF1EE10FAD8BFF1EE677AC3ED35
:10216000217A62B610BD00BF6812FF1F1017FF1F53
:10217000DB0FC940C015FF1FB815FF1FCDCCCC3CED
:102180000014FF1F2DE9F04F1621ADB00446B148F1
:1021900016F068F8B04816F0F5FC0A2C00F24484FA
:1021A000DFE814F095004204C501B0026C0142045E
:1021B0002D03F101B703B7030B00A84B1D680DF108
:1021C0005008C8EB050544462AAE281913F0E8FB71
:1021D00004F8010BA642F8D1A14907A816F0A0FE09
:1021E000002107A8FEF7BEFF07A816F059FE22201F
:1021F000FFF70EF9DDED147A0020B8EEE70AFFF7DD
:10220000BFF8984907A816F08BFE002107A8FEF733
:10221000A9FF07A816F044FE934907A816F080FE10
:10222000002107A8FEF79EFF07A816F039FE22201E
:10223000FFF7EEF8DDED187A0020B8EE670AFFF739
:102240009FF8884907A816F06BFE07A80021FEF743
:1022500089FF07A816F024FE229B012B00F0A7851A
:10226000C0F00E87022B40F09B82804907A816F031
:1022700057FE002107A8FEF775FF07A816F010FE0D
:102280002220FFF7C5F8DDED177A0020B8EE670AC7
:10229000FFF776F8734907A816F042FE002107A859
:1022A000FEF760FF07A816F0FBFD714907A816F0BE
:1022B00037FE002107A8FEF755FF07A816F0F0FD2E
:1022C0002220FFF7A5F80020DDED1B7AF2E1694B33
:1022D0001D6807AC2E1B0DF15008301913F060FB80
:1022E00004F8010BA045F8D1C8EB050521AE444622
:1022F000281913F055FB04F8010BA642F8D15849F0
:1023000003A816F00DFE002103A8FEF72BFF03A87B
:1023100016F0C6FD584903A816F002FE002103A8D6
:10232000FEF720FF03A816F0BBFDDDED087A0020C4
:10233000B8EEE70AFFF724F84A4903A816F0F0FDC3
:10234000002103A8FEF70EFF03A816F0A9FD4649D9
:1023500003A816F0E5FD002103A8FEF703FF03A87C
:1023600016F09EFD444903A816F0DAFD002103A8EB
:10237000FEF7F8FE03A816F093FDDDED107A0020BD
:10238000B8EEE70AFEF7FCFF364903A816F0C8FDD1
:1023900003A80021FEF7E6FE03A816F081FD139CBA
:1023A000012C00F00887022C00F09D86002C40F0E4
:1023B000F7812E4903A816F0B3FD214603A8FEF7C6
:1023C000D1FE03A816F06CFD2B4903A816F0A8FD5A
:1023D000214603A8FEF7C6FE03A816F061FDDDED59
:1023E000097A2046B8EEE70AFEF7CAFF1D4903A89E
:1023F00016F096FD214603A8FEF7B4FE03A816F0DA
:102400004FFD1B4903A816F08BFD214603A8FEF7DC
:10241000A9FE03A816F044FD174903A816F080FD95
:10242000214603A8FEF79EFE03A816F039FDDDED58
:10243000117A2046B8EEE70AFEF7A2FF094903A881
:1024400016F06EFD03A82146FEF78CFE03A816F0D9
:1024500027FDA5E100F10100D807FF1FFC06FF1FC3
:1024600018F1010048F001002CF1010040F10100D9
:1024700054F101004C07FF1F6CF00100954B1D68E3
:102480000DF15008C8EB0505444621AE281913F09C
:1024900087FA04F8010BA642F8D1149B012B00F037
:1024A0005384C0F01284022B40F07A818A4907A835
:1024B00016F036FD002107A8FEF754FE07A816F017
:1024C000EFFC2220FEF7A4FFDDED1B7A0020B8EE22
:1024D000E70AFEF755FF814907A816F021FD002104
:1024E00007A8FEF73FFE07A816F0DAFC7C4907A80C
:1024F00016F016FD002107A8FEF734FE07A816F017
:10250000CFFC2220FEF784FFDDED1C7A0020B8EE20
:10251000670AFEF735FF07A8704916F001FD07A806
:102520000021FEF71FFE07A816F0BAFC38E16D4B3C
:102530001D680DF15008C8EB0505444621AE281969
:1025400013F02EFA04F8010BA642F8D11E9B664840
:1025500001930B21DDF854B0DDF874A0DDF858903C
:10256000179F1F9E189D149C15F07CFE5F4816F067
:1025700009FB209B032B00F21381DFE813F00D030E
:10258000D902A50271025A4B1D680DF15008C8EB23
:102590000505444628AE281913F002FA04F8010B89
:1025A000A642F8D1534907A816F0BAFC002107A8A3
:1025B000FEF7D8FD07A816F073FC2220FEF728FFCF
:1025C000DDED147A0020B8EEE70AFEF7D9FE4349A4
:1025D00007A816F0A5FC002107A8FEF7C3FD07A871
:1025E00016F05EFC444907A816F09AFC002107A8E3
:1025F000FEF7B8FD07A816F053FC2220FEF708FFEF
:10260000DDED1C7A0020B8EE670AFEF7B9FE33490B
:1026100007A816F085FC002107A8FEF7A3FD07A870
:1026200016F03EFC0721354815F01CFE269C2F486D
:10263000214600230A2216F0B5FA2C4816F0A2FA19
:10264000012C00F00F83C0F0DB82022C40F0A88048
:10265000214907A816F064FC002107A8FEF782FDB7
:1026600007A816F01DFC2220FEF7D2FE244B93EDA6
:10267000030A0020B8EEC00AFEF782FE174907A839
:1026800016F04EFC002107A8FEF76CFD07A816F017
:1026900007FC134907A816F043FC002107A8FEF722
:1026A00061FD07A816F0FCFB2220FEF7B1FEDDED70
:1026B0001F7A0020B8EE670AFEF762FE074907A8F6
:1026C00016F02EFC07A80021FEF74CFD07A816F017
:1026D000E7FB65E02807FF1F40F1010048F001001B
:1026E00054F101003C07FF1FC4F10100D807FF1F90
:1026F0000007FF1F18F101002CF10100BCF10100DF
:102700009414FF1FCA4B1D6807AC2D1B0BAE281974
:1027100013F046F904F8010BA642F8D10DF1500868
:10272000C449404616F0FCFB00214046FEF71AFD66
:10273000404616F0B5FB2220FEF76AFEDDED087A72
:102740000020B8EEE70AFEF71BFEBB49404616F034
:10275000E7FB00214046FEF705FD404616F0A0FBD2
:10276000B649404616F0DCFB00214046FEF7FAFC75
:10277000404616F095FB2220FEF74AFEDDED0A7A70
:102780000020B8EE670AFEF7FBFDAB49404616F0A5
:10279000C7FB40460021FEF7E5FC404616F080FBF3
:1027A000A749404616F0BCFB00214046FEF7DAFC84
:1027B000404616F075FBA349404616F0B1FB0021D8
:1027C0004046FEF7CFFC404616F06AFB9E49404665
:1027D00016F0A6FB00214046FEF7C4FC404616F06A
:1027E0005FFB9849404616F09BFB00214046FEF7F0
:1027F000B9FC404616F054FB2DB0BDE8F08F934B6A
:102800001D680DF15008C8EB0505444624AE281993
:1028100013F0C6F804F8010BA642F8D1854907A8C1
:1028200016F07EFB002107A8FEF79CFC07A816F017
:1028300037FB2220FEF7ECFDDDED157A0020B8EE27
:10284000E70AFEF79DFD7C4907A816F069FB002109
:1028500007A8FEF787FC07A816F022FB774907A810
:1028600016F05EFB002107A8FEF77CFC07A816F017
:1028700017FB2220FEF7CCFDDDED167A0020B8EE26
:10288000670AFEF77DFD6C4907A816F049FB07A80B
:102890000021FEF767FC07A816F002FB149B012B32
:1028A00000F0B782C0F0AF83022B7FF479AF6849A4
:1028B00007A816F035FB002107A8FEF753FC07A870
:1028C00016F0EEFA2220FEF7A3FDDDED1B7A0020C4
:1028D000B8EEE70AFEF754FD574907A816F020FBAB
:1028E000002107A8FEF73EFC07A816F0D9FA5949BF
:1028F00007A816F015FB002107A8FEF733FC07A870
:1029000016F0CEFA2220FEF783FD0020DDED1C7AC2
:10291000D0E6514B1D680DF15008C8EB0505444643
:102920002CAE281913F03CF804F8010BA642F8D19C
:102930004A4B1B68012B00F0F382C0F07E82022B11
:102940007FF42EAF3B4907A816F0EAFA002107A84A
:10295000FEF708FC07A816F0A3FA2220FEF758FDA0
:10296000DDED207A0020B8EEE70AFEF709FD3249D6
:1029700007A816F0D5FA002107A8FEF7F3FB07A871
:1029800016F08EFA2D4907A816F0CAFA002107A8FA
:10299000FEF7E8FB07A816F083FA2220FEF738FDC1
:1029A000DDED287A0020B8EE670AFEF7E9FC22493F
:1029B00007A816F0B5FA002107A8FEF7D3FB07A871
:1029C00016F06EFA224907A816F0AAFA002107A805
:1029D000FEF7C8FB07A816F063FA2220FEF718FDE1
:1029E000DDED237A0020B8EEE70AFEF7C9FC1249B4
:1029F00007A816F095FA002107A8FEF7B3FB07A871
:102A000016F04EFA134907A816F08AFA002107A813
:102A1000FEF7A8FB07A816F043FA2220FEF7F8FC01
:102A20000020DDED2B7A72E50DF15008B8E600BF0D
:102A30004807FF1F18F1010048F001002CF10100C8
:102A4000D0F10100E0EE0100E8F101000407FF1FF2
:102A500040F1010054F101001407FF1FA013FF1FF4
:102A6000B34907A816F05CFA002107A8FEF77AFB25
:102A700007A816F015FA2220FEF7CAFC07EE90BA56
:102A80000020B8EEE70AFEF77BFCAA4907A816F07B
:102A900047FA002107A8FEF765FB07A816F000FA21
:102AA000A54907A816F03CFA002107A8FEF75AFB33
:102AB00007A816F0F5F92220FEF7AAFC07EE90AA67
:102AC0000020B8EEE70A24E59C4907A816F028FA8A
:102AD000002107A8FEF746FB07A816F0E1F922201F
:102AE000FEF796FC07EE905A0020B8EEE70AFEF7D4
:102AF00047FC904907A816F013FA002107A8FEF733
:102B000031FB07A816F0CCF98D4907A816F008FA92
:102B1000002107A8FEF726FB07A816F0C1F922201E
:102B2000FEF776FC07EE904A0020B8EEE70AF0E4E4
:102B3000824907A816F0F4F9002107A8FEF712FB56
:102B400007A816F0ADF92220FEF762FC07EE907A96
:102B50000020B8EEE70AFEF713FC764907A816F046
:102B6000DFF9002107A8FEF7FDFA07A816F098F98B
:102B7000734907A816F0D4F9002107A8FEF7F2FA66
:102B800007A816F08DF92220FEF742FC07EE906AA6
:102B90000020B8EEE70ABCE4684907A816F0C0F9BF
:102BA000002107A8FEF7DEFA07A816F079F922201F
:102BB000FEF72EFC07EE909A0020B8EEE70AFEF72B
:102BC000DFFB5C4907A816F0ABF9002107A8FEF768
:102BD000C9FA07A816F064F9594907A816F0A0F930
:102BE000002107A8FEF7BEFA07A816F059F922201F
:102BF000FEF70EFCDDED017A0020B8EEE70A88E46E
:102C00004E4907A816F08CF9002107A8FEF7AAFA8A
:102C100007A816F045F92220FEF7FAFBDDED157A3C
:102C20000020B8EEE70AFEF7ABFB424907A816F012
:102C300077F9002107A8FEF795FA07A816F030F9F2
:102C40003F4907A816F06CF9002107A8FEF78AFA99
:102C500007A816F025F92220FEF7DAFB0020DDEDAB
:102C60001D7A27E5354907A816F05AF9002107A86B
:102C7000FEF778FA07A816F013F92220FEF7C8FB32
:102C8000304B93ED020A0020B8EEC00AFEF778FB45
:102C9000284907A816F044F9002107A8FEF762FAB0
:102CA00007A816F0FDF8264907A816F039F9002103
:102CB00007A8FEF757FA07A816F0F2F82220FEF749
:102CC000A7FB0020DDED1E7AF4E41C4907A816F0EE
:102CD00027F9002107A8FEF745FA07A816F0E0F843
:102CE0002220FEF795FBDDED157A0020B8EEE70A0D
:102CF000FEF746FB0F4907A816F012F9002107A8B6
:102D0000FEF730FA07A816F0CBF80D4907A816F021
:102D100007F9002107A8FEF725FA07A816F0C0F862
:102D20002220FEF775FB0020DDED167AFFF7EFBBE2
:102D300018F1010048F001002CF1010040F1010000
:102D400054F101009414FF1FC84907A816F0E8F8D1
:102D5000002107A8FEF706FA07A816F0A1F822201E
:102D6000FEF756FBDDED187A0020B8EEE70AFEF715
:102D700007FBBF4907A816F0D3F8002107A8FEF704
:102D8000F1F907A816F08CF8BA4907A816F0C8F8A8
:102D9000002107A8FEF7E6F907A816F081F822201F
:102DA000FEF736FB0020DDED197AFFF7B0BBAF4927
:102DB00007A816F0B5F8002107A8FEF7D3F907A871
:102DC00016F06EF82220FEF723FBDDED167AB8EE42
:102DD000670A0020FEF7D4FAA54907A816F0A0F864
:102DE000002107A8FEF7BEF907A816F059F8A14977
:102DF00007A816F095F8002107A8FEF7B3F907A871
:102E000016F04EF82220FEF703FB0020DDED1A7AC3
:102E100050E4964907A816F083F8002107A8FEF7AA
:102E2000A1F907A816F03CF82220FEF7F1FADDED33
:102E3000197A0020B8EEE70ACCE78F4907A816F008
:102E40006FF8002107A8FEF78DF907A816F028F8FB
:102E50002220FEF7DDFADDED207A0020B8EEE70A49
:102E6000FEF78EFA824907A816F05AF8002107A843
:102E7000FEF778F907A816F013F8804907A816F0AE
:102E80004FF8002107A8FEF76DF907A816F008F81B
:102E90002220FEF7BDFADDED287A0020B8EE670AA1
:102EA000FEF76EFA724907A816F03AF8002107A853
:102EB000FEF758F907A815F0F3FF6C4907A816F0BC
:102EC0002FF8002107A8FEF74DF907A815F0E8FF35
:102ED0002220FEF79DFADDED217A0020B8EEE70A08
:102EE000FEF74EFA624907A816F01AF8002107A863
:102EF000FEF738F907A815F0D3FF5E4907A816F0CA
:102F00000FF8002107A8FEF72DF907A815F0C8FF54
:102F10002220FEF77DFA0020DDED297AFFF7F7BACF
:102F2000554907A815F0FCFF002107A8FEF71AF97C
:102F300007A815F0B5FF2220FEF76AFADDED207A2A
:102F40000020B8EEE70AFEF71BFA494907A815F07A
:102F5000E7FF002107A8FEF705F907A815F0A0FF75
:102F6000464907A815F0DCFF002107A8FEF7FAF88C
:102F700007A815F095FF2220FEF74AFADDED287A22
:102F80000020B8EE670AFEF7FBF9394907A815F0EB
:102F9000C7FF002107A8FEF7E5F807A815F080FF96
:102FA000324907A815F0BCFF002107A8FEF7DAF8A0
:102FB00007A815F075FF2220FEF72AFADDED227A28
:102FC0000020B8EEE70AFEF7DBF9294907A815F05B
:102FD000A7FF002107A8FEF7C5F807A815F060FFB6
:102FE000244907A815F09CFF002107A8FEF7BAF8AE
:102FF00007A815F055FF2220FEF70AFA0020DDEDA4
:103000002A7AFFF784BA194907A815F089FF002129
:1030100007A8FEF7A7F807A815F042FF2220FEF741
:10302000F7F9DDED177A0020B8EEE70AFEF7A8F908
:103030000F4907A815F074FF002107A8FEF792F8C2
:1030400007A815F02DFF0B4907A815F069FF00210F
:1030500007A8FEF787F807A815F022FF2220FEF741
:10306000D7F90020DDED187AFFF724BB40F101000D
:1030700048F0010054F1010018F101002CF10100A9
:10308000674907A815F04CFF002107A8FEF76AF86A
:1030900007A815F005FF2220FEF7BAF9DDED157A35
:1030A0000020B8EEE70AFEF76BF95E4907A815F0B5
:1030B00037FF002107A8FEF755F807A815F0F0FE26
:1030C000594907A815F02CFF002107A8FEF74AF878
:1030D00007A815F0E5FE2220FEF79AF90020DDEDA5
:1030E000197AFFF7E7BA1821504815F0BBF8504B92
:1030F0005048196815F096FD4E4815F043FD19210A
:103100004D4815F0AFF814994A4815F08BFD494821
:1031100015F038FD1821494815F0A4F8079C4548DA
:10312000214615F07FFD434815F02CFD3C4903A8CE
:1031300015F0F6FE002103A8FEF714F803A815F019
:10314000AFFE2220FEF764F9DDED0B7A0020B8EE29
:10315000E70AFEF715F9334903A815F0E1FE00214F
:1031600003A8FDF7FFFF03A815F09AFE642012F0F4
:10317000C5FD2D4903A815F0D3FE002103A8FDF7D6
:10318000F1FF03A815F08CFE2220FEF741F907EEAF
:10319000904AB8EEE70A0020FEF7F2F8214903A8AA
:1031A00015F0BEFE03A80021FDF7DCFF03A815F013
:1031B00077FEFFF7F5BA1A4903A815F0B1FE002112
:1031C00003A8FDF7CFFF03A815F06AFE2220FEF743
:1031D0001FF9DDED0A7A0020B8EEE70AFEF7D0F815
:1031E000104903A815F09CFE002103A8FDF7BAFFC3
:1031F00003A815F055FE0C4903A815F091FE002117
:1032000003A8FDF7AFFF03A815F04AFE2220FEF742
:10321000FFF8DDED127A0020B8EEE70ABCE700BF48
:1032200040F1010048F0010054F1010068F1010093
:10323000DC16FF1FD807FF1F84F10100A0F1010079
:1032400070B5E84BA2B01D6804AC2D1B22AE281946
:1032500012F0A6FB04F8010BB442F8D16846E2492B
:10326000E24DE34C15F05CFE00216846FDF77AFF65
:10327000684615F015FE2220FEF7CAF8DDED047A47
:103280000020B8EE670AFEF77BF86846D94915F0CA
:1032900047FE68460021FDF765FF684615F000FE11
:1032A0006846D54915F03CFE00216846FDF75AFFF7
:1032B000684615F0F5FD2220FEF7AAF8DDED057A47
:1032C0000020B8EE670AFEF75BF86846C94915F0BA
:1032D00027FE68460021FDF745FF684615F0E0FD32
:1032E0006846C64915F01CFE00216846FDF73AFF06
:1032F000684615F0D5FD2220FEF78AF89DED060AF6
:103300000420FEF73DF86846BA4915F009FE684604
:103310000021FDF727FF684615F0C2FD6846B84951
:1033200015F0FEFD00216846FDF71CFF684615F00C
:10333000B7FD2220FEF76CF89DF88410684600293E
:1033400014BF2946214615F0EBFD68460021FDF724
:1033500009FF684615F0A4FD6846A64915F0E0FD92
:1033600068460021FDF7FEFE684615F099FD6846A7
:10337000A44915F0D5FD00216846FDF7F3FE684627
:1033800015F08EFD2220FEF743F8DDED077A0020D0
:10339000B8EE670AFDF7F4FF6846964915F0C0FDE0
:1033A00068460021FDF7DEFE684615F079FD6846A7
:1033B000954915F0B5FD00216846FDF7D3FE684636
:1033C00015F06EFD2220FEF723F8DDED087A0020CF
:1033D000B8EE670AFDF7D4FF6846864915F0A0FDF0
:1033E00068460021FDF7BEFE684615F059FD6846A7
:1033F000864915F095FD00216846FDF7B3FE684645
:1034000015F04EFD2220FEF703F89DED090A042079
:10341000FDF7B6FF6846774915F082FD6846002142
:10342000FDF7A0FE684615F03BFD6846784915F0AB
:1034300077FD00216846FDF795FE684615F030FDE2
:103440002220FDF7E5FF9DF885106846002914BF8E
:103450002946214615F064FD68460021FDF782FEED
:10346000684615F01DFD6846624915F059FD68462D
:103470000021FDF777FE684615F012FD68466549A4
:1034800015F04EFD00216846FDF76CFE684615F00C
:1034900007FD2220FDF7BCFFDDED0C7A0020B8EE21
:1034A000670AFDF76DFF6846524915F039FD684619
:1034B0000021FDF757FE684615F0F2FC68465649B4
:1034C00015F02EFD00216846FDF74CFE684615F00C
:1034D000E7FC2220FDF79CFFDDED0D7A0020B8EE21
:1034E000670AFDF74DFF6846424915F019FD684629
:1034F0000021FDF737FE684615F0D2FC68464749C3
:1035000015F00EFD00216846FDF72CFE684615F00B
:10351000C7FC2220FDF77CFF9DED0E0A0420FDF77D
:103520002FFF6846334915F0FBFC68460021FDF784
:1035300019FE684615F0B4FC6846394915F0F0FCF0
:1035400000216846FDF70EFE684615F0A9FC222012
:10355000FDF75EFF9DF886106846002914BF2946D6
:10356000214615F0DDFC68460021FDF7FBFD6846AD
:1035700015F096FC68461F4915F0D2FC68460021FC
:10358000FDF7F0FD684615F08BFC6846254915F0FF
:10359000C7FC00216846FDF7E5FD684615F080FC94
:1035A0002220FDF735FFDDED127A0020B8EE670A24
:1035B000FDF7E6FE68460F4915F0B2FC68460021AB
:1035C000FDF7D0FD684615F06BFC6846164915F00E
:1035D000A7FC00216846FDF7C5FD684615F060FCB4
:1035E000222023E08813FF1F0CF2010000F20100EB
:1035F00004F2010048F0010024F201003CF2010055
:1036000054F201006CF201007CF201008CF2010026
:103610009CF20100ACF20100BCF20100CCF201000E
:10362000DCF20100ECF20100FCF20100FDF7F0FE1B
:10363000DDED137A0020B8EE670AFDF7A1FE6846BB
:103640004E4915F06DFC68460021FDF78BFD68467C
:1036500015F026FC68464A4915F062FC00216846D0
:10366000FDF780FD684615F01BFC2220FDF7D0FE1B
:103670009DED140A0420FDF783FE68463F4915F0CE
:103680004FFC68460021FDF76DFD684615F008FC0B
:1036900068463C4915F044FC00216846FDF762FD90
:1036A000684615F0FDFB2220FDF7B2FE9DF887105D
:1036B0006846002914BF2946214615F031FC6846AA
:1036C0000021FDF74FFD684615F0EAFB68462B49DF
:1036D00015F026FC68460021FDF744FD684615F00C
:1036E000DFFB6846284915F01BFC00216846FDF702
:1036F00039FD684615F0D4FB2220FDF789FE9DEDCB
:10370000150A0420FDF73CFE68461C4915F008FC2C
:1037100068460021FDF726FD684615F0C1FB6846A6
:103720001A4915F0FDFB68460021FDF71BFD6846B0
:1037300015F0B6FB6846164915F0F2FB6846002105
:10374000FDF710FD684615F0ABFB6846114915F012
:10375000E7FB68460021FDF705FD684615F0A0FB74
:1037600068460B4915F0DCFB68460021FDF7FAFCC2
:10377000684615F095FB22B070BD00BF48F001000F
:103780000CF301001CF301002CF301003CF30100D9
:10379000E0EE010054F3010070B57E4BA2B01D684D
:1037A00004AC2D1B22AE281912F0FAF804F8010B14
:1037B000B442F8D168467849784C15F0B1FB002145
:1037C0006846FDF7CFFC684615F06AFB2220FDF73E
:1037D0001FFED4ED067A0020B8EE670AFDF7D0FD93
:1037E00068466F4915F09CFB68460021FDF7BAFC5E
:1037F000684615F055FB68466A4915F091FB0021B3
:103800006846FDF7AFFC684615F04AFB2220FDF73D
:10381000FFFDD4ED077A0020B8EE670AFDF7B0FD92
:1038200068465F4915F07CFB68460021FDF79AFC6D
:10383000684615F035FB68465B4915F071FB0021C1
:103840006846FDF78FFC684615F02AFB2220FDF73D
:10385000DFFDD4ED0B7A0020B8EE670AFDF790FD8E
:1038600068464F4915F05CFB68460021FDF77AFC7D
:10387000684615F015FB68464C4915F051FB0021D0
:103880006846FDF76FFC684615F00AFB2220FDF73D
:10389000BFFDD4ED0C7A0020B8EE670AFDF770FD8D
:1038A00068463F4915F03CFB68460021FDF75AFC8D
:1038B000684615F0F5FA68463D4915F031FB0021E0
:1038C0006846FDF74FFC684615F0EAFA2220FDF73E
:1038D0009FFDD4ED137A0020B8EE670AFDF750FD86
:1038E00068462F4915F01CFB68460021FDF73AFC9D
:1038F000684615F0D5FA68462E4915F011FB0021EF
:103900006846FDF72FFC684615F0CAFA2220FDF73D
:103910007FFD94ED140A0020B8EE400AFDF730FD5B
:1039200068461F4915F0FCFA68460021FDF71AFCAD
:10393000684615F0B5FA68461F4915F0F1FA684671
:103940000021FDF70FFC684615F0AAFA68461B49EE
:1039500015F0E6FA68460021FDF704FC684615F00C
:103960009FFA6846164915F0DBFA68460021FDF714
:10397000F9FB684615F094FA6846104915F0D0FA3C
:1039800068460021FDF7EEFB684615F089FA22B083
:1039900070BD00BF8813FF1F68F30100F815FF1FFB
:1039A00048F001007CF3010090F30100A4F3010052
:1039B000B8F30100CCF30100E0F30100E0EE0100F8
:1039C000FCF3010070B59D4BA2B01D6804AC2D1B2B
:1039D00022AE281911F0E4FF04F8010BB442F8D12B
:1039E0006846974915F09CFA00216846FDF7BAFB36
:1039F000684615F055FA2220FDF70AFDDDED197A2B
:103A00000020B8EEE70AFDF7BBFC68468D4915F0CB
:103A100087FA68460021FDF7A5FB684615F040FAD5
:103A20006846894915F07CFA00216846FDF79AFB43
:103A3000684615F035FA2220FDF7EAFCDDED1A7A2A
:103A40000020B8EE670AFDF79BFC68467D4915F03B
:103A500067FA68460021FDF785FB684615F020FAF5
:103A600068467A4915F05CFA00216846FDF77AFB52
:103A7000684615F015FA2220FDF7CAFCDDED1B7A29
:103A80000020B8EEE70AFDF77BFC68466D4915F0AB
:103A900047FA68460021FDF765FB684615F000FA15
:103AA00068466B4915F03CFA00216846FDF75AFB61
:103AB000684615F0F5F92220FDF7AAFCDDED1C7A29
:103AC0000020B8EE670AFDF75BFC68465D4915F01B
:103AD00027FA68460021FDF745FB684615F0E0F936
:103AE00068465C4915F01CFA00216846FDF73AFB70
:103AF000684615F0D5F92220FDF78AFCDDED1D7A28
:103B00000020B8EEE70AFDF73BFC68464D4915F08A
:103B100007FA68460021FDF725FB684615F0C0F955
:103B200068464D4915F0FCF900216846FDF71AFB7F
:103B3000684615F0B5F92220FDF76AFCDDED1E7A26
:103B40000020B8EE670AFDF71BFC68463D4915F0FA
:103B5000E7F968460021FDF705FB684615F0A0F976
:103B600068463E4915F0DCF900216846FDF7FAFA8F
:103B7000684615F095F92220FDF74AFCDDED1F7A25
:103B80000020B8EEE70AFDF7FBFB68462D4915F06B
:103B9000C7F968460021FDF7E5FA684615F080F997
:103BA00068462F4915F0BCF900216846FDF7DAFA9E
:103BB000684615F075F92220FDF72AFCDDED207A24
:103BC0000020B8EE670AFDF7DBFB68461D4915F0DB
:103BD000A7F968460021FDF7C5FA684615F060F9B7
:103BE0006846204915F09CF968460021FDF7BAFAAD
:103BF000684615F055F968461B4915F091F9684675
:103C00000021FDF7AFFA684615F04AF968461749F2
:103C100015F086F968460021FDF7A4FA684615F00C
:103C20003FF96846104915F07BF968460021FDF719
:103C300099FA684615F034F922B070BD8813FF1F59
:103C400014F4010048F0010028F401003CF40100E4
:103C500050F4010064F4010078F401008CF40100D8
:103C6000A0F40100B8F40100E0EE0100D4F401007A
:103C70002DE9F043B34DB44CD5F800E02468BEF113
:103C8000010F2DED028B1F4604BFB04B1C68ADB079
:103C900006460D46904608A800230122214611F051
:103CA00091FB0FA80FF06CF9002840F0FF8018A8D6
:103CB0009DF83A30A64908AA0FF016FA1A9A9DF80C
:103CC0006C309DF8641011928DF848308DF84010DA
:103CD0001BAA0DF149030DF1560012F8011F03F85C
:103CE000011B8342F9D11F9B169318A80FF01AF9F4
:103CF0000FA80FF045F98146002836D1012309218C
:103D000094488DF83B3014F0ADFA204618F058FC7A
:103D10000146204614F0A6FA0F218F489FED8F8AA6
:103D200014F0A0FA8E4814F02DFF8E4918A815F053
:103D3000F7F8494618A8FDF715FA18A815F0B0F8D5
:103D4000894918A815F0ECF818A84946FDF70AFAB1
:103D500018A815F0A5F808A811F052FBB0EE480A13
:103D60002DB0BDEC028BBDE8F0830024502218A9D1
:103D700008A88DF83B4011F0A1FB002800F08480DA
:103D8000502300932A4618AB314608A811F006FDCF
:103D9000002800F08F8018A818F012FC014618A81F
:103DA00014F060FA6E4814F0EDFE704904A815F0A6
:103DB000B7F804A82146FDF7D5F904A815F070F866
:103DC000002F00F0AB802220FDF722FB18A904A8E9
:103DD00015F0A6F8214604A8FDF7C4F904A815F0CB
:103DE0005FF82220FDF714FB614904A815F098F84C
:103DF000002104A8FDF7B6F904A815F051F807EE64
:103E0000908A0020B8EEE70AFDF7BAFA564904A8EE
:103E100015F086F8002104A8FDF7A4F904A815F010
:103E20003FF8304618F0CCFB0146304614F01AFA41
:103E30004B4814F0A7FE284618F0C2FB014628465E
:103E400014F010FA464814F09DFE0521474814F07E
:103E500009FA002F6ED0222014F088FA18A818F062
:103E6000AFFB014618A814F0FDF9222014F07EFAE9
:103E700001213F4814F0F6F94146394814F0D2FECA
:103E8000374814F07FFE35E009213A489FED338A28
:103E900014F0E8F908A818F093FB014608A814F0FC
:103EA000E1F90C21344814F0DDF954E70FA80FF0C4
:103EB00059F8FCE61021314814F0D4F9284814F0E0
:103EC00061FE04212E4814F0CDF9304618F078FB3D
:103ED0000146304614F0C6F903212A4814F0C2F90D
:103EE000284618F06DFB0146284614F0BBF91C4823
:103EF00014F048FE244A136804930499136803934A
:103F0000039B5B1A632BF9D918A817F0C5FA51EC7B
:103F1000100B17F06BFA08EE100A1CE718A904A89A
:103F200014F0FEFF04A83946FDF71CF904A814F0AC
:103F3000B7FF59E718A818F043FB014618A814F07A
:103F400091F995E77016FF1F2007FF1F3407FF1F29
:103F50001417FF1FECF40100F8F40100000000004A
:103F6000D807FF1F08F50100E0EE010030F5010061
:103F700038F5010014F5010020F50100F00A0200F7
:103F80003CF5010044F50100C419FF1F38B5854D0B
:103F90008549864C284600234FF43C72FFF768FEA3
:103FA000BDEEC00A28460023C822814984ED000ADC
:103FB000FFF75EFEBDEEC00A284600234FF44972AB
:103FC0007C4984ED010AFFF753FEBDEEC00A284686
:103FD00000234FF44A72784984ED0C0AFFF748FE3B
:103FE000BDEEC00A284600233C22744984ED140A21
:103FF000FFF73EFEBDEEC00A284600234FF458727C
:104000006F4984ED100AFFF733FEBDEEC00A284663
:1040100000234FF457726B4984ED0D0AFFF728FE19
:10402000BDEEC00A284600234022674984ED150AE8
:10403000FFF71EFEBDEEC00A284600234FF455725E
:10404000624984ED110AFFF713FEBDEEC00A28464F
:1040500000234FF456725E4984ED0E0AFFF708FE06
:10406000BDEEC00A2846002344225A4984ED160AB0
:10407000FFF7FEFDBDEEC00A284600234FF44C7248
:10408000554984ED120AFFF7F3FDBDEEC00A28463C
:1040900000234FF44B72514984ED0F0AFFF7E8FDFE
:1040A000BDEEC00A284600231C224D4984ED170AA4
:1040B000FFF7DEFDBDEEC00A284600234FF4D8729C
:1040C000484984ED130AFFF7D3FDBDEEC00A284628
:1040D00000234FF42E72444984ED050AFFF7C8FD12
:1040E000BDEEC00A284601234FF429723F4984EDF2
:1040F000020AFFF7BDFDBDEEC00A2846B8EEC00AB1
:1041000000234FF4F8723A4984ED030AFFF7B0FD3B
:10411000BDEEC00A284601234FF41B72354984EDD9
:10412000040AFFF7A5FDBDEEC00A2846B8EEC00A96
:1041300000234FF4DA72304984ED060AFFF798FD48
:10414000BDEEC00A284601234FF41F722B4984EDAF
:104150000A0AFFF78DFDBDEEC00A2846B8EEC00A78
:1041600000234FF43D72264984ED080AFFF780FDD5
:10417000BDEEC00A284601234FF49672214984ED12
:10418000070AFFF775FDBDEEC00A1F4BB8EEC00A67
:104190002046196884ED0B0A6022BDE8384011F012
:1041A00041BC00BF50F5010048F50100A013FF1FFE
:1041B00054F5010064F5010078F5010088F501006F
:1041C000A0F50100ACF50100B4F50100C8F501004F
:1041D000D4F50100DCF50100F0F50100FCF501006B
:1041E00004F6010018F6010030F601003CF601006B
:1041F00054F601006CF6010084F6010098F6010007
:10420000ACF60100C0F601001407FF1F38B54A4D97
:104210004A494B4C284600234FF4EC72FFF728FD27
:10422000BDEEC00A284600234FF46172454984ED73
:104230000C0AFFF71DFDBDEEC00A284600234FF40F
:104240006B72414984ED010AFFF712FDBDEEC00A11
:104250002846002314223D4984ED090AFFF708FD92
:10426000BDEEC00A284600234FF45372384984ED4E
:10427000050AFFF7FDFCBDEEC00A284600234FF4F7
:104280005472344984ED020AFFF7F2FCBDEEC00A15
:10429000284600233822304984ED0A0AFFF7E8FC5B
:1042A000BDEEC00A284600234FF476722B4984EDF8
:1042B000060AFFF7DDFCBDEEC00A284600234FF4D6
:1042C0005172274984ED030AFFF7D2FCBDEEC00A04
:1042D000284600235422234984ED0B0AFFF7C8FC2B
:1042E000BDEEC00A284600234FF452721E4984EDE9
:1042F000070AFFF7BDFCBDEEC00A284600234FF4B5
:1043000046721A4984ED040AFFF7B2FCBDEEC00AFA
:10431000284600236C22164984ED000AFFF7A8FC0A
:10432000144BBDEEC00A2046196884ED080A3422F9
:10433000BDE8384011F076BBD4F6010048F5010025
:104340005013FF1F64F5010078F5010088F50100A6
:10435000A0F50100ACF50100B4F50100C8F50100BD
:10436000D4F50100DCF50100F0F50100FCF50100D9
:1043700004F601003C07FF1F38B54A4D4A494B4C33
:10438000284600234FF40E72FFF772FCBDEEC00A00
:10439000284600234FF45A72454984ED0C0AFFF772
:1043A00067FCBDEEC00A284600234FF46472414901
:1043B00084ED010AFFF75CFC0023BDEEC00A28462D
:1043C0001A463D4984ED090AFFF752FCBDEEC00ACA
:1043D000284600234FF46E72384984ED050AFFF732
:1043E00047FCBDEEC00A284600234FF473723449DF
:1043F00084ED020AFFF73CFCBDEEC00A284600230C
:104400001022304984ED0A0AFFF732FCBDEEC00AE3
:10441000284600234FF478722B4984ED060AFFF7F3
:1044200027FCBDEEC00A284600234FF47B722749C3
:1044300084ED030AFFF71CFCBDEEC00A28460023EA
:104440000822234984ED0B0AFFF712FCBDEEC00AD7
:10445000284600234FF47E721E4984ED070AFFF7B9
:1044600007FCBDEEC00A284600234FF47F721A49AC
:1044700084ED040AFFF7FCFBBDEEC00A28460023CA
:104480000C22164984ED000AFFF7F2FB144BBDEE37
:10449000C00A2046196884ED080A3422BDE8384075
:1044A00011F0C0BAD8F6010048F50100DC16FF1F74
:1044B00064F5010078F5010088F50100A0F5010020
:1044C000ACF50100B4F50100C8F50100D4F5010018
:1044D000DCF50100F0F50100FCF5010004F6010037
:1044E0004C07FF1F38B5594D59495A4C28460023EF
:1044F0004FF41872FFF7BCFBBDEEC00A284600233C
:104500004FF4D272544984ED000AFFF7B1FBBDEEBF
:10451000C00A284601234FF41972504984ED0D0A50
:10452000FFF7A6FB284601234FF41D724C4984ED8A
:104530000F0AFFF79DFB284600234FF45D7249499F
:1045400084ED0E0AFFF794FBBDEEC00A2846002357
:104550004FF46772444984ED010AFFF789FBBDEE11
:10456000C00A284600234C22404984ED020AFFF786
:104570007FFBBDEEC00A284600234FF46F723C4912
:1045800084ED090AFFF774FBBDEEC00A284600233C
:104590004FF47472374984ED030AFFF769FBBDEEEF
:1045A000C00A284600234822334984ED040AFFF755
:1045B0005FFBBDEEC00A284600234FF479722F49F5
:1045C00084ED0A0AFFF754FBBDEEC00A284600231B
:1045D0004FF47C722A4984ED050AFFF749FBBDEED2
:1045E000C00A284600231822264984ED060AFFF750
:1045F0003FFBBDEEC00A284600234FF468722249F3
:1046000084ED0B0AFFF734FBBDEEC00A28460023F9
:104610004FF463721D4984ED070AFFF729FBBDEED5
:10462000C00A284600235022194984ED080AFFF7E2
:104630001FFB184BBDEEC00A2046196884ED0C0A1A
:104640004022BDE8384011F0EDB900BFE0F60100AE
:1046500048F501001013FF1FE8F60100F4F6010011
:104660004CF7010064F5010078F5010088F50100C0
:10467000A0F50100ACF50100B4F50100C8F501009A
:10468000D4F50100DCF50100F0F50100FCF50100B6
:1046900004F601000407FF1F38B56C4D6C496D4CE2
:1046A000284600234FF4E872FFF7E2FABDEEC00A95
:1046B000284600234FF40C72674984ED120AFFF775
:1046C000D7FABDEEC00A284600234FF46072634952
:1046D00084ED130AFFF7CCFABDEEC00A284600238A
:1046E0004FF46A725E4984ED000AFFF7C1FABDEE2D
:1046F000C00A2846002304225A4984ED080AFFF71D
:10470000B7FABDEEC00A284600234FF4717256492D
:1047100084ED040AFFF7ACFABDEEC00A2846002378
:104720004FF46972514984ED010AFFF7A1FABDEE19
:10473000C00A2846002358224D4984ED090AFFF794
:1047400097FABDEEC00A284600234FF4707249491B
:1047500084ED050AFFF78CFABDEEC00A2846002357
:104760004FF47572444984ED020AFFF781FABDEEF9
:10477000C00A284600236022404984ED0A0AFFF758
:1047800077FABDEEC00A284600234FF447723C4931
:1047900084ED060AFFF76CFABDEEC00A2846002336
:1047A0004FF44872374984ED030AFFF761FABDEE12
:1047B000C00A284600233022334984ED0B0AFFF754
:1047C00057FABDEEC00A284600234FF40B722F495A
:1047D00084ED070AFFF74CFABDEEC00A2846012314
:1047E0004FF49A722A4984ED0D0AFFF741FA2846E0
:1047F0000123E822274984ED100AFFF739FA2846F9
:1048000000234FF43972244984ED100AFFF730FA7F
:10481000BDEEC00A284601234FF43A721F4984EDC9
:104820000C0AFFF725FA284601234FF4A2721C490F
:1048300084ED0F0AFFF71CFA1A4B84ED0E0A20468E
:1048400019685022BDE8384011F0ECB800F70100BB
:1048500048F501009414FF1F04F7010064F50100FE
:1048600078F5010088F50100A0F50100ACF5010024
:10487000B4F50100C8F50100D4F50100DCF5010034
:10488000F0F50100FCF5010004F6010014F7010049
:1048900024F7010040F7010058F7010064F7010018
:1048A0007CF701000007FF1F38B5804D8049814C1F
:1048B00028460023A422FFF7DBF9BDEEC00A2846F4
:1048C0000023D0227C4984ED0E0AFFF7D1F9BDEE1A
:1048D000C00A28460023F022784984ED0C0AFFF72D
:1048E000C7F9BDEEC00A284600234FF4E2727449AE
:1048F00084ED0F0AFFF7BCF9BDEEC00A284600237D
:104900004FF44F726F4984ED0D0AFFF7B1F9BDEE18
:10491000C00A284600234FF450726B4984ED000A08
:10492000FFF7A6F9BDEEC00A2846002364226749B6
:1049300084ED040AFFF79CF9BDEEC00A2846002367
:104940004FF45C72624984ED080AFFF791F9BDEEFD
:10495000C00A284600234FF46D725E4984ED010AB7
:10496000FFF786F9BDEEC00A2846002334225A49D3
:1049700084ED050AFFF77CF9BDEEC00A2846012345
:104980004FF48A72554984ED090AFFF771F9BDEEBB
:10499000C00A2846B8EEC00A01234FF4927250496B
:1049A00084ED130AFFF764F9BDEEC00A2846B8EE9D
:1049B000C00A00234FF45B724A4984ED100AFFF7E6
:1049C00057F9BDEEC00A284600234FF459724649F4
:1049D00084ED020AFFF74CF9BDEEC00A2846002319
:1049E0002C22424984ED060AFFF742F9BDEEC00AC7
:1049F000284601234FF48E723D4984ED0A0AFFF7E1
:104A000037F9BDEEC00A2846B8EEC00A0123E022FD
:104A1000384984ED140AFFF72BF9BDEEC00A284689
:104A2000B8EEC00A00234FF44E72334984ED110AE8
:104A3000FFF71EF9BDEEC00A284600234FF44D7261
:104A40002E4984ED030AFFF713F9BDEEC00A28468C
:104A5000002320222A4984ED070AFFF709F9BDEE59
:104A6000C00A284601234FF40272264984ED0B0A3E
:104A7000FFF7FEF8BDEEC00A2846B8EEC00A0123D3
:104A80004FF40472204984ED150AFFF7F1F8BDEEEA
:104A9000C00A1E4BB8EEC00A2046196884ED120AFF
:104AA0005822BDE8384010F0BDBF00BF94F70100A8
:104AB00048F50100B812FF1F98F7010004F7010044
:104AC000A0F7010064F5010078F5010088F5010008
:104AD000A0F50100ACF50100B4F50100A8F7010054
:104AE000BCF70100C8F50100D4F50100DCF50100B8
:104AF000D0F70100E4F70100F0F50100FCF501003A
:104B000004F60100F8F701000CF80100FC06FF1F95
:104B10002DE9F843564C5749574DDFF8A091DFF87F
:104B2000A081564F564E204600234FF4B872FFF72F
:104B30009FF8BDEEC00A204600234FF4627251492F
:104B400085ED000AFFF794F8BDEEC00A2046002369
:104B50004FF46C724C4985ED010AFFF789F8BDEE00
:104B6000C00A204600236822484985ED030AFFF762
:104B70007FF8BDEEC00A204649460023C02285EDDD
:104B8000020AFFF775F8BDEEC00A204600234FF475
:104B90000F723F4988ED000AFFF76AF8BDEEC00AC0
:104BA000204601234FF4B0723A4988ED010AFFF71D
:104BB0005FF8BDEEC00A494620460023A02288EDDA
:104BC000020AFFF755F8BDEEC00A204600234FF455
:104BD0003172314987ED000AFFF74AF8BDEEC00A8D
:104BE000204601234FF4B4722C4987ED010AFFF7E8
:104BF0003FF8BDEEC00A204600239822284987EDE1
:104C0000020AFFF735F8BDEEC00A204600234FF434
:104C10001472244986ED000AFFF72AF8BDEEC00A97
:104C2000204601234FF411721F4986ED010AFFF758
:104C30001FF81E4BBDEEC00A2846196886ED020A11
:104C4000102210F0EFFE1A4B404619680C2210F0AB
:104C5000E9FE184B384619680C2210F0E3FE164B9B
:104C6000304619680C22BDE8F84310F0DBBE00BFE7
:104C700028F8010020F80100A415FF1F9815FF1F58
:104C8000E814FF1F64F5010078F5010088F50100C4
:104C900044F8010054F801005CF801006CF80100D0
:104CA00074F801008CF801009CF801004807FF1F10
:104CB0001807FF1F2407FF1F1C07FF1F2CF8010008
:104CC0008C15FF1F38B5474D4749484C28460023EF
:104CD0004FF4E472FEF7CCFFBDEEC00A2846002375
:104CE0004FF47272424984ED000AFEF7C1FFBDEE37
:104CF000C00A284600234FF477723E4984ED010A2A
:104D0000FEF7B6FFBDEEC00A2846002328223A4926
:104D100084ED020AFEF7ACFFBDEEC00A284601236F
:104D2000A822364984ED030AFEF7A2FF2846002395
:104D30004FF47A72324984ED0A0AFEF799FFBDEE0C
:104D4000C00A284600234FF47D722E4984ED040AE0
:104D5000FEF78EFFBDEEC00A2846002324222A4912
:104D600084ED050AFEF784FFBDEEC00A2846012344
:104D70004FF4AA72254984ED060AFEF779FF28460A
:104D800000234FF45E72224984ED0B0AFEF770FF98
:104D9000BDEEC00A284600234FF45F721D4984ED22
:104DA000070AFEF765FFBDEEC00A284600235C2215
:104DB000194984ED080AFEF75BFFBDEEC00A2846DC
:104DC00001234FF42772154984ED090AFEF750FFBD
:104DD000134B84ED0C0A204619683422BDE8384094
:104DE00010F020BEA4F8010048F501000415FF1FD3
:104DF000A0F50100ACF50100B4F50100A8F8010030
:104E0000C8F50100D4F50100DCF50100B4F801009B
:104E1000F0F50100FCF5010004F60100C0F8010006
:104E20002807FF1F38B5D422002373497348744CF8
:104E3000734DFEF71DFFBDEEC00A0023F422714939
:104E40006E4884ED000AFEF713FFBDEEC00A012391
:104E50004FF486726C49694884ED010AFEF708FF39
:104E60000023F8226949654884ED020AFEF700FF35
:104E7000F7EE007AB4EEE70AF1EE10FAACBF0123C8
:104E8000002384F874304FF4EA72002360495B48D1
:104E9000FEF7EEFEBDEEC00A00234FF4E6725D4958
:104EA000564884ED040AFEF7E3FEBDEEC00A012376
:104EB0004FF400725849514884ED030AFEF7D8FEBA
:104EC0000023FC2255494D4884ED050AFEF7D0FE2B
:104ED000F7EE007AB4EEE70AF1EE10FAACBF012368
:104EE000002385F875304FF4F27200234C49434893
:104EF000434DFEF7BDFEBDEEC00A00234FF4F07235
:104F000048493E4884ED090AFEF7B2FEBDEEC00AEC
:104F100001234FF4F4724449384884ED080AFEF73F
:104F2000A7FE00234FF480724049344884ED0A0AFA
:104F3000FEF79EFEF7EE007AB4EEE70AF1EE10FA05
:104F4000ACBF0123002385F876304FF408720023AC
:104F500037492A482A4DFEF78BFEBDEEC00A0023D2
:104F60004FF407723349254884ED0F0AFEF780FE9F
:104F7000BDEEC00A01234FF409722F491F4884ED8A
:104F80000E0AFEF775FE00234FF482722B491B4870
:104F900084ED100AFEF76CFEF7EE007AB4EEE70A35
:104FA000F1EE10FAACBF0123002385F877304FF4FF
:104FB000CC72012322491148FEF75AFE00239422A5
:104FC00020490E4884ED110AFEF752FEBCEEC00ADD
:104FD00001234FF42C721C49084884ED0D0AFEF79A
:104FE00047FE1A4B84ED120A196805487822BDE87D
:104FF000384010F017BD00BFCCF80100E0F8010008
:10500000F815FF1FE8F80100FCF8010010F9010095
:1050100024F9010034F9010044F9010058F90100B4
:1050200064F9010074F9010084F9010098F90100A4
:10503000A4F90100B4F90100C4F90100D0F901009C
:10504000DCF90100F0F9010000FA01008813FF1FEC
:1050500038B5264D2649274C284600234FF4EE72DA
:10506000FEF706FEBDEEC00A284600234FF4C472C8
:10507000214984ED130AFEF7FBFDBDEEC00A284668
:1050800000234FF4D4721D4984ED140AFEF7F0FD9D
:10509000BDEEC00A284600234FF42B72184984ED58
:1050A000060AFEF7E5FDBDEEC00A284600234FF4D0
:1050B0001572144984ED070AFEF7DAFDBDEEC00A49
:1050C000284600234FF410720F4984ED0B0AFEF7B7
:1050D000CFFD0E4BBDEEC00A2046196884ED0C0AC8
:1050E0007822BDE8384010F09DBC00BF10FA0100E6
:1050F00008FA0100F815FF1F18FA010020FA010054
:1051000028FA010030FA010038FA01008813FF1F65
:1051100038B5314D3149324C284600234FF43E72A8
:10512000FEF7A6FDBDEEC00A284600234FF43F72ED
:105130002C4984ED150AFEF79BFDBDEEC00A2846FA
:1051400000234FF44072284984ED160AFEF790FDC3
:10515000BDEEC00A284600234FF44172234984ED76
:10516000170AFEF785FDBDEEC00A284600234FF45E
:1051700044721F4984ED180AFEF77AFDBDEEC00A9D
:10518000284600234FF445721A4984ED190AFEF7A8
:105190006FFDBDEEC00A284600234FF44272164947
:1051A00084ED1A0AFEF764FDBDEEC00A284600230E
:1051B0004FF44372114984ED1B0AFEF759FD104B61
:1051C000BDEEC00A2046196884ED1C0A7822BDE8AD
:1051D000384010F027BC00BF40FA010064F5010020
:1051E000F815FF1F78F5010048FA010058FA010090
:1051F00068FA010078FA010088FA010098FA0100C3
:105200008813FF1F8E4B8F4A1B68116810B5012B46
:1052100008BF8D4B9AB008BF19680AA80023012265
:1052200010F0D0F811A80DF0ABFE002840F004817A
:1052300002A89DF8423085490AAA0DF055FF049A4C
:105240009DF814309DF80C1013928DF850308DF8A5
:10525000481005AA0DF151030DF15E0012F8011F6F
:1052600003F8011B8342F9D1099B189302A80DF0A2
:1052700059FE11A80DF084FE0446002865D10123D3
:10528000182173488DF8433012F0ECFF714813F089
:1052900079FC714902A813F043FE214602A8FBF7EE
:1052A00061FF02A813F0FCFD0C216B4812F0DAFF3D
:1052B000684813F067FC694902A813F031FE2146E3
:1052C00002A8FBF74FFF02A813F0EAFD644902A809
:1052D00013F026FE214602A8FBF744FF02A813F0B4
:1052E000DFFD09215E4812F0BDFF5A4813F04AFC69
:1052F0005A4902A813F014FE214602A8FBF732FF18
:1053000002A813F0CDFD0821564812F0ABFF51481A
:1053100013F038FC534902A813F002FE214602A8FC
:10532000FBF720FF02A813F0BBFD4C4902A813F0C5
:10533000F7FD214602A8FBF715FF02A813F0B0FD08
:105340000AA810F05DF81AB010BD002314214648D9
:105350008DF8433012F086FF3E4813F013FC11A87D
:105360000DF00EFE002863D1FFF75CFDFFF7D0FEC5
:10537000FFF76EFEFFF700F8FEF748FFFFF7C8FBE8
:10538000FFF7A0FCFFF7AEF8FFF786F9FEF7FEFD8A
:10539000FFF78AFA0C21354812F064FF2D4813F00C
:1053A000F1FB2D4902A813F0BBFD002102A8FBF779
:1053B000D9FE02A813F074FD284902A813F0B0FD2D
:1053C000002102A8FBF7CEFE02A813F069FD284ACF
:1053D00013680193019913680093009B5B1A0E2BCD
:1053E000F9D91F4902A813F09BFD002102A8FBF781
:1053F000B9FE02A813F054FD184902A813F090FD5D
:10540000002102A8FBF7AEFE02A813F049FD1949DE
:1054100002A813F085FD002102A8FBF7A3FE02A855
:1054200013F03EFD0D4902A813F07AFD002181E73B
:1054300011A80DF097FD97E711A80DF093FDF7E681
:105440007016FF1F2007FF1F3407FF1F1417FF1FD1
:10545000C0FA0100D807FF1FDCFA0100E0EE0100EE
:105460003406020008F50100A8FA0100ECFA010078
:10547000C419FF1FFCFA0100436D10B55B680446B8
:1054800072B6DFED116AD0ED1E7A90ED1D7A67EEEF
:10549000A67AF4EEC77AC0ED1C7AD0ED207AF1EE50
:1054A00010FAD8BFF1EE677AC0ED217A62B6836850
:1054B0009B689A0706D5012010F020FCA3689B6822
:1054C0009B07F8D410BD00BF00000000416D036FC2
:1054D000826F10B44C681B1B002BB8BF5B42934219
:1054E00011D3C46FA34209D3426FD21A4B68086824
:1054F0005DF8044B00FB0232CA607047134400247D
:105500004367C467F2E700225C00C26782674467B2
:105510001A46EBE710B50446FFF7D8FFA3689B686F
:105520009A0706D5012010F0E9FBA3689B689B074A
:10553000F8D410BDF0B5044683B000258023261DA5
:10554000264F274823742760606064613046A56059
:10555000E5600F4601920FF0E7FE206230460FF043
:10556000E3FE012360626366A56584F85C502566EE
:105570000FF0AEFE04F1080061690FF06FFE07EE58
:10558000907A019A9FED177ADFED175A9FED176A0F
:1055900084F85C00F8EE676A07EE902AF8EE677A06
:1055A00066EE876A67EE877A66EEA56A27EEA57AC9
:1055B000F6EE007AF0EE675AE6EE865A2046A266CC
:1055C000E7EE067AE766FDEEE56AFDEEE77AC4ED02
:1055D000066AC4ED077A03B0F0BD00BF8CEB010092
:1055E00080EB0100BD378635C0E1644C0000003D12
:1055F00038B590F85C300D4A0260044623B18268E9
:10560000936823F002039360094B636004F10C0577
:10561000284613F025FA206A0FF09AFE606A0FF010
:1056200097FE284613F01CFA204638BD8CEB01008B
:1056300080EB010010B5034B03600446FFF7D8FF71
:10564000204610BDC4EB010010B5054B03600446B5
:10565000FFF7CEFF20468C2113F056FA204610BDEE
:10566000C4EB010010B5034B03600446FFF7C0FF15
:10567000204610BDA8EB010010B5054B03600446A1
:10568000FFF7B6FF2046882113F03EFA204610BDF2
:10569000A8EB010010B50446FFF7AAFF20467021D1
:1056A00013F032FA204610BD884231D02DE9F04780
:1056B00000F10408414516468A46814617D0D9F8BC
:1056C0000010D8F80000B04798B9D8F80050444608
:1056D00001E0236863602746284654F8041DB0475C
:1056E0000028F6D13D6008F10408C245E7D1BDE8C5
:1056F000F087C9EB08029308D8F8004005D0C2F142
:1057000004004044494616F02FFAC9F80040EAE781
:10571000704700BF2DE9F8430B1A432B1CDD00F145
:105720004008894641461746FFF7BEFFC14515D0E0
:10573000D8F80050444601E02368636026462846B6
:1057400054F8041DB8470028F6D108F10408C145F3
:105750003560EDD1BDE8F883FFF7A6FFBDE8F8831B
:105760002DE9F04F561E06EBD67683B07610B14287
:1057700001928846054699460C9F5CDA8A4600E00D
:10578000DA460AF101034FEA430B0BF1804101397C
:1057900055F8330055F8211005EBC304B84718B18C
:1057A0000BF1FF3B05EB8B04236845F82A30B3452A
:1057B000E6DB019BDA0707D4019BA3F1020A0AEB9F
:1057C000DA7ABBEB6A0F06D0C34514DCC4F800904C
:1057D00003B0BDE8F08F0BF1010B4FEA4B0B0BF15F
:1057E0008043013B0BF1FF3B55F823302360C34559
:1057F00005EB8B04EADD0BF1FF3606EBD67676106F
:10580000494655F82600B847731E03EBD37305EBE2
:1058100086045B1030B905EB8B04C4F8009003B02C
:10582000BDE8F08F55F8262045F82B20B045CDDA9D
:10583000B3461E46E4E7019BDB0700EB8104C5D4B9
:105840008B46B9E72DE9F04F0C1A432C85B040F395
:1058500089800546894692461E46002A61D0031D6E
:105860000393E410686855F82410B0470AF1FF3A32
:1058700059F8041C002834D055F82400B0470028FB
:1058800037D02B6855F824202A6045F82430686802
:105890002968039FCB46B846B04780B9ABF10404F2
:1058A00021682868A346043CB0470028F8D15F452A
:1058B00009D23A68DBF800103960CBF8002057F8BD
:1058C000040F2968E7E749463346524638467C1BB1
:1058D000FFF7B8FF432C45DDBAF1000F22D0B946DF
:1058E000BFE76868B04798B195E803002960686031
:1058F000CFE759F8041C6868B0470028F4D02B683B
:1059000059F8042C2A6049F8043C68682968C0E703
:1059100059F8041C55F82400B0472B680028B1D072
:10592000EEE78846A410A71E7F1005EB870900E06C
:10593000013F59F804390096224639462846FFF7B8
:105940000FFF002FF4D158F8043D2A680096C5EBEC
:105950000804C8F800200021A2102846FFF700FF25
:10596000072CF0DC05B0BDE8F08F00BF2DE9F04753
:1059700000F128064FEA810806EB0805AE422DED3E
:10598000028B04468946B0EE408A10D04FEAA80246
:10599000B2FA82F2C2F11F02520029463046544B3D
:1059A000FFF750FF524A29463046FFF7B3FEA76A79
:1059B0006765D7F818C0BCF1000F69D08CEAEC73AA
:1059C0000022A3EBEC73B9F1010FBA603B6112DD69
:1059D00008F1240EA644304650F8042F936983EA58
:1059E000E378A8EBE378C2F8108039697045C1EB21
:1059F00048035361F0D1AE426DD0FA6904F12C0333
:105A000006E01968C9698A4203F1040328BF0A46FF
:105A10009D42F6D107EE902A94ED1A7A9FED356AF1
:105A20007A68F8EE476AF8EE677A07EE10CA67EE12
:105A3000A67AB8EEC77A002384ED1E7A87EE867ABE
:105A4000636784ED1F7A72B6E36FC4F8803062B684
:105A500072B694ED1E0AD4ED1D7A28EE000AB4EE5B
:105A6000E70AD4ED207A84ED1C0AF1EE10FAD8BFD3
:105A7000F1EE677AC4ED217A62B6A268206A936873
:105A8000616A23F002038842936028D0E3691BB95E
:105A9000BDEC028BBDE8F08772B6174A236AE06955
:105AA00000211160DB00516803F1804303F560338E
:105AB00001440D2019611060DA68502122F0800243
:105AC000DA60D96062B6BDEC028B60690368BDE83C
:105AD000F0475B681847A36AD3ED077A9CE7BDECF3
