:1000000000000320D1010000A5E5030061E5030025
:1000100061E5030061E5030061E5030061E50300BC
:1000200061E5030061E5030061E50300A5E5030068
:10003000A5E5030061E5030095D2030099D2030012
:10004000A5E50300A5E50300A5E50300A5E503007C
:10005000A5E50300A5E50300A5E50300A5E503006C
:10006000A5E50300A5E50300A5E50300A5E503005C
:10007000A5E50300A5E50300A5E50300A5E503004C
:10008000A5E50300A5E50300A5E50300A5E503003C
:10009000A5E50300A5E50300A5E50300A5E503002C
:1000A000A5E50300A5E50300A5E50300A5E503001C
:1000B000A5E50300A5E50300A5E5030055F203004F
:1000C000A5E50300D5FB0300A5E503001D0304001F
:1000D000A5E50300A5E50300A5E50300A5E50300EC
:1000E000A5E50300A5E50300C5CB0300A5E50300D6
:1000F000A5E50300A5E50300A5E50300A5E50300CC
:1001000041D803005DD8030079D8030095D80300D7
:10011000A5E5030021060400A5E50300A5E503000D
:10012000A5E50300A5E50300A5E50300A5E503009B
:10013000A5E50300A5E50300A5E50300A5E503008B
:10014000A5E50300A5E50300A5E50300A5E503007B
:10015000A5E50300A5E50300A5E50300A5E503006B
:10016000A5E50300A5E50300A5E50300A5E503005B
:10017000A5E50300A5E50300A5E50300A5E503004B
:10018000A5E50300A5E50300A5E50300A5E503003B
:10019000A5E50300A5E50300A5E50300A5E503002B
:1001A000A5E50300A5E50300A5E50300A5E503001B
:1001B000A5E50300A5E50300A5E50300A5E503000B
:1001C000A5E50300A5E50300A5E50300A5E50300FB
:1001D0005F4B4CF2205210B5DA814DF62812DA81CD
:1001E00000BF00BF3EF0E2F95A4B4FF030621A6395
:1001F000594A9A63594ADA634FF0E0234FF4700288
:10020000C3F8882D03F5E823554A1A60554B9A78B0
:10021000110703D59A7842F008029A70524B53485E
:10022000AA221A70524BDA1C121AC11E22F00302C3
:10023000994288BF00224F493EF0BEF84E4B4F48CE
:10024000DA1C121AC11E22F00302994288BF002252
:10025000002144F0C1FE4A494A484FF4E8723EF09A
:10026000ABF8494B494A802103F8011B9342FBD16B
:100270004FF0E023434AC3F8082D454B8A221A70F9
:10028000A3F5805324225A70A0221A709A799207FB
:10029000FCD59A79D406FCD43E4A937903F00C033A
:1002A000082BFAD1304B60225A70DA78802AFCD1C0
:1002B000384B01221A715D225A719A799006FCD549
:1002C0009A795106FCD5234A33495164002191643F
:1002D000202119702F498B7903F00C030C2BFAD1D4
:1002E0002E4B53602E4A136913F4807303D153616C
:1002F0004FF4A85313614FF0E0232A4A5A610022B9
:100300009A6107221A61284AC3F8202D62B63EF08E
:1003100021FA234B5B69DA0705D524483EF00EFA33
:10032000234B244ADA61244B1B785B0609D5204C09
:10033000204BE2699A4204D11C483EF0FFF90023A9
:10034000E3613EF039F945F07BFA3EF02DF8FEE727
:100350000020054000800440823F04000100002B83
:100360000300008500D0074000E007403007FF1F72
:10037000D00FFF1FD03705009025FF1FD00FFF1FA4
:10038000000000000002FF1F00E400E064E400E061
:10039000005006400040064000000602C010070062
:1003A00000D003401FBF02000000202024F4046995
:1003B00000E00340A5C3945A00F00740FFFFFFFF91
:1003C000FFFFFFFFFFFFFFFFFFFFFFFFFFFFFFFF3D
:1003D000FFFFFFFFFFFFFFFFFFFFFFFFFFFFFFFF2D
:1003E000FFFFFFFFFFFFFFFFFFFFFFFFFFFFFFFF1D
:1003F000FFFFFFFFFFFFFFFFFFFFFFFFFFFFFFFF0D
:10040000FFFFFFFFFFFFFFFFFFFFFFFFDEF9FFFF23
:100410000548064B1B1AD90F01EBA301491002D066
:10042000034B03B118477047D00FFF1FD00FFF1FBA
:100430000000000008B5054B1BB105490548AFF3A6
:100440000080BDE80840FFF7E3BF00BF00000000E8
:10045000D00FFF1FC837050000207047704700BF4E
:10046000036D0BB101207047406D003818BF0120AB
:10047000704700BF00690B699842D4BF002001207B
:10048000704700BF80698B690028B8BF4042002BCD
:10049000B8BF5B429842D4BF00200120704700BF24
:1004A000036818470B680360704700BF0B68036060
:1004B000704700BF704700BFC36A00F12C0233B120
:1004C0000120D96A52F8043F0860002BF9D1704727
:1004D00010B50446806D18B142F0C2FE0023A3653A
:1004E000236D2BB104F11800BDE8104039F008BBB2
:1004F000636D002BF6D110BD10B510EE100A00216F
:10050000F2EE046AF0EE407ABDEEE77AB8EEC77A12
:10051000B4EE677AF1EE10FA04D00131062967EEE5
:10052000A67AF1D1144B1B68012B03D0032B17D0F3
:100530005BB110BDCCB242F023F841EC100B214668
:100540000E48BDE810403DF07BBACCB242F018F83E
:1005500041EC100B21460A48BDE810403DF070BA4E
:10056000CCB242F00DF841EC100B21460548BDE835
:1005700010403DF065BA00BF9807FF1FE007FF1F5E
:100580006008FF1F0808FF1F084B1B68012B01466E
:1005900003D0032B07D01BB1704705483DF000BACC
:1005A00004483DF0FDB904483DF0FAB99807FF1F33
:1005B000E007FF1F6008FF1F0808FF1F10B5044673
:1005C000806D00B110BD4FF4807042F041FEA06517
:1005D000B0B1236D002202703BB101464FF480722E
:1005E000184638F003FFA06D10BD636D002BE9D0F5
:1005F00001464FF48072184636F042FCA06D10BDE3
:100600000148A06510BD00BFE80FFF1F38B5056D9C
:100610006DB10BB1002038BD1146284637F03EFCC5
:100620000028F7D02846BDE8384037F0CFBD446DEC
:10063000002CEFD0204635F0E1F80028EAD0204623
:10064000BDE8384035F0FCBE8A79A2F150031B06A4
:1006500020D4F0B54B79046D0D798E784F780978F8
:10066000013385B002F26C72DBB244B103918DE8C4
:10067000E0000421204637F03DFD05B0F0BD406D9F
:100680000028FAD003918DE8E000042135F028FE1F
:1006900005B0F0BD0020704710B5036D82B00C4668
:1006A0002BB30DF1060201A9184637F00DF838B347
:1006B000BDF80430BDF8062053EA020120D0C2F391
:1006C000451C02F01F00D20AC3F343114000A27080
:1006D0005A0A0139207003F01F0302F5EA62012073
:1006E00084F801C023716171A27102B010BD406D28
:1006F00030B10DF1060201A934F01AFF0028D7D15C
:10070000002002B010BD00BF10B5036D82B00C46D2
:100710002BB30DF1060201A9184636F0C5FF38B318
:10072000BDF80430BDF8062053EA020120D0C2F320
:10073000451C02F01F00D20AC3F343114000A2700F
:100740005A0A0139207003F01F0302F5EA62012002
:1007500084F801C023716171A27102B010BD406DB7
:1007600030B10DF1060201A934F0D0FE0028D7D136
:10077000002002B010BD00BF70B50C460D1D461A1A
:10078000A0193DF063FD04F8010BAC42F8D170BD37
:1007900010B543EC102B04469DF808103DF050F9BD
:1007A0002046BDE810403DF029B900BF10B5002338
:1007B00004460A223DF03AF92046BDE810403DF0DB
:1007C0001DB900BF10B504463DF010F92046BDE844
:1007D00010403DF013B900BF69B170B50546084639
:1007E0000C4645F08DFA2B680246214628465B6888
:1007F000BDE8704018477047006990B10368154A1A
:100800001B69934225D1036D63B1187810F008007D
:1008100007D0D8695B69C01A48BF6FF000407047C5
:1008200018467047436D002BFAD093F8310010F052
:100830000800F6D0186919685A695B68401A62EBBB
:100840000303B0F1004F73F10003EAD36FF00040EF
:1008500070471847A10B0000036973B11A68084973
:1008600052698A4207D1186D08B137F0DBB9586D6B
:1008700018B134F0ABBF184610474FF0FF30704747
:10088000510A0000036963B11A68074992698A42F4
:1008900008D1186D08B137F027BC586D08B135F094
:1008A000D7BB704718461047290B000000B50069F8
:1008B00083B08DF8071060B10368104ADB6893427B
:1008C00015D1036D43B101220DF10701184637F030
:1008D000B7FC03B05DF804FB406D0028F9D001229D
:1008E0000DF1070135F01EFE03B05DF804FB012297
:1008F0000DF10701984703B05DF804FB4D0C0000B3
:10090000036923B310B51968124A8C68944282B007
:1009100014D1186D48B101220DF1070137F0ACF880
:1009200090B19DF8070002B010BD586D0028F8D0B6
:1009300001220DF1070134F075FEF1E701220DF1FE
:1009400007011846A047EBE74FF0FF30EBE74FF009
:10095000FF307047D90A0000036D13B158690021B8
:100960007047436D13B1D3E900017047184619462B
:10097000704700BF036D13B1D86900217047436D04
:1009800013B1D3E90401704718461946704700BFF8
:10099000F0B595B00022234F01924FF47A741831CC
:1009A000054604A8CDE9122202948DF80C20009788
:1009B00039F012F9129B002B29D05C203DF07CFE0F
:1009C000019BC360029B03619DF80C300375164BBD
:1009D00003600026154B83600446466004A9183066
:1009E00039F060F84FF47A73AB606368104AA7601F
:1009F0000133A6656E602A602E732C6163600D4B17
:100A0000009304A839F07CF8284615B0F0BD139B7C
:100A1000002BD2D1064A6B60AC602B732A602B612D
:100A2000EDE700BFDC2205002C2305009422050021
:100A300000230500B8220500836C13B1184637F077
:100A4000F1B8C06C08B134F0C1BE4FF0FF30704750
:100A5000036D13B1184637F0E5B8406D08B134F0B6
:100A6000B5BE4FF0FF307047036D33B11B7813F004
:100A7000700F14BF012000207047406D30B190F816
:100A8000313013F0500F14BF01200020704700BF19
:100A900010B50446006D80B1037813F0700F00D1DB
:100AA00010BD002137F0FAF9606D0028F8D0BDE8DC
:100AB00010400022002334F0A1BE606D0028EFD06A
:100AC00090F8313013F0500FEAD0BDE8104000220A
:100AD000002334F093BE00BF036D13B1184636F007
:100AE000CBBF406D08B134F09DBD4FF0FF30704773
:100AF00000B5836C83B063B101220DF10701184684
:100B000036F0BAFF01280CD19DF8070003B05DF85C
:100B100004FBC06C28B101220DF1070134F082FD05
:100B2000F0E74FF0FF30F1E7036D13B1184637F0EF
:100B3000DBBA406D08B135F08BBA7047836C13B1E6
:100B4000184637F0D1BAC06C08B135F081BA704799
:100B50008A79A2F150031B0620D4F0B54B79046DBD
:100B60000D798E784F780978013385B002F26C7276
:100B7000DBB244B103918DE8E0000221204637F05A
:100B8000B9FA05B0F0BD406D0028FAD003918DE8A8
:100B9000E000022135F0A4FB05B0F0BD0020704755
:100BA000036D53B1187810F008000DD0D8695B6957
:100BB000C01A48BF6FF000407047436DA3B193F86F
:100BC000310010F0080000D17047186919685A699F
:100BD0005B68401A62EB0303B0F1004F73F100034E
:100BE000F2D36FF0004070471846EDE7836C53B1C5
:100BF000187810F008000DD0D8695B69C01A48BF9A
:100C00006FF000407047C36CA3B193F8310010F04F
:100C1000080000D17047186919685A695B68401A62
:100C200062EB0303B0F1004F73F10003F2D36FF0F6
:100C3000004070471846EDE7836C13B1184637F053
:100C4000FFBAC06C08B135F06DBC7047036D13B1CD
:100C5000184637F0F5BA406D08B135F063BC7047FF
:100C600000B5836C83B08DF8071043B101220DF1FC
:100C70000701184637F0E4FA03B05DF804FBC06CD6
:100C80000028F9D001220DF1070135F04BFC03B02B
:100C90005DF804FB0369D3B110B41C680D48E46827
:100CA00084420FD1186D18B15DF8044B37F0C8BA03
:100CB000586D18B15DF8044B35F034BC00205DF878
:100CC000044B7047184623465DF8044B1847002034
:100CD000704700BF4D0C000038B50446806D0C4BCA
:100CE000236018B142F0BCFA0023A365236D04F120
:100CF00018054BB1284638F003FF064BA360284681
:100D000038F0FEFE204638BD636D002BF2D1F4E7CB
:100D10002C230500B822050038B50446806D0E4B23
:100D2000236018B142F09CFA0023A365236D04F1FF
:100D300018056BB1284638F0E3FE084BA36028463F
:100D400038F0DEFE20465C213DF0BAFC204638BD7E
:100D5000636D002BEED1F0E72C230500B8220500CF
:100D6000F0B4846DA36A01261E60626823681A4489
:100D7000036B626000F1300C93B15A69002A08DB02
:100D80009A6A166059681F6825695A69394459601A
:100D9000521B1969114459615CF8043F002BECD1D6
:100DA000436A124A816900251560DB00556803F12A
:100DB000804303F56033294419610D211160DA681D
:100DC000C16E22F080025025DA60DD6019B96268D8
:100DD000E3689A4201D0F0BC7047C36D012280F8ED
:100DE0002820002BF7D0F0BC184700BF008003403C
:100DF00030B4029C11469C4634B1012C1CD0022C0C
:100E00000ED0002030BC7047056DF5B14FF0FF33B8
:100E1000934274EB0C04F4D3284630BC37F03EB850
:100E2000026D0AB3D36959184CF10003002BE8D1C5
:100E300030BC104637F032B8026D62B153695918B0
:100E40004CF10003002BDCD1F2E7406D0028D8D034
:100E500030BC34F0D3BC406D0028D2D0D0E90023A0
:100E60008A184CEB0303F3E7406D0028C9D0D0E9A2
:100E700004238A1830BC4CEB030334F0BFBC00BF22
:100E800038B5044649B108460D4644F039FF236899
:100E900002465B682946204698472046BDE8384010
:100EA0003CF0ACBD826D836F10B504465068D4F839
:100EB000AC101B1A002BB8BF5B428B4216DBD4F878
:100EC000B00083420BDBE16FCB1A5168106800FB66
:100ED0000313D360D168536899420FD010BD0B44FF
:100EE0000020E367C4F8B0000B46EEE7002158008D
:100EF000C4F8B010C4F8AC10E067E6E704F10C00E9
:100F00003CF052FC0023206AA3603BF043FE606A81
:100F1000BDE810403BF03EBE08B5374A374BD2ED36
:100F2000017AD3ED006A9FED366A364BF8EEE66A39
:100F30005B6C86EE267A013BF8EEE77A2DED028BAC
:100F400027EE277A032B53D8DFE803F04C46400204
:100F50002D4B93ED018AB8EEC88A2C4BDFED280AA1
:100F600093ED000A27EE000A40F07EFA40F0C2FA44
:100F7000274B284993ED007A274B0022F0EE487A60
:100F8000D0EE077A83F8902091ED007A72B6DFED0B
:100F9000236A93ED206AC7EEA65AB8EEC77AD3ED5E
:100FA0001F6AC5EE877A67EE867AF4EEE67AC3EDBD
:100FB0001E7AD3ED227AF1EE10FAD8BFF1EE677AFD
:100FC000C3ED237A62B6BDEC028B08BD144B93EDE2
:100FD000018AB8EEC88AC0E7124B93ED018AB8EED9
:100FE000C88ABAE7104B93ED018AB8EEC88AB4E715
:100FF0009FED0E8AB1E700BFA818FF1FE818FF1F7A
:10100000DB0FC9407C13FF1FCC17FF1F3017FF1FDA
:101010007417FF1F5417FF1F3415FF1FCDCCCC3C96
:101020008C17FF1F0C18FF1F4C18FF1F000000003B
:10103000036A8B4210B5044623D0C3698B4200D0AB
:1010400010BD8369002BFBD072B6204AC369A16929
:1010500000201060DB00506803F1804303F560332B
:10106000014419610D211160DA68502122F08002DB
:10107000DA60D96062B620690368BDE810405B6839
:1010800018470069124A03689B6893421BD1C36AE0
:101090002C3033B10121DA6A50F8043F1160002B83
:1010A000F9D194F82430002BCAD004F108003CF0A8
:1010B0007BFB0023E06963603BF06CFD206ABDE8C8
:1010C00010403BF067BD9847EBE700BF008003404E
:1010D000B904000070B50569234B03600446002D78
:1010E00032D06E68013E6E6076BB2B681F4ADB6AA9
:1010F00093422FD1A86D10B142F0B2F8AE652B6DBE
:1011000023B305F1180038F0FBFC2569E5B12B6825
:10111000174A5B68934224D1A86D164B2B6018B117
:1011200042F09EF80023AB652B6D05F11806A3B1C4
:10113000304638F0E5FC104BAB60304638F0E0FC50
:101140005C2128463DF0BCFA204670BD6B6D002B3B
:10115000D7D1DAE728469847D7E76B6D002BE7D160
:10116000E9E728469847EFE700230500D10400008F
:10117000190D00002C230500B822050070B5056983
:10118000254B03600446002D32D06E68013E6E6030
:1011900076BB2B68214ADB6A934233D1A86D10B12C
:1011A00042F05EF8AE652B6D43B305F1180038F0E0
:1011B000A7FC2569E5B12B68194A5B68934228D1E1
:1011C000A86D184B2B6018B142F04AF80023AB65AC
:1011D0002B6D05F11806C3B1304638F091FC124B67
:1011E000AB60304638F08CFC5C2128463DF068FA54
:1011F000204614213DF064FA204670BD6B6D002B33
:10120000D3D1D6E728469847D3E76B6D002BE3D1BF
:10121000E5E728469847EBE700230500D1040000E6
:10122000190D00002C230500B822050070B50669D1
:101230007568013D0446756075BB33681F4ADB6AFB
:1012400093422CD1B06D10B142F00AF8B565336D00
:1012500063B306F1180038F053FC2569E5B12B683B
:10126000174A5B68934225D1A86D164B2B6018B1C5
:1012700041F0F6FF0023AB652B6D05F118068BB12D
:10128000304638F03DFC104BAB60304638F038FC4F
:101290005C2128463DF014FA0023236170BD3046DE
:1012A0009847DAE76B6D002BEAD1ECE7736D002B02
:1012B000CFD1D2E728469847EEE700BFD10400001F
:1012C000190D00002C230500B8220500F0B5012BF4
:1012D00095B0054638D0022B40F202200CBF0346E1
:1012E00000230431684638F023FD129B002B34D0D4
:1012F0005C203DF0E1F91F4B0026C0E90036019B60
:10130000C3601D4B8360029B036104AF9DF80C30EA
:10131000037504463946183038F0C4FB174BA360F8
:101320004FF47A73AB606368154AA66501336E604B
:101330002A602E732C616360124B0093384638F09C
:10134000DFFB284615B0F0BD44F2022304316846A5
:1013500038F0EEFC129B002BCAD1139B002BC7D197
:10136000074A6B604FF47A71A9602B732A602B6176
:1013700004AFE1E72C23050094220500DC220500E0
:1013800000230500B822050070B54368044621B368
:101390009A6812F0020216D0204A18689042204A39
:1013A0002ED9B2FBF1F15A68A0EB020C61451AD3B9
:1013B0000A44121A002401209C60D86003201A609D
:1013C0009860196070BD012403209A60DC60144AA3
:1013D000B2FBF1F21A60986070BDABB19A6822F06E
:1013E00002029A6070BD20690268002501249D6098
:1013F0001268DC60032419609C60BDE870401047EF
:10140000B2FBF1F21A6070BD064A1268002AE5D0FC
:101410000221012090476368E0E700BF7FA9030035
:1014200000879303E41EFF1FD0ED1F7A90ED1E7A14
:10143000836DF4EE477AF1EE10FA70B55A680446FF
:101440004DD0D0ED236AF5EEC06A77EEA67AF1EEC4
:1014500010FAB4EEE77A3CDDF1EE10FAD8BFF0EE08
:10146000477ABDEEE77AC4ED1F7A17EE105A94F86A
:1014700090200AB1002D37D09A68AA4228D01A6865
:10148000002DACBF01234FF0FF339A4217D0E36A1F
:1014900073B104F12C0101261A6850420132186020
:1014A0000CBF1B6B5B6B1E6051F8043F002BF3D12C
:1014B000636FC3EB03139B0001D0013BFDD185EAB1
:1014C000E571A1EBE571201DFFF75EFFA36D9D6047
:1014D00070BDF1EE10FA58BFF0EE477AC1E7FDEEAD
:1014E000C77A17EE905AC2E704F10C003CF05CF9A1
:1014F000206AA5603BF04EFB606A3BF04BFBA26D9F
:10150000E36D956084F89050002BE1D0BDE8704009
:10151000184700BF8368EBB1826D836F5168D0F8C4
:10152000AC2010B55B1A002BB8BF5B4293422DED87
:10153000028B00F104040EDBD0F8B020934236DBBE
:10154000C26F934228DB00212046FFF71DFFBDEC50
:10155000028B10BD7047D0ED2A8AD0E92401F8EE45
:10156000688A07EE903AB8EEE78A41F079FC00EE1F
:10157000100AA8EE880AB5EE400AF1EE10FA1ED461
:10158000F1EEC07A2046FDEEE77A17EE901AFFF7EB
:10159000FBFEBDEC028B10BDD0ED2A8AD21A013AB7
:1015A000D0E92601F8EE688A07EE902ADBE7D0F84A
:1015B00088102046FFF7E8FEBDEC028B10BD3FF01F
:1015C00077FFF0EE407ADDE72DE9F041C46A96B08E
:1015D0000546002C66D02368984A1B6B93425CD169
:1015E000236D002B00F0F2802368954FDB6ABB422D
:1015F00040F00C81A06D18B141F032FE0023A365CC
:10160000236D002B00F0FA8004F1180038F078FA0E
:10161000EE6A7468013C7460002C40F0E880336826
:10162000DB6ABB4240F00681B06D10B141F018FE9C
:10163000B465336D002B00F0F88006F1180038F027
:101640005FFAEC6A002C00F0D28023687D4A5B6868
:10165000934240F0CA80A06D7B4B236018B141F0EB
:10166000FFFD0023A365236D04F11806002B00F095
:10167000D080304638F044FA744FA760304638F0D6
:101680003FFA5C2120463DF01BF8AA7E0023012A88
:10169000EB620BD144F202230DE02046984700286C
:1016A00040F0A780AA7E694F012AF3D0022A40F2B7
:1016B000022318BF002366492A4602A838F038FBE7
:1016C000149B002B73D05C203CF0F6FF5E4B002691
:1016D000C0E90036039BC3605E4B8360049B0361DB
:1016E00004469DF81430037506A9183038F0DAF96D
:1016F0006368A66501336360574BA36006A8029731
:1017000038F0FEF9EE6A002E4FD07368013B73602B
:101710000193002B30D132684949D26A8A4272D192
:10172000B06D18B141F09CFD019BB365336D002B8A
:1017300057D006F1180038F0E3F9EE6AE6B13368E5
:10174000404A5B6893426DD1B06D3F4B336018B136
:1017500041F086FD0023B365336D06F11808002BB8
:101760005CD0404638F0CCF9B760404638F0C8F954
:101770005C2130463CF0A4FFEC6284B123682F4A20
:101780001B6B934207D1236DE3B100230120EB765D
:1017900016B0BDE8F081204698470028F5D1012316
:1017A0000020EB7616B0BDE8F081EC62E6E7159C10
:1017B000002C88D106A8029738F0A2F9EE6A002E14
:1017C000A3D1ECE7636D002BDFD1E8E7636D002B5D
:1017D0003FF468AF23681A4FDB6ABB423FF40AAF9D
:1017E00014E0736D002BA4D1A7E720469847174F4C
:1017F0004BE7EC6A002C3FF455AFF5E6636D002B28
:101800007FF402AF04E73046904796E720469847BA
:10181000FEE6636D002B7FF42CAF2DE7736D002B7C
:101820009FD1A1E730469847A6E7736D002B7FF460
:1018300004AF06E73046984703E700BF61040000A5
:10184000D1040000190D00002C230500B82205006A
:10185000FC18FF1F94220500DC22050010B5334C54
:1018600033480C213FF0B6FB102120463CF0BEF877
:1018700020463CF0C3F80E212E483FF0ABFB54212C
:1018800020463CF0B3F820463CF0B8F80F212A4837
:101890003FF0A0FB502120463CF0A8F820463CF049
:1018A000ADF8102125483FF095FB4FF48471204698
:1018B0003CF09CF820463CF0A1F80F2120483FF076
:1018C00089FB702120463CF091F820463CF096F8C8
:1018D0000F211C483FF07EFB602120463CF086F83B
:1018E00020463CF08BF8142117483FF073FBA021F1
:1018F00020463CF07BF820463CF080F8132113484A
:101900003FF068FB6C2120463CF070F820463CF02C
:1019100075F810210E483FF05DFB204634213CF065
:1019200065F82046BDE810403CF068B86008FF1F2D
:1019300078BE040088BE040098BE0400A8BE04005F
:10194000BCBE0400CCBE0400DCBE0400F4BE040037
:1019500008BF040007EE901AB8EEE77A07EE900A87
:10196000F8EEE77A10B587EE270A2DED028BDFED52
:10197000276A84B020EE260A3FF0F8FD244BF7EEEC
:10198000007A1B68B4EEE70AF1EE10FAA3F1030344
:10199000B0EE408A01AC48BFB1EE408A082B10D8A7
:1019A000DFE803F026280F2A2C2E303205001949D3
:1019B00020463CF021FA2046FEF7E6FD20463CF0AA
:1019C00073FAB0EE480AFEF797FD134B20461968EC
:1019D0003CF012FA2046FEF7D7FD20463CF064FAB0
:1019E000FDEEC87A17EE900A04B0BDEC028B10BD74
:1019F0000A49DDE70A49DBE70A49D9E70A49D7E797
:101A00000A49D5E70A49D3E70A49D1E70000C842A5
:101A10008807FF1F1CBF04008007FF1F38BF04009A
:101A200054BF04006CBF040084BF04009CBF0400CA
:101A3000B4BF0400D0BF040010B5092121483FF015
:101A4000C9FA21483BF0DAFF2048FE2133F0C8FAFA
:101A5000B0B11F4C1F480123092123603FF0BAFA9F
:101A600019483BF0CBFF0C211B483FF0B3FA21682B
:101A700015483BF0BBFFBDE8104013483BF0BEBF2C
:101A800012480A2133F0ACFA48B1114C13480A212C
:101A900021603FF09FFA0C483BF0B0FFE3E70B48B2
:101AA000092133F09DFA10B9094C2060DBE7084C9E
:101AB0000B48092121603FF08DFA03483BF09EFF5F
:101AC000D1E700BFE8BF04006008FF1FF818FF1F40
:101AD0004817FF1FF4BF040018C0040000C0040032
:101AE0000CC004002DE9F041064686B00F46904632
:101AF0003AB1B34BD3F8E040012C00F047814FF0EE
:101B00000008B04C23680193019D23680093009B5B
:101B10005B1B092BF9D9042E00F22482DFE816F0B2
:101B20005E000701A800D8000500A74DA748D5F81A
:101B3000906014213FF04EFAA54806F001013BF0F9
:101B400055FFA3483BF05AFF002F00F09E819C4EAA
:101B500096F8A0100F2081F001013CF077FE96F876
:101B6000A030002B00F0C9810123C5F888309949C5
:101B700003A83CF041F903A8FEF706FD03A83CF0DA
:101B800093F9954903A83CF037F903A8FEF7FCFC4C
:101B900003A83CF089F9914816213FF01BFA8C48C4
:101BA0003BF02CFF884B8E48D3F8905011213FF02A
:101BB00011FA0F2186483BF019FF85483BF01EFFC4
:101BC00005F00105112187483FF004FA29468048B5
:101BD0003BF00CFF7E483BF011FF38E0002F00F097
:101BE0003881774B93F89C10042081F001013CF080
:101BF0002DFE7D4903A83CF0FFF803A8FEF7C4FCC6
:101C000003A83CF051F9744903A83CF0F5F803A887
:101C1000FEF7BAFC03A83CF047F96B4B71481D690D
:101C20001121C5F340353FF0D5F9294668483BF00E
:101C3000DDFE67483BF0E2FE16216C483FF0CAF932
:101C4000634804213BF0D2FE61483BF0D7FE1121EE
:101C500064483FF0BFF95E4829463BF0C7FE5C4848
:101C60003BF0CCFE002F40F09D8006B0BDE8F08137
:101C7000002F00F0DD80524B93F89E10162081F06B
:101C800001013CF0E3FD5A4903A83CF0B5F803A874
:101C9000FEF77AFC03A83CF007F94F4903A83CF093
:101CA000ABF803A8FEF770FC03A83CF0FDF8464B28
:101CB0005048D3F8905010213FF08CF91621444839
:101CC0003BF094FE4248C5F340053BF097FEBEE76B
:101CD000002F00F003813A4B93F89F10112081F000
:101CE00001013CF0B3FD444903A83CF085F803A88A
:101CF000FEF74AFC03A83CF0D7F8374903A83CF0AC
:101D00007BF803A8FEF740FC03A83CF0CDF82E4B6F
:101D10003A481D6D11213FF05DF911212C483BF02F
:101D200065FE2B48C5F340053BF068FE8FE7002FAA
:101D30006ED0234B93F89D100E2081F001013CF0F2
:101D400085FD2F4903A83CF057F803A8FEF71CFCBB
:101D500003A83CF0A9F8204903A83CF04DF803A8DB
:101D6000FEF712FC03A83CF09FF8174B2548D3F868
:101D7000D05010213FF02EF90E2115483BF036FED1
:101D80001348C5F340053BF039FE60E710211E48BB
:101D90003FF020F921460E483BF028FE0C483BF06E
:101DA0002DFEAEE62268194B03921968039A236848
:101DB0000293029B9B1A9942F9D806B0BDE8F081C4
:101DC000DC13FF1F941FFF1F00F00F40A8C1040089
:101DD0006008FF1FC0C104005CC00400E0C1040033
:101DE00048C2040080C004003CC0040094C0040049
:101DF00000C1040040C1040054C1040094C10400A7
:101E0000ACC00400ECC0040028C004006C07FF1F35
:101E1000B8F1000FA9D1544BD3F8E82093F89D10E6
:101E2000002A40F09B800E203CF010FD4F4989E7CE
:101E3000B8F1000F7FF43BAF4B4BD3F8EC2093F895
:101E40009E10002A40F0868016203CF0FFFC484996
:101E50001AE7B8F1000F7FF4E0AE434BD3F8E4206B
:101E600093F89C10002A6DD104203CF0EFFC41490E
:101E700003A83BF0C1FF03A8FEF786FB03A83CF0D4
:101E800013F83D4B03A81968BFE6B8F1000F7FF4C3
:101E900089AE354BD3F8F42093F8A0108ABB0F20FD
:101EA0003CF0D4FC354903A83BF0A6FF03A8FEF79D
:101EB0006BFB03A83BF0F8FF314903A83BF09CFF04
:101EC00003A8FEF761FB03A83BF0EEFF16212D48A7
:101ED0003FF080F82C483BF091FD63E6B8F1000F2D
:101EE0007FF415AF204BD3F8F02093F89F106ABB16
:101EF00011203CF0ABFC2549F6E60123C5F88430FF
:101F000035E681F001010F203CF0A0FC204903A838
:101F10003BF072FF03A8FEF737FB03A83BF0C4FFBA
:101F2000174903A83BF068FF03A8FEF72DFB03A8A1
:101F30003BF0BAFF162117483FF04CF812483BF02F
:101F40005DFD2FE681F00101042050E681F00101E2
:101F50001120C6E681F00101162092E681F0010110
:101F60000E20ECE6002572E6DC13FF1FCCC0040057
:101F700020C1040060C004008007FF1FF8C10400F6
:101F80005CC0040018C204006008FF1F74C1040094
:101F9000C0C1040030C204002DE9F0472DED028BD2
:101FA00084B00023644EDFF8B4A1DFF8B49101934C
:101FB00004460293ADF80C30984601A843F0A0FE09
:101FC000014601A83FF006F830463BF017FD2368B4
:101FD00020465B6998470021074650463EF0FAFFCD
:101FE00030463BF00BFD242148463EF0F3FF4146CE
:101FF00030463BF0FBFCFDB2042150483EF0EAFFC6
:1020000028463FF06DF802214D483EF0E3FF294697
:1020100030463BF0EBFC30463BF0F0FC7F2D7AD0B5
:102020003A064ED46B1E0B2B04D841F21203EB4040
:10203000DB077ED408F110036B4401A803F80C5CA5
:1020400043F05EFE014601A83EF0C4FF08F101081E
:1020500030463BF0D3FCB8F10A0FAED101A841F0F5
:10206000F3F851EC100B40F0DBFD40F089FA02462A
:102070000B463448042143EC182B3EF0ABFF01A87B
:1020800043F03EFE014601A83EF0A4FF2A483BF083
:10209000B5FC08212C483EF09DFFB0EE480AF0EE5A
:1020A000680A042124483BF0CBFC23483BF0A6FC03
:1020B000B0EE480AF0EE680A04B0BDEC028BBDE851
:1020C000F087FF2DB6D114212048214F1A4E3EF043
:1020D00081FF01A843F014FE014601A83EF07AFFFB
:1020E00015483BF08BFC0DE023685B6998471C2189
:1020F000054638463EF06EFFE8B23EF0F1FF30464E
:102100003BF07CFC236820461B6998470346002B64
:102110002046E9DCA2E70F481B213EF05BFF414669
:1021200030463BF063FC30463BF068FC4FF0000863
:1021300043E709481921F0E76008FF1F84C2040043
:102140001CC30400FCC2040004C30400A8C20400B1
:10215000C0C20400E0C204008CC20400C026050016
:102160005CC20400FFFFFFFF012805D0032809D04F
:1021700028B19FED070B70470748FFF70DBF0748D1
:10218000FFF70ABF0648FFF707BF00BFAFF30080A5
:10219000000000000000F0BFE007FF1F6008FF1F05
:1021A0000808FF1F70B5254C2368012B37D0032B7F
:1021B0003FD0002B38D000252E460E2120483EF07F
:1021C00009FF30463EF08CFF1E483BF017FC3CF008
:1021D0009DFF00280CDD2368012B1DD0032B18D098
:1021E000002BF4D13EF088FE3CF090FF0028F2DC9A
:1021F0003EF002F80028EEDC042113483EF0EAFE2F
:10220000294610483BF0F2FB0E483BF0F7FB28460E
:1022100070BD3EF005F8DAE73CF08CFFD7E73CF004
:1022200089FFC6B23546C8E73EF066FEC6B23546FF
:10223000C3E73DF0F5FFC6B23546BEE79807FF1F7E
:1022400010C304006008FF1F20C3040038B5434DCD
:10225000DFED437AAA6BEB6B95ED107A4148424C67
:1022600002FB03F32DED048B08EE103AB8EE488A1A
:1022700095ED129A28EE078A0D2129EE279AF0EEA5
:10228000408A3EF0A7FE18EE100A40F079F941ECC2
:10229000100B022120463BF0D3FB20463BF0AEFB67
:1022A000112132483EF096FE286C40F069F941EC6D
:1022B000100B022120463BF0C3FB20463BF09EFB67
:1022C0000F212B483EF086FEC8EE899A19EE100ABF
:1022D00040F056F941EC100B022120463BF0B0FBD8
:1022E00020463BF08BFB102122483EF073FE18EE97
:1022F000900A40F045F941EC100B022120463BF0DA
:102300009FFB20463BF07AFB07211B483EF062FE14
:1023100019EE900A40F034F941EC100B02212046EE
:102320003BF08EFB20463BF069FB28EE298A082112
:1023300012483EF04FFE18EE100A40F021F941EC31
:10234000100B022120463BF07BFB20463BF056FB66
:10235000B0EE480ABDEC048B38BD00BFDC13FF1F94
:10236000DB0FC94028C304006008FF1F38C3040006
:102370004CC304005CC3040070C3040004C3040025
:1023800038B5434DDFED437AAA6DEB6D95ED187AC4
:102390004148424C02FB03F32DED048B08EE103A4A
:1023A000B8EE488A95ED1A9A28EE078A0D2129EE93
:1023B000279AF0EE408A3EF00DFE18EE100A40F02B
:1023C000DFF841EC100B022120463BF039FB2046A0
:1023D0003BF014FB132132483EF0FCFD286E40F028
:1023E000CFF841EC100B022120463BF029FB2046A0
:1023F0003BF004FB0F212B483EF0ECFDC8EE899A20
:1024000019EE100A40F0BCF841EC100B02212046F6
:102410003BF016FB20463BF0F1FA102122483EF03B
:10242000D9FD18EE900A40F0ABF841EC100B0221F8
:1024300020463BF005FB20463BF0E0FA07211B4815
:102440003EF0C8FD19EE900A40F09AF841EC100BEE
:10245000022120463BF0F4FA20463BF0CFFA28EE6A
:10246000298A082112483EF0B5FD18EE100A40F006
:1024700087F841EC100B022120463BF0E1FA2046A0
:102480003BF0BCFAB0EE480ABDEC048B38BD00BF8F
:10249000DC13FF1FDB0FC94028C304006008FF1FC7
:1024A00078C304004CC304005CC3040070C3040080
:1024B00004C304001D4A1E4892ED117AD36B926B3F
:1024C000C0EE077A10B502FB03F30A21194C2DED7B
:1024D000028B08EE103AB8EE488AF0EE408A28EEF9
:1024E000278A3EF077FD18EE900A40F049F841EC5B
:1024F000100B022120463BF0A3FA20463BF07EFA67
:102500001A210D483EF066FD18EE100A40F038F82A
:1025100041EC100B022120463BF092FA20463BF0A2
:102520006DFAB0EE480ABDEC028B10BDDC13FF1F44
:102530008CC304006008FF1F98C304001D4A1E4896
:1025400092ED197AD36D926DC0EE077A10B502FB49
:1025500003F30A21194C2DED028B08EE103AB8EE68
:10256000488AF0EE408A28EE278A3EF033FD18EEC6
:10257000900A40F005F841EC100B022120463BF098
:102580005FFA20463BF03AFA1A210D483EF022FD50
:1025900018EE100A3FF0F4FF41EC100B0221204628
:1025A0003BF04EFA20463BF029FAB0EE480ABDEC6B
:1025B000028B10BDDC13FF1F8CC304006008FF1FDB
:1025C000B4C304000138032809D8DFE800F013235E
:1025D0000B02254B5B6D002B44D0012B3ED09FEDB1
:1025E000230A7047204B5B6B002B39D0012BF6D1AF
:1025F000FFF760BF1C4A92ED057A1369D268C0EEFE
:10260000077A02FB03F300EE103AB8EE400A20EE20
:10261000270A7047144AD2F8CC3073B992ED0A7A7F
:10262000536A126AC0EE077A02FB03F300EE103A17
:10263000B8EE400A20EE270A704792ED367AD2F8BB
:10264000D430D2F8D020C0EE077A02FB03F300EEBC
:10265000103AB8EE400A20EE270A7047FFF76EBF27
:10266000FFF7F4BDFFF78CBEDC13FF1F0000000076
:1026700038B5204C204D2DED068B94ED009AD5ED0C
:10268000009AB5EEC09AF1EE10FAF5EEC09A48BF86
:10269000B1EE499AF1EE10FA48BFF1EE699A29EECF
:1026A000A90A08EE100AA9EE090A08EE901AB5EE7A
:1026B000400AF1EE10FA18D4B1EEC0AA8AEE290A47
:1026C000F8EEE88AB8EEC88A28EE800A3EF096FF57
:1026D000CAEE097A85ED000A28EE270A3EF08EFF41
:1026E000BDEC068B84ED000A38BD3EF0E1FEB0EE95
:1026F00040AAE3E72017FF1F1C17FF1F38B5384B10
:102700001B68013B0A2B5DD8DFE803F05D294F5CB5
:102710005C060606063C2900324B334D1868334CE4
:10272000FFF722FD51EC100B40F032FA304A3149EC
:10273000D062034609686B611046502263643BF027
:102740009FFD2D4B2846196870223BF099FD2B4BBD
:10275000204619686C22BDE838403BF091BD214B02
:10276000274C1868FFF700FD51EC100B40F010FAF1
:1027700024490346A022096863612046BDE8384029
:102780003BF07EBD174B204C1868FFF7EDFC51EC79
:10279000100B40F0FDF91D490346A362204609686D
:1027A000BDE8384060223BF06BBD0E4B184C1868FA
:1027B000FFF7DAFC51EC100B40F0EAF9154903463B
:1027C0003422D8E738BD074B134C1868FFF7CCFC10
:1027D00051EC100B40F0DCF910490346CAE700BF8A
:1027E0008807FF1F9807FF1F0C13FF1F8810FF1F8C
:1027F000E414FF1F6807FF1F6007FF1F3807FF1F54
:102800006C12FF1F5C07FF1F7C13FF1F6407FF1F75
:102810004411FF1F5007FF1F7811FF1F5407FF1FB0
:1028200038B51521A448A54C3EF0D4FBA4483BF094
:10283000E5F80E21A3483EF0CDFB2168A0483BF00F
:10284000D5F89F483BF0DAF82368013B0A2B07D8FC
:10285000DFE803F07A133D55060707070727130043
:1028600038BD994C2368013B032B00F28D80DFE8D3
:1028700013F0E800DA007E00CC00944B1868FFF7F4
:1028800073FC51EC100B40F083F9914AD36E042B8A
:1028900000F28F80DFE813F0E900E700E500E300D5
:1028A0008C008C4C636C012B00F05E81022B00F0DD
:1028B0006581032B00F06C81042B00F07381864B43
:1028C000844819686022BDE838403BF0D9BC834C8D
:1028D0002368032B00F03E81042B08D17B4B186842
:1028E000FFF742FC51EC100B40F052F9E0617C4BD9
:1028F0007A4819683422BDE838403BF0C1BC794CB5
:102900002368013B0D2BABD801A252F823F000BF86
:10291000312B00000D2B0000932A00006F2A0000CD
:102920006128000061280000612800006128000083
:102930006128000061280000312B00000D2B0000F1
:10294000932A00006F2A0000604B674D1868FFF75C
:102950000BFC51EC100B40F01BF9EB6E013B0446F5
:10296000032B3FF67DAFDFE803F0473E352C574B96
:102970001868FFF7F9FB51EC100B40F009F95B4ABE
:102980005B4BA063106218655A4B4F481968502280
:102990003BF076FC584B5548196870223BF070FCB0
:1029A000564B534819686C22BDE838403BF068BC70
:1029B0005062534B46481968A022BDE838403BF0AE
:1029C0005FBC504B6C6219684748BDE83840A02294
:1029D0003BF056BC4B4B2C6219684348BDE838406D
:1029E000A0223BF04DBC474BEC6119683E48BDE866
:1029F0003840A0223BF044BC424BAC6119683A48D5
:102A0000BDE83840A0223BF03BBC304B1868FFF7D4
:102A1000ABFB51EC100B40F0BBF8344A344BE06395
:102A200050625865B0E7294B1868FFF79DFB51ECE1
:102A3000100B40F0ADF82D4A2D4B6063D061D86487
:102A4000A2E7224B1868FFF78FFB51EC100B40F008
:102A50009FF8264A264B20639061986494E71062A1
:102A6000A7E7D061A5E79061A3E75061A1E7174B05
:102A70001868FFF779FB51EC100B40F089F8224AF7
:102A80000346116823631748BDE8384054223BF0E1
:102A9000F7BB0E4B1868FFF767FB51EC100B40F0CB
:102AA00077F8194A0346116863620E48BDE838405A
:102AB00054223BF0E5BB00BFD0C304008807FF1FD2
:102AC0006008FF1FE8C30400E414FF1F9807FF1FFE
:102AD0006C12FF1F7C13FF1F6407FF1F4411FF1FB1
:102AE0005007FF1F1812FF1F7811FF1F0C13FF1F45
:102AF0008810FF1F6807FF1F6007FF1F3807FF1FB1
:102B00005C07FF1F5407FF1F5807FF1F2A4B186859
:102B1000FFF72AFB51EC100B40F03AF8274A034626
:102B20001168A3612648BDE8384054223BF0A8BB99
:102B3000214B1868FFF718FB51EC100B40F028F8F8
:102B40001E4A03461168E3601D48BDE83840542220
:102B50003BF096BB184B1868FFF706FB51EC100BC7
:102B600040F016F8A061C2E6134B1868FFF7FCFAB4
:102B700051EC100B40F00CF8E062A0E60E4B186828
:102B8000FFF7F2FA51EC100B40F002F8206396E6E2
:102B9000094B1868FFF7E8FA51EC100B3FF0F8FF0B
:102BA00060638CE6044B1868FFF7DEFA51EC100BFB
:102BB0003FF0EEFFA06382E69807FF1F5807FF1F54
:102BC0001812FF1F564A10B51368516801FB03F332
:102BD00007EE903A2DED028BF8EE677AB0EE408A60
:102BE00092ED020A27EE800A04463EF007FD601EC1
:102BF000FDEEC07A042800F29080DFE800F01B3977
:102C00002A480300474B1A6883ED038A012A4DD0F6
:102C1000F8EEE77A87EE887ABCEEC77A424A4148F6
:102C2000116883ED027ABDEC028B1022BDE81040E2
:102C30003BF026BB3D4B1A6883ED038A012A40D046
:102C4000F8EEE77A87EE887ABCEEC77A384A3748DA
:102C5000E6E7384B1A6883ED038A012A47D0F8EE7D
:102C6000E77A87EE887ABCEEC77A334A3148D7E7ED
:102C7000324B1A6883ED038A012A2DD0F8EEE77AE9
:102C800087EE887ABCEEC77A2D4A2C48C8E72D4BD0
:102C90001A6883ED038A012A34D0F8EEE77A87EECA
:102CA000887ABCEEC77A284A2648B9E7DFED276A5A
:102CB00088EE267AF8EEE77A67EE877ABCEEE77A56
:102CC000ACE7DFED226A88EE267AF8EEE77A67EE67
:102CD000877ABCEEE77AB9E7DFED1C6A88EE267AE0
:102CE000F8EEE77A67EE877ABCEEE77ACCE7DFEDBD
:102CF000176A88EE267AF8EEE77A67EE877ABCEEF6
:102D0000E77AB2E7DFED116A88EE267AF8EEE77A25
:102D100067EE877ABCEEE77AC5E7BDEC028B10BDA3
:102D2000DC13FF1F3411FF1F4C07FF1FF410FF1FA0
:102D30003C07FF1F1411FF1F4407FF1F0411FF1F53
:102D40004007FF1F2411FF1F4807FF1F0000B44367
:102D500070B5192186B04248424D3EF03BF94248D9
:102D60003AF04CFE414B424AD5F80001414900245B
:102D70001C60414B14601C60404A414B14605C6015
:102D8000404A414B54605C60404A414B54605C6037
:102D9000404B414A1C60414B14601C60404A414B0F
:102DA00014601C60404A414B14601C60404A414B17
:102DB00014601C70404A0C60A0F10A031D2B1470B3
:102DC00036D90A213D483EF005F9D5F800112648CC
:102DD00000230A223AF02AFE23483AF00FFE384A2E
:102DE00013680293029913680193019B5B1A092BE4
:102DF000F9D9344903A83AF0FFFF03A8FDF7C4FB53
:102E000003A83BF051F8304B03A819683AF0F4FFDF
:102E100003A8FDF7B9FB03A83BF046F82A212B488D
:102E20003EF0D8F8104806B0BDE870403AF0E6BD74
:102E30002146C0B23BF00AFD95F800013BF03CFD95
:102E40000A21064622483EF0C5F823460A223146AA
:102E500005483AF0EBFD04483AF0D0FDB1E700BF79
:102E6000F8C30400DC13FF1F6008FF1FC416FF1F18
:102E7000C016FF1FBC16FF1FB416FF1FB816FF1F9A
:102E80004C18FF1F0C18FF1F8C17FF1FCC17FF1FBC
:102E9000A818FF1F9018FF1F8C18FF1F9818FF1FFE
:102EA0009418FF1F9C07FF1F9C18FF1F8817FF1F08
:102EB0003407FF1F9C16FF1F3817FF1F20C4040094
:102EC000941FFF1F2CC404008007FF1F48C4040088
:102ED00014C4040008B53CF019F900280ADD234B9E
:102EE0001B68012B0CD0032B38D063B1204B002082
:102EF000187008BD3DF080F91C4B1B68012BF2D106
:102F00003CF018F901E03DF0F7FFC0B2184B532830
:102F1000187026D1002101220846FEF7E3FD154B6B
:102F20001B68013B032B1ED8DFE803F002070C11DE
:102F3000012200210220FEF7D5FD012200210220FE
:102F4000FEF7D0FD012200210320FEF7CBFD012278
:102F500000210420FEF7C6FD012008BD3DF060F908
:102F6000D3E7002008BD012008BD00BF9807FF1F60
:102F70002417FF1F8810FF1FF8B51D212DED028BB0
:102F8000734C054673483EF025F873483AF036FD19
:102F9000D4F80001A0F10A031D2B40F2B980626849
:102FA00023686E4ED4ED027A96ED037A6C4F02FBE5
:102FB00003F308EE103AB8EE488A6A4A28EE278AE8
:102FC0000023136088EE070A674A1360674A13609C
:102FD000674A1360674A1360674A1360674A07EEDF
:102FE000905A1360664AF8EEE77A1360654A80EEFD
:102FF000270A13603EF002FB15216348BDEEC00AAC
:1030000087ED000A3DF0E6FF18EE100A3FF0B8FA2F
:1030100041EC100B022150483AF012FD4E483AF0B4
:10302000EDFC2B2159483DF0D5FFF0683FF0A8FAA0
:1030300041EC100B022148483AF002FD46483AF0B4
:10304000DDFC0E2152483DF0C5FF294642483AF0CA
:10305000CDFC41483AF0D2FC16214E483DF0BAFF73
:1030600039683D483AF0C2FC3B483AF0C7FC336847
:10307000013B032B1CD8DFE803F0023B2D1E96ED2D
:10308000067AD4ED057A87EE270AD4ED047AB8EEF5
:10309000677AD4ED037AF8EE677A20EE070A20EE1D
:1030A000270A3EF0ABFA3C4BBDEEC00A83ED000AA6
:1030B000BDEC028BF8BD636D96ED060A002B3FD088
:1030C000012BF5D1FFF73AFA334BBDEEC00A83ED81
:1030D000000AEDE7636B96ED060A4BB3012BE7D1CF
:1030E000FFF7E8F92C4BBDEEC00A83ED000ADFE7DD
:1030F000D4F8CC3096ED067A7BB9D4ED0A7A87EE17
:10310000270AD4ED097AB8EE677AD4ED087AC2E7D7
:103110000021C0B23BF09AFB41E7D4ED367A87EE4E
:10312000270AD4ED357AB8EE677AD4ED347AB2E76F
:10313000FFF78CF8184BBDEEC00A83ED000AB7E725
:10314000FFF71EF9144BBDEEC00A83ED000AAFE78E
:10315000DC13FF1F74C404006008FF1F8810FF1FEA
:103160007817FF1FBC16FF1FB016FF1FB416FF1FF6
:103170006816FF1F5C16FF1F6016FF1F6416FF1FF7
:103180007016FF1F6C16FF1F94C40400ACC404002B
:10319000D8C40400E8C404000410FF1F70B5102157
:1031A000A848A94C84B03DF015FFA84B197819B96F
:1031B0002378002B00F0F980A548A64D3AF016FCC4
:1031C0000221A5483DF006FF2178A1483AF00EFC07
:1031D0009F483AF013FC01ACA049A14E20463AF0BA
:1031E0000BFE2046FDF7D0F920463AF05DFE296837
:1031F00020463AF001FE2046FDF7C6F920463AF097
:1032000053FE984920463AF0F7FD2046FDF7BCF9F9
:1032100020463AF049FE2968934D20463AF0ECFDED
:103220002046FDF7B1F920463AF03EFED5E90023ED
:103230008E4C95ED027A8E4902FB03F307EE903A2D
:1032400023688C4AF8EE677A06EE903A67EE877A42
:10325000F8EEE66A126886EEA77A013ADFED867A22
:1032600067EE277AC1ED007A032A23D8DFE802F05F
:10327000815F3E026A6D3368012A00F2DF8007EE4B
:10328000903AEA6DAB6D95ED197AF8EEE77A03FBAB
:1032900002F267EE877A07EE102AB8EE477AC7EE99
:1032A000876A764B012200210420C3ED006AFEF7F5
:1032B00019FC2368724832680021016071485B4242
:1032C0000360714B714852421A60714B1B685B423C
:1032D000036001220846FEF705FCD5F80001A0F1C5
:1032E0000A031D2B40F29B8004B070BD6A6B3368EB
:1032F000012A00F2A08007EE903AEA6BAB6B95EDE5
:10330000117AF8EEE77A03FB02F267EE877A07EEAE
:10331000102AB8EE477AC7EE876A584B012200217F
:103320000320C3ED006AFEF7DDFB2368C2E7D6ED9C
:10333000007AD5F8CC30F8EEE77A002B76D0D5F8C5
:10334000D430D5F8D02095ED367A02FB03F367EE42
:10335000877A07EE103AB8EE477A484BC7EE876A8D
:10336000012200210220C3ED006AFEF7BBFB2368A7
:10337000A0E796ED007AEA682B69D5ED057AB8EEFC
:10338000C77A02FB03F327EE277A07EE903AF8EEAE
:10339000677A3A4BC7EE276A012200211046C3ED37
:1033A000006AFEF79FFB236884E719462848294DE9
:1033B0003AF01CFB022128483DF00CFE21782448FD
:1033C00001AC3AF013FB22483AF018FB3149204691
:1033D0003AF012FD2046FDF7D7F820463AF064FD9A
:1033E000296820463AF008FD2046FDF7CDF8204632
:1033F0003AF05AFD284920463AF0FEFC2046FDF7F7
:10340000C3F820463AF050FD296820463AF0F4FC13
:103410002046FDF7B9F820463AF046FDDCE60121EA
:10342000C0B204B0BDE870403BF010BA6B6A2A6AC3
:1034300095ED0A7A89E7DFED196A6EE7DFED176A25
:103440002FE700BF00C504009C16FF1F3817FF1FA1
:103450006008FF1F8007FF1F1CC304003CC5040059
:10346000B016FF1F50C50400DC13FF1FBC16FF1F62
:103470008C16FF1F8810FF1F0000B4439816FF1F13
:103480008817FF1F8C18FF1F9018FF1F9418FF1F2D
:10349000B416FF1F14C5040028C504000000000076
:1034A000064B1B68012B03D0032B05D013B17047CB
:1034B0003BF076BD3DF014BE3CF05CBE9807FF1FAC
:1034C00030B50E4C0E4D83B00146019020463AF0C7
:1034D00067FA20463AF092FA0A4C019928463AF0E7
:1034E0005FFA28463AF08AFA019920463AF058FAEB
:1034F000204603B0BDE830403AF080BA6008FF1FB4
:10350000E007FF1F0808FF1F012804D0032806D08A
:1035100018B1002070473BF00DBE3DF0EDBC3CF013
:103520007FBE00BF2DE9F84F1C215748574F3DF093
:1035300051FD57483AF062FA0E2156483DF04AFDD7
:10354000396853483AF052FA51483AF057FA3B6812
:10355000092B00F097801A2B00F09280032B00F0CB
:103560008880DFF85491DFF83481494EDFF834A1C8
:10357000002516E0002B44D0072140463DF02AFDEF
:1035800000203DF0ADFD30463AF038FA00243B68AB
:10359000092B3AD01A2B59D0032B54D001350D2DBD
:1035A0001FD0D9F80030012B27D0032BE2D13CF0FB
:1035B00037FEC4B2072140463DF00CFD20463DF0E9
:1035C0008FFD30463AF01AFAFF2CE0D10321324841
:1035D0003DF000FD2E4829463AF008FA2C483AF012
:1035E0000DFA07212D483DF0F5FC20463DF078FD11
:1035F000BDE8F84F26483AF001BA3BF09BFDC4B253
:10360000D8E73DF079FCC4B2D4E71121244805F88D
:103610000A403DF0DFFC234842F072FB014621489E
:103620003DF0D8FC30463AF0E9F91A211E483DF049
:10363000D1FC00230A220D2130463AF0F7F930463A
:103640003AF0DCF9AAE7194BEC54A7E7DFF864B0CD
:10365000174805F80B400D213DF0BCFC584642F0E0
:103660004FFB014658463DF0B5FC30463AF0C6F9EE
:1036700094E70E4B00221A605A609A601A7370E742
:103680000C4BF7E7074BF5E764C504008807FF1FFD
:103690006008FF1FE8C304008CC5040084C5040053
:1036A00090C50400E816FF1FA4C50400C816FF1F3C
:1036B000C0C50400D816FF1F9807FF1FFFFFFFFFBC
:1036C0002DE9F0412DED028B9EB09F499F4C0546A0
:1036D00002A83AF091FB00239D4A9E4923600AA864
:1036E00036F026FB1C9B002B00F0B4815C203AF0E6
:1036F000E3FF0B9BC3600C9B03619DF834300375A3
:10370000954B036006460027944B83600DF1380803
:1037100047604146183036F0C5F97368B765013324
:1037200073608F4BB36009964FF47A738D4E069792
:103730008DF82070059607938B4F0A97404636F018
:10374000DFF90998002800F03E810368874A1B6B67
:10375000934240F03581036D002B00F08B81844A49
:1037600013680193019913680093009B5B1A632B04
:10377000F9D9002861D00368DFF80C821B69434542
:1037800040F0DD80036D002B00F000811A781107F6
:1037900000F1B680099C002C4FD02368DFF8E4814B
:1037A000DB6A434540F07581A06D18B13FF058FDCC
:1037B0000023A365236D002B00F0668104F118003F
:1037C00036F09EF9099D6C68013C6C60002C32D18A
:1037D0002B68DB6A434540F07381A86D10B13FF060
:1037E0003FFDAC652B6D002B00F0628105F11800E8
:1037F00036F086F9099CF4B123685E4A5B6893420F
:1038000040F07081A06D544B236018B13FF028FD4B
:103810000023A365236D04F11805002B00F05A81E5
:10382000284636F06DF9A760284636F069F95C2124
:1038300020463AF045FF002309934F4B029C4F4826
:10384000002C08BF1C4613213DF0C4FB204642F06B
:1038500057FA014620463DF0BDFB49483AF0CEF804
:1038600020463FF0F1FCB0EE408AF0EE608A099C01
:103870000596002C38D06568013D6560002D33D178
:103880002368404ADB6A934240F01781A06D10B173
:103890003FF0E6FCA565236D002B00F0F08004F1FD
:1038A000180036F02DF9099CF4B12368314A5B68A1
:1038B000934240F01481A06D274B236018B13FF074
:1038C000CFFC0023A365236D04F11805002B00F045
:1038D000FC80284636F014F9A760284636F010F927
:1038E0005C2120463AF0ECFE02A83AF0DDFAB0EE98
:1038F000480AF0EE680A1EB0BDEC028BBDE8F0810C
:10390000D8695B69C01A1BD500230A2205A90AA839
:103910003AF09AF90AA902A83AF00AFB0AA83AF082
:10392000C3FA2368AB4200F0898009980133236011
:10393000002882D003681B6943453FF423AF9847B2
:103940000028E1D126E700BFC02605008416FF1F2E
:10395000C816FF1FFC18FF1F2C230500942205002A
:10396000DC22050000230500B822050061040000E8
:10397000941FFF1F190D0000902B050040C6040086
:103980006008FF1FD1040000A10B0000436D002B55
:103990003FF400AF93F8312012077FF5FBAE1A68B1
:1039A0001869801A5A695B6862EB0303B0F1004F33
:1039B00073F10003C4D36FF000400028A4D1E9E6FE
:1039C000984700287FD14C4B4C48012212211A7095
:1039D0003DF000FB4A483AF011F80B2149483DF010
:1039E000F9FA47483AF00AF847490AA83AF004FABF
:1039F0000AA8FCF7C9FD0AA83AF056FA434B1B681F
:103A0000012B49D0032B4FD0002B49D040490AA8A5
:103A10003AF0F2F90AA8FCF7B7FD0AA83AF044FA1E
:103A20003C4B0AA819683AF0E7F90AA8FCF7ACFD84
:103A30000AA83AF039FA9FED2E8B18E71D21364877
:103A40003DF0C8FA29462E4839F0D0FF2C4839F00D
:103A5000D5FF9FE61D9B002B7FF448AE2F4E0693AB
:103A60008DF8203009934FF47A730DF138080596DC
:103A7000079361E6436D002B7FF471AEA3E7636D9E
:103A8000002B7FF40CAF0EE7636D002B7FF496AE36
:103A900098E62046984795E622203BF081FAB5E764
:103AA00022203DF01DFBB1E722203CF063FBADE797
:103AB0006B6D002B7FF49AAE9CE620469847F2E6A9
:103AC0002846984796E6099849E6636D002B7FF4EF
:103AD00000AF01E7636D002B7FF4A2AEA3E62046A2
:103AE000984701E720469847A5E600BFAFF300805E
:103AF00000000000000000001510FF1FD0C50400EA
:103B00006008FF1FE4C50400F0C504009807FF1F0C
:103B10000CC604008407FF1F20C604000023050014
:103B20002DE9F04FADF29C5DAF49824602A83AF014
:103B300063F9AE4905A83AF05FF940F2145200214A
:103B400021A841F049FA0023A94AAA490DA836F054
:103B5000EFF81F9B002B00F06F845C203AF0ACFD67
:103B60000E9BC3600F9B03619DF840300375A24B11
:103B700003600446A14B8360002511AE45603146C9
:103B8000183035F08FFF6368A565013363609C4B87
:103B9000A3609C4B0D93304635F0B2FF9A4D4FF029
:103BA0000008002C00F040812368984ADB6B9342A8
:103BB0004FF0000240F0C583DFF844B20E924FF49C
:103BC0007A7704F1180130468DF840201F92209238
:103BD000CDF834B00F9735F0FFFF1F9B002B00F09E
:103BE000A0835C203AF068FD0E9BC3600F9B0361CD
:103BF0009DF840300375804B036007464FF0000985
:103C00007E4B8360C0F804903146183035F04AFF8F
:103C10007B68C7F808B001337B604FF47A73C7F84C
:103C20005890CDF824908DF82C9008950C970A9315
:103C3000744B0D93304635F063FF0C9F002F00F05E
:103C40009E843B68724A5B6B934240F0A883B96DD7
:103C5000002900F0B0830DA83AF0CEF80C980028A7
:103C600000F0F28002686B49136B8B4240F0CD810B
:103C7000036D002B00F04283926B67498A4240F04B
:103C800095831B7813F0700F00F0C781012158480D
:103C90003DF0A0F9614839F0B1FE0C9F002F57D0DC
:103CA0003B68DFF88091DB6A4B4540F07C83B86D60
:103CB00018B13FF0D5FA0023BB653B6D002B00F037
:103CC0003B8307F1180035F01BFFDDF830B0DBF85F
:103CD0000470013FCBF80470002F37D1DBF80030BF
:103CE000DB6A4B4540F08283DBF8580018B13FF0A7
:103CF000B7FACBF85870DBF85030002B00F0708327
:103D00000BF1180035F0FCFE0C9FFFB13B68444AF4
:103D10005B68934240F08483B86D374B3B6018B1C9
:103D20003FF09EFA0023BB653B6D07F11809002B9D
:103D300000F06E83484635F0E3FE324BBB604846E8
:103D400035F0DEFE38465C213AF0BAFC00230C93D5
:103D50000DA83AF0A9F80C9F0895002F3FF421AF69
:103D60007B68013B7B600193002B7FF41AAF3A68BC
:103D70002C49D26A8A4240F05083B86D18B13FF0A6
:103D80006FFA019BBB653B6D002B00F0328307F19E
:103D9000180035F0B5FE0C9F002F3FF402AF3B68D2
:103DA0001F4A5B68934240F04383B86D124B3B60FF
:103DB00018B13FF055FA0023BB653B6D07F11809B8
:103DC000002B00F03083484635F09AFE0D4BBB6067
:103DD000484635F095FE38465C213AF071FC002CDF
:103DE0007FF4E2AE20E000BF0CDA040054C6040009
:103DF0005CC60400FC18FF1F2C230500942205005C
:103E0000DC220500B822050000230500910900000E
:103E1000BD05000061040000690A00006008FF1F82
:103E2000190D0000D10400004FF47A7383490994FE
:103E30000DA88DF82C4008950C940A9339F0DCFFFE
:103E40000C9800287FF40EAF13217D483DF0C2F896
:103E50007C4839F0D3FD0DA83AF026F80C9E089561
:103E6000002E39D07568013D7560002D34D133685E
:103E7000754ADB6A934240F01383B06D10B13FF096
:103E8000EFF9B565336D002B00F0E28206F1180002
:103E900035F036FE0C9DFDB12B686C4A5B68934291
:103EA00040F03083A86D6A4B2B6018B13FF0D8F911
:103EB0000023AB652B6D05F11806002B00F0128373
:103EC000304635F01DFE634BAB60304635F018FED2
:103ED00028465C213AF0F4FB5F49604D594FDFF80A
:103EE00094910DA839F088FF0DA8FCF74DFB0DA8A3
:103EF00039F0DAFF07EE908AB8EEE70A00268DED7A
:103F0000010AFCF7F9FA29680DA839F075FF0DA828
:103F1000FCF73AFB0DA839F0C7FF51490DA839F05D
:103F20006BFF0DA8FCF730FB0DA839F0BDFF9DED30
:103F3000010AFCF7E1FA29680DA839F05DFF0DA828
:103F4000FCF722FB0DA839F0AFFF0C2145483DF0EE
:103F500041F841463B4839F049FD3A4839F04EFDB9
:103F600021AD284641F0CCFE014628463DF032F80E
:103F7000384639F043FD0A2148463DF02BF801361A
:103F8000384639F03BFDB04505F10D05E9DA0AEB9D
:103F90004A090AEB89090AF1FF3321AADFF8D8B0F0
:103FA000284E019402EB090501279A467C1E032145
:103FB00058463DF00FF82146304639F017FDA5EB85
:103FC0000908032128483DF005F8404641F098FED5
:103FD000014640463CF0FEFF0AEB07081321234848
:103FE0003CF0F8FF4146304639F000FD304639F0EC
:103FF00005FD631E052B00F2CA82DFE813F0F9000D
:10400000F700F500F300BD003F00984700283FF49B
:104010001BAF0C98002840F0B98102A90DA83AF016
:1040200073F80028C0F24181152111483CF0D2FFFD
:10403000044839F0E3FC0C9F30E600BFC0260500C1
:1040400060C604006008FF1FD1040000190D0000C5
:104050002C230500B822050074C604008007FF1F4A
:1040600094C60400ACC6040098050500D4C604003C
:10407000BCC604000C020500E4C60400B349019C60
:104080000DA839F0B9FE0DA8FCF77EFA0DA839F09D
:104090000BFFAF490DA839F0AFFE0DA8FCF774FA7D
:1040A0000DA839F001FF08EB480308EB830021ABB2
:1040B0001D1829460DA839F09FFE0DA8FCF764FADB
:1040C0000DA839F0F1FE284641F01AFE01462846B7
:1040D0003CF080FF9F4839F091FC9F4B0DA8196878
:1040E00039F08AFE0DA8FCF74FFA0DA839F0DCFE76
:1040F000002C37D06568013D6560002D32D1236802
:10410000964ADB6A934240F0CE81A06D10B13FF039
:10411000A7F8A565236D002B00F0958104F1180028
:1041200035F0EEFC23688E4A5B68934240F0E781ED
:10413000A06D8C4B236018B13FF092F80023A3656B
:10414000236D04F11805002B00F0C781284635F0D7
:10415000D7FC854BA360284635F0D2FC5C21204675
:104160003AF0AEFA05A839F09FFE02A839F09CFE9D
:104170000DF29C5DBDE8F08F7C490DA839F03CFE46
:104180000DA8FCF701FA0DA839F08EFE70490DA8B4
:1041900039F032FE0DA8FCF7F7F90DA839F084FECE
:1041A00029460DA839F028FE0DA8FCF7EDF90DA859
:1041B00039F07AFE284641F0A3FD014628463CF03E
:1041C00009FF304639F01AFC634B19680DA839F025
:1041D00013FE0DA8FCF7D8F90DA839F065FE0137DC
:1041E0000D35E3E66249C8E76249C6E76249C4E7BC
:1041F0006249594C0DA839F0FFFD0DA8FCF7C4F930
:104200000DA839F051FE52490DA839F0F5FD0DA861
:10421000FCF7BAF90DA839F047FE29460DA839F088
:10422000EBFD0DA8FCF7B0F90DA839F03DFE2846CE
:1042300041F066FD014628463CF0CCFE304639F0A0
:10424000DDFB21680DA839F0D7FD0DA8FCF79CF91E
:104250000DA839F029FE4A490DA839F0CDFD0DA869
:10426000FCF792F90DA839F01FFE39490DA839F075
:10427000C3FD0DA8FCF788F90DA839F015FE2946F5
:104280000DA839F0B9FD0DA8FCF77EF90DA839F09D
:104290000BFE284641F034FD014628463CF09AFECC
:1042A000304639F0ABFB216890E705A90DA839F03D
:1042B0002BFF0028BFF6B8AE0C9F002F00F0E48063
:1042C0003B68304A5B6B934240F0E280D7F85890ED
:1042D000B9F1000F00F0EA80484641F011FD0146B7
:1042E00048463CF077FE1B4839F088FBB8F1620F76
:1042F00040F3B3800C9F08F10108CFE4436D002B1D
:104300003FF4A2AD926B204B9A424FD1436D002BEC
:104310003FF483AE93F8313013F0500F7FF4B6AC16
:104320007BE6209B002B7FF45CAC0A9709938DF809
:104330002C300C9308957BE47B6D002B7FF4C1AC93
:10434000C3E4214608A8984777E400BF94C7040057
:1043500000C704006008FF1F8407FF1FD10400008E
:10436000190D00002C230500B82205007CC70400AD
:1043700064C704004CC7040034C7040004C7040029
:104380001CC70400BD050000690A000003689A6BA1
:104390009B4B9A420AD1036D002BB7D071E438468B
:1043A0009847014657E4384698478EE490470028DE
:1043B0007FF46CAC31E64FF4807001913EF048FF21
:1043C000B865002800F0DE80019901703B6DABB14B
:1043D00001464FF48072184635F008F8B96D3AE49A
:1043E000DBF85430002B7FF48BAC8DE458469847B3
:1043F0008AE47B6D002B7FF4CAACCCE47B6D2BB1DF
:1044000001464FF48072184632F03AFDB96D22E44D
:104410007B6D002B7FF48EAC8FE438469047BAE476
:104420003846984792E47B6D002B7FF4CCACCDE40A
:1044300038469847FFF7B5BB209C002C7FF48DAB26
:1044400011AEFFF7A6BB636D002B7FF467AE69E684
:10445000736D002B7FF41AAD1CE508EB48030C9F2D
:1044600008EB830321AA02EB0309002F3FD03B682E
:10447000644A5B6B934248D1B96D002957D04846D6
:104480000D2240F0EBFE36E7DFF87C91394627E756
:10449000384698478146B9F1000F3FF424AF1BE737
:1044A00030469847F6E4204698473BE64FF4807044
:1044B0003EF0CEFE0146B86500285CD080F8009042
:1044C000386D38B34FF4807234F090FFD7F85890BD
:1044D000B9F1000F3FF407AFFEE6636D002B7FF4E8
:1044E00035AE36E66B6D002B7FF4EAACEBE4464963
:1044F00048460D2208F1010840F0B0FE28E42046AD
:1045000098472FE628469847E6E4384698470C9F98
:104510000146B4E7786D18B14FF4807232F0B0FC08
:10452000D7F85890B9F1000F3FF4DDAED4E64FF460
:10453000807001913EF08CFE0346B865B8B10199D8
:104540000170386D38B119464FF4807234F04EFF67
:10455000B96D0C9F93E7786D38B119464FF48072AE
:1045600032F08EFCB96D0C9F89E7B96D87E7274B58
:10457000BB65194683E7254BBB659946ACE62249E6
:10458000FFF769BB214BBB651946FFF764BB2049A8
:104590000DA839F031FC0DA8FBF7F6FF0DA839F096
:1045A00083FC1C490DA839F027FC0DA8FBF7ECFF94
:1045B0000DA839F079FC29460DA839F01DFC0DA88D
:1045C000FBF7E2FF0DA839F06FFC284641F098FB9D
:1045D000014628463CF0FEFC304639F00FFA0E4BFF
:1045E0000DA8196839F008FC0DA8FBF7CDFF0DA840
:1045F00039F05AFC072F7FF4F2AD019C78E500BF3B
:10460000690A0000BD050000C0260500E80FFF1F75
:10461000E8C6040000C704008407FF1F2DE9F04F1F
:10462000A7B003465149019307A839F0E5FB50496B
:104630000AA839F0E1FB68203AF040F80C23036047
:1046400008234360C3181C46049300F168051F4605
:10465000204600210C3439F0CFFBA542F8D11A21B5
:1046600044483CF0B7FC444839F0C8F90023434AB9
:10467000434912A835F05CFB249B002B00F02684F4
:104680005C203AF019F8139BC360149B03619DF8FA
:10469000543003753B4B036006463B4B836000245C
:1046A00000F1180B16A94460584635F0FBF9736801
:1046B000DFF8F4A0B46501337360C6F808A0334B8B
:1046C000129316A835F01CFA336831491A6B8A42E6
:1046D00040F08F84326D002A00F064849B6A2D497B
:1046E0008B4240F09384D4692B48DFF8C0800A21C4
:1046F0003CF070FC00230A2221461F4839F096F94D
:104700001D4839F07BF9092124483CF063FC019CE9
:104710001948214639F06AF9174839F06FF9102124
:104720001F483CF057FCD8F80010134839F05EF9E8
:10473000114839F063F91B481021002C40F0A9837F
:104740006423C8F800303CF045FCD8F800100A4853
:1047500039F04CF9084839F051F906230024029742
:10476000054D039437469946BAE000BF0CDA0400C1
:10477000ACC70400B4C704006008FF1F5CC6040097
:10478000FC18FF1F2C23050094220500B822050009
:104790006104000075090000E0C70400ECC70400D4
:1047A000F8C704000CC80400DC2205007007FF1FD6
:1047B0003368744A5B6B934240F02F83B36D002BD8
:1047C00000F040831846009341F09AFA009B01469E
:1047D00018463CF0FFFB284639F010F9119E002ED8
:1047E00000F0CA82336868499A6B8A4240F062825C
:1047F000326D002A00F0CE82127812F0700F00F0B5
:104800006282624811213CF0E5FB2846013C39F008
:10481000F5F8119B002B00F0D4801A685C48116BEE
:10482000814240F0C980196D002900F0A782D26A48
:10483000584EB24240F0AB82986D28B100933EF0E2
:104840000FFD009B00229A651A6D002A00F0BF82BE
:1048500003F1180035F054F9119A5368013B536085
:104860000093002B38D11168C96AB14240F00E8321
:10487000906D28B105923EF0F3FC059A009B93657C
:10488000136D002B00F0F68202F1180035F038F9B4
:10489000119E0EB33368404A5B68934240F05A83DE
:1048A000B06D3E4B336018B13EF0DAFC0023B365C7
:1048B000336D002B00F0FE8206F1180318460093BA
:1048C00035F01EF9009B364AB260184635F018F9EB
:1048D00030465C2139F0F4FE01344C4500F3F1829E
:1048E0003B68304ADB6B934240F0928200224FF4E7
:1048F0007A76594616A8CDE92422CDF848A013921D
:104900008DF85420149635F067F9249B002B00F0A5
:1049100052825C2039F0D0FE139A204B0360C260B3
:10492000214B149A8360026100239DF85420436058
:104930000646027516A9183035F0B4F80023B365A1
:104940000E938DF840307368C6F808A00133736089
:10495000164B0D934FF47A7311960F93104B1293DD
:1049600016A835F0CDF82146284639F03FF8104812
:1049700002213CF02FFB119E002E7FF419AF0D4B4E
:10498000314625E7BD050000690A000020C8040083
:1049900061040000D1040000190D00002C23050063
:1049A000B8220500910900009422050000230500AB
:1049B00028C40400C026050018468847002840F097
:1049C00033820021A7483E46029F3CF003FBA648E5
:1049D00039F014F80F21A5483CF0FCFA2146A24812
:1049E00039F004F80321A2483CF0F4FAD8F800109A
:1049F0009D4838F0FBFF04F1080303219C48C8F8E8
:104A000000303CF0E7FAD8F80010974838F0EEFF95
:104A1000954838F0F3FF974912A839F0EDF912A83C
:104A2000FBF7B2FD12A839F03FFA934B1B68012B3C
:104A300000F00983032B00F00A83002B00F0FF82B3
:104A4000631E00EE103ADFF86492B8EEC00AFBF77E
:104A500053FDD9F8001012A839F0CEF912A8FBF7CF
:104A600093FD12A839F020FA119C844B0D93002C71
:104A700039D06568013D6560002D34D12368804AD6
:104A8000DB6A934240F00E83A06D10B13EF0E8FB6C
:104A9000A565236D002B00F0EB8204F1180035F0C2
:104AA0002FF8119CFCB12368764A5B68934240F072
:104AB000EE82A06D744B236018B13EF0D1FB002351
:104AC000A365236D04F11805002B00F0EE82284643
:104AD00035F016F86D4BA360284635F011F82046E6
:104AE0005C2139F0EDFDDFF8C8815F4C012505F14F
:104AF000FF3A032140463CF06DFA5146204638F01B
:104B000075FF03215A483CF065FA3946204638F0D3
:104B100047FFA5F1020A204638F070FFBAF1050FF1
:104B200000F2D782DFE80AF09C9A98966A03584907
:104B300012A839F061F912A8FBF726FD12A839F086
:104B4000B3F9544912A839F057F912A8FBF71CFD24
:104B500012A839F0A9F9394612A839F06BF912A850
:104B6000FBF712FD12A839F09FF9D9F8001012A82E
:104B700039F042F912A8FBF707FD12A839F094F9B1
:104B80000AA839F091F907A839F08EF97468013C48
:104B90007460002C2FD13368394ADB6A934240F0AD
:104BA0005A82B06D10B13EF05BFBB465336D002BE3
:104BB00000F01A82584634F0A3FF3368314A5B682C
:104BC000934240F06C82B06D2F4B336018B13EF0D1
:104BD00047FB0023B365336D002B00F05B82584622
:104BE00034F08EFF294BB360584634F089FF5C21C6
:104BF000304639F065FD27B0BDE8F08F264912A890
:104C000039F0FAF812A8FBF7BFFC12A839F04CF9FA
:104C1000204912A839F0F0F812A8FBF7B5FC12A849
:104C200039F042F9394612A839F004F912A8FBF715
:104C3000ABFC12A839F038F9D9F8001012A839F0F5
:104C4000DBF812A8FBF7A0FC12A839F02DF90C37FD
:104C500001354CE71149D2E71149D0E71149CEE7B8
:104C60001149CCE7C02605006008FF1F64C8040096
:104C70009805050074C804009807FF1F002305006D
:104C8000D1040000190D00002C230500B8220500F6
:104C900094C7040000C704007CC7040064C7040074
:104CA0004CC7040034C7040004C704008407FF1F76
:104CB000E4C604003046904700287FF4A2AD119E60
:104CC000002E59D033685B6BAA4A93426FD1B16D05
:104CD000002900F0298112A839F08EF80E21A6488B
:104CE0003CF078F912A9284638F05AFE284638F0E8
:104CF00085FE1221A1483CF06DF907A912A839F0F0
:104D000003FA0146284638F071FE284638F076FE50
:104D100007A912A839F0F8F90028C0F28B80019B8E
:104D2000A3425CDD0A2196483CF054F9214628460E
:104D300038F05CFE934803213CF04CF9119E002EA4
:104D40004AD033688B4A5B6B934240F09880B36DD6
:104D5000002B00F0D1801846009340F0D1FF009B5B
:104D6000014618463CF036F9032186483CF032F9FA
:104D700012A839F099F84CE58349ACE7596D002940
:104D80003FF41FAED26A814EB2423FF455AD184691
:104D9000904761E5726D002A95D092F8312012F0AB
:104DA000500F7FF42EAD5B6B724A93428FD030462A
:104DB000984701468FE7259B002B7FF4AAAD0E9301
:104DC0008DF840301193724B0F960D93C6E55A6DD6
:104DD000002A7FF43DAD3FE56B4B3146C1E7119EA4
:104DE000002E00F0C5803368624A5B6B934240F04E
:104DF0000981B16D002900F00E81039E049B06EB32
:104E0000460003EB800039F0A9F8731C039389E78F
:104E1000002239460DA89847A5E530469847034635
:104E2000002B3FF4D8ACCDE4119B002B3FF454ADE4
:104E30001A68FCE40AA912A839F066F90028BFF63E
:104E40006EAF6FE74FF4807000933EF001FA0146B9
:104E5000B065002800F03681009B0370306D00289B
:104E60007BD04FF4807234F0C1FAB36D002B3FF465
:104E7000B2ACA7E4536D002B7FF406AD08E53046D5
:104E800098470346002B3FF46FAF64E7104688470E
:104E9000FEE43CF09FF8D8F800103E4838F0A6FD3C
:104EA0003C4838F0ABFD019B06337FF557ACDFF88B
:104EB000F09018E6736D002B7FF4FEAC06F118033A
:104EC00001E53E46DFF8D890029F0CE6259B002BBB
:104ED0007FF4D6AB304B129316A834F011FE0E219E
:104EE0002E483CF077F80AA838F0DEFF07A838F023
:104EF000DBFF27B0BDE8F08F4FF4807000933EF0E9
:104F0000A7F90146B065002800F0E080009B03701F
:104F1000306D00285DD04FF4807234F067FAB36DC5
:104F2000002B3FF421AF16E74FF4807000913EF064
:104F30008FF9B065002800F0C18000990170336DD1
:104F4000002B3CD001464FF48072184634F04EFAE4
:104F5000B16DC0E630469847BEE4706D18B14FF4AD
:104F6000807231F08DFFB36D002B3FF434AC29E437
:104F7000054942E7BD05000034C8040044C80400E8
:104F800058C8040098050500C0260500D10400009B
:104F9000002305006008FF1FB8220500D0C70400E9
:104FA0008407FF1F726D42B39B6A604A93422DD102
:104FB000746D002C3FF498AB2469FFF795BB736DBB
:104FC0002BB101464FF48072184631F059FFB16D94
:104FD00081E6706D18B14FF4807231F051FFB36DFE
:104FE000002B3FF4C1AEB6E6736D002B7FF4E2AD4B
:104FF000E3E53046904700283FD10E214C483BF076
:10500000E9FFBDE5304698470146F6E63046984749
:105010000446FFF769BB4FF4807000913EF018F929
:10502000B065002846D000990170336DB3B10146D8
:105030004FF48072184634F0D9F9B16DDDE62220C4
:105040003CF04EF8FCE4222039F0AAFFF8E42220DC
:105050003BF090F8F4E430469847AEE5736D2BB121
:1050600001464FF48072184631F00AFFB16DC4E674
:10507000636D002B7FF411AD13E533682B4A9B6AF7
:105080009342C3D1326D002A92D0FFF72CBB204649
:10509000984728E5736D002B7FF4A1ADA2E530465B
:1050A0009847A8E520469847FBE4636D002B7FF402
:1050B0000EAD0FE51F4BB36519469EE61D4BB3655C
:1050C000194608E61B4BB365FFF77CBB194BB3656C
:1050D00041E6194912A838F08FFE12A8FBF754FADE
:1050E00012A838F0E1FE154912A838F085FE12A882
:1050F000FBF74AFA12A838F0D7FE394612A838F062
:1051000099FE12A8FBF740FA12A838F0CDFED9F8A4
:10511000001012A838F070FE12A8FBF735FA12A89A
:1051200038F0C2FE072D7FF492AD29E57509000025
:10513000D0C70400E80FFF1FE8C6040000C7040042
:105140002DE9F0432DED028B974C9849BDB0002618
:1051500005460BA8266038F04FFE31460EA838F001
:105160004BFE314611A838F047FE122190483BF023
:1051700031FF904840F0C4FD01468E483BF02AFFC5
:105180008D4838F03BFC33468A4A8C4928A834F0D5
:10519000CFFD3A9B002B00F06C825C2039F08CFA3A
:1051A000299BC3602A9B03619DF8AC300375844B37
:1051B000036006460027834B83600DF1B00847600B
:1051C0004146183034F06EFC7368B7650133736084
:1051D0007D4BB36027964FF47A737C4E24978DF8FD
:1051E0009870239625937A4F2897404634F088FC90
:1051F0002798002800F030820368764A1B6B9342A0
:1052000040F02782036D002B00F04382724A13683E
:105210000293029913680193019B5B1A132BF9D92E
:1052200048B3DFF8D08103681B69434540F098819B
:10523000036D002B00F0F4811A78110740F194817E
:10524000D8695B69C01A40F18C8100230A2223A926
:1052500028A838F0F9FC28A90BA838F069FE28A87E
:1052600038F022FE2368AB4200F07E81279801339C
:1052700023600028D7D100210BA838F01DFF574D1F
:1052800003782B6001220BA928A838F04FFF28A92A
:105290000EA838F04DFE28A838F006FE0BA950489D
:1052A00038F03EFE2D214F483BF094FE21684248E5
:1052B00038F09CFB404838F0A1FB0C214A483BF0F9
:1052C00089FE29683C4838F091FB3B4838F096FB52
:1052D000122146483BF07EFE4149374838F060FBDA
:1052E000354838F08BFB082141483BF073FE0EA98E
:1052F000314838F055FB304838F080FB2B680D3BC7
:105300004D2B00F20482DFE813F0A100020202023A
:10531000020202020202020202020202020202026D
:10532000020202020202020202020202020202025D
:10533000020202020202020202020202020202024D
:10534000020202020202020202020202020202023D
:10535000020202020202020202020202020202022D
:105360000202020202021603020202020202020208
:105370000202A100A100A100A100A10018025B028D
:10538000D202A100B1027700770002023A02A10026
:10539000A100B2049104A1008703020224037C024D
:1053A000A1000202A10000BF8416FF1FC026050055
:1053B00088C80400E816FF1F6008FF1FFC18FF1FC5
:1053C0002C23050094220500DC22050000230500A3
:1053D000B822050061040000941FFF1F4C17FF1F37
:1053E0007416FF1FACC80400DCC80400ECC804003D
:1053F00000C90400A10B000001210BA838F05CFEDD
:105400000178AF4838F0BCFD02220BA928A838F07B
:105410008DFE28A90EA838F08BFD28A838F044FD91
:105420001B21A8483BF0D6FDA549A74838F0B8FA9B
:10543000A54838F0E3FAA5480C213BF0CBFDA24883
:105440000EA938F0ADFAA04838F0D8FAA04B0E9C5F
:10545000002C08BF1C4620463DF0F6FE0B219D485F
:10546000B0EE408AF0EE608A3BF0B4FD0EA996489B
:1054700038F096FA944838F0C1FA0C2196483BF07F
:10548000A9FD204640F03CFC014620463BF0A2FD31
:105490008D4838F0B3FA072190483BF09BFDB0EE01
:1054A000480AF0EE680A0221874838F0C9FA8648AF
:1054B00038F0A4FA8A481A213BF08CFD824838F073
:1054C0009DFA279C2396002C38D06568013D6560C5
:1054D000002D33D12368834ADB6A934240F0148164
:1054E000A06D10B13DF0BCFEA565236D002B00F052
:1054F000D58004F1180034F003FB279CF4B1236835
:10550000794A5B68934240F0DD83A06D774B23605E
:1055100018B13DF0A5FE0023A365236D04F1180525
:10552000002B00F0C583284634F0EAFAA76028462D
:1055300034F0E6FA20465C2139F0C2F811A838F0C0
:10554000B3FC0EA838F0B0FC0BA838F0ADFCB0EE00
:10555000480AF0EE680A3DB0BDEC028BBDE8F0836E
:10556000984700287FF471AE279D002D3FF483AE4D
:105570002B68DFF87091DB6A4B4540F09980A86D8D
:1055800018B13DF06DFE0023AB652B6D002B00F0D4
:105590008A8005F1180034F0B3FADDF89C80D8F861
:1055A0000450013DC8F80450002D36D1D8F8003021
:1055B000DB6A4B4540F0BC80D8F8580018B13DF08C
:1055C0004FFEC8F85850D8F85030002B00F09680A5
:1055D00008F1180034F094FA279DF5B12B68424A7F
:1055E0005B68934240F07183A86D404B2B6018B10B
:1055F0003DF036FE0023AB652B6D05F11808002B3E
:1056000000F05B83404634F07BFAAF60404634F0F4
:1056100077FA28465C2139F053F8002327932AE6CD
:10562000436D002BA0D093F8312012079CD51A6847
:105630001869801A5A695B6862EB0303B0F1004F86
:1056400073F100038DD36FF0004000287FF4FDADAF
:105650008AE7984700286ED1254B264801220F2162
:105660001A703BF0B7FC184838F0C8F99FED128B60
:1056700027E73B9B002B7FF490AD1F4E24938DF8C2
:10568000983027934FF47A73239625930DF1B00841
:10569000A9E5436D002B7FF4B9ADDDE7636D002B09
:1056A0007FF427AF29E76B6D002B7FF472AF74E7AF
:1056B0002846984771E700BF000000000000F0BFD7
:1056C000A416FF1F84C904006008FF1FA0C90400BE
:1056D000902B050028CB040034CB040044CB0400FD
:1056E0004CCB0400D1040000190D00002C23050050
:1056F0001510FF1F9CC8040000230500D8F8543083
:10570000002B7FF465AF67E720469847F5E6A44C89
:10571000A44801232E2123703BF05CFC2178A24891
:1057200038F064F9A04838F069F99FED9B8BC8E622
:105730004046984750E7279868E501210BA838F0C4
:10574000BBFC0178994838F01BFC02220BA928A861
:1057500038F0ECFC28A90EA838F0EAFB28A838F0AD
:10576000A3FB092192483BF035FC90498E4838F064
:1057700017F98D4838F042F98E4809215DE601217C
:105780000BA838F099FC01788B4838F0F9FB02221D
:105790000BA928A838F0CAFC28A90EA838F0C8FB25
:1057A00028A838F081FB092184483BF013FC82498A
:1057B0007D4838F0F5F87C4838F020F98048DCE77F
:1057C00001210BA838F078FC01787E4838F0D8FB2E
:1057D00002220BA928A838F0A9FC28A90EA838F0A5
:1057E000A7FB28A838F060FB092177483BF0F2FBC3
:1057F00074496D4838F0D4F86B4838F0FFF87348B6
:10580000BBE701210BA838F057FC20AC01782046FB
:1058100038F02CFB6E49204638F038FC002800F0A8
:10582000578201236B482B600D213BF0D3FB0222F2
:105830000BA928A838F07AFC28A90EA838F078FB24
:1058400028A838F031FB2968574838F0CFF80521EF
:1058500061483BF0BFFB0EA9534838F0A1F852480D
:1058600038F0CCF8204638F01FFBEFE501210BA8FB
:1058700038F022FC0178594838F082FB02220BA94B
:1058800028A838F053FC28A90EA838F051FB28A806
:1058900038F00AFB092152483BF09CFB4949424839
:1058A00038F07EF8404838F0A9F84E4865E7002304
:1058B000142228A90EA838F00DFC4B494B4D4C4C36
:1058C00028A83FF0FDFC3DF0BFFC51EC100B3DF073
:1058D000A7F94849286000203FF0F2FC3DF0B4FCF5
:1058E00051EC100B3DF09CF90621206042483BF042
:1058F00071FB0EA92C4838F053F809213F483BF0C2
:1059000069FB28683CF03CFE41EC100B0221264864
:1059100038F096F809213A483BF05CFB20683CF0EF
:105920002FFE41EC100B02211F4838F089F81E4869
:1059300038F064F88AE50B2132483BF04BFB1A48FB
:1059400038F05CF830480EA938F0EAFA9FED128B77
:10595000B7E501210BA838F0AFFB01782B4838F0F0
:105960000FFB02220BA928A838F0E0FB28A90EA8FB
:1059700038F0DEFA28A838F097FA092124483BF0DD
:1059800029FB2249084838F00BF8074838F036F868
:105990002048F2E6AFF300800000000000000000A5
:1059A0001410FF1FF8CA04006008FF1F4010FF1FFB
:1059B00018C9040024C904001C10FF1FB0C904004A
:1059C000BCC904007010FF1F30C904003CC90400AA
:1059D00054CA0400CCCA0400F0CA04002810FF1FF7
:1059E0006CC9040078C9040048C904001C17FF1FD3
:1059F0002017FF1FD02605004CC9040054C904001D
:105A000060C904000CC904007C10FF1F5810FF1F60
:105A1000B4CA0400C0CA040001210BA838F04CFB32
:105A2000017814A838F022FA02220BA928A838F02D
:105A30007DFB28A90EA838F07BFA28A838F034FAA4
:105A40001422002328A90EA838F044FB0621B548EB
:105A50003BF0C0FA0EA9B44837F0A2FFB24837F0C5
:105A6000CDFFB24B93E803000390ADF8101028A8C7
:105A700003A93FF093FB0022034604460EA917A892
:105A800038F080FB22460EA91AA838F04FFB0821F7
:105A9000A7483BF09FFA1AA9A34837F081FFA24814
:105AA00037F0ACFF012300221AA91DA838F06AFBC9
:105AB00008219F483BF08EFA1AA99B4837F070FFE7
:105AC00020AC994837F09AFF01221AA9204638F0F5
:105AD0002DFB102197483BF07DFA14A9924837F02E
